{"abi":[{"type":"function","name":"DEFAULT_ADMIN_ROLE","inputs":[],"outputs":[{"name":"","type":"bytes32","internalType":"bytes32"}],"stateMutability":"view"},{"type":"function","name":"MINTER_ADMIN_ROLE","inputs":[],"outputs":[{"name":"","type":"bytes32","internalType":"bytes32"}],"stateMutability":"view"},{"type":"function","name":"MINTER_ROLE","inputs":[],"outputs":[{"name":"","type":"bytes32","internalType":"bytes32"}],"stateMutability":"view"},{"type":"function","name":"MINT_LOCKER_ADMIN_ROLE","inputs":[],"outputs":[{"name":"","type":"bytes32","internalType":"bytes32"}],"stateMutability":"view"},{"type":"function","name":"MINT_LOCKER_ROLE","inputs":[],"outputs":[{"name":"","type":"bytes32","internalType":"bytes32"}],"stateMutability":"view"},{"type":"function","name":"UPGRADE_INTERFACE_VERSION","inputs":[],"outputs":[{"name":"","type":"string","internalType":"string"}],"stateMutability":"view"},{"type":"function","name":"allowance","inputs":[{"name":"owner","type":"address","internalType":"address"},{"name":"spender","type":"address","internalType":"address"}],"outputs":[{"name":"","type":"uint256","internalType":"uint256"}],"stateMutability":"view"},{"type":"function","name":"approve","inputs":[{"name":"spender","type":"address","internalType":"address"},{"name":"value","type":"uint256","internalType":"uint256"}],"outputs":[{"name":"","type":"bool","internalType":"bool"}],"stateMutability":"nonpayable"},{"type":"function","name":"balanceOf","inputs":[{"name":"account","type":"address","internalType":"address"}],"outputs":[{"name":"","type":"uint256","internalType":"uint256"}],"stateMutability":"view"},{"type":"function","name":"balanceOfLocked","inputs":[{"name":"account","type":"address","internalType":"address"}],"outputs":[{"name":"","type":"uint256","internalType":"uint256"}],"stateMutability":"view"},{"type":"function","name":"decimals","inputs":[],"outputs":[{"name":"","type":"uint8","internalType":"uint8"}],"stateMutability":"view"},{"type":"function","name":"getRoleAdmin","inputs":[{"name":"role","type":"bytes32","internalType":"bytes32"}],"outputs":[{"name":"","type":"bytes32","internalType":"bytes32"}],"stateMutability":"view"},{"type":"function","name":"grantMinterRole","inputs":[{"name":"account","type":"address","internalType":"address"}],"outputs":[],"stateMutability":"nonpayable"},{"type":"function","name":"grantRole","inputs":[{"name":"role","type":"bytes32","internalType":"bytes32"},{"name":"account","type":"address","internalType":"address"}],"outputs":[],"stateMutability":"nonpayable"},{"type":"function","name":"hasMinterRole","inputs":[{"name":"account","type":"address","internalType":"address"}],"outputs":[{"name":"","type":"bool","internalType":"bool"}],"stateMutability":"view"},{"type":"function","name":"hasRole","inputs":[{"name":"role","type":"bytes32","internalType":"bytes32"},{"name":"account","type":"address","internalType":"address"}],"outputs":[{"name":"","type":"bool","internalType":"bool"}],"stateMutability":"view"},{"type":"function","name":"initialize","inputs":[{"name":"name","type":"string","internalType":"string"},{"name":"symbol","type":"string","internalType":"string"},{"name":"_underlyingToken","type":"address","internalType":"contract IMintableToken"}],"outputs":[],"stateMutability":"nonpayable"},{"type":"function","name":"initialize","inputs":[{"name":"name","type":"string","internalType":"string"},{"name":"symbol","type":"string","internalType":"string"}],"outputs":[],"stateMutability":"nonpayable"},{"type":"function","name":"locks","inputs":[{"name":"","type":"address","internalType":"address"},{"name":"","type":"uint256","internalType":"uint256"}],"outputs":[{"name":"amount","type":"uint256","internalType":"uint256"},{"name":"releaseTime","type":"uint256","internalType":"uint256"}],"stateMutability":"view"},{"type":"function","name":"mint","inputs":[{"name":"account","type":"address","internalType":"address"},{"name":"amount","type":"uint256","internalType":"uint256"}],"outputs":[],"stateMutability":"nonpayable"},{"type":"function","name":"mintAndLock","inputs":[{"name":"addresses","type":"address[]","internalType":"address[]"},{"name":"mintAmounts","type":"uint256[]","internalType":"uint256[]"},{"name":"lockAmounts","type":"uint256[]","internalType":"uint256[]"},{"name":"lockTimes","type":"uint256[]","internalType":"uint256[]"}],"outputs":[],"stateMutability":"nonpayable"},{"type":"function","name":"name","inputs":[],"outputs":[{"name":"","type":"string","internalType":"string"}],"stateMutability":"view"},{"type":"function","name":"proxiableUUID","inputs":[],"outputs":[{"name":"","type":"bytes32","internalType":"bytes32"}],"stateMutability":"view"},{"type":"function","name":"release","inputs":[],"outputs":[],"stateMutability":"nonpayable"},{"type":"function","name":"renounceRole","inputs":[{"name":"role","type":"bytes32","internalType":"bytes32"},{"name":"callerConfirmation","type":"address","internalType":"address"}],"outputs":[],"stateMutability":"nonpayable"},{"type":"function","name":"revokeMinterAdminRole","inputs":[{"name":"account","type":"address","internalType":"address"}],"outputs":[],"stateMutability":"nonpayable"},{"type":"function","name":"revokeMinterRole","inputs":[{"name":"account","type":"address","internalType":"address"}],"outputs":[],"stateMutability":"nonpayable"},{"type":"function","name":"revokeRole","inputs":[{"name":"role","type":"bytes32","internalType":"bytes32"},{"name":"account","type":"address","internalType":"address"}],"outputs":[],"stateMutability":"nonpayable"},{"type":"function","name":"supportsInterface","inputs":[{"name":"interfaceId","type":"bytes4","internalType":"bytes4"}],"outputs":[{"name":"","type":"bool","internalType":"bool"}],"stateMutability":"view"},{"type":"function","name":"symbol","inputs":[],"outputs":[{"name":"","type":"string","internalType":"string"}],"stateMutability":"view"},{"type":"function","name":"totalSupply","inputs":[],"outputs":[{"name":"","type":"uint256","internalType":"uint256"}],"stateMutability":"view"},{"type":"function","name":"transfer","inputs":[{"name":"to","type":"address","internalType":"address"},{"name":"value","type":"uint256","internalType":"uint256"}],"outputs":[{"name":"","type":"bool","internalType":"bool"}],"stateMutability":"nonpayable"},{"type":"function","name":"transferFrom","inputs":[{"name":"from","type":"address","internalType":"address"},{"name":"to","type":"address","internalType":"address"},{"name":"value","type":"uint256","internalType":"uint256"}],"outputs":[{"name":"","type":"bool","internalType":"bool"}],"stateMutability":"nonpayable"},{"type":"function","name":"underlyingToken","inputs":[],"outputs":[{"name":"","type":"address","internalType":"contract IMintableToken"}],"stateMutability":"view"},{"type":"function","name":"upgradeToAndCall","inputs":[{"name":"newImplementation","type":"address","internalType":"address"},{"name":"data","type":"bytes","internalType":"bytes"}],"outputs":[],"stateMutability":"payable"},{"type":"event","name":"Approval","inputs":[{"name":"owner","type":"address","indexed":true,"internalType":"address"},{"name":"spender","type":"address","indexed":true,"internalType":"address"},{"name":"value","type":"uint256","indexed":false,"internalType":"uint256"}],"anonymous":false},{"type":"event","name":"Initialized","inputs":[{"name":"version","type":"uint64","indexed":false,"internalType":"uint64"}],"anonymous":false},{"type":"event","name":"RoleAdminChanged","inputs":[{"name":"role","type":"bytes32","indexed":true,"internalType":"bytes32"},{"name":"previousAdminRole","type":"bytes32","indexed":true,"internalType":"bytes32"},{"name":"newAdminRole","type":"bytes32","indexed":true,"internalType":"bytes32"}],"anonymous":false},{"type":"event","name":"RoleGranted","inputs":[{"name":"role","type":"bytes32","indexed":true,"internalType":"bytes32"},{"name":"account","type":"address","indexed":true,"internalType":"address"},{"name":"sender","type":"address","indexed":true,"internalType":"address"}],"anonymous":false},{"type":"event","name":"RoleRevoked","inputs":[{"name":"role","type":"bytes32","indexed":true,"internalType":"bytes32"},{"name":"account","type":"address","indexed":true,"internalType":"address"},{"name":"sender","type":"address","indexed":true,"internalType":"address"}],"anonymous":false},{"type":"event","name":"Transfer","inputs":[{"name":"from","type":"address","indexed":true,"internalType":"address"},{"name":"to","type":"address","indexed":true,"internalType":"address"},{"name":"value","type":"uint256","indexed":false,"internalType":"uint256"}],"anonymous":false},{"type":"event","name":"Upgraded","inputs":[{"name":"implementation","type":"address","indexed":true,"internalType":"address"}],"anonymous":false},{"type":"error","name":"AccessControlBadConfirmation","inputs":[]},{"type":"error","name":"AccessControlUnauthorizedAccount","inputs":[{"name":"account","type":"address","internalType":"address"},{"name":"neededRole","type":"bytes32","internalType":"bytes32"}]},{"type":"error","name":"AddressEmptyCode","inputs":[{"name":"target","type":"address","internalType":"address"}]},{"type":"error","name":"AddressesAndLockLengthMismatch","inputs":[]},{"type":"error","name":"AddressesAndMintLengthMismatch","inputs":[]},{"type":"error","name":"AddressesAndTimeLengthMismatch","inputs":[]},{"type":"error","name":"ERC1967InvalidImplementation","inputs":[{"name":"implementation","type":"address","internalType":"address"}]},{"type":"error","name":"ERC1967NonPayable","inputs":[]},{"type":"error","name":"ERC20InsufficientAllowance","inputs":[{"name":"spender","type":"address","internalType":"address"},{"name":"allowance","type":"uint256","internalType":"uint256"},{"name":"needed","type":"uint256","internalType":"uint256"}]},{"type":"error","name":"ERC20InsufficientBalance","inputs":[{"name":"sender","type":"address","internalType":"address"},{"name":"balance","type":"uint256","internalType":"uint256"},{"name":"needed","type":"uint256","internalType":"uint256"}]},{"type":"error","name":"ERC20InvalidApprover","inputs":[{"name":"approver","type":"address","internalType":"address"}]},{"type":"error","name":"ERC20InvalidReceiver","inputs":[{"name":"receiver","type":"address","internalType":"address"}]},{"type":"error","name":"ERC20InvalidSender","inputs":[{"name":"sender","type":"address","internalType":"address"}]},{"type":"error","name":"ERC20InvalidSpender","inputs":[{"name":"spender","type":"address","internalType":"address"}]},{"type":"error","name":"FailedInnerCall","inputs":[]},{"type":"error","name":"InvalidInitialization","inputs":[]},{"type":"error","name":"NotInitializing","inputs":[]},{"type":"error","name":"UUPSUnauthorizedCallContext","inputs":[]},{"type":"error","name":"UUPSUnsupportedProxiableUUID","inputs":[{"name":"slot","type":"bytes32","internalType":"bytes32"}]}],"bytecode":{"object":"0x60a0604052306080523480156012575f80fd5b506080516122ed6100395f395f8181611486015281816114af01526115f201526122ed5ff3fe6080604052600436106101fc575f3560e01c80634f1ef28611610113578063a217fddf1161009d578063b425f8021161006d578063b425f802146105f1578063d539139314610625578063d547741f14610645578063dd62ed3e14610664578063e960bb4814610683575f80fd5b8063a217fddf1461055c578063a9059cbb1461056f578063ad3cb1cc1461058e578063b2904ca1146105be575f80fd5b806382b48243116100e357806382b48243146104c357806386d1a69f146104f657806391d148541461050a57806395d89b4114610529578063964c1aed1461053d575f80fd5b80634f1ef2861461045e57806352d1902d1461047157806369e2f0fb1461048557806370a08231146104a4575f80fd5b806323b872dd11610194578063313ce56711610164578063313ce567146103c757806336568abe146103e25780633dd1eb611461040157806340c10f19146104205780634cd88b761461043f575f80fd5b806323b872dd14610334578063248a9ca3146103535780632495a599146103725780632f2ff15d146103a8575f80fd5b8063095ea7b3116101cf578063095ea7b314610295578063099db017146102b45780631339324b146102d357806318160ddd14610301575f80fd5b806301f92c411461020057806301ffc9a71461022157806306fdde0314610255578063077f224a14610276575b5f80fd5b34801561020b575f80fd5b5061021f61021a366004611c18565b6106a2565b005b34801561022c575f80fd5b5061024061023b366004611ce2565b6108c3565b60405190151581526020015b60405180910390f35b348015610260575f80fd5b506102696108f9565b60405161024c9190611d09565b348015610281575f80fd5b5061021f610290366004611df9565b6109b9565b3480156102a0575f80fd5b506102406102af366004611e6f565b610ac9565b3480156102bf575f80fd5b506102406102ce366004611e99565b610ae0565b3480156102de575f80fd5b506102f35f8051602061223883398151915281565b60405190815260200161024c565b34801561030c575f80fd5b507f52c63247e1f47db19d5ce0460030c497f067ca4cebf71ba98eeadabe20bace02546102f3565b34801561033f575f80fd5b5061024061034e366004611eb4565b610af8565b34801561035e575f80fd5b506102f361036d366004611ef2565b610b1d565b34801561037d575f80fd5b505f54610390906001600160a01b031681565b6040516001600160a01b03909116815260200161024c565b3480156103b3575f80fd5b5061021f6103c2366004611f09565b610b3d565b3480156103d2575f80fd5b506040516012815260200161024c565b3480156103ed575f80fd5b5061021f6103fc366004611f09565b610b5f565b34801561040c575f80fd5b5061021f61041b366004611e99565b610b97565b34801561042b575f80fd5b5061021f61043a366004611e6f565b610bc5565b34801561044a575f80fd5b5061021f610459366004611f37565b610c31565b61021f61046c366004611f9a565b610d3f565b34801561047c575f80fd5b506102f3610d5e565b348015610490575f80fd5b5061021f61049f366004611e99565b610d79565b3480156104af575f80fd5b506102f36104be366004611e99565b610da7565b3480156104ce575f80fd5b506102f37f90dcf97b9b11425348f5c1cfd60547be2536fb76ed0dca238e111ebbf9e32b4a81565b348015610501575f80fd5b5061021f610dcd565b348015610515575f80fd5b50610240610524366004611f09565b610fcc565b348015610534575f80fd5b50610269611002565b348015610548575f80fd5b5061021f610557366004611e99565b611040565b348015610567575f80fd5b506102f35f81565b34801561057a575f80fd5b50610240610589366004611e6f565b61106e565b348015610599575f80fd5b50610269604051806040016040528060058152602001640352e302e360dc1b81525081565b3480156105c9575f80fd5b506102f37fa5f90ca39506de1f57678da846801e11dd7aeda8d762afcf32a75a8634c61c8581565b3480156105fc575f80fd5b5061061061060b366004611e6f565b61107b565b6040805192835260208301919091520161024c565b348015610630575f80fd5b506102f35f8051602061227883398151915281565b348015610650575f80fd5b5061021f61065f366004611f09565b6110b3565b34801561066f575f80fd5b506102f361067e366004611fef565b6110cf565b34801561068e575f80fd5b506102f361069d366004611e99565b611118565b7fa5f90ca39506de1f57678da846801e11dd7aeda8d762afcf32a75a8634c61c856106cc816111de565b8786146106ec5760405163284c60d160e21b815260040160405180910390fd5b87841461070c576040516314de89e560e31b815260040160405180910390fd5b87821461072c5760405163bca2dc9960e01b815260040160405180910390fd5b5f5b888110156108b7575f546001600160a01b03166340c10f19308a8a858181106107595761075961201b565b6040516001600160e01b031960e087901b1681526001600160a01b03909416600485015260200291909101356024830152506044015f604051808303815f87803b1580156107a5575f80fd5b505af11580156107b7573d5f803e3d5ffd5b505050506108038a8a838181106107d0576107d061201b565b90506020020160208101906107e59190611e99565b8989848181106107f7576107f761201b565b905060200201356111eb565b6108af8a8a838181106108185761081861201b565b905060200201602081019061082d9190611e99565b87878481811061083f5761083f61201b565b905060200201358686858181106108585761085861201b565b905060200201356001600160a01b039092165f908152603360209081526040808320815180830190925293815280820194855283546001818101865594845291909220915160029091029091019081559151910155565b60010161072e565b50505050505050505050565b5f6001600160e01b03198216637965db0b60e01b14806108f357506301ffc9a760e01b6001600160e01b03198316145b92915050565b7f52c63247e1f47db19d5ce0460030c497f067ca4cebf71ba98eeadabe20bace0380546060915f80516020612218833981519152916109379061202f565b80601f01602080910402602001604051908101604052809291908181526020018280546109639061202f565b80156109ae5780601f10610985576101008083540402835291602001916109ae565b820191905f5260205f20905b81548152906001019060200180831161099157829003601f168201915b505050505091505090565b7ff0c57e16840df040f15088dc2f81fe391c3923bec73e23a9662efc9c229c6a008054600160401b810460ff1615906001600160401b03165f811580156109fd5750825b90505f826001600160401b03166001148015610a185750303b155b905081158015610a26575080155b15610a445760405163f92ee8a960e01b815260040160405180910390fd5b845467ffffffffffffffff191660011785558315610a6e57845460ff60401b1916600160401b1785555b610a79888888611224565b8315610abf57845460ff60401b19168555604051600181527fc7f505b2f371ae2175ee4913f4499e1f2633a7b5936321eed1cdaeb6115181d29060200160405180910390a15b5050505050505050565b5f33610ad6818585611257565b5060019392505050565b5f6108f35f8051602061227883398151915283610fcc565b5f33610b05858285611264565b610b108585856112c1565b60019150505b9392505050565b5f9081525f80516020612298833981519152602052604090206001015490565b610b4682610b1d565b610b4f816111de565b610b59838361131e565b50505050565b6001600160a01b0381163314610b885760405163334bd91960e11b815260040160405180910390fd5b610b9282826113bf565b505050565b5f80516020612238833981519152610bae816111de565b610b925f805160206122788339815191528361131e565b610bcf8282611438565b5f546040516340c10f1960e01b8152306004820152602481018390526001600160a01b03909116906340c10f19906044015f604051808303815f87803b158015610c17575f80fd5b505af1158015610c29573d5f803e3d5ffd5b505050505050565b7ff0c57e16840df040f15088dc2f81fe391c3923bec73e23a9662efc9c229c6a008054600160401b810460ff1615906001600160401b03165f81158015610c755750825b90505f826001600160401b03166001148015610c905750303b155b905081158015610c9e575080155b15610cbc5760405163f92ee8a960e01b815260040160405180910390fd5b845467ffffffffffffffff191660011785558315610ce657845460ff60401b1916600160401b1785555b610cf08787611459565b8315610d3657845460ff60401b19168555604051600181527fc7f505b2f371ae2175ee4913f4499e1f2633a7b5936321eed1cdaeb6115181d29060200160405180910390a15b50505050505050565b610d4761147b565b610d5082611521565b610d5a828261152b565b5050565b5f610d676115e7565b505f8051602061225883398151915290565b5f80516020612238833981519152610d90816111de565b610b925f80516020612278833981519152836113bf565b6001600160a01b03165f9081525f80516020612218833981519152602052604090205490565b335f908152603360205260408120815b8154811015610f5a57818181548110610df857610df861201b565b905f5260205f20906002020160010154421115610f48575f610e42838381548110610e2557610e2561201b565b905f5260205f2090600202015f0154610e3d33610da7565b611630565b9050610e4f3330836112c1565b610e59818561207b565b935080838381548110610e6e57610e6e61201b565b905f5260205f2090600202015f015f828254610e8a919061208e565b92505081905550828281548110610ea357610ea361201b565b905f5260205f2090600202015f01545f03610f465782548390610ec89060019061208e565b81548110610ed857610ed861201b565b905f5260205f209060020201838381548110610ef657610ef661201b565b5f918252602090912082546002909202019081556001918201549101558254839080610f2457610f246120a1565b5f8281526020812060025f199093019283020181815560010155905550610ddd565b505b80610f52816120b5565b915050610ddd565b505f5460405163a9059cbb60e01b8152336004820152602481018490526001600160a01b039091169063a9059cbb906044016020604051808303815f875af1158015610fa8573d5f803e3d5ffd5b505050506040513d601f19601f82011682018060405250810190610b9291906120cd565b5f9182525f80516020612298833981519152602090815260408084206001600160a01b0393909316845291905290205460ff1690565b7f52c63247e1f47db19d5ce0460030c497f067ca4cebf71ba98eeadabe20bace0480546060915f80516020612218833981519152916109379061202f565b5f80516020612238833981519152611057816111de565b610b925f80516020612238833981519152836113bf565b5f33610ad68185856112c1565b6033602052815f5260405f208181548110611094575f80fd5b5f91825260209091206002909102018054600190910154909250905082565b6110bc82610b1d565b6110c5816111de565b610b5983836113bf565b6001600160a01b039182165f9081527f52c63247e1f47db19d5ce0460030c497f067ca4cebf71ba98eeadabe20bace016020908152604080832093909416825291909152205490565b6001600160a01b0381165f908152603360209081526040808320805482518185028101850190935280835284938493929190849084015b82821015611192578382905f5260205f2090600202016040518060400160405290815f82015481526020016001820154815250508152602001906001019061114f565b5050505090505f5b81518110156111d5578181815181106111b5576111b561201b565b60200260200101515f0151836111cb919061207b565b925060010161119a565b50909392505050565b6111e88133611645565b50565b6001600160a01b0382166112195760405163ec442f0560e01b81525f60048201526024015b60405180910390fd5b610d5a5f838361167e565b61122c6117b7565b6112368383611800565b61123e611850565b611246611862565b61124f81611899565b610b926118c2565b610b92838383600161191f565b5f61126f84846110cf565b90505f198114610b5957818110156112b357604051637dc7a0d960e11b81526001600160a01b03841660048201526024810182905260448101839052606401611210565b610b5984848484035f61191f565b6001600160a01b0383166112ea57604051634b637e8f60e11b81525f6004820152602401611210565b6001600160a01b0382166113135760405163ec442f0560e01b81525f6004820152602401611210565b610b9283838361167e565b5f5f805160206122988339815191526113378484610fcc565b6113b6575f848152602082815260408083206001600160a01b03871684529091529020805460ff1916600117905561136c3390565b6001600160a01b0316836001600160a01b0316857f2f8788117e7eff1d82e926ec794901d17c78024a50270940304540a733656f0d60405160405180910390a460019150506108f3565b5f9150506108f3565b5f5f805160206122988339815191526113d88484610fcc565b156113b6575f848152602082815260408083206001600160a01b0387168085529252808320805460ff1916905551339287917ff6391f5c32d9c69d2a47ea670b442974b53935d1edc7fd64eb21e047a839171b9190a460019150506108f3565b5f8051602061227883398151915261144f816111de565b610b9283836111eb565b6114616117b7565b61146b8282611800565b611473611850565b610d5a611862565b306001600160a01b037f000000000000000000000000000000000000000000000000000000000000000016148061150157507f00000000000000000000000000000000000000000000000000000000000000006001600160a01b03166114f55f80516020612258833981519152546001600160a01b031690565b6001600160a01b031614155b1561151f5760405163703e46dd60e11b815260040160405180910390fd5b565b5f610d5a816111de565b816001600160a01b03166352d1902d6040518163ffffffff1660e01b8152600401602060405180830381865afa925050508015611585575060408051601f3d908101601f19168201909252611582918101906120ec565b60015b6115ad57604051634c9c8ce360e01b81526001600160a01b0383166004820152602401611210565b5f8051602061225883398151915281146115dd57604051632a87526960e21b815260048101829052602401611210565b610b928383611a03565b306001600160a01b037f0000000000000000000000000000000000000000000000000000000000000000161461151f5760405163703e46dd60e11b815260040160405180910390fd5b5f81831061163e5781610b16565b5090919050565b61164f8282610fcc565b610d5a5760405163e2517d3f60e01b81526001600160a01b038216600482015260248101839052604401611210565b5f805160206122188339815191526001600160a01b0384166116b85781816002015f8282546116ad919061207b565b909155506117289050565b6001600160a01b0384165f908152602082905260409020548281101561170a5760405163391434e360e21b81526001600160a01b03861660048201526024810182905260448101849052606401611210565b6001600160a01b0385165f9081526020839052604090209083900390555b6001600160a01b038316611746576002810180548390039055611764565b6001600160a01b0383165f9081526020829052604090208054830190555b826001600160a01b0316846001600160a01b03167fddf252ad1be2c89b69c2b068fc378daa952ba7f163c4a11628f55a4df523b3ef846040516117a991815260200190565b60405180910390a350505050565b7ff0c57e16840df040f15088dc2f81fe391c3923bec73e23a9662efc9c229c6a0054600160401b900460ff1661151f57604051631afcd79f60e31b815260040160405180910390fd5b6118086117b7565b5f805160206122188339815191527f52c63247e1f47db19d5ce0460030c497f067ca4cebf71ba98eeadabe20bace036118418482612147565b5060048101610b598382612147565b6118586117b7565b6111e85f3361131e565b61186a6117b7565b6118815f805160206122388339815191523361131e565b506111e85f805160206122788339815191523361131e565b6118a16117b7565b5f80546001600160a01b0319166001600160a01b0392909216919091179055565b6118ca6117b7565b6118f47f90dcf97b9b11425348f5c1cfd60547be2536fb76ed0dca238e111ebbf9e32b4a3361131e565b506111e87fa5f90ca39506de1f57678da846801e11dd7aeda8d762afcf32a75a8634c61c853361131e565b5f805160206122188339815191526001600160a01b0385166119565760405163e602df0560e01b81525f6004820152602401611210565b6001600160a01b03841661197f57604051634a1406b160e11b81525f6004820152602401611210565b6001600160a01b038086165f908152600183016020908152604080832093881683529290522083905581156119fc57836001600160a01b0316856001600160a01b03167f8c5be1e5ebec7d5bd14f71427d1e84f3dd0314c0f7b2291e5b200ac8c7c3b925856040516119f391815260200190565b60405180910390a35b5050505050565b611a0c82611a58565b6040516001600160a01b038316907fbc7cd75a20ee27fd9adebab32041f755214dbc6bffa90cc0225b39da2e5c2d3b905f90a2805115611a5057610b928282611abb565b610d5a611b2d565b806001600160a01b03163b5f03611a8d57604051634c9c8ce360e01b81526001600160a01b0382166004820152602401611210565b5f8051602061225883398151915280546001600160a01b0319166001600160a01b0392909216919091179055565b60605f80846001600160a01b031684604051611ad79190612201565b5f60405180830381855af49150503d805f8114611b0f576040519150601f19603f3d011682016040523d82523d5f602084013e611b14565b606091505b5091509150611b24858383611b4c565b95945050505050565b341561151f5760405163b398979f60e01b815260040160405180910390fd5b606082611b6157611b5c82611ba8565b610b16565b8151158015611b7857506001600160a01b0384163b155b15611ba157604051639996b31560e01b81526001600160a01b0385166004820152602401611210565b5080610b16565b805115611bb85780518082602001fd5b604051630a12f52160e11b815260040160405180910390fd5b5f8083601f840112611be1575f80fd5b5081356001600160401b03811115611bf7575f80fd5b6020830191508360208260051b8501011115611c11575f80fd5b9250929050565b5f805f805f805f806080898b031215611c2f575f80fd5b88356001600160401b03811115611c44575f80fd5b611c508b828c01611bd1565b90995097505060208901356001600160401b03811115611c6e575f80fd5b611c7a8b828c01611bd1565b90975095505060408901356001600160401b03811115611c98575f80fd5b611ca48b828c01611bd1565b90955093505060608901356001600160401b03811115611cc2575f80fd5b611cce8b828c01611bd1565b999c989b5096995094979396929594505050565b5f60208284031215611cf2575f80fd5b81356001600160e01b031981168114610b16575f80fd5b602081525f82518060208401528060208501604085015e5f604082850101526040601f19601f83011684010191505092915050565b634e487b7160e01b5f52604160045260245ffd5b5f806001600160401b03841115611d6b57611d6b611d3e565b50604051601f19601f85018116603f011681018181106001600160401b0382111715611d9957611d99611d3e565b604052838152905080828401851015611db0575f80fd5b838360208301375f60208583010152509392505050565b5f82601f830112611dd6575f80fd5b610b1683833560208501611d52565b6001600160a01b03811681146111e8575f80fd5b5f805f60608486031215611e0b575f80fd5b83356001600160401b03811115611e20575f80fd5b611e2c86828701611dc7565b93505060208401356001600160401b03811115611e47575f80fd5b611e5386828701611dc7565b9250506040840135611e6481611de5565b809150509250925092565b5f8060408385031215611e80575f80fd5b8235611e8b81611de5565b946020939093013593505050565b5f60208284031215611ea9575f80fd5b8135610b1681611de5565b5f805f60608486031215611ec6575f80fd5b8335611ed181611de5565b92506020840135611ee181611de5565b929592945050506040919091013590565b5f60208284031215611f02575f80fd5b5035919050565b5f8060408385031215611f1a575f80fd5b823591506020830135611f2c81611de5565b809150509250929050565b5f8060408385031215611f48575f80fd5b82356001600160401b03811115611f5d575f80fd5b611f6985828601611dc7565b92505060208301356001600160401b03811115611f84575f80fd5b611f9085828601611dc7565b9150509250929050565b5f8060408385031215611fab575f80fd5b8235611fb681611de5565b915060208301356001600160401b03811115611fd0575f80fd5b8301601f81018513611fe0575f80fd5b611f9085823560208401611d52565b5f8060408385031215612000575f80fd5b823561200b81611de5565b91506020830135611f2c81611de5565b634e487b7160e01b5f52603260045260245ffd5b600181811c9082168061204357607f821691505b60208210810361206157634e487b7160e01b5f52602260045260245ffd5b50919050565b634e487b7160e01b5f52601160045260245ffd5b808201808211156108f3576108f3612067565b818103818111156108f3576108f3612067565b634e487b7160e01b5f52603160045260245ffd5b5f600182016120c6576120c6612067565b5060010190565b5f602082840312156120dd575f80fd5b81518015158114610b16575f80fd5b5f602082840312156120fc575f80fd5b5051919050565b601f821115610b9257805f5260205f20601f840160051c810160208510156121285750805b601f840160051c820191505b818110156119fc575f8155600101612134565b81516001600160401b0381111561216057612160611d3e565b6121748161216e845461202f565b84612103565b6020601f8211600181146121a6575f831561218f5750848201515b5f19600385901b1c1916600184901b1784556119fc565b5f84815260208120601f198516915b828110156121d557878501518255602094850194600190920191016121b5565b50848210156121f257868401515f19600387901b60f8161c191681555b50505050600190811b01905550565b5f82518060208501845e5f92019182525091905056fe52c63247e1f47db19d5ce0460030c497f067ca4cebf71ba98eeadabe20bace0070480ee89cb38eff00b7d23da25713d52ce19c6ed428691d22c58b2f615e3d67360894a13ba1a3210667c828492db98dca3e2076cc3735a920a3ca505d382bbc9f2df0fed2c77648de5860a4cc508cd0818c85b8b8a1ab4ceeef8d981c8956a602dd7bc7dec4dceedda775e58dd541e08a116c6c53815c0bd028192f7b626800a264697066735822122064a843caee8156cf76e2a90b4ae175a02e433059176dc02dcb1d6fd563ba56f364736f6c634300081a0033","linkReferences":{}},"methodIdentifiers":{"DEFAULT_ADMIN_ROLE()":"a217fddf","MINTER_ADMIN_ROLE()":"1339324b","MINTER_ROLE()":"d5391393","MINT_LOCKER_ADMIN_ROLE()":"82b48243","MINT_LOCKER_ROLE()":"b2904ca1","UPGRADE_INTERFACE_VERSION()":"ad3cb1cc","allowance(address,address)":"dd62ed3e","approve(address,uint256)":"095ea7b3","balanceOf(address)":"70a08231","balanceOfLocked(address)":"e960bb48","decimals()":"313ce567","getRoleAdmin(bytes32)":"248a9ca3","grantMinterRole(address)":"3dd1eb61","grantRole(bytes32,address)":"2f2ff15d","hasMinterRole(address)":"099db017","hasRole(bytes32,address)":"91d14854","initialize(string,string)":"4cd88b76","initialize(string,string,address)":"077f224a","locks(address,uint256)":"b425f802","mint(address,uint256)":"40c10f19","mintAndLock(address[],uint256[],uint256[],uint256[])":"01f92c41","name()":"06fdde03","proxiableUUID()":"52d1902d","release()":"86d1a69f","renounceRole(bytes32,address)":"36568abe","revokeMinterAdminRole(address)":"964c1aed","revokeMinterRole(address)":"69e2f0fb","revokeRole(bytes32,address)":"d547741f","supportsInterface(bytes4)":"01ffc9a7","symbol()":"95d89b41","totalSupply()":"18160ddd","transfer(address,uint256)":"a9059cbb","transferFrom(address,address,uint256)":"23b872dd","underlyingToken()":"2495a599","upgradeToAndCall(address,bytes)":"4f1ef286"},"storageLayout":{"storage":[{"astId":56236,"contract":"src/token/locked/LockedToken.sol:LockedToken","label":"underlyingToken","offset":0,"slot":"0","type":"t_contract(IMintableToken)55962"},{"astId":56240,"contract":"src/token/locked/LockedToken.sol:LockedToken","label":"__gap","offset":0,"slot":"1","type":"t_array(t_uint256)50_storage"},{"astId":57004,"contract":"src/token/locked/LockedToken.sol:LockedToken","label":"locks","offset":0,"slot":"51","type":"t_mapping(t_address,t_array(t_struct(Lock)56998_storage)dyn_storage)"}],"types":{"t_address":{"encoding":"inplace","label":"address","numberOfBytes":"20"},"t_array(t_struct(Lock)56998_storage)dyn_storage":{"encoding":"dynamic_array","label":"struct LockedTokenStorage.Lock[]","numberOfBytes":"32","base":"t_struct(Lock)56998_storage"},"t_array(t_uint256)50_storage":{"encoding":"inplace","label":"uint256[50]","numberOfBytes":"1600","base":"t_uint256"},"t_contract(IMintableToken)55962":{"encoding":"inplace","label":"contract IMintableToken","numberOfBytes":"20"},"t_mapping(t_address,t_array(t_struct(Lock)56998_storage)dyn_storage)":{"encoding":"mapping","key":"t_address","label":"mapping(address => struct LockedTokenStorage.Lock[])","numberOfBytes":"32","value":"t_array(t_struct(Lock)56998_storage)dyn_storage"},"t_struct(Lock)56998_storage":{"encoding":"inplace","label":"struct LockedTokenStorage.Lock","numberOfBytes":"64","members":[{"astId":56995,"contract":"src/token/locked/LockedToken.sol:LockedToken","label":"amount","offset":0,"slot":"0","type":"t_uint256"},{"astId":56997,"contract":"src/token/locked/LockedToken.sol:LockedToken","label":"releaseTime","offset":0,"slot":"1","type":"t_uint256"}]},"t_uint256":{"encoding":"inplace","label":"uint256","numberOfBytes":"32"}}},"id":117}