{"abi":[{"type":"constructor","inputs":[],"stateMutability":"nonpayable"},{"type":"receive","stateMutability":"payable"},{"type":"function","name":"CALLBACK_SUCCESS","inputs":[],"outputs":[{"name":"","type":"bytes32","internalType":"bytes32"}],"stateMutability":"view"},{"type":"function","name":"DOMAIN_SEPARATOR","inputs":[],"outputs":[{"name":"","type":"bytes32","internalType":"bytes32"}],"stateMutability":"view"},{"type":"function","name":"PERMIT_TYPEHASH","inputs":[],"outputs":[{"name":"","type":"bytes32","internalType":"bytes32"}],"stateMutability":"view"},{"type":"function","name":"allowance","inputs":[{"name":"","type":"address","internalType":"address"},{"name":"","type":"address","internalType":"address"}],"outputs":[{"name":"","type":"uint256","internalType":"uint256"}],"stateMutability":"view"},{"type":"function","name":"approve","inputs":[{"name":"spender","type":"address","internalType":"address"},{"name":"value","type":"uint256","internalType":"uint256"}],"outputs":[{"name":"","type":"bool","internalType":"bool"}],"stateMutability":"nonpayable"},{"type":"function","name":"approveAndCall","inputs":[{"name":"spender","type":"address","internalType":"address"},{"name":"value","type":"uint256","internalType":"uint256"},{"name":"data","type":"bytes","internalType":"bytes"}],"outputs":[{"name":"","type":"bool","internalType":"bool"}],"stateMutability":"nonpayable"},{"type":"function","name":"balanceOf","inputs":[{"name":"","type":"address","internalType":"address"}],"outputs":[{"name":"","type":"uint256","internalType":"uint256"}],"stateMutability":"view"},{"type":"function","name":"decimals","inputs":[],"outputs":[{"name":"","type":"uint8","internalType":"uint8"}],"stateMutability":"view"},{"type":"function","name":"deploymentChainId","inputs":[],"outputs":[{"name":"","type":"uint256","internalType":"uint256"}],"stateMutability":"view"},{"type":"function","name":"deposit","inputs":[],"outputs":[],"stateMutability":"payable"},{"type":"function","name":"depositTo","inputs":[{"name":"to","type":"address","internalType":"address"}],"outputs":[],"stateMutability":"payable"},{"type":"function","name":"depositToAndCall","inputs":[{"name":"to","type":"address","internalType":"address"},{"name":"data","type":"bytes","internalType":"bytes"}],"outputs":[{"name":"success","type":"bool","internalType":"bool"}],"stateMutability":"payable"},{"type":"function","name":"flashFee","inputs":[{"name":"token","type":"address","internalType":"address"},{"name":"","type":"uint256","internalType":"uint256"}],"outputs":[{"name":"","type":"uint256","internalType":"uint256"}],"stateMutability":"view"},{"type":"function","name":"flashLoan","inputs":[{"name":"receiver","type":"address","internalType":"contract IERC3156FlashBorrower"},{"name":"token","type":"address","internalType":"address"},{"name":"value","type":"uint256","internalType":"uint256"},{"name":"data","type":"bytes","internalType":"bytes"}],"outputs":[{"name":"","type":"bool","internalType":"bool"}],"stateMutability":"nonpayable"},{"type":"function","name":"flashMinted","inputs":[],"outputs":[{"name":"","type":"uint256","internalType":"uint256"}],"stateMutability":"view"},{"type":"function","name":"maxFlashLoan","inputs":[{"name":"token","type":"address","internalType":"address"}],"outputs":[{"name":"","type":"uint256","internalType":"uint256"}],"stateMutability":"view"},{"type":"function","name":"name","inputs":[],"outputs":[{"name":"","type":"string","internalType":"string"}],"stateMutability":"view"},{"type":"function","name":"nonces","inputs":[{"name":"","type":"address","internalType":"address"}],"outputs":[{"name":"","type":"uint256","internalType":"uint256"}],"stateMutability":"view"},{"type":"function","name":"permit","inputs":[{"name":"owner","type":"address","internalType":"address"},{"name":"spender","type":"address","internalType":"address"},{"name":"value","type":"uint256","internalType":"uint256"},{"name":"deadline","type":"uint256","internalType":"uint256"},{"name":"v","type":"uint8","internalType":"uint8"},{"name":"r","type":"bytes32","internalType":"bytes32"},{"name":"s","type":"bytes32","internalType":"bytes32"}],"outputs":[],"stateMutability":"nonpayable"},{"type":"function","name":"symbol","inputs":[],"outputs":[{"name":"","type":"string","internalType":"string"}],"stateMutability":"view"},{"type":"function","name":"totalSupply","inputs":[],"outputs":[{"name":"","type":"uint256","internalType":"uint256"}],"stateMutability":"view"},{"type":"function","name":"transfer","inputs":[{"name":"to","type":"address","internalType":"address"},{"name":"value","type":"uint256","internalType":"uint256"}],"outputs":[{"name":"","type":"bool","internalType":"bool"}],"stateMutability":"nonpayable"},{"type":"function","name":"transferAndCall","inputs":[{"name":"to","type":"address","internalType":"address"},{"name":"value","type":"uint256","internalType":"uint256"},{"name":"data","type":"bytes","internalType":"bytes"}],"outputs":[{"name":"","type":"bool","internalType":"bool"}],"stateMutability":"nonpayable"},{"type":"function","name":"transferFrom","inputs":[{"name":"from","type":"address","internalType":"address"},{"name":"to","type":"address","internalType":"address"},{"name":"value","type":"uint256","internalType":"uint256"}],"outputs":[{"name":"","type":"bool","internalType":"bool"}],"stateMutability":"nonpayable"},{"type":"function","name":"withdraw","inputs":[{"name":"value","type":"uint256","internalType":"uint256"}],"outputs":[],"stateMutability":"nonpayable"},{"type":"function","name":"withdrawFrom","inputs":[{"name":"from","type":"address","internalType":"address"},{"name":"to","type":"address","internalType":"address payable"},{"name":"value","type":"uint256","internalType":"uint256"}],"outputs":[],"stateMutability":"nonpayable"},{"type":"function","name":"withdrawTo","inputs":[{"name":"to","type":"address","internalType":"address payable"},{"name":"value","type":"uint256","internalType":"uint256"}],"outputs":[],"stateMutability":"nonpayable"},{"type":"event","name":"Approval","inputs":[{"name":"owner","type":"address","indexed":true,"internalType":"address"},{"name":"spender","type":"address","indexed":true,"internalType":"address"},{"name":"value","type":"uint256","indexed":false,"internalType":"uint256"}],"anonymous":false},{"type":"event","name":"Transfer","inputs":[{"name":"from","type":"address","indexed":true,"internalType":"address"},{"name":"to","type":"address","indexed":true,"internalType":"address"},{"name":"value","type":"uint256","indexed":false,"internalType":"uint256"}],"anonymous":false}],"bytecode":{"object":"0x6101006040527f439148f0bbc682ca079e46d6e2c2f0c1e3b820f1a291b069d8882abf8cf18dd96080527f6e71edae12b1b97f4d1f60370fef10105fa2faae0126114a169c64845d6126c960a05234801561005957600080fd5b504660c081815260408051808201825260118152700577261707065642045746865722076313607c1b6020918201528151808301835260018152603160f81b9082015281517f8b73c3c69bb8fe3d512ecc4cf759cc79239f7b179b0ffacaa9a75d522b39400f818301527f5afefa023603a382ac22bd36644e004cefabbfaf61d4180000d8dc2b10c168b8818401527fc89efdaa54c0f20c7adf612882df0950f5a951637e0307cdcb4c672f298b8bc66060820152608081018590523060a080830191909152835180830390910181529301909152815191012060e0525060805160a05160c05160e05161203861019360003960008181610ae901526117b601526000818161053c01528181610ab4015261178101526000818161031001526116f901526000818161044d0152610eae01526120386000f3fe6080604052600436106101a05760003560e01c806370a08231116100ec578063b760faf91161008a578063d0e30db011610064578063d0e30db01461055e578063d505accf14610566578063d9d98ce414610586578063dd62ed3e146105a657600080fd5b8063b760faf9146104f7578063cae9ca511461050a578063cd0d00961461052a57600080fd5b80638b28d32f116100c65780638b28d32f1461046f5780639555a9421461048557806395d89b41146104a5578063a9059cbb146104d757600080fd5b806370a08231146103e15780637ecebe001461040e5780638237e5381461043b57600080fd5b806330adf81f116101595780634000aea0116101335780634000aea01461036e5780635cffe9de1461038e5780635ddb7d7e146103ae578063613255ab146103c157600080fd5b806330adf81f146102fe578063313ce567146103325780633644e5151461035957600080fd5b806306fdde03146101f6578063095ea7b31461024957806318160ddd14610279578063205c28781461029c57806323b872dd146102be5780632e1a7d4d146102de57600080fd5b366101f15733600090815260208190526040812080543492906101c4908490611a84565b90915550506040513481523390600090600080516020611fc38339815191529060200160405180910390a3005b600080fd5b34801561020257600080fd5b50610233604051806040016040528060118152602001700577261707065642045746865722076313607c1b81525081565b6040516102409190611a97565b60405180910390f35b34801561025557600080fd5b50610269610264366004611afe565b6105de565b6040519015158152602001610240565b34801561028557600080fd5b5061028e610639565b604051908152602001610240565b3480156102a857600080fd5b506102bc6102b7366004611afe565b61064e565b005b3480156102ca57600080fd5b506102696102d9366004611b2a565b61073e565b3480156102ea57600080fd5b506102bc6102f9366004611b6b565b6109d4565b34801561030a57600080fd5b5061028e7f000000000000000000000000000000000000000000000000000000000000000081565b34801561033e57600080fd5b50610347601281565b60405160ff9091168152602001610240565b34801561036557600080fd5b5061028e610aaf565b34801561037a57600080fd5b50610269610389366004611bcd565b610b0f565b34801561039a57600080fd5b506102696103a9366004611c29565b610d1d565b6102696103bc366004611c9c565b6110cd565b3480156103cd57600080fd5b5061028e6103dc366004611cf1565b6111a8565b3480156103ed57600080fd5b5061028e6103fc366004611cf1565b60006020819052908152604090205481565b34801561041a57600080fd5b5061028e610429366004611cf1565b60016020526000908152604090205481565b34801561044757600080fd5b5061028e7f000000000000000000000000000000000000000000000000000000000000000081565b34801561047b57600080fd5b5061028e60035481565b34801561049157600080fd5b506102bc6104a0366004611b2a565b6111d5565b3480156104b157600080fd5b506102336040518060400160405280600681526020016505745544831360d41b81525081565b3480156104e357600080fd5b506102696104f2366004611afe565b6113b7565b6102bc610505366004611cf1565b611567565b34801561051657600080fd5b50610269610525366004611bcd565b6115c6565b34801561053657600080fd5b5061028e7f000000000000000000000000000000000000000000000000000000000000000081565b6102bc611647565b34801561057257600080fd5b506102bc610581366004611d15565b611693565b34801561059257600080fd5b5061028e6105a1366004611afe565b611931565b3480156105b257600080fd5b5061028e6105c1366004611d8c565b600260209081526000928352604080842090915290825290205481565b3360008181526002602090815260408083206001600160a01b03871680855292528083208590555191929091600080516020611fe3833981519152906106279086815260200190565b60405180910390a35060015b92915050565b6000600354476106499190611a84565b905090565b33600090815260208190526040902054818110156106875760405162461bcd60e51b815260040161067e90611dc5565b60405180910390fd5b6106918282611e06565b336000818152602081815260408083209490945592518581529092600080516020611fc3833981519152910160405180910390a36000836001600160a01b03168360405160006040518083038185875af1925050503d8060008114610712576040519150601f19603f3d011682016040523d82523d6000602084013e610717565b606091505b50509050806107385760405162461bcd60e51b815260040161067e90611e19565b50505050565b60006001600160a01b03841633146107f8576001600160a01b038416600090815260026020908152604080832033845290915290205460001981146107f6578281101561079d5760405162461bcd60e51b815260040161067e90611e50565b60006107a98483611e06565b6001600160a01b03871660008181526002602090815260408083203380855290835292819020859055518481529394509092600080516020611fe3833981519152910160405180910390a3505b505b6001600160a01b0383161580159061081957506001600160a01b0383163014155b156108df576001600160a01b038416600090815260208190526040902054828110156108575760405162461bcd60e51b815260040161067e90611e87565b6108618382611e06565b6001600160a01b038087166000908152602081905260408082209390935590861681529081208054859290610897908490611a84565b92505081905550836001600160a01b0316856001600160a01b0316600080516020611fc3833981519152856040516108d191815260200190565b60405180910390a3506109ca565b6001600160a01b038416600090815260208190526040902054828110156109185760405162461bcd60e51b815260040161067e90611dc5565b6109228382611e06565b6001600160a01b0386166000818152602081815260408083209490945592518681529092600080516020611fc3833981519152910160405180910390a3604051600090339085908381818185875af1925050503d80600081146109a1576040519150601f19603f3d011682016040523d82523d6000602084013e6109a6565b606091505b50509050806109c75760405162461bcd60e51b815260040161067e90611e19565b50505b5060019392505050565b3360009081526020819052604090205481811015610a045760405162461bcd60e51b815260040161067e90611dc5565b610a0e8282611e06565b336000818152602081815260408083209490945592518581529092600080516020611fc3833981519152910160405180910390a3604051600090339084908381818185875af1925050503d8060008114610a84576040519150601f19603f3d011682016040523d82523d6000602084013e610a89565b606091505b5050905080610aaa5760405162461bcd60e51b815260040161067e90611e19565b505050565b6000467f00000000000000000000000000000000000000000000000000000000000000008114610ae757610ae281611994565b610b09565b7f00000000000000000000000000000000000000000000000000000000000000005b91505090565b60006001600160a01b03851615610bc6573360009081526020819052604090205484811015610b505760405162461bcd60e51b815260040161067e90611e87565b610b5a8582611e06565b33600090815260208190526040808220929092556001600160a01b03881681529081208054879290610b8d908490611a84565b90915550506040518581526001600160a01b038716903390600080516020611fc38339815191529060200160405180910390a350610c9f565b3360009081526020819052604090205484811015610bf65760405162461bcd60e51b815260040161067e90611dc5565b610c008582611e06565b336000818152602081815260408083209490945592518881529092600080516020611fc3833981519152910160405180910390a3604051600090339087908381818185875af1925050503d8060008114610c76576040519150601f19603f3d011682016040523d82523d6000602084013e610c7b565b606091505b5050905080610c9c5760405162461bcd60e51b815260040161067e90611e19565b50505b604051635260769b60e11b81526001600160a01b0386169063a4c0ed3690610cd1903390889088908890600401611ef5565b6020604051808303816000875af1158015610cf0573d6000803e3d6000fd5b505050506040513d601f19601f82011682018060405250810190610d149190611f27565b95945050505050565b60006001600160a01b0385163014610d775760405162461bcd60e51b815260206004820152601c60248201527f574554483a20666c617368206d696e74206f6e6c792057455448313000000000604482015260640161067e565b6001600160701b03841115610dda5760405162461bcd60e51b8152602060048201526024808201527f574554483a20696e646976696475616c206c6f616e206c696d697420657863656044820152631959195960e21b606482015260840161067e565b83600354610de89190611a84565b60038190556001600160701b031015610e435760405162461bcd60e51b815260206004820152601f60248201527f574554483a20746f74616c206c6f616e206c696d697420657863656564656400604482015260640161067e565b6001600160a01b03861660009081526020819052604081208054869290610e6b908490611a84565b90915550506040518481526001600160a01b03871690600090600080516020611fc38339815191529060200160405180910390a36040516323e30c8b60e01b81527f0000000000000000000000000000000000000000000000000000000000000000906001600160a01b038816906323e30c8b90610ef890339030908a906000908b908b90600401611f49565b6020604051808303816000875af1158015610f17573d6000803e3d6000fd5b505050506040513d601f19601f82011682018060405250810190610f3b9190611f90565b14610f885760405162461bcd60e51b815260206004820152601760248201527f574554483a20666c617368206c6f616e206661696c6564000000000000000000604482015260640161067e565b6001600160a01b0386166000908152600260209081526040808320308452909152902054600019811461102e5784811015610fd55760405162461bcd60e51b815260040161067e90611e50565b6000610fe18683611e06565b6001600160a01b03891660008181526002602090815260408083203080855290835292819020859055518481529394509092600080516020611fe3833981519152910160405180910390a3505b6001600160a01b038716600090815260208190526040902054858110156110675760405162461bcd60e51b815260040161067e90611dc5565b6110718682611e06565b6001600160a01b0389166000818152602081815260408083209490945592518981529092600080516020611fc3833981519152910160405180910390a3856003546110bc9190611e06565b600355506001979650505050505050565b6001600160a01b0383166000908152602081905260408120805434919083906110f7908490611a84565b90915550506040513481526001600160a01b03851690600090600080516020611fc38339815191529060200160405180910390a3604051635260769b60e11b81526001600160a01b0385169063a4c0ed369061115d903390349088908890600401611ef5565b6020604051808303816000875af115801561117c573d6000803e3d6000fd5b505050506040513d601f19601f820116820180604052508101906111a09190611f27565b949350505050565b60006001600160a01b03821630146111c1576000610633565b600354610633906001600160701b03611e06565b6001600160a01b038316331461128d576001600160a01b0383166000908152600260209081526040808320338452909152902054600019811461128b57818110156112325760405162461bcd60e51b815260040161067e90611e50565b600061123e8383611e06565b6001600160a01b03861660008181526002602090815260408083203380855290835292819020859055518481529394509092600080516020611fe3833981519152910160405180910390a3505b505b6001600160a01b038316600090815260208190526040902054818110156112c65760405162461bcd60e51b815260040161067e90611dc5565b6112d08282611e06565b6001600160a01b0385166000818152602081815260408083209490945592518581529092600080516020611fc3833981519152910160405180910390a36000836001600160a01b03168360405160006040518083038185875af1925050503d806000811461135a576040519150601f19603f3d011682016040523d82523d6000602084013e61135f565b606091505b50509050806113b05760405162461bcd60e51b815260206004820152601b60248201527f574554483a204574686572207472616e73666572206661696c65640000000000604482015260640161067e565b5050505050565b60006001600160a01b038316158015906113da57506001600160a01b0383163014155b1561148557336000908152602081905260409020548281101561140f5760405162461bcd60e51b815260040161067e90611e87565b6114198382611e06565b33600090815260208190526040808220929092556001600160a01b0386168152908120805485929061144c908490611a84565b90915550506040518381526001600160a01b038516903390600080516020611fc38339815191529060200160405180910390a35061155e565b33600090815260208190526040902054828110156114b55760405162461bcd60e51b815260040161067e90611dc5565b6114bf8382611e06565b336000818152602081815260408083209490945592518681529092600080516020611fc3833981519152910160405180910390a3604051600090339085908381818185875af1925050503d8060008114611535576040519150601f19603f3d011682016040523d82523d6000602084013e61153a565b606091505b505090508061155b5760405162461bcd60e51b815260040161067e90611e19565b50505b50600192915050565b6001600160a01b0381166000908152602081905260408120805434929061158f908490611a84565b90915550506040513481526001600160a01b03821690600090600080516020611fc38339815191529060200160405180910390a350565b3360008181526002602090815260408083206001600160a01b03891680855292528083208790555191929091600080516020611fe38339815191529061160f9088815260200190565b60405180910390a360405162ba451f60e01b81526001600160a01b0386169062ba451f90610cd1903390889088908890600401611ef5565b3360009081526020819052604081208054349290611666908490611a84565b90915550506040513481523390600090600080516020611fc38339815191529060200160405180910390a3565b834211156116da5760405162461bcd60e51b815260206004820152601460248201527315d155120e88115e1c1a5c9959081c195c9b5a5d60621b604482015260640161067e565b6001600160a01b038716600090815260016020526040812080544692917f0000000000000000000000000000000000000000000000000000000000000000918b918b918b918661172983611fa9565b909155506040805160208101969096526001600160a01b0394851690860152929091166060840152608083015260a082015260c0810187905260e00160405160208183030381529060405280519060200120905060007f000000000000000000000000000000000000000000000000000000000000000083146117b4576117af83611994565b6117d6565b7f00000000000000000000000000000000000000000000000000000000000000005b60405161190160f01b602082015260228101919091526042810183905260620160408051601f198184030181528282528051602091820120600080855291840180845281905260ff8a169284019290925260608301889052608083018790529092509060019060a0016020604051602081039080840390855afa158015611861573d6000803e3d6000fd5b5050604051601f1901519150506001600160a01b0381161580159061189757508a6001600160a01b0316816001600160a01b0316145b6118da5760405162461bcd60e51b815260206004820152601460248201527315d155120e881a5b9d985b1a59081c195c9b5a5d60621b604482015260640161067e565b6001600160a01b038b81166000818152600260209081526040808320948f16808452948252918290208d905590518c8152600080516020611fe3833981519152910160405180910390a35050505050505050505050565b60006001600160a01b038316301461198b5760405162461bcd60e51b815260206004820152601c60248201527f574554483a20666c617368206d696e74206f6e6c792057455448313000000000604482015260640161067e565b50600092915050565b60408051808201825260118152700577261707065642045746865722076313607c1b6020918201528151808301835260018152603160f81b9082015281517f8b73c3c69bb8fe3d512ecc4cf759cc79239f7b179b0ffacaa9a75d522b39400f818301527f5afefa023603a382ac22bd36644e004cefabbfaf61d4180000d8dc2b10c168b8818401527fc89efdaa54c0f20c7adf612882df0950f5a951637e0307cdcb4c672f298b8bc6606082015260808101939093523060a0808501919091528251808503909101815260c0909301909152815191012090565b634e487b7160e01b600052601160045260246000fd5b8082018082111561063357610633611a6e565b60006020808352835180602085015260005b81811015611ac557858101830151858201604001528201611aa9565b506000604082860101526040601f19601f8301168501019250505092915050565b6001600160a01b0381168114611afb57600080fd5b50565b60008060408385031215611b1157600080fd5b8235611b1c81611ae6565b946020939093013593505050565b600080600060608486031215611b3f57600080fd5b8335611b4a81611ae6565b92506020840135611b5a81611ae6565b929592945050506040919091013590565b600060208284031215611b7d57600080fd5b5035919050565b60008083601f840112611b9657600080fd5b50813567ffffffffffffffff811115611bae57600080fd5b602083019150836020828501011115611bc657600080fd5b9250929050565b60008060008060608587031215611be357600080fd5b8435611bee81611ae6565b935060208501359250604085013567ffffffffffffffff811115611c1157600080fd5b611c1d87828801611b84565b95989497509550505050565b600080600080600060808688031215611c4157600080fd5b8535611c4c81611ae6565b94506020860135611c5c81611ae6565b935060408601359250606086013567ffffffffffffffff811115611c7f57600080fd5b611c8b88828901611b84565b969995985093965092949392505050565b600080600060408486031215611cb157600080fd5b8335611cbc81611ae6565b9250602084013567ffffffffffffffff811115611cd857600080fd5b611ce486828701611b84565b9497909650939450505050565b600060208284031215611d0357600080fd5b8135611d0e81611ae6565b9392505050565b600080600080600080600060e0888a031215611d3057600080fd5b8735611d3b81611ae6565b96506020880135611d4b81611ae6565b95506040880135945060608801359350608088013560ff81168114611d6f57600080fd5b9699959850939692959460a0840135945060c09093013592915050565b60008060408385031215611d9f57600080fd5b8235611daa81611ae6565b91506020830135611dba81611ae6565b809150509250929050565b60208082526021908201527f574554483a206275726e20616d6f756e7420657863656564732062616c616e636040820152606560f81b606082015260800190565b8181038181111561063357610633611a6e565b60208082526019908201527f574554483a20455448207472616e73666572206661696c656400000000000000604082015260600190565b6020808252601f908201527f574554483a2072657175657374206578636565647320616c6c6f77616e636500604082015260600190565b60208082526025908201527f574554483a207472616e7366657220616d6f756e7420657863656564732062616040820152646c616e636560d81b606082015260800190565b81835281816020850137506000828201602090810191909152601f909101601f19169091010190565b60018060a01b0385168152836020820152606060408201526000611f1d606083018486611ecc565b9695505050505050565b600060208284031215611f3957600080fd5b81518015158114611d0e57600080fd5b6001600160a01b03878116825286166020820152604081018590526060810184905260a060808201819052600090611f849083018486611ecc565b98975050505050505050565b600060208284031215611fa257600080fd5b5051919050565b600060018201611fbb57611fbb611a6e565b506001019056feddf252ad1be2c89b69c2b068fc378daa952ba7f163c4a11628f55a4df523b3ef8c5be1e5ebec7d5bd14f71427d1e84f3dd0314c0f7b2291e5b200ac8c7c3b925a264697066735822122034006af8db60cacfb1038d5c813e22c9436db2e76ce319acae42fddde003f61964736f6c63430008170033","linkReferences":{}},"methodIdentifiers":{"CALLBACK_SUCCESS()":"8237e538","DOMAIN_SEPARATOR()":"3644e515","PERMIT_TYPEHASH()":"30adf81f","allowance(address,address)":"dd62ed3e","approve(address,uint256)":"095ea7b3","approveAndCall(address,uint256,bytes)":"cae9ca51","balanceOf(address)":"70a08231","decimals()":"313ce567","deploymentChainId()":"cd0d0096","deposit()":"d0e30db0","depositTo(address)":"b760faf9","depositToAndCall(address,bytes)":"5ddb7d7e","flashFee(address,uint256)":"d9d98ce4","flashLoan(address,address,uint256,bytes)":"5cffe9de","flashMinted()":"8b28d32f","maxFlashLoan(address)":"613255ab","name()":"06fdde03","nonces(address)":"7ecebe00","permit(address,address,uint256,uint256,uint8,bytes32,bytes32)":"d505accf","symbol()":"95d89b41","totalSupply()":"18160ddd","transfer(address,uint256)":"a9059cbb","transferAndCall(address,uint256,bytes)":"4000aea0","transferFrom(address,address,uint256)":"23b872dd","withdraw(uint256)":"2e1a7d4d","withdrawFrom(address,address,uint256)":"9555a942","withdrawTo(address,uint256)":"205c2878"},"id":37}