{"abi":[{"type":"constructor","inputs":[],"stateMutability":"nonpayable"},{"type":"receive","stateMutability":"payable"},{"type":"function","name":"CALLBACK_SUCCESS","inputs":[],"outputs":[{"name":"","type":"bytes32","internalType":"bytes32"}],"stateMutability":"view"},{"type":"function","name":"DOMAIN_SEPARATOR","inputs":[],"outputs":[{"name":"","type":"bytes32","internalType":"bytes32"}],"stateMutability":"view"},{"type":"function","name":"PERMIT_TYPEHASH","inputs":[],"outputs":[{"name":"","type":"bytes32","internalType":"bytes32"}],"stateMutability":"view"},{"type":"function","name":"allowance","inputs":[{"name":"","type":"address","internalType":"address"},{"name":"","type":"address","internalType":"address"}],"outputs":[{"name":"","type":"uint256","internalType":"uint256"}],"stateMutability":"view"},{"type":"function","name":"approve","inputs":[{"name":"spender","type":"address","internalType":"address"},{"name":"value","type":"uint256","internalType":"uint256"}],"outputs":[{"name":"","type":"bool","internalType":"bool"}],"stateMutability":"nonpayable"},{"type":"function","name":"approveAndCall","inputs":[{"name":"spender","type":"address","internalType":"address"},{"name":"value","type":"uint256","internalType":"uint256"},{"name":"data","type":"bytes","internalType":"bytes"}],"outputs":[{"name":"","type":"bool","internalType":"bool"}],"stateMutability":"nonpayable"},{"type":"function","name":"balanceOf","inputs":[{"name":"","type":"address","internalType":"address"}],"outputs":[{"name":"","type":"uint256","internalType":"uint256"}],"stateMutability":"view"},{"type":"function","name":"decimals","inputs":[],"outputs":[{"name":"","type":"uint8","internalType":"uint8"}],"stateMutability":"view"},{"type":"function","name":"deploymentChainId","inputs":[],"outputs":[{"name":"","type":"uint256","internalType":"uint256"}],"stateMutability":"view"},{"type":"function","name":"deposit","inputs":[],"outputs":[],"stateMutability":"payable"},{"type":"function","name":"depositTo","inputs":[{"name":"to","type":"address","internalType":"address"}],"outputs":[],"stateMutability":"payable"},{"type":"function","name":"depositToAndCall","inputs":[{"name":"to","type":"address","internalType":"address"},{"name":"data","type":"bytes","internalType":"bytes"}],"outputs":[{"name":"success","type":"bool","internalType":"bool"}],"stateMutability":"payable"},{"type":"function","name":"flashFee","inputs":[{"name":"token","type":"address","internalType":"address"},{"name":"","type":"uint256","internalType":"uint256"}],"outputs":[{"name":"","type":"uint256","internalType":"uint256"}],"stateMutability":"view"},{"type":"function","name":"flashLoan","inputs":[{"name":"receiver","type":"address","internalType":"contract IERC3156FlashBorrower"},{"name":"token","type":"address","internalType":"address"},{"name":"value","type":"uint256","internalType":"uint256"},{"name":"data","type":"bytes","internalType":"bytes"}],"outputs":[{"name":"","type":"bool","internalType":"bool"}],"stateMutability":"nonpayable"},{"type":"function","name":"flashMinted","inputs":[],"outputs":[{"name":"","type":"uint256","internalType":"uint256"}],"stateMutability":"view"},{"type":"function","name":"maxFlashLoan","inputs":[{"name":"token","type":"address","internalType":"address"}],"outputs":[{"name":"","type":"uint256","internalType":"uint256"}],"stateMutability":"view"},{"type":"function","name":"name","inputs":[],"outputs":[{"name":"","type":"string","internalType":"string"}],"stateMutability":"view"},{"type":"function","name":"nonces","inputs":[{"name":"","type":"address","internalType":"address"}],"outputs":[{"name":"","type":"uint256","internalType":"uint256"}],"stateMutability":"view"},{"type":"function","name":"permit","inputs":[{"name":"owner","type":"address","internalType":"address"},{"name":"spender","type":"address","internalType":"address"},{"name":"value","type":"uint256","internalType":"uint256"},{"name":"deadline","type":"uint256","internalType":"uint256"},{"name":"v","type":"uint8","internalType":"uint8"},{"name":"r","type":"bytes32","internalType":"bytes32"},{"name":"s","type":"bytes32","internalType":"bytes32"}],"outputs":[],"stateMutability":"nonpayable"},{"type":"function","name":"symbol","inputs":[],"outputs":[{"name":"","type":"string","internalType":"string"}],"stateMutability":"view"},{"type":"function","name":"totalSupply","inputs":[],"outputs":[{"name":"","type":"uint256","internalType":"uint256"}],"stateMutability":"view"},{"type":"function","name":"transfer","inputs":[{"name":"to","type":"address","internalType":"address"},{"name":"value","type":"uint256","internalType":"uint256"}],"outputs":[{"name":"","type":"bool","internalType":"bool"}],"stateMutability":"nonpayable"},{"type":"function","name":"transferAndCall","inputs":[{"name":"to","type":"address","internalType":"address"},{"name":"value","type":"uint256","internalType":"uint256"},{"name":"data","type":"bytes","internalType":"bytes"}],"outputs":[{"name":"","type":"bool","internalType":"bool"}],"stateMutability":"nonpayable"},{"type":"function","name":"transferFrom","inputs":[{"name":"from","type":"address","internalType":"address"},{"name":"to","type":"address","internalType":"address"},{"name":"value","type":"uint256","internalType":"uint256"}],"outputs":[{"name":"","type":"bool","internalType":"bool"}],"stateMutability":"nonpayable"},{"type":"function","name":"withdraw","inputs":[{"name":"value","type":"uint256","internalType":"uint256"}],"outputs":[],"stateMutability":"nonpayable"},{"type":"function","name":"withdrawFrom","inputs":[{"name":"from","type":"address","internalType":"address"},{"name":"to","type":"address","internalType":"address payable"},{"name":"value","type":"uint256","internalType":"uint256"}],"outputs":[],"stateMutability":"nonpayable"},{"type":"function","name":"withdrawTo","inputs":[{"name":"to","type":"address","internalType":"address payable"},{"name":"value","type":"uint256","internalType":"uint256"}],"outputs":[],"stateMutability":"nonpayable"},{"type":"event","name":"Approval","inputs":[{"name":"owner","type":"address","indexed":true,"internalType":"address"},{"name":"spender","type":"address","indexed":true,"internalType":"address"},{"name":"value","type":"uint256","indexed":false,"internalType":"uint256"}],"anonymous":false},{"type":"event","name":"Transfer","inputs":[{"name":"from","type":"address","indexed":true,"internalType":"address"},{"name":"to","type":"address","indexed":true,"internalType":"address"},{"name":"value","type":"uint256","indexed":false,"internalType":"uint256"}],"anonymous":false}],"bytecode":{"object":"0x6101006040527f439148f0bbc682ca079e46d6e2c2f0c1e3b820f1a291b069d8882abf8cf18dd96080527f6e71edae12b1b97f4d1f60370fef10105fa2faae0126114a169c64845d6126c960a05234801561005957600080fd5b504660c081905261006981610072565b60e0525061014c565b60408051808201825260118152700577261707065642045746865722076313607c1b6020918201528151808301835260018152603160f81b9082015281517f8b73c3c69bb8fe3d512ecc4cf759cc79239f7b179b0ffacaa9a75d522b39400f818301527f5afefa023603a382ac22bd36644e004cefabbfaf61d4180000d8dc2b10c168b8818401527fc89efdaa54c0f20c7adf612882df0950f5a951637e0307cdcb4c672f298b8bc6606082015260808101939093523060a0808501919091528251808503909101815260c0909301909152815191012090565b60805160a05160c05160e05161216f61019a60003980610e915280611d81525080610e5c5280611c165280611d4c525080610e305280611ce652508061128c528061169d525061216f6000f3fe6080604052600436106101a05760003560e01c806370a08231116100ec578063b760faf91161008a578063d0e30db011610064578063d0e30db0146107a8578063d505accf146107b0578063d9d98ce41461080e578063dd62ed3e14610847576101e0565b8063b760faf9146106dd578063cae9ca5114610703578063cd0d009614610793576101e0565b80638b28d32f116100c65780638b28d32f146106375780639555a9421461064c57806395d89b411461068f578063a9059cbb146106a4576101e0565b806370a08231146105bc5780637ecebe00146105ef5780638237e53814610622576101e0565b806330adf81f116101595780634000aea0116101335780634000aea0146103e05780635cffe9de146104705780635ddb7d7e1461050b578063613255ab14610589576101e0565b806330adf81f1461038b578063313ce567146103a05780633644e515146103cb576101e0565b806306fdde03146101e5578063095ea7b31461026f57806318160ddd146102bc578063205c2878146102e357806323b872dd1461031e5780632e1a7d4d14610361576101e0565b366101e05733600081815260208181526040808320805434908101909155815190815290516000805160206120d9833981519152929181900390910190a3005b600080fd5b3480156101f157600080fd5b506101fa610882565b6040805160208082528351818301528351919283929083019185019080838360005b8381101561023457818101518382015260200161021c565b50505050905090810190601f1680156102615780820380516001836020036101000a031916815260200191505b509250505060405180910390f35b34801561027b57600080fd5b506102a86004803603604081101561029257600080fd5b506001600160a01b0381351690602001356108af565b604080519115158252519081900360200190f35b3480156102c857600080fd5b506102d1610903565b60408051918252519081900360200190f35b3480156102ef57600080fd5b5061031c6004803603604081101561030657600080fd5b506001600160a01b03813516906020013561090b565b005b34801561032a57600080fd5b506102a86004803603606081101561034157600080fd5b506001600160a01b03813581169160208101359091169060400135610a2c565b34801561036d57600080fd5b5061031c6004803603602081101561038457600080fd5b5035610d17565b34801561039757600080fd5b506102d1610e2e565b3480156103ac57600080fd5b506103b5610e52565b6040805160ff9092168252519081900360200190f35b3480156103d757600080fd5b506102d1610e57565b3480156103ec57600080fd5b506102a86004803603606081101561040357600080fd5b6001600160a01b0382351691602081013591810190606081016040820135600160201b81111561043257600080fd5b82018360208201111561044457600080fd5b803590602001918460018302840111600160201b8311171561046557600080fd5b509092509050610eb7565b34801561047c57600080fd5b506102a86004803603608081101561049357600080fd5b6001600160a01b03823581169260208101359091169160408201359190810190608081016060820135600160201b8111156104cd57600080fd5b8201836020820111156104df57600080fd5b803590602001918460018302840111600160201b8311171561050057600080fd5b509092509050611141565b6102a86004803603604081101561052157600080fd5b6001600160a01b038235169190810190604081016020820135600160201b81111561054b57600080fd5b82018360208201111561055d57600080fd5b803590602001918460018302840111600160201b8311171561057e57600080fd5b50909250905061154f565b34801561059557600080fd5b506102d1600480360360208110156105ac57600080fd5b50356001600160a01b031661164b565b3480156105c857600080fd5b506102d1600480360360208110156105df57600080fd5b50356001600160a01b0316611677565b3480156105fb57600080fd5b506102d16004803603602081101561061257600080fd5b50356001600160a01b0316611689565b34801561062e57600080fd5b506102d161169b565b34801561064357600080fd5b506102d16116bf565b34801561065857600080fd5b5061031c6004803603606081101561066f57600080fd5b506001600160a01b038135811691602081013590911690604001356116c5565b34801561069b57600080fd5b506101fa6118ee565b3480156106b057600080fd5b506102a8600480360360408110156106c757600080fd5b506001600160a01b038135169060200135611910565b61031c600480360360208110156106f357600080fd5b50356001600160a01b0316611afa565b34801561070f57600080fd5b506102a86004803603606081101561072657600080fd5b6001600160a01b0382351691602081013591810190606081016040820135600160201b81111561075557600080fd5b82018360208201111561076757600080fd5b803590602001918460018302840111600160201b8311171561078857600080fd5b509092509050611b3f565b34801561079f57600080fd5b506102d1611c14565b61031c611c38565b3480156107bc57600080fd5b5061031c600480360360e08110156107d357600080fd5b506001600160a01b03813581169160208101359091169060408101359060608101359060ff6080820135169060a08101359060c00135611c73565b34801561081a57600080fd5b506102d16004803603604081101561083157600080fd5b506001600160a01b038135169060200135611f10565b34801561085357600080fd5b506102d16004803603604081101561086a57600080fd5b506001600160a01b0381358116916020013516611f78565b604051806040016040528060118152602001700577261707065642045746865722076313607c1b81525081565b3360008181526002602090815260408083206001600160a01b038716808552908352818420869055815186815291519394909390926000805160206120f9833981519152928290030190a350600192915050565b600354470190565b336000908152602081905260409020548181101561095a5760405162461bcd60e51b81526004018080602001828103825260218152602001806121196021913960400191505060405180910390fd5b336000818152602081815260408083208686039055805186815290519293926000805160206120d9833981519152929181900390910190a36040516000906001600160a01b0385169084908381818185875af1925050503d80600081146109dd576040519150601f19603f3d011682016040523d82523d6000602084013e6109e2565b606091505b5050905080610a26576040805162461bcd60e51b81526020600482015260196024820152600080516020612095833981519152604482015290519081900360640190fd5b50505050565b60006001600160a01b0384163314610b11576001600160a01b03841660009081526002602090815260408083203384529091529020546000198114610b0f5782811015610ac0576040805162461bcd60e51b815260206004820152601f60248201527f574554483a2072657175657374206578636565647320616c6c6f77616e636500604482015290519081900360640190fd5b6001600160a01b0385166000818152600260209081526040808320338085529083529281902087860390819055815181815291519094926000805160206120f9833981519152928290030190a3505b505b6001600160a01b03831615801590610b3257506001600160a01b0383163014155b15610be6576001600160a01b03841660009081526020819052604090205482811015610b8f5760405162461bcd60e51b81526004018080602001828103825260258152602001806120706025913960400191505060405180910390fd5b6001600160a01b038086166000818152602081815260408083208887039055938816808352918490208054880190558351878152935191936000805160206120d9833981519152929081900390910190a350610d0d565b6001600160a01b03841660009081526020819052604090205482811015610c3e5760405162461bcd60e51b81526004018080602001828103825260218152602001806121196021913960400191505060405180910390fd5b6001600160a01b0385166000818152602081815260408083208786039055805187815290519293926000805160206120d9833981519152929181900390910190a3604051600090339085908381818185875af1925050503d8060008114610cc1576040519150601f19603f3d011682016040523d82523d6000602084013e610cc6565b606091505b5050905080610d0a576040805162461bcd60e51b81526020600482015260196024820152600080516020612095833981519152604482015290519081900360640190fd5b50505b5060019392505050565b3360009081526020819052604090205481811015610d665760405162461bcd60e51b81526004018080602001828103825260218152602001806121196021913960400191505060405180910390fd5b336000818152602081815260408083208686039055805186815290519293926000805160206120d9833981519152929181900390910190a3604051600090339084908381818185875af1925050503d8060008114610de0576040519150601f19603f3d011682016040523d82523d6000602084013e610de5565b606091505b5050905080610e29576040805162461bcd60e51b81526020600482015260196024820152600080516020612095833981519152604482015290519081900360640190fd5b505050565b7f000000000000000000000000000000000000000000000000000000000000000081565b601281565b6000467f00000000000000000000000000000000000000000000000000000000000000008114610e8f57610e8a81611f95565b610eb1565b7f00000000000000000000000000000000000000000000000000000000000000005b91505090565b60006001600160a01b03851615610f6c573360009081526020819052604090205484811015610f175760405162461bcd60e51b81526004018080602001828103825260258152602001806120706025913960400191505060405180910390fd5b3360008181526020818152604080832089860390556001600160a01b038a168084529281902080548a019055805189815290519293926000805160206120d9833981519152929181900390910190a350611081565b3360009081526020819052604090205484811015610fbb5760405162461bcd60e51b81526004018080602001828103825260218152602001806121196021913960400191505060405180910390fd5b336000818152602081815260408083208986039055805189815290519293926000805160206120d9833981519152929181900390910190a3604051600090339087908381818185875af1925050503d8060008114611035576040519150601f19603f3d011682016040523d82523d6000602084013e61103a565b606091505b505090508061107e576040805162461bcd60e51b81526020600482015260196024820152600080516020612095833981519152604482015290519081900360640190fd5b50505b846001600160a01b031663a4c0ed36338686866040518563ffffffff1660e01b815260040180856001600160a01b03168152602001848152602001806020018281038252848482818152602001925080828437600081840152601f19601f82011690508083019250505095505050505050602060405180830381600087803b15801561110c57600080fd5b505af1158015611120573d6000803e3d6000fd5b505050506040513d602081101561113657600080fd5b505195945050505050565b60006001600160a01b03851630146111a0576040805162461bcd60e51b815260206004820152601c60248201527f574554483a20666c617368206d696e74206f6e6c792057455448313000000000604482015290519081900360640190fd5b6001600160701b038411156111e65760405162461bcd60e51b81526004018080602001828103825260248152602001806120b56024913960400191505060405180910390fd5b600380548501908190556001600160701b03101561124b576040805162461bcd60e51b815260206004820152601f60248201527f574554483a20746f74616c206c6f616e206c696d697420657863656564656400604482015290519081900360640190fd5b6001600160a01b038616600081815260208181526040808320805489019055805188815290516000805160206120d9833981519152929181900390910190a37f0000000000000000000000000000000000000000000000000000000000000000866001600160a01b03166323e30c8b333088600089896040518763ffffffff1660e01b815260040180876001600160a01b03168152602001866001600160a01b03168152602001858152602001848152602001806020018281038252848482818152602001925080828437600081840152601f19601f820116905080830192505050975050505050505050602060405180830381600087803b15801561135057600080fd5b505af1158015611364573d6000803e3d6000fd5b505050506040513d602081101561137a57600080fd5b5051146113ce576040805162461bcd60e51b815260206004820152601760248201527f574554483a20666c617368206c6f616e206661696c6564000000000000000000604482015290519081900360640190fd5b6001600160a01b0386166000908152600260209081526040808320308452909152902054600019811461149f5784811015611450576040805162461bcd60e51b815260206004820152601f60248201527f574554483a2072657175657374206578636565647320616c6c6f77616e636500604482015290519081900360640190fd5b6001600160a01b0387166000818152600260209081526040808320308085529083529281902089860390819055815181815291519094926000805160206120f9833981519152928290030190a3505b6001600160a01b038716600090815260208190526040902054858110156114f75760405162461bcd60e51b81526004018080602001828103825260218152602001806121196021913960400191505060405180910390fd5b6001600160a01b0388166000818152602081815260408083208a8603905580518a815290519293926000805160206120d9833981519152929181900390910190a3505060038054859003905550600195945050505050565b6001600160a01b0383166000818152602081815260408083208054349081019091558151908152905192939284926000805160206120d9833981519152928290030190a3604051635260769b60e11b815233600482018181523460248401819052606060448501908152606485018790526001600160a01b0389169463a4c0ed36949389928992608401848480828437600081840152601f19601f82011690508083019250505095505050505050602060405180830381600087803b15801561161757600080fd5b505af115801561162b573d6000803e3d6000fd5b505050506040513d602081101561164157600080fd5b5051949350505050565b60006001600160a01b0382163014611664576000611671565b6003546001600160701b03035b92915050565b60006020819052908152604090205481565b60016020526000908152604090205481565b7f000000000000000000000000000000000000000000000000000000000000000081565b60035481565b6001600160a01b03831633146117a8576001600160a01b038316600090815260026020908152604080832033845290915290205460001981146117a65781811015611757576040805162461bcd60e51b815260206004820152601f60248201527f574554483a2072657175657374206578636565647320616c6c6f77616e636500604482015290519081900360640190fd5b6001600160a01b0384166000818152600260209081526040808320338085529083529281902086860390819055815181815291519094926000805160206120f9833981519152928290030190a3505b505b6001600160a01b038316600090815260208190526040902054818110156118005760405162461bcd60e51b81526004018080602001828103825260218152602001806121196021913960400191505060405180910390fd5b6001600160a01b0384166000818152602081815260408083208686039055805186815290519293926000805160206120d9833981519152929181900390910190a36040516000906001600160a01b0385169084908381818185875af1925050503d806000811461188c576040519150601f19603f3d011682016040523d82523d6000602084013e611891565b606091505b50509050806118e7576040805162461bcd60e51b815260206004820152601b60248201527f574554483a204574686572207472616e73666572206661696c65640000000000604482015290519081900360640190fd5b5050505050565b6040518060400160405280600681526020016505745544831360d41b81525081565b60006001600160a01b0383161580159061193357506001600160a01b0383163014155b156119dc5733600090815260208190526040902054828110156119875760405162461bcd60e51b81526004018080602001828103825260258152602001806120706025913960400191505060405180910390fd5b3360008181526020818152604080832087860390556001600160a01b03881680845292819020805488019055805187815290519293926000805160206120d9833981519152929181900390910190a350611af1565b3360009081526020819052604090205482811015611a2b5760405162461bcd60e51b81526004018080602001828103825260218152602001806121196021913960400191505060405180910390fd5b336000818152602081815260408083208786039055805187815290519293926000805160206120d9833981519152929181900390910190a3604051600090339085908381818185875af1925050503d8060008114611aa5576040519150601f19603f3d011682016040523d82523d6000602084013e611aaa565b606091505b5050905080611aee576040805162461bcd60e51b81526020600482015260196024820152600080516020612095833981519152604482015290519081900360640190fd5b50505b50600192915050565b6001600160a01b038116600081815260208181526040808320805434908101909155815190815290516000805160206120d9833981519152929181900390910190a350565b3360008181526002602090815260408083206001600160a01b038916808552908352818420889055815188815291519394909390926000805160206120f9833981519152928290030190a3846001600160a01b031662ba451f338686866040518563ffffffff1660e01b815260040180856001600160a01b03168152602001848152602001806020018281038252848482818152602001925080828437600081840152601f19601f82011690508083019250505095505050505050602060405180830381600087803b15801561110c57600080fd5b7f000000000000000000000000000000000000000000000000000000000000000081565b33600081815260208181526040808320805434908101909155815190815290516000805160206120d9833981519152929181900390910190a3565b83421115611cbf576040805162461bcd60e51b815260206004820152601460248201527315d155120e88115e1c1a5c9959081c195c9b5a5d60621b604482015290519081900360640190fd5b6001600160a01b0380881660008181526001602081815260408084208054938401905580517f00000000000000000000000000000000000000000000000000000000000000008184015280820195909552948b166060850152608084018a905260a084019190915260c08084018990528451808503909101815260e09093019093528151919092012046917f00000000000000000000000000000000000000000000000000000000000000008314611d7f57611d7a83611f95565b611da1565b7f00000000000000000000000000000000000000000000000000000000000000005b82604051602001808061190160f01b81525060020183815260200182815260200192505050604051602081830303815290604052805190602001209050600060018288888860405160008152602001604052604051808581526020018460ff1681526020018381526020018281526020019450505050506020604051602081039080840390855afa158015611e3a573d6000803e3d6000fd5b5050604051601f1901519150506001600160a01b03811615801590611e7057508a6001600160a01b0316816001600160a01b0316145b611eb8576040805162461bcd60e51b815260206004820152601460248201527315d155120e881a5b9d985b1a59081c195c9b5a5d60621b604482015290519081900360640190fd5b6001600160a01b03808c166000818152600260209081526040808320948f16808452948252918290208d905581518d815291516000805160206120f98339815191529281900390910190a35050505050505050505050565b60006001600160a01b0383163014611f6f576040805162461bcd60e51b815260206004820152601c60248201527f574554483a20666c617368206d696e74206f6e6c792057455448313000000000604482015290519081900360640190fd5b50600092915050565b600260209081526000928352604080842090915290825290205481565b60408051808201825260118152700577261707065642045746865722076313607c1b6020918201528151808301835260018152603160f81b9082015281517f8b73c3c69bb8fe3d512ecc4cf759cc79239f7b179b0ffacaa9a75d522b39400f818301527f5afefa023603a382ac22bd36644e004cefabbfaf61d4180000d8dc2b10c168b8818401527fc89efdaa54c0f20c7adf612882df0950f5a951637e0307cdcb4c672f298b8bc6606082015260808101939093523060a0808501919091528251808503909101815260c090930190915281519101209056fe574554483a207472616e7366657220616d6f756e7420657863656564732062616c616e6365574554483a20455448207472616e73666572206661696c656400000000000000574554483a20696e646976696475616c206c6f616e206c696d6974206578636565646564ddf252ad1be2c89b69c2b068fc378daa952ba7f163c4a11628f55a4df523b3ef8c5be1e5ebec7d5bd14f71427d1e84f3dd0314c0f7b2291e5b200ac8c7c3b925574554483a206275726e20616d6f756e7420657863656564732062616c616e6365a264697066735822122023c7f139aa7a57dcc4a3c88eb48d975c3dd4296da9e04d7e923f8bf6d73b288a64736f6c63430007060033","linkReferences":{}},"methodIdentifiers":{"CALLBACK_SUCCESS()":"8237e538","DOMAIN_SEPARATOR()":"3644e515","PERMIT_TYPEHASH()":"30adf81f","allowance(address,address)":"dd62ed3e","approve(address,uint256)":"095ea7b3","approveAndCall(address,uint256,bytes)":"cae9ca51","balanceOf(address)":"70a08231","decimals()":"313ce567","deploymentChainId()":"cd0d0096","deposit()":"d0e30db0","depositTo(address)":"b760faf9","depositToAndCall(address,bytes)":"5ddb7d7e","flashFee(address,uint256)":"d9d98ce4","flashLoan(address,address,uint256,bytes)":"5cffe9de","flashMinted()":"8b28d32f","maxFlashLoan(address)":"613255ab","name()":"06fdde03","nonces(address)":"7ecebe00","permit(address,address,uint256,uint256,uint8,bytes32,bytes32)":"d505accf","symbol()":"95d89b41","totalSupply()":"18160ddd","transfer(address,uint256)":"a9059cbb","transferAndCall(address,uint256,bytes)":"4000aea0","transferFrom(address,address,uint256)":"23b872dd","withdraw(uint256)":"2e1a7d4d","withdrawFrom(address,address,uint256)":"9555a942","withdrawTo(address,uint256)":"205c2878"},"id":0}