{"abi":[{"type":"function","name":"underlyingToken","inputs":[],"outputs":[{"name":"","type":"address","internalType":"contract IMintableToken"}],"stateMutability":"view"}],"bytecode":{"object":"0x6080604052348015600e575f80fd5b50608d80601a5f395ff3fe6080604052348015600e575f80fd5b50600436106026575f3560e01c80632495a59914602a575b5f80fd5b5f54603b906001600160a01b031681565b6040516001600160a01b03909116815260200160405180910390f3fea264697066735822122024e100c8517c08837ba24cd555c1a43f8b9797edee4d6e42609f340b2a9e47fa64736f6c634300081a0033","linkReferences":{}},"methodIdentifiers":{"underlyingToken()":"2495a599"},"storageLayout":{"storage":[{"astId":56236,"contract":"src/token/base/WrappedTokenStorage.sol:WrappedTokenStorage","label":"underlyingToken","offset":0,"slot":"0","type":"t_contract(IMintableToken)55962"},{"astId":56240,"contract":"src/token/base/WrappedTokenStorage.sol:WrappedTokenStorage","label":"__gap","offset":0,"slot":"1","type":"t_array(t_uint256)50_storage"}],"types":{"t_array(t_uint256)50_storage":{"encoding":"inplace","label":"uint256[50]","numberOfBytes":"1600","base":"t_uint256"},"t_contract(IMintableToken)55962":{"encoding":"inplace","label":"contract IMintableToken","numberOfBytes":"20"},"t_uint256":{"encoding":"inplace","label":"uint256","numberOfBytes":"32"}}},"id":115}