{"abi":[{"type":"constructor","inputs":[{"name":"epochDurationSecs","type":"uint256","internalType":"uint256"},{"name":"_leadingBlockTolerance","type":"uint256","internalType":"uint256"},{"name":"_genesisStakeRequired","type":"uint256","internalType":"uint256"},{"name":"_lastAcceptedBlockHeight","type":"uint256","internalType":"uint256"}],"stateMutability":"nonpayable"},{"type":"function","name":"acceptedBlocks","inputs":[{"name":"","type":"uint256","internalType":"uint256"}],"outputs":[{"name":"height","type":"uint256","internalType":"uint256"},{"name":"commitment","type":"bytes32","internalType":"bytes32"},{"name":"blockId","type":"bytes32","internalType":"bytes32"}],"stateMutability":"view"},{"type":"function","name":"blockHeightEpochAssignments","inputs":[{"name":"","type":"uint256","internalType":"uint256"}],"outputs":[{"name":"","type":"uint256","internalType":"uint256"}],"stateMutability":"view"},{"type":"function","name":"commitmentStakes","inputs":[{"name":"","type":"uint256","internalType":"uint256"},{"name":"","type":"bytes32","internalType":"bytes32"}],"outputs":[{"name":"","type":"uint256","internalType":"uint256"}],"stateMutability":"view"},{"type":"function","name":"commitments","inputs":[{"name":"","type":"uint256","internalType":"uint256"},{"name":"","type":"address","internalType":"address"}],"outputs":[{"name":"height","type":"uint256","internalType":"uint256"},{"name":"commitment","type":"bytes32","internalType":"bytes32"},{"name":"blockId","type":"bytes32","internalType":"bytes32"}],"stateMutability":"view"},{"type":"function","name":"createBlockCommitment","inputs":[{"name":"height","type":"uint256","internalType":"uint256"},{"name":"commitment","type":"bytes32","internalType":"bytes32"},{"name":"blockId","type":"bytes32","internalType":"bytes32"}],"outputs":[{"name":"","type":"tuple","internalType":"struct MCR.BlockCommitment","components":[{"name":"height","type":"uint256","internalType":"uint256"},{"name":"commitment","type":"bytes32","internalType":"bytes32"},{"name":"blockId","type":"bytes32","internalType":"bytes32"}]}],"stateMutability":"pure"},{"type":"function","name":"currentEpoch","inputs":[],"outputs":[{"name":"","type":"uint256","internalType":"uint256"}],"stateMutability":"view"},{"type":"function","name":"epochDuration","inputs":[],"outputs":[{"name":"","type":"uint256","internalType":"uint256"}],"stateMutability":"view"},{"type":"function","name":"epochStakes","inputs":[{"name":"","type":"uint256","internalType":"uint256"},{"name":"","type":"address","internalType":"address"}],"outputs":[{"name":"","type":"uint256","internalType":"uint256"}],"stateMutability":"view"},{"type":"function","name":"epochTotalStake","inputs":[{"name":"","type":"uint256","internalType":"uint256"}],"outputs":[{"name":"","type":"uint256","internalType":"uint256"}],"stateMutability":"view"},{"type":"function","name":"epochUnstakes","inputs":[{"name":"","type":"uint256","internalType":"uint256"},{"name":"","type":"address","internalType":"address"}],"outputs":[{"name":"","type":"uint256","internalType":"uint256"}],"stateMutability":"view"},{"type":"function","name":"genesisStakeAccumulated","inputs":[],"outputs":[{"name":"","type":"uint256","internalType":"uint256"}],"stateMutability":"view"},{"type":"function","name":"genesisStakeRequired","inputs":[],"outputs":[{"name":"","type":"uint256","internalType":"uint256"}],"stateMutability":"view"},{"type":"function","name":"getAcceptedCommitmentAtBlockHeight","inputs":[{"name":"blockHeight","type":"uint256","internalType":"uint256"}],"outputs":[{"name":"","type":"tuple","internalType":"struct MCR.BlockCommitment","components":[{"name":"height","type":"uint256","internalType":"uint256"},{"name":"commitment","type":"bytes32","internalType":"bytes32"},{"name":"blockId","type":"bytes32","internalType":"bytes32"}]}],"stateMutability":"view"},{"type":"function","name":"getCurrentEpoch","inputs":[],"outputs":[{"name":"","type":"uint256","internalType":"uint256"}],"stateMutability":"view"},{"type":"function","name":"getCurrentEpochStake","inputs":[{"name":"validatorAddress","type":"address","internalType":"address"}],"outputs":[{"name":"","type":"uint256","internalType":"uint256"}],"stateMutability":"view"},{"type":"function","name":"getCurrentEpochUnstake","inputs":[{"name":"validatorAddress","type":"address","internalType":"address"}],"outputs":[{"name":"","type":"uint256","internalType":"uint256"}],"stateMutability":"view"},{"type":"function","name":"getEpochByBlockTime","inputs":[],"outputs":[{"name":"","type":"uint256","internalType":"uint256"}],"stateMutability":"view"},{"type":"function","name":"getMaxTolerableBlockHeight","inputs":[],"outputs":[{"name":"","type":"uint256","internalType":"uint256"}],"stateMutability":"view"},{"type":"function","name":"getNextEpoch","inputs":[],"outputs":[{"name":"","type":"uint256","internalType":"uint256"}],"stateMutability":"view"},{"type":"function","name":"getStakeAtEpoch","inputs":[{"name":"validatorAddress","type":"address","internalType":"address"},{"name":"epoch","type":"uint256","internalType":"uint256"}],"outputs":[{"name":"","type":"uint256","internalType":"uint256"}],"stateMutability":"view"},{"type":"function","name":"getTotalStakeForCurrentEpoch","inputs":[],"outputs":[{"name":"","type":"uint256","internalType":"uint256"}],"stateMutability":"view"},{"type":"function","name":"getTotalStakeForEpoch","inputs":[{"name":"epoch","type":"uint256","internalType":"uint256"}],"outputs":[{"name":"","type":"uint256","internalType":"uint256"}],"stateMutability":"view"},{"type":"function","name":"getUnstakeAtEpoch","inputs":[{"name":"validatorAddress","type":"address","internalType":"address"},{"name":"epoch","type":"uint256","internalType":"uint256"}],"outputs":[{"name":"","type":"uint256","internalType":"uint256"}],"stateMutability":"view"},{"type":"function","name":"getValidatorCommitmentAtBlockHeight","inputs":[{"name":"blockHeight","type":"uint256","internalType":"uint256"},{"name":"validatorAddress","type":"address","internalType":"address"}],"outputs":[{"name":"","type":"tuple","internalType":"struct MCR.BlockCommitment","components":[{"name":"height","type":"uint256","internalType":"uint256"},{"name":"commitment","type":"bytes32","internalType":"bytes32"},{"name":"blockId","type":"bytes32","internalType":"bytes32"}]}],"stateMutability":"view"},{"type":"function","name":"hasGenesisCeremonyEnded","inputs":[],"outputs":[{"name":"","type":"bool","internalType":"bool"}],"stateMutability":"view"},{"type":"function","name":"lastAcceptedBlockHeight","inputs":[],"outputs":[{"name":"","type":"uint256","internalType":"uint256"}],"stateMutability":"view"},{"type":"function","name":"leadingBlockTolerance","inputs":[],"outputs":[{"name":"","type":"uint256","internalType":"uint256"}],"stateMutability":"view"},{"type":"function","name":"stake","inputs":[],"outputs":[],"stateMutability":"payable"},{"type":"function","name":"stakeGenesis","inputs":[],"outputs":[],"stateMutability":"payable"},{"type":"function","name":"submitBatchBlockCommitment","inputs":[{"name":"blockCommitments","type":"tuple[]","internalType":"struct MCR.BlockCommitment[]","components":[{"name":"height","type":"uint256","internalType":"uint256"},{"name":"commitment","type":"bytes32","internalType":"bytes32"},{"name":"blockId","type":"bytes32","internalType":"bytes32"}]}],"outputs":[],"stateMutability":"nonpayable"},{"type":"function","name":"submitBlockCommitment","inputs":[{"name":"blockCommitment","type":"tuple","internalType":"struct MCR.BlockCommitment","components":[{"name":"height","type":"uint256","internalType":"uint256"},{"name":"commitment","type":"bytes32","internalType":"bytes32"},{"name":"blockId","type":"bytes32","internalType":"bytes32"}]}],"outputs":[],"stateMutability":"nonpayable"},{"type":"function","name":"unstake","inputs":[{"name":"amount","type":"uint256","internalType":"uint256"}],"outputs":[],"stateMutability":"nonpayable"},{"type":"event","name":"BlockAccepted","inputs":[{"name":"blockHash","type":"bytes32","indexed":true,"internalType":"bytes32"},{"name":"stateCommitment","type":"bytes32","indexed":false,"internalType":"bytes32"}],"anonymous":false},{"type":"event","name":"BlockCommitmentSubmitted","inputs":[{"name":"blockHash","type":"bytes32","indexed":true,"internalType":"bytes32"},{"name":"stateCommitment","type":"bytes32","indexed":false,"internalType":"bytes32"},{"name":"validatorStake","type":"uint256","indexed":false,"internalType":"uint256"}],"anonymous":false},{"type":"event","name":"EpochRolledOver","inputs":[{"name":"epoch","type":"uint256","indexed":false,"internalType":"uint256"},{"name":"totalStake","type":"uint256","indexed":false,"internalType":"uint256"}],"anonymous":false},{"type":"event","name":"ValidatorEpochRolledOver","inputs":[{"name":"validator","type":"address","indexed":true,"internalType":"address"},{"name":"epoch","type":"uint256","indexed":false,"internalType":"uint256"},{"name":"stake","type":"uint256","indexed":false,"internalType":"uint256"},{"name":"unstake","type":"uint256","indexed":false,"internalType":"uint256"}],"anonymous":false},{"type":"event","name":"ValidatorStaked","inputs":[{"name":"validator","type":"address","indexed":true,"internalType":"address"},{"name":"stake","type":"uint256","indexed":false,"internalType":"uint256"},{"name":"epoch","type":"uint256","indexed":false,"internalType":"uint256"}],"anonymous":false},{"type":"event","name":"ValidatorUnstaked","inputs":[{"name":"validator","type":"address","indexed":true,"internalType":"address"},{"name":"stake","type":"uint256","indexed":false,"internalType":"uint256"},{"name":"epoch","type":"uint256","indexed":false,"internalType":"uint256"}],"anonymous":false}],"bytecode":{"object":"0x6080604052348015600f57600080fd5b5060405161174b38038061174b833981016040819052602c916047565b6002939093556003919091556000908155600155600455607c565b60008060008060808587031215605c57600080fd5b505082516020840151604085015160609095015191969095509092509050565b6116c08061008b6000396000f3fe6080604052600436106101e35760003560e01c806372710d1811610102578063e1ffa44c11610095578063efe97d0511610064578063efe97d0514610674578063f89fe60b14610689578063f934ed75146106a9578063fc2788ad146106cc57600080fd5b8063e1ffa44c14610564578063e90d4c06146105ca578063ee377d9014610611578063ee96da051461062657600080fd5b8063b97dd9e2116100d1578063b97dd9e2146104ca578063c76c27bf146104df578063ce2a96b414610517578063e1b2b2221461054457600080fd5b806372710d181461044857806374e8e5641461045d578063766718081461047257806384df64551461048857600080fd5b806320e0e4451161017a5780633ae52727116101495780633ae52727146103cf5780634ff0876a146103fc57806367d144ab146104125780636b588ac71461043257600080fd5b806320e0e445146103705780632e17de781461039d578063365f490b146103bf5780633a4b66f1146103c757600080fd5b8063108cf69b116101b6578063108cf69b146102ab57806311fe3345146102e35780631c4e4e27146103035780631cfa25161461035a57600080fd5b8063048317c8146101e8578063056f4aa6146102115780630a0b81cc146102275780630dd5636614610269575b600080fd5b3480156101f457600080fd5b506101fe60005481565b6040519081526020015b60405180910390f35b34801561021d57600080fd5b506101fe60015481565b34801561023357600080fd5b506102476102423660046113b8565b610704565b6040805182518152602080840151908201529181015190820152606001610208565b34801561027557600080fd5b506101fe6102843660046113e4565b60009081526008602090815260408083206001600160a01b03949094168352929052205490565b3480156102b757600080fd5b506101fe6102c63660046113b8565b600860209081526000928352604080842090915290825290205481565b3480156102ef57600080fd5b506101fe6102fe36600461140e565b610768565b34801561030f57600080fd5b5061033f61031e366004611429565b600e6020526000908152604090208054600182015460029092015490919083565b60408051938452602084019290925290820152606001610208565b34801561036657600080fd5b506101fe60035481565b34801561037c57600080fd5b506101fe61038b366004611429565b600b6020526000908152604090205481565b3480156103a957600080fd5b506103bd6103b8366004611429565b610777565b005b6103bd6108d9565b6103bd610ac6565b3480156103db57600080fd5b506101fe6103ea366004611429565b600a6020526000908152604090205481565b34801561040857600080fd5b506101fe60025481565b34801561041e57600080fd5b506101fe61042d36600461140e565b610bbe565b34801561043e57600080fd5b506101fe60045481565b34801561045457600080fd5b506101fe610bcd565b34801561046957600080fd5b506101fe610be0565b34801561047e57600080fd5b506101fe60055481565b34801561049457600080fd5b506101fe6104a33660046113e4565b60009081526009602090815260408083206001600160a01b03949094168352929052205490565b3480156104d657600080fd5b506005546101fe565b3480156104eb57600080fd5b506101fe6104fa3660046113b8565b600960209081526000928352604080842090915290825290205481565b34801561052357600080fd5b506101fe610532366004611429565b6000908152600a602052604090205490565b34801561055057600080fd5b506103bd61055f3660046114e5565b610bf2565b34801561057057600080fd5b5061024761057f366004611429565b604080516060808201835260008083526020808401829052928401819052938452600e8252928290208251938401835280548452600181015491840191909152600201549082015290565b3480156105d657600080fd5b5061033f6105e53660046113b8565b600c60209081526000928352604080842090915290825290208054600182015460029092015490919083565b34801561061d57600080fd5b506101fe610c2c565b34801561063257600080fd5b50610247610641366004611595565b60408051606080820183526000808352602080840182905292840152825190810183529485528401929092529082015290565b34801561068057600080fd5b506101fe610c3c565b34801561069557600080fd5b506103bd6106a43660046115c1565b610c4d565b3480156106b557600080fd5b506000546001546040519111158152602001610208565b3480156106d857600080fd5b506101fe6106e73660046115dd565b600d60209081526000928352604080842090915290825290205481565b604080516060808201835260008083526020808401829052928401819052858152600c83528381206001600160a01b038616825283528390208351918201845280548252600181015492820192909252600290910154918101919091525b92915050565b60006107628261028460055490565b60005460015410156107d05760405162461bcd60e51b815260206004820152601f60248201527f47656e6573697320636572656d6f6e7920686173206e6f7420656e6465642e0060448201526064015b60405180910390fd5b80600860006107de60055490565b81526020808201929092526040908101600090812033825290925290205410156108405760405162461bcd60e51b815260206004820152601360248201527224b739bab33334b1b4b2b73a1039ba30b5b29760691b60448201526064016107c7565b806009600061084d610c3c565b81526020019081526020016000206000336001600160a01b03166001600160a01b03168152602001908152602001600020600082825461088d9190611615565b909155503390507f04fba62a80e1849b9aee6f029587f10dc735742856c310f041883b34f4107ab9826108be610c3c565b6040805192835260208301919091520160405180910390a250565b6000546001541061092c5760405162461bcd60e51b815260206004820152601b60248201527f47656e6573697320636572656d6f6e792068617320656e6465642e000000000060448201526064016107c7565b610937600633610c57565b503360009081527f5eff886ea0ce6ca488a3d6e336d6c0f75f46d19b42c06ce5ee98e42c96d256c7602052604081208054349290610976908490611615565b92505081905550346001600082825461098f9190611615565b9091555050604080513481526000602082015233917f7df7881b496facd9ed493d6f1b0fc5092ad3a605083889c92e64ef36602dbb6a910160405180910390a260005460015410610ac4576109e2610c2c565b60055560005b6109f26006610c73565b811015610ac2576000610a06600683610c7d565b6001600160a01b03811660009081527f5eff886ea0ce6ca488a3d6e336d6c0f75f46d19b42c06ce5ee98e42c96d256c760205260408120549192508190600890610a4f60055490565b81526020019081526020016000206000846001600160a01b03166001600160a01b031681526020019081526020016000208190555080600a6000610a9260055490565b81526020019081526020016000206000828254610aaf9190611615565b9091555050600190920191506109e89050565b505b565b6000546001541015610b1a5760405162461bcd60e51b815260206004820152601f60248201527f47656e6573697320636572656d6f6e7920686173206e6f7420656e6465642e0060448201526064016107c7565b610b25600633610c57565b503460086000610b33610c3c565b81526020019081526020016000206000336001600160a01b03166001600160a01b031681526020019081526020016000206000828254610b739190611615565b909155503390507f7df7881b496facd9ed493d6f1b0fc5092ad3a605083889c92e64ef36602dbb6a34610ba4610c3c565b6040805192835260208301919091520160405180910390a2565b6000610762826104a360055490565b6000610bdb61053260055490565b905090565b6000600354600454610bdb9190611615565b60005b8151811015610c2857610c20828281518110610c1357610c13611628565b6020026020010151610c4d565b600101610bf5565b5050565b600060025442610bdb919061163e565b60006005546001610bdb9190611615565b610ac23382610c89565b6000610c6c836001600160a01b038416610ed0565b9392505050565b6000610762825490565b6000610c6c8383610f1f565b80516000908152600c602090815260408083206001600160a01b038616845290915290205415610d215760405162461bcd60e51b815260206004820152603960248201527f56616c696461746f722068617320616c726561647920636f6d6d69747465642060448201527f746f206120626c6f636b2061742074686973206865696768740000000000000060648201526084016107c7565b600354600454610d319190611615565b815110610dba5760405162461bcd60e51b815260206004820152604b60248201527f56616c696461746f722068617320636f6d6d697474656420746f206120626c6f60448201527f636b20746f6f20666172206168656164206f6620746865206c6173742061636360648201526a657074656420626c6f636b60a81b608482015260a4016107c7565b80516000908152600b60205260408120549003610deb57610dd9610c2c565b81516000908152600b60205260409020555b80516000908152600c602090815260408083206001600160a01b03861684528252918290208351815590830151600182015590820151600290910155610e3082610768565b81516000908152600d6020908152604080832082860151845290915281208054909190610e5e908490611615565b9091555050604081015160208201517f4c9b7866113ce81c9ece48d2a0f4bb9d89d87f997a851cf3c448ee02f54559fd90610e9885610768565b6040805192835260208301919091520160405180910390a25b610ec86004546001610ec39190611615565b610f49565b610eb1575050565b6000818152600183016020526040812054610f1757508154600181810184556000848152602080822090930184905584548482528286019093526040902091909155610762565b506000610762565b6000826000018281548110610f3657610f36611628565b9060005260206000200154905092915050565b6000818152600b60205260408120545b80610f6360055490565b1015610f7f57610f7a610f7560055490565b61105a565b610f59565b6000818152600a6020526040812054600390610f9c906002611660565b610fa6919061163e565b905060005b610fb56006610c73565b81101561104f576000610fc9600683610c7d565b6000878152600c602090815260408083206001600160a01b03851684528252808320815160608101835281548082526001830154828601908152600290930154828501528552600d84528285209151855292529091205491925090848111156110445761103682876110f7565b506001979650505050505050565b505050600101610fab565b506000949350505050565b60005b6110676006610c73565b81101561109057600061107b600683610c7d565b90506110878184611176565b5060010161105d565b506001600560008282546110a49190611615565b90915550506000818152600a60205260409020547fd531225950dd9ae364d4b0ceb29d1247a21905d454c6993edc0e5a3b1d3de4499082906040805192835260208301919091520160405180910390a150565b81516000908152600e6020908152604091829020845180825582860151600183018190558487015160029093018390556004919091559251928352917f70cd53aef7ce4038b0f7702a31f7f59b0d4bf93cd68c2a021e7bf7c75cf9715b910160405180910390a280611167610c2c565b1115610c2857610c288161105a565b60096000611185836001611615565b8152602080820192909252604090810160009081206001600160a01b0386168083529084528282205485835260088552838320918352935220546111c99190611677565b600860006111d8846001611615565b81526020019081526020016000206000846001600160a01b03166001600160a01b0316815260200190815260200160002060008282546112189190611615565b9091555060089050600061122d836001611615565b8152602080820192909252604090810160009081206001600160a01b038616825290925281205490600a90611263846001611615565b815260200190815260200160002060008282546112809190611615565b90915550506001600160a01b0382166108fc600960006112a1856001611615565b81526020019081526020016000206000856001600160a01b03166001600160a01b03168152602001908152602001600020549081150290604051600060405180830381858888f193505050501580156112fe573d6000803e3d6000fd5b5060008181526008602090815260408083206001600160a01b038616808552925282205490917f6efdc689a13c094860d18d6e0c9c71d01cb26cad68b952c8ea15832397cb51b4918491600990611356846001611615565b8152602080820192909252604090810160009081206001600160a01b038a1682528352819020548151948552918401929092529082015260600160405180910390a25050565b80356001600160a01b03811681146113b357600080fd5b919050565b600080604083850312156113cb57600080fd5b823591506113db6020840161139c565b90509250929050565b600080604083850312156113f757600080fd5b6114008361139c565b946020939093013593505050565b60006020828403121561142057600080fd5b610c6c8261139c565b60006020828403121561143b57600080fd5b5035919050565b634e487b7160e01b600052604160045260246000fd5b604051601f8201601f1916810167ffffffffffffffff8111828210171561148157611481611442565b604052919050565b60006060828403121561149b57600080fd5b6040516060810181811067ffffffffffffffff821117156114be576114be611442565b80604052508091508235815260208301356020820152604083013560408201525092915050565b600060208083850312156114f857600080fd5b823567ffffffffffffffff8082111561151057600080fd5b818501915085601f83011261152457600080fd5b81358181111561153657611536611442565b611544848260051b01611458565b8181528481019250606091820284018501918883111561156357600080fd5b938501935b828510156115895761157a8986611489565b84529384019392850192611568565b50979650505050505050565b6000806000606084860312156115aa57600080fd5b505081359360208301359350604090920135919050565b6000606082840312156115d357600080fd5b610c6c8383611489565b600080604083850312156115f057600080fd5b50508035926020909101359150565b634e487b7160e01b600052601160045260246000fd5b80820180821115610762576107626115ff565b634e487b7160e01b600052603260045260246000fd5b60008261165b57634e487b7160e01b600052601260045260246000fd5b500490565b8082028115828204841417610762576107626115ff565b81810381811115610762576107626115ff56fea2646970667358221220bc0dd5f36b135512eb25e9ee867ec75de76727c7e8e5a187142f21fde0774b3264736f6c63430008190033","linkReferences":{}},"methodIdentifiers":{"acceptedBlocks(uint256)":"1c4e4e27","blockHeightEpochAssignments(uint256)":"20e0e445","commitmentStakes(uint256,bytes32)":"fc2788ad","commitments(uint256,address)":"e90d4c06","createBlockCommitment(uint256,bytes32,bytes32)":"ee96da05","currentEpoch()":"76671808","epochDuration()":"4ff0876a","epochStakes(uint256,address)":"108cf69b","epochTotalStake(uint256)":"3ae52727","epochUnstakes(uint256,address)":"c76c27bf","genesisStakeAccumulated()":"056f4aa6","genesisStakeRequired()":"048317c8","getAcceptedCommitmentAtBlockHeight(uint256)":"e1ffa44c","getCurrentEpoch()":"b97dd9e2","getCurrentEpochStake(address)":"11fe3345","getCurrentEpochUnstake(address)":"67d144ab","getEpochByBlockTime()":"ee377d90","getMaxTolerableBlockHeight()":"74e8e564","getNextEpoch()":"efe97d05","getStakeAtEpoch(address,uint256)":"0dd56366","getTotalStakeForCurrentEpoch()":"72710d18","getTotalStakeForEpoch(uint256)":"ce2a96b4","getUnstakeAtEpoch(address,uint256)":"84df6455","getValidatorCommitmentAtBlockHeight(uint256,address)":"0a0b81cc","hasGenesisCeremonyEnded()":"f934ed75","lastAcceptedBlockHeight()":"6b588ac7","leadingBlockTolerance()":"1cfa2516","stake()":"3a4b66f1","stakeGenesis()":"365f490b","submitBatchBlockCommitment((uint256,bytes32,bytes32)[])":"e1b2b222","submitBlockCommitment((uint256,bytes32,bytes32))":"f89fe60b","unstake(uint256)":"2e17de78"},"id":24}