{"abi":[{"type":"function","name":"CONTROL_ID_0","inputs":[],"outputs":[{"name":"","type":"uint256","internalType":"uint256"}],"stateMutability":"view"},{"type":"function","name":"CONTROL_ID_1","inputs":[],"outputs":[{"name":"","type":"uint256","internalType":"uint256"}],"stateMutability":"view"}],"bytecode":{"object":"0x60b6610039600b82828239805160001a60731461002c57634e487b7160e01b600052600060045260246000fd5b30600052607381538281f3fe7300000000000000000000000000000000000000003014608060405260043610603d5760003560e01c8063168b114614604257806386039a3114606a575b600080fd5b60586f447d7e12291364db4bc542116488012981565b60405190815260200160405180910390f35b60586f12c49ad247d28a32147e13615c6c81f98156fea2646970667358221220f9db79c2f2de59b2b77de497eba2a28e0599d9a6adee36b4e1da28a91c7dbcbb64736f6c63430008180033","linkReferences":{}},"methodIdentifiers":{"CONTROL_ID_0()":"168b1146","CONTROL_ID_1()":"86039a31"},"id":23}