{"abi":[{"type":"function","name":"DEFAULT_ADMIN_ROLE","inputs":[],"outputs":[{"name":"","type":"bytes32","internalType":"bytes32"}],"stateMutability":"view"},{"type":"function","name":"UPGRADE_INTERFACE_VERSION","inputs":[],"outputs":[{"name":"","type":"string","internalType":"string"}],"stateMutability":"view"},{"type":"function","name":"getRoleAdmin","inputs":[{"name":"role","type":"bytes32","internalType":"bytes32"}],"outputs":[{"name":"","type":"bytes32","internalType":"bytes32"}],"stateMutability":"view"},{"type":"function","name":"grantRole","inputs":[{"name":"role","type":"bytes32","internalType":"bytes32"},{"name":"account","type":"address","internalType":"address"}],"outputs":[],"stateMutability":"nonpayable"},{"type":"function","name":"hasRole","inputs":[{"name":"role","type":"bytes32","internalType":"bytes32"},{"name":"account","type":"address","internalType":"address"}],"outputs":[{"name":"","type":"bool","internalType":"bool"}],"stateMutability":"view"},{"type":"function","name":"initialize","inputs":[],"outputs":[],"stateMutability":"nonpayable"},{"type":"function","name":"proxiableUUID","inputs":[],"outputs":[{"name":"","type":"bytes32","internalType":"bytes32"}],"stateMutability":"view"},{"type":"function","name":"renounceRole","inputs":[{"name":"role","type":"bytes32","internalType":"bytes32"},{"name":"callerConfirmation","type":"address","internalType":"address"}],"outputs":[],"stateMutability":"nonpayable"},{"type":"function","name":"revokeRole","inputs":[{"name":"role","type":"bytes32","internalType":"bytes32"},{"name":"account","type":"address","internalType":"address"}],"outputs":[],"stateMutability":"nonpayable"},{"type":"function","name":"supportsInterface","inputs":[{"name":"interfaceId","type":"bytes4","internalType":"bytes4"}],"outputs":[{"name":"","type":"bool","internalType":"bool"}],"stateMutability":"view"},{"type":"function","name":"upgradeToAndCall","inputs":[{"name":"newImplementation","type":"address","internalType":"address"},{"name":"data","type":"bytes","internalType":"bytes"}],"outputs":[],"stateMutability":"payable"},{"type":"event","name":"Initialized","inputs":[{"name":"version","type":"uint64","indexed":false,"internalType":"uint64"}],"anonymous":false},{"type":"event","name":"RoleAdminChanged","inputs":[{"name":"role","type":"bytes32","indexed":true,"internalType":"bytes32"},{"name":"previousAdminRole","type":"bytes32","indexed":true,"internalType":"bytes32"},{"name":"newAdminRole","type":"bytes32","indexed":true,"internalType":"bytes32"}],"anonymous":false},{"type":"event","name":"RoleGranted","inputs":[{"name":"role","type":"bytes32","indexed":true,"internalType":"bytes32"},{"name":"account","type":"address","indexed":true,"internalType":"address"},{"name":"sender","type":"address","indexed":true,"internalType":"address"}],"anonymous":false},{"type":"event","name":"RoleRevoked","inputs":[{"name":"role","type":"bytes32","indexed":true,"internalType":"bytes32"},{"name":"account","type":"address","indexed":true,"internalType":"address"},{"name":"sender","type":"address","indexed":true,"internalType":"address"}],"anonymous":false},{"type":"event","name":"Upgraded","inputs":[{"name":"implementation","type":"address","indexed":true,"internalType":"address"}],"anonymous":false},{"type":"error","name":"AccessControlBadConfirmation","inputs":[]},{"type":"error","name":"AccessControlUnauthorizedAccount","inputs":[{"name":"account","type":"address","internalType":"address"},{"name":"neededRole","type":"bytes32","internalType":"bytes32"}]},{"type":"error","name":"AddressEmptyCode","inputs":[{"name":"target","type":"address","internalType":"address"}]},{"type":"error","name":"ERC1967InvalidImplementation","inputs":[{"name":"implementation","type":"address","internalType":"address"}]},{"type":"error","name":"ERC1967NonPayable","inputs":[]},{"type":"error","name":"FailedInnerCall","inputs":[]},{"type":"error","name":"InvalidInitialization","inputs":[]},{"type":"error","name":"NotInitializing","inputs":[]},{"type":"error","name":"UUPSUnauthorizedCallContext","inputs":[]},{"type":"error","name":"UUPSUnsupportedProxiableUUID","inputs":[{"name":"slot","type":"bytes32","internalType":"bytes32"}]}],"bytecode":{"object":"0x60a0604052306080523480156012575f80fd5b50608051610bd96100395f395f8181610582015281816105ab01526106f30152610bd95ff3fe60806040526004361061009a575f3560e01c806352d1902d1161006257806352d1902d146101525780638129fc1c1461016657806391d148541461017a578063a217fddf14610199578063ad3cb1cc146101ac578063d547741f146101e9575f80fd5b806301ffc9a71461009e578063248a9ca3146100d25780632f2ff15d146100ff57806336568abe146101205780634f1ef2861461013f575b5f80fd5b3480156100a9575f80fd5b506100bd6100b83660046109a6565b610208565b60405190151581526020015b60405180910390f35b3480156100dd575f80fd5b506100f16100ec3660046109cd565b61023e565b6040519081526020016100c9565b34801561010a575f80fd5b5061011e6101193660046109ff565b61025e565b005b34801561012b575f80fd5b5061011e61013a3660046109ff565b610280565b61011e61014d366004610a3d565b6102b8565b34801561015d575f80fd5b506100f16102d7565b348015610171575f80fd5b5061011e6102f2565b348015610185575f80fd5b506100bd6101943660046109ff565b6103fe565b3480156101a4575f80fd5b506100f15f81565b3480156101b7575f80fd5b506101dc604051806040016040528060058152602001640352e302e360dc1b81525081565b6040516100c99190610b01565b3480156101f4575f80fd5b5061011e6102033660046109ff565b610434565b5f6001600160e01b03198216637965db0b60e01b148061023857506301ffc9a760e01b6001600160e01b03198316145b92915050565b5f9081525f80516020610b84833981519152602052604090206001015490565b6102678261023e565b61027081610450565b61027a838361045d565b50505050565b6001600160a01b03811633146102a95760405163334bd91960e11b815260040160405180910390fd5b6102b382826104fe565b505050565b6102c0610577565b6102c98261061d565b6102d38282610627565b5050565b5f6102e06106e8565b505f80516020610b6483398151915290565b7ff0c57e16840df040f15088dc2f81fe391c3923bec73e23a9662efc9c229c6a008054600160401b810460ff16159067ffffffffffffffff165f811580156103375750825b90505f8267ffffffffffffffff1660011480156103535750303b155b905081158015610361575080155b1561037f5760405163f92ee8a960e01b815260040160405180910390fd5b845467ffffffffffffffff1916600117855583156103a957845460ff60401b1916600160401b1785555b6103b1610731565b83156103f757845460ff60401b19168555604051600181527fc7f505b2f371ae2175ee4913f4499e1f2633a7b5936321eed1cdaeb6115181d29060200160405180910390a15b5050505050565b5f9182525f80516020610b84833981519152602090815260408084206001600160a01b0393909316845291905290205460ff1690565b61043d8261023e565b61044681610450565b61027a83836104fe565b61045a8133610741565b50565b5f5f80516020610b8483398151915261047684846103fe565b6104f5575f848152602082815260408083206001600160a01b03871684529091529020805460ff191660011790556104ab3390565b6001600160a01b0316836001600160a01b0316857f2f8788117e7eff1d82e926ec794901d17c78024a50270940304540a733656f0d60405160405180910390a46001915050610238565b5f915050610238565b5f5f80516020610b8483398151915261051784846103fe565b156104f5575f848152602082815260408083206001600160a01b0387168085529252808320805460ff1916905551339287917ff6391f5c32d9c69d2a47ea670b442974b53935d1edc7fd64eb21e047a839171b9190a46001915050610238565b306001600160a01b037f00000000000000000000000000000000000000000000000000000000000000001614806105fd57507f00000000000000000000000000000000000000000000000000000000000000006001600160a01b03166105f15f80516020610b64833981519152546001600160a01b031690565b6001600160a01b031614155b1561061b5760405163703e46dd60e11b815260040160405180910390fd5b565b5f6102d381610450565b816001600160a01b03166352d1902d6040518163ffffffff1660e01b8152600401602060405180830381865afa925050508015610681575060408051601f3d908101601f1916820190925261067e91810190610b36565b60015b6106ae57604051634c9c8ce360e01b81526001600160a01b03831660048201526024015b60405180910390fd5b5f80516020610b6483398151915281146106de57604051632a87526960e21b8152600481018290526024016106a5565b6102b3838361077a565b306001600160a01b037f0000000000000000000000000000000000000000000000000000000000000000161461061b5760405163703e46dd60e11b815260040160405180910390fd5b6107396107cf565b61061b610818565b61074b82826103fe565b6102d35760405163e2517d3f60e01b81526001600160a01b0382166004820152602481018390526044016106a5565b6107838261082a565b6040516001600160a01b038316907fbc7cd75a20ee27fd9adebab32041f755214dbc6bffa90cc0225b39da2e5c2d3b905f90a28051156107c7576102b3828261088d565b6102d36108ff565b7ff0c57e16840df040f15088dc2f81fe391c3923bec73e23a9662efc9c229c6a0054600160401b900460ff1661061b57604051631afcd79f60e31b815260040160405180910390fd5b6108206107cf565b61045a5f3361045d565b806001600160a01b03163b5f0361085f57604051634c9c8ce360e01b81526001600160a01b03821660048201526024016106a5565b5f80516020610b6483398151915280546001600160a01b0319166001600160a01b0392909216919091179055565b60605f80846001600160a01b0316846040516108a99190610b4d565b5f60405180830381855af49150503d805f81146108e1576040519150601f19603f3d011682016040523d82523d5f602084013e6108e6565b606091505b50915091506108f685838361091e565b95945050505050565b341561061b5760405163b398979f60e01b815260040160405180910390fd5b6060826109335761092e8261097d565b610976565b815115801561094a57506001600160a01b0384163b155b1561097357604051639996b31560e01b81526001600160a01b03851660048201526024016106a5565b50805b9392505050565b80511561098d5780518082602001fd5b604051630a12f52160e11b815260040160405180910390fd5b5f602082840312156109b6575f80fd5b81356001600160e01b031981168114610976575f80fd5b5f602082840312156109dd575f80fd5b5035919050565b80356001600160a01b03811681146109fa575f80fd5b919050565b5f8060408385031215610a10575f80fd5b82359150610a20602084016109e4565b90509250929050565b634e487b7160e01b5f52604160045260245ffd5b5f8060408385031215610a4e575f80fd5b610a57836109e4565b9150602083013567ffffffffffffffff811115610a72575f80fd5b8301601f81018513610a82575f80fd5b803567ffffffffffffffff811115610a9c57610a9c610a29565b604051601f8201601f19908116603f0116810167ffffffffffffffff81118282101715610acb57610acb610a29565b604052818152828201602001871015610ae2575f80fd5b816020840160208301375f602083830101528093505050509250929050565b602081525f82518060208401528060208501604085015e5f604082850101526040601f19601f83011684010191505092915050565b5f60208284031215610b46575f80fd5b5051919050565b5f82518060208501845e5f92019182525091905056fe360894a13ba1a3210667c828492db98dca3e2076cc3735a920a3ca505d382bbc02dd7bc7dec4dceedda775e58dd541e08a116c6c53815c0bd028192f7b626800a2646970667358221220522c80f135f4b098f4b831d101c5c2d190a80892c51c7e37cfbea2edab8e05d564736f6c634300081a0033","linkReferences":{}},"methodIdentifiers":{"DEFAULT_ADMIN_ROLE()":"a217fddf","UPGRADE_INTERFACE_VERSION()":"ad3cb1cc","getRoleAdmin(bytes32)":"248a9ca3","grantRole(bytes32,address)":"2f2ff15d","hasRole(bytes32,address)":"91d14854","initialize()":"8129fc1c","proxiableUUID()":"52d1902d","renounceRole(bytes32,address)":"36568abe","revokeRole(bytes32,address)":"d547741f","supportsInterface(bytes4)":"01ffc9a7","upgradeToAndCall(address,bytes)":"4f1ef286"},"storageLayout":{"storage":[],"types":{}},"id":107}