{"abi":[{"type":"function","name":"BUYER_ADMIN_ROLE","inputs":[],"outputs":[{"name":"","type":"bytes32","internalType":"bytes32"}],"stateMutability":"view"},{"type":"function","name":"BUYER_ROLE","inputs":[],"outputs":[{"name":"","type":"bytes32","internalType":"bytes32"}],"stateMutability":"view"},{"type":"function","name":"DEFAULT_ADMIN_ROLE","inputs":[],"outputs":[{"name":"","type":"bytes32","internalType":"bytes32"}],"stateMutability":"view"},{"type":"function","name":"MINTER_ADMIN_ROLE","inputs":[],"outputs":[{"name":"","type":"bytes32","internalType":"bytes32"}],"stateMutability":"view"},{"type":"function","name":"MINTER_ROLE","inputs":[],"outputs":[{"name":"","type":"bytes32","internalType":"bytes32"}],"stateMutability":"view"},{"type":"function","name":"MINT_LOCKER_ADMIN_ROLE","inputs":[],"outputs":[{"name":"","type":"bytes32","internalType":"bytes32"}],"stateMutability":"view"},{"type":"function","name":"MINT_LOCKER_ROLE","inputs":[],"outputs":[{"name":"","type":"bytes32","internalType":"bytes32"}],"stateMutability":"view"},{"type":"function","name":"TRANSFER_SINK_ADMIN_ROLE","inputs":[],"outputs":[{"name":"","type":"bytes32","internalType":"bytes32"}],"stateMutability":"view"},{"type":"function","name":"TRANSFER_SINK_ROLE","inputs":[],"outputs":[{"name":"","type":"bytes32","internalType":"bytes32"}],"stateMutability":"view"},{"type":"function","name":"UPGRADE_INTERFACE_VERSION","inputs":[],"outputs":[{"name":"","type":"string","internalType":"string"}],"stateMutability":"view"},{"type":"function","name":"allowance","inputs":[{"name":"owner","type":"address","internalType":"address"},{"name":"spender","type":"address","internalType":"address"}],"outputs":[{"name":"","type":"uint256","internalType":"uint256"}],"stateMutability":"view"},{"type":"function","name":"approve","inputs":[{"name":"spender","type":"address","internalType":"address"},{"name":"amount","type":"uint256","internalType":"uint256"}],"outputs":[{"name":"","type":"bool","internalType":"bool"}],"stateMutability":"nonpayable"},{"type":"function","name":"balanceOf","inputs":[{"name":"account","type":"address","internalType":"address"}],"outputs":[{"name":"","type":"uint256","internalType":"uint256"}],"stateMutability":"view"},{"type":"function","name":"balanceOfLocked","inputs":[{"name":"account","type":"address","internalType":"address"}],"outputs":[{"name":"","type":"uint256","internalType":"uint256"}],"stateMutability":"view"},{"type":"function","name":"buyCustodialToken","inputs":[{"name":"account","type":"address","internalType":"address"},{"name":"amount","type":"uint256","internalType":"uint256"}],"outputs":[],"stateMutability":"nonpayable"},{"type":"function","name":"buyCustodialTokenFrom","inputs":[{"name":"buyer","type":"address","internalType":"address"},{"name":"account","type":"address","internalType":"address"},{"name":"amount","type":"uint256","internalType":"uint256"}],"outputs":[],"stateMutability":"nonpayable"},{"type":"function","name":"decimals","inputs":[],"outputs":[{"name":"","type":"uint8","internalType":"uint8"}],"stateMutability":"view"},{"type":"function","name":"getRoleAdmin","inputs":[{"name":"role","type":"bytes32","internalType":"bytes32"}],"outputs":[{"name":"","type":"bytes32","internalType":"bytes32"}],"stateMutability":"view"},{"type":"function","name":"grantBuyerRole","inputs":[{"name":"account","type":"address","internalType":"address"}],"outputs":[],"stateMutability":"nonpayable"},{"type":"function","name":"grantMinterRole","inputs":[{"name":"account","type":"address","internalType":"address"}],"outputs":[],"stateMutability":"nonpayable"},{"type":"function","name":"grantRole","inputs":[{"name":"role","type":"bytes32","internalType":"bytes32"},{"name":"account","type":"address","internalType":"address"}],"outputs":[],"stateMutability":"nonpayable"},{"type":"function","name":"grantTransferSinkRole","inputs":[{"name":"account","type":"address","internalType":"address"}],"outputs":[],"stateMutability":"nonpayable"},{"type":"function","name":"hasMinterRole","inputs":[{"name":"account","type":"address","internalType":"address"}],"outputs":[{"name":"","type":"bool","internalType":"bool"}],"stateMutability":"view"},{"type":"function","name":"hasRole","inputs":[{"name":"role","type":"bytes32","internalType":"bytes32"},{"name":"account","type":"address","internalType":"address"}],"outputs":[{"name":"","type":"bool","internalType":"bool"}],"stateMutability":"view"},{"type":"function","name":"initialize","inputs":[{"name":"name","type":"string","internalType":"string"},{"name":"symbol","type":"string","internalType":"string"},{"name":"_underlyingToken","type":"address","internalType":"contract IMintableToken"}],"outputs":[],"stateMutability":"nonpayable"},{"type":"function","name":"initialize","inputs":[{"name":"name","type":"string","internalType":"string"},{"name":"symbol","type":"string","internalType":"string"}],"outputs":[],"stateMutability":"nonpayable"},{"type":"function","name":"initialize","inputs":[{"name":"_underlyingToken","type":"address","internalType":"contract IMintableToken"}],"outputs":[],"stateMutability":"nonpayable"},{"type":"function","name":"locks","inputs":[{"name":"","type":"address","internalType":"address"},{"name":"","type":"uint256","internalType":"uint256"}],"outputs":[{"name":"amount","type":"uint256","internalType":"uint256"},{"name":"releaseTime","type":"uint256","internalType":"uint256"}],"stateMutability":"view"},{"type":"function","name":"mint","inputs":[{"name":"account","type":"address","internalType":"address"},{"name":"amount","type":"uint256","internalType":"uint256"}],"outputs":[],"stateMutability":"nonpayable"},{"type":"function","name":"mintAndLock","inputs":[{"name":"addresses","type":"address[]","internalType":"address[]"},{"name":"mintAmounts","type":"uint256[]","internalType":"uint256[]"},{"name":"lockAmounts","type":"uint256[]","internalType":"uint256[]"},{"name":"lockTimes","type":"uint256[]","internalType":"uint256[]"}],"outputs":[],"stateMutability":"nonpayable"},{"type":"function","name":"name","inputs":[],"outputs":[{"name":"","type":"string","internalType":"string"}],"stateMutability":"view"},{"type":"function","name":"proxiableUUID","inputs":[],"outputs":[{"name":"","type":"bytes32","internalType":"bytes32"}],"stateMutability":"view"},{"type":"function","name":"release","inputs":[],"outputs":[],"stateMutability":"nonpayable"},{"type":"function","name":"renounceRole","inputs":[{"name":"role","type":"bytes32","internalType":"bytes32"},{"name":"callerConfirmation","type":"address","internalType":"address"}],"outputs":[],"stateMutability":"nonpayable"},{"type":"function","name":"revokeBuyerRole","inputs":[{"name":"account","type":"address","internalType":"address"}],"outputs":[],"stateMutability":"nonpayable"},{"type":"function","name":"revokeMinterAdminRole","inputs":[{"name":"account","type":"address","internalType":"address"}],"outputs":[],"stateMutability":"nonpayable"},{"type":"function","name":"revokeMinterRole","inputs":[{"name":"account","type":"address","internalType":"address"}],"outputs":[],"stateMutability":"nonpayable"},{"type":"function","name":"revokeRole","inputs":[{"name":"role","type":"bytes32","internalType":"bytes32"},{"name":"account","type":"address","internalType":"address"}],"outputs":[],"stateMutability":"nonpayable"},{"type":"function","name":"revokeTransferSinkRole","inputs":[{"name":"account","type":"address","internalType":"address"}],"outputs":[],"stateMutability":"nonpayable"},{"type":"function","name":"supportsInterface","inputs":[{"name":"interfaceId","type":"bytes4","internalType":"bytes4"}],"outputs":[{"name":"","type":"bool","internalType":"bool"}],"stateMutability":"view"},{"type":"function","name":"symbol","inputs":[],"outputs":[{"name":"","type":"string","internalType":"string"}],"stateMutability":"view"},{"type":"function","name":"totalSupply","inputs":[],"outputs":[{"name":"","type":"uint256","internalType":"uint256"}],"stateMutability":"view"},{"type":"function","name":"transfer","inputs":[{"name":"to","type":"address","internalType":"address"},{"name":"amount","type":"uint256","internalType":"uint256"}],"outputs":[{"name":"","type":"bool","internalType":"bool"}],"stateMutability":"nonpayable"},{"type":"function","name":"transferFrom","inputs":[{"name":"from","type":"address","internalType":"address"},{"name":"to","type":"address","internalType":"address"},{"name":"amount","type":"uint256","internalType":"uint256"}],"outputs":[{"name":"","type":"bool","internalType":"bool"}],"stateMutability":"nonpayable"},{"type":"function","name":"underlyingToken","inputs":[],"outputs":[{"name":"","type":"address","internalType":"contract IMintableToken"}],"stateMutability":"view"},{"type":"function","name":"upgradeToAndCall","inputs":[{"name":"newImplementation","type":"address","internalType":"address"},{"name":"data","type":"bytes","internalType":"bytes"}],"outputs":[],"stateMutability":"payable"},{"type":"event","name":"Approval","inputs":[{"name":"owner","type":"address","indexed":true,"internalType":"address"},{"name":"spender","type":"address","indexed":true,"internalType":"address"},{"name":"value","type":"uint256","indexed":false,"internalType":"uint256"}],"anonymous":false},{"type":"event","name":"Initialized","inputs":[{"name":"version","type":"uint64","indexed":false,"internalType":"uint64"}],"anonymous":false},{"type":"event","name":"RoleAdminChanged","inputs":[{"name":"role","type":"bytes32","indexed":true,"internalType":"bytes32"},{"name":"previousAdminRole","type":"bytes32","indexed":true,"internalType":"bytes32"},{"name":"newAdminRole","type":"bytes32","indexed":true,"internalType":"bytes32"}],"anonymous":false},{"type":"event","name":"RoleGranted","inputs":[{"name":"role","type":"bytes32","indexed":true,"internalType":"bytes32"},{"name":"account","type":"address","indexed":true,"internalType":"address"},{"name":"sender","type":"address","indexed":true,"internalType":"address"}],"anonymous":false},{"type":"event","name":"RoleRevoked","inputs":[{"name":"role","type":"bytes32","indexed":true,"internalType":"bytes32"},{"name":"account","type":"address","indexed":true,"internalType":"address"},{"name":"sender","type":"address","indexed":true,"internalType":"address"}],"anonymous":false},{"type":"event","name":"Transfer","inputs":[{"name":"from","type":"address","indexed":true,"internalType":"address"},{"name":"to","type":"address","indexed":true,"internalType":"address"},{"name":"value","type":"uint256","indexed":false,"internalType":"uint256"}],"anonymous":false},{"type":"event","name":"Upgraded","inputs":[{"name":"implementation","type":"address","indexed":true,"internalType":"address"}],"anonymous":false},{"type":"error","name":"AccessControlBadConfirmation","inputs":[]},{"type":"error","name":"AccessControlUnauthorizedAccount","inputs":[{"name":"account","type":"address","internalType":"address"},{"name":"neededRole","type":"bytes32","internalType":"bytes32"}]},{"type":"error","name":"AddressEmptyCode","inputs":[{"name":"target","type":"address","internalType":"address"}]},{"type":"error","name":"AddressesAndLockLengthMismatch","inputs":[]},{"type":"error","name":"AddressesAndMintLengthMismatch","inputs":[]},{"type":"error","name":"AddressesAndTimeLengthMismatch","inputs":[]},{"type":"error","name":"ERC1967InvalidImplementation","inputs":[{"name":"implementation","type":"address","internalType":"address"}]},{"type":"error","name":"ERC1967NonPayable","inputs":[]},{"type":"error","name":"ERC20InsufficientAllowance","inputs":[{"name":"spender","type":"address","internalType":"address"},{"name":"allowance","type":"uint256","internalType":"uint256"},{"name":"needed","type":"uint256","internalType":"uint256"}]},{"type":"error","name":"ERC20InsufficientBalance","inputs":[{"name":"sender","type":"address","internalType":"address"},{"name":"balance","type":"uint256","internalType":"uint256"},{"name":"needed","type":"uint256","internalType":"uint256"}]},{"type":"error","name":"ERC20InvalidApprover","inputs":[{"name":"approver","type":"address","internalType":"address"}]},{"type":"error","name":"ERC20InvalidReceiver","inputs":[{"name":"receiver","type":"address","internalType":"address"}]},{"type":"error","name":"ERC20InvalidSender","inputs":[{"name":"sender","type":"address","internalType":"address"}]},{"type":"error","name":"ERC20InvalidSpender","inputs":[{"name":"spender","type":"address","internalType":"address"}]},{"type":"error","name":"FailedInnerCall","inputs":[]},{"type":"error","name":"InvalidInitialization","inputs":[]},{"type":"error","name":"NotInitializing","inputs":[]},{"type":"error","name":"RestrictedToBuyerRole","inputs":[]},{"type":"error","name":"RestrictedToTransferSinkRole","inputs":[]},{"type":"error","name":"UUPSUnauthorizedCallContext","inputs":[]},{"type":"error","name":"UUPSUnsupportedProxiableUUID","inputs":[{"name":"slot","type":"bytes32","internalType":"bytes32"}]}],"bytecode":{"object":"0x60a0604052306080523480156012575f80fd5b5060805161295f6100395f395f8181611a2b01528181611a540152611b97015261295f5ff3fe608060405260043610610275575f3560e01c806370a082311161014a578063a22cf3d9116100be578063c4652d8311610078578063c4652d83146107b9578063c4d66de8146107d8578063d5391393146107f7578063d547741f14610817578063dd62ed3e14610836578063e960bb4814610855575f80fd5b8063a22cf3d9146106c4578063a9059cbb146106e4578063ab18e3b514610703578063ad3cb1cc14610722578063b2904ca114610752578063b425f80214610785575f80fd5b806391d148541161010f57806391d148541461061f57806395d89b411461063e578063964c1aed1461065257806397125aa114610671578063a0627fb414610691578063a217fddf146106b1575f80fd5b806370a082311461057a5780637a01a1da146105995780637ada395b146105b957806382b48243146105d857806386d1a69f1461060b575f80fd5b806323b872dd116101ec5780633dd1eb61116101a65780633dd1eb61146104d757806340c10f19146104f65780634cd88b76146105155780634f1ef2861461053457806352d1902d1461054757806369e2f0fb1461055b575f80fd5b806323b872dd1461040a578063248a9ca3146104295780632495a599146104485780632f2ff15d1461047e578063313ce5671461049d57806336568abe146104b8575f80fd5b8063099db0171161023d578063099db0171461032d5780631107f10d1461034c5780631339324b1461036b57806318160ddd146103995780631881ec4d146103cc57806318950c71146103eb575f80fd5b806301f92c411461027957806301ffc9a71461029a57806306fdde03146102ce578063077f224a146102ef578063095ea7b31461030e575b5f80fd5b348015610284575f80fd5b5061029861029336600461220a565b610874565b005b3480156102a5575f80fd5b506102b96102b43660046122d4565b610a95565b60405190151581526020015b60405180910390f35b3480156102d9575f80fd5b506102e2610acb565b6040516102c591906122fb565b3480156102fa575f80fd5b506102986103093660046123eb565b610b8b565b348015610319575f80fd5b506102b9610328366004612461565b610cc3565b348015610338575f80fd5b506102b961034736600461248b565b610cd5565b348015610357575f80fd5b5061029861036636600461248b565b610ced565b348015610376575f80fd5b5061038b5f8051602061284a83398151915281565b6040519081526020016102c5565b3480156103a4575f80fd5b507f52c63247e1f47db19d5ce0460030c497f067ca4cebf71ba98eeadabe20bace025461038b565b3480156103d7575f80fd5b506102986103e636600461248b565b610d20565b3480156103f6575f80fd5b50610298610405366004612461565b610d4e565b348015610415575f80fd5b506102b96104243660046124a6565b610d5d565b348015610434575f80fd5b5061038b6104433660046124e4565b610d71565b348015610453575f80fd5b505f54610466906001600160a01b031681565b6040516001600160a01b0390911681526020016102c5565b348015610489575f80fd5b506102986104983660046124fb565b610d91565b3480156104a8575f80fd5b50604051601281526020016102c5565b3480156104c3575f80fd5b506102986104d23660046124fb565b610db3565b3480156104e2575f80fd5b506102986104f136600461248b565b610de6565b348015610501575f80fd5b50610298610510366004612461565b610e14565b348015610520575f80fd5b5061029861052f366004612529565b610e80565b61029861054236600461258c565b610f8e565b348015610552575f80fd5b5061038b610fa9565b348015610566575f80fd5b5061029861057536600461248b565b610fc4565b348015610585575f80fd5b5061038b61059436600461248b565b610ff2565b3480156105a4575f80fd5b5061038b5f805160206128aa83398151915281565b3480156105c4575f80fd5b506102986105d336600461248b565b611018565b3480156105e3575f80fd5b5061038b7f90dcf97b9b11425348f5c1cfd60547be2536fb76ed0dca238e111ebbf9e32b4a81565b348015610616575f80fd5b50610298611046565b34801561062a575f80fd5b506102b96106393660046124fb565b611245565b348015610649575f80fd5b506102e261127b565b34801561065d575f80fd5b5061029861066c36600461248b565b6112b9565b34801561067c575f80fd5b5061038b5f805160206128ea83398151915281565b34801561069c575f80fd5b5061038b5f8051602061288a83398151915281565b3480156106bc575f80fd5b5061038b5f81565b3480156106cf575f80fd5b5061038b5f8051602061280a83398151915281565b3480156106ef575f80fd5b506102b96106fe366004612461565b6112e7565b34801561070e575f80fd5b5061029861071d36600461248b565b6112f2565b34801561072d575f80fd5b506102e2604051806040016040528060058152602001640352e302e360dc1b81525081565b34801561075d575f80fd5b5061038b7fa5f90ca39506de1f57678da846801e11dd7aeda8d762afcf32a75a8634c61c8581565b348015610790575f80fd5b506107a461079f366004612461565b611320565b604080519283526020830191909152016102c5565b3480156107c4575f80fd5b506102986107d33660046124a6565b611358565b3480156107e3575f80fd5b506102986107f236600461248b565b611410565b348015610802575f80fd5b5061038b5f805160206128ca83398151915281565b348015610822575f80fd5b506102986108313660046124fb565b611472565b348015610841575f80fd5b5061038b6108503660046125e1565b61148e565b348015610860575f80fd5b5061038b61086f36600461248b565b6114d7565b7fa5f90ca39506de1f57678da846801e11dd7aeda8d762afcf32a75a8634c61c8561089e8161159d565b8786146108be5760405163284c60d160e21b815260040160405180910390fd5b8784146108de576040516314de89e560e31b815260040160405180910390fd5b8782146108fe5760405163bca2dc9960e01b815260040160405180910390fd5b5f5b88811015610a89575f546001600160a01b03166340c10f19308a8a8581811061092b5761092b61260d565b6040516001600160e01b031960e087901b1681526001600160a01b03909416600485015260200291909101356024830152506044015f604051808303815f87803b158015610977575f80fd5b505af1158015610989573d5f803e3d5ffd5b505050506109d58a8a838181106109a2576109a261260d565b90506020020160208101906109b7919061248b565b8989848181106109c9576109c961260d565b905060200201356115a7565b610a818a8a838181106109ea576109ea61260d565b90506020020160208101906109ff919061248b565b878784818110610a1157610a1161260d565b90506020020135868685818110610a2a57610a2a61260d565b905060200201356001600160a01b039092165f908152603360209081526040808320815180830190925293815280820194855283546001818101865594845291909220915160029091029091019081559151910155565b600101610900565b50505050505050505050565b5f6001600160e01b03198216637965db0b60e01b1480610ac557506301ffc9a760e01b6001600160e01b03198316145b92915050565b7f52c63247e1f47db19d5ce0460030c497f067ca4cebf71ba98eeadabe20bace0380546060915f8051602061282a83398151915291610b0990612621565b80601f0160208091040260200160405190810160405280929190818152602001828054610b3590612621565b8015610b805780601f10610b5757610100808354040283529160200191610b80565b820191905f5260205f20905b815481529060010190602001808311610b6357829003601f168201915b505050505091505090565b7ff0c57e16840df040f15088dc2f81fe391c3923bec73e23a9662efc9c229c6a008054600160401b810460ff1615906001600160401b03165f81158015610bcf5750825b90505f826001600160401b03166001148015610bea5750303b155b905081158015610bf8575080155b15610c165760405163f92ee8a960e01b815260040160405180910390fd5b845467ffffffffffffffff191660011785558315610c4057845460ff60401b1916600160401b1785555b610c4a88886115e0565b610c52611630565b610c5a611642565b610c6386611679565b610c6b6116a2565b610c736116ff565b8315610cb957845460ff60401b19168555604051600181527fc7f505b2f371ae2175ee4913f4499e1f2633a7b5936321eed1cdaeb6115181d29060200160405180910390a15b5050505050505050565b5f610cce8383611766565b9392505050565b5f610ac55f805160206128ca83398151915283611245565b5f805160206128ea833981519152610d048161159d565b610d1b5f805160206128aa8339815191528361180f565b505050565b5f805160206128ea833981519152610d378161159d565b610d1b5f805160206128aa833981519152836118b0565b610d59338383611358565b5050565b5f610d69848484611929565b949350505050565b5f9081525f8051602061290a833981519152602052604090206001015490565b610d9a82610d71565b610da38161159d565b610dad838361180f565b50505050565b6001600160a01b0381163314610ddc5760405163334bd91960e11b815260040160405180910390fd5b610d1b82826118b0565b5f8051602061284a833981519152610dfd8161159d565b610d1b5f805160206128ca8339815191528361180f565b610e1e82826119dd565b5f546040516340c10f1960e01b8152306004820152602481018390526001600160a01b03909116906340c10f19906044015f604051808303815f87803b158015610e66575f80fd5b505af1158015610e78573d5f803e3d5ffd5b505050505050565b7ff0c57e16840df040f15088dc2f81fe391c3923bec73e23a9662efc9c229c6a008054600160401b810460ff1615906001600160401b03165f81158015610ec45750825b90505f826001600160401b03166001148015610edf5750303b155b905081158015610eed575080155b15610f0b5760405163f92ee8a960e01b815260040160405180910390fd5b845467ffffffffffffffff191660011785558315610f3557845460ff60401b1916600160401b1785555b610f3f87876119fe565b8315610f8557845460ff60401b19168555604051600181527fc7f505b2f371ae2175ee4913f4499e1f2633a7b5936321eed1cdaeb6115181d29060200160405180910390a15b50505050505050565b610f96611a20565b610f9f82611ac6565b610d598282611ad0565b5f610fb2611b8c565b505f8051602061286a83398151915290565b5f8051602061284a833981519152610fdb8161159d565b610d1b5f805160206128ca833981519152836118b0565b6001600160a01b03165f9081525f8051602061282a833981519152602052604090205490565b5f8051602061280a83398151915261102f8161159d565b610d1b5f8051602061288a833981519152836118b0565b335f908152603360205260408120815b81548110156111d3578181815481106110715761107161260d565b905f5260205f209060020201600101544211156111c1575f6110bb83838154811061109e5761109e61260d565b905f5260205f2090600202015f01546110b633610ff2565b611bd5565b90506110c8333083611bea565b6110d2818561266d565b9350808383815481106110e7576110e761260d565b905f5260205f2090600202015f015f8282546111039190612680565b9250508190555082828154811061111c5761111c61260d565b905f5260205f2090600202015f01545f036111bf578254839061114190600190612680565b815481106111515761115161260d565b905f5260205f20906002020183838154811061116f5761116f61260d565b5f91825260209091208254600290920201908155600191820154910155825483908061119d5761119d612693565b5f8281526020812060025f199093019283020181815560010155905550611056565b505b806111cb816126a7565b915050611056565b505f5460405163a9059cbb60e01b8152336004820152602481018490526001600160a01b039091169063a9059cbb906044016020604051808303815f875af1158015611221573d5f803e3d5ffd5b505050506040513d601f19601f82011682018060405250810190610d1b91906126bf565b5f9182525f8051602061290a833981519152602090815260408084206001600160a01b0393909316845291905290205460ff1690565b7f52c63247e1f47db19d5ce0460030c497f067ca4cebf71ba98eeadabe20bace0480546060915f8051602061282a83398151915291610b0990612621565b5f8051602061284a8339815191526112d08161159d565b610d1b5f8051602061284a833981519152836118b0565b5f610cce8383611c47565b5f8051602061280a8339815191526113098161159d565b610d1b5f8051602061288a8339815191528361180f565b6033602052815f5260405f208181548110611339575f80fd5b5f91825260209091206002909102018054600190910154909250905082565b61136f5f805160206128aa83398151915284611245565b61138c576040516339a7121160e21b815260040160405180910390fd5b5f546040516323b872dd60e01b81526001600160a01b03858116600483015230602483015260448201849052909116906323b872dd906064016020604051808303815f875af11580156113e1573d5f803e3d5ffd5b505050506040513d601f19601f8201168201806040525081019061140591906126bf565b50610d1b82826115a7565b61146f6040518060400160405280601a81526020017f5374616b61626c65204c6f636b6564204d6f766520546f6b656e0000000000008152506040518060400160405280600781526020016673746c4d4f564560c81b81525083610b8b565b50565b61147b82610d71565b6114848161159d565b610dad83836118b0565b6001600160a01b039182165f9081527f52c63247e1f47db19d5ce0460030c497f067ca4cebf71ba98eeadabe20bace016020908152604080832093909416825291909152205490565b6001600160a01b0381165f908152603360209081526040808320805482518185028101850190935280835284938493929190849084015b82821015611551578382905f5260205f2090600202016040518060400160405290815f82015481526020016001820154815250508152602001906001019061150e565b5050505090505f5b8151811015611594578181815181106115745761157461260d565b60200260200101515f01518361158a919061266d565b9250600101611559565b50909392505050565b61146f8133611cbf565b6001600160a01b0382166115d55760405163ec442f0560e01b81525f60048201526024015b60405180910390fd5b610d595f8383611cf8565b6115e8611e31565b5f8051602061282a8339815191527f52c63247e1f47db19d5ce0460030c497f067ca4cebf71ba98eeadabe20bace036116218482612722565b5060048101610dad8382612722565b611638611e31565b61146f5f3361180f565b61164a611e31565b6116615f8051602061284a8339815191523361180f565b5061146f5f805160206128ca8339815191523361180f565b611681611e31565b5f80546001600160a01b0319166001600160a01b0392909216919091179055565b6116aa611e31565b6116d47f90dcf97b9b11425348f5c1cfd60547be2536fb76ed0dca238e111ebbf9e32b4a3361180f565b5061146f7fa5f90ca39506de1f57678da846801e11dd7aeda8d762afcf32a75a8634c61c853361180f565b611707611e31565b61171e5f8051602061280a8339815191523361180f565b506117365f8051602061288a8339815191523361180f565b5061174e5f805160206128ea8339815191523361180f565b5061146f5f805160206128aa8339815191523361180f565b5f61177e5f8051602061288a83398151915284611245565b61179b5760405163b1e7a99d60e01b815260040160405180910390fd5b5f5460405163095ea7b360e01b81526001600160a01b038581166004830152602482018590529091169063095ea7b3906044015b6020604051808303815f875af11580156117eb573d5f803e3d5ffd5b505050506040513d601f19601f82011682018060405250810190610cce91906126bf565b5f5f8051602061290a8339815191526118288484611245565b6118a7575f848152602082815260408083206001600160a01b03871684529091529020805460ff1916600117905561185d3390565b6001600160a01b0316836001600160a01b0316857f2f8788117e7eff1d82e926ec794901d17c78024a50270940304540a733656f0d60405160405180910390a46001915050610ac5565b5f915050610ac5565b5f5f8051602061290a8339815191526118c98484611245565b156118a7575f848152602082815260408083206001600160a01b0387168085529252808320805460ff1916905551339287917ff6391f5c32d9c69d2a47ea670b442974b53935d1edc7fd64eb21e047a839171b9190a46001915050610ac5565b5f6119415f8051602061288a83398151915284611245565b61195e5760405163b1e7a99d60e01b815260040160405180910390fd5b611969843084611e7a565b505f5460405163a9059cbb60e01b81526001600160a01b038581166004830152602482018590529091169063a9059cbb906044016020604051808303815f875af11580156119b9573d5f803e3d5ffd5b505050506040513d601f19601f82011682018060405250810190610d6991906126bf565b5f805160206128ca8339815191526119f48161159d565b610d1b83836115a7565b611a06611e31565b611a1082826115e0565b611a18611630565b610d59611642565b306001600160a01b037f0000000000000000000000000000000000000000000000000000000000000000161480611aa657507f00000000000000000000000000000000000000000000000000000000000000006001600160a01b0316611a9a5f8051602061286a833981519152546001600160a01b031690565b6001600160a01b031614155b15611ac45760405163703e46dd60e11b815260040160405180910390fd5b565b5f610d598161159d565b816001600160a01b03166352d1902d6040518163ffffffff1660e01b8152600401602060405180830381865afa925050508015611b2a575060408051601f3d908101601f19168201909252611b27918101906127dc565b60015b611b5257604051634c9c8ce360e01b81526001600160a01b03831660048201526024016115cc565b5f8051602061286a8339815191528114611b8257604051632a87526960e21b8152600481018290526024016115cc565b610d1b8383611e9d565b306001600160a01b037f00000000000000000000000000000000000000000000000000000000000000001614611ac45760405163703e46dd60e11b815260040160405180910390fd5b5f818310611be35781610cce565b5090919050565b6001600160a01b038316611c1357604051634b637e8f60e11b81525f60048201526024016115cc565b6001600160a01b038216611c3c5760405163ec442f0560e01b81525f60048201526024016115cc565b610d1b838383611cf8565b5f611c5f5f8051602061288a83398151915284611245565b611c7c5760405163b1e7a99d60e01b815260040160405180910390fd5b611c863083611ef2565b505f5460405163a9059cbb60e01b81526001600160a01b038581166004830152602482018590529091169063a9059cbb906044016117cf565b611cc98282611245565b610d595760405163e2517d3f60e01b81526001600160a01b0382166004820152602481018390526044016115cc565b5f8051602061282a8339815191526001600160a01b038416611d325781816002015f828254611d27919061266d565b90915550611da29050565b6001600160a01b0384165f9081526020829052604090205482811015611d845760405163391434e360e21b81526001600160a01b038616600482015260248101829052604481018490526064016115cc565b6001600160a01b0385165f9081526020839052604090209083900390555b6001600160a01b038316611dc0576002810180548390039055611dde565b6001600160a01b0383165f9081526020829052604090208054830190555b826001600160a01b0316846001600160a01b03167fddf252ad1be2c89b69c2b068fc378daa952ba7f163c4a11628f55a4df523b3ef84604051611e2391815260200190565b60405180910390a350505050565b7ff0c57e16840df040f15088dc2f81fe391c3923bec73e23a9662efc9c229c6a0054600160401b900460ff16611ac457604051631afcd79f60e31b815260040160405180910390fd5b5f33611e87858285611f09565b611e92858585611bea565b506001949350505050565b611ea682611f66565b6040516001600160a01b038316907fbc7cd75a20ee27fd9adebab32041f755214dbc6bffa90cc0225b39da2e5c2d3b905f90a2805115611eea57610d1b8282611fc9565b610d5961203b565b5f33611eff818585611bea565b5060019392505050565b5f611f14848461148e565b90505f198114610dad5781811015611f5857604051637dc7a0d960e11b81526001600160a01b038416600482015260248101829052604481018390526064016115cc565b610dad84848484035f61205a565b806001600160a01b03163b5f03611f9b57604051634c9c8ce360e01b81526001600160a01b03821660048201526024016115cc565b5f8051602061286a83398151915280546001600160a01b0319166001600160a01b0392909216919091179055565b60605f80846001600160a01b031684604051611fe591906127f3565b5f60405180830381855af49150503d805f811461201d576040519150601f19603f3d011682016040523d82523d5f602084013e612022565b606091505b509150915061203285838361213e565b95945050505050565b3415611ac45760405163b398979f60e01b815260040160405180910390fd5b5f8051602061282a8339815191526001600160a01b0385166120915760405163e602df0560e01b81525f60048201526024016115cc565b6001600160a01b0384166120ba57604051634a1406b160e11b81525f60048201526024016115cc565b6001600160a01b038086165f9081526001830160209081526040808320938816835292905220839055811561213757836001600160a01b0316856001600160a01b03167f8c5be1e5ebec7d5bd14f71427d1e84f3dd0314c0f7b2291e5b200ac8c7c3b9258560405161212e91815260200190565b60405180910390a35b5050505050565b6060826121535761214e8261219a565b610cce565b815115801561216a57506001600160a01b0384163b155b1561219357604051639996b31560e01b81526001600160a01b03851660048201526024016115cc565b5080610cce565b8051156121aa5780518082602001fd5b604051630a12f52160e11b815260040160405180910390fd5b5f8083601f8401126121d3575f80fd5b5081356001600160401b038111156121e9575f80fd5b6020830191508360208260051b8501011115612203575f80fd5b9250929050565b5f805f805f805f806080898b031215612221575f80fd5b88356001600160401b03811115612236575f80fd5b6122428b828c016121c3565b90995097505060208901356001600160401b03811115612260575f80fd5b61226c8b828c016121c3565b90975095505060408901356001600160401b0381111561228a575f80fd5b6122968b828c016121c3565b90955093505060608901356001600160401b038111156122b4575f80fd5b6122c08b828c016121c3565b999c989b5096995094979396929594505050565b5f602082840312156122e4575f80fd5b81356001600160e01b031981168114610cce575f80fd5b602081525f82518060208401528060208501604085015e5f604082850101526040601f19601f83011684010191505092915050565b634e487b7160e01b5f52604160045260245ffd5b5f806001600160401b0384111561235d5761235d612330565b50604051601f19601f85018116603f011681018181106001600160401b038211171561238b5761238b612330565b6040528381529050808284018510156123a2575f80fd5b838360208301375f60208583010152509392505050565b5f82601f8301126123c8575f80fd5b610cce83833560208501612344565b6001600160a01b038116811461146f575f80fd5b5f805f606084860312156123fd575f80fd5b83356001600160401b03811115612412575f80fd5b61241e868287016123b9565b93505060208401356001600160401b03811115612439575f80fd5b612445868287016123b9565b9250506040840135612456816123d7565b809150509250925092565b5f8060408385031215612472575f80fd5b823561247d816123d7565b946020939093013593505050565b5f6020828403121561249b575f80fd5b8135610cce816123d7565b5f805f606084860312156124b8575f80fd5b83356124c3816123d7565b925060208401356124d3816123d7565b929592945050506040919091013590565b5f602082840312156124f4575f80fd5b5035919050565b5f806040838503121561250c575f80fd5b82359150602083013561251e816123d7565b809150509250929050565b5f806040838503121561253a575f80fd5b82356001600160401b0381111561254f575f80fd5b61255b858286016123b9565b92505060208301356001600160401b03811115612576575f80fd5b612582858286016123b9565b9150509250929050565b5f806040838503121561259d575f80fd5b82356125a8816123d7565b915060208301356001600160401b038111156125c2575f80fd5b8301601f810185136125d2575f80fd5b61258285823560208401612344565b5f80604083850312156125f2575f80fd5b82356125fd816123d7565b9150602083013561251e816123d7565b634e487b7160e01b5f52603260045260245ffd5b600181811c9082168061263557607f821691505b60208210810361265357634e487b7160e01b5f52602260045260245ffd5b50919050565b634e487b7160e01b5f52601160045260245ffd5b80820180821115610ac557610ac5612659565b81810381811115610ac557610ac5612659565b634e487b7160e01b5f52603160045260245ffd5b5f600182016126b8576126b8612659565b5060010190565b5f602082840312156126cf575f80fd5b81518015158114610cce575f80fd5b601f821115610d1b57805f5260205f20601f840160051c810160208510156127035750805b601f840160051c820191505b81811015612137575f815560010161270f565b81516001600160401b0381111561273b5761273b612330565b61274f816127498454612621565b846126de565b6020601f821160018114612781575f831561276a5750848201515b5f19600385901b1c1916600184901b178455612137565b5f84815260208120601f198516915b828110156127b05787850151825560209485019460019092019101612790565b50848210156127cd57868401515f19600387901b60f8161c191681555b50505050600190811b01905550565b5f602082840312156127ec575f80fd5b5051919050565b5f82518060208501845e5f92019182525091905056fe98d8141e2c04296645d34a278f34ca6c6e1424fe5ffbedc7b06061dc10d00a0852c63247e1f47db19d5ce0460030c497f067ca4cebf71ba98eeadabe20bace0070480ee89cb38eff00b7d23da25713d52ce19c6ed428691d22c58b2f615e3d67360894a13ba1a3210667c828492db98dca3e2076cc3735a920a3ca505d382bbc444ae73ae4e8f834f9e8a0d8b8ee151ba97b373ec32ce79cde326624cd1f7ac5f8cd32ed93fc2f9fc78152a14807c9609af3d99c5fe4dc6b106a801aaddfe90e9f2df0fed2c77648de5860a4cc508cd0818c85b8b8a1ab4ceeef8d981c8956a6768653f6704ac843b6b065b5a40183033cd57fd86d4daa702a91d4b6679857d702dd7bc7dec4dceedda775e58dd541e08a116c6c53815c0bd028192f7b626800a264697066735822122062ec8b03258d4db935ee475119d9238a12fbda3708f5769a170e7aeeaa1cc3c264736f6c634300081a0033","linkReferences":{}},"methodIdentifiers":{"BUYER_ADMIN_ROLE()":"97125aa1","BUYER_ROLE()":"7a01a1da","DEFAULT_ADMIN_ROLE()":"a217fddf","MINTER_ADMIN_ROLE()":"1339324b","MINTER_ROLE()":"d5391393","MINT_LOCKER_ADMIN_ROLE()":"82b48243","MINT_LOCKER_ROLE()":"b2904ca1","TRANSFER_SINK_ADMIN_ROLE()":"a22cf3d9","TRANSFER_SINK_ROLE()":"a0627fb4","UPGRADE_INTERFACE_VERSION()":"ad3cb1cc","allowance(address,address)":"dd62ed3e","approve(address,uint256)":"095ea7b3","balanceOf(address)":"70a08231","balanceOfLocked(address)":"e960bb48","buyCustodialToken(address,uint256)":"18950c71","buyCustodialTokenFrom(address,address,uint256)":"c4652d83","decimals()":"313ce567","getRoleAdmin(bytes32)":"248a9ca3","grantBuyerRole(address)":"1107f10d","grantMinterRole(address)":"3dd1eb61","grantRole(bytes32,address)":"2f2ff15d","grantTransferSinkRole(address)":"ab18e3b5","hasMinterRole(address)":"099db017","hasRole(bytes32,address)":"91d14854","initialize(address)":"c4d66de8","initialize(string,string)":"4cd88b76","initialize(string,string,address)":"077f224a","locks(address,uint256)":"b425f802","mint(address,uint256)":"40c10f19","mintAndLock(address[],uint256[],uint256[],uint256[])":"01f92c41","name()":"06fdde03","proxiableUUID()":"52d1902d","release()":"86d1a69f","renounceRole(bytes32,address)":"36568abe","revokeBuyerRole(address)":"1881ec4d","revokeMinterAdminRole(address)":"964c1aed","revokeMinterRole(address)":"69e2f0fb","revokeRole(bytes32,address)":"d547741f","revokeTransferSinkRole(address)":"7ada395b","supportsInterface(bytes4)":"01ffc9a7","symbol()":"95d89b41","totalSupply()":"18160ddd","transfer(address,uint256)":"a9059cbb","transferFrom(address,address,uint256)":"23b872dd","underlyingToken()":"2495a599","upgradeToAndCall(address,bytes)":"4f1ef286"},"storageLayout":{"storage":[{"astId":56236,"contract":"src/token/stlMoveToken.sol:stlMoveToken","label":"underlyingToken","offset":0,"slot":"0","type":"t_contract(IMintableToken)55962"},{"astId":56240,"contract":"src/token/stlMoveToken.sol:stlMoveToken","label":"__gap","offset":0,"slot":"1","type":"t_array(t_uint256)50_storage"},{"astId":57004,"contract":"src/token/stlMoveToken.sol:stlMoveToken","label":"locks","offset":0,"slot":"51","type":"t_mapping(t_address,t_array(t_struct(Lock)56998_storage)dyn_storage)"}],"types":{"t_address":{"encoding":"inplace","label":"address","numberOfBytes":"20"},"t_array(t_struct(Lock)56998_storage)dyn_storage":{"encoding":"dynamic_array","label":"struct LockedTokenStorage.Lock[]","numberOfBytes":"32","base":"t_struct(Lock)56998_storage"},"t_array(t_uint256)50_storage":{"encoding":"inplace","label":"uint256[50]","numberOfBytes":"1600","base":"t_uint256"},"t_contract(IMintableToken)55962":{"encoding":"inplace","label":"contract IMintableToken","numberOfBytes":"20"},"t_mapping(t_address,t_array(t_struct(Lock)56998_storage)dyn_storage)":{"encoding":"mapping","key":"t_address","label":"mapping(address => struct LockedTokenStorage.Lock[])","numberOfBytes":"32","value":"t_array(t_struct(Lock)56998_storage)dyn_storage"},"t_struct(Lock)56998_storage":{"encoding":"inplace","label":"struct LockedTokenStorage.Lock","numberOfBytes":"64","members":[{"astId":56995,"contract":"src/token/stlMoveToken.sol:stlMoveToken","label":"amount","offset":0,"slot":"0","type":"t_uint256"},{"astId":56997,"contract":"src/token/stlMoveToken.sol:stlMoveToken","label":"releaseTime","offset":0,"slot":"1","type":"t_uint256"}]},"t_uint256":{"encoding":"inplace","label":"uint256","numberOfBytes":"32"}}},"id":119}