{"abi":[{"type":"function","name":"BUYER_ADMIN_ROLE","inputs":[],"outputs":[{"name":"","type":"bytes32","internalType":"bytes32"}],"stateMutability":"view"},{"type":"function","name":"BUYER_ROLE","inputs":[],"outputs":[{"name":"","type":"bytes32","internalType":"bytes32"}],"stateMutability":"view"},{"type":"function","name":"DEFAULT_ADMIN_ROLE","inputs":[],"outputs":[{"name":"","type":"bytes32","internalType":"bytes32"}],"stateMutability":"view"},{"type":"function","name":"MINTER_ADMIN_ROLE","inputs":[],"outputs":[{"name":"","type":"bytes32","internalType":"bytes32"}],"stateMutability":"view"},{"type":"function","name":"MINTER_ROLE","inputs":[],"outputs":[{"name":"","type":"bytes32","internalType":"bytes32"}],"stateMutability":"view"},{"type":"function","name":"TRANSFER_SINK_ADMIN_ROLE","inputs":[],"outputs":[{"name":"","type":"bytes32","internalType":"bytes32"}],"stateMutability":"view"},{"type":"function","name":"TRANSFER_SINK_ROLE","inputs":[],"outputs":[{"name":"","type":"bytes32","internalType":"bytes32"}],"stateMutability":"view"},{"type":"function","name":"UPGRADE_INTERFACE_VERSION","inputs":[],"outputs":[{"name":"","type":"string","internalType":"string"}],"stateMutability":"view"},{"type":"function","name":"allowance","inputs":[{"name":"owner","type":"address","internalType":"address"},{"name":"spender","type":"address","internalType":"address"}],"outputs":[{"name":"","type":"uint256","internalType":"uint256"}],"stateMutability":"view"},{"type":"function","name":"approve","inputs":[{"name":"spender","type":"address","internalType":"address"},{"name":"amount","type":"uint256","internalType":"uint256"}],"outputs":[{"name":"","type":"bool","internalType":"bool"}],"stateMutability":"nonpayable"},{"type":"function","name":"balanceOf","inputs":[{"name":"account","type":"address","internalType":"address"}],"outputs":[{"name":"","type":"uint256","internalType":"uint256"}],"stateMutability":"view"},{"type":"function","name":"buyCustodialToken","inputs":[{"name":"account","type":"address","internalType":"address"},{"name":"amount","type":"uint256","internalType":"uint256"}],"outputs":[],"stateMutability":"nonpayable"},{"type":"function","name":"buyCustodialTokenFrom","inputs":[{"name":"buyer","type":"address","internalType":"address"},{"name":"account","type":"address","internalType":"address"},{"name":"amount","type":"uint256","internalType":"uint256"}],"outputs":[],"stateMutability":"nonpayable"},{"type":"function","name":"decimals","inputs":[],"outputs":[{"name":"","type":"uint8","internalType":"uint8"}],"stateMutability":"view"},{"type":"function","name":"getRoleAdmin","inputs":[{"name":"role","type":"bytes32","internalType":"bytes32"}],"outputs":[{"name":"","type":"bytes32","internalType":"bytes32"}],"stateMutability":"view"},{"type":"function","name":"grantBuyerRole","inputs":[{"name":"account","type":"address","internalType":"address"}],"outputs":[],"stateMutability":"nonpayable"},{"type":"function","name":"grantMinterRole","inputs":[{"name":"account","type":"address","internalType":"address"}],"outputs":[],"stateMutability":"nonpayable"},{"type":"function","name":"grantRole","inputs":[{"name":"role","type":"bytes32","internalType":"bytes32"},{"name":"account","type":"address","internalType":"address"}],"outputs":[],"stateMutability":"nonpayable"},{"type":"function","name":"grantTransferSinkRole","inputs":[{"name":"account","type":"address","internalType":"address"}],"outputs":[],"stateMutability":"nonpayable"},{"type":"function","name":"hasMinterRole","inputs":[{"name":"account","type":"address","internalType":"address"}],"outputs":[{"name":"","type":"bool","internalType":"bool"}],"stateMutability":"view"},{"type":"function","name":"hasRole","inputs":[{"name":"role","type":"bytes32","internalType":"bytes32"},{"name":"account","type":"address","internalType":"address"}],"outputs":[{"name":"","type":"bool","internalType":"bool"}],"stateMutability":"view"},{"type":"function","name":"initialize","inputs":[{"name":"name","type":"string","internalType":"string"},{"name":"symbol","type":"string","internalType":"string"},{"name":"_underlyingToken","type":"address","internalType":"contract IMintableToken"}],"outputs":[],"stateMutability":"nonpayable"},{"type":"function","name":"initialize","inputs":[{"name":"name","type":"string","internalType":"string"},{"name":"symbol","type":"string","internalType":"string"}],"outputs":[],"stateMutability":"nonpayable"},{"type":"function","name":"mint","inputs":[{"name":"account","type":"address","internalType":"address"},{"name":"amount","type":"uint256","internalType":"uint256"}],"outputs":[],"stateMutability":"nonpayable"},{"type":"function","name":"name","inputs":[],"outputs":[{"name":"","type":"string","internalType":"string"}],"stateMutability":"view"},{"type":"function","name":"proxiableUUID","inputs":[],"outputs":[{"name":"","type":"bytes32","internalType":"bytes32"}],"stateMutability":"view"},{"type":"function","name":"renounceRole","inputs":[{"name":"role","type":"bytes32","internalType":"bytes32"},{"name":"callerConfirmation","type":"address","internalType":"address"}],"outputs":[],"stateMutability":"nonpayable"},{"type":"function","name":"revokeBuyerRole","inputs":[{"name":"account","type":"address","internalType":"address"}],"outputs":[],"stateMutability":"nonpayable"},{"type":"function","name":"revokeMinterAdminRole","inputs":[{"name":"account","type":"address","internalType":"address"}],"outputs":[],"stateMutability":"nonpayable"},{"type":"function","name":"revokeMinterRole","inputs":[{"name":"account","type":"address","internalType":"address"}],"outputs":[],"stateMutability":"nonpayable"},{"type":"function","name":"revokeRole","inputs":[{"name":"role","type":"bytes32","internalType":"bytes32"},{"name":"account","type":"address","internalType":"address"}],"outputs":[],"stateMutability":"nonpayable"},{"type":"function","name":"revokeTransferSinkRole","inputs":[{"name":"account","type":"address","internalType":"address"}],"outputs":[],"stateMutability":"nonpayable"},{"type":"function","name":"supportsInterface","inputs":[{"name":"interfaceId","type":"bytes4","internalType":"bytes4"}],"outputs":[{"name":"","type":"bool","internalType":"bool"}],"stateMutability":"view"},{"type":"function","name":"symbol","inputs":[],"outputs":[{"name":"","type":"string","internalType":"string"}],"stateMutability":"view"},{"type":"function","name":"totalSupply","inputs":[],"outputs":[{"name":"","type":"uint256","internalType":"uint256"}],"stateMutability":"view"},{"type":"function","name":"transfer","inputs":[{"name":"to","type":"address","internalType":"address"},{"name":"amount","type":"uint256","internalType":"uint256"}],"outputs":[{"name":"","type":"bool","internalType":"bool"}],"stateMutability":"nonpayable"},{"type":"function","name":"transferFrom","inputs":[{"name":"from","type":"address","internalType":"address"},{"name":"to","type":"address","internalType":"address"},{"name":"amount","type":"uint256","internalType":"uint256"}],"outputs":[{"name":"","type":"bool","internalType":"bool"}],"stateMutability":"nonpayable"},{"type":"function","name":"underlyingToken","inputs":[],"outputs":[{"name":"","type":"address","internalType":"contract IMintableToken"}],"stateMutability":"view"},{"type":"function","name":"upgradeToAndCall","inputs":[{"name":"newImplementation","type":"address","internalType":"address"},{"name":"data","type":"bytes","internalType":"bytes"}],"outputs":[],"stateMutability":"payable"},{"type":"event","name":"Approval","inputs":[{"name":"owner","type":"address","indexed":true,"internalType":"address"},{"name":"spender","type":"address","indexed":true,"internalType":"address"},{"name":"value","type":"uint256","indexed":false,"internalType":"uint256"}],"anonymous":false},{"type":"event","name":"Initialized","inputs":[{"name":"version","type":"uint64","indexed":false,"internalType":"uint64"}],"anonymous":false},{"type":"event","name":"RoleAdminChanged","inputs":[{"name":"role","type":"bytes32","indexed":true,"internalType":"bytes32"},{"name":"previousAdminRole","type":"bytes32","indexed":true,"internalType":"bytes32"},{"name":"newAdminRole","type":"bytes32","indexed":true,"internalType":"bytes32"}],"anonymous":false},{"type":"event","name":"RoleGranted","inputs":[{"name":"role","type":"bytes32","indexed":true,"internalType":"bytes32"},{"name":"account","type":"address","indexed":true,"internalType":"address"},{"name":"sender","type":"address","indexed":true,"internalType":"address"}],"anonymous":false},{"type":"event","name":"RoleRevoked","inputs":[{"name":"role","type":"bytes32","indexed":true,"internalType":"bytes32"},{"name":"account","type":"address","indexed":true,"internalType":"address"},{"name":"sender","type":"address","indexed":true,"internalType":"address"}],"anonymous":false},{"type":"event","name":"Transfer","inputs":[{"name":"from","type":"address","indexed":true,"internalType":"address"},{"name":"to","type":"address","indexed":true,"internalType":"address"},{"name":"value","type":"uint256","indexed":false,"internalType":"uint256"}],"anonymous":false},{"type":"event","name":"Upgraded","inputs":[{"name":"implementation","type":"address","indexed":true,"internalType":"address"}],"anonymous":false},{"type":"error","name":"AccessControlBadConfirmation","inputs":[]},{"type":"error","name":"AccessControlUnauthorizedAccount","inputs":[{"name":"account","type":"address","internalType":"address"},{"name":"neededRole","type":"bytes32","internalType":"bytes32"}]},{"type":"error","name":"AddressEmptyCode","inputs":[{"name":"target","type":"address","internalType":"address"}]},{"type":"error","name":"ERC1967InvalidImplementation","inputs":[{"name":"implementation","type":"address","internalType":"address"}]},{"type":"error","name":"ERC1967NonPayable","inputs":[]},{"type":"error","name":"ERC20InsufficientAllowance","inputs":[{"name":"spender","type":"address","internalType":"address"},{"name":"allowance","type":"uint256","internalType":"uint256"},{"name":"needed","type":"uint256","internalType":"uint256"}]},{"type":"error","name":"ERC20InsufficientBalance","inputs":[{"name":"sender","type":"address","internalType":"address"},{"name":"balance","type":"uint256","internalType":"uint256"},{"name":"needed","type":"uint256","internalType":"uint256"}]},{"type":"error","name":"ERC20InvalidApprover","inputs":[{"name":"approver","type":"address","internalType":"address"}]},{"type":"error","name":"ERC20InvalidReceiver","inputs":[{"name":"receiver","type":"address","internalType":"address"}]},{"type":"error","name":"ERC20InvalidSender","inputs":[{"name":"sender","type":"address","internalType":"address"}]},{"type":"error","name":"ERC20InvalidSpender","inputs":[{"name":"spender","type":"address","internalType":"address"}]},{"type":"error","name":"FailedInnerCall","inputs":[]},{"type":"error","name":"InvalidInitialization","inputs":[]},{"type":"error","name":"NotInitializing","inputs":[]},{"type":"error","name":"RestrictedToBuyerRole","inputs":[]},{"type":"error","name":"RestrictedToTransferSinkRole","inputs":[]},{"type":"error","name":"UUPSUnauthorizedCallContext","inputs":[]},{"type":"error","name":"UUPSUnsupportedProxiableUUID","inputs":[{"name":"slot","type":"bytes32","internalType":"bytes32"}]}],"bytecode":{"object":"0x60a0604052306080523480156012575f80fd5b5060805161209c6100395f395f818161121a01528181611243015261138b015261209c5ff3fe608060405260043610610228575f3560e01c80634f1ef28611610129578063a0627fb4116100a8578063ad3cb1cc1161006d578063ad3cb1cc14610690578063c4652d83146106c0578063d5391393146106df578063d547741f146106ff578063dd62ed3e1461071e575f80fd5b8063a0627fb4146105ff578063a217fddf1461061f578063a22cf3d914610632578063a9059cbb14610652578063ab18e3b514610671575f80fd5b80637ada395b116100ee5780637ada395b1461056e57806391d148541461058d57806395d89b41146105ac578063964c1aed146105c057806397125aa1146105df575f80fd5b80634f1ef286146104c857806352d1902d146104db57806369e2f0fb146104ef57806370a082311461050e5780637a01a1da1461054e575f80fd5b806318950c71116101b5578063313ce5671161017a578063313ce5671461043157806336568abe1461044c5780633dd1eb611461046b57806340c10f191461048a5780634cd88b76146104a9575f80fd5b806318950c711461037f57806323b872dd1461039e578063248a9ca3146103bd5780632495a599146103dc5780632f2ff15d14610412575f80fd5b8063099db017116101fb578063099db017146102c15780631107f10d146102e05780631339324b146102ff57806318160ddd1461032d5780631881ec4d14610360575f80fd5b806301ffc9a71461022c57806306fdde0314610260578063077f224a14610281578063095ea7b3146102a2575b5f80fd5b348015610237575f80fd5b5061024b610246366004611a64565b61073d565b60405190151581526020015b60405180910390f35b34801561026b575f80fd5b50610274610773565b6040516102579190611a8b565b34801561028c575f80fd5b506102a061029b366004611b7d565b610833565b005b3480156102ad575f80fd5b5061024b6102bc366004611bf5565b610945565b3480156102cc575f80fd5b5061024b6102db366004611c1f565b6109f5565b3480156102eb575f80fd5b506102a06102fa366004611c1f565b610a0d565b34801561030a575f80fd5b5061031f5f80516020611f8783398151915281565b604051908152602001610257565b348015610338575f80fd5b507f52c63247e1f47db19d5ce0460030c497f067ca4cebf71ba98eeadabe20bace025461031f565b34801561036b575f80fd5b506102a061037a366004611c1f565b610a40565b34801561038a575f80fd5b506102a0610399366004611bf5565b610a6e565b3480156103a9575f80fd5b5061024b6103b8366004611c3a565b610a7d565b3480156103c8575f80fd5b5061031f6103d7366004611c78565b610b39565b3480156103e7575f80fd5b505f546103fa906001600160a01b031681565b6040516001600160a01b039091168152602001610257565b34801561041d575f80fd5b506102a061042c366004611c8f565b610b59565b34801561043c575f80fd5b5060405160128152602001610257565b348015610457575f80fd5b506102a0610466366004611c8f565b610b7b565b348015610476575f80fd5b506102a0610485366004611c1f565b610bae565b348015610495575f80fd5b506102a06104a4366004611bf5565b610bdc565b3480156104b4575f80fd5b506102a06104c3366004611cbd565b610c48565b6102a06104d6366004611d22565b610d58565b3480156104e6575f80fd5b5061031f610d73565b3480156104fa575f80fd5b506102a0610509366004611c1f565b610d8e565b348015610519575f80fd5b5061031f610528366004611c1f565b6001600160a01b03165f9081525f80516020611f67833981519152602052604090205490565b348015610559575f80fd5b5061031f5f80516020611fe783398151915281565b348015610579575f80fd5b506102a0610588366004611c1f565b610dbc565b348015610598575f80fd5b5061024b6105a7366004611c8f565b610dea565b3480156105b7575f80fd5b50610274610e20565b3480156105cb575f80fd5b506102a06105da366004611c1f565b610e5e565b3480156105ea575f80fd5b5061031f5f8051602061202783398151915281565b34801561060a575f80fd5b5061031f5f80516020611fc783398151915281565b34801561062a575f80fd5b5061031f5f81565b34801561063d575f80fd5b5061031f5f80516020611f4783398151915281565b34801561065d575f80fd5b5061024b61066c366004611bf5565b610e8c565b34801561067c575f80fd5b506102a061068b366004611c1f565b610f04565b34801561069b575f80fd5b50610274604051806040016040528060058152602001640352e302e360dc1b81525081565b3480156106cb575f80fd5b506102a06106da366004611c3a565b610f32565b3480156106ea575f80fd5b5061031f5f8051602061200783398151915281565b34801561070a575f80fd5b506102a0610719366004611c8f565b610fea565b348015610729575f80fd5b5061031f610738366004611d78565b611006565b5f6001600160e01b03198216637965db0b60e01b148061076d57506301ffc9a760e01b6001600160e01b03198316145b92915050565b7f52c63247e1f47db19d5ce0460030c497f067ca4cebf71ba98eeadabe20bace0380546060915f80516020611f67833981519152916107b190611da4565b80601f01602080910402602001604051908101604052809291908181526020018280546107dd90611da4565b80156108285780601f106107ff57610100808354040283529160200191610828565b820191905f5260205f20905b81548152906001019060200180831161080b57829003601f168201915b505050505091505090565b7ff0c57e16840df040f15088dc2f81fe391c3923bec73e23a9662efc9c229c6a008054600160401b810460ff16159067ffffffffffffffff165f811580156108785750825b90505f8267ffffffffffffffff1660011480156108945750303b155b9050811580156108a2575080155b156108c05760405163f92ee8a960e01b815260040160405180910390fd5b845467ffffffffffffffff1916600117855583156108ea57845460ff60401b1916600160401b1785555b6108f588888861104f565b831561093b57845460ff60401b19168555604051600181527fc7f505b2f371ae2175ee4913f4499e1f2633a7b5936321eed1cdaeb6115181d29060200160405180910390a15b5050505050505050565b5f61095d5f80516020611fc783398151915284610dea565b61097a5760405163b1e7a99d60e01b815260040160405180910390fd5b5f5460405163095ea7b360e01b81526001600160a01b038581166004830152602482018590529091169063095ea7b3906044015b6020604051808303815f875af11580156109ca573d5f803e3d5ffd5b505050506040513d601f19601f820116820180604052508101906109ee9190611ddc565b9392505050565b5f61076d5f8051602061200783398151915283610dea565b5f80516020612027833981519152610a2481611082565b610a3b5f80516020611fe78339815191528361108f565b505050565b5f80516020612027833981519152610a5781611082565b610a3b5f80516020611fe783398151915283611130565b610a79338383610f32565b5050565b5f610a955f80516020611fc783398151915284610dea565b610ab25760405163b1e7a99d60e01b815260040160405180910390fd5b610abd8430846111a9565b505f5460405163a9059cbb60e01b81526001600160a01b038581166004830152602482018590529091169063a9059cbb906044016020604051808303815f875af1158015610b0d573d5f803e3d5ffd5b505050506040513d601f19601f82011682018060405250810190610b319190611ddc565b949350505050565b5f9081525f80516020612047833981519152602052604090206001015490565b610b6282610b39565b610b6b81611082565b610b75838361108f565b50505050565b6001600160a01b0381163314610ba45760405163334bd91960e11b815260040160405180910390fd5b610a3b8282611130565b5f80516020611f87833981519152610bc581611082565b610a3b5f805160206120078339815191528361108f565b610be682826111cc565b5f546040516340c10f1960e01b8152306004820152602481018390526001600160a01b03909116906340c10f19906044015f604051808303815f87803b158015610c2e575f80fd5b505af1158015610c40573d5f803e3d5ffd5b505050505050565b7ff0c57e16840df040f15088dc2f81fe391c3923bec73e23a9662efc9c229c6a008054600160401b810460ff16159067ffffffffffffffff165f81158015610c8d5750825b90505f8267ffffffffffffffff166001148015610ca95750303b155b905081158015610cb7575080155b15610cd55760405163f92ee8a960e01b815260040160405180910390fd5b845467ffffffffffffffff191660011785558315610cff57845460ff60401b1916600160401b1785555b610d0987876111ed565b8315610d4f57845460ff60401b19168555604051600181527fc7f505b2f371ae2175ee4913f4499e1f2633a7b5936321eed1cdaeb6115181d29060200160405180910390a15b50505050505050565b610d6061120f565b610d69826112b5565b610a7982826112bf565b5f610d7c611380565b505f80516020611fa783398151915290565b5f80516020611f87833981519152610da581611082565b610a3b5f8051602061200783398151915283611130565b5f80516020611f47833981519152610dd381611082565b610a3b5f80516020611fc783398151915283611130565b5f9182525f80516020612047833981519152602090815260408084206001600160a01b0393909316845291905290205460ff1690565b7f52c63247e1f47db19d5ce0460030c497f067ca4cebf71ba98eeadabe20bace0480546060915f80516020611f67833981519152916107b190611da4565b5f80516020611f87833981519152610e7581611082565b610a3b5f80516020611f8783398151915283611130565b5f610ea45f80516020611fc783398151915284610dea565b610ec15760405163b1e7a99d60e01b815260040160405180910390fd5b610ecb30836113c9565b505f5460405163a9059cbb60e01b81526001600160a01b038581166004830152602482018590529091169063a9059cbb906044016109ae565b5f80516020611f47833981519152610f1b81611082565b610a3b5f80516020611fc78339815191528361108f565b610f495f80516020611fe783398151915284610dea565b610f66576040516339a7121160e21b815260040160405180910390fd5b5f546040516323b872dd60e01b81526001600160a01b03858116600483015230602483015260448201849052909116906323b872dd906064016020604051808303815f875af1158015610fbb573d5f803e3d5ffd5b505050506040513d601f19601f82011682018060405250810190610fdf9190611ddc565b50610a3b82826113e0565b610ff382610b39565b610ffc81611082565b610b758383611130565b6001600160a01b039182165f9081527f52c63247e1f47db19d5ce0460030c497f067ca4cebf71ba98eeadabe20bace016020908152604080832093909416825291909152205490565b611057611414565b611061838361145d565b6110696114ad565b6110716114bf565b61107a816114f6565b610a3b61151f565b61108c8133611586565b50565b5f5f805160206120478339815191526110a88484610dea565b611127575f848152602082815260408083206001600160a01b03871684529091529020805460ff191660011790556110dd3390565b6001600160a01b0316836001600160a01b0316857f2f8788117e7eff1d82e926ec794901d17c78024a50270940304540a733656f0d60405160405180910390a4600191505061076d565b5f91505061076d565b5f5f805160206120478339815191526111498484610dea565b15611127575f848152602082815260408083206001600160a01b0387168085529252808320805460ff1916905551339287917ff6391f5c32d9c69d2a47ea670b442974b53935d1edc7fd64eb21e047a839171b9190a4600191505061076d565b5f336111b68582856115bf565b6111c185858561161c565b506001949350505050565b5f805160206120078339815191526111e381611082565b610a3b83836113e0565b6111f5611414565b6111ff828261145d565b6112076114ad565b610a796114bf565b306001600160a01b037f000000000000000000000000000000000000000000000000000000000000000016148061129557507f00000000000000000000000000000000000000000000000000000000000000006001600160a01b03166112895f80516020611fa7833981519152546001600160a01b031690565b6001600160a01b031614155b156112b35760405163703e46dd60e11b815260040160405180910390fd5b565b5f610a7981611082565b816001600160a01b03166352d1902d6040518163ffffffff1660e01b8152600401602060405180830381865afa925050508015611319575060408051601f3d908101601f1916820190925261131691810190611dfb565b60015b61134657604051634c9c8ce360e01b81526001600160a01b03831660048201526024015b60405180910390fd5b5f80516020611fa7833981519152811461137657604051632a87526960e21b81526004810182905260240161133d565b610a3b8383611679565b306001600160a01b037f000000000000000000000000000000000000000000000000000000000000000016146112b35760405163703e46dd60e11b815260040160405180910390fd5b5f336113d681858561161c565b5060019392505050565b6001600160a01b0382166114095760405163ec442f0560e01b81525f600482015260240161133d565b610a795f83836116ce565b7ff0c57e16840df040f15088dc2f81fe391c3923bec73e23a9662efc9c229c6a0054600160401b900460ff166112b357604051631afcd79f60e31b815260040160405180910390fd5b611465611414565b5f80516020611f678339815191527f52c63247e1f47db19d5ce0460030c497f067ca4cebf71ba98eeadabe20bace0361149e8482611e56565b5060048101610b758382611e56565b6114b5611414565b61108c5f3361108f565b6114c7611414565b6114de5f80516020611f878339815191523361108f565b5061108c5f805160206120078339815191523361108f565b6114fe611414565b5f80546001600160a01b0319166001600160a01b0392909216919091179055565b611527611414565b61153e5f80516020611f478339815191523361108f565b506115565f80516020611fc78339815191523361108f565b5061156e5f805160206120278339815191523361108f565b5061108c5f80516020611fe78339815191523361108f565b6115908282610dea565b610a795760405163e2517d3f60e01b81526001600160a01b03821660048201526024810183905260440161133d565b5f6115ca8484611006565b90505f198114610b75578181101561160e57604051637dc7a0d960e11b81526001600160a01b0384166004820152602481018290526044810183905260640161133d565b610b7584848484035f611807565b6001600160a01b03831661164557604051634b637e8f60e11b81525f600482015260240161133d565b6001600160a01b03821661166e5760405163ec442f0560e01b81525f600482015260240161133d565b610a3b8383836116ce565b611682826118eb565b6040516001600160a01b038316907fbc7cd75a20ee27fd9adebab32041f755214dbc6bffa90cc0225b39da2e5c2d3b905f90a28051156116c657610a3b828261194e565b610a796119c0565b5f80516020611f678339815191526001600160a01b0384166117085781816002015f8282546116fd9190611f11565b909155506117789050565b6001600160a01b0384165f908152602082905260409020548281101561175a5760405163391434e360e21b81526001600160a01b0386166004820152602481018290526044810184905260640161133d565b6001600160a01b0385165f9081526020839052604090209083900390555b6001600160a01b0383166117965760028101805483900390556117b4565b6001600160a01b0383165f9081526020829052604090208054830190555b826001600160a01b0316846001600160a01b03167fddf252ad1be2c89b69c2b068fc378daa952ba7f163c4a11628f55a4df523b3ef846040516117f991815260200190565b60405180910390a350505050565b5f80516020611f678339815191526001600160a01b03851661183e5760405163e602df0560e01b81525f600482015260240161133d565b6001600160a01b03841661186757604051634a1406b160e11b81525f600482015260240161133d565b6001600160a01b038086165f908152600183016020908152604080832093881683529290522083905581156118e457836001600160a01b0316856001600160a01b03167f8c5be1e5ebec7d5bd14f71427d1e84f3dd0314c0f7b2291e5b200ac8c7c3b925856040516118db91815260200190565b60405180910390a35b5050505050565b806001600160a01b03163b5f0361192057604051634c9c8ce360e01b81526001600160a01b038216600482015260240161133d565b5f80516020611fa783398151915280546001600160a01b0319166001600160a01b0392909216919091179055565b60605f80846001600160a01b03168460405161196a9190611f30565b5f60405180830381855af49150503d805f81146119a2576040519150601f19603f3d011682016040523d82523d5f602084013e6119a7565b606091505b50915091506119b78583836119df565b95945050505050565b34156112b35760405163b398979f60e01b815260040160405180910390fd5b6060826119f4576119ef82611a3b565b6109ee565b8151158015611a0b57506001600160a01b0384163b155b15611a3457604051639996b31560e01b81526001600160a01b038516600482015260240161133d565b50806109ee565b805115611a4b5780518082602001fd5b604051630a12f52160e11b815260040160405180910390fd5b5f60208284031215611a74575f80fd5b81356001600160e01b0319811681146109ee575f80fd5b602081525f82518060208401528060208501604085015e5f604082850101526040601f19601f83011684010191505092915050565b634e487b7160e01b5f52604160045260245ffd5b5f8067ffffffffffffffff841115611aee57611aee611ac0565b50604051601f19601f85018116603f0116810181811067ffffffffffffffff82111715611b1d57611b1d611ac0565b604052838152905080828401851015611b34575f80fd5b838360208301375f60208583010152509392505050565b5f82601f830112611b5a575f80fd5b6109ee83833560208501611ad4565b6001600160a01b038116811461108c575f80fd5b5f805f60608486031215611b8f575f80fd5b833567ffffffffffffffff811115611ba5575f80fd5b611bb186828701611b4b565b935050602084013567ffffffffffffffff811115611bcd575f80fd5b611bd986828701611b4b565b9250506040840135611bea81611b69565b809150509250925092565b5f8060408385031215611c06575f80fd5b8235611c1181611b69565b946020939093013593505050565b5f60208284031215611c2f575f80fd5b81356109ee81611b69565b5f805f60608486031215611c4c575f80fd5b8335611c5781611b69565b92506020840135611c6781611b69565b929592945050506040919091013590565b5f60208284031215611c88575f80fd5b5035919050565b5f8060408385031215611ca0575f80fd5b823591506020830135611cb281611b69565b809150509250929050565b5f8060408385031215611cce575f80fd5b823567ffffffffffffffff811115611ce4575f80fd5b611cf085828601611b4b565b925050602083013567ffffffffffffffff811115611d0c575f80fd5b611d1885828601611b4b565b9150509250929050565b5f8060408385031215611d33575f80fd5b8235611d3e81611b69565b9150602083013567ffffffffffffffff811115611d59575f80fd5b8301601f81018513611d69575f80fd5b611d1885823560208401611ad4565b5f8060408385031215611d89575f80fd5b8235611d9481611b69565b91506020830135611cb281611b69565b600181811c90821680611db857607f821691505b602082108103611dd657634e487b7160e01b5f52602260045260245ffd5b50919050565b5f60208284031215611dec575f80fd5b815180151581146109ee575f80fd5b5f60208284031215611e0b575f80fd5b5051919050565b601f821115610a3b57805f5260205f20601f840160051c81016020851015611e375750805b601f840160051c820191505b818110156118e4575f8155600101611e43565b815167ffffffffffffffff811115611e7057611e70611ac0565b611e8481611e7e8454611da4565b84611e12565b6020601f821160018114611eb6575f8315611e9f5750848201515b5f19600385901b1c1916600184901b1784556118e4565b5f84815260208120601f198516915b82811015611ee55787850151825560209485019460019092019101611ec5565b5084821015611f0257868401515f19600387901b60f8161c191681555b50505050600190811b01905550565b8082018082111561076d57634e487b7160e01b5f52601160045260245ffd5b5f82518060208501845e5f92019182525091905056fe98d8141e2c04296645d34a278f34ca6c6e1424fe5ffbedc7b06061dc10d00a0852c63247e1f47db19d5ce0460030c497f067ca4cebf71ba98eeadabe20bace0070480ee89cb38eff00b7d23da25713d52ce19c6ed428691d22c58b2f615e3d67360894a13ba1a3210667c828492db98dca3e2076cc3735a920a3ca505d382bbc444ae73ae4e8f834f9e8a0d8b8ee151ba97b373ec32ce79cde326624cd1f7ac5f8cd32ed93fc2f9fc78152a14807c9609af3d99c5fe4dc6b106a801aaddfe90e9f2df0fed2c77648de5860a4cc508cd0818c85b8b8a1ab4ceeef8d981c8956a6768653f6704ac843b6b065b5a40183033cd57fd86d4daa702a91d4b6679857d702dd7bc7dec4dceedda775e58dd541e08a116c6c53815c0bd028192f7b626800a264697066735822122034c2ae4ded2386bdd7617f7c24344e6574b344a01e1db1dc745ceeaa7e7d263664736f6c634300081a0033","linkReferences":{}},"methodIdentifiers":{"BUYER_ADMIN_ROLE()":"97125aa1","BUYER_ROLE()":"7a01a1da","DEFAULT_ADMIN_ROLE()":"a217fddf","MINTER_ADMIN_ROLE()":"1339324b","MINTER_ROLE()":"d5391393","TRANSFER_SINK_ADMIN_ROLE()":"a22cf3d9","TRANSFER_SINK_ROLE()":"a0627fb4","UPGRADE_INTERFACE_VERSION()":"ad3cb1cc","allowance(address,address)":"dd62ed3e","approve(address,uint256)":"095ea7b3","balanceOf(address)":"70a08231","buyCustodialToken(address,uint256)":"18950c71","buyCustodialTokenFrom(address,address,uint256)":"c4652d83","decimals()":"313ce567","getRoleAdmin(bytes32)":"248a9ca3","grantBuyerRole(address)":"1107f10d","grantMinterRole(address)":"3dd1eb61","grantRole(bytes32,address)":"2f2ff15d","grantTransferSinkRole(address)":"ab18e3b5","hasMinterRole(address)":"099db017","hasRole(bytes32,address)":"91d14854","initialize(string,string)":"4cd88b76","initialize(string,string,address)":"077f224a","mint(address,uint256)":"40c10f19","name()":"06fdde03","proxiableUUID()":"52d1902d","renounceRole(bytes32,address)":"36568abe","revokeBuyerRole(address)":"1881ec4d","revokeMinterAdminRole(address)":"964c1aed","revokeMinterRole(address)":"69e2f0fb","revokeRole(bytes32,address)":"d547741f","revokeTransferSinkRole(address)":"7ada395b","supportsInterface(bytes4)":"01ffc9a7","symbol()":"95d89b41","totalSupply()":"18160ddd","transfer(address,uint256)":"a9059cbb","transferFrom(address,address,uint256)":"23b872dd","underlyingToken()":"2495a599","upgradeToAndCall(address,bytes)":"4f1ef286"},"storageLayout":{"storage":[{"astId":56236,"contract":"src/token/custodian/CustodianToken.sol:CustodianToken","label":"underlyingToken","offset":0,"slot":"0","type":"t_contract(IMintableToken)55962"},{"astId":56240,"contract":"src/token/custodian/CustodianToken.sol:CustodianToken","label":"__gap","offset":0,"slot":"1","type":"t_array(t_uint256)50_storage"}],"types":{"t_array(t_uint256)50_storage":{"encoding":"inplace","label":"uint256[50]","numberOfBytes":"1600","base":"t_uint256"},"t_contract(IMintableToken)55962":{"encoding":"inplace","label":"contract IMintableToken","numberOfBytes":"20"},"t_uint256":{"encoding":"inplace","label":"uint256","numberOfBytes":"32"}}},"id":116}