{"abi":[{"type":"constructor","inputs":[],"stateMutability":"nonpayable"},{"type":"function","name":"DEFAULT_ADMIN_ROLE","inputs":[],"outputs":[{"name":"","type":"bytes32","internalType":"bytes32"}],"stateMutability":"view"},{"type":"function","name":"abortBridgeTransfer","inputs":[{"name":"bridgeTransferId","type":"bytes32","internalType":"bytes32"}],"outputs":[],"stateMutability":"nonpayable"},{"type":"function","name":"atomicBridgeInitiatorMOVE","inputs":[],"outputs":[{"name":"","type":"address","internalType":"contract AtomicBridgeInitiatorMOVE"}],"stateMutability":"view"},{"type":"function","name":"bridgeTransfers","inputs":[{"name":"","type":"bytes32","internalType":"bytes32"}],"outputs":[{"name":"originator","type":"bytes32","internalType":"bytes32"},{"name":"recipient","type":"address","internalType":"address"},{"name":"amount","type":"uint256","internalType":"uint256"},{"name":"hashLock","type":"bytes32","internalType":"bytes32"},{"name":"timeLock","type":"uint256","internalType":"uint256"},{"name":"state","type":"uint8","internalType":"enum AtomicBridgeCounterpartyMOVE.MessageState"}],"stateMutability":"view"},{"type":"function","name":"completeBridgeTransfer","inputs":[{"name":"bridgeTransferId","type":"bytes32","internalType":"bytes32"},{"name":"preImage","type":"bytes32","internalType":"bytes32"}],"outputs":[],"stateMutability":"nonpayable"},{"type":"function","name":"counterpartyTimeLockDuration","inputs":[],"outputs":[{"name":"","type":"uint256","internalType":"uint256"}],"stateMutability":"view"},{"type":"function","name":"getRoleAdmin","inputs":[{"name":"role","type":"bytes32","internalType":"bytes32"}],"outputs":[{"name":"","type":"bytes32","internalType":"bytes32"}],"stateMutability":"view"},{"type":"function","name":"grantRole","inputs":[{"name":"role","type":"bytes32","internalType":"bytes32"},{"name":"account","type":"address","internalType":"address"}],"outputs":[],"stateMutability":"nonpayable"},{"type":"function","name":"hasRole","inputs":[{"name":"role","type":"bytes32","internalType":"bytes32"},{"name":"account","type":"address","internalType":"address"}],"outputs":[{"name":"","type":"bool","internalType":"bool"}],"stateMutability":"view"},{"type":"function","name":"initialize","inputs":[{"name":"_atomicBridgeInitiator","type":"address","internalType":"address"},{"name":"_owner","type":"address","internalType":"address"},{"name":"_admin","type":"address","internalType":"address"},{"name":"_relayer","type":"address","internalType":"address"},{"name":"_refunder","type":"address","internalType":"address"},{"name":"_timeLockDuration","type":"uint256","internalType":"uint256"}],"outputs":[],"stateMutability":"nonpayable"},{"type":"function","name":"lockBridgeTransfer","inputs":[{"name":"originator","type":"bytes32","internalType":"bytes32"},{"name":"bridgeTransferId","type":"bytes32","internalType":"bytes32"},{"name":"hashLock","type":"bytes32","internalType":"bytes32"},{"name":"recipient","type":"address","internalType":"address"},{"name":"amount","type":"uint256","internalType":"uint256"}],"outputs":[],"stateMutability":"nonpayable"},{"type":"function","name":"renounceRole","inputs":[{"name":"role","type":"bytes32","internalType":"bytes32"},{"name":"callerConfirmation","type":"address","internalType":"address"}],"outputs":[],"stateMutability":"nonpayable"},{"type":"function","name":"revokeRole","inputs":[{"name":"role","type":"bytes32","internalType":"bytes32"},{"name":"account","type":"address","internalType":"address"}],"outputs":[],"stateMutability":"nonpayable"},{"type":"function","name":"setAtomicBridgeInitiator","inputs":[{"name":"_atomicBridgeInitiator","type":"address","internalType":"address"}],"outputs":[],"stateMutability":"nonpayable"},{"type":"function","name":"setTimeLockDuration","inputs":[{"name":"_timeLockDuration","type":"uint256","internalType":"uint256"}],"outputs":[],"stateMutability":"nonpayable"},{"type":"function","name":"supportsInterface","inputs":[{"name":"interfaceId","type":"bytes4","internalType":"bytes4"}],"outputs":[{"name":"","type":"bool","internalType":"bool"}],"stateMutability":"view"},{"type":"event","name":"BridgeTransferAborted","inputs":[{"name":"bridgeTransferId","type":"bytes32","indexed":true,"internalType":"bytes32"}],"anonymous":false},{"type":"event","name":"BridgeTransferCompleted","inputs":[{"name":"bridgeTransferId","type":"bytes32","indexed":true,"internalType":"bytes32"},{"name":"pre_image","type":"bytes32","indexed":false,"internalType":"bytes32"}],"anonymous":false},{"type":"event","name":"BridgeTransferLocked","inputs":[{"name":"bridgeTransferId","type":"bytes32","indexed":true,"internalType":"bytes32"},{"name":"recipient","type":"address","indexed":true,"internalType":"address"},{"name":"amount","type":"uint256","indexed":false,"internalType":"uint256"},{"name":"hashLock","type":"bytes32","indexed":false,"internalType":"bytes32"},{"name":"timeLock","type":"uint256","indexed":false,"internalType":"uint256"}],"anonymous":false},{"type":"event","name":"Initialized","inputs":[{"name":"version","type":"uint64","indexed":false,"internalType":"uint64"}],"anonymous":false},{"type":"event","name":"RoleAdminChanged","inputs":[{"name":"role","type":"bytes32","indexed":true,"internalType":"bytes32"},{"name":"previousAdminRole","type":"bytes32","indexed":true,"internalType":"bytes32"},{"name":"newAdminRole","type":"bytes32","indexed":true,"internalType":"bytes32"}],"anonymous":false},{"type":"event","name":"RoleGranted","inputs":[{"name":"role","type":"bytes32","indexed":true,"internalType":"bytes32"},{"name":"account","type":"address","indexed":true,"internalType":"address"},{"name":"sender","type":"address","indexed":true,"internalType":"address"}],"anonymous":false},{"type":"event","name":"RoleRevoked","inputs":[{"name":"role","type":"bytes32","indexed":true,"internalType":"bytes32"},{"name":"account","type":"address","indexed":true,"internalType":"address"},{"name":"sender","type":"address","indexed":true,"internalType":"address"}],"anonymous":false},{"type":"error","name":"AccessControlBadConfirmation","inputs":[]},{"type":"error","name":"AccessControlUnauthorizedAccount","inputs":[{"name":"account","type":"address","internalType":"address"},{"name":"neededRole","type":"bytes32","internalType":"bytes32"}]},{"type":"error","name":"BridgeTransferHasBeenCompleted","inputs":[]},{"type":"error","name":"BridgeTransferInvalid","inputs":[]},{"type":"error","name":"BridgeTransferStateNotInitialized","inputs":[]},{"type":"error","name":"BridgeTransferStateNotPending","inputs":[]},{"type":"error","name":"InsufficientMOVEBalance","inputs":[]},{"type":"error","name":"InvalidInitialization","inputs":[]},{"type":"error","name":"InvalidSecret","inputs":[]},{"type":"error","name":"MOVETransferFailed","inputs":[]},{"type":"error","name":"NotInitializing","inputs":[]},{"type":"error","name":"TimeLockExpired","inputs":[]},{"type":"error","name":"TimeLockNotExpired","inputs":[]},{"type":"error","name":"Unauthorized","inputs":[]},{"type":"error","name":"ZeroAddress","inputs":[]},{"type":"error","name":"ZeroAmount","inputs":[]},{"type":"error","name":"ZeroValue","inputs":[]}],"bytecode":{"object":"0x6080604052348015600e575f80fd5b5060156019565b60c9565b7ff0c57e16840df040f15088dc2f81fe391c3923bec73e23a9662efc9c229c6a00805468010000000000000000900460ff161560685760405163f92ee8a960e01b815260040160405180910390fd5b80546001600160401b039081161460c65780546001600160401b0319166001600160401b0390811782556040519081527fc7f505b2f371ae2175ee4913f4499e1f2633a7b5936321eed1cdaeb6115181d29060200160405180910390a15b50565b610e17806100d65f395ff3fe608060405234801561000f575f80fd5b50600436106100fb575f3560e01c806391d1485411610093578063a217fddf11610063578063a217fddf14610215578063c95b659f1461021c578063d547741f1461022f578063e0d9cbc414610242575f80fd5b806391d14854146101d357806395b6ef0c146101e657806396d17d49146101f95780639f8f879914610202575f80fd5b806336568abe116100ce57806336568abe146101705780633b9b46401461018357806371115eb2146101ad5780637ce08748146101c0575f80fd5b806301ffc9a7146100ff578063248a9ca31461012757806327b3ea07146101485780632f2ff15d1461015d575b5f80fd5b61011261010d366004610bc5565b6102a4565b60405190151581526020015b60405180910390f35b61013a610135366004610bf3565b6102da565b60405190815260200161011e565b61015b610156366004610c25565b6102fa565b005b61015b61016b366004610c68565b61047e565b61015b61017e366004610c68565b6104a0565b5f54610195906001600160a01b031681565b6040516001600160a01b03909116815260200161011e565b61015b6101bb366004610bf3565b6104d8565b61015b6101ce366004610c92565b610508565b6101126101e1366004610c68565b61057b565b61015b6101f4366004610cab565b6105b1565b61013a60025481565b61015b610210366004610d16565b6107fb565b61013a5f81565b61015b61022a366004610bf3565b610970565b61015b61023d366004610c68565b610a41565b610292610250366004610bf3565b600160208190525f91825260409091208054918101546002820154600383015460048401546005909401546001600160a01b0390931693919290919060ff1686565b60405161011e96959493929190610d4a565b5f6001600160e01b03198216637965db0b60e01b14806102d457506301ffc9a760e01b6001600160e01b03198316145b92915050565b5f9081525f80516020610dc2833981519152602052604090206001015490565b7fe2b7fb3b832174769106daebcfd6d1970523240dda11281102db9363b83b0dc461032481610a5d565b815f0361034457604051631f2a200560e01b815260040160405180910390fd5b5f600254426103539190610da2565b90506040518060c00160405280888152602001856001600160a01b031681526020018481526020018681526020018281526020015f600281111561039957610399610d36565b90525f87815260016020818152604092839020845181559084015181830180546001600160a01b0319166001600160a01b0390921691909117905591830151600280840191909155606084015160038401556080840151600484015560a08401516005840180549193909260ff1990921691849081111561041c5761041c610d36565b0217905550506002546040805186815260208101899052908101919091526001600160a01b038616915087907fa03230f5967404ba170c5be8445486911e87267000597e4ba9ed9d4b014fa4bd9060600160405180910390a350505050505050565b610487826102da565b61049081610a5d565b61049a8383610a6a565b50505050565b6001600160a01b03811633146104c95760405163334bd91960e11b815260040160405180910390fd5b6104d38282610b0b565b505050565b7fa49807205ce4d355092ef5a8a18f56e8913cf4a201fbe287825b095693c2177561050281610a5d565b50600255565b7fa49807205ce4d355092ef5a8a18f56e8913cf4a201fbe287825b095693c2177561053281610a5d565b6001600160a01b0382166105595760405163d92e233d60e01b815260040160405180910390fd5b505f80546001600160a01b0319166001600160a01b0392909216919091179055565b5f9182525f80516020610dc2833981519152602090815260408084206001600160a01b0393909316845291905290205460ff1690565b7ff0c57e16840df040f15088dc2f81fe391c3923bec73e23a9662efc9c229c6a008054600160401b810460ff16159067ffffffffffffffff165f811580156105f65750825b90505f8267ffffffffffffffff1660011480156106125750303b155b905081158015610620575080155b1561063e5760405163f92ee8a960e01b815260040160405180910390fd5b845467ffffffffffffffff19166001178555831561066857845460ff60401b1916600160401b1785555b6001600160a01b038b1615801561068657506001600160a01b038a16155b801561069957506001600160a01b038916155b80156106ac57506001600160a01b038816155b80156106bf57506001600160a01b038716155b156106dd5760405163d92e233d60e01b815260040160405180910390fd5b855f036106fd57604051637c946ed760e01b815260040160405180910390fd5b6107075f8b610a6a565b506107327fa49807205ce4d355092ef5a8a18f56e8913cf4a201fbe287825b095693c217758a610a6a565b5061075d7fe2b7fb3b832174769106daebcfd6d1970523240dda11281102db9363b83b0dc489610a6a565b506107887fdb9556138406326f00296e13ea2ad7db24ba82381212d816b1a40c23b466b32788610a6a565b505f80546001600160a01b0319166001600160a01b038d16179055600286905583156107ee57845460ff60401b19168555604051600181527fc7f505b2f371ae2175ee4913f4499e1f2633a7b5936321eed1cdaeb6115181d29060200160405180910390a15b5050505050505050505050565b5f82815260016020526040812090600582015460ff16600281111561082257610822610d36565b146108405760405163a92c04c760e01b815260040160405180910390fd5b5f8260405160200161085491815260200190565b604051602081830303815290604052805190602001209050816003015481146108905760405163abab6bd760e01b815260040160405180910390fd5b81600401544211156108b55760405163179a39d160e01b815260040160405180910390fd5b60058201805460ff191660019081179091555f5490830154600284015460405163cacfb16160e01b81526001600160a01b039283166004820152602481019190915291169063cacfb161906044015f604051808303815f87803b15801561091a575f80fd5b505af115801561092c573d5f803e3d5ffd5b50505050837f05ddc886acde01b77731bfad1dcfb6abf529f05c28ea66556fe87429bb2789ea8460405161096291815260200190565b60405180910390a250505050565b7fdb9556138406326f00296e13ea2ad7db24ba82381212d816b1a40c23b466b32761099a81610a5d565b5f82815260016020526040812090600582015460ff1660028111156109c1576109c1610d36565b146109df5760405163a92c04c760e01b815260040160405180910390fd5b80600401544211610a035760405163191f4d1b60e31b815260040160405180910390fd5b60058101805460ff1916600217905560405183907f9b398e0a546c4aa218ac0b98f5e2196a7aff605b50c19eb795f9cb3b2f5d5b55905f90a2505050565b610a4a826102da565b610a5381610a5d565b61049a8383610b0b565b610a678133610b84565b50565b5f5f80516020610dc2833981519152610a83848461057b565b610b02575f848152602082815260408083206001600160a01b03871684529091529020805460ff19166001179055610ab83390565b6001600160a01b0316836001600160a01b0316857f2f8788117e7eff1d82e926ec794901d17c78024a50270940304540a733656f0d60405160405180910390a460019150506102d4565b5f9150506102d4565b5f5f80516020610dc2833981519152610b24848461057b565b15610b02575f848152602082815260408083206001600160a01b0387168085529252808320805460ff1916905551339287917ff6391f5c32d9c69d2a47ea670b442974b53935d1edc7fd64eb21e047a839171b9190a460019150506102d4565b610b8e828261057b565b610bc15760405163e2517d3f60e01b81526001600160a01b03821660048201526024810183905260440160405180910390fd5b5050565b5f60208284031215610bd5575f80fd5b81356001600160e01b031981168114610bec575f80fd5b9392505050565b5f60208284031215610c03575f80fd5b5035919050565b80356001600160a01b0381168114610c20575f80fd5b919050565b5f805f805f60a08688031215610c39575f80fd5b853594506020860135935060408601359250610c5760608701610c0a565b949793965091946080013592915050565b5f8060408385031215610c79575f80fd5b82359150610c8960208401610c0a565b90509250929050565b5f60208284031215610ca2575f80fd5b610bec82610c0a565b5f805f805f8060c08789031215610cc0575f80fd5b610cc987610c0a565b9550610cd760208801610c0a565b9450610ce560408801610c0a565b9350610cf360608801610c0a565b9250610d0160808801610c0a565b9598949750929591949360a090920135925050565b5f8060408385031215610d27575f80fd5b50508035926020909101359150565b634e487b7160e01b5f52602160045260245ffd5b8681526001600160a01b038616602082015260408101859052606081018490526080810183905260c0810160038310610d9157634e487b7160e01b5f52602160045260245ffd5b8260a0830152979650505050505050565b808201808211156102d457634e487b7160e01b5f52601160045260245ffdfe02dd7bc7dec4dceedda775e58dd541e08a116c6c53815c0bd028192f7b626800a264697066735822122082ed31f26f626cc1ba946d078ffc5cd66f258018117eb05eb6ca431a1da5ac3564736f6c634300081a0033","linkReferences":{}},"methodIdentifiers":{"DEFAULT_ADMIN_ROLE()":"a217fddf","abortBridgeTransfer(bytes32)":"c95b659f","atomicBridgeInitiatorMOVE()":"3b9b4640","bridgeTransfers(bytes32)":"e0d9cbc4","completeBridgeTransfer(bytes32,bytes32)":"9f8f8799","counterpartyTimeLockDuration()":"96d17d49","getRoleAdmin(bytes32)":"248a9ca3","grantRole(bytes32,address)":"2f2ff15d","hasRole(bytes32,address)":"91d14854","initialize(address,address,address,address,address,uint256)":"95b6ef0c","lockBridgeTransfer(bytes32,bytes32,bytes32,address,uint256)":"27b3ea07","renounceRole(bytes32,address)":"36568abe","revokeRole(bytes32,address)":"d547741f","setAtomicBridgeInitiator(address)":"7ce08748","setTimeLockDuration(uint256)":"71115eb2","supportsInterface(bytes4)":"01ffc9a7"},"id":49}