{"abi":[{"type":"function","name":"abortBridgeTransfer","inputs":[{"name":"bridgeTransferId","type":"bytes32","internalType":"bytes32"}],"outputs":[],"stateMutability":"nonpayable"},{"type":"function","name":"atomicBridgeInitiator","inputs":[],"outputs":[{"name":"","type":"address","internalType":"contract AtomicBridgeInitiator"}],"stateMutability":"view"},{"type":"function","name":"bridgeTransfers","inputs":[{"name":"","type":"bytes32","internalType":"bytes32"}],"outputs":[{"name":"originator","type":"bytes32","internalType":"bytes32"},{"name":"recipient","type":"address","internalType":"address"},{"name":"amount","type":"uint256","internalType":"uint256"},{"name":"hashLock","type":"bytes32","internalType":"bytes32"},{"name":"timeLock","type":"uint256","internalType":"uint256"},{"name":"state","type":"uint8","internalType":"enum AtomicBridgeCounterparty.MessageState"}],"stateMutability":"view"},{"type":"function","name":"completeBridgeTransfer","inputs":[{"name":"bridgeTransferId","type":"bytes32","internalType":"bytes32"},{"name":"preImage","type":"bytes32","internalType":"bytes32"}],"outputs":[],"stateMutability":"nonpayable"},{"type":"function","name":"counterpartyTimeLockDuration","inputs":[],"outputs":[{"name":"","type":"uint256","internalType":"uint256"}],"stateMutability":"view"},{"type":"function","name":"initialize","inputs":[{"name":"_atomicBridgeInitiator","type":"address","internalType":"address"},{"name":"owner","type":"address","internalType":"address"},{"name":"_timeLockDuration","type":"uint256","internalType":"uint256"}],"outputs":[],"stateMutability":"nonpayable"},{"type":"function","name":"lockBridgeTransfer","inputs":[{"name":"originator","type":"bytes32","internalType":"bytes32"},{"name":"bridgeTransferId","type":"bytes32","internalType":"bytes32"},{"name":"hashLock","type":"bytes32","internalType":"bytes32"},{"name":"recipient","type":"address","internalType":"address"},{"name":"amount","type":"uint256","internalType":"uint256"}],"outputs":[{"name":"","type":"bool","internalType":"bool"}],"stateMutability":"nonpayable"},{"type":"function","name":"owner","inputs":[],"outputs":[{"name":"","type":"address","internalType":"address"}],"stateMutability":"view"},{"type":"function","name":"renounceOwnership","inputs":[],"outputs":[],"stateMutability":"nonpayable"},{"type":"function","name":"setAtomicBridgeInitiator","inputs":[{"name":"_atomicBridgeInitiator","type":"address","internalType":"address"}],"outputs":[],"stateMutability":"nonpayable"},{"type":"function","name":"setTimeLockDuration","inputs":[{"name":"_timeLockDuration","type":"uint256","internalType":"uint256"}],"outputs":[],"stateMutability":"nonpayable"},{"type":"function","name":"transferOwnership","inputs":[{"name":"newOwner","type":"address","internalType":"address"}],"outputs":[],"stateMutability":"nonpayable"},{"type":"event","name":"BridgeTransferAborted","inputs":[{"name":"bridgeTransferId","type":"bytes32","indexed":true,"internalType":"bytes32"}],"anonymous":false},{"type":"event","name":"BridgeTransferCompleted","inputs":[{"name":"bridgeTransferId","type":"bytes32","indexed":true,"internalType":"bytes32"},{"name":"pre_image","type":"bytes32","indexed":false,"internalType":"bytes32"}],"anonymous":false},{"type":"event","name":"BridgeTransferLocked","inputs":[{"name":"bridgeTransferId","type":"bytes32","indexed":true,"internalType":"bytes32"},{"name":"initiator","type":"bytes32","indexed":true,"internalType":"bytes32"},{"name":"recipient","type":"address","indexed":true,"internalType":"address"},{"name":"amount","type":"uint256","indexed":false,"internalType":"uint256"},{"name":"hashLock","type":"bytes32","indexed":false,"internalType":"bytes32"},{"name":"timeLock","type":"uint256","indexed":false,"internalType":"uint256"}],"anonymous":false},{"type":"event","name":"Initialized","inputs":[{"name":"version","type":"uint64","indexed":false,"internalType":"uint64"}],"anonymous":false},{"type":"event","name":"OwnershipTransferred","inputs":[{"name":"previousOwner","type":"address","indexed":true,"internalType":"address"},{"name":"newOwner","type":"address","indexed":true,"internalType":"address"}],"anonymous":false},{"type":"error","name":"BridgeTransferHasBeenCompleted","inputs":[]},{"type":"error","name":"BridgeTransferInvalid","inputs":[]},{"type":"error","name":"BridgeTransferStateNotInitialized","inputs":[]},{"type":"error","name":"BridgeTransferStateNotPending","inputs":[]},{"type":"error","name":"InsufficientWethBalance","inputs":[]},{"type":"error","name":"InvalidInitialization","inputs":[]},{"type":"error","name":"InvalidSecret","inputs":[]},{"type":"error","name":"NotInitializing","inputs":[]},{"type":"error","name":"OwnableInvalidOwner","inputs":[{"name":"owner","type":"address","internalType":"address"}]},{"type":"error","name":"OwnableUnauthorizedAccount","inputs":[{"name":"account","type":"address","internalType":"address"}]},{"type":"error","name":"TimeLockExpired","inputs":[]},{"type":"error","name":"TimeLockNotExpired","inputs":[]},{"type":"error","name":"Unauthorized","inputs":[]},{"type":"error","name":"WETHTransferFailed","inputs":[]},{"type":"error","name":"ZeroAddress","inputs":[]},{"type":"error","name":"ZeroAmount","inputs":[]}],"bytecode":{"object":"0x6080604052348015600e575f80fd5b50610dc78061001c5f395ff3fe608060405234801561000f575f80fd5b50600436106100b1575f3560e01c806396d17d491161006e57806396d17d49146101645780639f8f87991461017b578063c95b659f1461018e578063e0d9cbc4146101a1578063ee2c59f814610203578063f2fde38b14610215575f80fd5b80631794bb3c146100b557806327b3ea07146100ca57806371115eb2146100f2578063715018a6146101055780637ce087481461010d5780638da5cb5b14610120575b5f80fd5b6100c86100c3366004610b29565b610228565b005b6100dd6100d8366004610b63565b61037e565b60405190151581526020015b60405180910390f35b6100c8610100366004610ba6565b6105bb565b6100c86105c8565b6100c861011b366004610bbd565b6105db565b7f9016d09d72d40fdae2fd8ceac6b6234c7706214fd39c1cd1e609a0528c199300546001600160a01b03165b6040516001600160a01b0390911681526020016100e9565b61016d60025481565b6040519081526020016100e9565b6100c8610189366004610bdd565b61062b565b6100c861019c366004610ba6565b610841565b6101f16101af366004610ba6565b600160208190525f91825260409091208054918101546002820154600383015460048401546005909401546001600160a01b0390931693919290919060ff1686565b6040516100e996959493929190610c11565b5f5461014c906001600160a01b031681565b6100c8610223366004610bbd565b6108ef565b7ff0c57e16840df040f15088dc2f81fe391c3923bec73e23a9662efc9c229c6a008054600160401b810460ff16159067ffffffffffffffff165f8115801561026d5750825b90505f8267ffffffffffffffff1660011480156102895750303b155b905081158015610297575080155b156102b55760405163f92ee8a960e01b815260040160405180910390fd5b845467ffffffffffffffff1916600117855583156102df57845460ff60401b1916600160401b1785555b6001600160a01b0388166103065760405163d92e233d60e01b815260040160405180910390fd5b5f80546001600160a01b0319166001600160a01b038a1617905561032987610931565b6002869055831561037457845460ff60401b19168555604051600181527fc7f505b2f371ae2175ee4913f4499e1f2633a7b5936321eed1cdaeb6115181d29060200160405180910390a15b5050505050505050565b5f610387610942565b6103a9604051806060016040528060228152602001610d07602291398361099d565b815f036103c957604051631f2a200560e01b815260040160405180910390fd5b5f546040805163258d975160e21b8152905184926001600160a01b0316916396365d449160048083019260209291908290030181865afa15801561040f573d5f803e3d5ffd5b505050506040513d601f19601f820116820180604052508101906104339190610c69565b1015610452576040516318fb0fc360e11b815260040160405180910390fd5b61047d6040518060400160405280600a815260200169766572696620646f6e6560b01b8152506109e6565b5f6002544261048c9190610c80565b90506040518060c00160405280888152602001856001600160a01b031681526020018481526020018681526020018281526020015f60028111156104d2576104d2610bfd565b90525f87815260016020818152604092839020845181559084015181830180546001600160a01b0319166001600160a01b0390921691909117905591830151600280840191909155606084015160038401556080840151600484015560a08401516005840180549193909260ff1990921691849081111561055557610555610bfd565b021790555050600254604080518681526020810189905280820192909252516001600160a01b0387169250899189917f6fd7399514eb976acd637ed4a2435c9466e55428753b71e73e9d00fdcc50f44c9181900360600190a45060019695505050505050565b6105c3610942565b600255565b6105d0610942565b6105d95f610a29565b565b6105e3610942565b6001600160a01b03811661060a5760405163d92e233d60e01b815260040160405180910390fd5b5f80546001600160a01b0319166001600160a01b0392909216919091179055565b5f60015f8481526020019081526020015f2090506106766040518060400160405280601681526020017531b7b6b83632ba32a13934b233b2aa3930b739b332b960511b8152506109e6565b5f600582015460ff16600281111561069057610690610bfd565b146106ae5760405163a92c04c760e01b815260040160405180910390fd5b6106cf604051806060016040528060248152602001610d4c602491396109e6565b5f826040516020016106e391815260200190565b6040516020818303038152906040528051906020012090508160030154811461071f5760405163abab6bd760e01b815260040160405180910390fd5b610740604051806060016040528060238152602001610d29602391396109e6565b81600401544211156107655760405163179a39d160e01b815260040160405180910390fd5b610786604051806060016040528060228152602001610d70602291396109e6565b60058201805460ff191660019081179091555f549083015460028401546040516324c44ed760e21b81526001600160a01b03928316600482015260248101919091529116906393113b5c906044015f604051808303815f87803b1580156107eb575f80fd5b505af11580156107fd573d5f803e3d5ffd5b50505050837f05ddc886acde01b77731bfad1dcfb6abf529f05c28ea66556fe87429bb2789ea8460405161083391815260200190565b60405180910390a250505050565b610849610942565b5f81815260016020526040812090600582015460ff16600281111561087057610870610bfd565b1461088e5760405163a92c04c760e01b815260040160405180910390fd5b806004015442116108b25760405163191f4d1b60e31b815260040160405180910390fd5b60058101805460ff1916600217905560405182907f9b398e0a546c4aa218ac0b98f5e2196a7aff605b50c19eb795f9cb3b2f5d5b55905f90a25050565b6108f7610942565b6001600160a01b03811661092557604051631e4fbdf760e01b81525f60048201526024015b60405180910390fd5b61092e81610a29565b50565b610939610a99565b61092e81610ae2565b336109747f9016d09d72d40fdae2fd8ceac6b6234c7706214fd39c1cd1e609a0528c199300546001600160a01b031690565b6001600160a01b0316146105d95760405163118cdaa760e01b815233600482015260240161091c565b6109e282826040516024016109b3929190610cd3565b60408051601f198184030181529190526020810180516001600160e01b03166309710a9d60e41b179052610aea565b5050565b61092e816040516024016109fa9190610cf4565b60408051601f198184030181529190526020810180516001600160e01b031663104c13eb60e21b179052610aea565b7f9016d09d72d40fdae2fd8ceac6b6234c7706214fd39c1cd1e609a0528c19930080546001600160a01b031981166001600160a01b03848116918217845560405192169182907f8be0079c531659141344cd1fd0a4f28419497f9722a3daafe3b4186f6b6457e0905f90a3505050565b7ff0c57e16840df040f15088dc2f81fe391c3923bec73e23a9662efc9c229c6a0054600160401b900460ff166105d957604051631afcd79f60e31b815260040160405180910390fd5b6108f7610a99565b61092e8180516a636f6e736f6c652e6c6f67602083015f808483855afa5050505050565b80356001600160a01b0381168114610b24575f80fd5b919050565b5f805f60608486031215610b3b575f80fd5b610b4484610b0e565b9250610b5260208501610b0e565b929592945050506040919091013590565b5f805f805f60a08688031215610b77575f80fd5b853594506020860135935060408601359250610b9560608701610b0e565b949793965091946080013592915050565b5f60208284031215610bb6575f80fd5b5035919050565b5f60208284031215610bcd575f80fd5b610bd682610b0e565b9392505050565b5f8060408385031215610bee575f80fd5b50508035926020909101359150565b634e487b7160e01b5f52602160045260245ffd5b8681526001600160a01b038616602082015260408101859052606081018490526080810183905260c0810160038310610c5857634e487b7160e01b5f52602160045260245ffd5b8260a0830152979650505050505050565b5f60208284031215610c79575f80fd5b5051919050565b80820180821115610c9f57634e487b7160e01b5f52601160045260245ffd5b92915050565b5f81518084528060208401602086015e5f602082860101526020601f19601f83011685010191505092915050565b604081525f610ce56040830185610ca5565b90508260208301529392505050565b602081525f610bd66020830184610ca556fe6c6f636b4272696467655472616e7366657220737461727420616d6f756e743a2564636f6d706c6574654272696467655472616e73666572207365637265742076616c6964636f6d706c6574654272696467655472616e736665722073746174652070656e64696e67636f6d706c6574654272696467655472616e736665722074696d656c6f636b206f6ba26469706673582212204cf79907861564fd3a1e8574d56f9dfb39ac000a884839ed1752772e38d73b5764736f6c634300081a0033","linkReferences":{}},"methodIdentifiers":{"abortBridgeTransfer(bytes32)":"c95b659f","atomicBridgeInitiator()":"ee2c59f8","bridgeTransfers(bytes32)":"e0d9cbc4","completeBridgeTransfer(bytes32,bytes32)":"9f8f8799","counterpartyTimeLockDuration()":"96d17d49","initialize(address,address,uint256)":"1794bb3c","lockBridgeTransfer(bytes32,bytes32,bytes32,address,uint256)":"27b3ea07","owner()":"8da5cb5b","renounceOwnership()":"715018a6","setAtomicBridgeInitiator(address)":"7ce08748","setTimeLockDuration(uint256)":"71115eb2","transferOwnership(address)":"f2fde38b"},"id":39}