{"abi":[{"type":"function","name":"bridgeTransfers","inputs":[{"name":"","type":"bytes32","internalType":"bytes32"}],"outputs":[{"name":"amount","type":"uint256","internalType":"uint256"},{"name":"originator","type":"address","internalType":"address"},{"name":"recipient","type":"bytes32","internalType":"bytes32"},{"name":"hashLock","type":"bytes32","internalType":"bytes32"},{"name":"timeLock","type":"uint256","internalType":"uint256"},{"name":"state","type":"uint8","internalType":"enum AtomicBridgeInitiator.MessageState"}],"stateMutability":"view"},{"type":"function","name":"completeBridgeTransfer","inputs":[{"name":"bridgeTransferId","type":"bytes32","internalType":"bytes32"},{"name":"preImage","type":"bytes32","internalType":"bytes32"}],"outputs":[],"stateMutability":"nonpayable"},{"type":"function","name":"counterpartyContract","inputs":[],"outputs":[{"name":"","type":"address","internalType":"address"}],"stateMutability":"view"},{"type":"function","name":"initialize","inputs":[{"name":"_weth","type":"address","internalType":"address"},{"name":"owner","type":"address","internalType":"address"}],"outputs":[],"stateMutability":"nonpayable"},{"type":"function","name":"initiateBridgeTransfer","inputs":[{"name":"wethAmount","type":"uint256","internalType":"uint256"},{"name":"recipient","type":"bytes32","internalType":"bytes32"},{"name":"hashLock","type":"bytes32","internalType":"bytes32"},{"name":"timeLock","type":"uint256","internalType":"uint256"}],"outputs":[{"name":"bridgeTransferId","type":"bytes32","internalType":"bytes32"}],"stateMutability":"payable"},{"type":"function","name":"owner","inputs":[],"outputs":[{"name":"","type":"address","internalType":"address"}],"stateMutability":"view"},{"type":"function","name":"poolBalance","inputs":[],"outputs":[{"name":"","type":"uint256","internalType":"uint256"}],"stateMutability":"view"},{"type":"function","name":"refundBridgeTransfer","inputs":[{"name":"bridgeTransferId","type":"bytes32","internalType":"bytes32"}],"outputs":[],"stateMutability":"nonpayable"},{"type":"function","name":"renounceOwnership","inputs":[],"outputs":[],"stateMutability":"nonpayable"},{"type":"function","name":"setCounterpartyContract","inputs":[{"name":"_counterpartyContract","type":"address","internalType":"address"}],"outputs":[],"stateMutability":"nonpayable"},{"type":"function","name":"transferOwnership","inputs":[{"name":"newOwner","type":"address","internalType":"address"}],"outputs":[],"stateMutability":"nonpayable"},{"type":"function","name":"weth","inputs":[],"outputs":[{"name":"","type":"address","internalType":"contract IWETH9"}],"stateMutability":"view"},{"type":"function","name":"withdrawWETH","inputs":[{"name":"recipient","type":"address","internalType":"address"},{"name":"amount","type":"uint256","internalType":"uint256"}],"outputs":[],"stateMutability":"nonpayable"},{"type":"event","name":"BridgeTransferCompleted","inputs":[{"name":"_bridgeTransferId","type":"bytes32","indexed":true,"internalType":"bytes32"},{"name":"pre_image","type":"bytes32","indexed":false,"internalType":"bytes32"}],"anonymous":false},{"type":"event","name":"BridgeTransferInitiated","inputs":[{"name":"_bridgeTransferId","type":"bytes32","indexed":true,"internalType":"bytes32"},{"name":"_originator","type":"address","indexed":true,"internalType":"address"},{"name":"_recipient","type":"bytes32","indexed":true,"internalType":"bytes32"},{"name":"amount","type":"uint256","indexed":false,"internalType":"uint256"},{"name":"_hashLock","type":"bytes32","indexed":false,"internalType":"bytes32"},{"name":"_timeLock","type":"uint256","indexed":false,"internalType":"uint256"}],"anonymous":false},{"type":"event","name":"BridgeTransferRefunded","inputs":[{"name":"_bridgeTransferId","type":"bytes32","indexed":true,"internalType":"bytes32"}],"anonymous":false},{"type":"event","name":"Initialized","inputs":[{"name":"version","type":"uint64","indexed":false,"internalType":"uint64"}],"anonymous":false},{"type":"event","name":"OwnershipTransferred","inputs":[{"name":"previousOwner","type":"address","indexed":true,"internalType":"address"},{"name":"newOwner","type":"address","indexed":true,"internalType":"address"}],"anonymous":false},{"type":"error","name":"BridgeTransferHasBeenCompleted","inputs":[]},{"type":"error","name":"BridgeTransferInvalid","inputs":[]},{"type":"error","name":"BridgeTransferStateNotInitialized","inputs":[]},{"type":"error","name":"InsufficientWethBalance","inputs":[]},{"type":"error","name":"InvalidInitialization","inputs":[]},{"type":"error","name":"InvalidSecret","inputs":[]},{"type":"error","name":"NotInitializing","inputs":[]},{"type":"error","name":"OwnableInvalidOwner","inputs":[{"name":"owner","type":"address","internalType":"address"}]},{"type":"error","name":"OwnableUnauthorizedAccount","inputs":[{"name":"account","type":"address","internalType":"address"}]},{"type":"error","name":"TimeLockNotExpired","inputs":[]},{"type":"error","name":"TimelockExpired","inputs":[]},{"type":"error","name":"Unauthorized","inputs":[]},{"type":"error","name":"WETHTransferFailed","inputs":[]},{"type":"error","name":"ZeroAddress","inputs":[]},{"type":"error","name":"ZeroAmount","inputs":[]}],"bytecode":{"object":"0x608060405234801561001057600080fd5b50610e74806100206000396000f3fe6080604052600436106100c25760003560e01c80638da5cb5b1161007f5780639dfcaebe116100595780639dfcaebe1461021c5780639f8f87991461022f578063e0d9cbc41461024f578063f2fde38b146102be57600080fd5b80638da5cb5b1461019b57806393113b5c146101d857806396365d44146101f857600080fd5b80630afc6fd8146100c757806337bd936b146100e95780633fc8cef314610126578063485cc955146101465780635780802014610166578063715018a614610186575b600080fd5b3480156100d357600080fd5b506100e76100e2366004610c65565b6102de565b005b3480156100f557600080fd5b50600254610109906001600160a01b031681565b6040516001600160a01b0390911681526020015b60405180910390f35b34801561013257600080fd5b50600354610109906001600160a01b031681565b34801561015257600080fd5b506100e7610161366004610c87565b61032f565b34801561017257600080fd5b506100e7610181366004610cba565b610482565b34801561019257600080fd5b506100e76105df565b3480156101a757600080fd5b507f9016d09d72d40fdae2fd8ceac6b6234c7706214fd39c1cd1e609a0528c199300546001600160a01b0316610109565b3480156101e457600080fd5b506100e76101f3366004610cd3565b6105f3565b34801561020457600080fd5b5061020e60015481565b60405190815260200161011d565b61020e61022a366004610cfd565b6106ef565b34801561023b57600080fd5b506100e761024a366004610d2f565b6109df565b34801561025b57600080fd5b506102ac61026a366004610cba565b60006020819052908152604090208054600182015460028301546003840154600485015460059095015493946001600160a01b03909316939192909160ff1686565b60405161011d96959493929190610d67565b3480156102ca57600080fd5b506100e76102d9366004610c65565b610ad8565b6102e6610b1b565b6001600160a01b03811661030d5760405163d92e233d60e01b815260040160405180910390fd5b600280546001600160a01b0319166001600160a01b0392909216919091179055565b7ff0c57e16840df040f15088dc2f81fe391c3923bec73e23a9662efc9c229c6a008054600160401b810460ff16159067ffffffffffffffff166000811580156103755750825b905060008267ffffffffffffffff1660011480156103925750303b155b9050811580156103a0575080155b156103be5760405163f92ee8a960e01b815260040160405180910390fd5b845467ffffffffffffffff1916600117855583156103e857845460ff60401b1916600160401b1785555b6001600160a01b03871661040f5760405163d92e233d60e01b815260040160405180910390fd5b600380546001600160a01b0319166001600160a01b03891617905561043386610b76565b831561047957845460ff60401b19168555604051600181527fc7f505b2f371ae2175ee4913f4499e1f2633a7b5936321eed1cdaeb6115181d29060200160405180910390a15b50505050505050565b600081815260208190526040812090600582015460ff1660028111156104aa576104aa610d51565b146104c857604051630ffb9dcb60e01b815260040160405180910390fd5b80600401544310156104ed5760405163191f4d1b60e31b815260040160405180910390fd5b60058101805460ff19166002179055805460018054600090610510908490610dd7565b90915550506003546001820154825460405163a9059cbb60e01b81526001600160a01b039283166004820152602481019190915291169063a9059cbb906044016020604051808303816000875af115801561056f573d6000803e3d6000fd5b505050506040513d601f19601f820116820180604052508101906105939190610df0565b6105b057604051630dd0c8f760e41b815260040160405180910390fd5b60405182907f4fee0a65c921e50a9623c3abe10a4067e49c03ef491e7b406dace7cb79c12c6190600090a25050565b6105e7610b1b565b6105f16000610b87565b565b6002546001600160a01b0316331461061d576040516282b42960e81b815260040160405180910390fd5b806001541015610640576040516318fb0fc360e11b815260040160405180910390fd5b80600160008282546106529190610dd7565b909155505060035460405163a9059cbb60e01b81526001600160a01b038481166004830152602482018490529091169063a9059cbb906044016020604051808303816000875af11580156106aa573d6000803e3d6000fd5b505050506040513d601f19601f820116820180604052508101906106ce9190610df0565b6106eb57604051630dd0c8f760e41b815260040160405180910390fd5b5050565b60003334826106fe8289610e12565b90508060000361072157604051631f2a200560e01b815260040160405180910390fd5b811561079157600360009054906101000a90046001600160a01b03166001600160a01b031663d0e30db0836040518263ffffffff1660e01b81526004016000604051808303818588803b15801561077757600080fd5b505af115801561078b573d6000803e3d6000fd5b50505050505b8715610831576003546040516323b872dd60e01b81526001600160a01b038581166004830152306024830152604482018b9052909116906323b872dd906064016020604051808303816000875af11580156107f0573d6000803e3d6000fd5b505050506040513d601f19601f820116820180604052508101906108149190610df0565b61083157604051630dd0c8f760e41b815260040160405180910390fd5b80600160008282546108439190610e12565b90915550506004805490600061085883610e25565b90915550506004546040516bffffffffffffffffffffffff19606086901b16602082015260348101899052605481018890526074810187905243609482015260b481019190915260d4016040516020818303038152906040528051906020012093506040518060c00160405280828152602001846001600160a01b0316815260200188815260200187815260200186436108f29190610e12565b8152600060209182018190528681528082526040908190208351815591830151600180840180546001600160a01b0319166001600160a01b039093169290921790915590830151600280840191909155606084015160038401556080840151600484015560a08401516005840180549193909260ff1990921691849081111561097d5761097d610d51565b02179055505060408051838152602081018990529081018790528891506001600160a01b0385169086907f44e287be4fbd3a2dcc143a376301094fd2f809dcc2a8d3c09d0a0715224766c49060600160405180910390a4505050949350505050565b600082815260208190526040812090600582015460ff166002811115610a0757610a07610d51565b14610a2557604051630437880960e41b815260040160405180910390fd5b60038101546040805160208101859052016040516020818303038152906040528051906020012014610a6a5760405163abab6bd760e01b815260040160405180910390fd5b8060040154431115610a8f57604051633d37e55360e11b815260040160405180910390fd5b60058101805460ff1916600117905560405182815283907f05ddc886acde01b77731bfad1dcfb6abf529f05c28ea66556fe87429bb2789ea9060200160405180910390a2505050565b610ae0610b1b565b6001600160a01b038116610b0f57604051631e4fbdf760e01b8152600060048201526024015b60405180910390fd5b610b1881610b87565b50565b33610b4d7f9016d09d72d40fdae2fd8ceac6b6234c7706214fd39c1cd1e609a0528c199300546001600160a01b031690565b6001600160a01b0316146105f15760405163118cdaa760e01b8152336004820152602401610b06565b610b7e610bf8565b610b1881610c41565b7f9016d09d72d40fdae2fd8ceac6b6234c7706214fd39c1cd1e609a0528c19930080546001600160a01b031981166001600160a01b03848116918217845560405192169182907f8be0079c531659141344cd1fd0a4f28419497f9722a3daafe3b4186f6b6457e090600090a3505050565b7ff0c57e16840df040f15088dc2f81fe391c3923bec73e23a9662efc9c229c6a0054600160401b900460ff166105f157604051631afcd79f60e31b815260040160405180910390fd5b610ae0610bf8565b80356001600160a01b0381168114610c6057600080fd5b919050565b600060208284031215610c7757600080fd5b610c8082610c49565b9392505050565b60008060408385031215610c9a57600080fd5b610ca383610c49565b9150610cb160208401610c49565b90509250929050565b600060208284031215610ccc57600080fd5b5035919050565b60008060408385031215610ce657600080fd5b610cef83610c49565b946020939093013593505050565b60008060008060808587031215610d1357600080fd5b5050823594602084013594506040840135936060013592509050565b60008060408385031215610d4257600080fd5b50508035926020909101359150565b634e487b7160e01b600052602160045260246000fd5b8681526001600160a01b038616602082015260408101859052606081018490526080810183905260c0810160038310610db057634e487b7160e01b600052602160045260246000fd5b8260a0830152979650505050505050565b634e487b7160e01b600052601160045260246000fd5b81810381811115610dea57610dea610dc1565b92915050565b600060208284031215610e0257600080fd5b81518015158114610c8057600080fd5b80820180821115610dea57610dea610dc1565b600060018201610e3757610e37610dc1565b506001019056fea2646970667358221220da38eb4e04428a0d01e94d703e028ce56e4e1bba674cd15ebb0caa576f1ada6164736f6c63430008170033","linkReferences":{}},"methodIdentifiers":{"bridgeTransfers(bytes32)":"e0d9cbc4","completeBridgeTransfer(bytes32,bytes32)":"9f8f8799","counterpartyContract()":"37bd936b","initialize(address,address)":"485cc955","initiateBridgeTransfer(uint256,bytes32,bytes32,uint256)":"9dfcaebe","owner()":"8da5cb5b","poolBalance()":"96365d44","refundBridgeTransfer(bytes32)":"57808020","renounceOwnership()":"715018a6","setCounterpartyContract(address)":"0afc6fd8","transferOwnership(address)":"f2fde38b","weth()":"3fc8cef3","withdrawWETH(address,uint256)":"93113b5c"},"id":39}