{"abi":[{"type":"function","name":"bridgeTransfers","inputs":[{"name":"","type":"bytes32","internalType":"bytes32"}],"outputs":[{"name":"amount","type":"uint256","internalType":"uint256"},{"name":"originator","type":"address","internalType":"address"},{"name":"recipient","type":"bytes32","internalType":"bytes32"},{"name":"hashLock","type":"bytes32","internalType":"bytes32"},{"name":"timeLock","type":"uint256","internalType":"uint256"},{"name":"state","type":"uint8","internalType":"enum AtomicBridgeInitiatorMOVE.MessageState"}],"stateMutability":"view"},{"type":"function","name":"completeBridgeTransfer","inputs":[{"name":"bridgeTransferId","type":"bytes32","internalType":"bytes32"},{"name":"preImage","type":"bytes32","internalType":"bytes32"}],"outputs":[],"stateMutability":"nonpayable"},{"type":"function","name":"counterpartyAddress","inputs":[],"outputs":[{"name":"","type":"address","internalType":"address"}],"stateMutability":"view"},{"type":"function","name":"initialize","inputs":[{"name":"_moveToken","type":"address","internalType":"address"},{"name":"owner","type":"address","internalType":"address"},{"name":"_timeLockDuration","type":"uint256","internalType":"uint256"}],"outputs":[],"stateMutability":"nonpayable"},{"type":"function","name":"initiateBridgeTransfer","inputs":[{"name":"moveAmount","type":"uint256","internalType":"uint256"},{"name":"recipient","type":"bytes32","internalType":"bytes32"},{"name":"hashLock","type":"bytes32","internalType":"bytes32"}],"outputs":[{"name":"bridgeTransferId","type":"bytes32","internalType":"bytes32"}],"stateMutability":"nonpayable"},{"type":"function","name":"initiatorTimeLockDuration","inputs":[],"outputs":[{"name":"","type":"uint256","internalType":"uint256"}],"stateMutability":"view"},{"type":"function","name":"moveToken","inputs":[],"outputs":[{"name":"","type":"address","internalType":"contract ERC20Upgradeable"}],"stateMutability":"view"},{"type":"function","name":"owner","inputs":[],"outputs":[{"name":"","type":"address","internalType":"address"}],"stateMutability":"view"},{"type":"function","name":"refundBridgeTransfer","inputs":[{"name":"bridgeTransferId","type":"bytes32","internalType":"bytes32"}],"outputs":[],"stateMutability":"nonpayable"},{"type":"function","name":"renounceOwnership","inputs":[],"outputs":[],"stateMutability":"nonpayable"},{"type":"function","name":"setCounterpartyAddress","inputs":[{"name":"_counterpartyAddress","type":"address","internalType":"address"}],"outputs":[],"stateMutability":"nonpayable"},{"type":"function","name":"transferOwnership","inputs":[{"name":"newOwner","type":"address","internalType":"address"}],"outputs":[],"stateMutability":"nonpayable"},{"type":"function","name":"withdrawMOVE","inputs":[{"name":"recipient","type":"address","internalType":"address"},{"name":"amount","type":"uint256","internalType":"uint256"}],"outputs":[],"stateMutability":"nonpayable"},{"type":"event","name":"BridgeTransferCompleted","inputs":[{"name":"_bridgeTransferId","type":"bytes32","indexed":true,"internalType":"bytes32"},{"name":"pre_image","type":"bytes32","indexed":false,"internalType":"bytes32"}],"anonymous":false},{"type":"event","name":"BridgeTransferInitiated","inputs":[{"name":"_bridgeTransferId","type":"bytes32","indexed":true,"internalType":"bytes32"},{"name":"_originator","type":"address","indexed":true,"internalType":"address"},{"name":"_recipient","type":"bytes32","indexed":true,"internalType":"bytes32"},{"name":"amount","type":"uint256","indexed":false,"internalType":"uint256"},{"name":"_hashLock","type":"bytes32","indexed":false,"internalType":"bytes32"},{"name":"_timeLock","type":"uint256","indexed":false,"internalType":"uint256"}],"anonymous":false},{"type":"event","name":"BridgeTransferRefunded","inputs":[{"name":"_bridgeTransferId","type":"bytes32","indexed":true,"internalType":"bytes32"}],"anonymous":false},{"type":"event","name":"Initialized","inputs":[{"name":"version","type":"uint64","indexed":false,"internalType":"uint64"}],"anonymous":false},{"type":"event","name":"OwnershipTransferred","inputs":[{"name":"previousOwner","type":"address","indexed":true,"internalType":"address"},{"name":"newOwner","type":"address","indexed":true,"internalType":"address"}],"anonymous":false},{"type":"error","name":"BridgeTransferHasBeenCompleted","inputs":[]},{"type":"error","name":"BridgeTransferInvalid","inputs":[]},{"type":"error","name":"BridgeTransferStateNotInitialized","inputs":[]},{"type":"error","name":"InsufficientMOVEBalance","inputs":[]},{"type":"error","name":"InvalidInitialization","inputs":[]},{"type":"error","name":"InvalidSecret","inputs":[]},{"type":"error","name":"MOVETransferFailed","inputs":[]},{"type":"error","name":"NotInitializing","inputs":[]},{"type":"error","name":"OwnableInvalidOwner","inputs":[{"name":"owner","type":"address","internalType":"address"}]},{"type":"error","name":"OwnableUnauthorizedAccount","inputs":[{"name":"account","type":"address","internalType":"address"}]},{"type":"error","name":"TimeLockNotExpired","inputs":[]},{"type":"error","name":"TimelockExpired","inputs":[]},{"type":"error","name":"Unauthorized","inputs":[]},{"type":"error","name":"ZeroAddress","inputs":[]},{"type":"error","name":"ZeroAmount","inputs":[]}],"bytecode":{"object":"0x6080604052348015600e575f80fd5b50610f128061001c5f395ff3fe608060405234801561000f575f80fd5b50600436106100ca575f3560e01c8063715018a611610088578063cacfb16111610063578063cacfb161146101ae578063e0d9cbc4146101c1578063e20c95ec14610222578063f2fde38b14610235575f80fd5b8063715018a6146101635780638da5cb5b1461016b5780639f8f87991461019b575f80fd5b80621a153e146100ce5780631794bb3c146100e35780631a8849a4146100f65780631f92c08e1461011c5780632b3948bb146101475780635780802014610150575b5f80fd5b6100e16100dc366004610c2f565b610248565b005b6100e16100f1366004610c4f565b610299565b610109610104366004610c89565b610405565b6040519081526020015b60405180910390f35b60015461012f906001600160a01b031681565b6040516001600160a01b039091168152602001610113565b61010960045481565b6100e161015e366004610cb2565b6106df565b6100e1610827565b7f9016d09d72d40fdae2fd8ceac6b6234c7706214fd39c1cd1e609a0528c199300546001600160a01b031661012f565b6100e16101a9366004610cc9565b61083a565b6100e16101bc366004610ce9565b61093a565b6102106101cf366004610cb2565b5f6020819052908152604090208054600182015460028301546003840154600485015460059095015493946001600160a01b03909316939192909160ff1686565b60405161011396959493929190610d25565b60025461012f906001600160a01b031681565b6100e1610243366004610c2f565b6109f9565b610250610a3b565b6001600160a01b0381166102775760405163d92e233d60e01b815260040160405180910390fd5b600180546001600160a01b0319166001600160a01b0392909216919091179055565b7ff0c57e16840df040f15088dc2f81fe391c3923bec73e23a9662efc9c229c6a008054600160401b810460ff16159067ffffffffffffffff165f811580156102de5750825b90505f8267ffffffffffffffff1660011480156102fa5750303b155b905081158015610308575080155b156103265760405163f92ee8a960e01b815260040160405180910390fd5b845467ffffffffffffffff19166001178555831561035057845460ff60401b1916600160401b1785555b6001600160a01b03881615801561036e57506001600160a01b038716155b1561038c5760405163d92e233d60e01b815260040160405180910390fd5b600280546001600160a01b0319166001600160a01b038a161790556103b087610a96565b600486905583156103fb57845460ff60401b19168555604051600181527fc7f505b2f371ae2175ee4913f4499e1f2633a7b5936321eed1cdaeb6115181d29060200160405180910390a15b5050505050505050565b5f8033905061042c604051806060016040528060248152602001610e676024913986610aa7565b845f0361044c57604051631f2a200560e01b815260040160405180910390fd5b61046d604051806060016040528060248152602001610e4360249139610aec565b6002546040516323b872dd60e01b81526001600160a01b03838116600483015230602483015260448201889052909116906323b872dd906064016020604051808303815f875af11580156104c3573d5f803e3d5ffd5b505050506040513d601f19601f820116820180604052508101906104e79190610d7d565b6105255761050c6040518060600160405280602a8152602001610eb3602a9139610aec565b604051631a67cf2760e31b815260040160405180910390fd5b610546604051806060016040528060288152602001610e8b60289139610aec565b8084846004544260035f81548092919061055f90610db0565b9091555060405160609690961b6bffffffffffffffffffffffff19166020870152603486019490945260548501929092526074840152609483015260b482015260d4016040516020818303038152906040528051906020012091506040518060c00160405280868152602001826001600160a01b03168152602001858152602001848152602001600454426105f49190610dc8565b81525f60209182018190528481528082526040908190208351815591830151600180840180546001600160a01b0319166001600160a01b039093169290921790915590830151600280840191909155606084015160038401556080840151600484015560a08401516005840180549193909260ff1990921691849081111561067e5761067e610d11565b021790555050600454604080518881526020810187905280820192909252518692506001600160a01b0384169185917f44e287be4fbd3a2dcc143a376301094fd2f809dcc2a8d3c09d0a0715224766c49181900360600190a4509392505050565b6106e7610a3b565b5f81815260208190526040812090600582015460ff16600281111561070e5761070e610d11565b1461072c57604051630ffb9dcb60e01b815260040160405180910390fd5b80600401544210156107515760405163191f4d1b60e31b815260040160405180910390fd5b60058101805460ff19166002908117909155546001820154825460405163a9059cbb60e01b81526001600160a01b039283166004820152602481019190915291169063a9059cbb906044016020604051808303815f875af11580156107b8573d5f803e3d5ffd5b505050506040513d601f19601f820116820180604052508101906107dc9190610d7d565b6107f957604051631a67cf2760e31b815260040160405180910390fd5b60405182907f4fee0a65c921e50a9623c3abe10a4067e49c03ef491e7b406dace7cb79c12c61905f90a25050565b61082f610a3b565b6108385f610b2f565b565b610842610a3b565b5f82815260208190526040812090600582015460ff16600281111561086957610869610d11565b1461088757604051630437880960e41b815260040160405180910390fd5b600381015460408051602081018590520160405160208183030381529060405280519060200120146108cc5760405163abab6bd760e01b815260040160405180910390fd5b80600401544211156108f157604051633d37e55360e11b815260040160405180910390fd5b60058101805460ff1916600117905560405182815283907f05ddc886acde01b77731bfad1dcfb6abf529f05c28ea66556fe87429bb2789ea9060200160405180910390a2505050565b6001546001600160a01b03163314610964576040516282b42960e81b815260040160405180910390fd5b60025460405163a9059cbb60e01b81526001600160a01b038481166004830152602482018490529091169063a9059cbb906044016020604051808303815f875af11580156109b4573d5f803e3d5ffd5b505050506040513d601f19601f820116820180604052508101906109d89190610d7d565b6109f557604051631a67cf2760e31b815260040160405180910390fd5b5050565b610a01610a3b565b6001600160a01b038116610a2f57604051631e4fbdf760e01b81525f60048201526024015b60405180910390fd5b610a3881610b2f565b50565b33610a6d7f9016d09d72d40fdae2fd8ceac6b6234c7706214fd39c1cd1e609a0528c199300546001600160a01b031690565b6001600160a01b0316146108385760405163118cdaa760e01b8152336004820152602401610a26565b610a9e610b9f565b610a3881610be8565b6109f58282604051602401610abd929190610e0f565b60408051601f198184030181529190526020810180516001600160e01b03166309710a9d60e41b179052610bf0565b610a3881604051602401610b009190610e30565b60408051601f198184030181529190526020810180516001600160e01b031663104c13eb60e21b179052610bf0565b7f9016d09d72d40fdae2fd8ceac6b6234c7706214fd39c1cd1e609a0528c19930080546001600160a01b031981166001600160a01b03848116918217845560405192169182907f8be0079c531659141344cd1fd0a4f28419497f9722a3daafe3b4186f6b6457e0905f90a3505050565b7ff0c57e16840df040f15088dc2f81fe391c3923bec73e23a9662efc9c229c6a0054600160401b900460ff1661083857604051631afcd79f60e31b815260040160405180910390fd5b610a01610b9f565b610a388180516a636f6e736f6c652e6c6f67602083015f808483855afa5050505050565b80356001600160a01b0381168114610c2a575f80fd5b919050565b5f60208284031215610c3f575f80fd5b610c4882610c14565b9392505050565b5f805f60608486031215610c61575f80fd5b610c6a84610c14565b9250610c7860208501610c14565b929592945050506040919091013590565b5f805f60608486031215610c9b575f80fd5b505081359360208301359350604090920135919050565b5f60208284031215610cc2575f80fd5b5035919050565b5f8060408385031215610cda575f80fd5b50508035926020909101359150565b5f8060408385031215610cfa575f80fd5b610d0383610c14565b946020939093013593505050565b634e487b7160e01b5f52602160045260245ffd5b8681526001600160a01b038616602082015260408101859052606081018490526080810183905260c0810160038310610d6c57634e487b7160e01b5f52602160045260245ffd5b8260a0830152979650505050505050565b5f60208284031215610d8d575f80fd5b81518015158114610c48575f80fd5b634e487b7160e01b5f52601160045260245ffd5b5f60018201610dc157610dc1610d9c565b5060010190565b80820180821115610ddb57610ddb610d9c565b92915050565b5f81518084528060208401602086015e5f602082860101526020601f19601f83011685010191505092915050565b604081525f610e216040830185610de1565b90508260208301529392505050565b602081525f610c486020830184610de156fe49434920696e6974696174654272696467655472616e7366657220616d6f756e74206f6b49434920696e6974696174654272696467655472616e7366657220616d6f756e743a256449434920696e6974696174654272696467655472616e73666572207472616e7366657220646f6e6549434920696e6974696174654272696467655472616e73666572207472616e73666572206661696c6564a2646970667358221220dbc1287e070407f5f042bca246ce1f47c5cde1bbeea1cf5e9006b7483386cf4764736f6c634300081a0033","linkReferences":{}},"methodIdentifiers":{"bridgeTransfers(bytes32)":"e0d9cbc4","completeBridgeTransfer(bytes32,bytes32)":"9f8f8799","counterpartyAddress()":"1f92c08e","initialize(address,address,uint256)":"1794bb3c","initiateBridgeTransfer(uint256,bytes32,bytes32)":"1a8849a4","initiatorTimeLockDuration()":"2b3948bb","moveToken()":"e20c95ec","owner()":"8da5cb5b","refundBridgeTransfer(bytes32)":"57808020","renounceOwnership()":"715018a6","setCounterpartyAddress(address)":"001a153e","transferOwnership(address)":"f2fde38b","withdrawMOVE(address,uint256)":"cacfb161"},"id":43}