{"abi":[{"type":"function","name":"bridgeTransfers","inputs":[{"name":"","type":"bytes32","internalType":"bytes32"}],"outputs":[{"name":"amount","type":"uint256","internalType":"uint256"},{"name":"originator","type":"address","internalType":"address"},{"name":"recipient","type":"bytes32","internalType":"bytes32"},{"name":"hashLock","type":"bytes32","internalType":"bytes32"},{"name":"timeLock","type":"uint256","internalType":"uint256"},{"name":"state","type":"uint8","internalType":"enum AtomicBridgeInitiatorMOVE.MessageState"}],"stateMutability":"view"},{"type":"function","name":"completeBridgeTransfer","inputs":[{"name":"bridgeTransferId","type":"bytes32","internalType":"bytes32"},{"name":"preImage","type":"bytes32","internalType":"bytes32"}],"outputs":[],"stateMutability":"nonpayable"},{"type":"function","name":"counterpartyAddress","inputs":[],"outputs":[{"name":"","type":"address","internalType":"address"}],"stateMutability":"view"},{"type":"function","name":"initialize","inputs":[{"name":"_moveToken","type":"address","internalType":"address"},{"name":"owner","type":"address","internalType":"address"},{"name":"_timeLockDuration","type":"uint256","internalType":"uint256"},{"name":"_initialPoolBalance","type":"uint256","internalType":"uint256"}],"outputs":[],"stateMutability":"nonpayable"},{"type":"function","name":"initiateBridgeTransfer","inputs":[{"name":"moveAmount","type":"uint256","internalType":"uint256"},{"name":"recipient","type":"bytes32","internalType":"bytes32"},{"name":"hashLock","type":"bytes32","internalType":"bytes32"}],"outputs":[{"name":"bridgeTransferId","type":"bytes32","internalType":"bytes32"}],"stateMutability":"nonpayable"},{"type":"function","name":"initiatorTimeLockDuration","inputs":[],"outputs":[{"name":"","type":"uint256","internalType":"uint256"}],"stateMutability":"view"},{"type":"function","name":"moveToken","inputs":[],"outputs":[{"name":"","type":"address","internalType":"contract ERC20Upgradeable"}],"stateMutability":"view"},{"type":"function","name":"owner","inputs":[],"outputs":[{"name":"","type":"address","internalType":"address"}],"stateMutability":"view"},{"type":"function","name":"poolBalance","inputs":[],"outputs":[{"name":"","type":"uint256","internalType":"uint256"}],"stateMutability":"view"},{"type":"function","name":"refundBridgeTransfer","inputs":[{"name":"bridgeTransferId","type":"bytes32","internalType":"bytes32"}],"outputs":[],"stateMutability":"nonpayable"},{"type":"function","name":"renounceOwnership","inputs":[],"outputs":[],"stateMutability":"nonpayable"},{"type":"function","name":"setCounterpartyAddress","inputs":[{"name":"_counterpartyAddress","type":"address","internalType":"address"}],"outputs":[],"stateMutability":"nonpayable"},{"type":"function","name":"transferOwnership","inputs":[{"name":"newOwner","type":"address","internalType":"address"}],"outputs":[],"stateMutability":"nonpayable"},{"type":"function","name":"withdrawMOVE","inputs":[{"name":"recipient","type":"address","internalType":"address"},{"name":"amount","type":"uint256","internalType":"uint256"}],"outputs":[],"stateMutability":"nonpayable"},{"type":"event","name":"BridgeTransferCompleted","inputs":[{"name":"_bridgeTransferId","type":"bytes32","indexed":true,"internalType":"bytes32"},{"name":"pre_image","type":"bytes32","indexed":false,"internalType":"bytes32"}],"anonymous":false},{"type":"event","name":"BridgeTransferInitiated","inputs":[{"name":"_bridgeTransferId","type":"bytes32","indexed":true,"internalType":"bytes32"},{"name":"_originator","type":"address","indexed":true,"internalType":"address"},{"name":"_recipient","type":"bytes32","indexed":true,"internalType":"bytes32"},{"name":"amount","type":"uint256","indexed":false,"internalType":"uint256"},{"name":"_hashLock","type":"bytes32","indexed":false,"internalType":"bytes32"},{"name":"_timeLock","type":"uint256","indexed":false,"internalType":"uint256"}],"anonymous":false},{"type":"event","name":"BridgeTransferRefunded","inputs":[{"name":"_bridgeTransferId","type":"bytes32","indexed":true,"internalType":"bytes32"}],"anonymous":false},{"type":"event","name":"Initialized","inputs":[{"name":"version","type":"uint64","indexed":false,"internalType":"uint64"}],"anonymous":false},{"type":"event","name":"OwnershipTransferred","inputs":[{"name":"previousOwner","type":"address","indexed":true,"internalType":"address"},{"name":"newOwner","type":"address","indexed":true,"internalType":"address"}],"anonymous":false},{"type":"error","name":"BridgeTransferHasBeenCompleted","inputs":[]},{"type":"error","name":"BridgeTransferInvalid","inputs":[]},{"type":"error","name":"BridgeTransferStateNotInitialized","inputs":[]},{"type":"error","name":"InsufficientMOVEBalance","inputs":[]},{"type":"error","name":"InvalidInitialization","inputs":[]},{"type":"error","name":"InvalidSecret","inputs":[]},{"type":"error","name":"MOVETransferFailed","inputs":[]},{"type":"error","name":"NotInitializing","inputs":[]},{"type":"error","name":"OwnableInvalidOwner","inputs":[{"name":"owner","type":"address","internalType":"address"}]},{"type":"error","name":"OwnableUnauthorizedAccount","inputs":[{"name":"account","type":"address","internalType":"address"}]},{"type":"error","name":"TimeLockNotExpired","inputs":[]},{"type":"error","name":"TimelockExpired","inputs":[]},{"type":"error","name":"Unauthorized","inputs":[]},{"type":"error","name":"ZeroAddress","inputs":[]},{"type":"error","name":"ZeroAmount","inputs":[]}],"bytecode":{"object":"0x6080604052348015600e575f80fd5b50610ecf8061001c5f395ff3fe608060405234801561000f575f80fd5b50600436106100e4575f3560e01c806396365d4411610088578063e0d9cbc411610063578063e0d9cbc4146101d1578063e20c95ec14610232578063eb990c5914610245578063f2fde38b14610258575f80fd5b806396365d44146101a25780639f8f8799146101ab578063cacfb161146101be575f80fd5b80632b3948bb116100c35780632b3948bb1461014e5780635780802014610157578063715018a61461016a5780638da5cb5b14610172575f80fd5b80621a153e146100e85780631a8849a4146100fd5780631f92c08e14610123575b5f80fd5b6100fb6100f6366004610ccf565b61026b565b005b61011061010b366004610cef565b6102de565b6040519081526020015b60405180910390f35b600254610136906001600160a01b031681565b6040516001600160a01b03909116815260200161011a565b61011060055481565b6100fb610165366004610d18565b610580565b6100fb610740565b7f9016d09d72d40fdae2fd8ceac6b6234c7706214fd39c1cd1e609a0528c199300546001600160a01b0316610136565b61011060015481565b6100fb6101b9366004610d2f565b610753565b6100fb6101cc366004610d4f565b6108c2565b6102206101df366004610d18565b5f6020819052908152604090208054600182015460028301546003840154600485015460059095015493946001600160a01b03909316939192909160ff1686565b60405161011a96959493929190610d8b565b600354610136906001600160a01b031681565b6100fb610253366004610de3565b6109ba565b6100fb610266366004610ccf565b610b4a565b610273610b87565b6001600160a01b0381166102bc5760405162461bcd60e51b815260206004820152600b60248201526a5a65726f4164647265737360a81b60448201526064015b60405180910390fd5b600280546001600160a01b0319166001600160a01b0392909216919091179055565b5f338461031a5760405162461bcd60e51b815260206004820152600a60248201526916995c9bd05b5bdd5b9d60b21b60448201526064016102b3565b845f0361033a57604051631f2a200560e01b815260040160405180910390fd5b6003546040516323b872dd60e01b81526001600160a01b03838116600483015230602483015260448201889052909116906323b872dd906064016020604051808303815f875af1158015610390573d5f803e3d5ffd5b505050506040513d601f19601f820116820180604052508101906103b49190610e22565b6103d157604051631a67cf2760e31b815260040160405180910390fd5b8460015f8282546103e29190610e55565b90915550506005546004805483928792879242915f61040083610e6e565b9091555060405160609690961b6bffffffffffffffffffffffff19166020870152603486019490945260548501929092526074840152609483015260b482015260d4016040516020818303038152906040528051906020012091506040518060c00160405280868152602001826001600160a01b03168152602001858152602001848152602001600554426104959190610e55565b81525f60209182018190528481528082526040908190208351815591830151600180840180546001600160a01b0319166001600160a01b039093169290921790915590830151600280840191909155606084015160038401556080840151600484015560a08401516005840180549193909260ff1990921691849081111561051f5761051f610d77565b021790555050600554604080518881526020810187905280820192909252518692506001600160a01b0384169185917f44e287be4fbd3a2dcc143a376301094fd2f809dcc2a8d3c09d0a0715224766c49181900360600190a4509392505050565b5f81815260208190526040812090600582015460ff1660028111156105a7576105a7610d77565b146105fe5760405162461bcd60e51b815260206004820152602160248201527f4272696467655472616e7366657253746174654e6f74496e697469616c697a656044820152601960fa1b60648201526084016102b3565b80600401544210156106475760405162461bcd60e51b8152602060048201526012602482015271151a5b59531bd8dad39bdd115e1c1a5c995960721b60448201526064016102b3565b60058101805460ff191660021790556003546001820154825460405163a9059cbb60e01b81526001600160a01b039283166004820152602481019190915291169063a9059cbb906044016020604051808303815f875af11580156106ad573d5f803e3d5ffd5b505050506040513d601f19601f820116820180604052508101906106d19190610e22565b6107125760405162461bcd60e51b81526020600482015260126024820152711353d591551c985b9cd9995c91985a5b195960721b60448201526064016102b3565b60405182907f4fee0a65c921e50a9623c3abe10a4067e49c03ef491e7b406dace7cb79c12c61905f90a25050565b610748610b87565b6107515f610be2565b565b61075b610b87565b5f82815260208190526040812090600582015460ff16600281111561078257610782610d77565b146107cf5760405162461bcd60e51b815260206004820152601e60248201527f4272696467655472616e736665724861734265656e436f6d706c65746564000060448201526064016102b3565b600381015460408051602081018590520160405160208183030381529060405280519060200120146108335760405162461bcd60e51b815260206004820152600d60248201526c125b9d985b1a5914d958dc995d609a1b60448201526064016102b3565b80600401544211156108795760405162461bcd60e51b815260206004820152600f60248201526e151a5b595b1bd8dad15e1c1a5c9959608a1b60448201526064016102b3565b60058101805460ff1916600117905560405182815283907f05ddc886acde01b77731bfad1dcfb6abf529f05c28ea66556fe87429bb2789ea9060200160405180910390a2505050565b6002546001600160a01b031633146108ec576040516282b42960e81b815260040160405180910390fd5b80600154101561090f576040516381a6aee360e01b815260040160405180910390fd5b8060015f8282546109209190610e86565b909155505060035460405163a9059cbb60e01b81526001600160a01b038481166004830152602482018490529091169063a9059cbb906044016020604051808303815f875af1158015610975573d5f803e3d5ffd5b505050506040513d601f19601f820116820180604052508101906109999190610e22565b6109b657604051631a67cf2760e31b815260040160405180910390fd5b5050565b7ff0c57e16840df040f15088dc2f81fe391c3923bec73e23a9662efc9c229c6a008054600160401b810460ff16159067ffffffffffffffff165f811580156109ff5750825b90505f8267ffffffffffffffff166001148015610a1b5750303b155b905081158015610a29575080155b15610a475760405163f92ee8a960e01b815260040160405180910390fd5b845467ffffffffffffffff191660011785558315610a7157845460ff60401b1916600160401b1785555b6001600160a01b03891615801590610a9157506001600160a01b03881615155b610acb5760405162461bcd60e51b815260206004820152600b60248201526a5a65726f4164647265737360a81b60448201526064016102b3565b600380546001600160a01b0319166001600160a01b038b16179055610aef88610c52565b600587905560018690558315610b3f57845460ff60401b19168555604051600181527fc7f505b2f371ae2175ee4913f4499e1f2633a7b5936321eed1cdaeb6115181d29060200160405180910390a15b505050505050505050565b610b52610b87565b6001600160a01b038116610b7b57604051631e4fbdf760e01b81525f60048201526024016102b3565b610b8481610be2565b50565b33610bb97f9016d09d72d40fdae2fd8ceac6b6234c7706214fd39c1cd1e609a0528c199300546001600160a01b031690565b6001600160a01b0316146107515760405163118cdaa760e01b81523360048201526024016102b3565b7f9016d09d72d40fdae2fd8ceac6b6234c7706214fd39c1cd1e609a0528c19930080546001600160a01b031981166001600160a01b03848116918217845560405192169182907f8be0079c531659141344cd1fd0a4f28419497f9722a3daafe3b4186f6b6457e0905f90a3505050565b610c5a610c63565b610b8481610cac565b7ff0c57e16840df040f15088dc2f81fe391c3923bec73e23a9662efc9c229c6a0054600160401b900460ff1661075157604051631afcd79f60e31b815260040160405180910390fd5b610b52610c63565b80356001600160a01b0381168114610cca575f80fd5b919050565b5f60208284031215610cdf575f80fd5b610ce882610cb4565b9392505050565b5f805f60608486031215610d01575f80fd5b505081359360208301359350604090920135919050565b5f60208284031215610d28575f80fd5b5035919050565b5f8060408385031215610d40575f80fd5b50508035926020909101359150565b5f8060408385031215610d60575f80fd5b610d6983610cb4565b946020939093013593505050565b634e487b7160e01b5f52602160045260245ffd5b8681526001600160a01b038616602082015260408101859052606081018490526080810183905260c0810160038310610dd257634e487b7160e01b5f52602160045260245ffd5b8260a0830152979650505050505050565b5f805f8060808587031215610df6575f80fd5b610dff85610cb4565b9350610e0d60208601610cb4565b93969395505050506040820135916060013590565b5f60208284031215610e32575f80fd5b81518015158114610ce8575f80fd5b634e487b7160e01b5f52601160045260245ffd5b80820180821115610e6857610e68610e41565b92915050565b5f60018201610e7f57610e7f610e41565b5060010190565b81810381811115610e6857610e68610e4156fea264697066735822122005f975a8a8fa8ee2ccdc98a7f0d922184b6276f4f8fd040834da1d1d34fa214d64736f6c634300081a0033","linkReferences":{}},"methodIdentifiers":{"bridgeTransfers(bytes32)":"e0d9cbc4","completeBridgeTransfer(bytes32,bytes32)":"9f8f8799","counterpartyAddress()":"1f92c08e","initialize(address,address,uint256,uint256)":"eb990c59","initiateBridgeTransfer(uint256,bytes32,bytes32)":"1a8849a4","initiatorTimeLockDuration()":"2b3948bb","moveToken()":"e20c95ec","owner()":"8da5cb5b","poolBalance()":"96365d44","refundBridgeTransfer(bytes32)":"57808020","renounceOwnership()":"715018a6","setCounterpartyAddress(address)":"001a153e","transferOwnership(address)":"f2fde38b","withdrawMOVE(address,uint256)":"cacfb161"},"id":43}