{"abi":[{"type":"function","name":"bridgeTransfers","inputs":[{"name":"","type":"bytes32","internalType":"bytes32"}],"outputs":[{"name":"amount","type":"uint256","internalType":"uint256"},{"name":"originator","type":"address","internalType":"address"},{"name":"recipient","type":"bytes32","internalType":"bytes32"},{"name":"hashLock","type":"bytes32","internalType":"bytes32"},{"name":"timeLock","type":"uint256","internalType":"uint256"},{"name":"state","type":"uint8","internalType":"enum AtomicBridgeInitiator.MessageState"}],"stateMutability":"view"},{"type":"function","name":"completeBridgeTransfer","inputs":[{"name":"bridgeTransferId","type":"bytes32","internalType":"bytes32"},{"name":"preImage","type":"bytes32","internalType":"bytes32"}],"outputs":[],"stateMutability":"nonpayable"},{"type":"function","name":"counterpartyAddress","inputs":[],"outputs":[{"name":"","type":"address","internalType":"address"}],"stateMutability":"view"},{"type":"function","name":"initialize","inputs":[{"name":"_weth","type":"address","internalType":"address"},{"name":"owner","type":"address","internalType":"address"},{"name":"_timeLockDuration","type":"uint256","internalType":"uint256"},{"name":"_initialPoolBalance","type":"uint256","internalType":"uint256"}],"outputs":[],"stateMutability":"nonpayable"},{"type":"function","name":"initiateBridgeTransfer","inputs":[{"name":"wethAmount","type":"uint256","internalType":"uint256"},{"name":"recipient","type":"bytes32","internalType":"bytes32"},{"name":"hashLock","type":"bytes32","internalType":"bytes32"}],"outputs":[{"name":"bridgeTransferId","type":"bytes32","internalType":"bytes32"}],"stateMutability":"payable"},{"type":"function","name":"initiatorTimeLockDuration","inputs":[],"outputs":[{"name":"","type":"uint256","internalType":"uint256"}],"stateMutability":"view"},{"type":"function","name":"owner","inputs":[],"outputs":[{"name":"","type":"address","internalType":"address"}],"stateMutability":"view"},{"type":"function","name":"poolBalance","inputs":[],"outputs":[{"name":"","type":"uint256","internalType":"uint256"}],"stateMutability":"view"},{"type":"function","name":"refundBridgeTransfer","inputs":[{"name":"bridgeTransferId","type":"bytes32","internalType":"bytes32"}],"outputs":[],"stateMutability":"nonpayable"},{"type":"function","name":"renounceOwnership","inputs":[],"outputs":[],"stateMutability":"nonpayable"},{"type":"function","name":"setCounterpartyAddress","inputs":[{"name":"_counterpartyAddress","type":"address","internalType":"address"}],"outputs":[],"stateMutability":"nonpayable"},{"type":"function","name":"transferOwnership","inputs":[{"name":"newOwner","type":"address","internalType":"address"}],"outputs":[],"stateMutability":"nonpayable"},{"type":"function","name":"weth","inputs":[],"outputs":[{"name":"","type":"address","internalType":"contract IWETH9"}],"stateMutability":"view"},{"type":"function","name":"withdrawWETH","inputs":[{"name":"recipient","type":"address","internalType":"address"},{"name":"amount","type":"uint256","internalType":"uint256"}],"outputs":[],"stateMutability":"nonpayable"},{"type":"event","name":"BridgeTransferCompleted","inputs":[{"name":"_bridgeTransferId","type":"bytes32","indexed":true,"internalType":"bytes32"},{"name":"pre_image","type":"bytes32","indexed":false,"internalType":"bytes32"}],"anonymous":false},{"type":"event","name":"BridgeTransferInitiated","inputs":[{"name":"_bridgeTransferId","type":"bytes32","indexed":true,"internalType":"bytes32"},{"name":"_originator","type":"address","indexed":true,"internalType":"address"},{"name":"_recipient","type":"bytes32","indexed":true,"internalType":"bytes32"},{"name":"amount","type":"uint256","indexed":false,"internalType":"uint256"},{"name":"_hashLock","type":"bytes32","indexed":false,"internalType":"bytes32"},{"name":"_timeLock","type":"uint256","indexed":false,"internalType":"uint256"}],"anonymous":false},{"type":"event","name":"BridgeTransferRefunded","inputs":[{"name":"_bridgeTransferId","type":"bytes32","indexed":true,"internalType":"bytes32"}],"anonymous":false},{"type":"event","name":"Initialized","inputs":[{"name":"version","type":"uint64","indexed":false,"internalType":"uint64"}],"anonymous":false},{"type":"event","name":"OwnershipTransferred","inputs":[{"name":"previousOwner","type":"address","indexed":true,"internalType":"address"},{"name":"newOwner","type":"address","indexed":true,"internalType":"address"}],"anonymous":false},{"type":"error","name":"BridgeTransferHasBeenCompleted","inputs":[]},{"type":"error","name":"BridgeTransferInvalid","inputs":[]},{"type":"error","name":"BridgeTransferStateNotInitialized","inputs":[]},{"type":"error","name":"InsufficientWethBalance","inputs":[]},{"type":"error","name":"InvalidInitialization","inputs":[]},{"type":"error","name":"InvalidSecret","inputs":[]},{"type":"error","name":"NotInitializing","inputs":[]},{"type":"error","name":"OwnableInvalidOwner","inputs":[{"name":"owner","type":"address","internalType":"address"}]},{"type":"error","name":"OwnableUnauthorizedAccount","inputs":[{"name":"account","type":"address","internalType":"address"}]},{"type":"error","name":"TimeLockExpired","inputs":[]},{"type":"error","name":"TimeLockNotExpired","inputs":[]},{"type":"error","name":"Unauthorized","inputs":[]},{"type":"error","name":"WETHTransferFailed","inputs":[]},{"type":"error","name":"ZeroAddress","inputs":[]},{"type":"error","name":"ZeroAmount","inputs":[]}],"bytecode":{"object":"0x6080604052348015600e575f80fd5b50610e7e8061001c5f395ff3fe6080604052600436106100d8575f3560e01c80638da5cb5b1161007c5780639f8f8799116100575780639f8f879914610231578063e0d9cbc414610250578063eb990c59146102bd578063f2fde38b146102dc575f80fd5b80638da5cb5b146101c157806393113b5c146101fd57806396365d441461021c575f80fd5b80632b3948bb116100b75780632b3948bb1461015a5780633fc8cef31461016f578063578080201461018e578063715018a6146101ad575f80fd5b80621a153e146100dc5780631a8849a4146100fd5780631f92c08e14610123575b5f80fd5b3480156100e7575f80fd5b506100fb6100f6366004610c7e565b6102fb565b005b61011061010b366004610c9e565b61034c565b6040519081526020015b60405180910390f35b34801561012e575f80fd5b50600254610142906001600160a01b031681565b6040516001600160a01b03909116815260200161011a565b348015610165575f80fd5b5061011060055481565b34801561017a575f80fd5b50600354610142906001600160a01b031681565b348015610199575f80fd5b506100fb6101a8366004610cc7565b610635565b3480156101b8575f80fd5b506100fb610794565b3480156101cc575f80fd5b507f9016d09d72d40fdae2fd8ceac6b6234c7706214fd39c1cd1e609a0528c199300546001600160a01b0316610142565b348015610208575f80fd5b506100fb610217366004610cde565b6107a7565b348015610227575f80fd5b5061011060015481565b34801561023c575f80fd5b506100fb61024b366004610d06565b61089f565b34801561025b575f80fd5b506102ab61026a366004610cc7565b5f6020819052908152604090208054600182015460028301546003840154600485015460059095015493946001600160a01b03909316939192909160ff1686565b60405161011a96959493929190610d3a565b3480156102c8575f80fd5b506100fb6102d7366004610d92565b610997565b3480156102e7575f80fd5b506100fb6102f6366004610c7e565b610af4565b610303610b36565b6001600160a01b03811661032a5760405163d92e233d60e01b815260040160405180910390fd5b600280546001600160a01b0319166001600160a01b0392909216919091179055565b5f33348261035a8288610de5565b9050805f0361037c57604051631f2a200560e01b815260040160405180910390fd5b81156103e75760035f9054906101000a90046001600160a01b03166001600160a01b031663d0e30db0836040518263ffffffff1660e01b81526004015f604051808303818588803b1580156103cf575f80fd5b505af11580156103e1573d5f803e3d5ffd5b50505050505b8615610484576003546040516323b872dd60e01b81526001600160a01b038581166004830152306024830152604482018a9052909116906323b872dd906064016020604051808303815f875af1158015610443573d5f803e3d5ffd5b505050506040513d601f19601f820116820180604052508101906104679190610dfe565b61048457604051630dd0c8f760e41b815260040160405180910390fd5b8060015f8282546104959190610de5565b90915550506005546004805485928992899242915f6104b383610e1d565b9091555060405160609690961b6bffffffffffffffffffffffff19166020870152603486019490945260548501929092526074840152609483015260b482015260d4016040516020818303038152906040528051906020012093506040518060c00160405280828152602001846001600160a01b03168152602001878152602001868152602001600554426105489190610de5565b81525f60209182018190528681528082526040908190208351815591830151600180840180546001600160a01b0319166001600160a01b039093169290921790915590830151600280840191909155606084015160038401556080840151600484015560a08401516005840180549193909260ff199092169184908111156105d2576105d2610d26565b021790555050600554604080518481526020810189905280820192909252518892506001600160a01b0386169187917f44e287be4fbd3a2dcc143a376301094fd2f809dcc2a8d3c09d0a0715224766c49181900360600190a45050509392505050565b61063d610b36565b5f81815260208190526040812090600582015460ff16600281111561066457610664610d26565b1461068257604051630ffb9dcb60e01b815260040160405180910390fd5b80600401544210156106a75760405163191f4d1b60e31b815260040160405180910390fd5b60058101805460ff191660021790558054600180545f906106c9908490610e35565b90915550506003546001820154825460405163a9059cbb60e01b81526001600160a01b039283166004820152602481019190915291169063a9059cbb906044016020604051808303815f875af1158015610725573d5f803e3d5ffd5b505050506040513d601f19601f820116820180604052508101906107499190610dfe565b61076657604051630dd0c8f760e41b815260040160405180910390fd5b60405182907f4fee0a65c921e50a9623c3abe10a4067e49c03ef491e7b406dace7cb79c12c61905f90a25050565b61079c610b36565b6107a55f610b91565b565b6002546001600160a01b031633146107d1576040516282b42960e81b815260040160405180910390fd5b8060015410156107f4576040516318fb0fc360e11b815260040160405180910390fd5b8060015f8282546108059190610e35565b909155505060035460405163a9059cbb60e01b81526001600160a01b038481166004830152602482018490529091169063a9059cbb906044016020604051808303815f875af115801561085a573d5f803e3d5ffd5b505050506040513d601f19601f8201168201806040525081019061087e9190610dfe565b61089b57604051630dd0c8f760e41b815260040160405180910390fd5b5050565b5f82815260208190526040812090600582015460ff1660028111156108c6576108c6610d26565b146108e457604051630437880960e41b815260040160405180910390fd5b600381015460408051602081018590520160405160208183030381529060405280519060200120146109295760405163abab6bd760e01b815260040160405180910390fd5b806004015442111561094e5760405163179a39d160e01b815260040160405180910390fd5b60058101805460ff1916600117905560405182815283907f05ddc886acde01b77731bfad1dcfb6abf529f05c28ea66556fe87429bb2789ea9060200160405180910390a2505050565b7ff0c57e16840df040f15088dc2f81fe391c3923bec73e23a9662efc9c229c6a008054600160401b810460ff16159067ffffffffffffffff165f811580156109dc5750825b90505f8267ffffffffffffffff1660011480156109f85750303b155b905081158015610a06575080155b15610a245760405163f92ee8a960e01b815260040160405180910390fd5b845467ffffffffffffffff191660011785558315610a4e57845460ff60401b1916600160401b1785555b6001600160a01b038916610a755760405163d92e233d60e01b815260040160405180910390fd5b600380546001600160a01b0319166001600160a01b038b16179055610a9988610c01565b600587905560018690558315610ae957845460ff60401b19168555604051600181527fc7f505b2f371ae2175ee4913f4499e1f2633a7b5936321eed1cdaeb6115181d29060200160405180910390a15b505050505050505050565b610afc610b36565b6001600160a01b038116610b2a57604051631e4fbdf760e01b81525f60048201526024015b60405180910390fd5b610b3381610b91565b50565b33610b687f9016d09d72d40fdae2fd8ceac6b6234c7706214fd39c1cd1e609a0528c199300546001600160a01b031690565b6001600160a01b0316146107a55760405163118cdaa760e01b8152336004820152602401610b21565b7f9016d09d72d40fdae2fd8ceac6b6234c7706214fd39c1cd1e609a0528c19930080546001600160a01b031981166001600160a01b03848116918217845560405192169182907f8be0079c531659141344cd1fd0a4f28419497f9722a3daafe3b4186f6b6457e0905f90a3505050565b610c09610c12565b610b3381610c5b565b7ff0c57e16840df040f15088dc2f81fe391c3923bec73e23a9662efc9c229c6a0054600160401b900460ff166107a557604051631afcd79f60e31b815260040160405180910390fd5b610afc610c12565b80356001600160a01b0381168114610c79575f80fd5b919050565b5f60208284031215610c8e575f80fd5b610c9782610c63565b9392505050565b5f805f60608486031215610cb0575f80fd5b505081359360208301359350604090920135919050565b5f60208284031215610cd7575f80fd5b5035919050565b5f8060408385031215610cef575f80fd5b610cf883610c63565b946020939093013593505050565b5f8060408385031215610d17575f80fd5b50508035926020909101359150565b634e487b7160e01b5f52602160045260245ffd5b8681526001600160a01b038616602082015260408101859052606081018490526080810183905260c0810160038310610d8157634e487b7160e01b5f52602160045260245ffd5b8260a0830152979650505050505050565b5f805f8060808587031215610da5575f80fd5b610dae85610c63565b9350610dbc60208601610c63565b93969395505050506040820135916060013590565b634e487b7160e01b5f52601160045260245ffd5b80820180821115610df857610df8610dd1565b92915050565b5f60208284031215610e0e575f80fd5b81518015158114610c97575f80fd5b5f60018201610e2e57610e2e610dd1565b5060010190565b81810381811115610df857610df8610dd156fea264697066735822122064b030fa0a9416bf2a7b91cb90e13c3f26a6aaf62caf8bc25ba15cf3b9e5880964736f6c634300081a0033","linkReferences":{}},"methodIdentifiers":{"bridgeTransfers(bytes32)":"e0d9cbc4","completeBridgeTransfer(bytes32,bytes32)":"9f8f8799","counterpartyAddress()":"1f92c08e","initialize(address,address,uint256,uint256)":"eb990c59","initiateBridgeTransfer(uint256,bytes32,bytes32)":"1a8849a4","initiatorTimeLockDuration()":"2b3948bb","owner()":"8da5cb5b","poolBalance()":"96365d44","refundBridgeTransfer(bytes32)":"57808020","renounceOwnership()":"715018a6","setCounterpartyAddress(address)":"001a153e","transferOwnership(address)":"f2fde38b","weth()":"3fc8cef3","withdrawWETH(address,uint256)":"93113b5c"},"id":44}