{"abi":[{"type":"function","name":"abortBridgeTransfer","inputs":[{"name":"bridgeTransferId","type":"bytes32","internalType":"bytes32"}],"outputs":[],"stateMutability":"nonpayable"},{"type":"function","name":"atomicBridgeInitiatorMOVE","inputs":[],"outputs":[{"name":"","type":"address","internalType":"contract AtomicBridgeInitiatorMOVE"}],"stateMutability":"view"},{"type":"function","name":"bridgeTransfers","inputs":[{"name":"","type":"bytes32","internalType":"bytes32"}],"outputs":[{"name":"originator","type":"bytes32","internalType":"bytes32"},{"name":"recipient","type":"address","internalType":"address"},{"name":"amount","type":"uint256","internalType":"uint256"},{"name":"hashLock","type":"bytes32","internalType":"bytes32"},{"name":"timeLock","type":"uint256","internalType":"uint256"},{"name":"state","type":"uint8","internalType":"enum AtomicBridgeCounterpartyMOVE.MessageState"}],"stateMutability":"view"},{"type":"function","name":"completeBridgeTransfer","inputs":[{"name":"bridgeTransferId","type":"bytes32","internalType":"bytes32"},{"name":"preImage","type":"bytes32","internalType":"bytes32"}],"outputs":[],"stateMutability":"nonpayable"},{"type":"function","name":"counterpartyTimeLockDuration","inputs":[],"outputs":[{"name":"","type":"uint256","internalType":"uint256"}],"stateMutability":"view"},{"type":"function","name":"initialize","inputs":[{"name":"_atomicBridgeInitiator","type":"address","internalType":"address"},{"name":"owner","type":"address","internalType":"address"},{"name":"_timeLockDuration","type":"uint256","internalType":"uint256"}],"outputs":[],"stateMutability":"nonpayable"},{"type":"function","name":"lockBridgeTransfer","inputs":[{"name":"originator","type":"bytes32","internalType":"bytes32"},{"name":"bridgeTransferId","type":"bytes32","internalType":"bytes32"},{"name":"hashLock","type":"bytes32","internalType":"bytes32"},{"name":"recipient","type":"address","internalType":"address"},{"name":"amount","type":"uint256","internalType":"uint256"}],"outputs":[{"name":"","type":"bool","internalType":"bool"}],"stateMutability":"nonpayable"},{"type":"function","name":"owner","inputs":[],"outputs":[{"name":"","type":"address","internalType":"address"}],"stateMutability":"view"},{"type":"function","name":"renounceOwnership","inputs":[],"outputs":[],"stateMutability":"nonpayable"},{"type":"function","name":"setAtomicBridgeInitiator","inputs":[{"name":"_atomicBridgeInitiator","type":"address","internalType":"address"}],"outputs":[],"stateMutability":"nonpayable"},{"type":"function","name":"setTimeLockDuration","inputs":[{"name":"_timeLockDuration","type":"uint256","internalType":"uint256"}],"outputs":[],"stateMutability":"nonpayable"},{"type":"function","name":"transferOwnership","inputs":[{"name":"newOwner","type":"address","internalType":"address"}],"outputs":[],"stateMutability":"nonpayable"},{"type":"event","name":"BridgeTransferAborted","inputs":[{"name":"bridgeTransferId","type":"bytes32","indexed":true,"internalType":"bytes32"}],"anonymous":false},{"type":"event","name":"BridgeTransferCompleted","inputs":[{"name":"bridgeTransferId","type":"bytes32","indexed":true,"internalType":"bytes32"},{"name":"pre_image","type":"bytes32","indexed":false,"internalType":"bytes32"}],"anonymous":false},{"type":"event","name":"BridgeTransferLocked","inputs":[{"name":"bridgeTransferId","type":"bytes32","indexed":true,"internalType":"bytes32"},{"name":"recipient","type":"address","indexed":true,"internalType":"address"},{"name":"amount","type":"uint256","indexed":false,"internalType":"uint256"},{"name":"hashLock","type":"bytes32","indexed":false,"internalType":"bytes32"},{"name":"timeLock","type":"uint256","indexed":false,"internalType":"uint256"}],"anonymous":false},{"type":"event","name":"Initialized","inputs":[{"name":"version","type":"uint64","indexed":false,"internalType":"uint64"}],"anonymous":false},{"type":"event","name":"OwnershipTransferred","inputs":[{"name":"previousOwner","type":"address","indexed":true,"internalType":"address"},{"name":"newOwner","type":"address","indexed":true,"internalType":"address"}],"anonymous":false},{"type":"error","name":"BridgeTransferHasBeenCompleted","inputs":[]},{"type":"error","name":"BridgeTransferInvalid","inputs":[]},{"type":"error","name":"BridgeTransferStateNotInitialized","inputs":[]},{"type":"error","name":"BridgeTransferStateNotPending","inputs":[]},{"type":"error","name":"InsufficientMOVEBalance","inputs":[]},{"type":"error","name":"InvalidInitialization","inputs":[]},{"type":"error","name":"InvalidSecret","inputs":[]},{"type":"error","name":"MOVETransferFailed","inputs":[]},{"type":"error","name":"NotInitializing","inputs":[]},{"type":"error","name":"OwnableInvalidOwner","inputs":[{"name":"owner","type":"address","internalType":"address"}]},{"type":"error","name":"OwnableUnauthorizedAccount","inputs":[{"name":"account","type":"address","internalType":"address"}]},{"type":"error","name":"TimeLockExpired","inputs":[]},{"type":"error","name":"TimeLockNotExpired","inputs":[]},{"type":"error","name":"Unauthorized","inputs":[]},{"type":"error","name":"ZeroAddress","inputs":[]},{"type":"error","name":"ZeroAmount","inputs":[]}],"bytecode":{"object":"0x6080604052348015600e575f80fd5b50610a308061001c5f395ff3fe608060405234801561000f575f80fd5b50600436106100b1575f3560e01c80638da5cb5b1161006e5780638da5cb5b1461014a57806396d17d491461017a5780639f8f879914610191578063c95b659f146101a4578063e0d9cbc4146101b7578063f2fde38b14610219575f80fd5b80631794bb3c146100b557806327b3ea07146100ca5780633b9b4640146100f257806371115eb21461011c578063715018a61461012f5780637ce0874814610137575b5f80fd5b6100c86100c3366004610895565b61022c565b005b6100dd6100d83660046108cf565b610382565b60405190151581526020015b60405180910390f35b5f54610104906001600160a01b031681565b6040516001600160a01b0390911681526020016100e9565b6100c861012a366004610912565b6104e9565b6100c86104f6565b6100c8610145366004610929565b610509565b7f9016d09d72d40fdae2fd8ceac6b6234c7706214fd39c1cd1e609a0528c199300546001600160a01b0316610104565b61018360025481565b6040519081526020016100e9565b6100c861019f366004610949565b610559565b6100c86101b2366004610912565b61065d565b6102076101c5366004610912565b600160208190525f91825260409091208054918101546002820154600383015460048401546005909401546001600160a01b0390931693919290919060ff1686565b6040516100e99695949392919061097d565b6100c8610227366004610929565b61070b565b7ff0c57e16840df040f15088dc2f81fe391c3923bec73e23a9662efc9c229c6a008054600160401b810460ff16159067ffffffffffffffff165f811580156102715750825b90505f8267ffffffffffffffff16600114801561028d5750303b155b90508115801561029b575080155b156102b95760405163f92ee8a960e01b815260040160405180910390fd5b845467ffffffffffffffff1916600117855583156102e357845460ff60401b1916600160401b1785555b6001600160a01b03881661030a5760405163d92e233d60e01b815260040160405180910390fd5b5f80546001600160a01b0319166001600160a01b038a1617905561032d8761074d565b6002869055831561037857845460ff60401b19168555604051600181527fc7f505b2f371ae2175ee4913f4499e1f2633a7b5936321eed1cdaeb6115181d29060200160405180910390a15b5050505050505050565b5f61038b61075e565b815f036103ab57604051631f2a200560e01b815260040160405180910390fd5b5f600254426103ba91906109d5565b90506040518060c00160405280888152602001856001600160a01b031681526020018481526020018681526020018281526020015f600281111561040057610400610969565b90525f87815260016020818152604092839020845181559084015181830180546001600160a01b0319166001600160a01b0390921691909117905591830151600280840191909155606084015160038401556080840151600484015560a08401516005840180549193909260ff1990921691849081111561048357610483610969565b0217905550506002546040805186815260208101899052908101919091526001600160a01b038616915087907fa03230f5967404ba170c5be8445486911e87267000597e4ba9ed9d4b014fa4bd9060600160405180910390a35060019695505050505050565b6104f161075e565b600255565b6104fe61075e565b6105075f6107b9565b565b61051161075e565b6001600160a01b0381166105385760405163d92e233d60e01b815260040160405180910390fd5b5f80546001600160a01b0319166001600160a01b0392909216919091179055565b5f82815260016020526040812090600582015460ff16600281111561058057610580610969565b1461059e5760405163a92c04c760e01b815260040160405180910390fd5b5f826040516020016105b291815260200190565b604051602081830303815290604052805190602001209050816003015481146105ee5760405163abab6bd760e01b815260040160405180910390fd5b81600401544211156106135760405163179a39d160e01b815260040160405180910390fd5b60058201805460ff1916600117905560405183815284907f05ddc886acde01b77731bfad1dcfb6abf529f05c28ea66556fe87429bb2789ea9060200160405180910390a250505050565b61066561075e565b5f81815260016020526040812090600582015460ff16600281111561068c5761068c610969565b146106aa5760405163a92c04c760e01b815260040160405180910390fd5b806004015442116106ce5760405163191f4d1b60e31b815260040160405180910390fd5b60058101805460ff1916600217905560405182907f9b398e0a546c4aa218ac0b98f5e2196a7aff605b50c19eb795f9cb3b2f5d5b55905f90a25050565b61071361075e565b6001600160a01b03811661074157604051631e4fbdf760e01b81525f60048201526024015b60405180910390fd5b61074a816107b9565b50565b610755610829565b61074a81610872565b336107907f9016d09d72d40fdae2fd8ceac6b6234c7706214fd39c1cd1e609a0528c199300546001600160a01b031690565b6001600160a01b0316146105075760405163118cdaa760e01b8152336004820152602401610738565b7f9016d09d72d40fdae2fd8ceac6b6234c7706214fd39c1cd1e609a0528c19930080546001600160a01b031981166001600160a01b03848116918217845560405192169182907f8be0079c531659141344cd1fd0a4f28419497f9722a3daafe3b4186f6b6457e0905f90a3505050565b7ff0c57e16840df040f15088dc2f81fe391c3923bec73e23a9662efc9c229c6a0054600160401b900460ff1661050757604051631afcd79f60e31b815260040160405180910390fd5b610713610829565b80356001600160a01b0381168114610890575f80fd5b919050565b5f805f606084860312156108a7575f80fd5b6108b08461087a565b92506108be6020850161087a565b929592945050506040919091013590565b5f805f805f60a086880312156108e3575f80fd5b8535945060208601359350604086013592506109016060870161087a565b949793965091946080013592915050565b5f60208284031215610922575f80fd5b5035919050565b5f60208284031215610939575f80fd5b6109428261087a565b9392505050565b5f806040838503121561095a575f80fd5b50508035926020909101359150565b634e487b7160e01b5f52602160045260245ffd5b8681526001600160a01b038616602082015260408101859052606081018490526080810183905260c08101600383106109c457634e487b7160e01b5f52602160045260245ffd5b8260a0830152979650505050505050565b808201808211156109f457634e487b7160e01b5f52601160045260245ffd5b9291505056fea26469706673582212209c0138db7f8660091d150d05d2c67b202aec9cf79fd8174b0a963130e05114e664736f6c634300081a0033","linkReferences":{}},"methodIdentifiers":{"abortBridgeTransfer(bytes32)":"c95b659f","atomicBridgeInitiatorMOVE()":"3b9b4640","bridgeTransfers(bytes32)":"e0d9cbc4","completeBridgeTransfer(bytes32,bytes32)":"9f8f8799","counterpartyTimeLockDuration()":"96d17d49","initialize(address,address,uint256)":"1794bb3c","lockBridgeTransfer(bytes32,bytes32,bytes32,address,uint256)":"27b3ea07","owner()":"8da5cb5b","renounceOwnership()":"715018a6","setAtomicBridgeInitiator(address)":"7ce08748","setTimeLockDuration(uint256)":"71115eb2","transferOwnership(address)":"f2fde38b"},"id":42}