{"abi":[{"type":"function","name":"bridgeTransfers","inputs":[{"name":"","type":"bytes32","internalType":"bytes32"}],"outputs":[{"name":"amount","type":"uint256","internalType":"uint256"},{"name":"originator","type":"address","internalType":"address"},{"name":"recipient","type":"bytes32","internalType":"bytes32"},{"name":"hashLock","type":"bytes32","internalType":"bytes32"},{"name":"timeLock","type":"uint256","internalType":"uint256"},{"name":"state","type":"uint8","internalType":"enum AtomicBridgeInitiatorMOVE.MessageState"}],"stateMutability":"view"},{"type":"function","name":"completeBridgeTransfer","inputs":[{"name":"bridgeTransferId","type":"bytes32","internalType":"bytes32"},{"name":"preImage","type":"bytes32","internalType":"bytes32"}],"outputs":[],"stateMutability":"nonpayable"},{"type":"function","name":"counterpartyAddress","inputs":[],"outputs":[{"name":"","type":"address","internalType":"address"}],"stateMutability":"view"},{"type":"function","name":"initialize","inputs":[{"name":"_moveToken","type":"address","internalType":"address"},{"name":"owner","type":"address","internalType":"address"},{"name":"_timeLockDuration","type":"uint256","internalType":"uint256"}],"outputs":[],"stateMutability":"nonpayable"},{"type":"function","name":"initiateBridgeTransfer","inputs":[{"name":"moveAmount","type":"uint256","internalType":"uint256"},{"name":"recipient","type":"bytes32","internalType":"bytes32"},{"name":"hashLock","type":"bytes32","internalType":"bytes32"}],"outputs":[{"name":"bridgeTransferId","type":"bytes32","internalType":"bytes32"}],"stateMutability":"nonpayable"},{"type":"function","name":"initiatorTimeLockDuration","inputs":[],"outputs":[{"name":"","type":"uint256","internalType":"uint256"}],"stateMutability":"view"},{"type":"function","name":"moveToken","inputs":[],"outputs":[{"name":"","type":"address","internalType":"contract ERC20Upgradeable"}],"stateMutability":"view"},{"type":"function","name":"owner","inputs":[],"outputs":[{"name":"","type":"address","internalType":"address"}],"stateMutability":"view"},{"type":"function","name":"refundBridgeTransfer","inputs":[{"name":"bridgeTransferId","type":"bytes32","internalType":"bytes32"}],"outputs":[],"stateMutability":"nonpayable"},{"type":"function","name":"renounceOwnership","inputs":[],"outputs":[],"stateMutability":"nonpayable"},{"type":"function","name":"setCounterpartyAddress","inputs":[{"name":"_counterpartyAddress","type":"address","internalType":"address"}],"outputs":[],"stateMutability":"nonpayable"},{"type":"function","name":"transferOwnership","inputs":[{"name":"newOwner","type":"address","internalType":"address"}],"outputs":[],"stateMutability":"nonpayable"},{"type":"function","name":"withdrawMOVE","inputs":[{"name":"recipient","type":"address","internalType":"address"},{"name":"amount","type":"uint256","internalType":"uint256"}],"outputs":[],"stateMutability":"nonpayable"},{"type":"event","name":"BridgeTransferCompleted","inputs":[{"name":"_bridgeTransferId","type":"bytes32","indexed":true,"internalType":"bytes32"},{"name":"pre_image","type":"bytes32","indexed":false,"internalType":"bytes32"}],"anonymous":false},{"type":"event","name":"BridgeTransferInitiated","inputs":[{"name":"_bridgeTransferId","type":"bytes32","indexed":true,"internalType":"bytes32"},{"name":"_originator","type":"address","indexed":true,"internalType":"address"},{"name":"_recipient","type":"bytes32","indexed":true,"internalType":"bytes32"},{"name":"amount","type":"uint256","indexed":false,"internalType":"uint256"},{"name":"_hashLock","type":"bytes32","indexed":false,"internalType":"bytes32"},{"name":"_timeLock","type":"uint256","indexed":false,"internalType":"uint256"}],"anonymous":false},{"type":"event","name":"BridgeTransferRefunded","inputs":[{"name":"_bridgeTransferId","type":"bytes32","indexed":true,"internalType":"bytes32"}],"anonymous":false},{"type":"event","name":"Initialized","inputs":[{"name":"version","type":"uint64","indexed":false,"internalType":"uint64"}],"anonymous":false},{"type":"event","name":"OwnershipTransferred","inputs":[{"name":"previousOwner","type":"address","indexed":true,"internalType":"address"},{"name":"newOwner","type":"address","indexed":true,"internalType":"address"}],"anonymous":false},{"type":"error","name":"BridgeTransferHasBeenCompleted","inputs":[]},{"type":"error","name":"BridgeTransferInvalid","inputs":[]},{"type":"error","name":"BridgeTransferStateNotInitialized","inputs":[]},{"type":"error","name":"InsufficientMOVEBalance","inputs":[]},{"type":"error","name":"InvalidInitialization","inputs":[]},{"type":"error","name":"InvalidSecret","inputs":[]},{"type":"error","name":"MOVETransferFailed","inputs":[]},{"type":"error","name":"NotInitializing","inputs":[]},{"type":"error","name":"OwnableInvalidOwner","inputs":[{"name":"owner","type":"address","internalType":"address"}]},{"type":"error","name":"OwnableUnauthorizedAccount","inputs":[{"name":"account","type":"address","internalType":"address"}]},{"type":"error","name":"TimeLockNotExpired","inputs":[]},{"type":"error","name":"TimelockExpired","inputs":[]},{"type":"error","name":"Unauthorized","inputs":[]},{"type":"error","name":"ZeroAddress","inputs":[]},{"type":"error","name":"ZeroAmount","inputs":[]}],"bytecode":{"object":"0x6080604052348015600e575f80fd5b50610ce38061001c5f395ff3fe608060405234801561000f575f80fd5b50600436106100ca575f3560e01c8063715018a611610088578063cacfb16111610063578063cacfb161146101ae578063e0d9cbc4146101c1578063e20c95ec14610222578063f2fde38b14610235575f80fd5b8063715018a6146101635780638da5cb5b1461016b5780639f8f87991461019b575f80fd5b80621a153e146100ce5780631794bb3c146100e35780631a8849a4146100f65780631f92c08e1461011c5780632b3948bb146101475780635780802014610150575b5f80fd5b6100e16100dc366004610afb565b610248565b005b6100e16100f1366004610b1b565b610299565b610109610104366004610b55565b610405565b6040519081526020015b60405180910390f35b60015461012f906001600160a01b031681565b6040516001600160a01b039091168152602001610113565b61010960045481565b6100e161015e366004610b7e565b610657565b6100e161079f565b7f9016d09d72d40fdae2fd8ceac6b6234c7706214fd39c1cd1e609a0528c199300546001600160a01b031661012f565b6100e16101a9366004610b95565b6107b2565b6100e16101bc366004610bb5565b6108b2565b6102106101cf366004610b7e565b5f6020819052908152604090208054600182015460028301546003840154600485015460059095015493946001600160a01b03909316939192909160ff1686565b60405161011396959493929190610bf1565b60025461012f906001600160a01b031681565b6100e1610243366004610afb565b610971565b6102506109b3565b6001600160a01b0381166102775760405163d92e233d60e01b815260040160405180910390fd5b600180546001600160a01b0319166001600160a01b0392909216919091179055565b7ff0c57e16840df040f15088dc2f81fe391c3923bec73e23a9662efc9c229c6a008054600160401b810460ff16159067ffffffffffffffff165f811580156102de5750825b90505f8267ffffffffffffffff1660011480156102fa5750303b155b905081158015610308575080155b156103265760405163f92ee8a960e01b815260040160405180910390fd5b845467ffffffffffffffff19166001178555831561035057845460ff60401b1916600160401b1785555b6001600160a01b03881615801561036e57506001600160a01b038716155b1561038c5760405163d92e233d60e01b815260040160405180910390fd5b600280546001600160a01b0319166001600160a01b038a161790556103b087610a0e565b600486905583156103fb57845460ff60401b19168555604051600181527fc7f505b2f371ae2175ee4913f4499e1f2633a7b5936321eed1cdaeb6115181d29060200160405180910390a15b5050505050505050565b5f3384820361042757604051631f2a200560e01b815260040160405180910390fd5b6002546040516323b872dd60e01b81526001600160a01b03838116600483015230602483015260448201889052909116906323b872dd906064016020604051808303815f875af115801561047d573d5f803e3d5ffd5b505050506040513d601f19601f820116820180604052508101906104a19190610c49565b6104be57604051631a67cf2760e31b815260040160405180910390fd5b8084846004544260035f8154809291906104d790610c7c565b9091555060405160609690961b6bffffffffffffffffffffffff19166020870152603486019490945260548501929092526074840152609483015260b482015260d4016040516020818303038152906040528051906020012091506040518060c00160405280868152602001826001600160a01b031681526020018581526020018481526020016004544261056c9190610c94565b81525f60209182018190528481528082526040908190208351815591830151600180840180546001600160a01b0319166001600160a01b039093169290921790915590830151600280840191909155606084015160038401556080840151600484015560a08401516005840180549193909260ff199092169184908111156105f6576105f6610bdd565b021790555050600454604080518881526020810187905280820192909252518692506001600160a01b0384169185917f44e287be4fbd3a2dcc143a376301094fd2f809dcc2a8d3c09d0a0715224766c49181900360600190a4509392505050565b61065f6109b3565b5f81815260208190526040812090600582015460ff16600281111561068657610686610bdd565b146106a457604051630ffb9dcb60e01b815260040160405180910390fd5b80600401544210156106c95760405163191f4d1b60e31b815260040160405180910390fd5b60058101805460ff19166002908117909155546001820154825460405163a9059cbb60e01b81526001600160a01b039283166004820152602481019190915291169063a9059cbb906044016020604051808303815f875af1158015610730573d5f803e3d5ffd5b505050506040513d601f19601f820116820180604052508101906107549190610c49565b61077157604051631a67cf2760e31b815260040160405180910390fd5b60405182907f4fee0a65c921e50a9623c3abe10a4067e49c03ef491e7b406dace7cb79c12c61905f90a25050565b6107a76109b3565b6107b05f610a1f565b565b6107ba6109b3565b5f82815260208190526040812090600582015460ff1660028111156107e1576107e1610bdd565b146107ff57604051630437880960e41b815260040160405180910390fd5b600381015460408051602081018590520160405160208183030381529060405280519060200120146108445760405163abab6bd760e01b815260040160405180910390fd5b806004015442111561086957604051633d37e55360e11b815260040160405180910390fd5b60058101805460ff1916600117905560405182815283907f05ddc886acde01b77731bfad1dcfb6abf529f05c28ea66556fe87429bb2789ea9060200160405180910390a2505050565b6001546001600160a01b031633146108dc576040516282b42960e81b815260040160405180910390fd5b60025460405163a9059cbb60e01b81526001600160a01b038481166004830152602482018490529091169063a9059cbb906044016020604051808303815f875af115801561092c573d5f803e3d5ffd5b505050506040513d601f19601f820116820180604052508101906109509190610c49565b61096d57604051631a67cf2760e31b815260040160405180910390fd5b5050565b6109796109b3565b6001600160a01b0381166109a757604051631e4fbdf760e01b81525f60048201526024015b60405180910390fd5b6109b081610a1f565b50565b336109e57f9016d09d72d40fdae2fd8ceac6b6234c7706214fd39c1cd1e609a0528c199300546001600160a01b031690565b6001600160a01b0316146107b05760405163118cdaa760e01b815233600482015260240161099e565b610a16610a8f565b6109b081610ad8565b7f9016d09d72d40fdae2fd8ceac6b6234c7706214fd39c1cd1e609a0528c19930080546001600160a01b031981166001600160a01b03848116918217845560405192169182907f8be0079c531659141344cd1fd0a4f28419497f9722a3daafe3b4186f6b6457e0905f90a3505050565b7ff0c57e16840df040f15088dc2f81fe391c3923bec73e23a9662efc9c229c6a0054600160401b900460ff166107b057604051631afcd79f60e31b815260040160405180910390fd5b610979610a8f565b80356001600160a01b0381168114610af6575f80fd5b919050565b5f60208284031215610b0b575f80fd5b610b1482610ae0565b9392505050565b5f805f60608486031215610b2d575f80fd5b610b3684610ae0565b9250610b4460208501610ae0565b929592945050506040919091013590565b5f805f60608486031215610b67575f80fd5b505081359360208301359350604090920135919050565b5f60208284031215610b8e575f80fd5b5035919050565b5f8060408385031215610ba6575f80fd5b50508035926020909101359150565b5f8060408385031215610bc6575f80fd5b610bcf83610ae0565b946020939093013593505050565b634e487b7160e01b5f52602160045260245ffd5b8681526001600160a01b038616602082015260408101859052606081018490526080810183905260c0810160038310610c3857634e487b7160e01b5f52602160045260245ffd5b8260a0830152979650505050505050565b5f60208284031215610c59575f80fd5b81518015158114610b14575f80fd5b634e487b7160e01b5f52601160045260245ffd5b5f60018201610c8d57610c8d610c68565b5060010190565b80820180821115610ca757610ca7610c68565b9291505056fea26469706673582212208613dcb28933fce66fc658bf936ac0e9a913a3720da2b173abec1b7fd09c246264736f6c634300081a0033","linkReferences":{}},"methodIdentifiers":{"bridgeTransfers(bytes32)":"e0d9cbc4","completeBridgeTransfer(bytes32,bytes32)":"9f8f8799","counterpartyAddress()":"1f92c08e","initialize(address,address,uint256)":"1794bb3c","initiateBridgeTransfer(uint256,bytes32,bytes32)":"1a8849a4","initiatorTimeLockDuration()":"2b3948bb","moveToken()":"e20c95ec","owner()":"8da5cb5b","refundBridgeTransfer(bytes32)":"57808020","renounceOwnership()":"715018a6","setCounterpartyAddress(address)":"001a153e","transferOwnership(address)":"f2fde38b","withdrawMOVE(address,uint256)":"cacfb161"},"id":43}