{"abi":[{"type":"constructor","inputs":[],"stateMutability":"nonpayable"},{"type":"function","name":"bridgeTransfers","inputs":[{"name":"","type":"bytes32","internalType":"bytes32"}],"outputs":[{"name":"amount","type":"uint256","internalType":"uint256"},{"name":"originator","type":"address","internalType":"address"},{"name":"recipient","type":"bytes32","internalType":"bytes32"},{"name":"hashLock","type":"bytes32","internalType":"bytes32"},{"name":"timeLock","type":"uint256","internalType":"uint256"},{"name":"state","type":"uint8","internalType":"enum AtomicBridgeInitiator.MessageState"}],"stateMutability":"view"},{"type":"function","name":"completeBridgeTransfer","inputs":[{"name":"bridgeTransferId","type":"bytes32","internalType":"bytes32"},{"name":"preImage","type":"bytes32","internalType":"bytes32"}],"outputs":[],"stateMutability":"nonpayable"},{"type":"function","name":"counterpartyAddress","inputs":[],"outputs":[{"name":"","type":"address","internalType":"address"}],"stateMutability":"view"},{"type":"function","name":"initialize","inputs":[{"name":"_weth","type":"address","internalType":"address"},{"name":"owner","type":"address","internalType":"address"},{"name":"_timeLockDuration","type":"uint256","internalType":"uint256"},{"name":"_initialPoolBalance","type":"uint256","internalType":"uint256"}],"outputs":[],"stateMutability":"nonpayable"},{"type":"function","name":"initiateBridgeTransfer","inputs":[{"name":"wethAmount","type":"uint256","internalType":"uint256"},{"name":"recipient","type":"bytes32","internalType":"bytes32"},{"name":"hashLock","type":"bytes32","internalType":"bytes32"}],"outputs":[{"name":"bridgeTransferId","type":"bytes32","internalType":"bytes32"}],"stateMutability":"payable"},{"type":"function","name":"initiatorTimeLockDuration","inputs":[],"outputs":[{"name":"","type":"uint256","internalType":"uint256"}],"stateMutability":"view"},{"type":"function","name":"owner","inputs":[],"outputs":[{"name":"","type":"address","internalType":"address"}],"stateMutability":"view"},{"type":"function","name":"poolBalance","inputs":[],"outputs":[{"name":"","type":"uint256","internalType":"uint256"}],"stateMutability":"view"},{"type":"function","name":"refundBridgeTransfer","inputs":[{"name":"bridgeTransferId","type":"bytes32","internalType":"bytes32"}],"outputs":[],"stateMutability":"nonpayable"},{"type":"function","name":"renounceOwnership","inputs":[],"outputs":[],"stateMutability":"nonpayable"},{"type":"function","name":"setCounterpartyAddress","inputs":[{"name":"_counterpartyAddress","type":"address","internalType":"address"}],"outputs":[],"stateMutability":"nonpayable"},{"type":"function","name":"transferOwnership","inputs":[{"name":"newOwner","type":"address","internalType":"address"}],"outputs":[],"stateMutability":"nonpayable"},{"type":"function","name":"weth","inputs":[],"outputs":[{"name":"","type":"address","internalType":"contract IWETH9"}],"stateMutability":"view"},{"type":"function","name":"withdrawWETH","inputs":[{"name":"recipient","type":"address","internalType":"address"},{"name":"amount","type":"uint256","internalType":"uint256"}],"outputs":[],"stateMutability":"nonpayable"},{"type":"event","name":"BridgeTransferCompleted","inputs":[{"name":"_bridgeTransferId","type":"bytes32","indexed":true,"internalType":"bytes32"},{"name":"pre_image","type":"bytes32","indexed":false,"internalType":"bytes32"}],"anonymous":false},{"type":"event","name":"BridgeTransferInitiated","inputs":[{"name":"_bridgeTransferId","type":"bytes32","indexed":true,"internalType":"bytes32"},{"name":"_originator","type":"address","indexed":true,"internalType":"address"},{"name":"_recipient","type":"bytes32","indexed":true,"internalType":"bytes32"},{"name":"amount","type":"uint256","indexed":false,"internalType":"uint256"},{"name":"_hashLock","type":"bytes32","indexed":false,"internalType":"bytes32"},{"name":"_timeLock","type":"uint256","indexed":false,"internalType":"uint256"}],"anonymous":false},{"type":"event","name":"BridgeTransferRefunded","inputs":[{"name":"_bridgeTransferId","type":"bytes32","indexed":true,"internalType":"bytes32"}],"anonymous":false},{"type":"event","name":"Initialized","inputs":[{"name":"version","type":"uint64","indexed":false,"internalType":"uint64"}],"anonymous":false},{"type":"event","name":"OwnershipTransferred","inputs":[{"name":"previousOwner","type":"address","indexed":true,"internalType":"address"},{"name":"newOwner","type":"address","indexed":true,"internalType":"address"}],"anonymous":false},{"type":"error","name":"BridgeTransferHasBeenCompleted","inputs":[]},{"type":"error","name":"BridgeTransferInvalid","inputs":[]},{"type":"error","name":"BridgeTransferStateNotInitialized","inputs":[]},{"type":"error","name":"InsufficientWethBalance","inputs":[]},{"type":"error","name":"InvalidInitialization","inputs":[]},{"type":"error","name":"InvalidSecret","inputs":[]},{"type":"error","name":"NotInitializing","inputs":[]},{"type":"error","name":"OwnableInvalidOwner","inputs":[{"name":"owner","type":"address","internalType":"address"}]},{"type":"error","name":"OwnableUnauthorizedAccount","inputs":[{"name":"account","type":"address","internalType":"address"}]},{"type":"error","name":"TimeLockExpired","inputs":[]},{"type":"error","name":"TimeLockNotExpired","inputs":[]},{"type":"error","name":"Unauthorized","inputs":[]},{"type":"error","name":"WETHTransferFailed","inputs":[]},{"type":"error","name":"ZeroAddress","inputs":[]},{"type":"error","name":"ZeroAmount","inputs":[]}],"bytecode":{"object":"0x6080604052348015600e575f80fd5b5060156019565b60c9565b7ff0c57e16840df040f15088dc2f81fe391c3923bec73e23a9662efc9c229c6a00805468010000000000000000900460ff161560685760405163f92ee8a960e01b815260040160405180910390fd5b80546001600160401b039081161460c65780546001600160401b0319166001600160401b0390811782556040519081527fc7f505b2f371ae2175ee4913f4499e1f2633a7b5936321eed1cdaeb6115181d29060200160405180910390a15b50565b6112e0806100d65f395ff3fe6080604052600436106100d8575f3560e01c80638da5cb5b1161007c5780639f8f8799116100575780639f8f879914610209578063e0d9cbc414610228578063eb990c5914610295578063f2fde38b146102b4575f80fd5b80638da5cb5b146101c157806393113b5c146101d557806396365d44146101f4575f80fd5b80632b3948bb116100b75780632b3948bb1461015a5780633fc8cef31461016f578063578080201461018e578063715018a6146101ad575f80fd5b80621a153e146100dc5780631a8849a4146100fd5780631f92c08e14610123575b5f80fd5b3480156100e7575f80fd5b506100fb6100f6366004610f83565b6102d3565b005b61011061010b366004610fa3565b61036c565b6040519081526020015b60405180910390f35b34801561012e575f80fd5b50600254610142906001600160a01b031681565b6040516001600160a01b03909116815260200161011a565b348015610165575f80fd5b5061011060055481565b34801561017a575f80fd5b50600354610142906001600160a01b031681565b348015610199575f80fd5b506100fb6101a8366004610fcc565b610699565b3480156101b8575f80fd5b506100fb6107f8565b3480156101cc575f80fd5b5061014261080b565b3480156101e0575f80fd5b506100fb6101ef366004610fe3565b610839565b3480156101ff575f80fd5b5061011060015481565b348015610214575f80fd5b506100fb61022336600461100b565b610a18565b348015610233575f80fd5b50610283610242366004610fcc565b5f6020819052908152604090208054600182015460028301546003840154600485015460059095015493946001600160a01b03909316939192909160ff1686565b60405161011a9695949392919061103f565b3480156102a0575f80fd5b506100fb6102af366004611097565b610b10565b3480156102bf575f80fd5b506100fb6102ce366004610f83565b610cb1565b6102db610cf3565b6103026040518060600160405280602e815260200161125c602e913933610de5565b610de5565b6001600160a01b0381166103295760405163d92e233d60e01b815260040160405180910390fd5b61034a6040518060600160405280602381526020016111e560239139610e2a565b600280546001600160a01b0319166001600160a01b0392909216919091179055565b5f61038f6040518060600160405280602e81526020016111b7602e913933610de5565b6103b16040518060600160405280602c8152602001611230602c913933610de5565b33345f6103be82886110ea565b9050805f036103e057604051631f2a200560e01b815260040160405180910390fd5b811561044b5760035f9054906101000a90046001600160a01b03166001600160a01b031663d0e30db0836040518263ffffffff1660e01b81526004015f604051808303818588803b158015610433575f80fd5b505af1158015610445573d5f803e3d5ffd5b50505050505b86156104e8576003546040516323b872dd60e01b81526001600160a01b038581166004830152306024830152604482018a9052909116906323b872dd906064016020604051808303815f875af11580156104a7573d5f803e3d5ffd5b505050506040513d601f19601f820116820180604052508101906104cb9190611103565b6104e857604051630dd0c8f760e41b815260040160405180910390fd5b8060015f8282546104f991906110ea565b90915550506005546004805485928992899242915f61051783611122565b9091555060405160609690961b6bffffffffffffffffffffffff19166020870152603486019490945260548501929092526074840152609483015260b482015260d4016040516020818303038152906040528051906020012093506040518060c00160405280828152602001846001600160a01b03168152602001878152602001868152602001600554426105ac91906110ea565b81525f60209182018190528681528082526040908190208351815591830151600180840180546001600160a01b0319166001600160a01b039093169290921790915590830151600280840191909155606084015160038401556080840151600484015560a08401516005840180549193909260ff199092169184908111156106365761063661102b565b021790555050600554604080518481526020810189905280820192909252518892506001600160a01b0386169187917f44e287be4fbd3a2dcc143a376301094fd2f809dcc2a8d3c09d0a0715224766c49181900360600190a45050509392505050565b6106a1610cf3565b5f81815260208190526040812090600582015460ff1660028111156106c8576106c861102b565b146106e657604051630ffb9dcb60e01b815260040160405180910390fd5b806004015442101561070b5760405163191f4d1b60e31b815260040160405180910390fd5b60058101805460ff191660021790558054600180545f9061072d90849061113a565b90915550506003546001820154825460405163a9059cbb60e01b81526001600160a01b039283166004820152602481019190915291169063a9059cbb906044016020604051808303815f875af1158015610789573d5f803e3d5ffd5b505050506040513d601f19601f820116820180604052508101906107ad9190611103565b6107ca57604051630dd0c8f760e41b815260040160405180910390fd5b60405182907f4fee0a65c921e50a9623c3abe10a4067e49c03ef491e7b406dace7cb79c12c61905f90a25050565b610800610cf3565b6108095f610e6d565b565b7f9016d09d72d40fdae2fd8ceac6b6234c7706214fd39c1cd1e609a0528c199300546001600160a01b031690565b6108666040518060400160405280600c81526020016b0eed2e8d0c8e4c2eeae8aa8960a31b815250610e2a565b6002546001600160a01b03163314610890576040516282b42960e81b815260040160405180910390fd5b6108ce6040518060400160405280601781526020017f77697468647261775745544820617574686f72697a6564000000000000000000815250610e2a565b8060015410156108f1576040516318fb0fc360e11b815260040160405180910390fd5b61092f6040518060400160405280601881526020017f7769746864726177574554482062616c616e6365206f6b2e0000000000000000815250610e2a565b8060015f828254610940919061113a565b909155505060035460405163a9059cbb60e01b81526001600160a01b038481166004830152602482018490529091169063a9059cbb906044016020604051808303815f875af1158015610995573d5f803e3d5ffd5b505050506040513d601f19601f820116820180604052508101906109b99190611103565b6109d657604051630dd0c8f760e41b815260040160405180910390fd5b610a146040518060400160405280601981526020017f776974686472617757455448207472616e73666572206f6b2e00000000000000815250610e2a565b5050565b5f82815260208190526040812090600582015460ff166002811115610a3f57610a3f61102b565b14610a5d57604051630437880960e41b815260040160405180910390fd5b60038101546040805160208101859052016040516020818303038152906040528051906020012014610aa25760405163abab6bd760e01b815260040160405180910390fd5b8060040154421115610ac75760405163179a39d160e01b815260040160405180910390fd5b60058101805460ff1916600117905560405182815283907f05ddc886acde01b77731bfad1dcfb6abf529f05c28ea66556fe87429bb2789ea9060200160405180910390a2505050565b7ff0c57e16840df040f15088dc2f81fe391c3923bec73e23a9662efc9c229c6a008054600160401b810460ff16159067ffffffffffffffff165f81158015610b555750825b90505f8267ffffffffffffffff166001148015610b715750303b155b905081158015610b7f575080155b15610b9d5760405163f92ee8a960e01b815260040160405180910390fd5b845467ffffffffffffffff191660011785558315610bc757845460ff60401b1916600160401b1785555b610be96040518060600160405280602881526020016112086028913933610de5565b610c0b60405180606001604052806021815260200161128a6021913989610de5565b6001600160a01b038916610c325760405163d92e233d60e01b815260040160405180910390fd5b600380546001600160a01b0319166001600160a01b038b16179055610c5688610edd565b600587905560018690558315610ca657845460ff60401b19168555604051600181527fc7f505b2f371ae2175ee4913f4499e1f2633a7b5936321eed1cdaeb6115181d29060200160405180910390a15b505050505050505050565b610cb9610cf3565b6001600160a01b038116610ce757604051631e4fbdf760e01b81525f60048201526024015b60405180910390fd5b610cf081610e6d565b50565b610d336040518060400160405280601c81526020017f5f636865636b4f776e6572205f6d736753656e64657228293a202573000000008152506102fd3390565b610d746040518060400160405280601781526020017f5f636865636b4f776e6572206f776e657228293a2025730000000000000000008152506102fd61080b565b610db36040518060400160405280601981526020017f5f636865636b4f776e65722074782e6f726967696e3a2025730000000000000081525032610de5565b33610dbc61080b565b6001600160a01b0316146108095760405163118cdaa760e01b8152336004820152602401610cde565b610a148282604051602401610dfb92919061117b565b60408051601f198184030181529190526020810180516001600160e01b031663319af33360e01b179052610eee565b610cf081604051602401610e3e91906111a4565b60408051601f198184030181529190526020810180516001600160e01b031663104c13eb60e21b179052610eee565b7f9016d09d72d40fdae2fd8ceac6b6234c7706214fd39c1cd1e609a0528c19930080546001600160a01b031981166001600160a01b03848116918217845560405192169182907f8be0079c531659141344cd1fd0a4f28419497f9722a3daafe3b4186f6b6457e0905f90a3505050565b610ee5610ef7565b610cf081610f40565b610cf081610f48565b7ff0c57e16840df040f15088dc2f81fe391c3923bec73e23a9662efc9c229c6a0054600160401b900460ff1661080957604051631afcd79f60e31b815260040160405180910390fd5b610cb9610ef7565b80516a636f6e736f6c652e6c6f67602083015f808483855afa5050505050565b80356001600160a01b0381168114610f7e575f80fd5b919050565b5f60208284031215610f93575f80fd5b610f9c82610f68565b9392505050565b5f805f60608486031215610fb5575f80fd5b505081359360208301359350604090920135919050565b5f60208284031215610fdc575f80fd5b5035919050565b5f8060408385031215610ff4575f80fd5b610ffd83610f68565b946020939093013593505050565b5f806040838503121561101c575f80fd5b50508035926020909101359150565b634e487b7160e01b5f52602160045260245ffd5b8681526001600160a01b038616602082015260408101859052606081018490526080810183905260c081016003831061108657634e487b7160e01b5f52602160045260245ffd5b8260a0830152979650505050505050565b5f805f80608085870312156110aa575f80fd5b6110b385610f68565b93506110c160208601610f68565b93969395505050506040820135916060013590565b634e487b7160e01b5f52601160045260245ffd5b808201808211156110fd576110fd6110d6565b92915050565b5f60208284031215611113575f80fd5b81518015158114610f9c575f80fd5b5f60018201611133576111336110d6565b5060010190565b818103818111156110fd576110fd6110d6565b5f81518084528060208401602086015e5f602082860101526020601f19601f83011685010191505092915050565b604081525f61118d604083018561114d565b905060018060a01b03831660208301529392505050565b602081525f610f9c602083018461114d56fe41746f6d696320696e6974696174654272696467655472616e73666572205f6d736753656e64657228293a202573736574436f756e746572706172747941646472657373206e6f7420616464726573203041746f6d696320696e69746920696e697469616c697a65205f6d736753656e64657228293a20257341746f6d696320696e6974696174654272696467655472616e73666572206d73672e73656e6465723a20257341746f6d696320736574436f756e746572706172747941646472657373205f6d736753656e64657228293a20257341746f6d696320696e69746920696e697469616c697a65206f776e65723a202573a2646970667358221220da86bfb039e46a3cf99d68ee002546fbe0bd98a34d86b91c9ba310027ddca3f564736f6c634300081a0033","linkReferences":{}},"methodIdentifiers":{"bridgeTransfers(bytes32)":"e0d9cbc4","completeBridgeTransfer(bytes32,bytes32)":"9f8f8799","counterpartyAddress()":"1f92c08e","initialize(address,address,uint256,uint256)":"eb990c59","initiateBridgeTransfer(uint256,bytes32,bytes32)":"1a8849a4","initiatorTimeLockDuration()":"2b3948bb","owner()":"8da5cb5b","poolBalance()":"96365d44","refundBridgeTransfer(bytes32)":"57808020","renounceOwnership()":"715018a6","setCounterpartyAddress(address)":"001a153e","transferOwnership(address)":"f2fde38b","weth()":"3fc8cef3","withdrawWETH(address,uint256)":"93113b5c"},"id":40}