{"abi":[{"type":"function","name":"bridgeTransfers","inputs":[{"name":"","type":"bytes32","internalType":"bytes32"}],"outputs":[{"name":"amount","type":"uint256","internalType":"uint256"},{"name":"originator","type":"address","internalType":"address"},{"name":"recipient","type":"bytes32","internalType":"bytes32"},{"name":"hashLock","type":"bytes32","internalType":"bytes32"},{"name":"timeLock","type":"uint256","internalType":"uint256"},{"name":"state","type":"uint8","internalType":"enum AtomicBridgeInitiatorMOVE.MessageState"}],"stateMutability":"view"},{"type":"function","name":"completeBridgeTransfer","inputs":[{"name":"bridgeTransferId","type":"bytes32","internalType":"bytes32"},{"name":"preImage","type":"bytes32","internalType":"bytes32"}],"outputs":[],"stateMutability":"nonpayable"},{"type":"function","name":"counterpartyAddress","inputs":[],"outputs":[{"name":"","type":"address","internalType":"address"}],"stateMutability":"view"},{"type":"function","name":"initialize","inputs":[{"name":"_moveToken","type":"address","internalType":"address"},{"name":"owner","type":"address","internalType":"address"},{"name":"_timeLockDuration","type":"uint256","internalType":"uint256"}],"outputs":[],"stateMutability":"nonpayable"},{"type":"function","name":"initiateBridgeTransfer","inputs":[{"name":"moveAmount","type":"uint256","internalType":"uint256"},{"name":"recipient","type":"bytes32","internalType":"bytes32"},{"name":"hashLock","type":"bytes32","internalType":"bytes32"}],"outputs":[{"name":"bridgeTransferId","type":"bytes32","internalType":"bytes32"}],"stateMutability":"nonpayable"},{"type":"function","name":"initiatorTimeLockDuration","inputs":[],"outputs":[{"name":"","type":"uint256","internalType":"uint256"}],"stateMutability":"view"},{"type":"function","name":"moveToken","inputs":[],"outputs":[{"name":"","type":"address","internalType":"contract ERC20Upgradeable"}],"stateMutability":"view"},{"type":"function","name":"owner","inputs":[],"outputs":[{"name":"","type":"address","internalType":"address"}],"stateMutability":"view"},{"type":"function","name":"refundBridgeTransfer","inputs":[{"name":"bridgeTransferId","type":"bytes32","internalType":"bytes32"}],"outputs":[],"stateMutability":"nonpayable"},{"type":"function","name":"renounceOwnership","inputs":[],"outputs":[],"stateMutability":"nonpayable"},{"type":"function","name":"setCounterpartyAddress","inputs":[{"name":"_counterpartyAddress","type":"address","internalType":"address"}],"outputs":[],"stateMutability":"nonpayable"},{"type":"function","name":"transferOwnership","inputs":[{"name":"newOwner","type":"address","internalType":"address"}],"outputs":[],"stateMutability":"nonpayable"},{"type":"event","name":"BridgeTransferCompleted","inputs":[{"name":"_bridgeTransferId","type":"bytes32","indexed":true,"internalType":"bytes32"},{"name":"pre_image","type":"bytes32","indexed":false,"internalType":"bytes32"}],"anonymous":false},{"type":"event","name":"BridgeTransferInitiated","inputs":[{"name":"_bridgeTransferId","type":"bytes32","indexed":true,"internalType":"bytes32"},{"name":"_originator","type":"address","indexed":true,"internalType":"address"},{"name":"_recipient","type":"bytes32","indexed":true,"internalType":"bytes32"},{"name":"amount","type":"uint256","indexed":false,"internalType":"uint256"},{"name":"_hashLock","type":"bytes32","indexed":false,"internalType":"bytes32"},{"name":"_timeLock","type":"uint256","indexed":false,"internalType":"uint256"}],"anonymous":false},{"type":"event","name":"BridgeTransferRefunded","inputs":[{"name":"_bridgeTransferId","type":"bytes32","indexed":true,"internalType":"bytes32"}],"anonymous":false},{"type":"event","name":"Initialized","inputs":[{"name":"version","type":"uint64","indexed":false,"internalType":"uint64"}],"anonymous":false},{"type":"event","name":"OwnershipTransferred","inputs":[{"name":"previousOwner","type":"address","indexed":true,"internalType":"address"},{"name":"newOwner","type":"address","indexed":true,"internalType":"address"}],"anonymous":false},{"type":"error","name":"BridgeTransferHasBeenCompleted","inputs":[]},{"type":"error","name":"BridgeTransferInvalid","inputs":[]},{"type":"error","name":"BridgeTransferStateNotInitialized","inputs":[]},{"type":"error","name":"InsufficientMOVEBalance","inputs":[]},{"type":"error","name":"InvalidInitialization","inputs":[]},{"type":"error","name":"InvalidSecret","inputs":[]},{"type":"error","name":"MOVETransferFailed","inputs":[]},{"type":"error","name":"NotInitializing","inputs":[]},{"type":"error","name":"OwnableInvalidOwner","inputs":[{"name":"owner","type":"address","internalType":"address"}]},{"type":"error","name":"OwnableUnauthorizedAccount","inputs":[{"name":"account","type":"address","internalType":"address"}]},{"type":"error","name":"TimeLockNotExpired","inputs":[]},{"type":"error","name":"TimelockExpired","inputs":[]},{"type":"error","name":"Unauthorized","inputs":[]},{"type":"error","name":"ZeroAddress","inputs":[]},{"type":"error","name":"ZeroAmount","inputs":[]}],"bytecode":{"object":"0x6080604052348015600e575f80fd5b50610d388061001c5f395ff3fe608060405234801561000f575f80fd5b50600436106100b0575f3560e01c8063715018a61161006e578063715018a6146101495780638da5cb5b146101515780639f8f879914610181578063e0d9cbc414610194578063e20c95ec146101f5578063f2fde38b14610208575f80fd5b80621a153e146100b45780631794bb3c146100c95780631a8849a4146100dc5780631f92c08e146101025780632b3948bb1461012d5780635780802014610136575b5f80fd5b6100c76100c2366004610b78565b61021b565b005b6100c76100d7366004610b98565b61028e565b6100ef6100ea366004610bd2565b610418565b6040519081526020015b60405180910390f35b600154610115906001600160a01b031681565b6040516001600160a01b0390911681526020016100f9565b6100ef60045481565b6100c7610144366004610bfb565b6106a8565b6100c7610871565b7f9016d09d72d40fdae2fd8ceac6b6234c7706214fd39c1cd1e609a0528c199300546001600160a01b0316610115565b6100c761018f366004610c12565b610884565b6101e36101a2366004610bfb565b5f6020819052908152604090208054600182015460028301546003840154600485015460059095015493946001600160a01b03909316939192909160ff1686565b6040516100f996959493929190610c46565b600254610115906001600160a01b031681565b6100c7610216366004610b78565b6109f3565b610223610a30565b6001600160a01b03811661026c5760405162461bcd60e51b815260206004820152600b60248201526a5a65726f4164647265737360a81b60448201526064015b60405180910390fd5b600180546001600160a01b0319166001600160a01b0392909216919091179055565b7ff0c57e16840df040f15088dc2f81fe391c3923bec73e23a9662efc9c229c6a008054600160401b810460ff16159067ffffffffffffffff165f811580156102d35750825b90505f8267ffffffffffffffff1660011480156102ef5750303b155b9050811580156102fd575080155b1561031b5760405163f92ee8a960e01b815260040160405180910390fd5b845467ffffffffffffffff19166001178555831561034557845460ff60401b1916600160401b1785555b6001600160a01b0388161580159061036557506001600160a01b03871615155b61039f5760405162461bcd60e51b815260206004820152600b60248201526a5a65726f4164647265737360a81b6044820152606401610263565b600280546001600160a01b0319166001600160a01b038a161790556103c387610a8b565b6004869055831561040e57845460ff60401b19168555604051600181527fc7f505b2f371ae2175ee4913f4499e1f2633a7b5936321eed1cdaeb6115181d29060200160405180910390a15b5050505050505050565b5f33846104545760405162461bcd60e51b815260206004820152600a60248201526916995c9bd05b5bdd5b9d60b21b6044820152606401610263565b6002546040516323b872dd60e01b81526001600160a01b03838116600483015230602483015260448201889052909116906323b872dd906064016020604051808303815f875af11580156104aa573d5f803e3d5ffd5b505050506040513d601f19601f820116820180604052508101906104ce9190610c9e565b61050f5760405162461bcd60e51b81526020600482015260126024820152711353d591551c985b9cd9995c91985a5b195960721b6044820152606401610263565b8084846004544260035f81548092919061052890610cd1565b9091555060405160609690961b6bffffffffffffffffffffffff19166020870152603486019490945260548501929092526074840152609483015260b482015260d4016040516020818303038152906040528051906020012091506040518060c00160405280868152602001826001600160a01b03168152602001858152602001848152602001600454426105bd9190610ce9565b81525f60209182018190528481528082526040908190208351815591830151600180840180546001600160a01b0319166001600160a01b039093169290921790915590830151600280840191909155606084015160038401556080840151600484015560a08401516005840180549193909260ff1990921691849081111561064757610647610c32565b021790555050600454604080518881526020810187905280820192909252518692506001600160a01b0384169185917f44e287be4fbd3a2dcc143a376301094fd2f809dcc2a8d3c09d0a0715224766c49181900360600190a4509392505050565b6106b0610a30565b5f81815260208190526040812090600582015460ff1660028111156106d7576106d7610c32565b1461072e5760405162461bcd60e51b815260206004820152602160248201527f4272696467655472616e7366657253746174654e6f74496e697469616c697a656044820152601960fa1b6064820152608401610263565b80600401544210156107775760405162461bcd60e51b8152602060048201526012602482015271151a5b59531bd8dad39bdd115e1c1a5c995960721b6044820152606401610263565b60058101805460ff19166002908117909155546001820154825460405163a9059cbb60e01b81526001600160a01b039283166004820152602481019190915291169063a9059cbb906044016020604051808303815f875af11580156107de573d5f803e3d5ffd5b505050506040513d601f19601f820116820180604052508101906108029190610c9e565b6108435760405162461bcd60e51b81526020600482015260126024820152711353d591551c985b9cd9995c91985a5b195960721b6044820152606401610263565b60405182907f4fee0a65c921e50a9623c3abe10a4067e49c03ef491e7b406dace7cb79c12c61905f90a25050565b610879610a30565b6108825f610a9c565b565b61088c610a30565b5f82815260208190526040812090600582015460ff1660028111156108b3576108b3610c32565b146109005760405162461bcd60e51b815260206004820152601e60248201527f4272696467655472616e736665724861734265656e436f6d706c6574656400006044820152606401610263565b600381015460408051602081018590520160405160208183030381529060405280519060200120146109645760405162461bcd60e51b815260206004820152600d60248201526c125b9d985b1a5914d958dc995d609a1b6044820152606401610263565b80600401544211156109aa5760405162461bcd60e51b815260206004820152600f60248201526e151a5b595b1bd8dad15e1c1a5c9959608a1b6044820152606401610263565b60058101805460ff1916600117905560405182815283907f05ddc886acde01b77731bfad1dcfb6abf529f05c28ea66556fe87429bb2789ea9060200160405180910390a2505050565b6109fb610a30565b6001600160a01b038116610a2457604051631e4fbdf760e01b81525f6004820152602401610263565b610a2d81610a9c565b50565b33610a627f9016d09d72d40fdae2fd8ceac6b6234c7706214fd39c1cd1e609a0528c199300546001600160a01b031690565b6001600160a01b0316146108825760405163118cdaa760e01b8152336004820152602401610263565b610a93610b0c565b610a2d81610b55565b7f9016d09d72d40fdae2fd8ceac6b6234c7706214fd39c1cd1e609a0528c19930080546001600160a01b031981166001600160a01b03848116918217845560405192169182907f8be0079c531659141344cd1fd0a4f28419497f9722a3daafe3b4186f6b6457e0905f90a3505050565b7ff0c57e16840df040f15088dc2f81fe391c3923bec73e23a9662efc9c229c6a0054600160401b900460ff1661088257604051631afcd79f60e31b815260040160405180910390fd5b6109fb610b0c565b80356001600160a01b0381168114610b73575f80fd5b919050565b5f60208284031215610b88575f80fd5b610b9182610b5d565b9392505050565b5f805f60608486031215610baa575f80fd5b610bb384610b5d565b9250610bc160208501610b5d565b929592945050506040919091013590565b5f805f60608486031215610be4575f80fd5b505081359360208301359350604090920135919050565b5f60208284031215610c0b575f80fd5b5035919050565b5f8060408385031215610c23575f80fd5b50508035926020909101359150565b634e487b7160e01b5f52602160045260245ffd5b8681526001600160a01b038616602082015260408101859052606081018490526080810183905260c0810160038310610c8d57634e487b7160e01b5f52602160045260245ffd5b8260a0830152979650505050505050565b5f60208284031215610cae575f80fd5b81518015158114610b91575f80fd5b634e487b7160e01b5f52601160045260245ffd5b5f60018201610ce257610ce2610cbd565b5060010190565b80820180821115610cfc57610cfc610cbd565b9291505056fea2646970667358221220f0bcd68cac0d4b138269960f91cc308df12c7bd0cd0dd466450290cad736e2c064736f6c634300081a0033","linkReferences":{}},"methodIdentifiers":{"bridgeTransfers(bytes32)":"e0d9cbc4","completeBridgeTransfer(bytes32,bytes32)":"9f8f8799","counterpartyAddress()":"1f92c08e","initialize(address,address,uint256)":"1794bb3c","initiateBridgeTransfer(uint256,bytes32,bytes32)":"1a8849a4","initiatorTimeLockDuration()":"2b3948bb","moveToken()":"e20c95ec","owner()":"8da5cb5b","refundBridgeTransfer(bytes32)":"57808020","renounceOwnership()":"715018a6","setCounterpartyAddress(address)":"001a153e","transferOwnership(address)":"f2fde38b"},"id":43}