{"abi":[{"type":"function","name":"bridgeTransfers","inputs":[{"name":"","type":"bytes32","internalType":"bytes32"}],"outputs":[{"name":"amount","type":"uint256","internalType":"uint256"},{"name":"originator","type":"address","internalType":"address"},{"name":"recipient","type":"bytes32","internalType":"bytes32"},{"name":"hashLock","type":"bytes32","internalType":"bytes32"},{"name":"timeLock","type":"uint256","internalType":"uint256"},{"name":"state","type":"uint8","internalType":"enum AtomicBridgeInitiator.MessageState"}],"stateMutability":"view"},{"type":"function","name":"completeBridgeTransfer","inputs":[{"name":"bridgeTransferId","type":"bytes32","internalType":"bytes32"},{"name":"preImage","type":"bytes32","internalType":"bytes32"}],"outputs":[],"stateMutability":"nonpayable"},{"type":"function","name":"counterpartyAddress","inputs":[],"outputs":[{"name":"","type":"address","internalType":"address"}],"stateMutability":"view"},{"type":"function","name":"initialize","inputs":[{"name":"_weth","type":"address","internalType":"address"},{"name":"owner","type":"address","internalType":"address"},{"name":"_timeLockDuration","type":"uint256","internalType":"uint256"}],"outputs":[],"stateMutability":"nonpayable"},{"type":"function","name":"initiateBridgeTransfer","inputs":[{"name":"wethAmount","type":"uint256","internalType":"uint256"},{"name":"recipient","type":"bytes32","internalType":"bytes32"},{"name":"hashLock","type":"bytes32","internalType":"bytes32"}],"outputs":[{"name":"bridgeTransferId","type":"bytes32","internalType":"bytes32"}],"stateMutability":"payable"},{"type":"function","name":"initiatorTimeLockDuration","inputs":[],"outputs":[{"name":"","type":"uint256","internalType":"uint256"}],"stateMutability":"view"},{"type":"function","name":"owner","inputs":[],"outputs":[{"name":"","type":"address","internalType":"address"}],"stateMutability":"view"},{"type":"function","name":"poolBalance","inputs":[],"outputs":[{"name":"","type":"uint256","internalType":"uint256"}],"stateMutability":"view"},{"type":"function","name":"refundBridgeTransfer","inputs":[{"name":"bridgeTransferId","type":"bytes32","internalType":"bytes32"}],"outputs":[],"stateMutability":"nonpayable"},{"type":"function","name":"renounceOwnership","inputs":[],"outputs":[],"stateMutability":"nonpayable"},{"type":"function","name":"setCounterpartyAddress","inputs":[{"name":"_counterpartyAddress","type":"address","internalType":"address"}],"outputs":[],"stateMutability":"nonpayable"},{"type":"function","name":"transferOwnership","inputs":[{"name":"newOwner","type":"address","internalType":"address"}],"outputs":[],"stateMutability":"nonpayable"},{"type":"function","name":"weth","inputs":[],"outputs":[{"name":"","type":"address","internalType":"contract IWETH9"}],"stateMutability":"view"},{"type":"function","name":"withdrawWETH","inputs":[{"name":"recipient","type":"address","internalType":"address"},{"name":"amount","type":"uint256","internalType":"uint256"}],"outputs":[],"stateMutability":"nonpayable"},{"type":"event","name":"BridgeTransferCompleted","inputs":[{"name":"_bridgeTransferId","type":"bytes32","indexed":true,"internalType":"bytes32"},{"name":"pre_image","type":"bytes32","indexed":false,"internalType":"bytes32"}],"anonymous":false},{"type":"event","name":"BridgeTransferInitiated","inputs":[{"name":"_bridgeTransferId","type":"bytes32","indexed":true,"internalType":"bytes32"},{"name":"_originator","type":"address","indexed":true,"internalType":"address"},{"name":"_recipient","type":"bytes32","indexed":true,"internalType":"bytes32"},{"name":"amount","type":"uint256","indexed":false,"internalType":"uint256"},{"name":"_hashLock","type":"bytes32","indexed":false,"internalType":"bytes32"},{"name":"_timeLock","type":"uint256","indexed":false,"internalType":"uint256"}],"anonymous":false},{"type":"event","name":"BridgeTransferRefunded","inputs":[{"name":"_bridgeTransferId","type":"bytes32","indexed":true,"internalType":"bytes32"}],"anonymous":false},{"type":"event","name":"Initialized","inputs":[{"name":"version","type":"uint64","indexed":false,"internalType":"uint64"}],"anonymous":false},{"type":"event","name":"OwnershipTransferred","inputs":[{"name":"previousOwner","type":"address","indexed":true,"internalType":"address"},{"name":"newOwner","type":"address","indexed":true,"internalType":"address"}],"anonymous":false},{"type":"error","name":"BridgeTransferHasBeenCompleted","inputs":[]},{"type":"error","name":"BridgeTransferInvalid","inputs":[]},{"type":"error","name":"BridgeTransferStateNotInitialized","inputs":[]},{"type":"error","name":"InsufficientWethBalance","inputs":[]},{"type":"error","name":"InvalidInitialization","inputs":[]},{"type":"error","name":"InvalidSecret","inputs":[]},{"type":"error","name":"NotInitializing","inputs":[]},{"type":"error","name":"OwnableInvalidOwner","inputs":[{"name":"owner","type":"address","internalType":"address"}]},{"type":"error","name":"OwnableUnauthorizedAccount","inputs":[{"name":"account","type":"address","internalType":"address"}]},{"type":"error","name":"TimeLockExpired","inputs":[]},{"type":"error","name":"TimeLockNotExpired","inputs":[]},{"type":"error","name":"Unauthorized","inputs":[]},{"type":"error","name":"WETHTransferFailed","inputs":[]},{"type":"error","name":"ZeroAddress","inputs":[]},{"type":"error","name":"ZeroAmount","inputs":[]}],"bytecode":{"object":"0x6080604052348015600e575f80fd5b50610e738061001c5f395ff3fe6080604052600436106100d8575f3560e01c8063715018a61161007c57806396365d441161005757806396365d441461023b5780639f8f879914610250578063e0d9cbc41461026f578063f2fde38b146102dc575f80fd5b8063715018a6146101cc5780638da5cb5b146101e057806393113b5c1461021c575f80fd5b80631f92c08e116100b75780631f92c08e146101425780632b3948bb146101795780633fc8cef31461018e57806357808020146101ad575f80fd5b80621a153e146100dc5780631794bb3c146100fd5780631a8849a41461011c575b5f80fd5b3480156100e7575f80fd5b506100fb6100f6366004610c78565b6102fb565b005b348015610108575f80fd5b506100fb610117366004610c98565b61034c565b61012f61012a366004610cd2565b6104a3565b6040519081526020015b60405180910390f35b34801561014d575f80fd5b50600254610161906001600160a01b031681565b6040516001600160a01b039091168152602001610139565b348015610184575f80fd5b5061012f60055481565b348015610199575f80fd5b50600354610161906001600160a01b031681565b3480156101b8575f80fd5b506100fb6101c7366004610cfb565b61078c565b3480156101d7575f80fd5b506100fb6108eb565b3480156101eb575f80fd5b507f9016d09d72d40fdae2fd8ceac6b6234c7706214fd39c1cd1e609a0528c199300546001600160a01b0316610161565b348015610227575f80fd5b506100fb610236366004610d12565b6108fe565b348015610246575f80fd5b5061012f60015481565b34801561025b575f80fd5b506100fb61026a366004610d3a565b6109f6565b34801561027a575f80fd5b506102ca610289366004610cfb565b5f6020819052908152604090208054600182015460028301546003840154600485015460059095015493946001600160a01b03909316939192909160ff1686565b60405161013996959493929190610d6e565b3480156102e7575f80fd5b506100fb6102f6366004610c78565b610aee565b610303610b30565b6001600160a01b03811661032a5760405163d92e233d60e01b815260040160405180910390fd5b600280546001600160a01b0319166001600160a01b0392909216919091179055565b7ff0c57e16840df040f15088dc2f81fe391c3923bec73e23a9662efc9c229c6a008054600160401b810460ff16159067ffffffffffffffff165f811580156103915750825b90505f8267ffffffffffffffff1660011480156103ad5750303b155b9050811580156103bb575080155b156103d95760405163f92ee8a960e01b815260040160405180910390fd5b845467ffffffffffffffff19166001178555831561040357845460ff60401b1916600160401b1785555b6001600160a01b03881661042a5760405163d92e233d60e01b815260040160405180910390fd5b600380546001600160a01b0319166001600160a01b038a1617905561044e87610b8b565b6005869055831561049957845460ff60401b19168555604051600181527fc7f505b2f371ae2175ee4913f4499e1f2633a7b5936321eed1cdaeb6115181d29060200160405180910390a15b5050505050505050565b5f3334826104b18288610dda565b9050805f036104d357604051631f2a200560e01b815260040160405180910390fd5b811561053e5760035f9054906101000a90046001600160a01b03166001600160a01b031663d0e30db0836040518263ffffffff1660e01b81526004015f604051808303818588803b158015610526575f80fd5b505af1158015610538573d5f803e3d5ffd5b50505050505b86156105db576003546040516323b872dd60e01b81526001600160a01b038581166004830152306024830152604482018a9052909116906323b872dd906064016020604051808303815f875af115801561059a573d5f803e3d5ffd5b505050506040513d601f19601f820116820180604052508101906105be9190610df3565b6105db57604051630dd0c8f760e41b815260040160405180910390fd5b8060015f8282546105ec9190610dda565b90915550506005546004805485928992899242915f61060a83610e12565b9091555060405160609690961b6bffffffffffffffffffffffff19166020870152603486019490945260548501929092526074840152609483015260b482015260d4016040516020818303038152906040528051906020012093506040518060c00160405280828152602001846001600160a01b031681526020018781526020018681526020016005544261069f9190610dda565b81525f60209182018190528681528082526040908190208351815591830151600180840180546001600160a01b0319166001600160a01b039093169290921790915590830151600280840191909155606084015160038401556080840151600484015560a08401516005840180549193909260ff1990921691849081111561072957610729610d5a565b021790555050600554604080518481526020810189905280820192909252518892506001600160a01b0386169187917f44e287be4fbd3a2dcc143a376301094fd2f809dcc2a8d3c09d0a0715224766c49181900360600190a45050509392505050565b610794610b30565b5f81815260208190526040812090600582015460ff1660028111156107bb576107bb610d5a565b146107d957604051630ffb9dcb60e01b815260040160405180910390fd5b80600401544210156107fe5760405163191f4d1b60e31b815260040160405180910390fd5b60058101805460ff191660021790558054600180545f90610820908490610e2a565b90915550506003546001820154825460405163a9059cbb60e01b81526001600160a01b039283166004820152602481019190915291169063a9059cbb906044016020604051808303815f875af115801561087c573d5f803e3d5ffd5b505050506040513d601f19601f820116820180604052508101906108a09190610df3565b6108bd57604051630dd0c8f760e41b815260040160405180910390fd5b60405182907f4fee0a65c921e50a9623c3abe10a4067e49c03ef491e7b406dace7cb79c12c61905f90a25050565b6108f3610b30565b6108fc5f610b9c565b565b6002546001600160a01b03163314610928576040516282b42960e81b815260040160405180910390fd5b80600154101561094b576040516318fb0fc360e11b815260040160405180910390fd5b8060015f82825461095c9190610e2a565b909155505060035460405163a9059cbb60e01b81526001600160a01b038481166004830152602482018490529091169063a9059cbb906044016020604051808303815f875af11580156109b1573d5f803e3d5ffd5b505050506040513d601f19601f820116820180604052508101906109d59190610df3565b6109f257604051630dd0c8f760e41b815260040160405180910390fd5b5050565b5f82815260208190526040812090600582015460ff166002811115610a1d57610a1d610d5a565b14610a3b57604051630437880960e41b815260040160405180910390fd5b60038101546040805160208101859052016040516020818303038152906040528051906020012014610a805760405163abab6bd760e01b815260040160405180910390fd5b8060040154421115610aa55760405163179a39d160e01b815260040160405180910390fd5b60058101805460ff1916600117905560405182815283907f05ddc886acde01b77731bfad1dcfb6abf529f05c28ea66556fe87429bb2789ea9060200160405180910390a2505050565b610af6610b30565b6001600160a01b038116610b2457604051631e4fbdf760e01b81525f60048201526024015b60405180910390fd5b610b2d81610b9c565b50565b33610b627f9016d09d72d40fdae2fd8ceac6b6234c7706214fd39c1cd1e609a0528c199300546001600160a01b031690565b6001600160a01b0316146108fc5760405163118cdaa760e01b8152336004820152602401610b1b565b610b93610c0c565b610b2d81610c55565b7f9016d09d72d40fdae2fd8ceac6b6234c7706214fd39c1cd1e609a0528c19930080546001600160a01b031981166001600160a01b03848116918217845560405192169182907f8be0079c531659141344cd1fd0a4f28419497f9722a3daafe3b4186f6b6457e0905f90a3505050565b7ff0c57e16840df040f15088dc2f81fe391c3923bec73e23a9662efc9c229c6a0054600160401b900460ff166108fc57604051631afcd79f60e31b815260040160405180910390fd5b610af6610c0c565b80356001600160a01b0381168114610c73575f80fd5b919050565b5f60208284031215610c88575f80fd5b610c9182610c5d565b9392505050565b5f805f60608486031215610caa575f80fd5b610cb384610c5d565b9250610cc160208501610c5d565b929592945050506040919091013590565b5f805f60608486031215610ce4575f80fd5b505081359360208301359350604090920135919050565b5f60208284031215610d0b575f80fd5b5035919050565b5f8060408385031215610d23575f80fd5b610d2c83610c5d565b946020939093013593505050565b5f8060408385031215610d4b575f80fd5b50508035926020909101359150565b634e487b7160e01b5f52602160045260245ffd5b8681526001600160a01b038616602082015260408101859052606081018490526080810183905260c0810160038310610db557634e487b7160e01b5f52602160045260245ffd5b8260a0830152979650505050505050565b634e487b7160e01b5f52601160045260245ffd5b80820180821115610ded57610ded610dc6565b92915050565b5f60208284031215610e03575f80fd5b81518015158114610c91575f80fd5b5f60018201610e2357610e23610dc6565b5060010190565b81810381811115610ded57610ded610dc656fea2646970667358221220c1a4865eb836e65894129b6468d682a65aec8d918f2fe7b9b05e5a138ff0a44964736f6c634300081a0033","linkReferences":{}},"methodIdentifiers":{"bridgeTransfers(bytes32)":"e0d9cbc4","completeBridgeTransfer(bytes32,bytes32)":"9f8f8799","counterpartyAddress()":"1f92c08e","initialize(address,address,uint256)":"1794bb3c","initiateBridgeTransfer(uint256,bytes32,bytes32)":"1a8849a4","initiatorTimeLockDuration()":"2b3948bb","owner()":"8da5cb5b","poolBalance()":"96365d44","refundBridgeTransfer(bytes32)":"57808020","renounceOwnership()":"715018a6","setCounterpartyAddress(address)":"001a153e","transferOwnership(address)":"f2fde38b","weth()":"3fc8cef3","withdrawWETH(address,uint256)":"93113b5c"},"id":40}