{"abi":[{"type":"function","name":"abortBridgeTransfer","inputs":[{"name":"bridgeTransferId","type":"bytes32","internalType":"bytes32"}],"outputs":[],"stateMutability":"nonpayable"},{"type":"function","name":"atomicBridgeInitiator","inputs":[],"outputs":[{"name":"","type":"address","internalType":"contract AtomicBridgeInitiator"}],"stateMutability":"view"},{"type":"function","name":"bridgeTransfers","inputs":[{"name":"","type":"bytes32","internalType":"bytes32"}],"outputs":[{"name":"originator","type":"bytes32","internalType":"bytes32"},{"name":"recipient","type":"address","internalType":"address"},{"name":"amount","type":"uint256","internalType":"uint256"},{"name":"hashLock","type":"bytes32","internalType":"bytes32"},{"name":"timeLock","type":"uint256","internalType":"uint256"},{"name":"state","type":"uint8","internalType":"enum AtomicBridgeCounterparty.MessageState"}],"stateMutability":"view"},{"type":"function","name":"completeBridgeTransfer","inputs":[{"name":"bridgeTransferId","type":"bytes32","internalType":"bytes32"},{"name":"preImage","type":"bytes32","internalType":"bytes32"}],"outputs":[],"stateMutability":"nonpayable"},{"type":"function","name":"counterpartyTimeLockDuration","inputs":[],"outputs":[{"name":"","type":"uint256","internalType":"uint256"}],"stateMutability":"view"},{"type":"function","name":"initialize","inputs":[{"name":"_atomicBridgeInitiator","type":"address","internalType":"address"},{"name":"owner","type":"address","internalType":"address"},{"name":"_timeLockDuration","type":"uint256","internalType":"uint256"}],"outputs":[],"stateMutability":"nonpayable"},{"type":"function","name":"lockBridgeTransfer","inputs":[{"name":"originator","type":"bytes32","internalType":"bytes32"},{"name":"bridgeTransferId","type":"bytes32","internalType":"bytes32"},{"name":"hashLock","type":"bytes32","internalType":"bytes32"},{"name":"recipient","type":"address","internalType":"address"},{"name":"amount","type":"uint256","internalType":"uint256"}],"outputs":[{"name":"","type":"bool","internalType":"bool"}],"stateMutability":"nonpayable"},{"type":"function","name":"owner","inputs":[],"outputs":[{"name":"","type":"address","internalType":"address"}],"stateMutability":"view"},{"type":"function","name":"renounceOwnership","inputs":[],"outputs":[],"stateMutability":"nonpayable"},{"type":"function","name":"setAtomicBridgeInitiator","inputs":[{"name":"_atomicBridgeInitiator","type":"address","internalType":"address"}],"outputs":[],"stateMutability":"nonpayable"},{"type":"function","name":"setTimeLockDuration","inputs":[{"name":"_timeLockDuration","type":"uint256","internalType":"uint256"}],"outputs":[],"stateMutability":"nonpayable"},{"type":"function","name":"transferOwnership","inputs":[{"name":"newOwner","type":"address","internalType":"address"}],"outputs":[],"stateMutability":"nonpayable"},{"type":"event","name":"BridgeTransferAborted","inputs":[{"name":"bridgeTransferId","type":"bytes32","indexed":true,"internalType":"bytes32"}],"anonymous":false},{"type":"event","name":"BridgeTransferCompleted","inputs":[{"name":"bridgeTransferId","type":"bytes32","indexed":true,"internalType":"bytes32"},{"name":"pre_image","type":"bytes32","indexed":false,"internalType":"bytes32"}],"anonymous":false},{"type":"event","name":"BridgeTransferLocked","inputs":[{"name":"bridgeTransferId","type":"bytes32","indexed":true,"internalType":"bytes32"},{"name":"initiator","type":"bytes32","indexed":true,"internalType":"bytes32"},{"name":"recipient","type":"address","indexed":true,"internalType":"address"},{"name":"amount","type":"uint256","indexed":false,"internalType":"uint256"},{"name":"hashLock","type":"bytes32","indexed":false,"internalType":"bytes32"},{"name":"timeLock","type":"uint256","indexed":false,"internalType":"uint256"}],"anonymous":false},{"type":"event","name":"Initialized","inputs":[{"name":"version","type":"uint64","indexed":false,"internalType":"uint64"}],"anonymous":false},{"type":"event","name":"OwnershipTransferred","inputs":[{"name":"previousOwner","type":"address","indexed":true,"internalType":"address"},{"name":"newOwner","type":"address","indexed":true,"internalType":"address"}],"anonymous":false},{"type":"error","name":"BridgeTransferHasBeenCompleted","inputs":[]},{"type":"error","name":"BridgeTransferInvalid","inputs":[]},{"type":"error","name":"BridgeTransferStateNotInitialized","inputs":[]},{"type":"error","name":"BridgeTransferStateNotPending","inputs":[]},{"type":"error","name":"InsufficientWethBalance","inputs":[]},{"type":"error","name":"InvalidInitialization","inputs":[]},{"type":"error","name":"InvalidSecret","inputs":[]},{"type":"error","name":"NotInitializing","inputs":[]},{"type":"error","name":"OwnableInvalidOwner","inputs":[{"name":"owner","type":"address","internalType":"address"}]},{"type":"error","name":"OwnableUnauthorizedAccount","inputs":[{"name":"account","type":"address","internalType":"address"}]},{"type":"error","name":"TimeLockExpired","inputs":[]},{"type":"error","name":"TimeLockNotExpired","inputs":[]},{"type":"error","name":"Unauthorized","inputs":[]},{"type":"error","name":"WETHTransferFailed","inputs":[]},{"type":"error","name":"ZeroAddress","inputs":[]},{"type":"error","name":"ZeroAmount","inputs":[]}],"bytecode":{"object":"0x6080604052348015600e575f80fd5b50610b358061001c5f395ff3fe608060405234801561000f575f80fd5b50600436106100b1575f3560e01c806396d17d491161006e57806396d17d49146101645780639f8f87991461017b578063c95b659f1461018e578063e0d9cbc4146101a1578063ee2c59f814610203578063f2fde38b14610215575f80fd5b80631794bb3c146100b557806327b3ea07146100ca57806371115eb2146100f2578063715018a6146101055780637ce087481461010d5780638da5cb5b14610120575b5f80fd5b6100c86100c3366004610983565b610228565b005b6100dd6100d83660046109bd565b61037e565b60405190151581526020015b60405180910390f35b6100c8610100366004610a00565b610566565b6100c8610573565b6100c861011b366004610a17565b610586565b7f9016d09d72d40fdae2fd8ceac6b6234c7706214fd39c1cd1e609a0528c199300546001600160a01b03165b6040516001600160a01b0390911681526020016100e9565b61016d60025481565b6040519081526020016100e9565b6100c8610189366004610a37565b6105d6565b6100c861019c366004610a00565b61074b565b6101f16101af366004610a00565b600160208190525f91825260409091208054918101546002820154600383015460048401546005909401546001600160a01b0390931693919290919060ff1686565b6040516100e996959493929190610a6b565b5f5461014c906001600160a01b031681565b6100c8610223366004610a17565b6107f9565b7ff0c57e16840df040f15088dc2f81fe391c3923bec73e23a9662efc9c229c6a008054600160401b810460ff16159067ffffffffffffffff165f8115801561026d5750825b90505f8267ffffffffffffffff1660011480156102895750303b155b905081158015610297575080155b156102b55760405163f92ee8a960e01b815260040160405180910390fd5b845467ffffffffffffffff1916600117855583156102df57845460ff60401b1916600160401b1785555b6001600160a01b0388166103065760405163d92e233d60e01b815260040160405180910390fd5b5f80546001600160a01b0319166001600160a01b038a161790556103298761083b565b6002869055831561037457845460ff60401b19168555604051600181527fc7f505b2f371ae2175ee4913f4499e1f2633a7b5936321eed1cdaeb6115181d29060200160405180910390a15b5050505050505050565b5f815f0361039f57604051631f2a200560e01b815260040160405180910390fd5b5f546040805163258d975160e21b8152905184926001600160a01b0316916396365d449160048083019260209291908290030181865afa1580156103e5573d5f803e3d5ffd5b505050506040513d601f19601f820116820180604052508101906104099190610ac3565b1015610428576040516318fb0fc360e11b815260040160405180910390fd5b5f600254426104379190610ada565b90506040518060c00160405280888152602001856001600160a01b031681526020018481526020018681526020018281526020015f600281111561047d5761047d610a57565b90525f87815260016020818152604092839020845181559084015181830180546001600160a01b0319166001600160a01b0390921691909117905591830151600280840191909155606084015160038401556080840151600484015560a08401516005840180549193909260ff1990921691849081111561050057610500610a57565b021790555050600254604080518681526020810189905280820192909252516001600160a01b0387169250899189917f6fd7399514eb976acd637ed4a2435c9466e55428753b71e73e9d00fdcc50f44c9181900360600190a45060019695505050505050565b61056e61084c565b600255565b61057b61084c565b6105845f6108a7565b565b61058e61084c565b6001600160a01b0381166105b55760405163d92e233d60e01b815260040160405180910390fd5b5f80546001600160a01b0319166001600160a01b0392909216919091179055565b5f82815260016020526040812090600582015460ff1660028111156105fd576105fd610a57565b1461061b5760405163a92c04c760e01b815260040160405180910390fd5b5f8260405160200161062f91815260200190565b6040516020818303038152906040528051906020012090508160030154811461066b5760405163abab6bd760e01b815260040160405180910390fd5b81600401544211156106905760405163179a39d160e01b815260040160405180910390fd5b60058201805460ff191660019081179091555f549083015460028401546040516324c44ed760e21b81526001600160a01b03928316600482015260248101919091529116906393113b5c906044015f604051808303815f87803b1580156106f5575f80fd5b505af1158015610707573d5f803e3d5ffd5b50505050837f05ddc886acde01b77731bfad1dcfb6abf529f05c28ea66556fe87429bb2789ea8460405161073d91815260200190565b60405180910390a250505050565b61075361084c565b5f81815260016020526040812090600582015460ff16600281111561077a5761077a610a57565b146107985760405163a92c04c760e01b815260040160405180910390fd5b806004015442116107bc5760405163191f4d1b60e31b815260040160405180910390fd5b60058101805460ff1916600217905560405182907f9b398e0a546c4aa218ac0b98f5e2196a7aff605b50c19eb795f9cb3b2f5d5b55905f90a25050565b61080161084c565b6001600160a01b03811661082f57604051631e4fbdf760e01b81525f60048201526024015b60405180910390fd5b610838816108a7565b50565b610843610917565b61083881610960565b3361087e7f9016d09d72d40fdae2fd8ceac6b6234c7706214fd39c1cd1e609a0528c199300546001600160a01b031690565b6001600160a01b0316146105845760405163118cdaa760e01b8152336004820152602401610826565b7f9016d09d72d40fdae2fd8ceac6b6234c7706214fd39c1cd1e609a0528c19930080546001600160a01b031981166001600160a01b03848116918217845560405192169182907f8be0079c531659141344cd1fd0a4f28419497f9722a3daafe3b4186f6b6457e0905f90a3505050565b7ff0c57e16840df040f15088dc2f81fe391c3923bec73e23a9662efc9c229c6a0054600160401b900460ff1661058457604051631afcd79f60e31b815260040160405180910390fd5b610801610917565b80356001600160a01b038116811461097e575f80fd5b919050565b5f805f60608486031215610995575f80fd5b61099e84610968565b92506109ac60208501610968565b929592945050506040919091013590565b5f805f805f60a086880312156109d1575f80fd5b8535945060208601359350604086013592506109ef60608701610968565b949793965091946080013592915050565b5f60208284031215610a10575f80fd5b5035919050565b5f60208284031215610a27575f80fd5b610a3082610968565b9392505050565b5f8060408385031215610a48575f80fd5b50508035926020909101359150565b634e487b7160e01b5f52602160045260245ffd5b8681526001600160a01b038616602082015260408101859052606081018490526080810183905260c0810160038310610ab257634e487b7160e01b5f52602160045260245ffd5b8260a0830152979650505050505050565b5f60208284031215610ad3575f80fd5b5051919050565b80820180821115610af957634e487b7160e01b5f52601160045260245ffd5b9291505056fea26469706673582212208d06420806320b0196512b6a1cc7e348089014b013195110e12e521fe09764ad64736f6c634300081a0033","linkReferences":{}},"methodIdentifiers":{"abortBridgeTransfer(bytes32)":"c95b659f","atomicBridgeInitiator()":"ee2c59f8","bridgeTransfers(bytes32)":"e0d9cbc4","completeBridgeTransfer(bytes32,bytes32)":"9f8f8799","counterpartyTimeLockDuration()":"96d17d49","initialize(address,address,uint256)":"1794bb3c","lockBridgeTransfer(bytes32,bytes32,bytes32,address,uint256)":"27b3ea07","owner()":"8da5cb5b","renounceOwnership()":"715018a6","setAtomicBridgeInitiator(address)":"7ce08748","setTimeLockDuration(uint256)":"71115eb2","transferOwnership(address)":"f2fde38b"},"id":39}