{"abi":[{"type":"function","name":"abortBridgeTransfer","inputs":[{"name":"bridgeTransferId","type":"bytes32","internalType":"bytes32"}],"outputs":[],"stateMutability":"nonpayable"},{"type":"function","name":"atomicBridgeInitiatorMOVE","inputs":[],"outputs":[{"name":"","type":"address","internalType":"contract AtomicBridgeInitiatorMOVE"}],"stateMutability":"view"},{"type":"function","name":"bridgeTransfers","inputs":[{"name":"","type":"bytes32","internalType":"bytes32"}],"outputs":[{"name":"originator","type":"bytes32","internalType":"bytes32"},{"name":"recipient","type":"address","internalType":"address"},{"name":"amount","type":"uint256","internalType":"uint256"},{"name":"hashLock","type":"bytes32","internalType":"bytes32"},{"name":"timeLock","type":"uint256","internalType":"uint256"},{"name":"state","type":"uint8","internalType":"enum AtomicBridgeCounterpartyMOVE.MessageState"}],"stateMutability":"view"},{"type":"function","name":"completeBridgeTransfer","inputs":[{"name":"bridgeTransferId","type":"bytes32","internalType":"bytes32"},{"name":"preImage","type":"bytes32","internalType":"bytes32"}],"outputs":[],"stateMutability":"nonpayable"},{"type":"function","name":"counterpartyTimeLockDuration","inputs":[],"outputs":[{"name":"","type":"uint256","internalType":"uint256"}],"stateMutability":"view"},{"type":"function","name":"initialize","inputs":[{"name":"_atomicBridgeInitiator","type":"address","internalType":"address"},{"name":"owner","type":"address","internalType":"address"},{"name":"_timeLockDuration","type":"uint256","internalType":"uint256"}],"outputs":[],"stateMutability":"nonpayable"},{"type":"function","name":"lockBridgeTransfer","inputs":[{"name":"originator","type":"bytes32","internalType":"bytes32"},{"name":"bridgeTransferId","type":"bytes32","internalType":"bytes32"},{"name":"hashLock","type":"bytes32","internalType":"bytes32"},{"name":"recipient","type":"address","internalType":"address"},{"name":"amount","type":"uint256","internalType":"uint256"}],"outputs":[],"stateMutability":"nonpayable"},{"type":"function","name":"owner","inputs":[],"outputs":[{"name":"","type":"address","internalType":"address"}],"stateMutability":"view"},{"type":"function","name":"renounceOwnership","inputs":[],"outputs":[],"stateMutability":"nonpayable"},{"type":"function","name":"setAtomicBridgeInitiator","inputs":[{"name":"_atomicBridgeInitiator","type":"address","internalType":"address"}],"outputs":[],"stateMutability":"nonpayable"},{"type":"function","name":"setTimeLockDuration","inputs":[{"name":"_timeLockDuration","type":"uint256","internalType":"uint256"}],"outputs":[],"stateMutability":"nonpayable"},{"type":"function","name":"transferOwnership","inputs":[{"name":"newOwner","type":"address","internalType":"address"}],"outputs":[],"stateMutability":"nonpayable"},{"type":"event","name":"BridgeTransferAborted","inputs":[{"name":"bridgeTransferId","type":"bytes32","indexed":true,"internalType":"bytes32"}],"anonymous":false},{"type":"event","name":"BridgeTransferCompleted","inputs":[{"name":"bridgeTransferId","type":"bytes32","indexed":true,"internalType":"bytes32"},{"name":"pre_image","type":"bytes32","indexed":false,"internalType":"bytes32"}],"anonymous":false},{"type":"event","name":"BridgeTransferLocked","inputs":[{"name":"bridgeTransferId","type":"bytes32","indexed":true,"internalType":"bytes32"},{"name":"recipient","type":"address","indexed":true,"internalType":"address"},{"name":"amount","type":"uint256","indexed":false,"internalType":"uint256"},{"name":"hashLock","type":"bytes32","indexed":false,"internalType":"bytes32"},{"name":"timeLock","type":"uint256","indexed":false,"internalType":"uint256"}],"anonymous":false},{"type":"event","name":"Initialized","inputs":[{"name":"version","type":"uint64","indexed":false,"internalType":"uint64"}],"anonymous":false},{"type":"event","name":"OwnershipTransferred","inputs":[{"name":"previousOwner","type":"address","indexed":true,"internalType":"address"},{"name":"newOwner","type":"address","indexed":true,"internalType":"address"}],"anonymous":false},{"type":"error","name":"BridgeTransferHasBeenCompleted","inputs":[]},{"type":"error","name":"BridgeTransferInvalid","inputs":[]},{"type":"error","name":"BridgeTransferStateNotInitialized","inputs":[]},{"type":"error","name":"BridgeTransferStateNotPending","inputs":[]},{"type":"error","name":"InsufficientMOVEBalance","inputs":[]},{"type":"error","name":"InvalidInitialization","inputs":[]},{"type":"error","name":"InvalidSecret","inputs":[]},{"type":"error","name":"MOVETransferFailed","inputs":[]},{"type":"error","name":"NotInitializing","inputs":[]},{"type":"error","name":"OwnableInvalidOwner","inputs":[{"name":"owner","type":"address","internalType":"address"}]},{"type":"error","name":"OwnableUnauthorizedAccount","inputs":[{"name":"account","type":"address","internalType":"address"}]},{"type":"error","name":"TimeLockExpired","inputs":[]},{"type":"error","name":"TimeLockNotExpired","inputs":[]},{"type":"error","name":"Unauthorized","inputs":[]},{"type":"error","name":"ZeroAddress","inputs":[]},{"type":"error","name":"ZeroAmount","inputs":[]}],"bytecode":{"object":"0x6080604052348015600e575f80fd5b50610b058061001c5f395ff3fe608060405234801561000f575f80fd5b50600436106100b1575f3560e01c80638da5cb5b1161006e5780638da5cb5b1461013a57806396d17d491461016a5780639f8f879914610181578063c95b659f14610194578063e0d9cbc4146101a7578063f2fde38b14610209575f80fd5b80631794bb3c146100b557806327b3ea07146100ca5780633b9b4640146100dd57806371115eb21461010c578063715018a61461011f5780637ce0874814610127575b5f80fd5b6100c86100c3366004610909565b61021c565b005b6100c86100d8366004610943565b610372565b5f546100ef906001600160a01b031681565b6040516001600160a01b0390911681526020015b60405180910390f35b6100c861011a366004610986565b610536565b6100c8610543565b6100c861013536600461099d565b610556565b7f9016d09d72d40fdae2fd8ceac6b6234c7706214fd39c1cd1e609a0528c199300546001600160a01b03166100ef565b61017360025481565b604051908152602001610103565b6100c861018f3660046109bd565b6105a6565b6100c86101a2366004610986565b610621565b6101f76101b5366004610986565b600160208190525f91825260409091208054918101546002820154600383015460048401546005909401546001600160a01b0390931693919290919060ff1686565b604051610103969594939291906109f1565b6100c861021736600461099d565b6106cf565b7ff0c57e16840df040f15088dc2f81fe391c3923bec73e23a9662efc9c229c6a008054600160401b810460ff16159067ffffffffffffffff165f811580156102615750825b90505f8267ffffffffffffffff16600114801561027d5750303b155b90508115801561028b575080155b156102a95760405163f92ee8a960e01b815260040160405180910390fd5b845467ffffffffffffffff1916600117855583156102d357845460ff60401b1916600160401b1785555b6001600160a01b0388166102fa5760405163d92e233d60e01b815260040160405180910390fd5b5f80546001600160a01b0319166001600160a01b038a1617905561031d87610711565b6002869055831561036857845460ff60401b19168555604051600181527fc7f505b2f371ae2175ee4913f4499e1f2633a7b5936321eed1cdaeb6115181d29060200160405180910390a15b5050505050505050565b61037a610722565b805f0361039a57604051631f2a200560e01b815260040160405180910390fd5b5f600254426103a99190610a49565b90506103e1604051806040016040528060148152602001731250d2481313d0d2c81d1a5b59531bd8dace895960621b8152508261077d565b6040518060c00160405280878152602001846001600160a01b031681526020018381526020018581526020018281526020015f6002811115610425576104256109dd565b90525f86815260016020818152604092839020845181559084015181830180546001600160a01b0319166001600160a01b0390921691909117905591830151600280840191909155606084015160038401556080840151600484015560a08401516005840180549193909260ff199092169184908111156104a8576104a86109dd565b02179055509050506104de6040518060400160405280600d81526020016c494349204c4f434b20646f6e6560981b8152506107c6565b600254604080518481526020810187905280820192909252516001600160a01b0385169187917fa03230f5967404ba170c5be8445486911e87267000597e4ba9ed9d4b014fa4bd9181900360600190a3505050505050565b61053e610722565b600255565b61054b610722565b6105545f610809565b565b61055e610722565b6001600160a01b0381166105855760405163d92e233d60e01b815260040160405180910390fd5b5f80546001600160a01b0319166001600160a01b0392909216919091179055565b5f828152600160209081526040808320815192830185905292910160408051808303601f1901815290829052805160209182012060058501805460ff19166001179055858352925085917f05ddc886acde01b77731bfad1dcfb6abf529f05c28ea66556fe87429bb2789ea910160405180910390a250505050565b610629610722565b5f81815260016020526040812090600582015460ff166002811115610650576106506109dd565b1461066e5760405163a92c04c760e01b815260040160405180910390fd5b806004015442116106925760405163191f4d1b60e31b815260040160405180910390fd5b60058101805460ff1916600217905560405182907f9b398e0a546c4aa218ac0b98f5e2196a7aff605b50c19eb795f9cb3b2f5d5b55905f90a25050565b6106d7610722565b6001600160a01b03811661070557604051631e4fbdf760e01b81525f60048201526024015b60405180910390fd5b61070e81610809565b50565b610719610879565b61070e816108c2565b336107547f9016d09d72d40fdae2fd8ceac6b6234c7706214fd39c1cd1e609a0528c199300546001600160a01b031690565b6001600160a01b0316146105545760405163118cdaa760e01b81523360048201526024016106fc565b6107c28282604051602401610793929190610a9c565b60408051601f198184030181529190526020810180516001600160e01b03166309710a9d60e41b1790526108ca565b5050565b61070e816040516024016107da9190610abd565b60408051601f198184030181529190526020810180516001600160e01b031663104c13eb60e21b1790526108ca565b7f9016d09d72d40fdae2fd8ceac6b6234c7706214fd39c1cd1e609a0528c19930080546001600160a01b031981166001600160a01b03848116918217845560405192169182907f8be0079c531659141344cd1fd0a4f28419497f9722a3daafe3b4186f6b6457e0905f90a3505050565b7ff0c57e16840df040f15088dc2f81fe391c3923bec73e23a9662efc9c229c6a0054600160401b900460ff1661055457604051631afcd79f60e31b815260040160405180910390fd5b6106d7610879565b61070e8180516a636f6e736f6c652e6c6f67602083015f808483855afa5050505050565b80356001600160a01b0381168114610904575f80fd5b919050565b5f805f6060848603121561091b575f80fd5b610924846108ee565b9250610932602085016108ee565b929592945050506040919091013590565b5f805f805f60a08688031215610957575f80fd5b853594506020860135935060408601359250610975606087016108ee565b949793965091946080013592915050565b5f60208284031215610996575f80fd5b5035919050565b5f602082840312156109ad575f80fd5b6109b6826108ee565b9392505050565b5f80604083850312156109ce575f80fd5b50508035926020909101359150565b634e487b7160e01b5f52602160045260245ffd5b8681526001600160a01b038616602082015260408101859052606081018490526080810183905260c0810160038310610a3857634e487b7160e01b5f52602160045260245ffd5b8260a0830152979650505050505050565b80820180821115610a6857634e487b7160e01b5f52601160045260245ffd5b92915050565b5f81518084528060208401602086015e5f602082860101526020601f19601f83011685010191505092915050565b604081525f610aae6040830185610a6e565b90508260208301529392505050565b602081525f6109b66020830184610a6e56fea2646970667358221220ff5193fbc96865095d10abb360de29b578fcfa2abe6903afddb3d5fc1475f4da64736f6c634300081a0033","linkReferences":{}},"methodIdentifiers":{"abortBridgeTransfer(bytes32)":"c95b659f","atomicBridgeInitiatorMOVE()":"3b9b4640","bridgeTransfers(bytes32)":"e0d9cbc4","completeBridgeTransfer(bytes32,bytes32)":"9f8f8799","counterpartyTimeLockDuration()":"96d17d49","initialize(address,address,uint256)":"1794bb3c","lockBridgeTransfer(bytes32,bytes32,bytes32,address,uint256)":"27b3ea07","owner()":"8da5cb5b","renounceOwnership()":"715018a6","setAtomicBridgeInitiator(address)":"7ce08748","setTimeLockDuration(uint256)":"71115eb2","transferOwnership(address)":"f2fde38b"},"id":42}