{"abi":[{"type":"function","name":"allowance","inputs":[{"name":"owner","type":"address","internalType":"address"},{"name":"spender","type":"address","internalType":"address"}],"outputs":[{"name":"","type":"uint256","internalType":"uint256"}],"stateMutability":"view"},{"type":"function","name":"approve","inputs":[{"name":"spender","type":"address","internalType":"address"},{"name":"value","type":"uint256","internalType":"uint256"}],"outputs":[{"name":"","type":"bool","internalType":"bool"}],"stateMutability":"nonpayable"},{"type":"function","name":"balanceOf","inputs":[{"name":"account","type":"address","internalType":"address"}],"outputs":[{"name":"","type":"uint256","internalType":"uint256"}],"stateMutability":"view"},{"type":"function","name":"decimals","inputs":[],"outputs":[{"name":"","type":"uint8","internalType":"uint8"}],"stateMutability":"pure"},{"type":"function","name":"initialize","inputs":[{"name":"multisig","type":"address","internalType":"address"}],"outputs":[],"stateMutability":"nonpayable"},{"type":"function","name":"name","inputs":[],"outputs":[{"name":"","type":"string","internalType":"string"}],"stateMutability":"view"},{"type":"function","name":"symbol","inputs":[],"outputs":[{"name":"","type":"string","internalType":"string"}],"stateMutability":"view"},{"type":"function","name":"totalSupply","inputs":[],"outputs":[{"name":"","type":"uint256","internalType":"uint256"}],"stateMutability":"view"},{"type":"function","name":"transfer","inputs":[{"name":"to","type":"address","internalType":"address"},{"name":"value","type":"uint256","internalType":"uint256"}],"outputs":[{"name":"","type":"bool","internalType":"bool"}],"stateMutability":"nonpayable"},{"type":"function","name":"transferFrom","inputs":[{"name":"from","type":"address","internalType":"address"},{"name":"to","type":"address","internalType":"address"},{"name":"value","type":"uint256","internalType":"uint256"}],"outputs":[{"name":"","type":"bool","internalType":"bool"}],"stateMutability":"nonpayable"},{"type":"event","name":"Approval","inputs":[{"name":"owner","type":"address","indexed":true,"internalType":"address"},{"name":"spender","type":"address","indexed":true,"internalType":"address"},{"name":"value","type":"uint256","indexed":false,"internalType":"uint256"}],"anonymous":false},{"type":"event","name":"Initialized","inputs":[{"name":"version","type":"uint64","indexed":false,"internalType":"uint64"}],"anonymous":false},{"type":"event","name":"Transfer","inputs":[{"name":"from","type":"address","indexed":true,"internalType":"address"},{"name":"to","type":"address","indexed":true,"internalType":"address"},{"name":"value","type":"uint256","indexed":false,"internalType":"uint256"}],"anonymous":false},{"type":"error","name":"ERC20InsufficientAllowance","inputs":[{"name":"spender","type":"address","internalType":"address"},{"name":"allowance","type":"uint256","internalType":"uint256"},{"name":"needed","type":"uint256","internalType":"uint256"}]},{"type":"error","name":"ERC20InsufficientBalance","inputs":[{"name":"sender","type":"address","internalType":"address"},{"name":"balance","type":"uint256","internalType":"uint256"},{"name":"needed","type":"uint256","internalType":"uint256"}]},{"type":"error","name":"ERC20InvalidApprover","inputs":[{"name":"approver","type":"address","internalType":"address"}]},{"type":"error","name":"ERC20InvalidReceiver","inputs":[{"name":"receiver","type":"address","internalType":"address"}]},{"type":"error","name":"ERC20InvalidSender","inputs":[{"name":"sender","type":"address","internalType":"address"}]},{"type":"error","name":"ERC20InvalidSpender","inputs":[{"name":"spender","type":"address","internalType":"address"}]},{"type":"error","name":"InvalidInitialization","inputs":[]},{"type":"error","name":"NotInitializing","inputs":[]}],"bytecode":{"object":"0x6080604052348015600e575f80fd5b50610c558061001c5f395ff3fe608060405234801561000f575f80fd5b506004361061009b575f3560e01c806370a082311161006357806370a082311461013357806395d89b4114610167578063a9059cbb1461016f578063c4d66de814610182578063dd62ed3e14610197575f80fd5b806306fdde031461009f578063095ea7b3146100bd57806318160ddd146100e057806323b872dd14610111578063313ce56714610124575b5f80fd5b6100a76101aa565b6040516100b49190610882565b60405180910390f35b6100d06100cb3660046108d2565b61026a565b60405190151581526020016100b4565b7f52c63247e1f47db19d5ce0460030c497f067ca4cebf71ba98eeadabe20bace02545b6040519081526020016100b4565b6100d061011f3660046108fa565b610283565b604051600881526020016100b4565b610103610141366004610934565b6001600160a01b03165f9081525f80516020610c00833981519152602052604090205490565b6100a76102a6565b6100d061017d3660046108d2565b6102e4565b610195610190366004610934565b6102f1565b005b6101036101a5366004610954565b610460565b7f52c63247e1f47db19d5ce0460030c497f067ca4cebf71ba98eeadabe20bace0380546060915f80516020610c00833981519152916101e890610985565b80601f016020809104026020016040519081016040528092919081815260200182805461021490610985565b801561025f5780601f106102365761010080835404028352916020019161025f565b820191905f5260205f20905b81548152906001019060200180831161024257829003601f168201915b505050505091505090565b5f336102778185856104a9565b60019150505b92915050565b5f336102908582856104bb565b61029b858585610523565b506001949350505050565b7f52c63247e1f47db19d5ce0460030c497f067ca4cebf71ba98eeadabe20bace0480546060915f80516020610c00833981519152916101e890610985565b5f33610277818585610523565b7ff0c57e16840df040f15088dc2f81fe391c3923bec73e23a9662efc9c229c6a008054600160401b810460ff16159067ffffffffffffffff165f811580156103365750825b90505f8267ffffffffffffffff1660011480156103525750303b155b905081158015610360575080155b1561037e5760405163f92ee8a960e01b815260040160405180910390fd5b845467ffffffffffffffff1916600117855583156103a857845460ff60401b1916600160401b1785555b6103ee60405180604001604052806008815260200167135bdd995b595b9d60c21b815250604051806040016040528060048152602001634d4f564560e01b815250610580565b610412866103fe6008600a610ab4565b61040d906402540be400610ac2565b610596565b831561045857845460ff60401b19168555604051600181527fc7f505b2f371ae2175ee4913f4499e1f2633a7b5936321eed1cdaeb6115181d29060200160405180910390a15b505050505050565b6001600160a01b039182165f9081527f52c63247e1f47db19d5ce0460030c497f067ca4cebf71ba98eeadabe20bace016020908152604080832093909416825291909152205490565b6104b683838360016105ca565b505050565b5f6104c68484610460565b90505f19811461051d578181101561050f57604051637dc7a0d960e11b81526001600160a01b038416600482015260248101829052604481018390526064015b60405180910390fd5b61051d84848484035f6105ca565b50505050565b6001600160a01b03831661054c57604051634b637e8f60e11b81525f6004820152602401610506565b6001600160a01b0382166105755760405163ec442f0560e01b81525f6004820152602401610506565b6104b68383836106ae565b6105886107e7565b6105928282610832565b5050565b6001600160a01b0382166105bf5760405163ec442f0560e01b81525f6004820152602401610506565b6105925f83836106ae565b5f80516020610c008339815191526001600160a01b0385166106015760405163e602df0560e01b81525f6004820152602401610506565b6001600160a01b03841661062a57604051634a1406b160e11b81525f6004820152602401610506565b6001600160a01b038086165f908152600183016020908152604080832093881683529290522083905581156106a757836001600160a01b0316856001600160a01b03167f8c5be1e5ebec7d5bd14f71427d1e84f3dd0314c0f7b2291e5b200ac8c7c3b9258560405161069e91815260200190565b60405180910390a35b5050505050565b5f80516020610c008339815191526001600160a01b0384166106e85781816002015f8282546106dd9190610ad9565b909155506107589050565b6001600160a01b0384165f908152602082905260409020548281101561073a5760405163391434e360e21b81526001600160a01b03861660048201526024810182905260448101849052606401610506565b6001600160a01b0385165f9081526020839052604090209083900390555b6001600160a01b038316610776576002810180548390039055610794565b6001600160a01b0383165f9081526020829052604090208054830190555b826001600160a01b0316846001600160a01b03167fddf252ad1be2c89b69c2b068fc378daa952ba7f163c4a11628f55a4df523b3ef846040516107d991815260200190565b60405180910390a350505050565b7ff0c57e16840df040f15088dc2f81fe391c3923bec73e23a9662efc9c229c6a0054600160401b900460ff1661083057604051631afcd79f60e31b815260040160405180910390fd5b565b61083a6107e7565b5f80516020610c008339815191527f52c63247e1f47db19d5ce0460030c497f067ca4cebf71ba98eeadabe20bace036108738482610b44565b506004810161051d8382610b44565b602081525f82518060208401528060208501604085015e5f604082850101526040601f19601f83011684010191505092915050565b80356001600160a01b03811681146108cd575f80fd5b919050565b5f80604083850312156108e3575f80fd5b6108ec836108b7565b946020939093013593505050565b5f805f6060848603121561090c575f80fd5b610915846108b7565b9250610923602085016108b7565b929592945050506040919091013590565b5f60208284031215610944575f80fd5b61094d826108b7565b9392505050565b5f8060408385031215610965575f80fd5b61096e836108b7565b915061097c602084016108b7565b90509250929050565b600181811c9082168061099957607f821691505b6020821081036109b757634e487b7160e01b5f52602260045260245ffd5b50919050565b634e487b7160e01b5f52601160045260245ffd5b6001815b6001841115610a0c578085048111156109f0576109f06109bd565b60018416156109fe57908102905b60019390931c9280026109d5565b935093915050565b5f82610a225750600161027d565b81610a2e57505f61027d565b8160018114610a445760028114610a4e57610a6a565b600191505061027d565b60ff841115610a5f57610a5f6109bd565b50506001821b61027d565b5060208310610133831016604e8410600b8410161715610a8d575081810a61027d565b610a995f1984846109d1565b805f1904821115610aac57610aac6109bd565b029392505050565b5f61094d60ff841683610a14565b808202811582820484141761027d5761027d6109bd565b8082018082111561027d5761027d6109bd565b634e487b7160e01b5f52604160045260245ffd5b601f8211156104b657805f5260205f20601f840160051c81016020851015610b255750805b601f840160051c820191505b818110156106a7575f8155600101610b31565b815167ffffffffffffffff811115610b5e57610b5e610aec565b610b7281610b6c8454610985565b84610b00565b6020601f821160018114610ba4575f8315610b8d5750848201515b5f19600385901b1c1916600184901b1784556106a7565b5f84815260208120601f198516915b82811015610bd35787850151825560209485019460019092019101610bb3565b5084821015610bf057868401515f19600387901b60f8161c191681555b50505050600190811b0190555056fe52c63247e1f47db19d5ce0460030c497f067ca4cebf71ba98eeadabe20bace00a2646970667358221220bc65f85fbb168f1883532d121eda2202d9b3b8aaf9b478091c46d99882c4b00d64736f6c634300081a0033","linkReferences":{}},"methodIdentifiers":{"allowance(address,address)":"dd62ed3e","approve(address,uint256)":"095ea7b3","balanceOf(address)":"70a08231","decimals()":"313ce567","initialize(address)":"c4d66de8","name()":"06fdde03","symbol()":"95d89b41","totalSupply()":"18160ddd","transfer(address,uint256)":"a9059cbb","transferFrom(address,address,uint256)":"23b872dd"},"id":46}