{"abi":[{"type":"constructor","inputs":[],"stateMutability":"nonpayable"},{"type":"function","name":"DEFAULT_ADMIN_ROLE","inputs":[],"outputs":[{"name":"","type":"bytes32","internalType":"bytes32"}],"stateMutability":"view"},{"type":"function","name":"RELAYER_ROLE","inputs":[],"outputs":[{"name":"","type":"bytes32","internalType":"bytes32"}],"stateMutability":"view"},{"type":"function","name":"batchCompleteBridgeTransfer","inputs":[{"name":"bridgeTransferIds","type":"bytes32[]","internalType":"bytes32[]"},{"name":"initiators","type":"bytes32[]","internalType":"bytes32[]"},{"name":"recipients","type":"address[]","internalType":"address[]"},{"name":"amounts","type":"uint256[]","internalType":"uint256[]"},{"name":"nonces","type":"uint256[]","internalType":"uint256[]"}],"outputs":[],"stateMutability":"nonpayable"},{"type":"function","name":"completeBridgeTransfer","inputs":[{"name":"bridgeTransferId","type":"bytes32","internalType":"bytes32"},{"name":"initiator","type":"bytes32","internalType":"bytes32"},{"name":"recipient","type":"address","internalType":"address"},{"name":"amount","type":"uint256","internalType":"uint256"},{"name":"nonce","type":"uint256","internalType":"uint256"}],"outputs":[],"stateMutability":"nonpayable"},{"type":"function","name":"getRoleAdmin","inputs":[{"name":"role","type":"bytes32","internalType":"bytes32"}],"outputs":[{"name":"","type":"bytes32","internalType":"bytes32"}],"stateMutability":"view"},{"type":"function","name":"grantRole","inputs":[{"name":"role","type":"bytes32","internalType":"bytes32"},{"name":"account","type":"address","internalType":"address"}],"outputs":[],"stateMutability":"nonpayable"},{"type":"function","name":"hasRole","inputs":[{"name":"role","type":"bytes32","internalType":"bytes32"},{"name":"account","type":"address","internalType":"address"}],"outputs":[{"name":"","type":"bool","internalType":"bool"}],"stateMutability":"view"},{"type":"function","name":"idsToIncomingNonces","inputs":[{"name":"bridgeTransferId","type":"bytes32","internalType":"bytes32"}],"outputs":[{"name":"nonce","type":"uint256","internalType":"uint256"}],"stateMutability":"view"},{"type":"function","name":"initialize","inputs":[{"name":"_moveToken","type":"address","internalType":"address"},{"name":"_admin","type":"address","internalType":"address"},{"name":"_relayer","type":"address","internalType":"address"},{"name":"_maintainer","type":"address","internalType":"address"}],"outputs":[],"stateMutability":"nonpayable"},{"type":"function","name":"initiateBridgeTransfer","inputs":[{"name":"recipient","type":"bytes32","internalType":"bytes32"},{"name":"amount","type":"uint256","internalType":"uint256"}],"outputs":[{"name":"bridgeTransferId","type":"bytes32","internalType":"bytes32"}],"stateMutability":"nonpayable"},{"type":"function","name":"moveToken","inputs":[],"outputs":[{"name":"","type":"address","internalType":"contract IERC20"}],"stateMutability":"view"},{"type":"function","name":"noncesToOutgoingTransfers","inputs":[{"name":"nonce","type":"uint256","internalType":"uint256"}],"outputs":[{"name":"bridgeTransferId","type":"bytes32","internalType":"bytes32"},{"name":"initiator","type":"address","internalType":"address"},{"name":"recipient","type":"bytes32","internalType":"bytes32"},{"name":"amount","type":"uint256","internalType":"uint256"}],"stateMutability":"view"},{"type":"function","name":"paused","inputs":[],"outputs":[{"name":"","type":"bool","internalType":"bool"}],"stateMutability":"view"},{"type":"function","name":"renounceRole","inputs":[{"name":"role","type":"bytes32","internalType":"bytes32"},{"name":"callerConfirmation","type":"address","internalType":"address"}],"outputs":[],"stateMutability":"nonpayable"},{"type":"function","name":"revokeRole","inputs":[{"name":"role","type":"bytes32","internalType":"bytes32"},{"name":"account","type":"address","internalType":"address"}],"outputs":[],"stateMutability":"nonpayable"},{"type":"function","name":"supportsInterface","inputs":[{"name":"interfaceId","type":"bytes4","internalType":"bytes4"}],"outputs":[{"name":"","type":"bool","internalType":"bool"}],"stateMutability":"view"},{"type":"function","name":"togglePause","inputs":[],"outputs":[],"stateMutability":"nonpayable"},{"type":"event","name":"BridgeTransferCompleted","inputs":[{"name":"bridgeTransferId","type":"bytes32","indexed":true,"internalType":"bytes32"},{"name":"originator","type":"bytes32","indexed":true,"internalType":"bytes32"},{"name":"recipient","type":"address","indexed":true,"internalType":"address"},{"name":"amount","type":"uint256","indexed":false,"internalType":"uint256"},{"name":"nonce","type":"uint256","indexed":false,"internalType":"uint256"}],"anonymous":false},{"type":"event","name":"BridgeTransferInitiated","inputs":[{"name":"bridgeTransferId","type":"bytes32","indexed":true,"internalType":"bytes32"},{"name":"originator","type":"address","indexed":true,"internalType":"address"},{"name":"recipient","type":"bytes32","indexed":true,"internalType":"bytes32"},{"name":"amount","type":"uint256","indexed":false,"internalType":"uint256"},{"name":"nonce","type":"uint256","indexed":false,"internalType":"uint256"}],"anonymous":false},{"type":"event","name":"Initialized","inputs":[{"name":"version","type":"uint64","indexed":false,"internalType":"uint64"}],"anonymous":false},{"type":"event","name":"Paused","inputs":[{"name":"account","type":"address","indexed":false,"internalType":"address"}],"anonymous":false},{"type":"event","name":"RoleAdminChanged","inputs":[{"name":"role","type":"bytes32","indexed":true,"internalType":"bytes32"},{"name":"previousAdminRole","type":"bytes32","indexed":true,"internalType":"bytes32"},{"name":"newAdminRole","type":"bytes32","indexed":true,"internalType":"bytes32"}],"anonymous":false},{"type":"event","name":"RoleGranted","inputs":[{"name":"role","type":"bytes32","indexed":true,"internalType":"bytes32"},{"name":"account","type":"address","indexed":true,"internalType":"address"},{"name":"sender","type":"address","indexed":true,"internalType":"address"}],"anonymous":false},{"type":"event","name":"RoleRevoked","inputs":[{"name":"role","type":"bytes32","indexed":true,"internalType":"bytes32"},{"name":"account","type":"address","indexed":true,"internalType":"address"},{"name":"sender","type":"address","indexed":true,"internalType":"address"}],"anonymous":false},{"type":"event","name":"Unpaused","inputs":[{"name":"account","type":"address","indexed":false,"internalType":"address"}],"anonymous":false},{"type":"error","name":"AccessControlBadConfirmation","inputs":[]},{"type":"error","name":"AccessControlUnauthorizedAccount","inputs":[{"name":"account","type":"address","internalType":"address"},{"name":"neededRole","type":"bytes32","internalType":"bytes32"}]},{"type":"error","name":"CompletedBridgeTransferId","inputs":[]},{"type":"error","name":"EnforcedPause","inputs":[]},{"type":"error","name":"ExpectedPause","inputs":[]},{"type":"error","name":"InvalidBridgeTransferId","inputs":[]},{"type":"error","name":"InvalidInitialization","inputs":[]},{"type":"error","name":"InvalidLenghts","inputs":[]},{"type":"error","name":"InvalidNonce","inputs":[]},{"type":"error","name":"MOVETransferFailed","inputs":[]},{"type":"error","name":"NotInitializing","inputs":[]},{"type":"error","name":"ZeroAddress","inputs":[]},{"type":"error","name":"ZeroAmount","inputs":[]}],"bytecode":{"object":"0x6080806040523460d0577ff0c57e16840df040f15088dc2f81fe391c3923bec73e23a9662efc9c229c6a005460ff8160401c1660c1576002600160401b03196001600160401b03821601605c575b604051610fd390816100d58239f35b6001600160401b0319166001600160401b039081177ff0c57e16840df040f15088dc2f81fe391c3923bec73e23a9662efc9c229c6a005581527fc7f505b2f371ae2175ee4913f4499e1f2633a7b5936321eed1cdaeb6115181d290602090a15f80604d565b63f92ee8a960e01b5f5260045ffd5b5f80fdfe6080806040526004361015610012575f80fd5b5f3560e01c90816301ffc9a7146109dc575080630b417df4146107f35780631058648f146107a0578063248a9ca3146107825780632f2ff15d1461075657806336568abe146107125780635c975abb146106e457806391d148541461068f578063926d7d7f1461066d578063a217fddf14610653578063c4ae316814610577578063c509918f1461054d578063ca0c9c2314610388578063d547741f14610357578063e20c95ec1461032f578063e31219ee146102ee5763f8c8765e146100d7575f80fd5b346102ea5760803660031901126102ea576004356001600160a01b038116908190036102ea57610105610a2f565b9061010e610a45565b91606435906001600160a01b03821682036102ea575f80516020610f7e833981519152549360ff8560401c16159467ffffffffffffffff8116801590816102e2575b60011490816102d8575b1590816102cf575b506102c05767ffffffffffffffff1981166001175f80516020610f7e8339815191525585610294575b5083151580610282575b80610270575b15610261576101f56101f592610203956101b3610f12565b6101bb610f12565b60ff195f80516020610f5e83398151915254165f80516020610f5e833981519152556001600160601b0360a01b6002541617600255610bec565b506101fe610a7d565b610c9b565b5061020a57005b68ff0000000000000000195f80516020610f7e83398151915254165f80516020610f7e833981519152557fc7f505b2f371ae2175ee4913f4499e1f2633a7b5936321eed1cdaeb6115181d2602060405160018152a1005b63d92e233d60e01b5f5260045ffd5b506001600160a01b038116151561019b565b506001600160a01b0382161515610195565b68ffffffffffffffffff191668010000000000000001175f80516020610f7e833981519152555f61018b565b63f92ee8a960e01b5f5260045ffd5b9050155f610162565b303b15915061015a565b879150610150565b5f80fd5b346102ea5760a03660031901126102ea5761032d61030a610a45565b61031a610315610a7d565b610ba6565b6084359060643590602435600435610ddb565b005b346102ea575f3660031901126102ea576002546040516001600160a01b039091168152602090f35b346102ea5760403660031901126102ea5761032d600435610376610a2f565b9061038361031582610b39565b610d3f565b346102ea5760a03660031901126102ea5760043567ffffffffffffffff81116102ea576103b9903690600401610ac4565b60243567ffffffffffffffff81116102ea576103d9903690600401610ac4565b6044359167ffffffffffffffff83116102ea57366023840112156102ea57826004013561040581610aac565b936104136040519586610a5b565b8185526024602086019260051b820101903682116102ea57602401915b81831061052d5750505060643567ffffffffffffffff81116102ea5761045a903690600401610ac4565b9160843567ffffffffffffffff81116102ea5761047b903690600401610ac4565b610486610315610a7d565b8251938483511480610523575b80610519575b8061050f575b15610500575f5b8581106104af57005b806104fa6104bf60019388610b57565b516104ca8388610b57565b51848060a01b036104db858d610b57565b51166104e78588610b57565b51916104f3868a610b57565b5193610ddb565b016104a6565b638b13b26360e01b5f5260045ffd5b508482511461049f565b5084815114610499565b5084865114610493565b82356001600160a01b03811681036102ea57815260209283019201610430565b346102ea5760203660031901126102ea576004355f526001602052602060405f2054604051908152f35b346102ea575f3660031901126102ea57335f9081527fb7db2dd08fcb62d0c9e08c51941cae53c267786a0b75803fb7960902fc8ef97d602052604090205460ff161561063c575f80516020610f5e8339815191525460ff161561062d576105dc610b7f565b600160ff195f80516020610f5e8339815191525416175f80516020610f5e833981519152557f62e78cea01bee320cd4e420270b5ea74000d11b0c9f74754ebdbfc544b05a2586020604051338152a1005b638dfc202b60e01b5f5260045ffd5b63e2517d3f60e01b5f52336004525f60245260445ffd5b346102ea575f3660031901126102ea5760206040515f8152f35b346102ea575f3660031901126102ea576020610687610a7d565b604051908152f35b346102ea5760403660031901126102ea576106a8610a2f565b6004355f525f80516020610f3e83398151915260205260405f209060018060a01b03165f52602052602060ff60405f2054166040519015158152f35b346102ea575f3660031901126102ea57602060ff5f80516020610f5e83398151915254166040519015158152f35b346102ea5760403660031901126102ea5761072b610a2f565b336001600160a01b038216036107475761032d90600435610d3f565b63334bd91960e11b5f5260045ffd5b346102ea5760403660031901126102ea5761032d600435610775610a2f565b906101fe61031582610b39565b346102ea5760203660031901126102ea576020610687600435610b39565b346102ea5760203660031901126102ea576004355f525f602052608060405f2080549060018060a01b03600182015416906003600282015491015491604051938452602084015260408301526060820152f35b346102ea5760403660031901126102ea57600435602435610812610b7f565b80156109cd576002546040516323b872dd60e01b81523360048201523060248201526044810183905290602090829060649082905f906001600160a01b03165af19081156109c2575f91610993575b5015610984576003545f19811461097057600101918260035560405160208101903360601b8252826034820152836054820152846074820152607481526108a9609482610a5b565b519020916040516080810181811067ffffffffffffffff82111761095c57602095600391604052858352868301338152604084019086825260608501928684525f525f895260405f2094518555600185019060018060a01b039051166001600160601b0360a01b8254161790555160028401555191015560035460405191825284820152827fc2507e9f40fb7ddcc3fecc870160b2dcaf4fadc223535a7e23ca9fcf87c89e1b60403393a4604051908152f35b634e487b7160e01b5f52604160045260245ffd5b634e487b7160e01b5f52601160045260245ffd5b631a67cf2760e31b5f5260045ffd5b6109b5915060203d6020116109bb575b6109ad8183610a5b565b810190610b21565b83610861565b503d6109a3565b6040513d5f823e3d90fd5b631f2a200560e01b5f5260045ffd5b346102ea5760203660031901126102ea576004359063ffffffff60e01b82168092036102ea57602091637965db0b60e01b8114908115610a1e575b5015158152f35b6301ffc9a760e01b14905083610a17565b602435906001600160a01b03821682036102ea57565b604435906001600160a01b03821682036102ea57565b90601f8019910116810190811067ffffffffffffffff82111761095c57604052565b60405160208101906b52454c415945525f524f4c4560a01b8252600c8152610aa6602c82610a5b565b51902090565b67ffffffffffffffff811161095c5760051b60200190565b9080601f830112156102ea578135610adb81610aac565b92610ae96040519485610a5b565b81845260208085019260051b8201019283116102ea57602001905b828210610b115750505090565b8135815260209182019101610b04565b908160209103126102ea575180151581036102ea5790565b5f525f80516020610f3e833981519152602052600160405f20015490565b8051821015610b6b5760209160051b010190565b634e487b7160e01b5f52603260045260245ffd5b60ff5f80516020610f5e8339815191525416610b9757565b63d93c066560e01b5f5260045ffd5b5f8181525f80516020610f3e8339815191526020908152604080832033845290915290205460ff1615610bd65750565b63e2517d3f60e01b5f523360045260245260445ffd5b6001600160a01b0381165f9081527fb7db2dd08fcb62d0c9e08c51941cae53c267786a0b75803fb7960902fc8ef97d602052604090205460ff16610c96576001600160a01b03165f8181527fb7db2dd08fcb62d0c9e08c51941cae53c267786a0b75803fb7960902fc8ef97d60205260408120805460ff191660011790553391907f2f8788117e7eff1d82e926ec794901d17c78024a50270940304540a733656f0d8180a4600190565b505f90565b5f8181525f80516020610f3e833981519152602090815260408083206001600160a01b038616845290915290205460ff16610d39575f8181525f80516020610f3e833981519152602090815260408083206001600160a01b0395909516808452949091528120805460ff19166001179055339291907f2f8788117e7eff1d82e926ec794901d17c78024a50270940304540a733656f0d9080a4600190565b50505f90565b5f8181525f80516020610f3e833981519152602090815260408083206001600160a01b038616845290915290205460ff1615610d39575f8181525f80516020610f3e833981519152602090815260408083206001600160a01b0395909516808452949091528120805460ff19169055339291907ff6391f5c32d9c69d2a47ea670b442974b53935d1edc7fd64eb21e047a839171b9080a4600190565b91939290928015610f0357825f52600160205260405f2054610ef457604051602081019085825260018060a01b038716966001600160601b03199060601b16604082015283605482015282607482015260748152610e3a609482610a5b565b5190208303610ee557825f5260016020528060405f20555f602060018060a01b036002541660446040518094819363a9059cbb60e01b83528b60048401528860248401525af19081156109c2575f91610ec6575b5015610984577fe8198bb3641f40f04ef209432a2832b3fa23e85c0360473bc30124d0e0cf60cf9160409182519182526020820152a4565b610edf915060203d6020116109bb576109ad8183610a5b565b5f610e8e565b630118b74360e31b5f5260045ffd5b633f968ce760e21b5f5260045ffd5b633ab3447f60e11b5f5260045ffd5b60ff5f80516020610f7e8339815191525460401c1615610f2e57565b631afcd79f60e31b5f5260045ffdfe02dd7bc7dec4dceedda775e58dd541e08a116c6c53815c0bd028192f7b626800cd5ed15c6e187e77e9aee88184c21f4f2182ab5827cb3b7e07fbedcd63f03300f0c57e16840df040f15088dc2f81fe391c3923bec73e23a9662efc9c229c6a00a2646970667358221220f8d5540fd123e084c158e0fce26252bf97013cfedfc770adc812d57faacc3d6c64736f6c634300081a0033","linkReferences":{}},"methodIdentifiers":{"DEFAULT_ADMIN_ROLE()":"a217fddf","RELAYER_ROLE()":"926d7d7f","batchCompleteBridgeTransfer(bytes32[],bytes32[],address[],uint256[],uint256[])":"ca0c9c23","completeBridgeTransfer(bytes32,bytes32,address,uint256,uint256)":"e31219ee","getRoleAdmin(bytes32)":"248a9ca3","grantRole(bytes32,address)":"2f2ff15d","hasRole(bytes32,address)":"91d14854","idsToIncomingNonces(bytes32)":"c509918f","initialize(address,address,address,address)":"f8c8765e","initiateBridgeTransfer(bytes32,uint256)":"0b417df4","moveToken()":"e20c95ec","noncesToOutgoingTransfers(uint256)":"1058648f","paused()":"5c975abb","renounceRole(bytes32,address)":"36568abe","revokeRole(bytes32,address)":"d547741f","supportsInterface(bytes4)":"01ffc9a7","togglePause()":"c4ae3168"},"id":57}