{"abi":[{"type":"function","name":"bridgeTransfers","inputs":[{"name":"","type":"bytes32","internalType":"bytes32"}],"outputs":[{"name":"originator","type":"address","internalType":"address"},{"name":"recipient","type":"bytes32","internalType":"bytes32"},{"name":"amount","type":"uint256","internalType":"uint256"},{"name":"hashLock","type":"bytes32","internalType":"bytes32"},{"name":"timeLock","type":"uint256","internalType":"uint256"},{"name":"state","type":"uint8","internalType":"enum AtomicBridgeInitiator.MessageState"}],"stateMutability":"view"},{"type":"function","name":"completeBridgeTransfer","inputs":[{"name":"bridgeTransferId","type":"bytes32","internalType":"bytes32"},{"name":"preImage","type":"bytes32","internalType":"bytes32"}],"outputs":[],"stateMutability":"nonpayable"},{"type":"function","name":"counterpartyAddress","inputs":[],"outputs":[{"name":"","type":"address","internalType":"address"}],"stateMutability":"view"},{"type":"function","name":"initialize","inputs":[{"name":"_weth","type":"address","internalType":"address"},{"name":"owner","type":"address","internalType":"address"},{"name":"_timeLockDuration","type":"uint256","internalType":"uint256"}],"outputs":[],"stateMutability":"nonpayable"},{"type":"function","name":"initiateBridgeTransfer","inputs":[{"name":"wethAmount","type":"uint256","internalType":"uint256"},{"name":"recipient","type":"bytes32","internalType":"bytes32"},{"name":"hashLock","type":"bytes32","internalType":"bytes32"}],"outputs":[{"name":"bridgeTransferId","type":"bytes32","internalType":"bytes32"}],"stateMutability":"payable"},{"type":"function","name":"initiatorTimeLockDuration","inputs":[],"outputs":[{"name":"","type":"uint256","internalType":"uint256"}],"stateMutability":"view"},{"type":"function","name":"owner","inputs":[],"outputs":[{"name":"","type":"address","internalType":"address"}],"stateMutability":"view"},{"type":"function","name":"refundBridgeTransfer","inputs":[{"name":"bridgeTransferId","type":"bytes32","internalType":"bytes32"}],"outputs":[],"stateMutability":"nonpayable"},{"type":"function","name":"renounceOwnership","inputs":[],"outputs":[],"stateMutability":"nonpayable"},{"type":"function","name":"setCounterpartyAddress","inputs":[{"name":"_counterpartyAddress","type":"address","internalType":"address"}],"outputs":[],"stateMutability":"nonpayable"},{"type":"function","name":"transferOwnership","inputs":[{"name":"newOwner","type":"address","internalType":"address"}],"outputs":[],"stateMutability":"nonpayable"},{"type":"function","name":"weth","inputs":[],"outputs":[{"name":"","type":"address","internalType":"contract IWETH9"}],"stateMutability":"view"},{"type":"function","name":"withdrawWETH","inputs":[{"name":"recipient","type":"address","internalType":"address"},{"name":"amount","type":"uint256","internalType":"uint256"}],"outputs":[],"stateMutability":"nonpayable"},{"type":"event","name":"BridgeTransferCompleted","inputs":[{"name":"_bridgeTransferId","type":"bytes32","indexed":true,"internalType":"bytes32"},{"name":"pre_image","type":"bytes32","indexed":false,"internalType":"bytes32"}],"anonymous":false},{"type":"event","name":"BridgeTransferInitiated","inputs":[{"name":"_bridgeTransferId","type":"bytes32","indexed":true,"internalType":"bytes32"},{"name":"_originator","type":"address","indexed":true,"internalType":"address"},{"name":"_recipient","type":"bytes32","indexed":true,"internalType":"bytes32"},{"name":"amount","type":"uint256","indexed":false,"internalType":"uint256"},{"name":"_hashLock","type":"bytes32","indexed":false,"internalType":"bytes32"},{"name":"_timeLock","type":"uint256","indexed":false,"internalType":"uint256"}],"anonymous":false},{"type":"event","name":"BridgeTransferRefunded","inputs":[{"name":"_bridgeTransferId","type":"bytes32","indexed":true,"internalType":"bytes32"}],"anonymous":false},{"type":"event","name":"Initialized","inputs":[{"name":"version","type":"uint64","indexed":false,"internalType":"uint64"}],"anonymous":false},{"type":"event","name":"OwnershipTransferred","inputs":[{"name":"previousOwner","type":"address","indexed":true,"internalType":"address"},{"name":"newOwner","type":"address","indexed":true,"internalType":"address"}],"anonymous":false},{"type":"error","name":"BridgeTransferHasBeenCompleted","inputs":[]},{"type":"error","name":"BridgeTransferInvalid","inputs":[]},{"type":"error","name":"BridgeTransferStateNotInitialized","inputs":[]},{"type":"error","name":"InsufficientWethBalance","inputs":[]},{"type":"error","name":"InvalidInitialization","inputs":[]},{"type":"error","name":"InvalidSecret","inputs":[]},{"type":"error","name":"NotInitializing","inputs":[]},{"type":"error","name":"OwnableInvalidOwner","inputs":[{"name":"owner","type":"address","internalType":"address"}]},{"type":"error","name":"OwnableUnauthorizedAccount","inputs":[{"name":"account","type":"address","internalType":"address"}]},{"type":"error","name":"TimeLockExpired","inputs":[]},{"type":"error","name":"TimeLockNotExpired","inputs":[]},{"type":"error","name":"Unauthorized","inputs":[]},{"type":"error","name":"WETHTransferFailed","inputs":[]},{"type":"error","name":"ZeroAddress","inputs":[]},{"type":"error","name":"ZeroAmount","inputs":[]}],"bytecode":{"object":"0x6080604052348015600e575f80fd5b50610de28061001c5f395ff3fe6080604052600436106100be575f3560e01c8063578080201161007c57806393113b5c1161005757806393113b5c146102025780639f8f879914610221578063e0d9cbc414610240578063f2fde38b146102ad575f80fd5b80635780802014610193578063715018a6146101b25780638da5cb5b146101c6575f80fd5b80621a153e146100c25780631794bb3c146100e35780631a8849a4146101025780631f92c08e146101285780632b3948bb1461015f5780633fc8cef314610174575b5f80fd5b3480156100cd575f80fd5b506100e16100dc366004610bf9565b6102cc565b005b3480156100ee575f80fd5b506100e16100fd366004610c19565b61031d565b610115610110366004610c53565b610489565b6040519081526020015b60405180910390f35b348015610133575f80fd5b50600154610147906001600160a01b031681565b6040516001600160a01b03909116815260200161011f565b34801561016a575f80fd5b5061011560045481565b34801561017f575f80fd5b50600254610147906001600160a01b031681565b34801561019e575f80fd5b506100e16101ad366004610c7c565b61075d565b3480156101bd575f80fd5b506100e16108a5565b3480156101d1575f80fd5b507f9016d09d72d40fdae2fd8ceac6b6234c7706214fd39c1cd1e609a0528c199300546001600160a01b0316610147565b34801561020d575f80fd5b506100e161021c366004610c93565b6108b8565b34801561022c575f80fd5b506100e161023b366004610cbb565b610977565b34801561024b575f80fd5b5061029b61025a366004610c7c565b5f602081905290815260409020805460018201546002830154600384015460048501546005909501546001600160a01b039094169492939192909160ff1686565b60405161011f96959493929190610cef565b3480156102b8575f80fd5b506100e16102c7366004610bf9565b610a6f565b6102d4610ab1565b6001600160a01b0381166102fb5760405163d92e233d60e01b815260040160405180910390fd5b600180546001600160a01b0319166001600160a01b0392909216919091179055565b7ff0c57e16840df040f15088dc2f81fe391c3923bec73e23a9662efc9c229c6a008054600160401b810460ff16159067ffffffffffffffff165f811580156103625750825b90505f8267ffffffffffffffff16600114801561037e5750303b155b90508115801561038c575080155b156103aa5760405163f92ee8a960e01b815260040160405180910390fd5b845467ffffffffffffffff1916600117855583156103d457845460ff60401b1916600160401b1785555b6001600160a01b0388161580156103f257506001600160a01b038716155b156104105760405163d92e233d60e01b815260040160405180910390fd5b600280546001600160a01b0319166001600160a01b038a1617905561043487610b0c565b6004869055831561047f57845460ff60401b19168555604051600181527fc7f505b2f371ae2175ee4913f4499e1f2633a7b5936321eed1cdaeb6115181d29060200160405180910390a15b5050505050505050565b5f3334826104978288610d5c565b9050805f036104b957604051631f2a200560e01b815260040160405180910390fd5b81156105245760025f9054906101000a90046001600160a01b03166001600160a01b031663d0e30db0836040518263ffffffff1660e01b81526004015f604051808303818588803b15801561050c575f80fd5b505af115801561051e573d5f803e3d5ffd5b50505050505b86156105c1576002546040516323b872dd60e01b81526001600160a01b038581166004830152306024830152604482018a9052909116906323b872dd906064016020604051808303815f875af1158015610580573d5f803e3d5ffd5b505050506040513d601f19601f820116820180604052508101906105a49190610d75565b6105c157604051630dd0c8f760e41b815260040160405180910390fd5b8286866004544260035f8154809291906105da90610d94565b9091555060405160609690961b6bffffffffffffffffffffffff19166020870152603486019490945260548501929092526074840152609483015260b482015260d4016040516020818303038152906040528051906020012093506040518060c00160405280846001600160a01b031681526020018781526020018281526020018681526020016004544261066f9190610d5c565b81526020015f90525f8581526020818152604091829020835181546001600160a01b0319166001600160a01b039091161781559083015160018083019190915591830151600280830191909155606084015160038301556080840151600483015560a084015160058301805493949193909260ff19909116919084908111156106fa576106fa610cdb565b021790555050600454604080518481526020810189905280820192909252518892506001600160a01b0386169187917f44e287be4fbd3a2dcc143a376301094fd2f809dcc2a8d3c09d0a0715224766c49181900360600190a45050509392505050565b610765610ab1565b5f81815260208190526040812090600582015460ff16600281111561078c5761078c610cdb565b146107aa57604051630ffb9dcb60e01b815260040160405180910390fd5b80600401544210156107cf5760405163191f4d1b60e31b815260040160405180910390fd5b60058101805460ff19166002908117909155805482549183015460405163a9059cbb60e01b81526001600160a01b039384166004820152602481019190915291169063a9059cbb906044016020604051808303815f875af1158015610836573d5f803e3d5ffd5b505050506040513d601f19601f8201168201806040525081019061085a9190610d75565b61087757604051630dd0c8f760e41b815260040160405180910390fd5b60405182907f4fee0a65c921e50a9623c3abe10a4067e49c03ef491e7b406dace7cb79c12c61905f90a25050565b6108ad610ab1565b6108b65f610b1d565b565b6001546001600160a01b031633146108e2576040516282b42960e81b815260040160405180910390fd5b60025460405163a9059cbb60e01b81526001600160a01b038481166004830152602482018490529091169063a9059cbb906044016020604051808303815f875af1158015610932573d5f803e3d5ffd5b505050506040513d601f19601f820116820180604052508101906109569190610d75565b61097357604051630dd0c8f760e41b815260040160405180910390fd5b5050565b5f82815260208190526040812090600582015460ff16600281111561099e5761099e610cdb565b146109bc57604051630437880960e41b815260040160405180910390fd5b60038101546040805160208101859052016040516020818303038152906040528051906020012014610a015760405163abab6bd760e01b815260040160405180910390fd5b8060040154421115610a265760405163179a39d160e01b815260040160405180910390fd5b60058101805460ff1916600117905560405182815283907f05ddc886acde01b77731bfad1dcfb6abf529f05c28ea66556fe87429bb2789ea9060200160405180910390a2505050565b610a77610ab1565b6001600160a01b038116610aa557604051631e4fbdf760e01b81525f60048201526024015b60405180910390fd5b610aae81610b1d565b50565b33610ae37f9016d09d72d40fdae2fd8ceac6b6234c7706214fd39c1cd1e609a0528c199300546001600160a01b031690565b6001600160a01b0316146108b65760405163118cdaa760e01b8152336004820152602401610a9c565b610b14610b8d565b610aae81610bd6565b7f9016d09d72d40fdae2fd8ceac6b6234c7706214fd39c1cd1e609a0528c19930080546001600160a01b031981166001600160a01b03848116918217845560405192169182907f8be0079c531659141344cd1fd0a4f28419497f9722a3daafe3b4186f6b6457e0905f90a3505050565b7ff0c57e16840df040f15088dc2f81fe391c3923bec73e23a9662efc9c229c6a0054600160401b900460ff166108b657604051631afcd79f60e31b815260040160405180910390fd5b610a77610b8d565b80356001600160a01b0381168114610bf4575f80fd5b919050565b5f60208284031215610c09575f80fd5b610c1282610bde565b9392505050565b5f805f60608486031215610c2b575f80fd5b610c3484610bde565b9250610c4260208501610bde565b929592945050506040919091013590565b5f805f60608486031215610c65575f80fd5b505081359360208301359350604090920135919050565b5f60208284031215610c8c575f80fd5b5035919050565b5f8060408385031215610ca4575f80fd5b610cad83610bde565b946020939093013593505050565b5f8060408385031215610ccc575f80fd5b50508035926020909101359150565b634e487b7160e01b5f52602160045260245ffd5b6001600160a01b03871681526020810186905260408101859052606081018490526080810183905260c0810160038310610d3757634e487b7160e01b5f52602160045260245ffd5b8260a0830152979650505050505050565b634e487b7160e01b5f52601160045260245ffd5b80820180821115610d6f57610d6f610d48565b92915050565b5f60208284031215610d85575f80fd5b81518015158114610c12575f80fd5b5f60018201610da557610da5610d48565b506001019056fea2646970667358221220f3f74864c6a33b5938bf96c1fd60bed1e538f8adf24001697e8c56bf4c57163b64736f6c634300081a0033","linkReferences":{}},"methodIdentifiers":{"bridgeTransfers(bytes32)":"e0d9cbc4","completeBridgeTransfer(bytes32,bytes32)":"9f8f8799","counterpartyAddress()":"1f92c08e","initialize(address,address,uint256)":"1794bb3c","initiateBridgeTransfer(uint256,bytes32,bytes32)":"1a8849a4","initiatorTimeLockDuration()":"2b3948bb","owner()":"8da5cb5b","refundBridgeTransfer(bytes32)":"57808020","renounceOwnership()":"715018a6","setCounterpartyAddress(address)":"001a153e","transferOwnership(address)":"f2fde38b","weth()":"3fc8cef3","withdrawWETH(address,uint256)":"93113b5c"},"id":44}