{"abi":[{"type":"constructor","inputs":[],"stateMutability":"nonpayable"},{"type":"function","name":"DEFAULT_ADMIN_ROLE","inputs":[],"outputs":[{"name":"","type":"bytes32","internalType":"bytes32"}],"stateMutability":"view"},{"type":"function","name":"RELAYER_ROLE","inputs":[],"outputs":[{"name":"","type":"bytes32","internalType":"bytes32"}],"stateMutability":"view"},{"type":"function","name":"batchCompleteBridgeTransfer","inputs":[{"name":"bridgeTransferIds","type":"bytes32[]","internalType":"bytes32[]"},{"name":"initiators","type":"bytes32[]","internalType":"bytes32[]"},{"name":"recipients","type":"address[]","internalType":"address[]"},{"name":"amounts","type":"uint256[]","internalType":"uint256[]"},{"name":"nonces","type":"uint256[]","internalType":"uint256[]"}],"outputs":[],"stateMutability":"nonpayable"},{"type":"function","name":"completeBridgeTransfer","inputs":[{"name":"bridgeTransferId","type":"bytes32","internalType":"bytes32"},{"name":"initiator","type":"bytes32","internalType":"bytes32"},{"name":"recipient","type":"address","internalType":"address"},{"name":"amount","type":"uint256","internalType":"uint256"},{"name":"nonce","type":"uint256","internalType":"uint256"}],"outputs":[],"stateMutability":"nonpayable"},{"type":"function","name":"getRoleAdmin","inputs":[{"name":"role","type":"bytes32","internalType":"bytes32"}],"outputs":[{"name":"","type":"bytes32","internalType":"bytes32"}],"stateMutability":"view"},{"type":"function","name":"grantRole","inputs":[{"name":"role","type":"bytes32","internalType":"bytes32"},{"name":"account","type":"address","internalType":"address"}],"outputs":[],"stateMutability":"nonpayable"},{"type":"function","name":"hasRole","inputs":[{"name":"role","type":"bytes32","internalType":"bytes32"},{"name":"account","type":"address","internalType":"address"}],"outputs":[{"name":"","type":"bool","internalType":"bool"}],"stateMutability":"view"},{"type":"function","name":"initialize","inputs":[{"name":"_moveToken","type":"address","internalType":"address"},{"name":"_admin","type":"address","internalType":"address"},{"name":"_relayer","type":"address","internalType":"address"},{"name":"_maintainer","type":"address","internalType":"address"}],"outputs":[],"stateMutability":"nonpayable"},{"type":"function","name":"initiateBridgeTransfer","inputs":[{"name":"recipient","type":"bytes32","internalType":"bytes32"},{"name":"amount","type":"uint256","internalType":"uint256"}],"outputs":[{"name":"bridgeTransferId","type":"bytes32","internalType":"bytes32"}],"stateMutability":"nonpayable"},{"type":"function","name":"moveToken","inputs":[],"outputs":[{"name":"","type":"address","internalType":"contract IERC20"}],"stateMutability":"view"},{"type":"function","name":"noncesToIncomingBridgeTransferIds","inputs":[{"name":"nonce","type":"uint256","internalType":"uint256"}],"outputs":[{"name":"incomingBridgeTransferId","type":"bytes32","internalType":"bytes32"}],"stateMutability":"view"},{"type":"function","name":"outgoingBridgeTransfers","inputs":[{"name":"bridgeTransferId","type":"bytes32","internalType":"bytes32"}],"outputs":[{"name":"initiator","type":"address","internalType":"address"},{"name":"recipient","type":"bytes32","internalType":"bytes32"},{"name":"amount","type":"uint256","internalType":"uint256"},{"name":"nonce","type":"uint256","internalType":"uint256"}],"stateMutability":"view"},{"type":"function","name":"paused","inputs":[],"outputs":[{"name":"","type":"bool","internalType":"bool"}],"stateMutability":"view"},{"type":"function","name":"renounceRole","inputs":[{"name":"role","type":"bytes32","internalType":"bytes32"},{"name":"callerConfirmation","type":"address","internalType":"address"}],"outputs":[],"stateMutability":"nonpayable"},{"type":"function","name":"revokeRole","inputs":[{"name":"role","type":"bytes32","internalType":"bytes32"},{"name":"account","type":"address","internalType":"address"}],"outputs":[],"stateMutability":"nonpayable"},{"type":"function","name":"supportsInterface","inputs":[{"name":"interfaceId","type":"bytes4","internalType":"bytes4"}],"outputs":[{"name":"","type":"bool","internalType":"bool"}],"stateMutability":"view"},{"type":"function","name":"togglePause","inputs":[],"outputs":[],"stateMutability":"nonpayable"},{"type":"event","name":"BridgeTransferCompleted","inputs":[{"name":"bridgeTransferId","type":"bytes32","indexed":true,"internalType":"bytes32"},{"name":"originator","type":"bytes32","indexed":true,"internalType":"bytes32"},{"name":"recipient","type":"address","indexed":true,"internalType":"address"},{"name":"amount","type":"uint256","indexed":false,"internalType":"uint256"},{"name":"nonce","type":"uint256","indexed":false,"internalType":"uint256"}],"anonymous":false},{"type":"event","name":"BridgeTransferInitiated","inputs":[{"name":"bridgeTransferId","type":"bytes32","indexed":true,"internalType":"bytes32"},{"name":"originator","type":"address","indexed":true,"internalType":"address"},{"name":"recipient","type":"bytes32","indexed":true,"internalType":"bytes32"},{"name":"amount","type":"uint256","indexed":false,"internalType":"uint256"},{"name":"nonce","type":"uint256","indexed":false,"internalType":"uint256"}],"anonymous":false},{"type":"event","name":"Initialized","inputs":[{"name":"version","type":"uint64","indexed":false,"internalType":"uint64"}],"anonymous":false},{"type":"event","name":"Paused","inputs":[{"name":"account","type":"address","indexed":false,"internalType":"address"}],"anonymous":false},{"type":"event","name":"RoleAdminChanged","inputs":[{"name":"role","type":"bytes32","indexed":true,"internalType":"bytes32"},{"name":"previousAdminRole","type":"bytes32","indexed":true,"internalType":"bytes32"},{"name":"newAdminRole","type":"bytes32","indexed":true,"internalType":"bytes32"}],"anonymous":false},{"type":"event","name":"RoleGranted","inputs":[{"name":"role","type":"bytes32","indexed":true,"internalType":"bytes32"},{"name":"account","type":"address","indexed":true,"internalType":"address"},{"name":"sender","type":"address","indexed":true,"internalType":"address"}],"anonymous":false},{"type":"event","name":"RoleRevoked","inputs":[{"name":"role","type":"bytes32","indexed":true,"internalType":"bytes32"},{"name":"account","type":"address","indexed":true,"internalType":"address"},{"name":"sender","type":"address","indexed":true,"internalType":"address"}],"anonymous":false},{"type":"event","name":"Unpaused","inputs":[{"name":"account","type":"address","indexed":false,"internalType":"address"}],"anonymous":false},{"type":"error","name":"AccessControlBadConfirmation","inputs":[]},{"type":"error","name":"AccessControlUnauthorizedAccount","inputs":[{"name":"account","type":"address","internalType":"address"},{"name":"neededRole","type":"bytes32","internalType":"bytes32"}]},{"type":"error","name":"CompletedBridgeTransferId","inputs":[]},{"type":"error","name":"EnforcedPause","inputs":[]},{"type":"error","name":"ExpectedPause","inputs":[]},{"type":"error","name":"InvalidBridgeTransferId","inputs":[]},{"type":"error","name":"InvalidInitialization","inputs":[]},{"type":"error","name":"InvalidLenghts","inputs":[]},{"type":"error","name":"MOVETransferFailed","inputs":[]},{"type":"error","name":"NotInitializing","inputs":[]},{"type":"error","name":"ZeroAddress","inputs":[]},{"type":"error","name":"ZeroAmount","inputs":[]}],"bytecode":{"object":"0x6080604052348015600e575f5ffd5b5060156019565b60c9565b7ff0c57e16840df040f15088dc2f81fe391c3923bec73e23a9662efc9c229c6a00805468010000000000000000900460ff161560685760405163f92ee8a960e01b815260040160405180910390fd5b80546001600160401b039081161460c65780546001600160401b0319166001600160401b0390811782556040519081527fc7f505b2f371ae2175ee4913f4499e1f2633a7b5936321eed1cdaeb6115181d29060200160405180910390a15b50565b611200806100d65f395ff3fe608060405234801561000f575f5ffd5b5060043610610106575f3560e01c8063a217fddf1161009e578063d547741f1161006e578063d547741f14610230578063e20c95ec14610243578063e31219ee1461026e578063f26179e114610281578063f8c8765e146102e9575f5ffd5b8063a217fddf146101ef578063c4ae3168146101f6578063ca0c9c23146101fe578063cfc9ca8014610211575f5ffd5b806336568abe116100d957806336568abe1461017b5780635c975abb1461018e57806391d14854146101a5578063926d7d7f146101b8575f5ffd5b806301ffc9a71461010a5780630b417df414610132578063248a9ca3146101535780632f2ff15d14610166575b5f5ffd5b61011d610118366004610dde565b6102fc565b60405190151581526020015b60405180910390f35b610145610140366004610e0c565b610332565b604051908152602001610129565b610145610161366004610e2c565b6104f5565b610179610174366004610e5e565b610515565b005b610179610189366004610e5e565b610537565b5f5160206111ab5f395f51905f525460ff1661011d565b61011d6101b3366004610e5e565b61056f565b6101456040516b52454c415945525f524f4c4560a01b6020820152602c016040516020818303038152906040528051906020012081565b6101455f81565b6101796105a5565b61017961020c366004610fbc565b6105d8565b61014561021f366004610e2c565b60016020525f908152604090205481565b61017961023e366004610e5e565b6106ff565b600254610256906001600160a01b031681565b6040516001600160a01b039091168152602001610129565b61017961027c36600461109f565b61071b565b6102bf61028f366004610e2c565b5f6020819052908152604090208054600182015460028301546003909301546001600160a01b0390921692909184565b604080516001600160a01b0390951685526020850193909352918301526060820152608001610129565b6101796102f73660046110e2565b61076a565b5f6001600160e01b03198216637965db0b60e01b148061032c57506301ffc9a760e01b6001600160e01b03198316145b92915050565b5f61033b610969565b5f821161035b57604051631f2a200560e01b815260040160405180910390fd5b6002546040516323b872dd60e01b8152336004820181905230602483015260448201859052916001600160a01b0316906323b872dd906064016020604051808303815f875af11580156103b0573d5f5f3e3d5ffd5b505050506040513d601f19601f820116820180604052508101906103d49190611133565b6103f157604051631a67cf2760e31b815260040160405180910390fd5b80848460035f815461040290611152565b918290555060405160609490941b6bffffffffffffffffffffffff1916602085015260348401929092526054830152607482015260940160408051808303601f1901815282825280516020918201206080840183526001600160a01b038581168086528386018a81528686018a81526003805460608a019081525f87815280895289902099518a546001600160a01b03191696169590951789559151600189015551600288015591519582019590955554835188815292830152945086929185917fc2507e9f40fb7ddcc3fecc870160b2dcaf4fadc223535a7e23ca9fcf87c89e1b910160405180910390a45092915050565b5f9081525f51602061118b5f395f51905f52602052604090206001015490565b61051e826104f5565b6105278161099b565b61053183836109a5565b50505050565b6001600160a01b03811633146105605760405163334bd91960e11b815260040160405180910390fd5b61056a8282610a46565b505050565b5f9182525f51602061118b5f395f51905f52602090815260408084206001600160a01b0393909316845291905290205460ff1690565b5f6105af8161099b565b5f5160206111ab5f395f51905f525460ff166105d0576105cd610abf565b50565b6105cd610b1e565b6040516b52454c415945525f524f4c4560a01b6020820152602c01604051602081830303815290604052805190602001206106128161099b565b85518551811480156106245750808551145b80156106305750808451145b801561063c5750808351145b61065957604051638b13b26360e01b815260040160405180910390fd5b5f5b818110156106f5576106ed88828151811061067857610678611176565b602002602001015188838151811061069257610692611176565b60200260200101518884815181106106ac576106ac611176565b60200260200101518885815181106106c6576106c6611176565b60200260200101518886815181106106e0576106e0611176565b6020026020010151610b66565b60010161065b565b5050505050505050565b610708826104f5565b6107118161099b565b6105318383610a46565b6040516b52454c415945525f524f4c4560a01b6020820152602c01604051602081830303815290604052805190602001206107558161099b565b6107628686868686610b66565b505050505050565b7ff0c57e16840df040f15088dc2f81fe391c3923bec73e23a9662efc9c229c6a008054600160401b810460ff16159067ffffffffffffffff165f811580156107af5750825b90505f8267ffffffffffffffff1660011480156107cb5750303b155b9050811580156107d9575080155b156107f75760405163f92ee8a960e01b815260040160405180910390fd5b845467ffffffffffffffff19166001178555831561082157845460ff60401b1916600160401b1785555b6001600160a01b0389161580159061084157506001600160a01b03881615155b801561085557506001600160a01b03871615155b6108725760405163d92e233d60e01b815260040160405180910390fd5b61087a610cf5565b600280546001600160a01b0319166001600160a01b038b1617905561089f5f896109a5565b506040516b52454c415945525f524f4c4560a01b60208201526108db90602c0160405160208183030381529060405280519060200120886109a5565b506040516b52454c415945525f524f4c4560a01b602082015261091790602c0160405160208183030381529060405280519060200120876109a5565b50831561095e57845460ff60401b19168555604051600181527fc7f505b2f371ae2175ee4913f4499e1f2633a7b5936321eed1cdaeb6115181d29060200160405180910390a15b505050505050505050565b5f5160206111ab5f395f51905f525460ff16156109995760405163d93c066560e01b815260040160405180910390fd5b565b6105cd8133610d05565b5f5f51602061118b5f395f51905f526109be848461056f565b610a3d575f848152602082815260408083206001600160a01b03871684529091529020805460ff191660011790556109f33390565b6001600160a01b0316836001600160a01b0316857f2f8788117e7eff1d82e926ec794901d17c78024a50270940304540a733656f0d60405160405180910390a4600191505061032c565b5f91505061032c565b5f5f51602061118b5f395f51905f52610a5f848461056f565b15610a3d575f848152602082815260408083206001600160a01b0387168085529252808320805460ff1916905551339287917ff6391f5c32d9c69d2a47ea670b442974b53935d1edc7fd64eb21e047a839171b9190a4600191505061032c565b610ac7610d46565b5f5160206111ab5f395f51905f52805460ff191681557f5db9ee0a495bf2e6ff9c91a7834c1ba4fdd244a5e8aa4e537bd38aeae4b073aa335b6040516001600160a01b03909116815260200160405180910390a150565b610b26610969565b5f5160206111ab5f395f51905f52805460ff191660011781557f62e78cea01bee320cd4e420270b5ea74000d11b0c9f74754ebdbfc544b05a25833610b00565b60408051602081018690526bffffffffffffffffffffffff19606086901b16918101919091526054810183905260748101829052609401604051602081830303815290604052805190602001208514610bd257604051630118b74360e31b815260040160405180910390fd5b5f8181526001602052604090205415610bfe57604051633f968ce760e21b815260040160405180910390fd5b5f8181526001602052604090819020869055600254905163a9059cbb60e01b81526001600160a01b038581166004830152602482018590529091169063a9059cbb906044016020604051808303815f875af1158015610c5f573d5f5f3e3d5ffd5b505050506040513d601f19601f82011682018060405250810190610c839190611133565b610ca057604051631a67cf2760e31b815260040160405180910390fd5b826001600160a01b031684867fe8198bb3641f40f04ef209432a2832b3fa23e85c0360473bc30124d0e0cf60cf8585604051610ce6929190918252602082015260400190565b60405180910390a45050505050565b610cfd610d75565b610999610dbe565b610d0f828261056f565b610d425760405163e2517d3f60e01b81526001600160a01b03821660048201526024810183905260440160405180910390fd5b5050565b5f5160206111ab5f395f51905f525460ff1661099957604051638dfc202b60e01b815260040160405180910390fd5b7ff0c57e16840df040f15088dc2f81fe391c3923bec73e23a9662efc9c229c6a0054600160401b900460ff1661099957604051631afcd79f60e31b815260040160405180910390fd5b610dc6610d75565b5f5160206111ab5f395f51905f52805460ff19169055565b5f60208284031215610dee575f5ffd5b81356001600160e01b031981168114610e05575f5ffd5b9392505050565b5f5f60408385031215610e1d575f5ffd5b50508035926020909101359150565b5f60208284031215610e3c575f5ffd5b5035919050565b80356001600160a01b0381168114610e59575f5ffd5b919050565b5f5f60408385031215610e6f575f5ffd5b82359150610e7f60208401610e43565b90509250929050565b634e487b7160e01b5f52604160045260245ffd5b604051601f8201601f1916810167ffffffffffffffff81118282101715610ec557610ec5610e88565b604052919050565b5f67ffffffffffffffff821115610ee657610ee6610e88565b5060051b60200190565b5f82601f830112610eff575f5ffd5b8135610f12610f0d82610ecd565b610e9c565b8082825260208201915060208360051b860101925085831115610f33575f5ffd5b602085015b83811015610f50578035835260209283019201610f38565b5095945050505050565b5f82601f830112610f69575f5ffd5b8135610f77610f0d82610ecd565b8082825260208201915060208360051b860101925085831115610f98575f5ffd5b602085015b83811015610f5057610fae81610e43565b835260209283019201610f9d565b5f5f5f5f5f60a08688031215610fd0575f5ffd5b853567ffffffffffffffff811115610fe6575f5ffd5b610ff288828901610ef0565b955050602086013567ffffffffffffffff81111561100e575f5ffd5b61101a88828901610ef0565b945050604086013567ffffffffffffffff811115611036575f5ffd5b61104288828901610f5a565b935050606086013567ffffffffffffffff81111561105e575f5ffd5b61106a88828901610ef0565b925050608086013567ffffffffffffffff811115611086575f5ffd5b61109288828901610ef0565b9150509295509295909350565b5f5f5f5f5f60a086880312156110b3575f5ffd5b85359450602086013593506110ca60408701610e43565b94979396509394606081013594506080013592915050565b5f5f5f5f608085870312156110f5575f5ffd5b6110fe85610e43565b935061110c60208601610e43565b925061111a60408601610e43565b915061112860608601610e43565b905092959194509250565b5f60208284031215611143575f5ffd5b81518015158114610e05575f5ffd5b5f6001820161116f57634e487b7160e01b5f52601160045260245ffd5b5060010190565b634e487b7160e01b5f52603260045260245ffdfe02dd7bc7dec4dceedda775e58dd541e08a116c6c53815c0bd028192f7b626800cd5ed15c6e187e77e9aee88184c21f4f2182ab5827cb3b7e07fbedcd63f03300a26469706673582212203d2f25234616ce20402d5967e9d6b1ee0ba6f212c8ade4ec23b93d179802db8564736f6c634300081b0033","linkReferences":{}},"methodIdentifiers":{"DEFAULT_ADMIN_ROLE()":"a217fddf","RELAYER_ROLE()":"926d7d7f","batchCompleteBridgeTransfer(bytes32[],bytes32[],address[],uint256[],uint256[])":"ca0c9c23","completeBridgeTransfer(bytes32,bytes32,address,uint256,uint256)":"e31219ee","getRoleAdmin(bytes32)":"248a9ca3","grantRole(bytes32,address)":"2f2ff15d","hasRole(bytes32,address)":"91d14854","initialize(address,address,address,address)":"f8c8765e","initiateBridgeTransfer(bytes32,uint256)":"0b417df4","moveToken()":"e20c95ec","noncesToIncomingBridgeTransferIds(uint256)":"cfc9ca80","outgoingBridgeTransfers(bytes32)":"f26179e1","paused()":"5c975abb","renounceRole(bytes32,address)":"36568abe","revokeRole(bytes32,address)":"d547741f","supportsInterface(bytes4)":"01ffc9a7","togglePause()":"c4ae3168"},"id":48}