{"abi":[{"type":"function","name":"deploy","inputs":[{"name":"salt","type":"bytes32","internalType":"bytes32"},{"name":"creationCode","type":"bytes","internalType":"bytes"}],"outputs":[{"name":"deployed","type":"address","internalType":"address"}],"stateMutability":"payable"},{"type":"function","name":"getDeployed","inputs":[{"name":"deployer","type":"address","internalType":"address"},{"name":"salt","type":"bytes32","internalType":"bytes32"}],"outputs":[{"name":"deployed","type":"address","internalType":"address"}],"stateMutability":"view"}],"bytecode":{"object":"0x6080604052348015600e575f80fd5b506104a38061001c5f395ff3fe608060405260043610610028575f3560e01c806350f1c4641461002c578063cdcb760a14610067575b5f80fd5b348015610037575f80fd5b5061004b610046366004610351565b61007a565b6040516001600160a01b03909116815260200160405180910390f35b61004b61007536600461039a565b6100c5565b6040516001600160601b0319606084901b166020820152603481018290525f906054016040516020818303038152906040528051906020012091506100be8261010a565b9392505050565b6040516001600160601b03193360601b166020820152603481018390525f906054016040516020818303038152906040528051906020012092506100be83833461011b565b5f610115823061026f565b92915050565b5f806040518060400160405280601081526020016f67363d3d37363d34f03d5260086018f360801b81525090505f858251602084015ff590506001600160a01b0381166101a35760405162461bcd60e51b81526020600482015260116024820152701111541313d65351539517d19052531151607a1b60448201526064015b60405180910390fd5b6101ac8661010a565b92505f816001600160a01b031685876040516101c89190610457565b5f6040518083038185875af1925050503d805f8114610202576040519150601f19603f3d011682016040523d82523d5f602084013e610207565b606091505b5050905080801561022157506001600160a01b0384163b15155b6102655760405162461bcd60e51b815260206004820152601560248201527412539255125053125690551253d397d19052531151605a1b604482015260640161019a565b5050509392505050565b604080518082018252601081526f67363d3d37363d34f03d5260086018f360801b60209182015290516001600160f81b0319918101919091526001600160601b0319606083901b166021820152603581018390527f21c35dbe1b344a2488cf3321d6ce542f8e9f305544ff09e4993a62319a497c1f60558201525f90819061030e906075015b6040516020818303038152906040528051906020012090565b6040516135a560f21b60208201526001600160601b0319606083901b166022820152600160f81b6036820152909150610349906037016102f5565b949350505050565b5f8060408385031215610362575f80fd5b82356001600160a01b0381168114610378575f80fd5b946020939093013593505050565b634e487b7160e01b5f52604160045260245ffd5b5f80604083850312156103ab575f80fd5b82359150602083013567ffffffffffffffff8111156103c8575f80fd5b8301601f810185136103d8575f80fd5b803567ffffffffffffffff8111156103f2576103f2610386565b604051601f8201601f19908116603f0116810167ffffffffffffffff8111828210171561042157610421610386565b604052818152828201602001871015610438575f80fd5b816020840160208301375f602083830101528093505050509250929050565b5f82518060208501845e5f92019182525091905056fea2646970667358221220de30c25aabb961e904b55c7cb9cab70a1dc6c8f151d9743904f0bec056efb1c764736f6c634300081a0033","linkReferences":{}},"methodIdentifiers":{"deploy(bytes32,bytes)":"cdcb760a","getDeployed(address,bytes32)":"50f1c464"},"storageLayout":{"storage":[],"types":{}},"id":98}