{"abi":[{"type":"function","name":"IS_EVEN_ID","inputs":[],"outputs":[{"name":"","type":"bytes32","internalType":"bytes32"}],"stateMutability":"view"}],"bytecode":{"object":"0x60a6610038600b82828239805160001a607314602b57634e487b7160e01b600052600060045260246000fd5b30600052607381538281f3fe730000000000000000000000000000000000000000301460806040526004361060335760003560e01c806387bbf967146038575b600080fd5b605e7f04d6ce2d1c7ffa390e73114c5213f76aada67c8301d88b7698a48fd7543a444b81565b60405190815260200160405180910390f3fea2646970667358221220a71b955b01248f634195345f7e75c9428662b50016084f600e30288a426b40d564736f6c63430008180033","linkReferences":{}},"methodIdentifiers":{"IS_EVEN_ID()":"87bbf967"},"id":27}