{"abi":[{"type":"constructor","inputs":[{"name":"control_id_0","type":"uint256","internalType":"uint256"},{"name":"control_id_1","type":"uint256","internalType":"uint256"}],"stateMutability":"nonpayable"},{"type":"function","name":"CONTROL_ID_0","inputs":[],"outputs":[{"name":"","type":"uint256","internalType":"uint256"}],"stateMutability":"view"},{"type":"function","name":"CONTROL_ID_1","inputs":[],"outputs":[{"name":"","type":"uint256","internalType":"uint256"}],"stateMutability":"view"},{"type":"function","name":"addSigner","inputs":[{"name":"_signer","type":"address","internalType":"address"}],"outputs":[],"stateMutability":"nonpayable"},{"type":"function","name":"getProofsAtHeight","inputs":[{"name":"blockHeight","type":"uint64","internalType":"uint64"}],"outputs":[{"name":"","type":"bytes[]","internalType":"bytes[]"}],"stateMutability":"view"},{"type":"function","name":"isSigner","inputs":[{"name":"","type":"address","internalType":"address"}],"outputs":[{"name":"","type":"bool","internalType":"bool"}],"stateMutability":"view"},{"type":"function","name":"proofsByHeight","inputs":[{"name":"","type":"uint64","internalType":"uint64"},{"name":"","type":"uint256","internalType":"uint256"}],"outputs":[{"name":"proofData","type":"bytes","internalType":"bytes"},{"name":"signer","type":"address","internalType":"address"}],"stateMutability":"view"},{"type":"function","name":"removeSigner","inputs":[{"name":"_signer","type":"address","internalType":"address"}],"outputs":[],"stateMutability":"nonpayable"},{"type":"function","name":"reverseByteOrderUint256","inputs":[{"name":"input","type":"uint256","internalType":"uint256"}],"outputs":[{"name":"v","type":"uint256","internalType":"uint256"}],"stateMutability":"pure"},{"type":"function","name":"settle","inputs":[{"name":"blockHeight","type":"uint64","internalType":"uint64"},{"name":"proofData","type":"bytes","internalType":"bytes"}],"outputs":[],"stateMutability":"nonpayable"},{"type":"function","name":"verify","inputs":[{"name":"seal","type":"bytes","internalType":"bytes"},{"name":"imageId","type":"bytes32","internalType":"bytes32"},{"name":"postStateDigest","type":"bytes32","internalType":"bytes32"},{"name":"journalDigest","type":"bytes32","internalType":"bytes32"}],"outputs":[{"name":"","type":"bool","internalType":"bool"}],"stateMutability":"view"},{"type":"function","name":"verifyIntegrity","inputs":[{"name":"receipt","type":"tuple","internalType":"struct Receipt","components":[{"name":"seal","type":"bytes","internalType":"bytes"},{"name":"claim","type":"tuple","internalType":"struct ReceiptClaim","components":[{"name":"preStateDigest","type":"bytes32","internalType":"bytes32"},{"name":"postStateDigest","type":"bytes32","internalType":"bytes32"},{"name":"exitCode","type":"tuple","internalType":"struct ExitCode","components":[{"name":"system","type":"uint8","internalType":"enum SystemExitCode"},{"name":"user","type":"uint8","internalType":"uint8"}]},{"name":"input","type":"bytes32","internalType":"bytes32"},{"name":"output","type":"bytes32","internalType":"bytes32"}]}]}],"outputs":[{"name":"","type":"bool","internalType":"bool"}],"stateMutability":"view"},{"type":"function","name":"verifyProof","inputs":[{"name":"_pA","type":"uint256[2]","internalType":"uint256[2]"},{"name":"_pB","type":"uint256[2][2]","internalType":"uint256[2][2]"},{"name":"_pC","type":"uint256[2]","internalType":"uint256[2]"},{"name":"_pubSignals","type":"uint256[4]","internalType":"uint256[4]"}],"outputs":[{"name":"","type":"bool","internalType":"bool"}],"stateMutability":"view"},{"type":"event","name":"ProofAdded","inputs":[{"name":"blockHeight","type":"uint64","indexed":true,"internalType":"uint64"},{"name":"proofData","type":"bytes","indexed":false,"internalType":"bytes"},{"name":"signer","type":"address","indexed":true,"internalType":"address"}],"anonymous":false},{"type":"event","name":"SignerAdded","inputs":[{"name":"signer","type":"address","indexed":true,"internalType":"address"}],"anonymous":false},{"type":"event","name":"SignerRemoved","inputs":[{"name":"signer","type":"address","indexed":true,"internalType":"address"}],"anonymous":false}],"bytecode":{"object":"0x60c060405234801561001057600080fd5b50604051611a6e380380611a6e83398101604081905261002f9161005a565b336000908152600160208190526040909120805460ff1916909117905560809190915260a05261007e565b6000806040838503121561006d57600080fd5b505080516020909101519092909150565b60805160a0516119be6100b06000396000818161019901526104a101526000818160d3015261047b01526119be6000f3fe608060405234801561001057600080fd5b50600436106100b45760003560e01c80637df73e27116100715780637df73e271461017157806386039a311461019457806393e5e8cf146101bb57806396bc2fc5146101dc578063ced5f600146101ef578063eb12d61e1461020257600080fd5b80630e316ab7146100b9578063168b1146146100ce578063359845a5146101085780635f3af7e2146101285780635fe8c13b1461014b5780636efef0091461015e575b600080fd5b6100cc6100c73660046110e5565b610215565b005b6100f57f000000000000000000000000000000000000000000000000000000000000000081565b6040519081526020015b60405180910390f35b61011b610116366004611131565b61025e565b6040516100ff919061119c565b61013b610136366004611348565b610416565b60405190151581526020016100ff565b61013b61015936600461143b565b610538565b61013b61016c3660046114dd565b610ab0565b61013b61017f3660046110e5565b60016020526000908152604090205460ff1681565b6100f57f000000000000000000000000000000000000000000000000000000000000000081565b6101ce6101c9366004611536565b610b5f565b6040516100ff929190611560565b6100cc6101ea36600461158a565b610c31565b6100f56101fd3660046115dc565b610d25565b6100cc6102103660046110e5565b610e6a565b6001600160a01b038116600081815260016020526040808220805460ff19169055517f3525e22824a8a7df2c9a6029941c824cf95b6447f1e13d5128fd3826d35afe8b9190a250565b6001600160401b038116600090815260208181526040808320805482518185028101850190935280835260609493849084015b8282101561036857838290600052602060002090600202016040518060400160405290816000820180546102c4906115f5565b80601f01602080910402602001604051908101604052809291908181526020018280546102f0906115f5565b801561033d5780601f106103125761010080835404028352916020019161033d565b820191906000526020600020905b81548152906001019060200180831161032057829003601f168201915b50505091835250506001918201546001600160a01b0316602091820152918352929092019101610291565b505050509050600081516001600160401b0381111561038957610389611200565b6040519080825280602002602001820160405280156103bc57816020015b60608152602001906001900390816103a75790505b50905060005b825181101561040e578281815181106103dd576103dd61162f565b6020026020010151600001518282815181106103fb576103fb61162f565b60209081029190910101526001016103c2565b509392505050565b600080600061043061042b8560200151610eb9565b61101e565b915091506000846000015180602001905181019061044e9190611695565b9050306001600160a01b0316635fe8c13b82600001518360200151846040015160405180608001604052807f000000000000000000000000000000000000000000000000000000000000000081526020017f00000000000000000000000000000000000000000000000000000000000000008152602001898152602001888152506040518563ffffffff1660e01b81526004016104ee9493929190611758565b602060405180830381865afa15801561050b573d6000803e3d6000fd5b505050506040513d601f19601f8201168201806040525081019061052f91906117dc565b95945050505050565b6000610a4b565b7f30644e72e131a029b85045b68181585d97816a916871ca8d3c208c16d87cfd478110610570576000805260206000f35b50565b600060405183815284602082015285604082015260408160608360076107d05a03fa9150816105a6576000805260206000f35b825160408201526020830151606082015260408360808360066107d05a03fa915050806105d7576000805260206000f35b5050505050565b7f0bae4e8249e16a7a60ccd0215fbe09b3850e8c18213acdb7f3e778e83909cb5585527f295a20c060882ebb89c0339f67c0659b89ab239bfa1239943d6e73841804e11c60208601526000608086018661067b87357f1b88e5dd5422d4c00bda2bc18bc9ac5aba22b30f81d6f6f68620226b984ac2667f094bd9c4b3869496bcf8ab0f733cc6b64243b5d408d09b701b16e7ddd124b17e84610573565b6106cb60208801357f0f680c08630f998c5fac176e593c8c7ee279105baff2d93aeaed5a5add0ccfd67f2110dccdaf8ae02a1da45b139c06df34536f19e6826d66879420751a419c1a1084610573565b61071b60408801357f25ee06c4f9429471049948199b2973a538d9baff5425b52ce978bc88547ddc237f0e65c1c9ab69133c2e7399aa172eb5a89ccb7e7ba844a10f87c8cc729a0b3b7984610573565b61076b60608801357f23fdad98b64dbcbc1866faf6f7da3d769c91699bb729c94271dc428811d95e517f0b7c7639a64cb5505831eb09e75d41862c63b1f3ec55fc432a60b989eeaad5a584610573565b50823581527f30644e72e131a029b85045b68181585d97816a916871ca8d3c208c16d87cfd4760208401357f30644e72e131a029b85045b68181585d97816a916871ca8d3c208c16d87cfd4703066020820152833560408201526020840135606082015260408401356080820152606084013560a08201527f2d4d9aa7e302d9df41749d5507949d05dbea33fbb16c643b22f599a2be6df2e260c08201527f14bedd503c37ceb061d8ec60209fe345ce89830a19230301f076caff004d192660e08201527f0967032fcbf776d1afc985f88877f182d38480a653f2decaa9794cbc3bf3060c6101008201527f0e187847ad4c798374d0d6732bf501847dd68bc0e071241e0213bc7fc13db7ab6101208201527f304cfbd1e08a704a99f5e847d93f8c3caafddec46b7a0d379da69a4d112346a76101408201527f1739c1b1a457a8c7313123d24d2f9192f896b7c63eea05a9d57f06547ad0cec8610160820152600087015161018082015260206000018701516101a08201527f198e9393920d483a7260bfb731fb5d25f1aa493335a9e71297e485b7aef312c26101c08201527f1800deef121f1e76426a00665e5c4479674322d4f75edadd46debd5cd992f6ed6101e08201527f090689d0585ff075ec9e99ad690c3395bc4b313370b38ef355acdadcd122975b6102008201527f12c85ea5db8c6deb4aab71808dcb408fe3d1e7690c43d37b4ce6cc0166fa7daa610220820152843561024082015260208501356102608201527f28f15945c0d350dc79c3fa9aeae56a7c6f70a38baaa48bbda19531ac056433796102808201527f14fc776a7ce28afa94649f38f373a61f64ac984c02eee7eb8a36e68ac69edfed6102a08201527f2b135a25ce834c21818185f0779ddaf65f831d6cb941d74a6e8a10ce1b0e05616102c08201527f2f41f6b9a171433f2a2eaa0442b6cc89785eddcbd269e2a4386dbd91f6253b846102e08201526020816103008360086107d05a03fa9051169695505050505050565b6040516103808101604052610a63600084013561053f565b610a70602084013561053f565b610a7d604084013561053f565b610a8a606084013561053f565b610a97608084013561053f565b610aa4818486888a6105de565b90508060005260206000f35b6040805160606020601f88018190040282018101835291810186815260009283929182918a908a9081908501838280828437600092018290525093855250506040805160a0810182528a815260208082018b90528251808401845285815280820186905282840152606082018590528251808401909352898352828101949094529290930192608083019150610b459061104d565b905290529050610b5481610416565b979650505050505050565b60006020528160005260406000208181548110610b7b57600080fd5b906000526020600020906002020160009150915050806000018054610b9f906115f5565b80601f0160208091040260200160405190810160405280929190818152602001828054610bcb906115f5565b8015610c185780601f10610bed57610100808354040283529160200191610c18565b820191906000526020600020905b815481529060010190602001808311610bfb57829003601f168201915b505050600190930154919250506001600160a01b031682565b6001600160401b0383166000908152602081815260409182902082516060601f860184900490930281018301845292830184815290929182919086908690819085018382808284376000920182905250938552505033602093840152508354600181018555938152208151919260020201908190610caf9082611865565b5060209190910151600190910180546001600160a01b0319166001600160a01b0390921691909117905560405133906001600160401b038516907ff516e36fdaabb290cc7b96dcdcbc80e6393053ba115d3b324667fdc5624ce06090610d189086908690611924565b60405180910390a3505050565b60008190506008817eff00ff00ff00ff00ff00ff00ff00ff00ff00ff00ff00ff00ff00ff00ff00ff16901b6008827fff00ff00ff00ff00ff00ff00ff00ff00ff00ff00ff00ff00ff00ff00ff00ff0016901c1790506010817dffff0000ffff0000ffff0000ffff0000ffff0000ffff0000ffff0000ffff16901b6010827fffff0000ffff0000ffff0000ffff0000ffff0000ffff0000ffff0000ffff000016901c1790506020817bffffffff00000000ffffffff00000000ffffffff00000000ffffffff16901b6020827fffffffff00000000ffffffff00000000ffffffff00000000ffffffff0000000016901c17905060408177ffffffffffffffff0000000000000000ffffffffffffffff16901b60408277ffffffffffffffff0000000000000000ffffffffffffffff1916901c179050608081901b608082901c179050919050565b6001600160a01b0381166000818152600160208190526040808320805460ff1916909217909155517f47d1c22a25bb3a5d4e481b9b1e6944c2eade3181a0a20b495ed61d35b5323f249190a250565b6000600280604051610ee3907172697363302e52656365697074436c61696d60701b815260120190565b602060405180830381855afa158015610f00573d6000803e3d6000fd5b5050506040513d601f19601f82011682018060405250810190610f239190611953565b60608401518451602086015160808701516040880151516018906002811115610f4e57610f4e6117fe565b60408a810151602090810151825191820199909952908101969096526060860194909452608085019290925260a084015263ffffffff909116901b60e01b6001600160e01b03191660c082015260f89190911b6001600160f81b03191660c4820152600160fa1b60c882015260ca015b60408051601f1981840301815290829052610fd89161196c565b602060405180830381855afa158015610ff5573d6000803e3d6000fd5b5050506040513d601f19601f820116820180604052508101906110189190611953565b92915050565b6000808061102b84610d25565b6fffffffffffffffffffffffffffffffff81169560809190911c945092505050565b6000600280604051611071906b1c9a5cd8cc0b93dd5d1c1d5d60a21b8152600c0190565b602060405180830381855afa15801561108e573d6000803e3d6000fd5b5050506040513d601f19601f820116820180604052508101906110b19190611953565b83516020808601516040805192830194909452928101919091526060810191909152600160f91b6080820152608201610fbe565b6000602082840312156110f757600080fd5b81356001600160a01b038116811461110e57600080fd5b9392505050565b80356001600160401b038116811461112c57600080fd5b919050565b60006020828403121561114357600080fd5b61110e82611115565b60005b8381101561116757818101518382015260200161114f565b50506000910152565b6000815180845261118881602086016020860161114c565b601f01601f19169290920160200192915050565b600060208083016020845280855180835260408601915060408160051b87010192506020870160005b828110156111f357603f198886030184526111e1858351611170565b945092850192908501906001016111c5565b5092979650505050505050565b634e487b7160e01b600052604160045260246000fd5b60405160a081016001600160401b038111828210171561123857611238611200565b60405290565b604080519081016001600160401b038111828210171561123857611238611200565b604051606081016001600160401b038111828210171561123857611238611200565b604051601f8201601f191681016001600160401b03811182821017156112aa576112aa611200565b604052919050565b600081830360c08112156112c557600080fd5b6112cd611216565b915082358252602083013560208301526040603f19820112156112ef57600080fd5b506112f861123e565b60408301356003811061130a57600080fd5b8152606083013560ff8116811461132057600080fd5b80602083015250806040830152506080820135606082015260a0820135608082015292915050565b6000602080838503121561135b57600080fd5b82356001600160401b038082111561137257600080fd5b9084019060e0828703121561138657600080fd5b61138e61123e565b82358281111561139d57600080fd5b8301601f810188136113ae57600080fd5b8035838111156113c0576113c0611200565b6113d2601f8201601f19168701611282565b935080845288868284010111156113e857600080fd5b8086830187860137600090840186015250818152611408878486016112b2565b848201528094505050505092915050565b806040810183101561101857600080fd5b806080810183101561101857600080fd5b600080600080610180858703121561145257600080fd5b61145c8686611419565b935061146b866040870161142a565b925061147a8660c08701611419565b915061148a86610100870161142a565b905092959194509250565b60008083601f8401126114a757600080fd5b5081356001600160401b038111156114be57600080fd5b6020830191508360208285010111156114d657600080fd5b9250929050565b6000806000806000608086880312156114f557600080fd5b85356001600160401b0381111561150b57600080fd5b61151788828901611495565b9099909850602088013597604081013597506060013595509350505050565b6000806040838503121561154957600080fd5b61155283611115565b946020939093013593505050565b6040815260006115736040830185611170565b905060018060a01b03831660208301529392505050565b60008060006040848603121561159f57600080fd5b6115a884611115565b925060208401356001600160401b038111156115c357600080fd5b6115cf86828701611495565b9497909650939450505050565b6000602082840312156115ee57600080fd5b5035919050565b600181811c9082168061160957607f821691505b60208210810361162957634e487b7160e01b600052602260045260246000fd5b50919050565b634e487b7160e01b600052603260045260246000fd5b600082601f83011261165657600080fd5b61165e61123e565b80604084018581111561167057600080fd5b845b8181101561168a578051845260209384019301611672565b509095945050505050565b600061010082840312156116a857600080fd5b6116b0611260565b6116ba8484611645565b8152604084605f8501126116cd57600080fd5b6116d561123e565b8060c08601878111156116e757600080fd5b604087015b8181101561170d576116fe8982611645565b845260209093019284016116ec565b5081602086015261171e8882611645565b604086015250929695505050505050565b8060005b6002811015611752578151845260209384019390910190600101611733565b50505050565b6101808101611767828761172f565b60408083018660005b60028110156117975761178483835161172f565b9183019160209190910190600101611770565b505050506117a860c083018561172f565b61010082018360005b60048110156117d05781518352602092830192909101906001016117b1565b50505095945050505050565b6000602082840312156117ee57600080fd5b8151801515811461110e57600080fd5b634e487b7160e01b600052602160045260246000fd5b601f821115611860576000816000526020600020601f850160051c8101602086101561183d5750805b601f850160051c820191505b8181101561185c57828155600101611849565b5050505b505050565b81516001600160401b0381111561187e5761187e611200565b6118928161188c84546115f5565b84611814565b602080601f8311600181146118c757600084156118af5750858301515b600019600386901b1c1916600185901b17855561185c565b600085815260208120601f198616915b828110156118f6578886015182559484019460019091019084016118d7565b50858210156119145787850151600019600388901b60f8161c191681555b5050505050600190811b01905550565b60208152816020820152818360408301376000818301604090810191909152601f909201601f19160101919050565b60006020828403121561196557600080fd5b5051919050565b6000825161197e81846020870161114c565b919091019291505056fea26469706673582212203376f49e372fd11b2433d43928d10d0b31bad14670b57512362cd0b72b8aa2a664736f6c63430008180033","linkReferences":{}},"methodIdentifiers":{"CONTROL_ID_0()":"168b1146","CONTROL_ID_1()":"86039a31","addSigner(address)":"eb12d61e","getProofsAtHeight(uint64)":"359845a5","isSigner(address)":"7df73e27","proofsByHeight(uint64,uint256)":"93e5e8cf","removeSigner(address)":"0e316ab7","reverseByteOrderUint256(uint256)":"ced5f600","settle(uint64,bytes)":"96bc2fc5","verify(bytes,bytes32,bytes32,bytes32)":"6efef009","verifyIntegrity((bytes,(bytes32,bytes32,(uint8,uint8),bytes32,bytes32)))":"5f3af7e2","verifyProof(uint256[2],uint256[2][2],uint256[2],uint256[4])":"5fe8c13b"},"id":28}