{"abi":[{"type":"function","name":"DEFAULT_ADMIN_ROLE","inputs":[],"outputs":[{"name":"","type":"bytes32","internalType":"bytes32"}],"stateMutability":"view"},{"type":"function","name":"UPGRADE_INTERFACE_VERSION","inputs":[],"outputs":[{"name":"","type":"string","internalType":"string"}],"stateMutability":"view"},{"type":"function","name":"allowance","inputs":[{"name":"owner","type":"address","internalType":"address"},{"name":"spender","type":"address","internalType":"address"}],"outputs":[{"name":"","type":"uint256","internalType":"uint256"}],"stateMutability":"view"},{"type":"function","name":"approve","inputs":[{"name":"spender","type":"address","internalType":"address"},{"name":"value","type":"uint256","internalType":"uint256"}],"outputs":[{"name":"","type":"bool","internalType":"bool"}],"stateMutability":"nonpayable"},{"type":"function","name":"balanceOf","inputs":[{"name":"account","type":"address","internalType":"address"}],"outputs":[{"name":"","type":"uint256","internalType":"uint256"}],"stateMutability":"view"},{"type":"function","name":"decimals","inputs":[],"outputs":[{"name":"","type":"uint8","internalType":"uint8"}],"stateMutability":"view"},{"type":"function","name":"getRoleAdmin","inputs":[{"name":"role","type":"bytes32","internalType":"bytes32"}],"outputs":[{"name":"","type":"bytes32","internalType":"bytes32"}],"stateMutability":"view"},{"type":"function","name":"grantRole","inputs":[{"name":"role","type":"bytes32","internalType":"bytes32"},{"name":"account","type":"address","internalType":"address"}],"outputs":[],"stateMutability":"nonpayable"},{"type":"function","name":"hasRole","inputs":[{"name":"role","type":"bytes32","internalType":"bytes32"},{"name":"account","type":"address","internalType":"address"}],"outputs":[{"name":"","type":"bool","internalType":"bool"}],"stateMutability":"view"},{"type":"function","name":"initialize","inputs":[{"name":"name","type":"string","internalType":"string"},{"name":"symbol","type":"string","internalType":"string"}],"outputs":[],"stateMutability":"nonpayable"},{"type":"function","name":"name","inputs":[],"outputs":[{"name":"","type":"string","internalType":"string"}],"stateMutability":"view"},{"type":"function","name":"proxiableUUID","inputs":[],"outputs":[{"name":"","type":"bytes32","internalType":"bytes32"}],"stateMutability":"view"},{"type":"function","name":"renounceRole","inputs":[{"name":"role","type":"bytes32","internalType":"bytes32"},{"name":"callerConfirmation","type":"address","internalType":"address"}],"outputs":[],"stateMutability":"nonpayable"},{"type":"function","name":"revokeRole","inputs":[{"name":"role","type":"bytes32","internalType":"bytes32"},{"name":"account","type":"address","internalType":"address"}],"outputs":[],"stateMutability":"nonpayable"},{"type":"function","name":"supportsInterface","inputs":[{"name":"interfaceId","type":"bytes4","internalType":"bytes4"}],"outputs":[{"name":"","type":"bool","internalType":"bool"}],"stateMutability":"view"},{"type":"function","name":"symbol","inputs":[],"outputs":[{"name":"","type":"string","internalType":"string"}],"stateMutability":"view"},{"type":"function","name":"totalSupply","inputs":[],"outputs":[{"name":"","type":"uint256","internalType":"uint256"}],"stateMutability":"view"},{"type":"function","name":"transfer","inputs":[{"name":"to","type":"address","internalType":"address"},{"name":"value","type":"uint256","internalType":"uint256"}],"outputs":[{"name":"","type":"bool","internalType":"bool"}],"stateMutability":"nonpayable"},{"type":"function","name":"transferFrom","inputs":[{"name":"from","type":"address","internalType":"address"},{"name":"to","type":"address","internalType":"address"},{"name":"value","type":"uint256","internalType":"uint256"}],"outputs":[{"name":"","type":"bool","internalType":"bool"}],"stateMutability":"nonpayable"},{"type":"function","name":"upgradeToAndCall","inputs":[{"name":"newImplementation","type":"address","internalType":"address"},{"name":"data","type":"bytes","internalType":"bytes"}],"outputs":[],"stateMutability":"payable"},{"type":"event","name":"Approval","inputs":[{"name":"owner","type":"address","indexed":true,"internalType":"address"},{"name":"spender","type":"address","indexed":true,"internalType":"address"},{"name":"value","type":"uint256","indexed":false,"internalType":"uint256"}],"anonymous":false},{"type":"event","name":"Initialized","inputs":[{"name":"version","type":"uint64","indexed":false,"internalType":"uint64"}],"anonymous":false},{"type":"event","name":"RoleAdminChanged","inputs":[{"name":"role","type":"bytes32","indexed":true,"internalType":"bytes32"},{"name":"previousAdminRole","type":"bytes32","indexed":true,"internalType":"bytes32"},{"name":"newAdminRole","type":"bytes32","indexed":true,"internalType":"bytes32"}],"anonymous":false},{"type":"event","name":"RoleGranted","inputs":[{"name":"role","type":"bytes32","indexed":true,"internalType":"bytes32"},{"name":"account","type":"address","indexed":true,"internalType":"address"},{"name":"sender","type":"address","indexed":true,"internalType":"address"}],"anonymous":false},{"type":"event","name":"RoleRevoked","inputs":[{"name":"role","type":"bytes32","indexed":true,"internalType":"bytes32"},{"name":"account","type":"address","indexed":true,"internalType":"address"},{"name":"sender","type":"address","indexed":true,"internalType":"address"}],"anonymous":false},{"type":"event","name":"Transfer","inputs":[{"name":"from","type":"address","indexed":true,"internalType":"address"},{"name":"to","type":"address","indexed":true,"internalType":"address"},{"name":"value","type":"uint256","indexed":false,"internalType":"uint256"}],"anonymous":false},{"type":"event","name":"Upgraded","inputs":[{"name":"implementation","type":"address","indexed":true,"internalType":"address"}],"anonymous":false},{"type":"error","name":"AccessControlBadConfirmation","inputs":[]},{"type":"error","name":"AccessControlUnauthorizedAccount","inputs":[{"name":"account","type":"address","internalType":"address"},{"name":"neededRole","type":"bytes32","internalType":"bytes32"}]},{"type":"error","name":"AddressEmptyCode","inputs":[{"name":"target","type":"address","internalType":"address"}]},{"type":"error","name":"ERC1967InvalidImplementation","inputs":[{"name":"implementation","type":"address","internalType":"address"}]},{"type":"error","name":"ERC1967NonPayable","inputs":[]},{"type":"error","name":"ERC20InsufficientAllowance","inputs":[{"name":"spender","type":"address","internalType":"address"},{"name":"allowance","type":"uint256","internalType":"uint256"},{"name":"needed","type":"uint256","internalType":"uint256"}]},{"type":"error","name":"ERC20InsufficientBalance","inputs":[{"name":"sender","type":"address","internalType":"address"},{"name":"balance","type":"uint256","internalType":"uint256"},{"name":"needed","type":"uint256","internalType":"uint256"}]},{"type":"error","name":"ERC20InvalidApprover","inputs":[{"name":"approver","type":"address","internalType":"address"}]},{"type":"error","name":"ERC20InvalidReceiver","inputs":[{"name":"receiver","type":"address","internalType":"address"}]},{"type":"error","name":"ERC20InvalidSender","inputs":[{"name":"sender","type":"address","internalType":"address"}]},{"type":"error","name":"ERC20InvalidSpender","inputs":[{"name":"spender","type":"address","internalType":"address"}]},{"type":"error","name":"FailedInnerCall","inputs":[]},{"type":"error","name":"InvalidInitialization","inputs":[]},{"type":"error","name":"NotInitializing","inputs":[]},{"type":"error","name":"UUPSUnauthorizedCallContext","inputs":[]},{"type":"error","name":"UUPSUnsupportedProxiableUUID","inputs":[{"name":"slot","type":"bytes32","internalType":"bytes32"}]}],"bytecode":{"object":"0x60a0604052306080523480156012575f80fd5b506080516115056100395f395f81816109b6015281816109df0152610b2201526115055ff3fe60806040526004361061011b575f3560e01c80634f1ef2861161009d578063a217fddf11610062578063a217fddf14610322578063a9059cbb14610335578063ad3cb1cc14610354578063d547741f14610384578063dd62ed3e146103a3575f80fd5b80634f1ef2861461028857806352d1902d1461029b57806370a08231146102af57806391d14854146102ef57806395d89b411461030e575f80fd5b8063248a9ca3116100e3578063248a9ca3146101ef5780632f2ff15d1461020e578063313ce5671461022f57806336568abe1461024a5780634cd88b7614610269575f80fd5b806301ffc9a71461011f57806306fdde0314610153578063095ea7b31461017457806318160ddd1461019357806323b872dd146101d0575b5f80fd5b34801561012a575f80fd5b5061013e61013936600461102f565b6103c2565b60405190151581526020015b60405180910390f35b34801561015e575f80fd5b506101676103f8565b60405161014a9190611056565b34801561017f575f80fd5b5061013e61018e3660046110a6565b6104b8565b34801561019e575f80fd5b507f52c63247e1f47db19d5ce0460030c497f067ca4cebf71ba98eeadabe20bace02545b60405190815260200161014a565b3480156101db575f80fd5b5061013e6101ea3660046110ce565b6104cf565b3480156101fa575f80fd5b506101c2610209366004611108565b6104f4565b348015610219575f80fd5b5061022d61022836600461111f565b610514565b005b34801561023a575f80fd5b506040516012815260200161014a565b348015610255575f80fd5b5061022d61026436600461111f565b610536565b348015610274575f80fd5b5061022d6102833660046111f2565b61056e565b61022d610296366004611257565b61067e565b3480156102a6575f80fd5b506101c261069d565b3480156102ba575f80fd5b506101c26102c93660046112ab565b6001600160a01b03165f9081525f80516020611470833981519152602052604090205490565b3480156102fa575f80fd5b5061013e61030936600461111f565b6106b8565b348015610319575f80fd5b506101676106ee565b34801561032d575f80fd5b506101c25f81565b348015610340575f80fd5b5061013e61034f3660046110a6565b61072c565b34801561035f575f80fd5b50610167604051806040016040528060058152602001640352e302e360dc1b81525081565b34801561038f575f80fd5b5061022d61039e36600461111f565b610739565b3480156103ae575f80fd5b506101c26103bd3660046112c4565b610755565b5f6001600160e01b03198216637965db0b60e01b14806103f257506301ffc9a760e01b6001600160e01b03198316145b92915050565b7f52c63247e1f47db19d5ce0460030c497f067ca4cebf71ba98eeadabe20bace0380546060915f8051602061147083398151915291610436906112ec565b80601f0160208091040260200160405190810160405280929190818152602001828054610462906112ec565b80156104ad5780601f10610484576101008083540402835291602001916104ad565b820191905f5260205f20905b81548152906001019060200180831161049057829003601f168201915b505050505091505090565b5f336104c581858561079e565b5060019392505050565b5f336104dc8582856107ab565b6104e785858561080d565b60019150505b9392505050565b5f9081525f805160206114b0833981519152602052604090206001015490565b61051d826104f4565b6105268161086a565b6105308383610877565b50505050565b6001600160a01b038116331461055f5760405163334bd91960e11b815260040160405180910390fd5b6105698282610918565b505050565b7ff0c57e16840df040f15088dc2f81fe391c3923bec73e23a9662efc9c229c6a008054600160401b810460ff16159067ffffffffffffffff165f811580156105b35750825b90505f8267ffffffffffffffff1660011480156105cf5750303b155b9050811580156105dd575080155b156105fb5760405163f92ee8a960e01b815260040160405180910390fd5b845467ffffffffffffffff19166001178555831561062557845460ff60401b1916600160401b1785555b61062f8787610991565b831561067557845460ff60401b19168555604051600181527fc7f505b2f371ae2175ee4913f4499e1f2633a7b5936321eed1cdaeb6115181d29060200160405180910390a15b50505050505050565b6106866109ab565b61068f82610a51565b6106998282610a5b565b5050565b5f6106a6610b17565b505f8051602061149083398151915290565b5f9182525f805160206114b0833981519152602090815260408084206001600160a01b0393909316845291905290205460ff1690565b7f52c63247e1f47db19d5ce0460030c497f067ca4cebf71ba98eeadabe20bace0480546060915f8051602061147083398151915291610436906112ec565b5f336104c581858561080d565b610742826104f4565b61074b8161086a565b6105308383610918565b6001600160a01b039182165f9081527f52c63247e1f47db19d5ce0460030c497f067ca4cebf71ba98eeadabe20bace016020908152604080832093909416825291909152205490565b6105698383836001610b60565b5f6107b68484610755565b90505f19811461053057818110156107ff57604051637dc7a0d960e11b81526001600160a01b038416600482015260248101829052604481018390526064015b60405180910390fd5b61053084848484035f610b60565b6001600160a01b03831661083657604051634b637e8f60e11b81525f60048201526024016107f6565b6001600160a01b03821661085f5760405163ec442f0560e01b81525f60048201526024016107f6565b610569838383610c44565b6108748133610d7d565b50565b5f5f805160206114b083398151915261089084846106b8565b61090f575f848152602082815260408083206001600160a01b03871684529091529020805460ff191660011790556108c53390565b6001600160a01b0316836001600160a01b0316857f2f8788117e7eff1d82e926ec794901d17c78024a50270940304540a733656f0d60405160405180910390a460019150506103f2565b5f9150506103f2565b5f5f805160206114b083398151915261093184846106b8565b1561090f575f848152602082815260408083206001600160a01b0387168085529252808320805460ff1916905551339287917ff6391f5c32d9c69d2a47ea670b442974b53935d1edc7fd64eb21e047a839171b9190a460019150506103f2565b610999610db6565b6109a38282610dff565b610699610e4f565b306001600160a01b037f0000000000000000000000000000000000000000000000000000000000000000161480610a3157507f00000000000000000000000000000000000000000000000000000000000000006001600160a01b0316610a255f80516020611490833981519152546001600160a01b031690565b6001600160a01b031614155b15610a4f5760405163703e46dd60e11b815260040160405180910390fd5b565b5f6106998161086a565b816001600160a01b03166352d1902d6040518163ffffffff1660e01b8152600401602060405180830381865afa925050508015610ab5575060408051601f3d908101601f19168201909252610ab291810190611324565b60015b610add57604051634c9c8ce360e01b81526001600160a01b03831660048201526024016107f6565b5f805160206114908339815191528114610b0d57604051632a87526960e21b8152600481018290526024016107f6565b6105698383610e61565b306001600160a01b037f00000000000000000000000000000000000000000000000000000000000000001614610a4f5760405163703e46dd60e11b815260040160405180910390fd5b5f805160206114708339815191526001600160a01b038516610b975760405163e602df0560e01b81525f60048201526024016107f6565b6001600160a01b038416610bc057604051634a1406b160e11b81525f60048201526024016107f6565b6001600160a01b038086165f90815260018301602090815260408083209388168352929052208390558115610c3d57836001600160a01b0316856001600160a01b03167f8c5be1e5ebec7d5bd14f71427d1e84f3dd0314c0f7b2291e5b200ac8c7c3b92585604051610c3491815260200190565b60405180910390a35b5050505050565b5f805160206114708339815191526001600160a01b038416610c7e5781816002015f828254610c73919061133b565b90915550610cee9050565b6001600160a01b0384165f9081526020829052604090205482811015610cd05760405163391434e360e21b81526001600160a01b038616600482015260248101829052604481018490526064016107f6565b6001600160a01b0385165f9081526020839052604090209083900390555b6001600160a01b038316610d0c576002810180548390039055610d2a565b6001600160a01b0383165f9081526020829052604090208054830190555b826001600160a01b0316846001600160a01b03167fddf252ad1be2c89b69c2b068fc378daa952ba7f163c4a11628f55a4df523b3ef84604051610d6f91815260200190565b60405180910390a350505050565b610d8782826106b8565b6106995760405163e2517d3f60e01b81526001600160a01b0382166004820152602481018390526044016107f6565b7ff0c57e16840df040f15088dc2f81fe391c3923bec73e23a9662efc9c229c6a0054600160401b900460ff16610a4f57604051631afcd79f60e31b815260040160405180910390fd5b610e07610db6565b5f805160206114708339815191527f52c63247e1f47db19d5ce0460030c497f067ca4cebf71ba98eeadabe20bace03610e40848261139e565b5060048101610530838261139e565b610e57610db6565b6108745f33610877565b610e6a82610eb6565b6040516001600160a01b038316907fbc7cd75a20ee27fd9adebab32041f755214dbc6bffa90cc0225b39da2e5c2d3b905f90a2805115610eae576105698282610f19565b610699610f8b565b806001600160a01b03163b5f03610eeb57604051634c9c8ce360e01b81526001600160a01b03821660048201526024016107f6565b5f8051602061149083398151915280546001600160a01b0319166001600160a01b0392909216919091179055565b60605f80846001600160a01b031684604051610f359190611459565b5f60405180830381855af49150503d805f8114610f6d576040519150601f19603f3d011682016040523d82523d5f602084013e610f72565b606091505b5091509150610f82858383610faa565b95945050505050565b3415610a4f5760405163b398979f60e01b815260040160405180910390fd5b606082610fbf57610fba82611006565b6104ed565b8151158015610fd657506001600160a01b0384163b155b15610fff57604051639996b31560e01b81526001600160a01b03851660048201526024016107f6565b50806104ed565b8051156110165780518082602001fd5b604051630a12f52160e11b815260040160405180910390fd5b5f6020828403121561103f575f80fd5b81356001600160e01b0319811681146104ed575f80fd5b602081525f82518060208401528060208501604085015e5f604082850101526040601f19601f83011684010191505092915050565b80356001600160a01b03811681146110a1575f80fd5b919050565b5f80604083850312156110b7575f80fd5b6110c08361108b565b946020939093013593505050565b5f805f606084860312156110e0575f80fd5b6110e98461108b565b92506110f76020850161108b565b929592945050506040919091013590565b5f60208284031215611118575f80fd5b5035919050565b5f8060408385031215611130575f80fd5b823591506111406020840161108b565b90509250929050565b634e487b7160e01b5f52604160045260245ffd5b5f8067ffffffffffffffff84111561117757611177611149565b50604051601f19601f85018116603f0116810181811067ffffffffffffffff821117156111a6576111a6611149565b6040528381529050808284018510156111bd575f80fd5b838360208301375f60208583010152509392505050565b5f82601f8301126111e3575f80fd5b6104ed8383356020850161115d565b5f8060408385031215611203575f80fd5b823567ffffffffffffffff811115611219575f80fd5b611225858286016111d4565b925050602083013567ffffffffffffffff811115611241575f80fd5b61124d858286016111d4565b9150509250929050565b5f8060408385031215611268575f80fd5b6112718361108b565b9150602083013567ffffffffffffffff81111561128c575f80fd5b8301601f8101851361129c575f80fd5b61124d8582356020840161115d565b5f602082840312156112bb575f80fd5b6104ed8261108b565b5f80604083850312156112d5575f80fd5b6112de8361108b565b91506111406020840161108b565b600181811c9082168061130057607f821691505b60208210810361131e57634e487b7160e01b5f52602260045260245ffd5b50919050565b5f60208284031215611334575f80fd5b5051919050565b808201808211156103f257634e487b7160e01b5f52601160045260245ffd5b601f82111561056957805f5260205f20601f840160051c8101602085101561137f5750805b601f840160051c820191505b81811015610c3d575f815560010161138b565b815167ffffffffffffffff8111156113b8576113b8611149565b6113cc816113c684546112ec565b8461135a565b6020601f8211600181146113fe575f83156113e75750848201515b5f19600385901b1c1916600184901b178455610c3d565b5f84815260208120601f198516915b8281101561142d578785015182556020948501946001909201910161140d565b508482101561144a57868401515f19600387901b60f8161c191681555b50505050600190811b01905550565b5f82518060208501845e5f92019182525091905056fe52c63247e1f47db19d5ce0460030c497f067ca4cebf71ba98eeadabe20bace00360894a13ba1a3210667c828492db98dca3e2076cc3735a920a3ca505d382bbc02dd7bc7dec4dceedda775e58dd541e08a116c6c53815c0bd028192f7b626800a2646970667358221220a5196f9775e0c0c4c484405a2b26e65eff7c128ab8da83afda46e186f8c442f464736f6c634300081a0033","linkReferences":{}},"methodIdentifiers":{"DEFAULT_ADMIN_ROLE()":"a217fddf","UPGRADE_INTERFACE_VERSION()":"ad3cb1cc","allowance(address,address)":"dd62ed3e","approve(address,uint256)":"095ea7b3","balanceOf(address)":"70a08231","decimals()":"313ce567","getRoleAdmin(bytes32)":"248a9ca3","grantRole(bytes32,address)":"2f2ff15d","hasRole(bytes32,address)":"91d14854","initialize(string,string)":"4cd88b76","name()":"06fdde03","proxiableUUID()":"52d1902d","renounceRole(bytes32,address)":"36568abe","revokeRole(bytes32,address)":"d547741f","supportsInterface(bytes4)":"01ffc9a7","symbol()":"95d89b41","totalSupply()":"18160ddd","transfer(address,uint256)":"a9059cbb","transferFrom(address,address,uint256)":"23b872dd","upgradeToAndCall(address,bytes)":"4f1ef286"},"storageLayout":{"storage":[],"types":{}},"id":112}