{"abi":[{"type":"function","name":"WHITELIST_ROLE","inputs":[],"outputs":[{"name":"","type":"bytes32","internalType":"bytes32"}],"stateMutability":"view"},{"type":"function","name":"currentEpochByDomain","inputs":[{"name":"domain","type":"address","internalType":"address"}],"outputs":[{"name":"currentEpoch","type":"uint256","internalType":"uint256"}],"stateMutability":"view"},{"type":"function","name":"domainGenesisAccepted","inputs":[{"name":"domain","type":"address","internalType":"address"}],"outputs":[{"name":"","type":"bool","internalType":"bool"}],"stateMutability":"view"},{"type":"function","name":"epochDurationByDomain","inputs":[{"name":"domain","type":"address","internalType":"address"}],"outputs":[{"name":"epochDuration","type":"uint256","internalType":"uint256"}],"stateMutability":"view"},{"type":"function","name":"epochStakesByDomain","inputs":[{"name":"domain","type":"address","internalType":"address"},{"name":"epoch","type":"uint256","internalType":"uint256"},{"name":"custodian","type":"address","internalType":"address"},{"name":"attester","type":"address","internalType":"address"}],"outputs":[{"name":"stake","type":"uint256","internalType":"uint256"}],"stateMutability":"view"},{"type":"function","name":"epochTotalStakeByDomain","inputs":[{"name":"domain","type":"address","internalType":"address"},{"name":"epoch","type":"uint256","internalType":"uint256"},{"name":"attester","type":"address","internalType":"address"}],"outputs":[{"name":"stake","type":"uint256","internalType":"uint256"}],"stateMutability":"view"},{"type":"function","name":"epochUnstakesByDomain","inputs":[{"name":"domain","type":"address","internalType":"address"},{"name":"epoch","type":"uint256","internalType":"uint256"},{"name":"custodian","type":"address","internalType":"address"},{"name":"attester","type":"address","internalType":"address"}],"outputs":[{"name":"stake","type":"uint256","internalType":"uint256"}],"stateMutability":"view"},{"type":"function","name":"token","inputs":[],"outputs":[{"name":"","type":"address","internalType":"contract IERC20"}],"stateMutability":"view"}],"bytecode":{"object":"0x6080604052348015600e575f80fd5b506102f38061001c5f395ff3fe608060405234801561000f575f80fd5b5060043610610085575f3560e01c80637a997ab7116100585780637a997ab714610143578063c0b95ab81461016a578063d1ba90ff146101a3578063fc0c546a146101d5575f80fd5b80630a0b1b64146100895780633bccf635146100bb57806354300d7a146100da57806365f1ea201461010a575b5f80fd5b6100a861009736600461021a565b60026020525f908152604090205481565b6040519081526020015b60405180910390f35b6100a86100c936600461021a565b60016020525f908152604090205481565b6100a86100e836600461023a565b600760209081525f938452604080852082529284528284209052825290205481565b6100a8610118366004610273565b600660209081525f948552604080862082529385528385208152918452828420909152825290205481565b6100a87fdc72ed553f2544c34465af23b847953efeb813428162d767f9ba5f4013be676081565b6100a8610178366004610273565b600560209081525f948552604080862082529385528385208152918452828420909152825290205481565b6101c56101b136600461021a565b60086020525f908152604090205460ff1681565b60405190151581526020016100b2565b5f546101e7906001600160a01b031681565b6040516001600160a01b0390911681526020016100b2565b80356001600160a01b0381168114610215575f80fd5b919050565b5f6020828403121561022a575f80fd5b610233826101ff565b9392505050565b5f805f6060848603121561024c575f80fd5b610255846101ff565b92506020840135915061026a604085016101ff565b90509250925092565b5f805f8060808587031215610286575f80fd5b61028f856101ff565b9350602085013592506102a4604086016101ff565b91506102b2606086016101ff565b90509295919450925056fea26469706673582212200865dfc0549370ca1b29d7fadc7e7bb263ca098670050e9e2a3d1fb6083a0a9d64736f6c634300081a0033","linkReferences":{}},"methodIdentifiers":{"WHITELIST_ROLE()":"7a997ab7","currentEpochByDomain(address)":"0a0b1b64","domainGenesisAccepted(address)":"d1ba90ff","epochDurationByDomain(address)":"3bccf635","epochStakesByDomain(address,uint256,address,address)":"c0b95ab8","epochTotalStakeByDomain(address,uint256,address)":"54300d7a","epochUnstakesByDomain(address,uint256,address,address)":"65f1ea20","token()":"fc0c546a"},"storageLayout":{"storage":[{"astId":55297,"contract":"src/staking/MovementStakingStorage.sol:MovementStakingStorage","label":"token","offset":0,"slot":"0","type":"t_contract(IERC20)43663"},{"astId":55301,"contract":"src/staking/MovementStakingStorage.sol:MovementStakingStorage","label":"epochDurationByDomain","offset":0,"slot":"1","type":"t_mapping(t_address,t_uint256)"},{"astId":55305,"contract":"src/staking/MovementStakingStorage.sol:MovementStakingStorage","label":"currentEpochByDomain","offset":0,"slot":"2","type":"t_mapping(t_address,t_uint256)"},{"astId":55310,"contract":"src/staking/MovementStakingStorage.sol:MovementStakingStorage","label":"attestersByDomain","offset":0,"slot":"3","type":"t_mapping(t_address,t_struct(AddressSet)46651_storage)"},{"astId":55315,"contract":"src/staking/MovementStakingStorage.sol:MovementStakingStorage","label":"custodiansByDomain","offset":0,"slot":"4","type":"t_mapping(t_address,t_struct(AddressSet)46651_storage)"},{"astId":55325,"contract":"src/staking/MovementStakingStorage.sol:MovementStakingStorage","label":"epochStakesByDomain","offset":0,"slot":"5","type":"t_mapping(t_address,t_mapping(t_uint256,t_mapping(t_address,t_mapping(t_address,t_uint256))))"},{"astId":55335,"contract":"src/staking/MovementStakingStorage.sol:MovementStakingStorage","label":"epochUnstakesByDomain","offset":0,"slot":"6","type":"t_mapping(t_address,t_mapping(t_uint256,t_mapping(t_address,t_mapping(t_address,t_uint256))))"},{"astId":55343,"contract":"src/staking/MovementStakingStorage.sol:MovementStakingStorage","label":"epochTotalStakeByDomain","offset":0,"slot":"7","type":"t_mapping(t_address,t_mapping(t_uint256,t_mapping(t_address,t_uint256)))"},{"astId":55347,"contract":"src/staking/MovementStakingStorage.sol:MovementStakingStorage","label":"domainGenesisAccepted","offset":0,"slot":"8","type":"t_mapping(t_address,t_bool)"}],"types":{"t_address":{"encoding":"inplace","label":"address","numberOfBytes":"20"},"t_array(t_bytes32)dyn_storage":{"encoding":"dynamic_array","label":"bytes32[]","numberOfBytes":"32","base":"t_bytes32"},"t_bool":{"encoding":"inplace","label":"bool","numberOfBytes":"1"},"t_bytes32":{"encoding":"inplace","label":"bytes32","numberOfBytes":"32"},"t_contract(IERC20)43663":{"encoding":"inplace","label":"contract IERC20","numberOfBytes":"20"},"t_mapping(t_address,t_bool)":{"encoding":"mapping","key":"t_address","label":"mapping(address => bool)","numberOfBytes":"32","value":"t_bool"},"t_mapping(t_address,t_mapping(t_address,t_uint256))":{"encoding":"mapping","key":"t_address","label":"mapping(address => mapping(address => uint256))","numberOfBytes":"32","value":"t_mapping(t_address,t_uint256)"},"t_mapping(t_address,t_mapping(t_uint256,t_mapping(t_address,t_mapping(t_address,t_uint256))))":{"encoding":"mapping","key":"t_address","label":"mapping(address => mapping(uint256 => mapping(address => mapping(address => uint256))))","numberOfBytes":"32","value":"t_mapping(t_uint256,t_mapping(t_address,t_mapping(t_address,t_uint256)))"},"t_mapping(t_address,t_mapping(t_uint256,t_mapping(t_address,t_uint256)))":{"encoding":"mapping","key":"t_address","label":"mapping(address => mapping(uint256 => mapping(address => uint256)))","numberOfBytes":"32","value":"t_mapping(t_uint256,t_mapping(t_address,t_uint256))"},"t_mapping(t_address,t_struct(AddressSet)46651_storage)":{"encoding":"mapping","key":"t_address","label":"mapping(address => struct EnumerableSet.AddressSet)","numberOfBytes":"32","value":"t_struct(AddressSet)46651_storage"},"t_mapping(t_address,t_uint256)":{"encoding":"mapping","key":"t_address","label":"mapping(address => uint256)","numberOfBytes":"32","value":"t_uint256"},"t_mapping(t_bytes32,t_uint256)":{"encoding":"mapping","key":"t_bytes32","label":"mapping(bytes32 => uint256)","numberOfBytes":"32","value":"t_uint256"},"t_mapping(t_uint256,t_mapping(t_address,t_mapping(t_address,t_uint256)))":{"encoding":"mapping","key":"t_uint256","label":"mapping(uint256 => mapping(address => mapping(address => uint256)))","numberOfBytes":"32","value":"t_mapping(t_address,t_mapping(t_address,t_uint256))"},"t_mapping(t_uint256,t_mapping(t_address,t_uint256))":{"encoding":"mapping","key":"t_uint256","label":"mapping(uint256 => mapping(address => uint256))","numberOfBytes":"32","value":"t_mapping(t_address,t_uint256)"},"t_struct(AddressSet)46651_storage":{"encoding":"inplace","label":"struct EnumerableSet.AddressSet","numberOfBytes":"64","members":[{"astId":46650,"contract":"src/staking/MovementStakingStorage.sol:MovementStakingStorage","label":"_inner","offset":0,"slot":"0","type":"t_struct(Set)46336_storage"}]},"t_struct(Set)46336_storage":{"encoding":"inplace","label":"struct EnumerableSet.Set","numberOfBytes":"64","members":[{"astId":46331,"contract":"src/staking/MovementStakingStorage.sol:MovementStakingStorage","label":"_values","offset":0,"slot":"0","type":"t_array(t_bytes32)dyn_storage"},{"astId":46335,"contract":"src/staking/MovementStakingStorage.sol:MovementStakingStorage","label":"_positions","offset":0,"slot":"1","type":"t_mapping(t_bytes32,t_uint256)"}]},"t_uint256":{"encoding":"inplace","label":"uint256","numberOfBytes":"32"}}},"id":106}