{"abi":[{"type":"function","name":"DEFAULT_ADMIN_ROLE","inputs":[],"outputs":[{"name":"","type":"bytes32","internalType":"bytes32"}],"stateMutability":"view"},{"type":"function","name":"MINTER_ADMIN_ROLE","inputs":[],"outputs":[{"name":"","type":"bytes32","internalType":"bytes32"}],"stateMutability":"view"},{"type":"function","name":"MINTER_ROLE","inputs":[],"outputs":[{"name":"","type":"bytes32","internalType":"bytes32"}],"stateMutability":"view"},{"type":"function","name":"UPGRADE_INTERFACE_VERSION","inputs":[],"outputs":[{"name":"","type":"string","internalType":"string"}],"stateMutability":"view"},{"type":"function","name":"allowance","inputs":[{"name":"owner","type":"address","internalType":"address"},{"name":"spender","type":"address","internalType":"address"}],"outputs":[{"name":"","type":"uint256","internalType":"uint256"}],"stateMutability":"view"},{"type":"function","name":"approve","inputs":[{"name":"spender","type":"address","internalType":"address"},{"name":"value","type":"uint256","internalType":"uint256"}],"outputs":[{"name":"","type":"bool","internalType":"bool"}],"stateMutability":"nonpayable"},{"type":"function","name":"balanceOf","inputs":[{"name":"account","type":"address","internalType":"address"}],"outputs":[{"name":"","type":"uint256","internalType":"uint256"}],"stateMutability":"view"},{"type":"function","name":"decimals","inputs":[],"outputs":[{"name":"","type":"uint8","internalType":"uint8"}],"stateMutability":"pure"},{"type":"function","name":"getRoleAdmin","inputs":[{"name":"role","type":"bytes32","internalType":"bytes32"}],"outputs":[{"name":"","type":"bytes32","internalType":"bytes32"}],"stateMutability":"view"},{"type":"function","name":"grantMinterRole","inputs":[{"name":"account","type":"address","internalType":"address"}],"outputs":[],"stateMutability":"nonpayable"},{"type":"function","name":"grantRole","inputs":[{"name":"role","type":"bytes32","internalType":"bytes32"},{"name":"account","type":"address","internalType":"address"}],"outputs":[],"stateMutability":"nonpayable"},{"type":"function","name":"hasMinterRole","inputs":[{"name":"account","type":"address","internalType":"address"}],"outputs":[{"name":"","type":"bool","internalType":"bool"}],"stateMutability":"view"},{"type":"function","name":"hasRole","inputs":[{"name":"role","type":"bytes32","internalType":"bytes32"},{"name":"account","type":"address","internalType":"address"}],"outputs":[{"name":"","type":"bool","internalType":"bool"}],"stateMutability":"view"},{"type":"function","name":"initialize","inputs":[{"name":"name","type":"string","internalType":"string"},{"name":"symbol","type":"string","internalType":"string"}],"outputs":[],"stateMutability":"nonpayable"},{"type":"function","name":"initialize","inputs":[{"name":"multisig","type":"address","internalType":"address"}],"outputs":[],"stateMutability":"nonpayable"},{"type":"function","name":"mint","inputs":[{"name":"to","type":"address","internalType":"address"},{"name":"amount","type":"uint256","internalType":"uint256"}],"outputs":[],"stateMutability":"nonpayable"},{"type":"function","name":"name","inputs":[],"outputs":[{"name":"","type":"string","internalType":"string"}],"stateMutability":"view"},{"type":"function","name":"proxiableUUID","inputs":[],"outputs":[{"name":"","type":"bytes32","internalType":"bytes32"}],"stateMutability":"view"},{"type":"function","name":"renounceRole","inputs":[{"name":"role","type":"bytes32","internalType":"bytes32"},{"name":"callerConfirmation","type":"address","internalType":"address"}],"outputs":[],"stateMutability":"nonpayable"},{"type":"function","name":"revokeMinterAdminRole","inputs":[{"name":"account","type":"address","internalType":"address"}],"outputs":[],"stateMutability":"nonpayable"},{"type":"function","name":"revokeMinterRole","inputs":[{"name":"account","type":"address","internalType":"address"}],"outputs":[],"stateMutability":"nonpayable"},{"type":"function","name":"revokeRole","inputs":[{"name":"role","type":"bytes32","internalType":"bytes32"},{"name":"account","type":"address","internalType":"address"}],"outputs":[],"stateMutability":"nonpayable"},{"type":"function","name":"supportsInterface","inputs":[{"name":"interfaceId","type":"bytes4","internalType":"bytes4"}],"outputs":[{"name":"","type":"bool","internalType":"bool"}],"stateMutability":"view"},{"type":"function","name":"symbol","inputs":[],"outputs":[{"name":"","type":"string","internalType":"string"}],"stateMutability":"view"},{"type":"function","name":"totalSupply","inputs":[],"outputs":[{"name":"","type":"uint256","internalType":"uint256"}],"stateMutability":"view"},{"type":"function","name":"transfer","inputs":[{"name":"to","type":"address","internalType":"address"},{"name":"value","type":"uint256","internalType":"uint256"}],"outputs":[{"name":"","type":"bool","internalType":"bool"}],"stateMutability":"nonpayable"},{"type":"function","name":"transferFrom","inputs":[{"name":"from","type":"address","internalType":"address"},{"name":"to","type":"address","internalType":"address"},{"name":"value","type":"uint256","internalType":"uint256"}],"outputs":[{"name":"","type":"bool","internalType":"bool"}],"stateMutability":"nonpayable"},{"type":"function","name":"upgradeToAndCall","inputs":[{"name":"newImplementation","type":"address","internalType":"address"},{"name":"data","type":"bytes","internalType":"bytes"}],"outputs":[],"stateMutability":"payable"},{"type":"function","name":"versionInitialized","inputs":[{"name":"version","type":"uint256","internalType":"uint256"}],"outputs":[{"name":"state","type":"bool","internalType":"bool"}],"stateMutability":"view"},{"type":"event","name":"Approval","inputs":[{"name":"owner","type":"address","indexed":true,"internalType":"address"},{"name":"spender","type":"address","indexed":true,"internalType":"address"},{"name":"value","type":"uint256","indexed":false,"internalType":"uint256"}],"anonymous":false},{"type":"event","name":"Initialized","inputs":[{"name":"version","type":"uint64","indexed":false,"internalType":"uint64"}],"anonymous":false},{"type":"event","name":"RoleAdminChanged","inputs":[{"name":"role","type":"bytes32","indexed":true,"internalType":"bytes32"},{"name":"previousAdminRole","type":"bytes32","indexed":true,"internalType":"bytes32"},{"name":"newAdminRole","type":"bytes32","indexed":true,"internalType":"bytes32"}],"anonymous":false},{"type":"event","name":"RoleGranted","inputs":[{"name":"role","type":"bytes32","indexed":true,"internalType":"bytes32"},{"name":"account","type":"address","indexed":true,"internalType":"address"},{"name":"sender","type":"address","indexed":true,"internalType":"address"}],"anonymous":false},{"type":"event","name":"RoleRevoked","inputs":[{"name":"role","type":"bytes32","indexed":true,"internalType":"bytes32"},{"name":"account","type":"address","indexed":true,"internalType":"address"},{"name":"sender","type":"address","indexed":true,"internalType":"address"}],"anonymous":false},{"type":"event","name":"Transfer","inputs":[{"name":"from","type":"address","indexed":true,"internalType":"address"},{"name":"to","type":"address","indexed":true,"internalType":"address"},{"name":"value","type":"uint256","indexed":false,"internalType":"uint256"}],"anonymous":false},{"type":"event","name":"Upgraded","inputs":[{"name":"implementation","type":"address","indexed":true,"internalType":"address"}],"anonymous":false},{"type":"error","name":"AccessControlBadConfirmation","inputs":[]},{"type":"error","name":"AccessControlUnauthorizedAccount","inputs":[{"name":"account","type":"address","internalType":"address"},{"name":"neededRole","type":"bytes32","internalType":"bytes32"}]},{"type":"error","name":"AddressEmptyCode","inputs":[{"name":"target","type":"address","internalType":"address"}]},{"type":"error","name":"AlreadyInitialized","inputs":[]},{"type":"error","name":"ERC1967InvalidImplementation","inputs":[{"name":"implementation","type":"address","internalType":"address"}]},{"type":"error","name":"ERC1967NonPayable","inputs":[]},{"type":"error","name":"ERC20InsufficientAllowance","inputs":[{"name":"spender","type":"address","internalType":"address"},{"name":"allowance","type":"uint256","internalType":"uint256"},{"name":"needed","type":"uint256","internalType":"uint256"}]},{"type":"error","name":"ERC20InsufficientBalance","inputs":[{"name":"sender","type":"address","internalType":"address"},{"name":"balance","type":"uint256","internalType":"uint256"},{"name":"needed","type":"uint256","internalType":"uint256"}]},{"type":"error","name":"ERC20InvalidApprover","inputs":[{"name":"approver","type":"address","internalType":"address"}]},{"type":"error","name":"ERC20InvalidReceiver","inputs":[{"name":"receiver","type":"address","internalType":"address"}]},{"type":"error","name":"ERC20InvalidSender","inputs":[{"name":"sender","type":"address","internalType":"address"}]},{"type":"error","name":"ERC20InvalidSpender","inputs":[{"name":"spender","type":"address","internalType":"address"}]},{"type":"error","name":"FailedInnerCall","inputs":[]},{"type":"error","name":"InvalidInitialization","inputs":[]},{"type":"error","name":"NotInitializing","inputs":[]},{"type":"error","name":"UUPSUnauthorizedCallContext","inputs":[]},{"type":"error","name":"UUPSUnsupportedProxiableUUID","inputs":[{"name":"slot","type":"bytes32","internalType":"bytes32"}]}],"bytecode":{"object":"0x60a0604052306080523480156012575f80fd5b506080516118f56100395f395f8181610d2f01528181610d580152610e9b01526118f55ff3fe6080604052600436106101ba575f3560e01c80634f1ef286116100f2578063964c1aed11610092578063c4d66de811610062578063c4d66de814610510578063d53913931461052f578063d547741f1461054f578063dd62ed3e1461056e575f80fd5b8063964c1aed1461048f578063a217fddf146104ae578063a9059cbb146104c1578063ad3cb1cc146104e0575f80fd5b806370a08231116100cd57806370a08231146103ee578063712f81ee1461042e57806391d148541461045c57806395d89b411461047b575f80fd5b80634f1ef286146103a857806352d1902d146103bb57806369e2f0fb146103cf575f80fd5b8063248a9ca31161015d57806336568abe1161013857806336568abe1461032c5780633dd1eb611461034b57806340c10f191461036a5780634cd88b7614610389575f80fd5b8063248a9ca3146102d15780632f2ff15d146102f0578063313ce56714610311575f80fd5b8063099db01711610198578063099db017146102325780631339324b1461025157806318160ddd1461027f57806323b872dd146102b2575f80fd5b806301ffc9a7146101be57806306fdde03146101f2578063095ea7b314610213575b5f80fd5b3480156101c9575f80fd5b506101dd6101d83660046113df565b61058d565b60405190151581526020015b60405180910390f35b3480156101fd575f80fd5b506102066105c3565b6040516101e99190611406565b34801561021e575f80fd5b506101dd61022d366004611456565b610683565b34801561023d575f80fd5b506101dd61024c36600461147e565b61069a565b34801561025c575f80fd5b506102715f8051602061184083398151915281565b6040519081526020016101e9565b34801561028a575f80fd5b507f52c63247e1f47db19d5ce0460030c497f067ca4cebf71ba98eeadabe20bace0254610271565b3480156102bd575f80fd5b506101dd6102cc366004611497565b6106b2565b3480156102dc575f80fd5b506102716102eb3660046114d1565b6106d7565b3480156102fb575f80fd5b5061030f61030a3660046114e8565b6106f7565b005b34801561031c575f80fd5b50604051600881526020016101e9565b348015610337575f80fd5b5061030f6103463660046114e8565b610719565b348015610356575f80fd5b5061030f61036536600461147e565b610751565b348015610375575f80fd5b5061030f610384366004611456565b61077f565b348015610394575f80fd5b5061030f6103a33660046115bb565b6107a0565b61030f6103b6366004611620565b6108b0565b3480156103c6575f80fd5b506102716108cf565b3480156103da575f80fd5b5061030f6103e936600461147e565b6108ea565b3480156103f9575f80fd5b5061027161040836600461147e565b6001600160a01b03165f9081525f80516020611820833981519152602052604090205490565b348015610439575f80fd5b506101dd6104483660046114d1565b5f6020819052908152604090205460ff1681565b348015610467575f80fd5b506101dd6104763660046114e8565b610918565b348015610486575f80fd5b5061020661094e565b34801561049a575f80fd5b5061030f6104a936600461147e565b61098c565b3480156104b9575f80fd5b506102715f81565b3480156104cc575f80fd5b506101dd6104db366004611456565b6109ba565b3480156104eb575f80fd5b50610206604051806040016040528060058152602001640352e302e360dc1b81525081565b34801561051b575f80fd5b5061030f61052a36600461147e565b6109c7565b34801561053a575f80fd5b506102715f8051602061188083398151915281565b34801561055a575f80fd5b5061030f6105693660046114e8565b610a76565b348015610579575f80fd5b50610271610588366004611674565b610a92565b5f6001600160e01b03198216637965db0b60e01b14806105bd57506301ffc9a760e01b6001600160e01b03198316145b92915050565b7f52c63247e1f47db19d5ce0460030c497f067ca4cebf71ba98eeadabe20bace0380546060915f80516020611820833981519152916106019061169c565b80601f016020809104026020016040519081016040528092919081815260200182805461062d9061169c565b80156106785780601f1061064f57610100808354040283529160200191610678565b820191905f5260205f20905b81548152906001019060200180831161065b57829003601f168201915b505050505091505090565b5f33610690818585610adb565b5060019392505050565b5f6105bd5f8051602061188083398151915283610918565b5f336106bf858285610ae8565b6106ca858585610b4a565b60019150505b9392505050565b5f9081525f805160206118a0833981519152602052604090206001015490565b610700826106d7565b61070981610ba7565b6107138383610bb4565b50505050565b6001600160a01b03811633146107425760405163334bd91960e11b815260040160405180910390fd5b61074c8282610c55565b505050565b5f8051602061184083398151915261076881610ba7565b61074c5f8051602061188083398151915283610bb4565b5f8051602061188083398151915261079681610ba7565b61074c8383610cce565b7ff0c57e16840df040f15088dc2f81fe391c3923bec73e23a9662efc9c229c6a008054600160401b810460ff16159067ffffffffffffffff165f811580156107e55750825b90505f8267ffffffffffffffff1660011480156108015750303b155b90508115801561080f575080155b1561082d5760405163f92ee8a960e01b815260040160405180910390fd5b845467ffffffffffffffff19166001178555831561085757845460ff60401b1916600160401b1785555b6108618787610d02565b83156108a757845460ff60401b19168555604051600181527fc7f505b2f371ae2175ee4913f4499e1f2633a7b5936321eed1cdaeb6115181d29060200160405180910390a15b50505050505050565b6108b8610d24565b6108c182610dca565b6108cb8282610dd4565b5050565b5f6108d8610e90565b505f8051602061186083398151915290565b5f8051602061184083398151915261090181610ba7565b61074c5f8051602061188083398151915283610c55565b5f9182525f805160206118a0833981519152602090815260408084206001600160a01b0393909316845291905290205460ff1690565b7f52c63247e1f47db19d5ce0460030c497f067ca4cebf71ba98eeadabe20bace0480546060915f80516020611820833981519152916106019061169c565b5f805160206118408339815191526109a381610ba7565b61074c5f8051602061184083398151915283610c55565b5f33610690818585610b4a565b60025f9081526020527fabbb5caa7dda850e60932de0934eb1f9d0f59695050f761dc64e443e5030a5695460ff1615610a125760405162dc149f60e41b815260040160405180910390fd5b60025f9081526020527fabbb5caa7dda850e60932de0934eb1f9d0f59695050f761dc64e443e5030a569805460ff19166001179055610a5e5f8051602061184083398151915282610bb4565b506108cb5f8051602061188083398151915282610bb4565b610a7f826106d7565b610a8881610ba7565b6107138383610c55565b6001600160a01b039182165f9081527f52c63247e1f47db19d5ce0460030c497f067ca4cebf71ba98eeadabe20bace016020908152604080832093909416825291909152205490565b61074c8383836001610ed9565b5f610af38484610a92565b90505f1981146107135781811015610b3c57604051637dc7a0d960e11b81526001600160a01b038416600482015260248101829052604481018390526064015b60405180910390fd5b61071384848484035f610ed9565b6001600160a01b038316610b7357604051634b637e8f60e11b81525f6004820152602401610b33565b6001600160a01b038216610b9c5760405163ec442f0560e01b81525f6004820152602401610b33565b61074c838383610fbd565b610bb181336110f6565b50565b5f5f805160206118a0833981519152610bcd8484610918565b610c4c575f848152602082815260408083206001600160a01b03871684529091529020805460ff19166001179055610c023390565b6001600160a01b0316836001600160a01b0316857f2f8788117e7eff1d82e926ec794901d17c78024a50270940304540a733656f0d60405160405180910390a460019150506105bd565b5f9150506105bd565b5f5f805160206118a0833981519152610c6e8484610918565b15610c4c575f848152602082815260408083206001600160a01b0387168085529252808320805460ff1916905551339287917ff6391f5c32d9c69d2a47ea670b442974b53935d1edc7fd64eb21e047a839171b9190a460019150506105bd565b6001600160a01b038216610cf75760405163ec442f0560e01b81525f6004820152602401610b33565b6108cb5f8383610fbd565b610d0a61112f565b610d148282611178565b610d1c6111c8565b6108cb6111da565b306001600160a01b037f0000000000000000000000000000000000000000000000000000000000000000161480610daa57507f00000000000000000000000000000000000000000000000000000000000000006001600160a01b0316610d9e5f80516020611860833981519152546001600160a01b031690565b6001600160a01b031614155b15610dc85760405163703e46dd60e11b815260040160405180910390fd5b565b5f6108cb81610ba7565b816001600160a01b03166352d1902d6040518163ffffffff1660e01b8152600401602060405180830381865afa925050508015610e2e575060408051601f3d908101601f19168201909252610e2b918101906116d4565b60015b610e5657604051634c9c8ce360e01b81526001600160a01b0383166004820152602401610b33565b5f805160206118608339815191528114610e8657604051632a87526960e21b815260048101829052602401610b33565b61074c8383611211565b306001600160a01b037f00000000000000000000000000000000000000000000000000000000000000001614610dc85760405163703e46dd60e11b815260040160405180910390fd5b5f805160206118208339815191526001600160a01b038516610f105760405163e602df0560e01b81525f6004820152602401610b33565b6001600160a01b038416610f3957604051634a1406b160e11b81525f6004820152602401610b33565b6001600160a01b038086165f90815260018301602090815260408083209388168352929052208390558115610fb657836001600160a01b0316856001600160a01b03167f8c5be1e5ebec7d5bd14f71427d1e84f3dd0314c0f7b2291e5b200ac8c7c3b92585604051610fad91815260200190565b60405180910390a35b5050505050565b5f805160206118208339815191526001600160a01b038416610ff75781816002015f828254610fec91906116eb565b909155506110679050565b6001600160a01b0384165f90815260208290526040902054828110156110495760405163391434e360e21b81526001600160a01b03861660048201526024810182905260448101849052606401610b33565b6001600160a01b0385165f9081526020839052604090209083900390555b6001600160a01b0383166110855760028101805483900390556110a3565b6001600160a01b0383165f9081526020829052604090208054830190555b826001600160a01b0316846001600160a01b03167fddf252ad1be2c89b69c2b068fc378daa952ba7f163c4a11628f55a4df523b3ef846040516110e891815260200190565b60405180910390a350505050565b6111008282610918565b6108cb5760405163e2517d3f60e01b81526001600160a01b038216600482015260248101839052604401610b33565b7ff0c57e16840df040f15088dc2f81fe391c3923bec73e23a9662efc9c229c6a0054600160401b900460ff16610dc857604051631afcd79f60e31b815260040160405180910390fd5b61118061112f565b5f805160206118208339815191527f52c63247e1f47db19d5ce0460030c497f067ca4cebf71ba98eeadabe20bace036111b9848261174e565b5060048101610713838261174e565b6111d061112f565b610bb15f33610bb4565b6111e261112f565b6111f95f8051602061184083398151915233610bb4565b50610bb15f8051602061188083398151915233610bb4565b61121a82611266565b6040516001600160a01b038316907fbc7cd75a20ee27fd9adebab32041f755214dbc6bffa90cc0225b39da2e5c2d3b905f90a280511561125e5761074c82826112c9565b6108cb61133b565b806001600160a01b03163b5f0361129b57604051634c9c8ce360e01b81526001600160a01b0382166004820152602401610b33565b5f8051602061186083398151915280546001600160a01b0319166001600160a01b0392909216919091179055565b60605f80846001600160a01b0316846040516112e59190611809565b5f60405180830381855af49150503d805f811461131d576040519150601f19603f3d011682016040523d82523d5f602084013e611322565b606091505b509150915061133285838361135a565b95945050505050565b3415610dc85760405163b398979f60e01b815260040160405180910390fd5b60608261136f5761136a826113b6565b6106d0565b815115801561138657506001600160a01b0384163b155b156113af57604051639996b31560e01b81526001600160a01b0385166004820152602401610b33565b50806106d0565b8051156113c65780518082602001fd5b604051630a12f52160e11b815260040160405180910390fd5b5f602082840312156113ef575f80fd5b81356001600160e01b0319811681146106d0575f80fd5b602081525f82518060208401528060208501604085015e5f604082850101526040601f19601f83011684010191505092915050565b80356001600160a01b0381168114611451575f80fd5b919050565b5f8060408385031215611467575f80fd5b6114708361143b565b946020939093013593505050565b5f6020828403121561148e575f80fd5b6106d08261143b565b5f805f606084860312156114a9575f80fd5b6114b28461143b565b92506114c06020850161143b565b929592945050506040919091013590565b5f602082840312156114e1575f80fd5b5035919050565b5f80604083850312156114f9575f80fd5b823591506115096020840161143b565b90509250929050565b634e487b7160e01b5f52604160045260245ffd5b5f8067ffffffffffffffff84111561154057611540611512565b50604051601f19601f85018116603f0116810181811067ffffffffffffffff8211171561156f5761156f611512565b604052838152905080828401851015611586575f80fd5b838360208301375f60208583010152509392505050565b5f82601f8301126115ac575f80fd5b6106d083833560208501611526565b5f80604083850312156115cc575f80fd5b823567ffffffffffffffff8111156115e2575f80fd5b6115ee8582860161159d565b925050602083013567ffffffffffffffff81111561160a575f80fd5b6116168582860161159d565b9150509250929050565b5f8060408385031215611631575f80fd5b61163a8361143b565b9150602083013567ffffffffffffffff811115611655575f80fd5b8301601f81018513611665575f80fd5b61161685823560208401611526565b5f8060408385031215611685575f80fd5b61168e8361143b565b91506115096020840161143b565b600181811c908216806116b057607f821691505b6020821081036116ce57634e487b7160e01b5f52602260045260245ffd5b50919050565b5f602082840312156116e4575f80fd5b5051919050565b808201808211156105bd57634e487b7160e01b5f52601160045260245ffd5b601f82111561074c57805f5260205f20601f840160051c8101602085101561172f5750805b601f840160051c820191505b81811015610fb6575f815560010161173b565b815167ffffffffffffffff81111561176857611768611512565b61177c81611776845461169c565b8461170a565b6020601f8211600181146117ae575f83156117975750848201515b5f19600385901b1c1916600184901b178455610fb6565b5f84815260208120601f198516915b828110156117dd57878501518255602094850194600190920191016117bd565b50848210156117fa57868401515f19600387901b60f8161c191681555b50505050600190811b01905550565b5f82518060208501845e5f92019182525091905056fe52c63247e1f47db19d5ce0460030c497f067ca4cebf71ba98eeadabe20bace0070480ee89cb38eff00b7d23da25713d52ce19c6ed428691d22c58b2f615e3d67360894a13ba1a3210667c828492db98dca3e2076cc3735a920a3ca505d382bbc9f2df0fed2c77648de5860a4cc508cd0818c85b8b8a1ab4ceeef8d981c8956a602dd7bc7dec4dceedda775e58dd541e08a116c6c53815c0bd028192f7b626800a2646970667358221220297e5534e693fc972f8a44612f1b07c17723e6e6041844017d83fca78e41364164736f6c634300081a0033","linkReferences":{}},"methodIdentifiers":{"DEFAULT_ADMIN_ROLE()":"a217fddf","MINTER_ADMIN_ROLE()":"1339324b","MINTER_ROLE()":"d5391393","UPGRADE_INTERFACE_VERSION()":"ad3cb1cc","allowance(address,address)":"dd62ed3e","approve(address,uint256)":"095ea7b3","balanceOf(address)":"70a08231","decimals()":"313ce567","getRoleAdmin(bytes32)":"248a9ca3","grantMinterRole(address)":"3dd1eb61","grantRole(bytes32,address)":"2f2ff15d","hasMinterRole(address)":"099db017","hasRole(bytes32,address)":"91d14854","initialize(address)":"c4d66de8","initialize(string,string)":"4cd88b76","mint(address,uint256)":"40c10f19","name()":"06fdde03","proxiableUUID()":"52d1902d","renounceRole(bytes32,address)":"36568abe","revokeMinterAdminRole(address)":"964c1aed","revokeMinterRole(address)":"69e2f0fb","revokeRole(bytes32,address)":"d547741f","supportsInterface(bytes4)":"01ffc9a7","symbol()":"95d89b41","totalSupply()":"18160ddd","transfer(address,uint256)":"a9059cbb","transferFrom(address,address,uint256)":"23b872dd","upgradeToAndCall(address,bytes)":"4f1ef286","versionInitialized(uint256)":"712f81ee"},"storageLayout":{"storage":[{"astId":55733,"contract":"src/token/MOVETokenDev.sol:MOVETokenDev","label":"versionInitialized","offset":0,"slot":"0","type":"t_mapping(t_uint256,t_bool)"}],"types":{"t_bool":{"encoding":"inplace","label":"bool","numberOfBytes":"1"},"t_mapping(t_uint256,t_bool)":{"encoding":"mapping","key":"t_uint256","label":"mapping(uint256 => bool)","numberOfBytes":"32","value":"t_bool"},"t_uint256":{"encoding":"inplace","label":"uint256","numberOfBytes":"32"}}},"id":110}