{"abi":[{"type":"function","name":"DEFAULT_ADMIN_ROLE","inputs":[],"outputs":[{"name":"","type":"bytes32","internalType":"bytes32"}],"stateMutability":"view"},{"type":"function","name":"MINTER_ADMIN_ROLE","inputs":[],"outputs":[{"name":"","type":"bytes32","internalType":"bytes32"}],"stateMutability":"view"},{"type":"function","name":"MINTER_ROLE","inputs":[],"outputs":[{"name":"","type":"bytes32","internalType":"bytes32"}],"stateMutability":"view"},{"type":"function","name":"UPGRADE_INTERFACE_VERSION","inputs":[],"outputs":[{"name":"","type":"string","internalType":"string"}],"stateMutability":"view"},{"type":"function","name":"allowance","inputs":[{"name":"owner","type":"address","internalType":"address"},{"name":"spender","type":"address","internalType":"address"}],"outputs":[{"name":"","type":"uint256","internalType":"uint256"}],"stateMutability":"view"},{"type":"function","name":"approve","inputs":[{"name":"spender","type":"address","internalType":"address"},{"name":"value","type":"uint256","internalType":"uint256"}],"outputs":[{"name":"","type":"bool","internalType":"bool"}],"stateMutability":"nonpayable"},{"type":"function","name":"balanceOf","inputs":[{"name":"account","type":"address","internalType":"address"}],"outputs":[{"name":"","type":"uint256","internalType":"uint256"}],"stateMutability":"view"},{"type":"function","name":"decimals","inputs":[],"outputs":[{"name":"","type":"uint8","internalType":"uint8"}],"stateMutability":"view"},{"type":"function","name":"getRoleAdmin","inputs":[{"name":"role","type":"bytes32","internalType":"bytes32"}],"outputs":[{"name":"","type":"bytes32","internalType":"bytes32"}],"stateMutability":"view"},{"type":"function","name":"grantMinterRole","inputs":[{"name":"account","type":"address","internalType":"address"}],"outputs":[],"stateMutability":"nonpayable"},{"type":"function","name":"grantRole","inputs":[{"name":"role","type":"bytes32","internalType":"bytes32"},{"name":"account","type":"address","internalType":"address"}],"outputs":[],"stateMutability":"nonpayable"},{"type":"function","name":"hasMinterRole","inputs":[{"name":"account","type":"address","internalType":"address"}],"outputs":[{"name":"","type":"bool","internalType":"bool"}],"stateMutability":"view"},{"type":"function","name":"hasRole","inputs":[{"name":"role","type":"bytes32","internalType":"bytes32"},{"name":"account","type":"address","internalType":"address"}],"outputs":[{"name":"","type":"bool","internalType":"bool"}],"stateMutability":"view"},{"type":"function","name":"initialize","inputs":[{"name":"name","type":"string","internalType":"string"},{"name":"symbol","type":"string","internalType":"string"},{"name":"_underlyingToken","type":"address","internalType":"contract IMintableToken"}],"outputs":[],"stateMutability":"nonpayable"},{"type":"function","name":"initialize","inputs":[{"name":"name","type":"string","internalType":"string"},{"name":"symbol","type":"string","internalType":"string"}],"outputs":[],"stateMutability":"nonpayable"},{"type":"function","name":"mint","inputs":[{"name":"account","type":"address","internalType":"address"},{"name":"amount","type":"uint256","internalType":"uint256"}],"outputs":[],"stateMutability":"nonpayable"},{"type":"function","name":"name","inputs":[],"outputs":[{"name":"","type":"string","internalType":"string"}],"stateMutability":"view"},{"type":"function","name":"proxiableUUID","inputs":[],"outputs":[{"name":"","type":"bytes32","internalType":"bytes32"}],"stateMutability":"view"},{"type":"function","name":"renounceRole","inputs":[{"name":"role","type":"bytes32","internalType":"bytes32"},{"name":"callerConfirmation","type":"address","internalType":"address"}],"outputs":[],"stateMutability":"nonpayable"},{"type":"function","name":"revokeMinterAdminRole","inputs":[{"name":"account","type":"address","internalType":"address"}],"outputs":[],"stateMutability":"nonpayable"},{"type":"function","name":"revokeMinterRole","inputs":[{"name":"account","type":"address","internalType":"address"}],"outputs":[],"stateMutability":"nonpayable"},{"type":"function","name":"revokeRole","inputs":[{"name":"role","type":"bytes32","internalType":"bytes32"},{"name":"account","type":"address","internalType":"address"}],"outputs":[],"stateMutability":"nonpayable"},{"type":"function","name":"supportsInterface","inputs":[{"name":"interfaceId","type":"bytes4","internalType":"bytes4"}],"outputs":[{"name":"","type":"bool","internalType":"bool"}],"stateMutability":"view"},{"type":"function","name":"symbol","inputs":[],"outputs":[{"name":"","type":"string","internalType":"string"}],"stateMutability":"view"},{"type":"function","name":"totalSupply","inputs":[],"outputs":[{"name":"","type":"uint256","internalType":"uint256"}],"stateMutability":"view"},{"type":"function","name":"transfer","inputs":[{"name":"to","type":"address","internalType":"address"},{"name":"value","type":"uint256","internalType":"uint256"}],"outputs":[{"name":"","type":"bool","internalType":"bool"}],"stateMutability":"nonpayable"},{"type":"function","name":"transferFrom","inputs":[{"name":"from","type":"address","internalType":"address"},{"name":"to","type":"address","internalType":"address"},{"name":"value","type":"uint256","internalType":"uint256"}],"outputs":[{"name":"","type":"bool","internalType":"bool"}],"stateMutability":"nonpayable"},{"type":"function","name":"underlyingToken","inputs":[],"outputs":[{"name":"","type":"address","internalType":"contract IMintableToken"}],"stateMutability":"view"},{"type":"function","name":"upgradeToAndCall","inputs":[{"name":"newImplementation","type":"address","internalType":"address"},{"name":"data","type":"bytes","internalType":"bytes"}],"outputs":[],"stateMutability":"payable"},{"type":"event","name":"Approval","inputs":[{"name":"owner","type":"address","indexed":true,"internalType":"address"},{"name":"spender","type":"address","indexed":true,"internalType":"address"},{"name":"value","type":"uint256","indexed":false,"internalType":"uint256"}],"anonymous":false},{"type":"event","name":"Initialized","inputs":[{"name":"version","type":"uint64","indexed":false,"internalType":"uint64"}],"anonymous":false},{"type":"event","name":"RoleAdminChanged","inputs":[{"name":"role","type":"bytes32","indexed":true,"internalType":"bytes32"},{"name":"previousAdminRole","type":"bytes32","indexed":true,"internalType":"bytes32"},{"name":"newAdminRole","type":"bytes32","indexed":true,"internalType":"bytes32"}],"anonymous":false},{"type":"event","name":"RoleGranted","inputs":[{"name":"role","type":"bytes32","indexed":true,"internalType":"bytes32"},{"name":"account","type":"address","indexed":true,"internalType":"address"},{"name":"sender","type":"address","indexed":true,"internalType":"address"}],"anonymous":false},{"type":"event","name":"RoleRevoked","inputs":[{"name":"role","type":"bytes32","indexed":true,"internalType":"bytes32"},{"name":"account","type":"address","indexed":true,"internalType":"address"},{"name":"sender","type":"address","indexed":true,"internalType":"address"}],"anonymous":false},{"type":"event","name":"Transfer","inputs":[{"name":"from","type":"address","indexed":true,"internalType":"address"},{"name":"to","type":"address","indexed":true,"internalType":"address"},{"name":"value","type":"uint256","indexed":false,"internalType":"uint256"}],"anonymous":false},{"type":"event","name":"Upgraded","inputs":[{"name":"implementation","type":"address","indexed":true,"internalType":"address"}],"anonymous":false},{"type":"error","name":"AccessControlBadConfirmation","inputs":[]},{"type":"error","name":"AccessControlUnauthorizedAccount","inputs":[{"name":"account","type":"address","internalType":"address"},{"name":"neededRole","type":"bytes32","internalType":"bytes32"}]},{"type":"error","name":"AddressEmptyCode","inputs":[{"name":"target","type":"address","internalType":"address"}]},{"type":"error","name":"ERC1967InvalidImplementation","inputs":[{"name":"implementation","type":"address","internalType":"address"}]},{"type":"error","name":"ERC1967NonPayable","inputs":[]},{"type":"error","name":"ERC20InsufficientAllowance","inputs":[{"name":"spender","type":"address","internalType":"address"},{"name":"allowance","type":"uint256","internalType":"uint256"},{"name":"needed","type":"uint256","internalType":"uint256"}]},{"type":"error","name":"ERC20InsufficientBalance","inputs":[{"name":"sender","type":"address","internalType":"address"},{"name":"balance","type":"uint256","internalType":"uint256"},{"name":"needed","type":"uint256","internalType":"uint256"}]},{"type":"error","name":"ERC20InvalidApprover","inputs":[{"name":"approver","type":"address","internalType":"address"}]},{"type":"error","name":"ERC20InvalidReceiver","inputs":[{"name":"receiver","type":"address","internalType":"address"}]},{"type":"error","name":"ERC20InvalidSender","inputs":[{"name":"sender","type":"address","internalType":"address"}]},{"type":"error","name":"ERC20InvalidSpender","inputs":[{"name":"spender","type":"address","internalType":"address"}]},{"type":"error","name":"FailedInnerCall","inputs":[]},{"type":"error","name":"InvalidInitialization","inputs":[]},{"type":"error","name":"NotInitializing","inputs":[]},{"type":"error","name":"UUPSUnauthorizedCallContext","inputs":[]},{"type":"error","name":"UUPSUnsupportedProxiableUUID","inputs":[{"name":"slot","type":"bytes32","internalType":"bytes32"}]}],"bytecode":{"object":"0x60a0604052306080523480156012575f80fd5b50608051611aa36100395f395f8181610dfd01528181610e260152610f690152611aa35ff3fe6080604052600436106101ba575f3560e01c806340c10f19116100f257806395d89b4111610092578063ad3cb1cc11610062578063ad3cb1cc14610507578063d539139314610537578063d547741f14610557578063dd62ed3e14610576575f80fd5b806395d89b41146104a2578063964c1aed146104b6578063a217fddf146104d5578063a9059cbb146104e8575f80fd5b806352d1902d116100cd57806352d1902d1461041057806369e2f0fb1461042457806370a082311461044357806391d1485414610483575f80fd5b806340c10f19146103bf5780634cd88b76146103de5780634f1ef286146103fd575f80fd5b806323b872dd1161015d5780632f2ff15d116101385780632f2ff15d14610347578063313ce5671461036657806336568abe146103815780633dd1eb61146103a0575f80fd5b806323b872dd146102d3578063248a9ca3146102f25780632495a59914610311575f80fd5b8063095ea7b311610198578063095ea7b314610234578063099db017146102535780631339324b1461027257806318160ddd146102a0575f80fd5b806301ffc9a7146101be57806306fdde03146101f2578063077f224a14610213575b5f80fd5b3480156101c9575f80fd5b506101dd6101d836600461150a565b610595565b60405190151581526020015b60405180910390f35b3480156101fd575f80fd5b506102066105cb565b6040516101e99190611531565b34801561021e575f80fd5b5061023261022d366004611623565b61068b565b005b34801561023f575f80fd5b506101dd61024e36600461169b565b61079d565b34801561025e575f80fd5b506101dd61026d3660046116c5565b6107b4565b34801561027d575f80fd5b506102925f805160206119ee83398151915281565b6040519081526020016101e9565b3480156102ab575f80fd5b507f52c63247e1f47db19d5ce0460030c497f067ca4cebf71ba98eeadabe20bace0254610292565b3480156102de575f80fd5b506101dd6102ed3660046116e0565b6107cc565b3480156102fd575f80fd5b5061029261030c36600461171e565b6107f1565b34801561031c575f80fd5b505f5461032f906001600160a01b031681565b6040516001600160a01b0390911681526020016101e9565b348015610352575f80fd5b50610232610361366004611735565b610811565b348015610371575f80fd5b50604051601281526020016101e9565b34801561038c575f80fd5b5061023261039b366004611735565b610833565b3480156103ab575f80fd5b506102326103ba3660046116c5565b61086b565b3480156103ca575f80fd5b506102326103d936600461169b565b610899565b3480156103e9575f80fd5b506102326103f8366004611763565b610905565b61023261040b3660046117c8565b610a15565b34801561041b575f80fd5b50610292610a34565b34801561042f575f80fd5b5061023261043e3660046116c5565b610a4f565b34801561044e575f80fd5b5061029261045d3660046116c5565b6001600160a01b03165f9081525f805160206119ce833981519152602052604090205490565b34801561048e575f80fd5b506101dd61049d366004611735565b610a7d565b3480156104ad575f80fd5b50610206610ab3565b3480156104c1575f80fd5b506102326104d03660046116c5565b610af1565b3480156104e0575f80fd5b506102925f81565b3480156104f3575f80fd5b506101dd61050236600461169b565b610b1f565b348015610512575f80fd5b50610206604051806040016040528060058152602001640352e302e360dc1b81525081565b348015610542575f80fd5b506102925f80516020611a2e83398151915281565b348015610562575f80fd5b50610232610571366004611735565b610b2c565b348015610581575f80fd5b5061029261059036600461181e565b610b48565b5f6001600160e01b03198216637965db0b60e01b14806105c557506301ffc9a760e01b6001600160e01b03198316145b92915050565b7f52c63247e1f47db19d5ce0460030c497f067ca4cebf71ba98eeadabe20bace0380546060915f805160206119ce833981519152916106099061184a565b80601f01602080910402602001604051908101604052809291908181526020018280546106359061184a565b80156106805780601f1061065757610100808354040283529160200191610680565b820191905f5260205f20905b81548152906001019060200180831161066357829003601f168201915b505050505091505090565b7ff0c57e16840df040f15088dc2f81fe391c3923bec73e23a9662efc9c229c6a008054600160401b810460ff16159067ffffffffffffffff165f811580156106d05750825b90505f8267ffffffffffffffff1660011480156106ec5750303b155b9050811580156106fa575080155b156107185760405163f92ee8a960e01b815260040160405180910390fd5b845467ffffffffffffffff19166001178555831561074257845460ff60401b1916600160401b1785555b61074d888888610b91565b831561079357845460ff60401b19168555604051600181527fc7f505b2f371ae2175ee4913f4499e1f2633a7b5936321eed1cdaeb6115181d29060200160405180910390a15b5050505050505050565b5f336107aa818585610bbc565b5060019392505050565b5f6105c55f80516020611a2e83398151915283610a7d565b5f336107d9858285610bc9565b6107e4858585610c2b565b60019150505b9392505050565b5f9081525f80516020611a4e833981519152602052604090206001015490565b61081a826107f1565b61082381610c88565b61082d8383610c95565b50505050565b6001600160a01b038116331461085c5760405163334bd91960e11b815260040160405180910390fd5b6108668282610d36565b505050565b5f805160206119ee83398151915261088281610c88565b6108665f80516020611a2e83398151915283610c95565b6108a38282610daf565b5f546040516340c10f1960e01b8152306004820152602481018390526001600160a01b03909116906340c10f19906044015f604051808303815f87803b1580156108eb575f80fd5b505af11580156108fd573d5f803e3d5ffd5b505050505050565b7ff0c57e16840df040f15088dc2f81fe391c3923bec73e23a9662efc9c229c6a008054600160401b810460ff16159067ffffffffffffffff165f8115801561094a5750825b90505f8267ffffffffffffffff1660011480156109665750303b155b905081158015610974575080155b156109925760405163f92ee8a960e01b815260040160405180910390fd5b845467ffffffffffffffff1916600117855583156109bc57845460ff60401b1916600160401b1785555b6109c68787610dd0565b8315610a0c57845460ff60401b19168555604051600181527fc7f505b2f371ae2175ee4913f4499e1f2633a7b5936321eed1cdaeb6115181d29060200160405180910390a15b50505050505050565b610a1d610df2565b610a2682610e98565b610a308282610ea2565b5050565b5f610a3d610f5e565b505f80516020611a0e83398151915290565b5f805160206119ee833981519152610a6681610c88565b6108665f80516020611a2e83398151915283610d36565b5f9182525f80516020611a4e833981519152602090815260408084206001600160a01b0393909316845291905290205460ff1690565b7f52c63247e1f47db19d5ce0460030c497f067ca4cebf71ba98eeadabe20bace0480546060915f805160206119ce833981519152916106099061184a565b5f805160206119ee833981519152610b0881610c88565b6108665f805160206119ee83398151915283610d36565b5f336107aa818585610c2b565b610b35826107f1565b610b3e81610c88565b61082d8383610d36565b6001600160a01b039182165f9081527f52c63247e1f47db19d5ce0460030c497f067ca4cebf71ba98eeadabe20bace016020908152604080832093909416825291909152205490565b610b99610fa7565b610ba38383610ff0565b610bab611040565b610bb3611052565b61086681611089565b61086683838360016110b2565b5f610bd48484610b48565b90505f19811461082d5781811015610c1d57604051637dc7a0d960e11b81526001600160a01b038416600482015260248101829052604481018390526064015b60405180910390fd5b61082d84848484035f6110b2565b6001600160a01b038316610c5457604051634b637e8f60e11b81525f6004820152602401610c14565b6001600160a01b038216610c7d5760405163ec442f0560e01b81525f6004820152602401610c14565b610866838383611196565b610c9281336112cf565b50565b5f5f80516020611a4e833981519152610cae8484610a7d565b610d2d575f848152602082815260408083206001600160a01b03871684529091529020805460ff19166001179055610ce33390565b6001600160a01b0316836001600160a01b0316857f2f8788117e7eff1d82e926ec794901d17c78024a50270940304540a733656f0d60405160405180910390a460019150506105c5565b5f9150506105c5565b5f5f80516020611a4e833981519152610d4f8484610a7d565b15610d2d575f848152602082815260408083206001600160a01b0387168085529252808320805460ff1916905551339287917ff6391f5c32d9c69d2a47ea670b442974b53935d1edc7fd64eb21e047a839171b9190a460019150506105c5565b5f80516020611a2e833981519152610dc681610c88565b6108668383611308565b610dd8610fa7565b610de28282610ff0565b610dea611040565b610a30611052565b306001600160a01b037f0000000000000000000000000000000000000000000000000000000000000000161480610e7857507f00000000000000000000000000000000000000000000000000000000000000006001600160a01b0316610e6c5f80516020611a0e833981519152546001600160a01b031690565b6001600160a01b031614155b15610e965760405163703e46dd60e11b815260040160405180910390fd5b565b5f610a3081610c88565b816001600160a01b03166352d1902d6040518163ffffffff1660e01b8152600401602060405180830381865afa925050508015610efc575060408051601f3d908101601f19168201909252610ef991810190611882565b60015b610f2457604051634c9c8ce360e01b81526001600160a01b0383166004820152602401610c14565b5f80516020611a0e8339815191528114610f5457604051632a87526960e21b815260048101829052602401610c14565b610866838361133c565b306001600160a01b037f00000000000000000000000000000000000000000000000000000000000000001614610e965760405163703e46dd60e11b815260040160405180910390fd5b7ff0c57e16840df040f15088dc2f81fe391c3923bec73e23a9662efc9c229c6a0054600160401b900460ff16610e9657604051631afcd79f60e31b815260040160405180910390fd5b610ff8610fa7565b5f805160206119ce8339815191527f52c63247e1f47db19d5ce0460030c497f067ca4cebf71ba98eeadabe20bace0361103184826118dd565b506004810161082d83826118dd565b611048610fa7565b610c925f33610c95565b61105a610fa7565b6110715f805160206119ee83398151915233610c95565b50610c925f80516020611a2e83398151915233610c95565b611091610fa7565b5f80546001600160a01b0319166001600160a01b0392909216919091179055565b5f805160206119ce8339815191526001600160a01b0385166110e95760405163e602df0560e01b81525f6004820152602401610c14565b6001600160a01b03841661111257604051634a1406b160e11b81525f6004820152602401610c14565b6001600160a01b038086165f9081526001830160209081526040808320938816835292905220839055811561118f57836001600160a01b0316856001600160a01b03167f8c5be1e5ebec7d5bd14f71427d1e84f3dd0314c0f7b2291e5b200ac8c7c3b9258560405161118691815260200190565b60405180910390a35b5050505050565b5f805160206119ce8339815191526001600160a01b0384166111d05781816002015f8282546111c59190611998565b909155506112409050565b6001600160a01b0384165f90815260208290526040902054828110156112225760405163391434e360e21b81526001600160a01b03861660048201526024810182905260448101849052606401610c14565b6001600160a01b0385165f9081526020839052604090209083900390555b6001600160a01b03831661125e57600281018054839003905561127c565b6001600160a01b0383165f9081526020829052604090208054830190555b826001600160a01b0316846001600160a01b03167fddf252ad1be2c89b69c2b068fc378daa952ba7f163c4a11628f55a4df523b3ef846040516112c191815260200190565b60405180910390a350505050565b6112d98282610a7d565b610a305760405163e2517d3f60e01b81526001600160a01b038216600482015260248101839052604401610c14565b6001600160a01b0382166113315760405163ec442f0560e01b81525f6004820152602401610c14565b610a305f8383611196565b61134582611391565b6040516001600160a01b038316907fbc7cd75a20ee27fd9adebab32041f755214dbc6bffa90cc0225b39da2e5c2d3b905f90a28051156113895761086682826113f4565b610a30611466565b806001600160a01b03163b5f036113c657604051634c9c8ce360e01b81526001600160a01b0382166004820152602401610c14565b5f80516020611a0e83398151915280546001600160a01b0319166001600160a01b0392909216919091179055565b60605f80846001600160a01b03168460405161141091906119b7565b5f60405180830381855af49150503d805f8114611448576040519150601f19603f3d011682016040523d82523d5f602084013e61144d565b606091505b509150915061145d858383611485565b95945050505050565b3415610e965760405163b398979f60e01b815260040160405180910390fd5b60608261149a57611495826114e1565b6107ea565b81511580156114b157506001600160a01b0384163b155b156114da57604051639996b31560e01b81526001600160a01b0385166004820152602401610c14565b50806107ea565b8051156114f15780518082602001fd5b604051630a12f52160e11b815260040160405180910390fd5b5f6020828403121561151a575f80fd5b81356001600160e01b0319811681146107ea575f80fd5b602081525f82518060208401528060208501604085015e5f604082850101526040601f19601f83011684010191505092915050565b634e487b7160e01b5f52604160045260245ffd5b5f8067ffffffffffffffff84111561159457611594611566565b50604051601f19601f85018116603f0116810181811067ffffffffffffffff821117156115c3576115c3611566565b6040528381529050808284018510156115da575f80fd5b838360208301375f60208583010152509392505050565b5f82601f830112611600575f80fd5b6107ea8383356020850161157a565b6001600160a01b0381168114610c92575f80fd5b5f805f60608486031215611635575f80fd5b833567ffffffffffffffff81111561164b575f80fd5b611657868287016115f1565b935050602084013567ffffffffffffffff811115611673575f80fd5b61167f868287016115f1565b92505060408401356116908161160f565b809150509250925092565b5f80604083850312156116ac575f80fd5b82356116b78161160f565b946020939093013593505050565b5f602082840312156116d5575f80fd5b81356107ea8161160f565b5f805f606084860312156116f2575f80fd5b83356116fd8161160f565b9250602084013561170d8161160f565b929592945050506040919091013590565b5f6020828403121561172e575f80fd5b5035919050565b5f8060408385031215611746575f80fd5b8235915060208301356117588161160f565b809150509250929050565b5f8060408385031215611774575f80fd5b823567ffffffffffffffff81111561178a575f80fd5b611796858286016115f1565b925050602083013567ffffffffffffffff8111156117b2575f80fd5b6117be858286016115f1565b9150509250929050565b5f80604083850312156117d9575f80fd5b82356117e48161160f565b9150602083013567ffffffffffffffff8111156117ff575f80fd5b8301601f8101851361180f575f80fd5b6117be8582356020840161157a565b5f806040838503121561182f575f80fd5b823561183a8161160f565b915060208301356117588161160f565b600181811c9082168061185e57607f821691505b60208210810361187c57634e487b7160e01b5f52602260045260245ffd5b50919050565b5f60208284031215611892575f80fd5b5051919050565b601f82111561086657805f5260205f20601f840160051c810160208510156118be5750805b601f840160051c820191505b8181101561118f575f81556001016118ca565b815167ffffffffffffffff8111156118f7576118f7611566565b61190b81611905845461184a565b84611899565b6020601f82116001811461193d575f83156119265750848201515b5f19600385901b1c1916600184901b17845561118f565b5f84815260208120601f198516915b8281101561196c578785015182556020948501946001909201910161194c565b508482101561198957868401515f19600387901b60f8161c191681555b50505050600190811b01905550565b808201808211156105c557634e487b7160e01b5f52601160045260245ffd5b5f82518060208501845e5f92019182525091905056fe52c63247e1f47db19d5ce0460030c497f067ca4cebf71ba98eeadabe20bace0070480ee89cb38eff00b7d23da25713d52ce19c6ed428691d22c58b2f615e3d67360894a13ba1a3210667c828492db98dca3e2076cc3735a920a3ca505d382bbc9f2df0fed2c77648de5860a4cc508cd0818c85b8b8a1ab4ceeef8d981c8956a602dd7bc7dec4dceedda775e58dd541e08a116c6c53815c0bd028192f7b626800a26469706673582212209ff04bb62ee683440125f553cacda1a65b3ba10437a8968637cacc7f7edc867064736f6c634300081a0033","linkReferences":{}},"methodIdentifiers":{"DEFAULT_ADMIN_ROLE()":"a217fddf","MINTER_ADMIN_ROLE()":"1339324b","MINTER_ROLE()":"d5391393","UPGRADE_INTERFACE_VERSION()":"ad3cb1cc","allowance(address,address)":"dd62ed3e","approve(address,uint256)":"095ea7b3","balanceOf(address)":"70a08231","decimals()":"313ce567","getRoleAdmin(bytes32)":"248a9ca3","grantMinterRole(address)":"3dd1eb61","grantRole(bytes32,address)":"2f2ff15d","hasMinterRole(address)":"099db017","hasRole(bytes32,address)":"91d14854","initialize(string,string)":"4cd88b76","initialize(string,string,address)":"077f224a","mint(address,uint256)":"40c10f19","name()":"06fdde03","proxiableUUID()":"52d1902d","renounceRole(bytes32,address)":"36568abe","revokeMinterAdminRole(address)":"964c1aed","revokeMinterRole(address)":"69e2f0fb","revokeRole(bytes32,address)":"d547741f","supportsInterface(bytes4)":"01ffc9a7","symbol()":"95d89b41","totalSupply()":"18160ddd","transfer(address,uint256)":"a9059cbb","transferFrom(address,address,uint256)":"23b872dd","underlyingToken()":"2495a599","upgradeToAndCall(address,bytes)":"4f1ef286"},"storageLayout":{"storage":[{"astId":56236,"contract":"src/token/base/WrappedToken.sol:WrappedToken","label":"underlyingToken","offset":0,"slot":"0","type":"t_contract(IMintableToken)55962"},{"astId":56240,"contract":"src/token/base/WrappedToken.sol:WrappedToken","label":"__gap","offset":0,"slot":"1","type":"t_array(t_uint256)50_storage"}],"types":{"t_array(t_uint256)50_storage":{"encoding":"inplace","label":"uint256[50]","numberOfBytes":"1600","base":"t_uint256"},"t_contract(IMintableToken)55962":{"encoding":"inplace","label":"contract IMintableToken","numberOfBytes":"20"},"t_uint256":{"encoding":"inplace","label":"uint256","numberOfBytes":"32"}}},"id":114}