{"abi":[{"type":"function","name":"INITIATOR_TIME_LOCK_DURATION","inputs":[],"outputs":[{"name":"","type":"uint256","internalType":"uint256"}],"stateMutability":"view"},{"type":"function","name":"bridgeTransfers","inputs":[{"name":"","type":"bytes32","internalType":"bytes32"}],"outputs":[{"name":"amount","type":"uint256","internalType":"uint256"},{"name":"originator","type":"address","internalType":"address"},{"name":"recipient","type":"bytes32","internalType":"bytes32"},{"name":"hashLock","type":"bytes32","internalType":"bytes32"},{"name":"timeLock","type":"uint256","internalType":"uint256"},{"name":"state","type":"uint8","internalType":"enum AtomicBridgeInitiator.MessageState"}],"stateMutability":"view"},{"type":"function","name":"completeBridgeTransfer","inputs":[{"name":"bridgeTransferId","type":"bytes32","internalType":"bytes32"},{"name":"preImage","type":"bytes32","internalType":"bytes32"}],"outputs":[],"stateMutability":"nonpayable"},{"type":"function","name":"counterpartyAddress","inputs":[],"outputs":[{"name":"","type":"address","internalType":"address"}],"stateMutability":"view"},{"type":"function","name":"initialize","inputs":[{"name":"_weth","type":"address","internalType":"address"},{"name":"owner","type":"address","internalType":"address"}],"outputs":[],"stateMutability":"nonpayable"},{"type":"function","name":"initiateBridgeTransfer","inputs":[{"name":"wethAmount","type":"uint256","internalType":"uint256"},{"name":"recipient","type":"bytes32","internalType":"bytes32"},{"name":"hashLock","type":"bytes32","internalType":"bytes32"}],"outputs":[{"name":"bridgeTransferId","type":"bytes32","internalType":"bytes32"}],"stateMutability":"payable"},{"type":"function","name":"owner","inputs":[],"outputs":[{"name":"","type":"address","internalType":"address"}],"stateMutability":"view"},{"type":"function","name":"poolBalance","inputs":[],"outputs":[{"name":"","type":"uint256","internalType":"uint256"}],"stateMutability":"view"},{"type":"function","name":"refundBridgeTransfer","inputs":[{"name":"bridgeTransferId","type":"bytes32","internalType":"bytes32"}],"outputs":[],"stateMutability":"nonpayable"},{"type":"function","name":"renounceOwnership","inputs":[],"outputs":[],"stateMutability":"nonpayable"},{"type":"function","name":"setCounterpartyAddress","inputs":[{"name":"_counterpartyAddress","type":"address","internalType":"address"}],"outputs":[],"stateMutability":"nonpayable"},{"type":"function","name":"transferOwnership","inputs":[{"name":"newOwner","type":"address","internalType":"address"}],"outputs":[],"stateMutability":"nonpayable"},{"type":"function","name":"weth","inputs":[],"outputs":[{"name":"","type":"address","internalType":"contract IWETH9"}],"stateMutability":"view"},{"type":"function","name":"withdrawWETH","inputs":[{"name":"recipient","type":"address","internalType":"address"},{"name":"amount","type":"uint256","internalType":"uint256"}],"outputs":[],"stateMutability":"nonpayable"},{"type":"event","name":"BridgeTransferCompleted","inputs":[{"name":"_bridgeTransferId","type":"bytes32","indexed":true,"internalType":"bytes32"},{"name":"pre_image","type":"bytes32","indexed":false,"internalType":"bytes32"}],"anonymous":false},{"type":"event","name":"BridgeTransferInitiated","inputs":[{"name":"_bridgeTransferId","type":"bytes32","indexed":true,"internalType":"bytes32"},{"name":"_originator","type":"address","indexed":true,"internalType":"address"},{"name":"_recipient","type":"bytes32","indexed":true,"internalType":"bytes32"},{"name":"amount","type":"uint256","indexed":false,"internalType":"uint256"},{"name":"_hashLock","type":"bytes32","indexed":false,"internalType":"bytes32"},{"name":"_timeLock","type":"uint256","indexed":false,"internalType":"uint256"}],"anonymous":false},{"type":"event","name":"BridgeTransferRefunded","inputs":[{"name":"_bridgeTransferId","type":"bytes32","indexed":true,"internalType":"bytes32"}],"anonymous":false},{"type":"event","name":"Initialized","inputs":[{"name":"version","type":"uint64","indexed":false,"internalType":"uint64"}],"anonymous":false},{"type":"event","name":"OwnershipTransferred","inputs":[{"name":"previousOwner","type":"address","indexed":true,"internalType":"address"},{"name":"newOwner","type":"address","indexed":true,"internalType":"address"}],"anonymous":false},{"type":"error","name":"BridgeTransferHasBeenCompleted","inputs":[]},{"type":"error","name":"BridgeTransferInvalid","inputs":[]},{"type":"error","name":"BridgeTransferStateNotInitialized","inputs":[]},{"type":"error","name":"InsufficientWethBalance","inputs":[]},{"type":"error","name":"InvalidInitialization","inputs":[]},{"type":"error","name":"InvalidSecret","inputs":[]},{"type":"error","name":"NotInitializing","inputs":[]},{"type":"error","name":"OwnableInvalidOwner","inputs":[{"name":"owner","type":"address","internalType":"address"}]},{"type":"error","name":"OwnableUnauthorizedAccount","inputs":[{"name":"account","type":"address","internalType":"address"}]},{"type":"error","name":"TimeLockExpired","inputs":[]},{"type":"error","name":"TimeLockNotExpired","inputs":[]},{"type":"error","name":"Unauthorized","inputs":[]},{"type":"error","name":"WETHTransferFailed","inputs":[]},{"type":"error","name":"ZeroAddress","inputs":[]},{"type":"error","name":"ZeroAmount","inputs":[]}],"bytecode":{"object":"0x608060405234801561001057600080fd5b50610eaf806100206000396000f3fe6080604052600436106100dc5760003560e01c80638da5cb5b1161007f5780639f8f8799116100595780639f8f879914610249578063b595a92514610269578063e0d9cbc414610280578063f2fde38b146102ef57600080fd5b80638da5cb5b146101d657806393113b5c1461021357806396365d441461023357600080fd5b80633fc8cef3116100bb5780633fc8cef314610161578063485cc9551461018157806357808020146101a1578063715018a6146101c157600080fd5b80621a153e146100e15780631a8849a4146101035780631f92c08e14610129575b600080fd5b3480156100ed57600080fd5b506101016100fc366004610ca6565b61030f565b005b610116610111366004610cc8565b610360565b6040519081526020015b60405180910390f35b34801561013557600080fd5b50600254610149906001600160a01b031681565b6040516001600160a01b039091168152602001610120565b34801561016d57600080fd5b50600354610149906001600160a01b031681565b34801561018d57600080fd5b5061010161019c366004610cf4565b610658565b3480156101ad57600080fd5b506101016101bc366004610d27565b6107ab565b3480156101cd57600080fd5b50610101610910565b3480156101e257600080fd5b507f9016d09d72d40fdae2fd8ceac6b6234c7706214fd39c1cd1e609a0528c199300546001600160a01b0316610149565b34801561021f57600080fd5b5061010161022e366004610d40565b610924565b34801561023f57600080fd5b5061011660015481565b34801561025557600080fd5b50610101610264366004610d6a565b610a20565b34801561027557600080fd5b506101166202a30081565b34801561028c57600080fd5b506102dd61029b366004610d27565b60006020819052908152604090208054600182015460028301546003840154600485015460059095015493946001600160a01b03909316939192909160ff1686565b60405161012096959493929190610da2565b3480156102fb57600080fd5b5061010161030a366004610ca6565b610b19565b610317610b5c565b6001600160a01b03811661033e5760405163d92e233d60e01b815260040160405180910390fd5b600280546001600160a01b0319166001600160a01b0392909216919091179055565b600033348261036f8288610e12565b90508060000361039257604051631f2a200560e01b815260040160405180910390fd5b811561040257600360009054906101000a90046001600160a01b03166001600160a01b031663d0e30db0836040518263ffffffff1660e01b81526004016000604051808303818588803b1580156103e857600080fd5b505af11580156103fc573d6000803e3d6000fd5b50505050505b86156104a2576003546040516323b872dd60e01b81526001600160a01b038581166004830152306024830152604482018a9052909116906323b872dd906064016020604051808303816000875af1158015610461573d6000803e3d6000fd5b505050506040513d601f19601f820116820180604052508101906104859190610e2b565b6104a257604051630dd0c8f760e41b815260040160405180910390fd5b80600160008282546104b49190610e12565b9091555050600480548491889188916202a30091429160006104d583610e4d565b9091555060405160609690961b6bffffffffffffffffffffffff19166020870152603486019490945260548501929092526074840152609483015260b482015260d4016040516020818303038152906040528051906020012093506040518060c00160405280828152602001846001600160a01b031681526020018781526020018681526020016202a3004261056b9190610e12565b8152600060209182018190528681528082526040908190208351815591830151600180840180546001600160a01b0319166001600160a01b039093169290921790915590830151600280840191909155606084015160038401556080840151600484015560a08401516005840180549193909260ff199092169184908111156105f6576105f6610d8c565b02179055505060408051838152602081018890526202a3008183015290518892506001600160a01b0386169187917f44e287be4fbd3a2dcc143a376301094fd2f809dcc2a8d3c09d0a0715224766c49181900360600190a45050509392505050565b7ff0c57e16840df040f15088dc2f81fe391c3923bec73e23a9662efc9c229c6a008054600160401b810460ff16159067ffffffffffffffff1660008115801561069e5750825b905060008267ffffffffffffffff1660011480156106bb5750303b155b9050811580156106c9575080155b156106e75760405163f92ee8a960e01b815260040160405180910390fd5b845467ffffffffffffffff19166001178555831561071157845460ff60401b1916600160401b1785555b6001600160a01b0387166107385760405163d92e233d60e01b815260040160405180910390fd5b600380546001600160a01b0319166001600160a01b03891617905561075c86610bb7565b83156107a257845460ff60401b19168555604051600181527fc7f505b2f371ae2175ee4913f4499e1f2633a7b5936321eed1cdaeb6115181d29060200160405180910390a15b50505050505050565b6107b3610b5c565b600081815260208190526040812090600582015460ff1660028111156107db576107db610d8c565b146107f957604051630ffb9dcb60e01b815260040160405180910390fd5b806004015442101561081e5760405163191f4d1b60e31b815260040160405180910390fd5b60058101805460ff19166002179055805460018054600090610841908490610e66565b90915550506003546001820154825460405163a9059cbb60e01b81526001600160a01b039283166004820152602481019190915291169063a9059cbb906044016020604051808303816000875af11580156108a0573d6000803e3d6000fd5b505050506040513d601f19601f820116820180604052508101906108c49190610e2b565b6108e157604051630dd0c8f760e41b815260040160405180910390fd5b60405182907f4fee0a65c921e50a9623c3abe10a4067e49c03ef491e7b406dace7cb79c12c6190600090a25050565b610918610b5c565b6109226000610bc8565b565b6002546001600160a01b0316331461094e576040516282b42960e81b815260040160405180910390fd5b806001541015610971576040516318fb0fc360e11b815260040160405180910390fd5b80600160008282546109839190610e66565b909155505060035460405163a9059cbb60e01b81526001600160a01b038481166004830152602482018490529091169063a9059cbb906044016020604051808303816000875af11580156109db573d6000803e3d6000fd5b505050506040513d601f19601f820116820180604052508101906109ff9190610e2b565b610a1c57604051630dd0c8f760e41b815260040160405180910390fd5b5050565b600082815260208190526040812090600582015460ff166002811115610a4857610a48610d8c565b14610a6657604051630437880960e41b815260040160405180910390fd5b60038101546040805160208101859052016040516020818303038152906040528051906020012014610aab5760405163abab6bd760e01b815260040160405180910390fd5b8060040154421115610ad05760405163179a39d160e01b815260040160405180910390fd5b60058101805460ff1916600117905560405182815283907f05ddc886acde01b77731bfad1dcfb6abf529f05c28ea66556fe87429bb2789ea9060200160405180910390a2505050565b610b21610b5c565b6001600160a01b038116610b5057604051631e4fbdf760e01b8152600060048201526024015b60405180910390fd5b610b5981610bc8565b50565b33610b8e7f9016d09d72d40fdae2fd8ceac6b6234c7706214fd39c1cd1e609a0528c199300546001600160a01b031690565b6001600160a01b0316146109225760405163118cdaa760e01b8152336004820152602401610b47565b610bbf610c39565b610b5981610c82565b7f9016d09d72d40fdae2fd8ceac6b6234c7706214fd39c1cd1e609a0528c19930080546001600160a01b031981166001600160a01b03848116918217845560405192169182907f8be0079c531659141344cd1fd0a4f28419497f9722a3daafe3b4186f6b6457e090600090a3505050565b7ff0c57e16840df040f15088dc2f81fe391c3923bec73e23a9662efc9c229c6a0054600160401b900460ff1661092257604051631afcd79f60e31b815260040160405180910390fd5b610b21610c39565b80356001600160a01b0381168114610ca157600080fd5b919050565b600060208284031215610cb857600080fd5b610cc182610c8a565b9392505050565b600080600060608486031215610cdd57600080fd5b505081359360208301359350604090920135919050565b60008060408385031215610d0757600080fd5b610d1083610c8a565b9150610d1e60208401610c8a565b90509250929050565b600060208284031215610d3957600080fd5b5035919050565b60008060408385031215610d5357600080fd5b610d5c83610c8a565b946020939093013593505050565b60008060408385031215610d7d57600080fd5b50508035926020909101359150565b634e487b7160e01b600052602160045260246000fd5b8681526001600160a01b038616602082015260408101859052606081018490526080810183905260c0810160038310610deb57634e487b7160e01b600052602160045260246000fd5b8260a0830152979650505050505050565b634e487b7160e01b600052601160045260246000fd5b80820180821115610e2557610e25610dfc565b92915050565b600060208284031215610e3d57600080fd5b81518015158114610cc157600080fd5b600060018201610e5f57610e5f610dfc565b5060010190565b81810381811115610e2557610e25610dfc56fea2646970667358221220884ecb048e08f4bd1ed1b518e5dd0c58c5fbab402cfefa2b6fa86be9938363d364736f6c63430008170033","linkReferences":{}},"methodIdentifiers":{"INITIATOR_TIME_LOCK_DURATION()":"b595a925","bridgeTransfers(bytes32)":"e0d9cbc4","completeBridgeTransfer(bytes32,bytes32)":"9f8f8799","counterpartyAddress()":"1f92c08e","initialize(address,address)":"485cc955","initiateBridgeTransfer(uint256,bytes32,bytes32)":"1a8849a4","owner()":"8da5cb5b","poolBalance()":"96365d44","refundBridgeTransfer(bytes32)":"57808020","renounceOwnership()":"715018a6","setCounterpartyAddress(address)":"001a153e","transferOwnership(address)":"f2fde38b","weth()":"3fc8cef3","withdrawWETH(address,uint256)":"93113b5c"},"id":39}