{"abi":[{"type":"function","name":"bridgeTransfers","inputs":[{"name":"","type":"bytes32","internalType":"bytes32"}],"outputs":[{"name":"amount","type":"uint256","internalType":"uint256"},{"name":"originator","type":"address","internalType":"address"},{"name":"recipient","type":"bytes32","internalType":"bytes32"},{"name":"hashLock","type":"bytes32","internalType":"bytes32"},{"name":"timeLock","type":"uint256","internalType":"uint256"},{"name":"state","type":"uint8","internalType":"enum AtomicBridgeInitiator.MessageState"}],"stateMutability":"view"},{"type":"function","name":"completeBridgeTransfer","inputs":[{"name":"bridgeTransferId","type":"bytes32","internalType":"bytes32"},{"name":"preImage","type":"bytes32","internalType":"bytes32"}],"outputs":[],"stateMutability":"nonpayable"},{"type":"function","name":"initialize","inputs":[{"name":"_weth","type":"address","internalType":"address"}],"outputs":[],"stateMutability":"nonpayable"},{"type":"function","name":"initiateBridgeTransfer","inputs":[{"name":"wethAmount","type":"uint256","internalType":"uint256"},{"name":"recipient","type":"bytes32","internalType":"bytes32"},{"name":"hashLock","type":"bytes32","internalType":"bytes32"},{"name":"timeLock","type":"uint256","internalType":"uint256"}],"outputs":[{"name":"bridgeTransferId","type":"bytes32","internalType":"bytes32"}],"stateMutability":"payable"},{"type":"function","name":"refundBridgeTransfer","inputs":[{"name":"bridgeTransferId","type":"bytes32","internalType":"bytes32"}],"outputs":[],"stateMutability":"nonpayable"},{"type":"function","name":"weth","inputs":[],"outputs":[{"name":"","type":"address","internalType":"contract IWETH9"}],"stateMutability":"view"},{"type":"event","name":"BridgeTransferCompleted","inputs":[{"name":"_bridgeTransferId","type":"bytes32","indexed":true,"internalType":"bytes32"},{"name":"pre_image","type":"bytes32","indexed":false,"internalType":"bytes32"}],"anonymous":false},{"type":"event","name":"BridgeTransferInitiated","inputs":[{"name":"_bridgeTransferId","type":"bytes32","indexed":true,"internalType":"bytes32"},{"name":"_originator","type":"address","indexed":true,"internalType":"address"},{"name":"_recipient","type":"bytes32","indexed":true,"internalType":"bytes32"},{"name":"amount","type":"uint256","indexed":false,"internalType":"uint256"},{"name":"_hashLock","type":"bytes32","indexed":false,"internalType":"bytes32"},{"name":"_timeLock","type":"uint256","indexed":false,"internalType":"uint256"}],"anonymous":false},{"type":"event","name":"BridgeTransferRefunded","inputs":[{"name":"_bridgeTransferId","type":"bytes32","indexed":true,"internalType":"bytes32"}],"anonymous":false},{"type":"event","name":"Initialized","inputs":[{"name":"version","type":"uint64","indexed":false,"internalType":"uint64"}],"anonymous":false},{"type":"error","name":"BridgeTransferHasBeenCompleted","inputs":[]},{"type":"error","name":"BridgeTransferInvalid","inputs":[]},{"type":"error","name":"BridgeTransferStateNotInitialized","inputs":[]},{"type":"error","name":"InvalidInitialization","inputs":[]},{"type":"error","name":"InvalidSecret","inputs":[]},{"type":"error","name":"NotInitializing","inputs":[]},{"type":"error","name":"TimeLockNotExpired","inputs":[]},{"type":"error","name":"TimelockExpired","inputs":[]},{"type":"error","name":"Unauthorized","inputs":[]},{"type":"error","name":"WETHTransferFailed","inputs":[]},{"type":"error","name":"ZeroAddress","inputs":[]},{"type":"error","name":"ZeroAmount","inputs":[]}],"bytecode":{"object":"0x608060405234801561001057600080fd5b50610995806100206000396000f3fe6080604052600436106100555760003560e01c80633fc8cef31461005a57806357808020146100975780639dfcaebe146100b95780639f8f8799146100da578063c4d66de8146100fa578063e0d9cbc41461011a575b600080fd5b34801561006657600080fd5b5060015461007a906001600160a01b031681565b6040516001600160a01b0390911681526020015b60405180910390f35b3480156100a357600080fd5b506100b76100b23660046107e8565b610189565b005b6100cc6100c7366004610801565b6102cd565b60405190815260200161008e565b3480156100e657600080fd5b506100b76100f5366004610833565b6105a6565b34801561010657600080fd5b506100b7610115366004610855565b61069f565b34801561012657600080fd5b506101776101353660046107e8565b60006020819052908152604090208054600182015460028301546003840154600485015460059095015493946001600160a01b03909316939192909160ff1686565b60405161008e9695949392919061089b565b600081815260208190526040812090600582015460ff1660028111156101b1576101b1610885565b146101cf57604051630ffb9dcb60e01b815260040160405180910390fd5b80600401544210156101f45760405163191f4d1b60e31b815260040160405180910390fd5b60058101805460ff191660021790558054600180549083015460405163a9059cbb60e01b81526001600160a01b0391821660048201526024810184905291169063a9059cbb906044016020604051808303816000875af115801561025c573d6000803e3d6000fd5b505050506040513d601f19601f8201168201806040525081019061028091906108f5565b61029d57604051630dd0c8f760e41b815260040160405180910390fd5b60405183907f4fee0a65c921e50a9623c3abe10a4067e49c03ef491e7b406dace7cb79c12c6190600090a2505050565b60003334826102dc828961092d565b9050806000036102ff57604051631f2a200560e01b815260040160405180910390fd5b811561036f57600160009054906101000a90046001600160a01b03166001600160a01b031663d0e30db0836040518263ffffffff1660e01b81526004016000604051808303818588803b15801561035557600080fd5b505af1158015610369573d6000803e3d6000fd5b50505050505b871561040f576001546040516323b872dd60e01b81526001600160a01b038581166004830152306024830152604482018b9052909116906323b872dd906064016020604051808303816000875af11580156103ce573d6000803e3d6000fd5b505050506040513d601f19601f820116820180604052508101906103f291906108f5565b61040f57604051630dd0c8f760e41b815260040160405180910390fd5b6002805490600061041f83610946565b90915550506002546040516bffffffffffffffffffffffff19606086901b16602082015260348101899052605481018890526074810187905242609482015260b481019190915260d4016040516020818303038152906040528051906020012093506040518060c00160405280828152602001846001600160a01b0316815260200188815260200187815260200186436104b9919061092d565b8152600060209182018190528681528082526040908190208351815591830151600180840180546001600160a01b0319166001600160a01b039093169290921790915590830151600280840191909155606084015160038401556080840151600484015560a08401516005840180549193909260ff1990921691849081111561054457610544610885565b02179055505060408051838152602081018990529081018790528891506001600160a01b0385169086907f44e287be4fbd3a2dcc143a376301094fd2f809dcc2a8d3c09d0a0715224766c49060600160405180910390a4505050949350505050565b600082815260208190526040812090600582015460ff1660028111156105ce576105ce610885565b146105ec57604051630437880960e41b815260040160405180910390fd5b600381015460408051602081018590520160405160208183030381529060405280519060200120146106315760405163abab6bd760e01b815260040160405180910390fd5b806004015443111561065657604051633d37e55360e11b815260040160405180910390fd5b60058101805460ff1916600117905560405182815283907f05ddc886acde01b77731bfad1dcfb6abf529f05c28ea66556fe87429bb2789ea9060200160405180910390a2505050565b7ff0c57e16840df040f15088dc2f81fe391c3923bec73e23a9662efc9c229c6a008054600160401b810460ff16159067ffffffffffffffff166000811580156106e55750825b905060008267ffffffffffffffff1660011480156107025750303b155b905081158015610710575080155b1561072e5760405163f92ee8a960e01b815260040160405180910390fd5b845467ffffffffffffffff19166001178555831561075857845460ff60401b1916600160401b1785555b6001600160a01b03861661077f5760405163d92e233d60e01b815260040160405180910390fd5b600180546001600160a01b0319166001600160a01b03881617905583156107e057845460ff60401b19168555604051600181527fc7f505b2f371ae2175ee4913f4499e1f2633a7b5936321eed1cdaeb6115181d29060200160405180910390a15b505050505050565b6000602082840312156107fa57600080fd5b5035919050565b6000806000806080858703121561081757600080fd5b5050823594602084013594506040840135936060013592509050565b6000806040838503121561084657600080fd5b50508035926020909101359150565b60006020828403121561086757600080fd5b81356001600160a01b038116811461087e57600080fd5b9392505050565b634e487b7160e01b600052602160045260246000fd5b8681526001600160a01b038616602082015260408101859052606081018490526080810183905260c08101600383106108e457634e487b7160e01b600052602160045260246000fd5b8260a0830152979650505050505050565b60006020828403121561090757600080fd5b8151801515811461087e57600080fd5b634e487b7160e01b600052601160045260246000fd5b8082018082111561094057610940610917565b92915050565b60006001820161095857610958610917565b506001019056fea2646970667358221220365a2f62062693c248071a2a4d469baeb8f60f78c80ad75dea82b6021b563bfe64736f6c63430008170033","linkReferences":{}},"methodIdentifiers":{"bridgeTransfers(bytes32)":"e0d9cbc4","completeBridgeTransfer(bytes32,bytes32)":"9f8f8799","initialize(address)":"c4d66de8","initiateBridgeTransfer(uint256,bytes32,bytes32,uint256)":"9dfcaebe","refundBridgeTransfer(bytes32)":"57808020","weth()":"3fc8cef3"},"id":36}