{"abi":[{"type":"function","name":"COUNTERPARTY_TIME_LOCK_DURATION","inputs":[],"outputs":[{"name":"","type":"uint256","internalType":"uint256"}],"stateMutability":"view"},{"type":"function","name":"abortBridgeTransfer","inputs":[{"name":"bridgeTransferId","type":"bytes32","internalType":"bytes32"}],"outputs":[],"stateMutability":"nonpayable"},{"type":"function","name":"atomicBridgeInitiator","inputs":[],"outputs":[{"name":"","type":"address","internalType":"contract AtomicBridgeInitiator"}],"stateMutability":"view"},{"type":"function","name":"bridgeTransfers","inputs":[{"name":"","type":"bytes32","internalType":"bytes32"}],"outputs":[{"name":"originator","type":"bytes32","internalType":"bytes32"},{"name":"recipient","type":"address","internalType":"address"},{"name":"amount","type":"uint256","internalType":"uint256"},{"name":"hashLock","type":"bytes32","internalType":"bytes32"},{"name":"timeLock","type":"uint256","internalType":"uint256"},{"name":"state","type":"uint8","internalType":"enum AtomicBridgeCounterparty.MessageState"}],"stateMutability":"view"},{"type":"function","name":"completeBridgeTransfer","inputs":[{"name":"bridgeTransferId","type":"bytes32","internalType":"bytes32"},{"name":"preImage","type":"bytes32","internalType":"bytes32"}],"outputs":[],"stateMutability":"nonpayable"},{"type":"function","name":"initialize","inputs":[{"name":"_atomicBridgeInitiator","type":"address","internalType":"address"},{"name":"owner","type":"address","internalType":"address"}],"outputs":[],"stateMutability":"nonpayable"},{"type":"function","name":"lockBridgeTransfer","inputs":[{"name":"originator","type":"bytes32","internalType":"bytes32"},{"name":"bridgeTransferId","type":"bytes32","internalType":"bytes32"},{"name":"hashLock","type":"bytes32","internalType":"bytes32"},{"name":"recipient","type":"address","internalType":"address"},{"name":"amount","type":"uint256","internalType":"uint256"}],"outputs":[{"name":"","type":"bool","internalType":"bool"}],"stateMutability":"nonpayable"},{"type":"function","name":"owner","inputs":[],"outputs":[{"name":"","type":"address","internalType":"address"}],"stateMutability":"view"},{"type":"function","name":"renounceOwnership","inputs":[],"outputs":[],"stateMutability":"nonpayable"},{"type":"function","name":"setAtomicBridgeInitiator","inputs":[{"name":"_atomicBridgeInitiator","type":"address","internalType":"address"}],"outputs":[],"stateMutability":"nonpayable"},{"type":"function","name":"transferOwnership","inputs":[{"name":"newOwner","type":"address","internalType":"address"}],"outputs":[],"stateMutability":"nonpayable"},{"type":"event","name":"BridgeTransferAborted","inputs":[{"name":"bridgeTransferId","type":"bytes32","indexed":true,"internalType":"bytes32"}],"anonymous":false},{"type":"event","name":"BridgeTransferCompleted","inputs":[{"name":"bridgeTransferId","type":"bytes32","indexed":true,"internalType":"bytes32"},{"name":"pre_image","type":"bytes32","indexed":false,"internalType":"bytes32"}],"anonymous":false},{"type":"event","name":"BridgeTransferLocked","inputs":[{"name":"bridgeTransferId","type":"bytes32","indexed":true,"internalType":"bytes32"},{"name":"recipient","type":"address","indexed":true,"internalType":"address"},{"name":"amount","type":"uint256","indexed":false,"internalType":"uint256"},{"name":"hashLock","type":"bytes32","indexed":false,"internalType":"bytes32"},{"name":"timeLock","type":"uint256","indexed":false,"internalType":"uint256"}],"anonymous":false},{"type":"event","name":"Initialized","inputs":[{"name":"version","type":"uint64","indexed":false,"internalType":"uint64"}],"anonymous":false},{"type":"event","name":"OwnershipTransferred","inputs":[{"name":"previousOwner","type":"address","indexed":true,"internalType":"address"},{"name":"newOwner","type":"address","indexed":true,"internalType":"address"}],"anonymous":false},{"type":"error","name":"BridgeTransferHasBeenCompleted","inputs":[]},{"type":"error","name":"BridgeTransferInvalid","inputs":[]},{"type":"error","name":"BridgeTransferStateNotInitialized","inputs":[]},{"type":"error","name":"BridgeTransferStateNotPending","inputs":[]},{"type":"error","name":"InsufficientWethBalance","inputs":[]},{"type":"error","name":"InvalidInitialization","inputs":[]},{"type":"error","name":"InvalidSecret","inputs":[]},{"type":"error","name":"NotInitializing","inputs":[]},{"type":"error","name":"OwnableInvalidOwner","inputs":[{"name":"owner","type":"address","internalType":"address"}]},{"type":"error","name":"OwnableUnauthorizedAccount","inputs":[{"name":"account","type":"address","internalType":"address"}]},{"type":"error","name":"TimeLockExpired","inputs":[]},{"type":"error","name":"TimeLockNotExpired","inputs":[]},{"type":"error","name":"Unauthorized","inputs":[]},{"type":"error","name":"WETHTransferFailed","inputs":[]},{"type":"error","name":"ZeroAddress","inputs":[]},{"type":"error","name":"ZeroAmount","inputs":[]}],"bytecode":{"object":"0x608060405234801561001057600080fd5b50610b35806100206000396000f3fe608060405234801561001057600080fd5b50600436106100a95760003560e01c80639f8f8799116100715780639f8f87991461014a578063c95b659f1461015d578063cfc01dca14610170578063e0d9cbc414610188578063ee2c59f8146101eb578063f2fde38b146101fe57600080fd5b806327b3ea07146100ae578063485cc955146100d6578063715018a6146100eb5780637ce08748146100f35780638da5cb5b14610106575b600080fd5b6100c16100bc366004610978565b610211565b60405190151581526020015b60405180910390f35b6100e96100e43660046109bf565b610406565b005b6100e9610559565b6100e96101013660046109f2565b61056d565b7f9016d09d72d40fdae2fd8ceac6b6234c7706214fd39c1cd1e609a0528c199300546001600160a01b03165b6040516001600160a01b0390911681526020016100cd565b6100e9610158366004610a14565b6105be565b6100e961016b366004610a36565b61073b565b61017a6201518081565b6040519081526020016100cd565b6101d9610196366004610a36565b60016020819052600091825260409091208054918101546002820154600383015460048401546005909401546001600160a01b0390931693919290919060ff1686565b6040516100cd96959493929190610a65565b600054610132906001600160a01b031681565b6100e961020c3660046109f2565b6107eb565b600061021b61082e565b8160000361023c57604051631f2a200560e01b815260040160405180910390fd5b6000546040805163258d975160e21b8152905184926001600160a01b0316916396365d449160048083019260209291908290030181865afa158015610285573d6000803e3d6000fd5b505050506040513d601f19601f820116820180604052508101906102a99190610abf565b10156102c8576040516318fb0fc360e11b815260040160405180910390fd5b60006102d76201518042610ad8565b90506040518060c00160405280888152602001856001600160a01b031681526020018481526020018681526020018281526020016000600281111561031e5761031e610a4f565b9052600087815260016020818152604092839020845181559084015181830180546001600160a01b0319166001600160a01b0390921691909117905591830151600280840191909155606084015160038401556080840151600484015560a08401516005840180549193909260ff199092169184908111156103a2576103a2610a4f565b0217905550506040805185815260208101889052620151808183015290516001600160a01b038716925088917fa03230f5967404ba170c5be8445486911e87267000597e4ba9ed9d4b014fa4bd919081900360600190a35060019695505050505050565b7ff0c57e16840df040f15088dc2f81fe391c3923bec73e23a9662efc9c229c6a008054600160401b810460ff16159067ffffffffffffffff1660008115801561044c5750825b905060008267ffffffffffffffff1660011480156104695750303b155b905081158015610477575080155b156104955760405163f92ee8a960e01b815260040160405180910390fd5b845467ffffffffffffffff1916600117855583156104bf57845460ff60401b1916600160401b1785555b6001600160a01b0387166104e65760405163d92e233d60e01b815260040160405180910390fd5b600080546001600160a01b0319166001600160a01b03891617905561050a86610889565b831561055057845460ff60401b19168555604051600181527fc7f505b2f371ae2175ee4913f4499e1f2633a7b5936321eed1cdaeb6115181d29060200160405180910390a15b50505050505050565b61056161082e565b61056b600061089a565b565b61057561082e565b6001600160a01b03811661059c5760405163d92e233d60e01b815260040160405180910390fd5b600080546001600160a01b0319166001600160a01b0392909216919091179055565b600082815260016020526040812090600582015460ff1660028111156105e6576105e6610a4f565b146106045760405163a92c04c760e01b815260040160405180910390fd5b60008260405160200161061991815260200190565b604051602081830303815290604052805190602001209050816003015481146106555760405163abab6bd760e01b815260040160405180910390fd5b816004015442111561067a5760405163179a39d160e01b815260040160405180910390fd5b60058201805460ff191660019081179091556000549083015460028401546040516324c44ed760e21b81526001600160a01b03928316600482015260248101919091529116906393113b5c90604401600060405180830381600087803b1580156106e357600080fd5b505af11580156106f7573d6000803e3d6000fd5b50505050837f05ddc886acde01b77731bfad1dcfb6abf529f05c28ea66556fe87429bb2789ea8460405161072d91815260200190565b60405180910390a250505050565b61074361082e565b600081815260016020526040812090600582015460ff16600281111561076b5761076b610a4f565b146107895760405163a92c04c760e01b815260040160405180910390fd5b806004015442116107ad5760405163191f4d1b60e31b815260040160405180910390fd5b60058101805460ff1916600217905560405182907f9b398e0a546c4aa218ac0b98f5e2196a7aff605b50c19eb795f9cb3b2f5d5b5590600090a25050565b6107f361082e565b6001600160a01b03811661082257604051631e4fbdf760e01b8152600060048201526024015b60405180910390fd5b61082b8161089a565b50565b336108607f9016d09d72d40fdae2fd8ceac6b6234c7706214fd39c1cd1e609a0528c199300546001600160a01b031690565b6001600160a01b03161461056b5760405163118cdaa760e01b8152336004820152602401610819565b61089161090b565b61082b81610954565b7f9016d09d72d40fdae2fd8ceac6b6234c7706214fd39c1cd1e609a0528c19930080546001600160a01b031981166001600160a01b03848116918217845560405192169182907f8be0079c531659141344cd1fd0a4f28419497f9722a3daafe3b4186f6b6457e090600090a3505050565b7ff0c57e16840df040f15088dc2f81fe391c3923bec73e23a9662efc9c229c6a0054600160401b900460ff1661056b57604051631afcd79f60e31b815260040160405180910390fd5b6107f361090b565b80356001600160a01b038116811461097357600080fd5b919050565b600080600080600060a0868803121561099057600080fd5b8535945060208601359350604086013592506109ae6060870161095c565b949793965091946080013592915050565b600080604083850312156109d257600080fd5b6109db8361095c565b91506109e96020840161095c565b90509250929050565b600060208284031215610a0457600080fd5b610a0d8261095c565b9392505050565b60008060408385031215610a2757600080fd5b50508035926020909101359150565b600060208284031215610a4857600080fd5b5035919050565b634e487b7160e01b600052602160045260246000fd5b8681526001600160a01b038616602082015260408101859052606081018490526080810183905260c0810160038310610aae57634e487b7160e01b600052602160045260246000fd5b8260a0830152979650505050505050565b600060208284031215610ad157600080fd5b5051919050565b80820180821115610af957634e487b7160e01b600052601160045260246000fd5b9291505056fea2646970667358221220eb53e32a690657a5d7a9d7ff4afa2c6b63fd30a709af792ec2086945561495f464736f6c63430008170033","linkReferences":{}},"methodIdentifiers":{"COUNTERPARTY_TIME_LOCK_DURATION()":"cfc01dca","abortBridgeTransfer(bytes32)":"c95b659f","atomicBridgeInitiator()":"ee2c59f8","bridgeTransfers(bytes32)":"e0d9cbc4","completeBridgeTransfer(bytes32,bytes32)":"9f8f8799","initialize(address,address)":"485cc955","lockBridgeTransfer(bytes32,bytes32,bytes32,address,uint256)":"27b3ea07","owner()":"8da5cb5b","renounceOwnership()":"715018a6","setAtomicBridgeInitiator(address)":"7ce08748","transferOwnership(address)":"f2fde38b"},"id":38}