{"abi":[{"type":"function","name":"abortBridgeTransfer","inputs":[{"name":"bridgeTransferId","type":"bytes32","internalType":"bytes32"}],"outputs":[],"stateMutability":"nonpayable"},{"type":"function","name":"atomicBridgeInitiator","inputs":[],"outputs":[{"name":"","type":"address","internalType":"contract AtomicBridgeInitiator"}],"stateMutability":"view"},{"type":"function","name":"bridgeTransfers","inputs":[{"name":"","type":"bytes32","internalType":"bytes32"}],"outputs":[{"name":"initiator","type":"bytes32","internalType":"bytes32"},{"name":"recipient","type":"address","internalType":"address"},{"name":"amount","type":"uint256","internalType":"uint256"},{"name":"hashLock","type":"bytes32","internalType":"bytes32"},{"name":"timeLock","type":"uint256","internalType":"uint256"},{"name":"state","type":"uint8","internalType":"enum AtomicBridgeCounterparty.MessageState"}],"stateMutability":"view"},{"type":"function","name":"completeBridgeTransfer","inputs":[{"name":"bridgeTransferId","type":"bytes32","internalType":"bytes32"},{"name":"preImage","type":"bytes32","internalType":"bytes32"}],"outputs":[],"stateMutability":"nonpayable"},{"type":"function","name":"initialize","inputs":[{"name":"_atomicBridgeInitiator","type":"address","internalType":"address"},{"name":"owner","type":"address","internalType":"address"}],"outputs":[],"stateMutability":"nonpayable"},{"type":"function","name":"lockBridgeTransfer","inputs":[{"name":"initiator","type":"bytes32","internalType":"bytes32"},{"name":"bridgeTransferId","type":"bytes32","internalType":"bytes32"},{"name":"hashLock","type":"bytes32","internalType":"bytes32"},{"name":"timeLock","type":"uint256","internalType":"uint256"},{"name":"recipient","type":"address","internalType":"address"},{"name":"amount","type":"uint256","internalType":"uint256"}],"outputs":[{"name":"","type":"bool","internalType":"bool"}],"stateMutability":"nonpayable"},{"type":"function","name":"owner","inputs":[],"outputs":[{"name":"","type":"address","internalType":"address"}],"stateMutability":"view"},{"type":"function","name":"renounceOwnership","inputs":[],"outputs":[],"stateMutability":"nonpayable"},{"type":"function","name":"setAtomicBridgeInitiator","inputs":[{"name":"_atomicBridgeInitiator","type":"address","internalType":"address"}],"outputs":[],"stateMutability":"nonpayable"},{"type":"function","name":"transferOwnership","inputs":[{"name":"newOwner","type":"address","internalType":"address"}],"outputs":[],"stateMutability":"nonpayable"},{"type":"event","name":"BridgeTransferAborted","inputs":[{"name":"bridgeTransferId","type":"bytes32","indexed":true,"internalType":"bytes32"}],"anonymous":false},{"type":"event","name":"BridgeTransferAssetsLocked","inputs":[{"name":"bridgeTransferId","type":"bytes32","indexed":true,"internalType":"bytes32"},{"name":"recipient","type":"address","indexed":true,"internalType":"address"},{"name":"amount","type":"uint256","indexed":false,"internalType":"uint256"},{"name":"hashLock","type":"bytes32","indexed":false,"internalType":"bytes32"},{"name":"timeLock","type":"uint256","indexed":false,"internalType":"uint256"}],"anonymous":false},{"type":"event","name":"BridgeTransferCompleted","inputs":[{"name":"bridgeTransferId","type":"bytes32","indexed":true,"internalType":"bytes32"},{"name":"pre_image","type":"bytes32","indexed":false,"internalType":"bytes32"}],"anonymous":false},{"type":"event","name":"Initialized","inputs":[{"name":"version","type":"uint64","indexed":false,"internalType":"uint64"}],"anonymous":false},{"type":"event","name":"OwnershipTransferred","inputs":[{"name":"previousOwner","type":"address","indexed":true,"internalType":"address"},{"name":"newOwner","type":"address","indexed":true,"internalType":"address"}],"anonymous":false},{"type":"error","name":"BridgeTransferHasBeenCompleted","inputs":[]},{"type":"error","name":"BridgeTransferInvalid","inputs":[]},{"type":"error","name":"BridgeTransferStateNotInitialized","inputs":[]},{"type":"error","name":"BridgeTransferStateNotPending","inputs":[]},{"type":"error","name":"InsufficientWethBalance","inputs":[]},{"type":"error","name":"InvalidInitialization","inputs":[]},{"type":"error","name":"InvalidSecret","inputs":[]},{"type":"error","name":"NotInitializing","inputs":[]},{"type":"error","name":"OwnableInvalidOwner","inputs":[{"name":"owner","type":"address","internalType":"address"}]},{"type":"error","name":"OwnableUnauthorizedAccount","inputs":[{"name":"account","type":"address","internalType":"address"}]},{"type":"error","name":"TimeLockNotExpired","inputs":[]},{"type":"error","name":"Unauthorized","inputs":[]},{"type":"error","name":"WETHTransferFailed","inputs":[]},{"type":"error","name":"ZeroAddress","inputs":[]},{"type":"error","name":"ZeroAmount","inputs":[]}],"bytecode":{"object":"0x608060405234801561001057600080fd5b50610afb806100206000396000f3fe608060405234801561001057600080fd5b506004361061009e5760003560e01c80639f8f8799116100665780639f8f87991461013f578063c95b659f14610152578063e0d9cbc414610165578063ee2c59f8146101c8578063f2fde38b146101db57600080fd5b806319c2773c146100a3578063485cc955146100cb578063715018a6146100e05780637ce08748146100e85780638da5cb5b146100fb575b600080fd5b6100b66100b1366004610934565b6101ee565b60405190151581526020015b60405180910390f35b6100de6100d9366004610985565b6103ca565b005b6100de61051d565b6100de6100f63660046109b8565b610531565b7f9016d09d72d40fdae2fd8ceac6b6234c7706214fd39c1cd1e609a0528c199300546001600160a01b03165b6040516001600160a01b0390911681526020016100c2565b6100de61014d3660046109da565b610582565b6100de6101603660046109fc565b6106ff565b6101b66101733660046109fc565b60016020819052600091825260409091208054918101546002820154600383015460048401546005909401546001600160a01b0390931693919290919060ff1686565b6040516100c296959493929190610a2b565b600054610127906001600160a01b031681565b6100de6101e93660046109b8565b6107a7565b60006101f86107ea565b8160000361021957604051631f2a200560e01b815260040160405180910390fd5b6000546040805163258d975160e21b8152905184926001600160a01b0316916396365d449160048083019260209291908290030181865afa158015610262573d6000803e3d6000fd5b505050506040513d601f19601f820116820180604052508101906102869190610a85565b10156102a5576040516318fb0fc360e11b815260040160405180910390fd5b6040518060c00160405280888152602001846001600160a01b0316815260200183815260200186815260200185436102dd9190610a9e565b815260200160009052600087815260016020818152604092839020845181559084015181830180546001600160a01b0319166001600160a01b0390921691909117905591830151600280840191909155606084015160038401556080840151600484015560a08401516005840180549193909260ff1990921691849081111561036857610368610a15565b02179055505060408051848152602081018890529081018690526001600160a01b038516915087907f26dceadaa27b16c0e72e1a1e28407c443bbf7e978ce2964ff7ad88fc4ee7ca2a9060600160405180910390a35060019695505050505050565b7ff0c57e16840df040f15088dc2f81fe391c3923bec73e23a9662efc9c229c6a008054600160401b810460ff16159067ffffffffffffffff166000811580156104105750825b905060008267ffffffffffffffff16600114801561042d5750303b155b90508115801561043b575080155b156104595760405163f92ee8a960e01b815260040160405180910390fd5b845467ffffffffffffffff19166001178555831561048357845460ff60401b1916600160401b1785555b6001600160a01b0387166104aa5760405163d92e233d60e01b815260040160405180910390fd5b600080546001600160a01b0319166001600160a01b0389161790556104ce86610845565b831561051457845460ff60401b19168555604051600181527fc7f505b2f371ae2175ee4913f4499e1f2633a7b5936321eed1cdaeb6115181d29060200160405180910390a15b50505050505050565b6105256107ea565b61052f6000610856565b565b6105396107ea565b6001600160a01b0381166105605760405163d92e233d60e01b815260040160405180910390fd5b600080546001600160a01b0319166001600160a01b0392909216919091179055565b600082815260016020526040812090600582015460ff1660028111156105aa576105aa610a15565b146105c85760405163a92c04c760e01b815260040160405180910390fd5b6000826040516020016105dd91815260200190565b604051602081830303815290604052805190602001209050816003015481146106195760405163abab6bd760e01b815260040160405180910390fd5b816004015443111561063e5760405163191f4d1b60e31b815260040160405180910390fd5b60058201805460ff191660019081179091556000549083015460028401546040516324c44ed760e21b81526001600160a01b03928316600482015260248101919091529116906393113b5c90604401600060405180830381600087803b1580156106a757600080fd5b505af11580156106bb573d6000803e3d6000fd5b50505050837f05ddc886acde01b77731bfad1dcfb6abf529f05c28ea66556fe87429bb2789ea846040516106f191815260200190565b60405180910390a250505050565b600081815260016020526040812090600582015460ff16600281111561072757610727610a15565b146107455760405163a92c04c760e01b815260040160405180910390fd5b806004015443116107695760405163191f4d1b60e31b815260040160405180910390fd5b60058101805460ff1916600217905560405182907f9b398e0a546c4aa218ac0b98f5e2196a7aff605b50c19eb795f9cb3b2f5d5b5590600090a25050565b6107af6107ea565b6001600160a01b0381166107de57604051631e4fbdf760e01b8152600060048201526024015b60405180910390fd5b6107e781610856565b50565b3361081c7f9016d09d72d40fdae2fd8ceac6b6234c7706214fd39c1cd1e609a0528c199300546001600160a01b031690565b6001600160a01b03161461052f5760405163118cdaa760e01b81523360048201526024016107d5565b61084d6108c7565b6107e781610910565b7f9016d09d72d40fdae2fd8ceac6b6234c7706214fd39c1cd1e609a0528c19930080546001600160a01b031981166001600160a01b03848116918217845560405192169182907f8be0079c531659141344cd1fd0a4f28419497f9722a3daafe3b4186f6b6457e090600090a3505050565b7ff0c57e16840df040f15088dc2f81fe391c3923bec73e23a9662efc9c229c6a0054600160401b900460ff1661052f57604051631afcd79f60e31b815260040160405180910390fd5b6107af6108c7565b80356001600160a01b038116811461092f57600080fd5b919050565b60008060008060008060c0878903121561094d57600080fd5b8635955060208701359450604087013593506060870135925061097260808801610918565b915060a087013590509295509295509295565b6000806040838503121561099857600080fd5b6109a183610918565b91506109af60208401610918565b90509250929050565b6000602082840312156109ca57600080fd5b6109d382610918565b9392505050565b600080604083850312156109ed57600080fd5b50508035926020909101359150565b600060208284031215610a0e57600080fd5b5035919050565b634e487b7160e01b600052602160045260246000fd5b8681526001600160a01b038616602082015260408101859052606081018490526080810183905260c0810160038310610a7457634e487b7160e01b600052602160045260246000fd5b8260a0830152979650505050505050565b600060208284031215610a9757600080fd5b5051919050565b80820180821115610abf57634e487b7160e01b600052601160045260246000fd5b9291505056fea26469706673582212202d8c4bdb6abc432cf7bc54698dd557b14d42e348aa805a37342a8d0810b0446564736f6c63430008170033","linkReferences":{}},"methodIdentifiers":{"abortBridgeTransfer(bytes32)":"c95b659f","atomicBridgeInitiator()":"ee2c59f8","bridgeTransfers(bytes32)":"e0d9cbc4","completeBridgeTransfer(bytes32,bytes32)":"9f8f8799","initialize(address,address)":"485cc955","lockBridgeTransfer(bytes32,bytes32,bytes32,uint256,address,uint256)":"19c2773c","owner()":"8da5cb5b","renounceOwnership()":"715018a6","setAtomicBridgeInitiator(address)":"7ce08748","transferOwnership(address)":"f2fde38b"},"id":38}