{"abi":[{"type":"function","name":"onERC1155BatchReceived","inputs":[{"name":"","type":"address","internalType":"address"},{"name":"","type":"address","internalType":"address"},{"name":"","type":"uint256[]","internalType":"uint256[]"},{"name":"","type":"uint256[]","internalType":"uint256[]"},{"name":"","type":"bytes","internalType":"bytes"}],"outputs":[{"name":"","type":"bytes4","internalType":"bytes4"}],"stateMutability":"pure"},{"type":"function","name":"onERC1155Received","inputs":[{"name":"","type":"address","internalType":"address"},{"name":"","type":"address","internalType":"address"},{"name":"","type":"uint256","internalType":"uint256"},{"name":"","type":"uint256","internalType":"uint256"},{"name":"","type":"bytes","internalType":"bytes"}],"outputs":[{"name":"","type":"bytes4","internalType":"bytes4"}],"stateMutability":"pure"},{"type":"function","name":"onERC721Received","inputs":[{"name":"","type":"address","internalType":"address"},{"name":"","type":"address","internalType":"address"},{"name":"","type":"uint256","internalType":"uint256"},{"name":"","type":"bytes","internalType":"bytes"}],"outputs":[{"name":"","type":"bytes4","internalType":"bytes4"}],"stateMutability":"pure"},{"type":"function","name":"supportsInterface","inputs":[{"name":"interfaceId","type":"bytes4","internalType":"bytes4"}],"outputs":[{"name":"","type":"bool","internalType":"bool"}],"stateMutability":"view"},{"type":"function","name":"tokensReceived","inputs":[{"name":"","type":"address","internalType":"address"},{"name":"","type":"address","internalType":"address"},{"name":"","type":"address","internalType":"address"},{"name":"","type":"uint256","internalType":"uint256"},{"name":"","type":"bytes","internalType":"bytes"},{"name":"","type":"bytes","internalType":"bytes"}],"outputs":[],"stateMutability":"pure"}],"bytecode":{"object":"0x6080604052348015600e575f80fd5b5061048f8061001c5f395ff3fe608060405234801561000f575f80fd5b5060043610610054575f3560e01c806223de291461005857806301ffc9a714610072578063150b7a021461009a578063bc197c81146100d2578063f23a6e61146100f4575b5f80fd5b6100706100663660046101c5565b5050505050505050565b005b61008561008036600461026e565b610114565b60405190151581526020015b60405180910390f35b6100b96100a836600461029c565b630a85bd0160e11b95945050505050565b6040516001600160e01b03199091168152602001610091565b6100b96100e0366004610347565b63bc197c8160e01b98975050505050505050565b6100b96101023660046103e6565b63f23a6e6160e01b9695505050505050565b5f6001600160e01b03198216630271189760e51b148061014457506001600160e01b03198216630a85bd0160e11b145b8061015f57506001600160e01b031982166301ffc9a760e01b145b92915050565b80356001600160a01b038116811461017b575f80fd5b919050565b5f8083601f840112610190575f80fd5b50813567ffffffffffffffff8111156101a7575f80fd5b6020830191508360208285010111156101be575f80fd5b9250929050565b5f805f805f805f8060c0898b0312156101dc575f80fd5b6101e589610165565b97506101f360208a01610165565b965061020160408a01610165565b955060608901359450608089013567ffffffffffffffff811115610223575f80fd5b61022f8b828c01610180565b90955093505060a089013567ffffffffffffffff81111561024e575f80fd5b61025a8b828c01610180565b999c989b5096995094979396929594505050565b5f6020828403121561027e575f80fd5b81356001600160e01b031981168114610295575f80fd5b9392505050565b5f805f805f608086880312156102b0575f80fd5b6102b986610165565b94506102c760208701610165565b935060408601359250606086013567ffffffffffffffff8111156102e9575f80fd5b6102f588828901610180565b969995985093965092949392505050565b5f8083601f840112610316575f80fd5b50813567ffffffffffffffff81111561032d575f80fd5b6020830191508360208260051b85010111156101be575f80fd5b5f805f805f805f8060a0898b03121561035e575f80fd5b61036789610165565b975061037560208a01610165565b9650604089013567ffffffffffffffff811115610390575f80fd5b61039c8b828c01610306565b909750955050606089013567ffffffffffffffff8111156103bb575f80fd5b6103c78b828c01610306565b909550935050608089013567ffffffffffffffff81111561024e575f80fd5b5f805f805f8060a087890312156103fb575f80fd5b61040487610165565b955061041260208801610165565b94506040870135935060608701359250608087013567ffffffffffffffff81111561043b575f80fd5b61044789828a01610180565b979a969950949750929593949250505056fea2646970667358221220415ae1062471c0e076cfd397e7602baaabc736d682630c687b5170003ad3546864736f6c634300081a0033","linkReferences":{}},"methodIdentifiers":{"onERC1155BatchReceived(address,address,uint256[],uint256[],bytes)":"bc197c81","onERC1155Received(address,address,uint256,uint256,bytes)":"f23a6e61","onERC721Received(address,address,uint256,bytes)":"150b7a02","supportsInterface(bytes4)":"01ffc9a7","tokensReceived(address,address,address,uint256,bytes,bytes)":"0023de29"},"storageLayout":{"storage":[],"types":{}},"id":82}