{"abi":[{"type":"function","name":"DEFAULT_ADMIN_ROLE","inputs":[],"outputs":[{"name":"","type":"bytes32","internalType":"bytes32"}],"stateMutability":"view"},{"type":"function","name":"MINTER_ADMIN_ROLE","inputs":[],"outputs":[{"name":"","type":"bytes32","internalType":"bytes32"}],"stateMutability":"view"},{"type":"function","name":"MINTER_ROLE","inputs":[],"outputs":[{"name":"","type":"bytes32","internalType":"bytes32"}],"stateMutability":"view"},{"type":"function","name":"UPGRADE_INTERFACE_VERSION","inputs":[],"outputs":[{"name":"","type":"string","internalType":"string"}],"stateMutability":"view"},{"type":"function","name":"allowance","inputs":[{"name":"owner","type":"address","internalType":"address"},{"name":"spender","type":"address","internalType":"address"}],"outputs":[{"name":"","type":"uint256","internalType":"uint256"}],"stateMutability":"view"},{"type":"function","name":"approve","inputs":[{"name":"spender","type":"address","internalType":"address"},{"name":"value","type":"uint256","internalType":"uint256"}],"outputs":[{"name":"","type":"bool","internalType":"bool"}],"stateMutability":"nonpayable"},{"type":"function","name":"balanceOf","inputs":[{"name":"account","type":"address","internalType":"address"}],"outputs":[{"name":"","type":"uint256","internalType":"uint256"}],"stateMutability":"view"},{"type":"function","name":"decimals","inputs":[],"outputs":[{"name":"","type":"uint8","internalType":"uint8"}],"stateMutability":"view"},{"type":"function","name":"getRoleAdmin","inputs":[{"name":"role","type":"bytes32","internalType":"bytes32"}],"outputs":[{"name":"","type":"bytes32","internalType":"bytes32"}],"stateMutability":"view"},{"type":"function","name":"grantMinterRole","inputs":[{"name":"account","type":"address","internalType":"address"}],"outputs":[],"stateMutability":"nonpayable"},{"type":"function","name":"grantRole","inputs":[{"name":"role","type":"bytes32","internalType":"bytes32"},{"name":"account","type":"address","internalType":"address"}],"outputs":[],"stateMutability":"nonpayable"},{"type":"function","name":"hasMinterRole","inputs":[{"name":"account","type":"address","internalType":"address"}],"outputs":[{"name":"","type":"bool","internalType":"bool"}],"stateMutability":"view"},{"type":"function","name":"hasRole","inputs":[{"name":"role","type":"bytes32","internalType":"bytes32"},{"name":"account","type":"address","internalType":"address"}],"outputs":[{"name":"","type":"bool","internalType":"bool"}],"stateMutability":"view"},{"type":"function","name":"initialize","inputs":[{"name":"name","type":"string","internalType":"string"},{"name":"symbol","type":"string","internalType":"string"}],"outputs":[],"stateMutability":"nonpayable"},{"type":"function","name":"mint","inputs":[{"name":"to","type":"address","internalType":"address"},{"name":"amount","type":"uint256","internalType":"uint256"}],"outputs":[],"stateMutability":"nonpayable"},{"type":"function","name":"name","inputs":[],"outputs":[{"name":"","type":"string","internalType":"string"}],"stateMutability":"view"},{"type":"function","name":"proxiableUUID","inputs":[],"outputs":[{"name":"","type":"bytes32","internalType":"bytes32"}],"stateMutability":"view"},{"type":"function","name":"renounceRole","inputs":[{"name":"role","type":"bytes32","internalType":"bytes32"},{"name":"callerConfirmation","type":"address","internalType":"address"}],"outputs":[],"stateMutability":"nonpayable"},{"type":"function","name":"revokeMinterAdminRole","inputs":[{"name":"account","type":"address","internalType":"address"}],"outputs":[],"stateMutability":"nonpayable"},{"type":"function","name":"revokeMinterRole","inputs":[{"name":"account","type":"address","internalType":"address"}],"outputs":[],"stateMutability":"nonpayable"},{"type":"function","name":"revokeRole","inputs":[{"name":"role","type":"bytes32","internalType":"bytes32"},{"name":"account","type":"address","internalType":"address"}],"outputs":[],"stateMutability":"nonpayable"},{"type":"function","name":"supportsInterface","inputs":[{"name":"interfaceId","type":"bytes4","internalType":"bytes4"}],"outputs":[{"name":"","type":"bool","internalType":"bool"}],"stateMutability":"view"},{"type":"function","name":"symbol","inputs":[],"outputs":[{"name":"","type":"string","internalType":"string"}],"stateMutability":"view"},{"type":"function","name":"totalSupply","inputs":[],"outputs":[{"name":"","type":"uint256","internalType":"uint256"}],"stateMutability":"view"},{"type":"function","name":"transfer","inputs":[{"name":"to","type":"address","internalType":"address"},{"name":"value","type":"uint256","internalType":"uint256"}],"outputs":[{"name":"","type":"bool","internalType":"bool"}],"stateMutability":"nonpayable"},{"type":"function","name":"transferFrom","inputs":[{"name":"from","type":"address","internalType":"address"},{"name":"to","type":"address","internalType":"address"},{"name":"value","type":"uint256","internalType":"uint256"}],"outputs":[{"name":"","type":"bool","internalType":"bool"}],"stateMutability":"nonpayable"},{"type":"function","name":"upgradeToAndCall","inputs":[{"name":"newImplementation","type":"address","internalType":"address"},{"name":"data","type":"bytes","internalType":"bytes"}],"outputs":[],"stateMutability":"payable"},{"type":"event","name":"Approval","inputs":[{"name":"owner","type":"address","indexed":true,"internalType":"address"},{"name":"spender","type":"address","indexed":true,"internalType":"address"},{"name":"value","type":"uint256","indexed":false,"internalType":"uint256"}],"anonymous":false},{"type":"event","name":"Initialized","inputs":[{"name":"version","type":"uint64","indexed":false,"internalType":"uint64"}],"anonymous":false},{"type":"event","name":"RoleAdminChanged","inputs":[{"name":"role","type":"bytes32","indexed":true,"internalType":"bytes32"},{"name":"previousAdminRole","type":"bytes32","indexed":true,"internalType":"bytes32"},{"name":"newAdminRole","type":"bytes32","indexed":true,"internalType":"bytes32"}],"anonymous":false},{"type":"event","name":"RoleGranted","inputs":[{"name":"role","type":"bytes32","indexed":true,"internalType":"bytes32"},{"name":"account","type":"address","indexed":true,"internalType":"address"},{"name":"sender","type":"address","indexed":true,"internalType":"address"}],"anonymous":false},{"type":"event","name":"RoleRevoked","inputs":[{"name":"role","type":"bytes32","indexed":true,"internalType":"bytes32"},{"name":"account","type":"address","indexed":true,"internalType":"address"},{"name":"sender","type":"address","indexed":true,"internalType":"address"}],"anonymous":false},{"type":"event","name":"Transfer","inputs":[{"name":"from","type":"address","indexed":true,"internalType":"address"},{"name":"to","type":"address","indexed":true,"internalType":"address"},{"name":"value","type":"uint256","indexed":false,"internalType":"uint256"}],"anonymous":false},{"type":"event","name":"Upgraded","inputs":[{"name":"implementation","type":"address","indexed":true,"internalType":"address"}],"anonymous":false},{"type":"error","name":"AccessControlBadConfirmation","inputs":[]},{"type":"error","name":"AccessControlUnauthorizedAccount","inputs":[{"name":"account","type":"address","internalType":"address"},{"name":"neededRole","type":"bytes32","internalType":"bytes32"}]},{"type":"error","name":"AddressEmptyCode","inputs":[{"name":"target","type":"address","internalType":"address"}]},{"type":"error","name":"ERC1967InvalidImplementation","inputs":[{"name":"implementation","type":"address","internalType":"address"}]},{"type":"error","name":"ERC1967NonPayable","inputs":[]},{"type":"error","name":"ERC20InsufficientAllowance","inputs":[{"name":"spender","type":"address","internalType":"address"},{"name":"allowance","type":"uint256","internalType":"uint256"},{"name":"needed","type":"uint256","internalType":"uint256"}]},{"type":"error","name":"ERC20InsufficientBalance","inputs":[{"name":"sender","type":"address","internalType":"address"},{"name":"balance","type":"uint256","internalType":"uint256"},{"name":"needed","type":"uint256","internalType":"uint256"}]},{"type":"error","name":"ERC20InvalidApprover","inputs":[{"name":"approver","type":"address","internalType":"address"}]},{"type":"error","name":"ERC20InvalidReceiver","inputs":[{"name":"receiver","type":"address","internalType":"address"}]},{"type":"error","name":"ERC20InvalidSender","inputs":[{"name":"sender","type":"address","internalType":"address"}]},{"type":"error","name":"ERC20InvalidSpender","inputs":[{"name":"spender","type":"address","internalType":"address"}]},{"type":"error","name":"FailedInnerCall","inputs":[]},{"type":"error","name":"InvalidInitialization","inputs":[]},{"type":"error","name":"NotInitializing","inputs":[]},{"type":"error","name":"UUPSUnauthorizedCallContext","inputs":[]},{"type":"error","name":"UUPSUnsupportedProxiableUUID","inputs":[{"name":"slot","type":"bytes32","internalType":"bytes32"}]}],"bytecode":{"object":"0x60a0604052306080523480156012575f80fd5b506080516117d46100395f395f8181610c0e01528181610c370152610d7a01526117d45ff3fe608060405260043610610195575f3560e01c80634cd88b76116100e7578063964c1aed11610087578063ad3cb1cc11610062578063ad3cb1cc1461048d578063d5391393146104bd578063d547741f146104dd578063dd62ed3e146104fc575f80fd5b8063964c1aed1461043c578063a217fddf1461045b578063a9059cbb1461046e575f80fd5b806369e2f0fb116100c257806369e2f0fb146103aa57806370a08231146103c957806391d148541461040957806395d89b4114610428575f80fd5b80634cd88b76146103645780634f1ef2861461038357806352d1902d14610396575f80fd5b806323b872dd11610152578063313ce5671161012d578063313ce567146102ec57806336568abe146103075780633dd1eb611461032657806340c10f1914610345575f80fd5b806323b872dd1461028d578063248a9ca3146102ac5780632f2ff15d146102cb575f80fd5b806301ffc9a71461019957806306fdde03146101cd578063095ea7b3146101ee578063099db0171461020d5780631339324b1461022c57806318160ddd1461025a575b5f80fd5b3480156101a4575f80fd5b506101b86101b33660046112be565b61051b565b60405190151581526020015b60405180910390f35b3480156101d8575f80fd5b506101e1610551565b6040516101c491906112e5565b3480156101f9575f80fd5b506101b8610208366004611335565b610611565b348015610218575f80fd5b506101b861022736600461135d565b610628565b348015610237575f80fd5b5061024c5f8051602061171f83398151915281565b6040519081526020016101c4565b348015610265575f80fd5b507f52c63247e1f47db19d5ce0460030c497f067ca4cebf71ba98eeadabe20bace025461024c565b348015610298575f80fd5b506101b86102a7366004611376565b610640565b3480156102b7575f80fd5b5061024c6102c63660046113b0565b610665565b3480156102d6575f80fd5b506102ea6102e53660046113c7565b610685565b005b3480156102f7575f80fd5b50604051601281526020016101c4565b348015610312575f80fd5b506102ea6103213660046113c7565b6106a7565b348015610331575f80fd5b506102ea61034036600461135d565b6106df565b348015610350575f80fd5b506102ea61035f366004611335565b61070d565b34801561036f575f80fd5b506102ea61037e36600461149a565b61072e565b6102ea6103913660046114ff565b61083e565b3480156103a1575f80fd5b5061024c61085d565b3480156103b5575f80fd5b506102ea6103c436600461135d565b610878565b3480156103d4575f80fd5b5061024c6103e336600461135d565b6001600160a01b03165f9081525f805160206116ff833981519152602052604090205490565b348015610414575f80fd5b506101b86104233660046113c7565b6108a6565b348015610433575f80fd5b506101e16108dc565b348015610447575f80fd5b506102ea61045636600461135d565b61091a565b348015610466575f80fd5b5061024c5f81565b348015610479575f80fd5b506101b8610488366004611335565b610948565b348015610498575f80fd5b506101e1604051806040016040528060058152602001640352e302e360dc1b81525081565b3480156104c8575f80fd5b5061024c5f8051602061175f83398151915281565b3480156104e8575f80fd5b506102ea6104f73660046113c7565b610955565b348015610507575f80fd5b5061024c610516366004611553565b610971565b5f6001600160e01b03198216637965db0b60e01b148061054b57506301ffc9a760e01b6001600160e01b03198316145b92915050565b7f52c63247e1f47db19d5ce0460030c497f067ca4cebf71ba98eeadabe20bace0380546060915f805160206116ff8339815191529161058f9061157b565b80601f01602080910402602001604051908101604052809291908181526020018280546105bb9061157b565b80156106065780601f106105dd57610100808354040283529160200191610606565b820191905f5260205f20905b8154815290600101906020018083116105e957829003601f168201915b505050505091505090565b5f3361061e8185856109ba565b5060019392505050565b5f61054b5f8051602061175f833981519152836108a6565b5f3361064d8582856109c7565b610658858585610a29565b60019150505b9392505050565b5f9081525f8051602061177f833981519152602052604090206001015490565b61068e82610665565b61069781610a86565b6106a18383610a93565b50505050565b6001600160a01b03811633146106d05760405163334bd91960e11b815260040160405180910390fd5b6106da8282610b34565b505050565b5f8051602061171f8339815191526106f681610a86565b6106da5f8051602061175f83398151915283610a93565b5f8051602061175f83398151915261072481610a86565b6106da8383610bad565b7ff0c57e16840df040f15088dc2f81fe391c3923bec73e23a9662efc9c229c6a008054600160401b810460ff16159067ffffffffffffffff165f811580156107735750825b90505f8267ffffffffffffffff16600114801561078f5750303b155b90508115801561079d575080155b156107bb5760405163f92ee8a960e01b815260040160405180910390fd5b845467ffffffffffffffff1916600117855583156107e557845460ff60401b1916600160401b1785555b6107ef8787610be1565b831561083557845460ff60401b19168555604051600181527fc7f505b2f371ae2175ee4913f4499e1f2633a7b5936321eed1cdaeb6115181d29060200160405180910390a15b50505050505050565b610846610c03565b61084f82610ca9565b6108598282610cb3565b5050565b5f610866610d6f565b505f8051602061173f83398151915290565b5f8051602061171f83398151915261088f81610a86565b6106da5f8051602061175f83398151915283610b34565b5f9182525f8051602061177f833981519152602090815260408084206001600160a01b0393909316845291905290205460ff1690565b7f52c63247e1f47db19d5ce0460030c497f067ca4cebf71ba98eeadabe20bace0480546060915f805160206116ff8339815191529161058f9061157b565b5f8051602061171f83398151915261093181610a86565b6106da5f8051602061171f83398151915283610b34565b5f3361061e818585610a29565b61095e82610665565b61096781610a86565b6106a18383610b34565b6001600160a01b039182165f9081527f52c63247e1f47db19d5ce0460030c497f067ca4cebf71ba98eeadabe20bace016020908152604080832093909416825291909152205490565b6106da8383836001610db8565b5f6109d28484610971565b90505f1981146106a15781811015610a1b57604051637dc7a0d960e11b81526001600160a01b038416600482015260248101829052604481018390526064015b60405180910390fd5b6106a184848484035f610db8565b6001600160a01b038316610a5257604051634b637e8f60e11b81525f6004820152602401610a12565b6001600160a01b038216610a7b5760405163ec442f0560e01b81525f6004820152602401610a12565b6106da838383610e9c565b610a908133610fd5565b50565b5f5f8051602061177f833981519152610aac84846108a6565b610b2b575f848152602082815260408083206001600160a01b03871684529091529020805460ff19166001179055610ae13390565b6001600160a01b0316836001600160a01b0316857f2f8788117e7eff1d82e926ec794901d17c78024a50270940304540a733656f0d60405160405180910390a4600191505061054b565b5f91505061054b565b5f5f8051602061177f833981519152610b4d84846108a6565b15610b2b575f848152602082815260408083206001600160a01b0387168085529252808320805460ff1916905551339287917ff6391f5c32d9c69d2a47ea670b442974b53935d1edc7fd64eb21e047a839171b9190a4600191505061054b565b6001600160a01b038216610bd65760405163ec442f0560e01b81525f6004820152602401610a12565b6108595f8383610e9c565b610be961100e565b610bf38282611057565b610bfb6110a7565b6108596110b9565b306001600160a01b037f0000000000000000000000000000000000000000000000000000000000000000161480610c8957507f00000000000000000000000000000000000000000000000000000000000000006001600160a01b0316610c7d5f8051602061173f833981519152546001600160a01b031690565b6001600160a01b031614155b15610ca75760405163703e46dd60e11b815260040160405180910390fd5b565b5f61085981610a86565b816001600160a01b03166352d1902d6040518163ffffffff1660e01b8152600401602060405180830381865afa925050508015610d0d575060408051601f3d908101601f19168201909252610d0a918101906115b3565b60015b610d3557604051634c9c8ce360e01b81526001600160a01b0383166004820152602401610a12565b5f8051602061173f8339815191528114610d6557604051632a87526960e21b815260048101829052602401610a12565b6106da83836110f0565b306001600160a01b037f00000000000000000000000000000000000000000000000000000000000000001614610ca75760405163703e46dd60e11b815260040160405180910390fd5b5f805160206116ff8339815191526001600160a01b038516610def5760405163e602df0560e01b81525f6004820152602401610a12565b6001600160a01b038416610e1857604051634a1406b160e11b81525f6004820152602401610a12565b6001600160a01b038086165f90815260018301602090815260408083209388168352929052208390558115610e9557836001600160a01b0316856001600160a01b03167f8c5be1e5ebec7d5bd14f71427d1e84f3dd0314c0f7b2291e5b200ac8c7c3b92585604051610e8c91815260200190565b60405180910390a35b5050505050565b5f805160206116ff8339815191526001600160a01b038416610ed65781816002015f828254610ecb91906115ca565b90915550610f469050565b6001600160a01b0384165f9081526020829052604090205482811015610f285760405163391434e360e21b81526001600160a01b03861660048201526024810182905260448101849052606401610a12565b6001600160a01b0385165f9081526020839052604090209083900390555b6001600160a01b038316610f64576002810180548390039055610f82565b6001600160a01b0383165f9081526020829052604090208054830190555b826001600160a01b0316846001600160a01b03167fddf252ad1be2c89b69c2b068fc378daa952ba7f163c4a11628f55a4df523b3ef84604051610fc791815260200190565b60405180910390a350505050565b610fdf82826108a6565b6108595760405163e2517d3f60e01b81526001600160a01b038216600482015260248101839052604401610a12565b7ff0c57e16840df040f15088dc2f81fe391c3923bec73e23a9662efc9c229c6a0054600160401b900460ff16610ca757604051631afcd79f60e31b815260040160405180910390fd5b61105f61100e565b5f805160206116ff8339815191527f52c63247e1f47db19d5ce0460030c497f067ca4cebf71ba98eeadabe20bace03611098848261162d565b50600481016106a1838261162d565b6110af61100e565b610a905f33610a93565b6110c161100e565b6110d85f8051602061171f83398151915233610a93565b50610a905f8051602061175f83398151915233610a93565b6110f982611145565b6040516001600160a01b038316907fbc7cd75a20ee27fd9adebab32041f755214dbc6bffa90cc0225b39da2e5c2d3b905f90a280511561113d576106da82826111a8565b61085961121a565b806001600160a01b03163b5f0361117a57604051634c9c8ce360e01b81526001600160a01b0382166004820152602401610a12565b5f8051602061173f83398151915280546001600160a01b0319166001600160a01b0392909216919091179055565b60605f80846001600160a01b0316846040516111c491906116e8565b5f60405180830381855af49150503d805f81146111fc576040519150601f19603f3d011682016040523d82523d5f602084013e611201565b606091505b5091509150611211858383611239565b95945050505050565b3415610ca75760405163b398979f60e01b815260040160405180910390fd5b60608261124e5761124982611295565b61065e565b815115801561126557506001600160a01b0384163b155b1561128e57604051639996b31560e01b81526001600160a01b0385166004820152602401610a12565b508061065e565b8051156112a55780518082602001fd5b604051630a12f52160e11b815260040160405180910390fd5b5f602082840312156112ce575f80fd5b81356001600160e01b03198116811461065e575f80fd5b602081525f82518060208401528060208501604085015e5f604082850101526040601f19601f83011684010191505092915050565b80356001600160a01b0381168114611330575f80fd5b919050565b5f8060408385031215611346575f80fd5b61134f8361131a565b946020939093013593505050565b5f6020828403121561136d575f80fd5b61065e8261131a565b5f805f60608486031215611388575f80fd5b6113918461131a565b925061139f6020850161131a565b929592945050506040919091013590565b5f602082840312156113c0575f80fd5b5035919050565b5f80604083850312156113d8575f80fd5b823591506113e86020840161131a565b90509250929050565b634e487b7160e01b5f52604160045260245ffd5b5f8067ffffffffffffffff84111561141f5761141f6113f1565b50604051601f19601f85018116603f0116810181811067ffffffffffffffff8211171561144e5761144e6113f1565b604052838152905080828401851015611465575f80fd5b838360208301375f60208583010152509392505050565b5f82601f83011261148b575f80fd5b61065e83833560208501611405565b5f80604083850312156114ab575f80fd5b823567ffffffffffffffff8111156114c1575f80fd5b6114cd8582860161147c565b925050602083013567ffffffffffffffff8111156114e9575f80fd5b6114f58582860161147c565b9150509250929050565b5f8060408385031215611510575f80fd5b6115198361131a565b9150602083013567ffffffffffffffff811115611534575f80fd5b8301601f81018513611544575f80fd5b6114f585823560208401611405565b5f8060408385031215611564575f80fd5b61156d8361131a565b91506113e86020840161131a565b600181811c9082168061158f57607f821691505b6020821081036115ad57634e487b7160e01b5f52602260045260245ffd5b50919050565b5f602082840312156115c3575f80fd5b5051919050565b8082018082111561054b57634e487b7160e01b5f52601160045260245ffd5b601f8211156106da57805f5260205f20601f840160051c8101602085101561160e5750805b601f840160051c820191505b81811015610e95575f815560010161161a565b815167ffffffffffffffff811115611647576116476113f1565b61165b81611655845461157b565b846115e9565b6020601f82116001811461168d575f83156116765750848201515b5f19600385901b1c1916600184901b178455610e95565b5f84815260208120601f198516915b828110156116bc578785015182556020948501946001909201910161169c565b50848210156116d957868401515f19600387901b60f8161c191681555b50505050600190811b01905550565b5f82518060208501845e5f92019182525091905056fe52c63247e1f47db19d5ce0460030c497f067ca4cebf71ba98eeadabe20bace0070480ee89cb38eff00b7d23da25713d52ce19c6ed428691d22c58b2f615e3d67360894a13ba1a3210667c828492db98dca3e2076cc3735a920a3ca505d382bbc9f2df0fed2c77648de5860a4cc508cd0818c85b8b8a1ab4ceeef8d981c8956a602dd7bc7dec4dceedda775e58dd541e08a116c6c53815c0bd028192f7b626800a26469706673582212200324f42c1705f554ef7832b397c745cd7fdc6fd98ad7137f4e9ba1890c13fb2764736f6c634300081a0033","linkReferences":{}},"methodIdentifiers":{"DEFAULT_ADMIN_ROLE()":"a217fddf","MINTER_ADMIN_ROLE()":"1339324b","MINTER_ROLE()":"d5391393","UPGRADE_INTERFACE_VERSION()":"ad3cb1cc","allowance(address,address)":"dd62ed3e","approve(address,uint256)":"095ea7b3","balanceOf(address)":"70a08231","decimals()":"313ce567","getRoleAdmin(bytes32)":"248a9ca3","grantMinterRole(address)":"3dd1eb61","grantRole(bytes32,address)":"2f2ff15d","hasMinterRole(address)":"099db017","hasRole(bytes32,address)":"91d14854","initialize(string,string)":"4cd88b76","mint(address,uint256)":"40c10f19","name()":"06fdde03","proxiableUUID()":"52d1902d","renounceRole(bytes32,address)":"36568abe","revokeMinterAdminRole(address)":"964c1aed","revokeMinterRole(address)":"69e2f0fb","revokeRole(bytes32,address)":"d547741f","supportsInterface(bytes4)":"01ffc9a7","symbol()":"95d89b41","totalSupply()":"18160ddd","transfer(address,uint256)":"a9059cbb","transferFrom(address,address,uint256)":"23b872dd","upgradeToAndCall(address,bytes)":"4f1ef286"},"storageLayout":{"storage":[],"types":{}},"id":113}