{"abi":[{"type":"constructor","inputs":[{"name":"epochDurationSecs","type":"uint256","internalType":"uint256"},{"name":"_leadingBlockTolerance","type":"uint256","internalType":"uint256"},{"name":"_genesisStakeRequired","type":"uint256","internalType":"uint256"},{"name":"_maxGenesisStakePerValidator","type":"uint256","internalType":"uint256"},{"name":"_lastAcceptedBlockHeight","type":"uint256","internalType":"uint256"}],"stateMutability":"nonpayable"},{"type":"function","name":"acceptedBlocks","inputs":[{"name":"","type":"uint256","internalType":"uint256"}],"outputs":[{"name":"height","type":"uint256","internalType":"uint256"},{"name":"commitment","type":"bytes32","internalType":"bytes32"},{"name":"blockId","type":"bytes32","internalType":"bytes32"}],"stateMutability":"view"},{"type":"function","name":"blockHeightEpochAssignments","inputs":[{"name":"","type":"uint256","internalType":"uint256"}],"outputs":[{"name":"","type":"uint256","internalType":"uint256"}],"stateMutability":"view"},{"type":"function","name":"commitmentStakes","inputs":[{"name":"","type":"uint256","internalType":"uint256"},{"name":"","type":"bytes32","internalType":"bytes32"}],"outputs":[{"name":"","type":"uint256","internalType":"uint256"}],"stateMutability":"view"},{"type":"function","name":"commitments","inputs":[{"name":"","type":"uint256","internalType":"uint256"},{"name":"","type":"address","internalType":"address"}],"outputs":[{"name":"height","type":"uint256","internalType":"uint256"},{"name":"commitment","type":"bytes32","internalType":"bytes32"},{"name":"blockId","type":"bytes32","internalType":"bytes32"}],"stateMutability":"view"},{"type":"function","name":"createBlockCommitment","inputs":[{"name":"height","type":"uint256","internalType":"uint256"},{"name":"commitment","type":"bytes32","internalType":"bytes32"},{"name":"blockId","type":"bytes32","internalType":"bytes32"}],"outputs":[{"name":"","type":"tuple","internalType":"struct MCR.BlockCommitment","components":[{"name":"height","type":"uint256","internalType":"uint256"},{"name":"commitment","type":"bytes32","internalType":"bytes32"},{"name":"blockId","type":"bytes32","internalType":"bytes32"}]}],"stateMutability":"pure"},{"type":"function","name":"currentEpoch","inputs":[],"outputs":[{"name":"","type":"uint256","internalType":"uint256"}],"stateMutability":"view"},{"type":"function","name":"epochDuration","inputs":[],"outputs":[{"name":"","type":"uint256","internalType":"uint256"}],"stateMutability":"view"},{"type":"function","name":"epochStakes","inputs":[{"name":"","type":"uint256","internalType":"uint256"},{"name":"","type":"address","internalType":"address"}],"outputs":[{"name":"","type":"uint256","internalType":"uint256"}],"stateMutability":"view"},{"type":"function","name":"epochTotalStake","inputs":[{"name":"","type":"uint256","internalType":"uint256"}],"outputs":[{"name":"","type":"uint256","internalType":"uint256"}],"stateMutability":"view"},{"type":"function","name":"epochUnstakes","inputs":[{"name":"","type":"uint256","internalType":"uint256"},{"name":"","type":"address","internalType":"address"}],"outputs":[{"name":"","type":"uint256","internalType":"uint256"}],"stateMutability":"view"},{"type":"function","name":"genesisStakeAccumulated","inputs":[],"outputs":[{"name":"","type":"uint256","internalType":"uint256"}],"stateMutability":"view"},{"type":"function","name":"genesisStakeRequired","inputs":[],"outputs":[{"name":"","type":"uint256","internalType":"uint256"}],"stateMutability":"view"},{"type":"function","name":"getAcceptedCommitmentAtBlockHeight","inputs":[{"name":"blockHeight","type":"uint256","internalType":"uint256"}],"outputs":[{"name":"","type":"tuple","internalType":"struct MCR.BlockCommitment","components":[{"name":"height","type":"uint256","internalType":"uint256"},{"name":"commitment","type":"bytes32","internalType":"bytes32"},{"name":"blockId","type":"bytes32","internalType":"bytes32"}]}],"stateMutability":"view"},{"type":"function","name":"getCurrentEpoch","inputs":[],"outputs":[{"name":"","type":"uint256","internalType":"uint256"}],"stateMutability":"view"},{"type":"function","name":"getCurrentEpochStake","inputs":[{"name":"validatorAddress","type":"address","internalType":"address"}],"outputs":[{"name":"","type":"uint256","internalType":"uint256"}],"stateMutability":"view"},{"type":"function","name":"getCurrentEpochUnstake","inputs":[{"name":"validatorAddress","type":"address","internalType":"address"}],"outputs":[{"name":"","type":"uint256","internalType":"uint256"}],"stateMutability":"view"},{"type":"function","name":"getEpochByBlockTime","inputs":[],"outputs":[{"name":"","type":"uint256","internalType":"uint256"}],"stateMutability":"view"},{"type":"function","name":"getMaxTolerableBlockHeight","inputs":[],"outputs":[{"name":"","type":"uint256","internalType":"uint256"}],"stateMutability":"view"},{"type":"function","name":"getNextEpoch","inputs":[],"outputs":[{"name":"","type":"uint256","internalType":"uint256"}],"stateMutability":"view"},{"type":"function","name":"getStakeAtEpoch","inputs":[{"name":"validatorAddress","type":"address","internalType":"address"},{"name":"epoch","type":"uint256","internalType":"uint256"}],"outputs":[{"name":"","type":"uint256","internalType":"uint256"}],"stateMutability":"view"},{"type":"function","name":"getTotalStakeForCurrentEpoch","inputs":[],"outputs":[{"name":"","type":"uint256","internalType":"uint256"}],"stateMutability":"view"},{"type":"function","name":"getTotalStakeForEpoch","inputs":[{"name":"epoch","type":"uint256","internalType":"uint256"}],"outputs":[{"name":"","type":"uint256","internalType":"uint256"}],"stateMutability":"view"},{"type":"function","name":"getUnstakeAtEpoch","inputs":[{"name":"validatorAddress","type":"address","internalType":"address"},{"name":"epoch","type":"uint256","internalType":"uint256"}],"outputs":[{"name":"","type":"uint256","internalType":"uint256"}],"stateMutability":"view"},{"type":"function","name":"getValidatorCommitmentAtBlockHeight","inputs":[{"name":"blockHeight","type":"uint256","internalType":"uint256"},{"name":"validatorAddress","type":"address","internalType":"address"}],"outputs":[{"name":"","type":"tuple","internalType":"struct MCR.BlockCommitment","components":[{"name":"height","type":"uint256","internalType":"uint256"},{"name":"commitment","type":"bytes32","internalType":"bytes32"},{"name":"blockId","type":"bytes32","internalType":"bytes32"}]}],"stateMutability":"view"},{"type":"function","name":"hasGenesisCeremonyEnded","inputs":[],"outputs":[{"name":"","type":"bool","internalType":"bool"}],"stateMutability":"view"},{"type":"function","name":"lastAcceptedBlockHeight","inputs":[],"outputs":[{"name":"","type":"uint256","internalType":"uint256"}],"stateMutability":"view"},{"type":"function","name":"leadingBlockTolerance","inputs":[],"outputs":[{"name":"","type":"uint256","internalType":"uint256"}],"stateMutability":"view"},{"type":"function","name":"maxGenesisStakePerValidator","inputs":[],"outputs":[{"name":"","type":"uint256","internalType":"uint256"}],"stateMutability":"view"},{"type":"function","name":"stake","inputs":[],"outputs":[],"stateMutability":"payable"},{"type":"function","name":"stakeGenesis","inputs":[],"outputs":[],"stateMutability":"payable"},{"type":"function","name":"submitBatchBlockCommitment","inputs":[{"name":"blockCommitments","type":"tuple[]","internalType":"struct MCR.BlockCommitment[]","components":[{"name":"height","type":"uint256","internalType":"uint256"},{"name":"commitment","type":"bytes32","internalType":"bytes32"},{"name":"blockId","type":"bytes32","internalType":"bytes32"}]}],"outputs":[],"stateMutability":"nonpayable"},{"type":"function","name":"submitBlockCommitment","inputs":[{"name":"blockCommitment","type":"tuple","internalType":"struct MCR.BlockCommitment","components":[{"name":"height","type":"uint256","internalType":"uint256"},{"name":"commitment","type":"bytes32","internalType":"bytes32"},{"name":"blockId","type":"bytes32","internalType":"bytes32"}]}],"outputs":[],"stateMutability":"nonpayable"},{"type":"function","name":"unstake","inputs":[{"name":"amount","type":"uint256","internalType":"uint256"}],"outputs":[],"stateMutability":"nonpayable"},{"type":"event","name":"BlockAccepted","inputs":[{"name":"blockHash","type":"bytes32","indexed":true,"internalType":"bytes32"},{"name":"stateCommitment","type":"bytes32","indexed":false,"internalType":"bytes32"}],"anonymous":false},{"type":"event","name":"BlockCommitmentSubmitted","inputs":[{"name":"blockHash","type":"bytes32","indexed":true,"internalType":"bytes32"},{"name":"stateCommitment","type":"bytes32","indexed":false,"internalType":"bytes32"},{"name":"validatorStake","type":"uint256","indexed":false,"internalType":"uint256"}],"anonymous":false},{"type":"event","name":"EpochRolledOver","inputs":[{"name":"epoch","type":"uint256","indexed":false,"internalType":"uint256"},{"name":"totalStake","type":"uint256","indexed":false,"internalType":"uint256"}],"anonymous":false},{"type":"event","name":"ValidatorEpochRolledOver","inputs":[{"name":"validator","type":"address","indexed":true,"internalType":"address"},{"name":"epoch","type":"uint256","indexed":false,"internalType":"uint256"},{"name":"stake","type":"uint256","indexed":false,"internalType":"uint256"},{"name":"unstake","type":"uint256","indexed":false,"internalType":"uint256"}],"anonymous":false},{"type":"event","name":"ValidatorStaked","inputs":[{"name":"validator","type":"address","indexed":true,"internalType":"address"},{"name":"stake","type":"uint256","indexed":false,"internalType":"uint256"},{"name":"epoch","type":"uint256","indexed":false,"internalType":"uint256"}],"anonymous":false},{"type":"event","name":"ValidatorUnstaked","inputs":[{"name":"validator","type":"address","indexed":true,"internalType":"address"},{"name":"stake","type":"uint256","indexed":false,"internalType":"uint256"},{"name":"epoch","type":"uint256","indexed":false,"internalType":"uint256"}],"anonymous":false}],"bytecode":{"object":"0x608060405234801561001057600080fd5b5060405161181838038061181883398101604081905261002f91610051565b6003949094556004929092556000908155600191909155600255600555610091565b600080600080600060a0868803121561006957600080fd5b5050835160208501516040860151606087015160809097015192989197509594509092509050565b611778806100a06000396000f3fe6080604052600436106101ee5760003560e01c806372710d181161010d578063e1ffa44c116100a0578063efe97d051161006f578063efe97d051461067f578063f1a5416b14610694578063f89fe60b146106aa578063f934ed75146106ca578063fc2788ad146106ed57600080fd5b8063e1ffa44c1461056f578063e90d4c06146105d5578063ee377d901461061c578063ee96da051461063157600080fd5b8063b97dd9e2116100dc578063b97dd9e2146104d5578063c76c27bf146104ea578063ce2a96b414610522578063e1b2b2221461054f57600080fd5b806372710d181461045357806374e8e56414610468578063766718081461047d57806384df64551461049357600080fd5b806320e0e445116101855780633ae52727116101545780633ae52727146103da5780634ff0876a1461040757806367d144ab1461041d5780636b588ac71461043d57600080fd5b806320e0e4451461037b5780632e17de78146103a8578063365f490b146103ca5780633a4b66f1146103d257600080fd5b8063108cf69b116101c1578063108cf69b146102b657806311fe3345146102ee5780631c4e4e271461030e5780631cfa25161461036557600080fd5b8063048317c8146101f3578063056f4aa61461021c5780630a0b81cc146102325780630dd5636614610274575b600080fd5b3480156101ff57600080fd5b5061020960005481565b6040519081526020015b60405180910390f35b34801561022857600080fd5b5061020960025481565b34801561023e57600080fd5b5061025261024d366004611470565b610725565b6040805182518152602080840151908201529181015190820152606001610213565b34801561028057600080fd5b5061020961028f36600461149c565b60009081526009602090815260408083206001600160a01b03949094168352929052205490565b3480156102c257600080fd5b506102096102d1366004611470565b600960209081526000928352604080842090915290825290205481565b3480156102fa57600080fd5b506102096103093660046114c6565b610789565b34801561031a57600080fd5b5061034a6103293660046114e1565b600f6020526000908152604090208054600182015460029092015490919083565b60408051938452602084019290925290820152606001610213565b34801561037157600080fd5b5061020960045481565b34801561038757600080fd5b506102096103963660046114e1565b600c6020526000908152604090205481565b3480156103b457600080fd5b506103c86103c33660046114e1565b610798565b005b6103c86108fa565b6103c8610b7e565b3480156103e657600080fd5b506102096103f53660046114e1565b600b6020526000908152604090205481565b34801561041357600080fd5b5061020960035481565b34801561042957600080fd5b506102096104383660046114c6565b610c76565b34801561044957600080fd5b5061020960055481565b34801561045f57600080fd5b50610209610c85565b34801561047457600080fd5b50610209610c98565b34801561048957600080fd5b5061020960065481565b34801561049f57600080fd5b506102096104ae36600461149c565b6000908152600a602090815260408083206001600160a01b03949094168352929052205490565b3480156104e157600080fd5b50600654610209565b3480156104f657600080fd5b50610209610505366004611470565b600a60209081526000928352604080842090915290825290205481565b34801561052e57600080fd5b5061020961053d3660046114e1565b6000908152600b602052604090205490565b34801561055b57600080fd5b506103c861056a36600461159d565b610caa565b34801561057b57600080fd5b5061025261058a3660046114e1565b604080516060808201835260008083526020808401829052928401819052938452600f8252928290208251938401835280548452600181015491840191909152600201549082015290565b3480156105e157600080fd5b5061034a6105f0366004611470565b600d60209081526000928352604080842090915290825290208054600182015460029092015490919083565b34801561062857600080fd5b50610209610ce4565b34801561063d57600080fd5b5061025261064c36600461164d565b60408051606080820183526000808352602080840182905292840152825190810183529485528401929092529082015290565b34801561068b57600080fd5b50610209610cf4565b3480156106a057600080fd5b5061020960015481565b3480156106b657600080fd5b506103c86106c5366004611679565b610d05565b3480156106d657600080fd5b506000546002546040519111158152602001610213565b3480156106f957600080fd5b50610209610708366004611695565b600e60209081526000928352604080842090915290825290205481565b604080516060808201835260008083526020808401829052928401819052858152600d83528381206001600160a01b038616825283528390208351918201845280548252600181015492820192909252600290910154918101919091525b92915050565b60006107838261028f60065490565b60005460025410156107f15760405162461bcd60e51b815260206004820152601f60248201527f47656e6573697320636572656d6f6e7920686173206e6f7420656e6465642e0060448201526064015b60405180910390fd5b80600960006107ff60065490565b81526020808201929092526040908101600090812033825290925290205410156108615760405162461bcd60e51b815260206004820152601360248201527224b739bab33334b1b4b2b73a1039ba30b5b29760691b60448201526064016107e8565b80600a600061086e610cf4565b81526020019081526020016000206000336001600160a01b03166001600160a01b0316815260200190815260200160002060008282546108ae91906116cd565b909155503390507f04fba62a80e1849b9aee6f029587f10dc735742856c310f041883b34f4107ab9826108df610cf4565b6040805192835260208301919091520160405180910390a250565b6000546002541061094d5760405162461bcd60e51b815260206004820152601b60248201527f47656e6573697320636572656d6f6e792068617320656e6465642e000000000060448201526064016107e8565b6001543360009081527fec8156718a8372b1db44bb411437d0870f3e3790d4a08526d024ce1b0b668f6b602052604090205461098a9034906116cd565b11156109e45760405162461bcd60e51b8152602060048201526024808201527f5374616b652065786365656473206d6178696d756d2067656e6573697320737460448201526330b5b29760e11b60648201526084016107e8565b6109ef600733610d0f565b503360009081527fec8156718a8372b1db44bb411437d0870f3e3790d4a08526d024ce1b0b668f6b602052604081208054349290610a2e9084906116cd565b925050819055503460026000828254610a4791906116cd565b9091555050604080513481526000602082015233917f7df7881b496facd9ed493d6f1b0fc5092ad3a605083889c92e64ef36602dbb6a910160405180910390a260005460025410610b7c57610a9a610ce4565b60065560005b610aaa6007610d2b565b811015610b7a576000610abe600783610d35565b6001600160a01b03811660009081527fec8156718a8372b1db44bb411437d0870f3e3790d4a08526d024ce1b0b668f6b60205260408120549192508190600990610b0760065490565b81526020019081526020016000206000846001600160a01b03166001600160a01b031681526020019081526020016000208190555080600b6000610b4a60065490565b81526020019081526020016000206000828254610b6791906116cd565b909155505060019092019150610aa09050565b505b565b6000546002541015610bd25760405162461bcd60e51b815260206004820152601f60248201527f47656e6573697320636572656d6f6e7920686173206e6f7420656e6465642e0060448201526064016107e8565b610bdd600733610d0f565b503460096000610beb610cf4565b81526020019081526020016000206000336001600160a01b03166001600160a01b031681526020019081526020016000206000828254610c2b91906116cd565b909155503390507f7df7881b496facd9ed493d6f1b0fc5092ad3a605083889c92e64ef36602dbb6a34610c5c610cf4565b6040805192835260208301919091520160405180910390a2565b6000610783826104ae60065490565b6000610c9361053d60065490565b905090565b6000600454600554610c9391906116cd565b60005b8151811015610ce057610cd8828281518110610ccb57610ccb6116e0565b6020026020010151610d05565b600101610cad565b5050565b600060035442610c9391906116f6565b60006006546001610c9391906116cd565b610b7a3382610d41565b6000610d24836001600160a01b038416610f88565b9392505050565b6000610783825490565b6000610d248383610fd7565b80516000908152600d602090815260408083206001600160a01b038616845290915290205415610dd95760405162461bcd60e51b815260206004820152603960248201527f56616c696461746f722068617320616c726561647920636f6d6d69747465642060448201527f746f206120626c6f636b2061742074686973206865696768740000000000000060648201526084016107e8565b600454600554610de991906116cd565b815110610e725760405162461bcd60e51b815260206004820152604b60248201527f56616c696461746f722068617320636f6d6d697474656420746f206120626c6f60448201527f636b20746f6f20666172206168656164206f6620746865206c6173742061636360648201526a657074656420626c6f636b60a81b608482015260a4016107e8565b80516000908152600c60205260408120549003610ea357610e91610ce4565b81516000908152600c60205260409020555b80516000908152600d602090815260408083206001600160a01b03861684528252918290208351815590830151600182015590820151600290910155610ee882610789565b81516000908152600e6020908152604080832082860151845290915281208054909190610f169084906116cd565b9091555050604081015160208201517f4c9b7866113ce81c9ece48d2a0f4bb9d89d87f997a851cf3c448ee02f54559fd90610f5085610789565b6040805192835260208301919091520160405180910390a25b610f806005546001610f7b91906116cd565b611001565b610f69575050565b6000818152600183016020526040812054610fcf57508154600181810184556000848152602080822090930184905584548482528286019093526040902091909155610783565b506000610783565b6000826000018281548110610fee57610fee6116e0565b9060005260206000200154905092915050565b6000818152600c60205260408120545b8061101b60065490565b10156110375761103261102d60065490565b611112565b611011565b6000818152600b6020526040812054600390611054906002611718565b61105e91906116f6565b905060005b61106d6007610d2b565b811015611107576000611081600783610d35565b6000878152600d602090815260408083206001600160a01b03851684528252808320815160608101835281548082526001830154828601908152600290930154828501528552600e84528285209151855292529091205491925090848111156110fc576110ee82876111af565b506001979650505050505050565b505050600101611063565b506000949350505050565b60005b61111f6007610d2b565b811015611148576000611133600783610d35565b905061113f818461122e565b50600101611115565b5060016006600082825461115c91906116cd565b90915550506000818152600b60205260409020547fd531225950dd9ae364d4b0ceb29d1247a21905d454c6993edc0e5a3b1d3de4499082906040805192835260208301919091520160405180910390a150565b81516000908152600f6020908152604091829020845180825582860151600183018190558487015160029093018390556005919091559251928352917f70cd53aef7ce4038b0f7702a31f7f59b0d4bf93cd68c2a021e7bf7c75cf9715b910160405180910390a28061121f610ce4565b1115610ce057610ce081611112565b600a600061123d8360016116cd565b8152602080820192909252604090810160009081206001600160a01b038616808352908452828220548583526009855283832091835293522054611281919061172f565b600960006112908460016116cd565b81526020019081526020016000206000846001600160a01b03166001600160a01b0316815260200190815260200160002060008282546112d091906116cd565b909155506009905060006112e58360016116cd565b8152602080820192909252604090810160009081206001600160a01b038616825290925281205490600b9061131b8460016116cd565b8152602001908152602001600020600082825461133891906116cd565b90915550506001600160a01b0382166108fc600a60006113598560016116cd565b81526020019081526020016000206000856001600160a01b03166001600160a01b03168152602001908152602001600020549081150290604051600060405180830381858888f193505050501580156113b6573d6000803e3d6000fd5b5060008181526009602090815260408083206001600160a01b038616808552925282205490917f6efdc689a13c094860d18d6e0c9c71d01cb26cad68b952c8ea15832397cb51b4918491600a9061140e8460016116cd565b8152602080820192909252604090810160009081206001600160a01b038a1682528352819020548151948552918401929092529082015260600160405180910390a25050565b80356001600160a01b038116811461146b57600080fd5b919050565b6000806040838503121561148357600080fd5b8235915061149360208401611454565b90509250929050565b600080604083850312156114af57600080fd5b6114b883611454565b946020939093013593505050565b6000602082840312156114d857600080fd5b610d2482611454565b6000602082840312156114f357600080fd5b5035919050565b634e487b7160e01b600052604160045260246000fd5b604051601f8201601f1916810167ffffffffffffffff81118282101715611539576115396114fa565b604052919050565b60006060828403121561155357600080fd5b6040516060810181811067ffffffffffffffff82111715611576576115766114fa565b80604052508091508235815260208301356020820152604083013560408201525092915050565b600060208083850312156115b057600080fd5b823567ffffffffffffffff808211156115c857600080fd5b818501915085601f8301126115dc57600080fd5b8135818111156115ee576115ee6114fa565b6115fc848260051b01611510565b8181528481019250606091820284018501918883111561161b57600080fd5b938501935b82851015611641576116328986611541565b84529384019392850192611620565b50979650505050505050565b60008060006060848603121561166257600080fd5b505081359360208301359350604090920135919050565b60006060828403121561168b57600080fd5b610d248383611541565b600080604083850312156116a857600080fd5b50508035926020909101359150565b634e487b7160e01b600052601160045260246000fd5b80820180821115610783576107836116b7565b634e487b7160e01b600052603260045260246000fd5b60008261171357634e487b7160e01b600052601260045260246000fd5b500490565b8082028115828204841417610783576107836116b7565b81810381811115610783576107836116b756fea2646970667358221220feb8abfe94e7486ba72e6e5c853ed9bbf45a00d4eb03448e20d18cb214436e6264736f6c63430008170033","linkReferences":{}},"methodIdentifiers":{"acceptedBlocks(uint256)":"1c4e4e27","blockHeightEpochAssignments(uint256)":"20e0e445","commitmentStakes(uint256,bytes32)":"fc2788ad","commitments(uint256,address)":"e90d4c06","createBlockCommitment(uint256,bytes32,bytes32)":"ee96da05","currentEpoch()":"76671808","epochDuration()":"4ff0876a","epochStakes(uint256,address)":"108cf69b","epochTotalStake(uint256)":"3ae52727","epochUnstakes(uint256,address)":"c76c27bf","genesisStakeAccumulated()":"056f4aa6","genesisStakeRequired()":"048317c8","getAcceptedCommitmentAtBlockHeight(uint256)":"e1ffa44c","getCurrentEpoch()":"b97dd9e2","getCurrentEpochStake(address)":"11fe3345","getCurrentEpochUnstake(address)":"67d144ab","getEpochByBlockTime()":"ee377d90","getMaxTolerableBlockHeight()":"74e8e564","getNextEpoch()":"efe97d05","getStakeAtEpoch(address,uint256)":"0dd56366","getTotalStakeForCurrentEpoch()":"72710d18","getTotalStakeForEpoch(uint256)":"ce2a96b4","getUnstakeAtEpoch(address,uint256)":"84df6455","getValidatorCommitmentAtBlockHeight(uint256,address)":"0a0b81cc","hasGenesisCeremonyEnded()":"f934ed75","lastAcceptedBlockHeight()":"6b588ac7","leadingBlockTolerance()":"1cfa2516","maxGenesisStakePerValidator()":"f1a5416b","stake()":"3a4b66f1","stakeGenesis()":"365f490b","submitBatchBlockCommitment((uint256,bytes32,bytes32)[])":"e1b2b222","submitBlockCommitment((uint256,bytes32,bytes32))":"f89fe60b","unstake(uint256)":"2e17de78"},"id":24}