{"abi":[{"type":"function","name":"IS_EVEN_PATH","inputs":[],"outputs":[{"name":"","type":"string","internalType":"string"}],"stateMutability":"view"}],"bytecode":{"object":"0x61014a61003a600b82828239805160001a60731461002d57634e487b7160e01b600052600060045260246000fd5b30600052607381538281f3fe73000000000000000000000000000000000000000030146080604052600436106100355760003560e01c8063bd4af8941461003a575b600080fd5b610042610058565b60405161004f9190610074565b60405180910390f35b6040518060800160405280605181526020016100c46051913981565b60006020808352835180602085015260005b818110156100a257858101830151858201604001528201610086565b506000604082860101526040601f19601f830116850101925050509291505056fe2f686f6d652f6d6f767365732f6d766d742f73646b2f7461726765742f72697363762d67756573742f72697363763332696d2d72697363302d7a6b766d2d656c662f72656c656173652f69732d6576656ea264697066735822122024b587f94fe56e9a5731ecd47dbad82878d8cba9a6232888702a9a045f0a4ba764736f6c63430008180033","linkReferences":{}},"methodIdentifiers":{"IS_EVEN_PATH()":"bd4af894"},"id":29}