{"abi":[{"type":"function","name":"bridgeTransfers","inputs":[{"name":"","type":"bytes32","internalType":"bytes32"}],"outputs":[{"name":"amount","type":"uint256","internalType":"uint256"},{"name":"originator","type":"address","internalType":"address"},{"name":"recipient","type":"address","internalType":"address"},{"name":"hashLock","type":"bytes32","internalType":"bytes32"},{"name":"timeLock","type":"uint256","internalType":"uint256"},{"name":"exists","type":"bool","internalType":"bool"}],"stateMutability":"view"},{"type":"function","name":"completeBridgeTransfer","inputs":[{"name":"_bridgeTransferId","type":"bytes32","internalType":"bytes32"},{"name":"_secret","type":"bytes32","internalType":"bytes32"}],"outputs":[],"stateMutability":"nonpayable"},{"type":"function","name":"completedBridgeTransfers","inputs":[{"name":"","type":"bytes32","internalType":"bytes32"}],"outputs":[{"name":"amount","type":"uint256","internalType":"uint256"},{"name":"originator","type":"address","internalType":"address"},{"name":"recipient","type":"address","internalType":"address"},{"name":"hashLock","type":"bytes32","internalType":"bytes32"},{"name":"timeLock","type":"uint256","internalType":"uint256"},{"name":"exists","type":"bool","internalType":"bool"}],"stateMutability":"view"},{"type":"function","name":"getBridgeTransferDetail","inputs":[{"name":"_bridgeTransferId","type":"bytes32","internalType":"bytes32"}],"outputs":[{"name":"exists","type":"bool","internalType":"bool"},{"name":"amount","type":"uint256","internalType":"uint256"},{"name":"originator","type":"address","internalType":"address"},{"name":"recipient","type":"address","internalType":"address"},{"name":"hashLock","type":"bytes32","internalType":"bytes32"},{"name":"timeLock","type":"uint256","internalType":"uint256"}],"stateMutability":"view"},{"type":"function","name":"getCompletedBridgeTransferDetail","inputs":[{"name":"_bridgeTransferId","type":"bytes32","internalType":"bytes32"}],"outputs":[{"name":"exists","type":"bool","internalType":"bool"},{"name":"amount","type":"uint256","internalType":"uint256"},{"name":"originator","type":"address","internalType":"address"},{"name":"recipient","type":"address","internalType":"address"},{"name":"hashLock","type":"bytes32","internalType":"bytes32"},{"name":"timeLock","type":"uint256","internalType":"uint256"}],"stateMutability":"view"},{"type":"function","name":"initiateBridgeTransfer","inputs":[{"name":"amount","type":"uint256","internalType":"uint256"},{"name":"_originator","type":"address","internalType":"address"},{"name":"_recipient","type":"address","internalType":"address"},{"name":"_hashLock","type":"bytes32","internalType":"bytes32"},{"name":"_timeLock","type":"uint256","internalType":"uint256"}],"outputs":[{"name":"_bridgeTransferId","type":"bytes32","internalType":"bytes32"}],"stateMutability":"payable"},{"type":"function","name":"refundBridgeTransfer","inputs":[{"name":"_bridgeTransferId","type":"bytes32","internalType":"bytes32"}],"outputs":[],"stateMutability":"nonpayable"},{"type":"event","name":"BridgeTransferCompleted","inputs":[{"name":"_bridgeTransferId","type":"bytes32","indexed":true,"internalType":"bytes32"},{"name":"_secret","type":"bytes32","indexed":false,"internalType":"bytes32"}],"anonymous":false},{"type":"event","name":"BridgeTransferInitiated","inputs":[{"name":"_bridgeTransferId","type":"bytes32","indexed":true,"internalType":"bytes32"},{"name":"_originator","type":"address","indexed":true,"internalType":"address"},{"name":"_recipient","type":"address","indexed":true,"internalType":"address"},{"name":"_hashLock","type":"bytes32","indexed":false,"internalType":"bytes32"},{"name":"_timeLock","type":"uint256","indexed":false,"internalType":"uint256"}],"anonymous":false},{"type":"event","name":"BridgeTransferRefunded","inputs":[{"name":"_bridgeTransferId","type":"bytes32","indexed":true,"internalType":"bytes32"}],"anonymous":false}],"bytecode":{"object":"0x6080604052348015600f57600080fd5b506109568061001f6000396000f3fe6080604052600436106100705760003560e01c80639f8f87991161004e5780639f8f879914610158578063a71a480514610178578063c83214a514610215578063e0d9cbc41461027857600080fd5b806332267c5b146100755780634c29f8ea146101155780635780802014610136575b600080fd5b34801561008157600080fd5b506100d5610090366004610854565b60016020819052600091825260409091208054918101546002820154600383015460048401546005909401546001600160a01b03938416949390921692909160ff1686565b604080519687526001600160a01b039586166020880152939094169285019290925260608401526080830152151560a082015260c0015b60405180910390f35b610128610123366004610889565b6102d8565b60405190815260200161010c565b34801561014257600080fd5b50610156610151366004610854565b6104ff565b005b34801561016457600080fd5b506101566101733660046108d7565b61066b565b34801561018457600080fd5b506101d9610193366004610854565b600090815260016020819052604090912060058101548154928201546002830154600384015460049094015460ff909316956001600160a01b0392831694929091169290565b60408051961515875260208701959095526001600160a01b039384169486019490945291166060840152608083015260a082015260c00161010c565b34801561022157600080fd5b506101d9610230366004610854565b60009081526020819052604090206005810154815460018301546002840154600385015460049095015460ff9094169592946001600160a01b03928316949290911692909190565b34801561028457600080fd5b506100d5610293366004610854565b60006020819052908152604090208054600182015460028301546003840154600485015460059095015493946001600160a01b03938416949290931692909160ff1686565b600085341461033a5760405162461bcd60e51b815260206004820152602360248201527f416d6f756e74206d69736d617463682077697468207468652073656e742076616044820152626c756560e81b60648201526084015b60405180910390fd5b6040516bffffffffffffffffffffffff19606087811b8216602084015286901b166034820152604881018490526068810183905242608882015260a80160408051601f19818403018152918152815160209283012060008181529283905291206005015490915060ff16156103f15760405162461bcd60e51b815260206004820152601e60248201527f427269646765207472616e7366657220616c72656164792065786973747300006044820152606401610331565b6040518060c00160405280878152602001866001600160a01b03168152602001856001600160a01b03168152602001848152602001834261043291906108f9565b8152600160209182018190526000848152808352604090819020845181558484015192810180546001600160a01b03199081166001600160a01b039586161790915585830151600283018054909216908516179055606085015160038201556080850151600482015560a0909401516005909401805460ff1916941515949094179093558251868152918201859052868116929088169184917f105abcfc0ca0b04660675b8dce5813866d55f45cf2c150490f25644687fa92d5910160405180910390a495945050505050565b6000818152602081905260409020600581015460ff166105615760405162461bcd60e51b815260206004820152601e60248201527f427269646765207472616e7366657220646f6573206e6f7420657869737400006044820152606401610331565b806004015442116105b45760405162461bcd60e51b815260206004820152601860248201527f54696d656c6f636b20686173206e6f74206578706972656400000000000000006044820152606401610331565b600082815260208190526040808220828155600180820180546001600160a01b0319908116909155600283018054909116905560038201849055600482018490556005909101805460ff19169055830154835491516001600160a01b03909116926108fc831502929190818181858888f1935050505015801561063b573d6000803e3d6000fd5b5060405182907f4fee0a65c921e50a9623c3abe10a4067e49c03ef491e7b406dace7cb79c12c6190600090a25050565b6000828152602081905260409020600581015460ff166106cd5760405162461bcd60e51b815260206004820152601e60248201527f427269646765207472616e7366657220646f6573206e6f7420657869737400006044820152606401610331565b600381015460408051602081018590520160405160208183030381529060405280519060200120146107325760405162461bcd60e51b815260206004820152600e60248201526d125b9d985b1a59081cd958dc995d60921b6044820152606401610331565b6000838152600160208181526040808420855481558386015481850180546001600160a01b03199081166001600160a01b039384161790915560028089018054828601805485169186169190911790556003808b0154818701556004808c0154818801556005808d0154978101805460ff909916151560ff19998a16179055988b9052878b208b8155998a0180548616905592890180549094169093559187018890558601879055949093018054909116905591548454925191169282156108fc02929190818181858888f19350505050158015610814573d6000803e3d6000fd5b50827f05ddc886acde01b77731bfad1dcfb6abf529f05c28ea66556fe87429bb2789ea8360405161084791815260200190565b60405180910390a2505050565b60006020828403121561086657600080fd5b5035919050565b80356001600160a01b038116811461088457600080fd5b919050565b600080600080600060a086880312156108a157600080fd5b853594506108b16020870161086d565b93506108bf6040870161086d565b94979396509394606081013594506080013592915050565b600080604083850312156108ea57600080fd5b50508035926020909101359150565b8082018082111561091a57634e487b7160e01b600052601160045260246000fd5b9291505056fea2646970667358221220a3bc91479f8a36f0ba58016349910b469e6d7a22911f7c87e181cdd684c6adf064736f6c634300081a0033","linkReferences":{}},"methodIdentifiers":{"bridgeTransfers(bytes32)":"e0d9cbc4","completeBridgeTransfer(bytes32,bytes32)":"9f8f8799","completedBridgeTransfers(bytes32)":"32267c5b","getBridgeTransferDetail(bytes32)":"c83214a5","getCompletedBridgeTransferDetail(bytes32)":"a71a4805","initiateBridgeTransfer(uint256,address,address,bytes32,uint256)":"4c29f8ea","refundBridgeTransfer(bytes32)":"57808020"},"id":23}