{"abi":[{"type":"function","name":"bridgeTransfers","inputs":[{"name":"","type":"bytes32","internalType":"bytes32"}],"outputs":[{"name":"amount","type":"uint256","internalType":"uint256"},{"name":"originator","type":"address","internalType":"address"},{"name":"recipient","type":"bytes32","internalType":"bytes32"},{"name":"hashLock","type":"bytes32","internalType":"bytes32"},{"name":"timeLock","type":"uint256","internalType":"uint256"},{"name":"state","type":"uint8","internalType":"enum AtomicBridgeInitiator.MessageState"}],"stateMutability":"view"},{"type":"function","name":"completeBridgeTransfer","inputs":[{"name":"bridgeTransferId","type":"bytes32","internalType":"bytes32"},{"name":"preImage","type":"bytes32","internalType":"bytes32"}],"outputs":[],"stateMutability":"nonpayable"},{"type":"function","name":"initialize","inputs":[{"name":"_weth","type":"address","internalType":"address"}],"outputs":[],"stateMutability":"nonpayable"},{"type":"function","name":"initiateBridgeTransfer","inputs":[{"name":"wethAmount","type":"uint256","internalType":"uint256"},{"name":"recipient","type":"bytes32","internalType":"bytes32"},{"name":"hashLock","type":"bytes32","internalType":"bytes32"},{"name":"timeLock","type":"uint256","internalType":"uint256"}],"outputs":[{"name":"bridgeTransferId","type":"bytes32","internalType":"bytes32"}],"stateMutability":"payable"},{"type":"function","name":"refundBridgeTransfer","inputs":[{"name":"bridgeTransferId","type":"bytes32","internalType":"bytes32"}],"outputs":[],"stateMutability":"nonpayable"},{"type":"function","name":"weth","inputs":[],"outputs":[{"name":"","type":"address","internalType":"contract IWETH9"}],"stateMutability":"view"},{"type":"event","name":"BridgeTransferCompleted","inputs":[{"name":"_bridgeTransferId","type":"bytes32","indexed":true,"internalType":"bytes32"},{"name":"pre_image","type":"bytes32","indexed":false,"internalType":"bytes32"}],"anonymous":false},{"type":"event","name":"BridgeTransferInitiated","inputs":[{"name":"_bridgeTransferId","type":"bytes32","indexed":true,"internalType":"bytes32"},{"name":"_originator","type":"address","indexed":true,"internalType":"address"},{"name":"_recipient","type":"bytes32","indexed":true,"internalType":"bytes32"},{"name":"amount","type":"uint256","indexed":false,"internalType":"uint256"},{"name":"_hashLock","type":"bytes32","indexed":false,"internalType":"bytes32"},{"name":"_timeLock","type":"uint256","indexed":false,"internalType":"uint256"}],"anonymous":false},{"type":"event","name":"BridgeTransferRefunded","inputs":[{"name":"_bridgeTransferId","type":"bytes32","indexed":true,"internalType":"bytes32"}],"anonymous":false},{"type":"event","name":"Initialized","inputs":[{"name":"version","type":"uint64","indexed":false,"internalType":"uint64"}],"anonymous":false},{"type":"error","name":"BridgeTransferHasBeenCompleted","inputs":[]},{"type":"error","name":"BridgeTransferInvalid","inputs":[]},{"type":"error","name":"InvalidInitialization","inputs":[]},{"type":"error","name":"InvalidSecret","inputs":[]},{"type":"error","name":"NotInitializing","inputs":[]},{"type":"error","name":"TimeLockNotExpired","inputs":[]},{"type":"error","name":"Unauthorized","inputs":[]},{"type":"error","name":"WETHTransferFailed","inputs":[]},{"type":"error","name":"ZeroAddress","inputs":[]},{"type":"error","name":"ZeroAmount","inputs":[]}],"bytecode":{"object":"0x608060405234801561001057600080fd5b50610966806100206000396000f3fe6080604052600436106100555760003560e01c80633fc8cef31461005a57806357808020146100975780639dfcaebe146100b95780639f8f8799146100da578063c4d66de8146100fa578063e0d9cbc41461011a575b600080fd5b34801561006657600080fd5b5060015461007a906001600160a01b031681565b6040516001600160a01b0390911681526020015b60405180910390f35b3480156100a357600080fd5b506100b76100b23660046107b9565b610189565b005b6100cc6100c73660046107d2565b610295565b60405190815260200161008e565b3480156100e657600080fd5b506100b76100f5366004610804565b61059b565b34801561010657600080fd5b506100b7610115366004610826565b610670565b34801561012657600080fd5b506101776101353660046107b9565b60006020819052908152604090208054600182015460028301546003840154600485015460059095015493946001600160a01b03909316939192909160ff1686565b60405161008e9695949392919061086c565b6000818152602081905260409020805460048201544210156101be5760405163191f4d1b60e31b815260040160405180910390fd5b60058201805460ff19166002179055600180549083015460405163a9059cbb60e01b81526001600160a01b0391821660048201526024810184905291169063a9059cbb906044016020604051808303816000875af1158015610224573d6000803e3d6000fd5b505050506040513d601f19601f8201168201806040525081019061024891906108c6565b61026557604051630dd0c8f760e41b815260040160405180910390fd5b60405183907f4fee0a65c921e50a9623c3abe10a4067e49c03ef491e7b406dace7cb79c12c6190600090a2505050565b60003334826102a482896108fe565b9050806000036102c757604051631f2a200560e01b815260040160405180910390fd5b811561033757600160009054906101000a90046001600160a01b03166001600160a01b031663d0e30db0836040518263ffffffff1660e01b81526004016000604051808303818588803b15801561031d57600080fd5b505af1158015610331573d6000803e3d6000fd5b50505050505b87156103d7576001546040516323b872dd60e01b81526001600160a01b038581166004830152306024830152604482018b9052909116906323b872dd906064016020604051808303816000875af1158015610396573d6000803e3d6000fd5b505050506040513d601f19601f820116820180604052508101906103ba91906108c6565b6103d757604051630dd0c8f760e41b815260040160405180910390fd5b600280549060006103e783610917565b90915550506002546040516bffffffffffffffffffffffff19606086901b16602082015260348101899052605481018890526074810187905242609482015260b481019190915260d40160408051601f198184030181529181528151602092830120600081815292839052912054909450156104765760405163bad8e1b360e01b815260040160405180910390fd5b6040518060c00160405280828152602001846001600160a01b0316815260200188815260200187815260200186436104ae91906108fe565b8152600060209182018190528681528082526040908190208351815591830151600180840180546001600160a01b0319166001600160a01b039093169290921790915590830151600280840191909155606084015160038401556080840151600484015560a08401516005840180549193909260ff1990921691849081111561053957610539610856565b02179055505060408051838152602081018990529081018790528891506001600160a01b0385169086907f44e287be4fbd3a2dcc143a376301094fd2f809dcc2a8d3c09d0a0715224766c49060600160405180910390a4505050949350505050565b60008281526020819052604090206001600582015460ff1660028111156105c4576105c4610856565b036105e257604051630437880960e41b815260040160405180910390fd5b600381015460408051602081018590520160405160208183030381529060405280519060200120146106275760405163abab6bd760e01b815260040160405180910390fd5b60058101805460ff1916600117905560405182815283907f05ddc886acde01b77731bfad1dcfb6abf529f05c28ea66556fe87429bb2789ea9060200160405180910390a2505050565b7ff0c57e16840df040f15088dc2f81fe391c3923bec73e23a9662efc9c229c6a008054600160401b810460ff16159067ffffffffffffffff166000811580156106b65750825b905060008267ffffffffffffffff1660011480156106d35750303b155b9050811580156106e1575080155b156106ff5760405163f92ee8a960e01b815260040160405180910390fd5b845467ffffffffffffffff19166001178555831561072957845460ff60401b1916600160401b1785555b6001600160a01b0386166107505760405163d92e233d60e01b815260040160405180910390fd5b600180546001600160a01b0319166001600160a01b03881617905583156107b157845460ff60401b19168555604051600181527fc7f505b2f371ae2175ee4913f4499e1f2633a7b5936321eed1cdaeb6115181d29060200160405180910390a15b505050505050565b6000602082840312156107cb57600080fd5b5035919050565b600080600080608085870312156107e857600080fd5b5050823594602084013594506040840135936060013592509050565b6000806040838503121561081757600080fd5b50508035926020909101359150565b60006020828403121561083857600080fd5b81356001600160a01b038116811461084f57600080fd5b9392505050565b634e487b7160e01b600052602160045260246000fd5b8681526001600160a01b038616602082015260408101859052606081018490526080810183905260c08101600383106108b557634e487b7160e01b600052602160045260246000fd5b8260a0830152979650505050505050565b6000602082840312156108d857600080fd5b8151801515811461084f57600080fd5b634e487b7160e01b600052601160045260246000fd5b80820180821115610911576109116108e8565b92915050565b600060018201610929576109296108e8565b506001019056fea264697066735822122088a507cae45c106175ac20350721dcbeaf3e2b99610578b2aa7fedb05645180664736f6c63430008170033","linkReferences":{}},"methodIdentifiers":{"bridgeTransfers(bytes32)":"e0d9cbc4","completeBridgeTransfer(bytes32,bytes32)":"9f8f8799","initialize(address)":"c4d66de8","initiateBridgeTransfer(uint256,bytes32,bytes32,uint256)":"9dfcaebe","refundBridgeTransfer(bytes32)":"57808020","weth()":"3fc8cef3"},"id":36}