{"abi":[{"type":"constructor","inputs":[{"name":"_weth","type":"address","internalType":"address"}],"stateMutability":"nonpayable"},{"type":"function","name":"bridgeTransfers","inputs":[{"name":"","type":"bytes32","internalType":"bytes32"}],"outputs":[{"name":"amount","type":"uint256","internalType":"uint256"},{"name":"originator","type":"address","internalType":"address"},{"name":"recipient","type":"address","internalType":"address"},{"name":"hashLock","type":"bytes32","internalType":"bytes32"},{"name":"timeLock","type":"uint256","internalType":"uint256"},{"name":"exists","type":"bool","internalType":"bool"}],"stateMutability":"view"},{"type":"function","name":"completeBridgeTransfer","inputs":[{"name":"_bridgeTransferId","type":"bytes32","internalType":"bytes32"},{"name":"_secret","type":"bytes32","internalType":"bytes32"}],"outputs":[],"stateMutability":"nonpayable"},{"type":"function","name":"completedBridgeTransfers","inputs":[{"name":"","type":"bytes32","internalType":"bytes32"}],"outputs":[{"name":"amount","type":"uint256","internalType":"uint256"},{"name":"originator","type":"address","internalType":"address"},{"name":"recipient","type":"address","internalType":"address"},{"name":"hashLock","type":"bytes32","internalType":"bytes32"},{"name":"timeLock","type":"uint256","internalType":"uint256"},{"name":"exists","type":"bool","internalType":"bool"}],"stateMutability":"view"},{"type":"function","name":"getBridgeTransferDetail","inputs":[{"name":"_bridgeTransferId","type":"bytes32","internalType":"bytes32"}],"outputs":[{"name":"exists","type":"bool","internalType":"bool"},{"name":"amount","type":"uint256","internalType":"uint256"},{"name":"originator","type":"address","internalType":"address"},{"name":"recipient","type":"address","internalType":"address"},{"name":"hashLock","type":"bytes32","internalType":"bytes32"},{"name":"timeLock","type":"uint256","internalType":"uint256"}],"stateMutability":"view"},{"type":"function","name":"getCompletedBridgeTransferDetail","inputs":[{"name":"_bridgeTransferId","type":"bytes32","internalType":"bytes32"}],"outputs":[{"name":"exists","type":"bool","internalType":"bool"},{"name":"amount","type":"uint256","internalType":"uint256"},{"name":"originator","type":"address","internalType":"address"},{"name":"recipient","type":"address","internalType":"address"},{"name":"hashLock","type":"bytes32","internalType":"bytes32"},{"name":"timeLock","type":"uint256","internalType":"uint256"}],"stateMutability":"view"},{"type":"function","name":"initiateBridgeTransfer","inputs":[{"name":"_wethAmount","type":"uint256","internalType":"uint256"},{"name":"_originator","type":"address","internalType":"address"},{"name":"_recipient","type":"address","internalType":"address"},{"name":"_hashLock","type":"bytes32","internalType":"bytes32"},{"name":"_timeLock","type":"uint256","internalType":"uint256"}],"outputs":[{"name":"_bridgeTransferId","type":"bytes32","internalType":"bytes32"}],"stateMutability":"payable"},{"type":"function","name":"refundBridgeTransfer","inputs":[{"name":"_bridgeTransferId","type":"bytes32","internalType":"bytes32"}],"outputs":[],"stateMutability":"nonpayable"},{"type":"function","name":"weth","inputs":[],"outputs":[{"name":"","type":"address","internalType":"contract IWETH10"}],"stateMutability":"view"},{"type":"event","name":"BridgeTransferCompleted","inputs":[{"name":"_bridgeTransferId","type":"bytes32","indexed":true,"internalType":"bytes32"},{"name":"_secret","type":"bytes32","indexed":false,"internalType":"bytes32"}],"anonymous":false},{"type":"event","name":"BridgeTransferInitiated","inputs":[{"name":"_bridgeTransferId","type":"bytes32","indexed":true,"internalType":"bytes32"},{"name":"_originator","type":"address","indexed":true,"internalType":"address"},{"name":"_recipient","type":"address","indexed":true,"internalType":"address"},{"name":"_hashLock","type":"bytes32","indexed":false,"internalType":"bytes32"},{"name":"_timeLock","type":"uint256","indexed":false,"internalType":"uint256"}],"anonymous":false},{"type":"event","name":"BridgeTransferRefunded","inputs":[{"name":"_bridgeTransferId","type":"bytes32","indexed":true,"internalType":"bytes32"}],"anonymous":false}],"bytecode":{"object":"0x608060405234801561001057600080fd5b50604051610c01380380610c018339818101604052602081101561003357600080fd5b5051600280546001600160a01b0319166001600160a01b03909216919091179055610b9e806100636000396000f3fe60806040526004361061007b5760003560e01c80639f8f87991161004e5780639f8f87991461019a578063a71a4805146101ca578063c83214a514610235578063e0d9cbc41461025f5761007b565b806332267c5b146100805780633fc8cef3146100e95780634c29f8ea1461011a578063578080201461016e575b600080fd5b34801561008c57600080fd5b506100aa600480360360208110156100a357600080fd5b5035610289565b604080519687526001600160a01b03958616602088015293909416858401526060850191909152608084015290151560a0830152519081900360c00190f35b3480156100f557600080fd5b506100fe6102ce565b604080516001600160a01b039092168252519081900360200190f35b61015c600480360360a081101561013057600080fd5b508035906001600160a01b036020820135811691604081013590911690606081013590608001356102dd565b60408051918252519081900360200190f35b34801561017a57600080fd5b506101986004803603602081101561019157600080fd5b5035610645565b005b3480156101a657600080fd5b50610198600480360360408110156101bd57600080fd5b50803590602001356107bb565b3480156101d657600080fd5b506101f4600480360360208110156101ed57600080fd5b50356109a8565b60408051961515875260208701959095526001600160a01b0393841686860152919092166060850152608084019190915260a0830152519081900360c00190f35b34801561024157600080fd5b506101f46004803603602081101561025857600080fd5b50356109ee565b34801561026b57600080fd5b506100aa6004803603602081101561028257600080fd5b5035610a36565b60016020819052600091825260409091208054918101546002820154600383015460048401546005909401546001600160a01b03938416949390921692909160ff1686565b6002546001600160a01b031681565b60006103166040518060400160405280601681526020017534b734ba34b0ba32a13934b233b2aa3930b739b332b960511b815250610a7b565b85341561044e57600260009054906101000a90046001600160a01b03166001600160a01b031663d0e30db0346040518263ffffffff1660e01b81526004016000604051808303818588803b15801561036d57600080fd5b505af1158015610381573d6000803e3d6000fd5b50506002546040805163a9059cbb60e01b815230600482015234602482015290516001600160a01b03909216945063a9059cbb935060448082019350602092918290030181600087803b1580156103d757600080fd5b505af11580156103eb573d6000803e3d6000fd5b505050506040513d602081101561040157600080fd5b505161044b576040805162461bcd60e51b815260206004820152601460248201527315d15512081d1c985b9cd9995c8819985a5b195960621b604482015290519081900360640190fd5b34015b6000811161048d5760405162461bcd60e51b8152600401808060200182810382526023815260200180610b466023913960400191505060405180910390fd5b858585854260405160200180866001600160a01b031660601b8152601401856001600160a01b031660601b81526014018481526020018381526020018281526020019550505050505060405160208183030381529060405280519060200120915060008083815260200190815260200160002060000154600014610558576040805162461bcd60e51b815260206004820152601e60248201527f427269646765207472616e7366657220616c7265616479206578697374730000604482015290519081900360640190fd5b6040805160c0810182528281526001600160a01b0388811660208084018281528a8416858701818152606087018c8152428c0160808901908152600160a08a0181815260008e81528089528c90209a518b559551908a0180546001600160a01b0319908116928b16929092179055925160028a01805490941698169790971790915551600387015593516004860155516005909401805460ff191694151594909417909355835188815292830187905283519193909286927f105abcfc0ca0b04660675b8dce5813866d55f45cf2c150490f25644687fa92d5929181900390910190a45095945050505050565b6000818152602081905260409020600581015460ff166106ac576040805162461bcd60e51b815260206004820152601e60248201527f427269646765207472616e7366657220646f6573206e6f742065786973740000604482015290519081900360640190fd5b80600401544211610704576040805162461bcd60e51b815260206004820152601860248201527f54696d656c6f636b20686173206e6f7420657870697265640000000000000000604482015290519081900360640190fd5b600082815260208190526040808220828155600180820180546001600160a01b0319908116909155600283018054909116905560038201849055600482018490556005909101805460ff19169055830154835491516001600160a01b03909116926108fc831502929190818181858888f1935050505015801561078b573d6000803e3d6000fd5b5060405182907f4fee0a65c921e50a9623c3abe10a4067e49c03ef491e7b406dace7cb79c12c6190600090a25050565b6000828152602081905260409020600581015460ff16610822576040805162461bcd60e51b815260206004820152601e60248201527f427269646765207472616e7366657220646f6573206e6f742065786973740000604482015290519081900360640190fd5b600381015460408051602080820186905282518083038201815291830190925280519101201461088a576040805162461bcd60e51b815260206004820152600e60248201526d125b9d985b1a59081cd958dc995d60921b604482015290519081900360640190fd5b6000838152600160208181526040808420855481558386015481850180546001600160a01b03199081166001600160a01b039384161790915560028089018054828601805485169186169190911790556003808b0154818701556004808c0154818801556005808d0154978101805460ff909916151560ff19998a16179055988b9052878b208b8155998a0180548616905592890180549094169093559187018890558601879055949093018054909116905591548454925191169282156108fc02929190818181858888f1935050505015801561096c573d6000803e3d6000fd5b5060408051838152905184917f05ddc886acde01b77731bfad1dcfb6abf529f05c28ea66556fe87429bb2789ea919081900360200190a2505050565b600090815260016020819052604090912060058101548154928201546002830154600384015460049094015460ff909316956001600160a01b0392831694929091169290565b60009081526020819052604090206005810154815460018301546002840154600385015460049095015460ff9094169592946001600160a01b03928316949290911692909190565b60006020819052908152604090208054600182015460028301546003840154600485015460059095015493946001600160a01b03938416949290931692909160ff1686565b610b21816040516024018080602001828103825283818151815260200191508051906020019080838360005b83811015610abf578181015183820152602001610aa7565b50505050905090810190601f168015610aec5780820380516001836020036101000a031916815260200191505b5060408051601f198184030181529190526020810180516001600160e01b031663104c13eb60e21b1790529250610b24915050565b50565b80516a636f6e736f6c652e6c6f67602083016000808483855afa505050505056fe546f74616c20616d6f756e74206d7573742062652067726561746572207468616e2030a2646970667358221220b43930d785ef1a719509809ddb220e5e2070494922cad68278fec2382d74e63164736f6c63430007060033","linkReferences":{}},"methodIdentifiers":{"bridgeTransfers(bytes32)":"e0d9cbc4","completeBridgeTransfer(bytes32,bytes32)":"9f8f8799","completedBridgeTransfers(bytes32)":"32267c5b","getBridgeTransferDetail(bytes32)":"c83214a5","getCompletedBridgeTransferDetail(bytes32)":"a71a4805","initiateBridgeTransfer(uint256,address,address,bytes32,uint256)":"4c29f8ea","refundBridgeTransfer(bytes32)":"57808020","weth()":"3fc8cef3"},"id":23}