{"abi":[{"type":"function","name":"COMMITMENT_ADMIN","inputs":[],"outputs":[{"name":"","type":"bytes32","internalType":"bytes32"}],"stateMutability":"view"},{"type":"function","name":"DEFAULT_ADMIN_ROLE","inputs":[],"outputs":[{"name":"","type":"bytes32","internalType":"bytes32"}],"stateMutability":"view"},{"type":"function","name":"TRUSTED_ATTESTER","inputs":[],"outputs":[{"name":"","type":"bytes32","internalType":"bytes32"}],"stateMutability":"view"},{"type":"function","name":"UPGRADE_INTERFACE_VERSION","inputs":[],"outputs":[{"name":"","type":"string","internalType":"string"}],"stateMutability":"view"},{"type":"function","name":"acceptGenesisCeremony","inputs":[],"outputs":[],"stateMutability":"nonpayable"},{"type":"function","name":"acceptedBlocks","inputs":[{"name":"blockHeight","type":"uint256","internalType":"uint256"}],"outputs":[{"name":"height","type":"uint256","internalType":"uint256"},{"name":"commitment","type":"bytes32","internalType":"bytes32"},{"name":"blockId","type":"bytes32","internalType":"bytes32"}],"stateMutability":"view"},{"type":"function","name":"addCommitmentAdmin","inputs":[{"name":"account","type":"address","internalType":"address"}],"outputs":[],"stateMutability":"nonpayable"},{"type":"function","name":"addTrustedAttester","inputs":[{"name":"attester","type":"address","internalType":"address"}],"outputs":[],"stateMutability":"nonpayable"},{"type":"function","name":"batchAddCommitmentAdmin","inputs":[{"name":"accounts","type":"address[]","internalType":"address[]"}],"outputs":[],"stateMutability":"nonpayable"},{"type":"function","name":"batchAddTrustedAttester","inputs":[{"name":"attesters","type":"address[]","internalType":"address[]"}],"outputs":[],"stateMutability":"nonpayable"},{"type":"function","name":"blockHeightEpochAssignments","inputs":[{"name":"blockHeight","type":"uint256","internalType":"uint256"}],"outputs":[{"name":"epoch","type":"uint256","internalType":"uint256"}],"stateMutability":"view"},{"type":"function","name":"commitmentStakes","inputs":[{"name":"blockHeight","type":"uint256","internalType":"uint256"},{"name":"commitement","type":"bytes32","internalType":"bytes32"}],"outputs":[{"name":"stake","type":"uint256","internalType":"uint256"}],"stateMutability":"view"},{"type":"function","name":"commitments","inputs":[{"name":"blockHeight","type":"uint256","internalType":"uint256"},{"name":"attester","type":"address","internalType":"address"}],"outputs":[{"name":"height","type":"uint256","internalType":"uint256"},{"name":"commitment","type":"bytes32","internalType":"bytes32"},{"name":"blockId","type":"bytes32","internalType":"bytes32"}],"stateMutability":"view"},{"type":"function","name":"computeAllCurrentEpochStake","inputs":[{"name":"attester","type":"address","internalType":"address"}],"outputs":[{"name":"","type":"uint256","internalType":"uint256"}],"stateMutability":"view"},{"type":"function","name":"computeAllStakeAtEpoch","inputs":[{"name":"epoch","type":"uint256","internalType":"uint256"},{"name":"attester","type":"address","internalType":"address"}],"outputs":[{"name":"","type":"uint256","internalType":"uint256"}],"stateMutability":"view"},{"type":"function","name":"computeAllTotalStakeForCurrentEpoch","inputs":[],"outputs":[{"name":"","type":"uint256","internalType":"uint256"}],"stateMutability":"view"},{"type":"function","name":"computeAllTotalStakeForEpoch","inputs":[{"name":"epoch","type":"uint256","internalType":"uint256"}],"outputs":[{"name":"","type":"uint256","internalType":"uint256"}],"stateMutability":"view"},{"type":"function","name":"createBlockCommitment","inputs":[{"name":"height","type":"uint256","internalType":"uint256"},{"name":"commitment","type":"bytes32","internalType":"bytes32"},{"name":"blockId","type":"bytes32","internalType":"bytes32"}],"outputs":[{"name":"","type":"tuple","internalType":"struct MCRStorage.BlockCommitment","components":[{"name":"height","type":"uint256","internalType":"uint256"},{"name":"commitment","type":"bytes32","internalType":"bytes32"},{"name":"blockId","type":"bytes32","internalType":"bytes32"}]}],"stateMutability":"pure"},{"type":"function","name":"forceLatestCommitment","inputs":[{"name":"blockCommitment","type":"tuple","internalType":"struct MCRStorage.BlockCommitment","components":[{"name":"height","type":"uint256","internalType":"uint256"},{"name":"commitment","type":"bytes32","internalType":"bytes32"},{"name":"blockId","type":"bytes32","internalType":"bytes32"}]}],"outputs":[],"stateMutability":"nonpayable"},{"type":"function","name":"getAcceptedCommitmentAtBlockHeight","inputs":[{"name":"height","type":"uint256","internalType":"uint256"}],"outputs":[{"name":"","type":"tuple","internalType":"struct MCRStorage.BlockCommitment","components":[{"name":"height","type":"uint256","internalType":"uint256"},{"name":"commitment","type":"bytes32","internalType":"bytes32"},{"name":"blockId","type":"bytes32","internalType":"bytes32"}]}],"stateMutability":"view"},{"type":"function","name":"getAttesters","inputs":[],"outputs":[{"name":"","type":"address[]","internalType":"address[]"}],"stateMutability":"view"},{"type":"function","name":"getCurrentEpoch","inputs":[],"outputs":[{"name":"","type":"uint256","internalType":"uint256"}],"stateMutability":"view"},{"type":"function","name":"getCurrentEpochStake","inputs":[{"name":"custodian","type":"address","internalType":"address"},{"name":"attester","type":"address","internalType":"address"}],"outputs":[{"name":"","type":"uint256","internalType":"uint256"}],"stateMutability":"view"},{"type":"function","name":"getEpochByBlockTime","inputs":[],"outputs":[{"name":"","type":"uint256","internalType":"uint256"}],"stateMutability":"view"},{"type":"function","name":"getMaxTolerableBlockHeight","inputs":[],"outputs":[{"name":"","type":"uint256","internalType":"uint256"}],"stateMutability":"view"},{"type":"function","name":"getNextEpoch","inputs":[],"outputs":[{"name":"","type":"uint256","internalType":"uint256"}],"stateMutability":"view"},{"type":"function","name":"getRoleAdmin","inputs":[{"name":"role","type":"bytes32","internalType":"bytes32"}],"outputs":[{"name":"","type":"bytes32","internalType":"bytes32"}],"stateMutability":"view"},{"type":"function","name":"getStakeAtEpoch","inputs":[{"name":"epoch","type":"uint256","internalType":"uint256"},{"name":"custodian","type":"address","internalType":"address"},{"name":"attester","type":"address","internalType":"address"}],"outputs":[{"name":"","type":"uint256","internalType":"uint256"}],"stateMutability":"view"},{"type":"function","name":"getTotalStakeForCurrentEpoch","inputs":[{"name":"custodian","type":"address","internalType":"address"}],"outputs":[{"name":"","type":"uint256","internalType":"uint256"}],"stateMutability":"view"},{"type":"function","name":"getTotalStakeForEpoch","inputs":[{"name":"epoch","type":"uint256","internalType":"uint256"},{"name":"custodian","type":"address","internalType":"address"}],"outputs":[{"name":"","type":"uint256","internalType":"uint256"}],"stateMutability":"view"},{"type":"function","name":"getValidatorCommitmentAtBlockHeight","inputs":[{"name":"height","type":"uint256","internalType":"uint256"},{"name":"attester","type":"address","internalType":"address"}],"outputs":[{"name":"","type":"tuple","internalType":"struct MCRStorage.BlockCommitment","components":[{"name":"height","type":"uint256","internalType":"uint256"},{"name":"commitment","type":"bytes32","internalType":"bytes32"},{"name":"blockId","type":"bytes32","internalType":"bytes32"}]}],"stateMutability":"view"},{"type":"function","name":"grantRole","inputs":[{"name":"role","type":"bytes32","internalType":"bytes32"},{"name":"account","type":"address","internalType":"address"}],"outputs":[],"stateMutability":"nonpayable"},{"type":"function","name":"hasRole","inputs":[{"name":"role","type":"bytes32","internalType":"bytes32"},{"name":"account","type":"address","internalType":"address"}],"outputs":[{"name":"","type":"bool","internalType":"bool"}],"stateMutability":"view"},{"type":"function","name":"initialize","inputs":[],"outputs":[],"stateMutability":"nonpayable"},{"type":"function","name":"initialize","inputs":[{"name":"_stakingContract","type":"address","internalType":"contract IMovementStaking"},{"name":"_lastAcceptedBlockHeight","type":"uint256","internalType":"uint256"},{"name":"_leadingBlockTolerance","type":"uint256","internalType":"uint256"},{"name":"_epochDuration","type":"uint256","internalType":"uint256"},{"name":"_custodians","type":"address[]","internalType":"address[]"}],"outputs":[],"stateMutability":"nonpayable"},{"type":"function","name":"lastAcceptedBlockHeight","inputs":[],"outputs":[{"name":"","type":"uint256","internalType":"uint256"}],"stateMutability":"view"},{"type":"function","name":"leadingBlockTolerance","inputs":[],"outputs":[{"name":"","type":"uint256","internalType":"uint256"}],"stateMutability":"view"},{"type":"function","name":"openAttestationEnabled","inputs":[],"outputs":[{"name":"","type":"bool","internalType":"bool"}],"stateMutability":"view"},{"type":"function","name":"proxiableUUID","inputs":[],"outputs":[{"name":"","type":"bytes32","internalType":"bytes32"}],"stateMutability":"view"},{"type":"function","name":"renounceRole","inputs":[{"name":"role","type":"bytes32","internalType":"bytes32"},{"name":"callerConfirmation","type":"address","internalType":"address"}],"outputs":[],"stateMutability":"nonpayable"},{"type":"function","name":"revokeRole","inputs":[{"name":"role","type":"bytes32","internalType":"bytes32"},{"name":"account","type":"address","internalType":"address"}],"outputs":[],"stateMutability":"nonpayable"},{"type":"function","name":"setAcceptedCommitmentAtBlockHeight","inputs":[{"name":"blockCommitment","type":"tuple","internalType":"struct MCRStorage.BlockCommitment","components":[{"name":"height","type":"uint256","internalType":"uint256"},{"name":"commitment","type":"bytes32","internalType":"bytes32"},{"name":"blockId","type":"bytes32","internalType":"bytes32"}]}],"outputs":[],"stateMutability":"nonpayable"},{"type":"function","name":"setLastAcceptedBlockHeight","inputs":[{"name":"height","type":"uint256","internalType":"uint256"}],"outputs":[],"stateMutability":"nonpayable"},{"type":"function","name":"setOpenAttestationEnabled","inputs":[{"name":"enabled","type":"bool","internalType":"bool"}],"outputs":[],"stateMutability":"nonpayable"},{"type":"function","name":"stakingContract","inputs":[],"outputs":[{"name":"","type":"address","internalType":"contract IMovementStaking"}],"stateMutability":"view"},{"type":"function","name":"submitBatchBlockCommitment","inputs":[{"name":"blockCommitments","type":"tuple[]","internalType":"struct MCRStorage.BlockCommitment[]","components":[{"name":"height","type":"uint256","internalType":"uint256"},{"name":"commitment","type":"bytes32","internalType":"bytes32"},{"name":"blockId","type":"bytes32","internalType":"bytes32"}]}],"outputs":[],"stateMutability":"nonpayable"},{"type":"function","name":"submitBlockCommitment","inputs":[{"name":"blockCommitment","type":"tuple","internalType":"struct MCRStorage.BlockCommitment","components":[{"name":"height","type":"uint256","internalType":"uint256"},{"name":"commitment","type":"bytes32","internalType":"bytes32"},{"name":"blockId","type":"bytes32","internalType":"bytes32"}]}],"outputs":[],"stateMutability":"nonpayable"},{"type":"function","name":"supportsInterface","inputs":[{"name":"interfaceId","type":"bytes4","internalType":"bytes4"}],"outputs":[{"name":"","type":"bool","internalType":"bool"}],"stateMutability":"view"},{"type":"function","name":"upgradeToAndCall","inputs":[{"name":"newImplementation","type":"address","internalType":"address"},{"name":"data","type":"bytes","internalType":"bytes"}],"outputs":[],"stateMutability":"payable"},{"type":"event","name":"BlockAccepted","inputs":[{"name":"blockHash","type":"bytes32","indexed":true,"internalType":"bytes32"},{"name":"stateCommitment","type":"bytes32","indexed":false,"internalType":"bytes32"},{"name":"height","type":"uint256","indexed":false,"internalType":"uint256"}],"anonymous":false},{"type":"event","name":"BlockCommitmentSubmitted","inputs":[{"name":"blockHash","type":"bytes32","indexed":true,"internalType":"bytes32"},{"name":"stateCommitment","type":"bytes32","indexed":false,"internalType":"bytes32"},{"name":"attesterStake","type":"uint256","indexed":false,"internalType":"uint256"}],"anonymous":false},{"type":"event","name":"Initialized","inputs":[{"name":"version","type":"uint64","indexed":false,"internalType":"uint64"}],"anonymous":false},{"type":"event","name":"RoleAdminChanged","inputs":[{"name":"role","type":"bytes32","indexed":true,"internalType":"bytes32"},{"name":"previousAdminRole","type":"bytes32","indexed":true,"internalType":"bytes32"},{"name":"newAdminRole","type":"bytes32","indexed":true,"internalType":"bytes32"}],"anonymous":false},{"type":"event","name":"RoleGranted","inputs":[{"name":"role","type":"bytes32","indexed":true,"internalType":"bytes32"},{"name":"account","type":"address","indexed":true,"internalType":"address"},{"name":"sender","type":"address","indexed":true,"internalType":"address"}],"anonymous":false},{"type":"event","name":"RoleRevoked","inputs":[{"name":"role","type":"bytes32","indexed":true,"internalType":"bytes32"},{"name":"account","type":"address","indexed":true,"internalType":"address"},{"name":"sender","type":"address","indexed":true,"internalType":"address"}],"anonymous":false},{"type":"event","name":"Upgraded","inputs":[{"name":"implementation","type":"address","indexed":true,"internalType":"address"}],"anonymous":false},{"type":"error","name":"AccessControlBadConfirmation","inputs":[]},{"type":"error","name":"AccessControlUnauthorizedAccount","inputs":[{"name":"account","type":"address","internalType":"address"},{"name":"neededRole","type":"bytes32","internalType":"bytes32"}]},{"type":"error","name":"AddressEmptyCode","inputs":[{"name":"target","type":"address","internalType":"address"}]},{"type":"error","name":"AttesterAlreadyCommitted","inputs":[]},{"type":"error","name":"ERC1967InvalidImplementation","inputs":[{"name":"implementation","type":"address","internalType":"address"}]},{"type":"error","name":"ERC1967NonPayable","inputs":[]},{"type":"error","name":"FailedInnerCall","inputs":[]},{"type":"error","name":"InvalidInitialization","inputs":[]},{"type":"error","name":"NotInitializing","inputs":[]},{"type":"error","name":"UUPSUnauthorizedCallContext","inputs":[]},{"type":"error","name":"UUPSUnsupportedProxiableUUID","inputs":[{"name":"slot","type":"bytes32","internalType":"bytes32"}]},{"type":"error","name":"UnacceptableBlockCommitment","inputs":[]}],"bytecode":{"object":"0x60a0604052306080523480156012575f80fd5b506080516124fa6100395f395f818161162e01528181611657015261179a01526124fa5ff3fe6080604052600436106102a5575f3560e01c806380e460f01161016f578063d547741f116100d8578063ee96da0511610092578063efe97d051161006d578063efe97d0514610955578063f34d002a14610969578063f89fe60b14610988578063fc2788ad146109a7575f80fd5b8063ee96da05146108ba578063ee99205c14610906578063ef9ae15c1461093c575f80fd5b8063d547741f146107a0578063e1b2b222146107bf578063e1ffa44c146107de578063e90d4c0614610842578063ec0abf7a14610887578063ee377d90146108a6575f80fd5b8063ad3cb1cc11610129578063ad3cb1cc146106d3578063b274a93514610710578063b97dd9e21461072f578063bc90afbb14610743578063c6e1b9db14610762578063d2526fef14610781575f80fd5b806380e460f01461063a5780638129fc1c1461065a57806391d148541461066e57806392a2ebf31461068d578063a217fddf146106a1578063a3df415f146106b4575f80fd5b806336568abe116102115780635db916ab116101cb5780635db916ab1461059457806360fea5dd146105b45780636542384f146105d35780636b588ac7146105f257806374e8e564146106075780637624ffd41461061b575f80fd5b806336568abe146104ef5780634ed7e4351461050e5780634f1ef2861461052f57806352d1902d1461054257806353cd9e3c146105565780635a912c8314610575575f80fd5b80631dfcce8c116102625780631dfcce8c146104345780631faea1ed1461044857806320e0e44514610467578063232f916114610492578063248a9ca3146104b15780632f2ff15d146104d0575f80fd5b806301ffc9a7146102a95780630804c1d8146102dd57806308c7050f146102fe5780630a0b81cc1461031d5780631c4e4e27146103bc5780631cfa251614610411575b5f80fd5b3480156102b4575f80fd5b506102c86102c3366004611ddf565b6109dd565b60405190151581526020015b60405180910390f35b3480156102e8575f80fd5b506102fc6102f7366004611ef3565b610a13565b005b348015610309575f80fd5b506102fc610318366004611f82565b610a65565b348015610328575f80fd5b5061039a610337366004611f9c565b60408051606080820183525f8083526020808401829052928401819052948552600482528285206001600160a01b039490941685529281529281902081519283018252805483526001810154938301939093526002909201549181019190915290565b60408051825181526020808401519082015291810151908201526060016102d4565b3480156103c7575f80fd5b506103f66103d6366004611fca565b60066020525f908152604090208054600182015460029092015490919083565b604080519384526020840192909252908201526060016102d4565b34801561041c575f80fd5b5061042660015481565b6040519081526020016102d4565b34801561043f575f80fd5b50610426610aac565b348015610453575f80fd5b50610426610462366004611fe1565b610abd565b348015610472575f80fd5b50610426610481366004611fca565b60036020525f908152604090205481565b34801561049d575f80fd5b506102fc6104ac366004612020565b610b48565b3480156104bc575f80fd5b506104266104cb366004611fca565b610b6d565b3480156104db575f80fd5b506102fc6104ea366004611f9c565b610b8d565b3480156104fa575f80fd5b506102fc610509366004611f9c565b610baf565b348015610519575f80fd5b50610522610be2565b6040516102d4919061207e565b6102fc61053d366004612090565b610c4e565b34801561054d575f80fd5b50610426610c69565b348015610561575f80fd5b506102fc610570366004611f82565b610c84565b348015610580575f80fd5b506102fc61058f366004611fca565b610cc7565b34801561059f575f80fd5b506104265f805160206124a583398151915281565b3480156105bf575f80fd5b506104266105ce366004612020565b610ce4565b3480156105de575f80fd5b506104266105ed366004611fca565b610cf6565b3480156105fd575f80fd5b5061042660025481565b348015610612575f80fd5b50610426610daf565b348015610626575f80fd5b506102fc610635366004611ef3565b610dc0565b348015610645575f80fd5b506104265f8051602061244583398151915281565b348015610665575f80fd5b506102fc610e0d565b348015610679575f80fd5b506102c8610688366004611f9c565b610f17565b348015610698575f80fd5b506102fc610f4d565b3480156106ac575f80fd5b506104265f81565b3480156106bf575f80fd5b506102fc6106ce366004612135565b610fa8565b3480156106de575f80fd5b50610703604051806040016040528060058152602001640352e302e360dc1b81525081565b6040516102d4919061219c565b34801561071b575f80fd5b5061042661072a366004612020565b611140565b34801561073a575f80fd5b50610426611152565b34801561074e575f80fd5b5061042661075d3660046121d1565b6111bd565b34801561076d575f80fd5b5061042661077c366004611f9c565b6111d0565b34801561078c575f80fd5b506102fc61079b3660046121fd565b611249565b3480156107ab575f80fd5b506102fc6107ba366004611f9c565b611274565b3480156107ca575f80fd5b506102fc6107d936600461221c565b611290565b3480156107e9575f80fd5b5061039a6107f8366004611fca565b60408051606080820183525f808352602080840182905292840181905293845260068252928290208251938401835280548452600181015491840191909152600201549082015290565b34801561084d575f80fd5b506103f661085c366004611f9c565b600460209081525f928352604080842090915290825290208054600182015460029092015490919083565b348015610892575f80fd5b506102fc6108a1366004612020565b61133a565b3480156108b1575f80fd5b50610426611368565b3480156108c5575f80fd5b5061039a6108d43660046122b6565b60408051606080820183525f808352602080840182905292840152825190810183529485528401929092529082015290565b348015610911575f80fd5b505f54610924906001600160a01b031681565b6040516001600160a01b0390911681526020016102d4565b348015610947575f80fd5b506039546102c89060ff1681565b348015610960575f80fd5b50610426611398565b348015610974575f80fd5b50610426610983366004611f9c565b6113c8565b348015610993575f80fd5b506102fc6109a2366004611f82565b611483565b3480156109b2575f80fd5b506104266109c13660046122df565b600560209081525f928352604080842090915290825290205481565b5f6001600160e01b03198216637965db0b60e01b1480610a0d57506301ffc9a760e01b6001600160e01b03198316145b92915050565b5f610a1d816114ff565b5f5b8251811015610a6057610a585f805160206124a5833981519152848381518110610a4b57610a4b6122ff565b6020026020010151610b8d565b600101610a1f565b505050565b5f80516020612445833981519152610a7c816114ff565b5080515f908152600660209081526040918290208351808255918401516001820155919092015160029182015555565b5f610ab86105ed611152565b905090565b5f80546040516311b2104b60e31b8152306004820152602481018690526001600160a01b038581166044830152848116606483015290911690638d90825890608401602060405180830381865afa158015610b1a573d5f803e3d5ffd5b505050506040513d601f19601f82011682018060405250810190610b3e9190612313565b90505b9392505050565b5f610b52816114ff565b610b695f8051602061244583398151915283610b8d565b5050565b5f9081525f80516020612485833981519152602052604090206001015490565b610b9682610b6d565b610b9f816114ff565b610ba98383611509565b50505050565b6001600160a01b0381163314610bd85760405163334bd91960e11b815260040160405180910390fd5b610a6082826115aa565b5f54604051632924b73b60e01b81523060048201526060916001600160a01b031690632924b73b906024015f60405180830381865afa158015610c27573d5f803e3d5ffd5b505050506040513d5f823e601f3d908101601f19168201604052610ab8919081019061232a565b610c56611623565b610c5f826116c9565b610b6982826116d3565b5f610c7261178f565b505f8051602061246583398151915290565b5f80516020612445833981519152610c9b816114ff565b5080515f9081526006602090815260409182902083518155908301516001820155910151600290910155565b5f80516020612445833981519152610cde816114ff565b50600255565b5f610a0d610cf0611152565b836113c8565b5f8054604051636ae501ef60e11b815230600482015282916001600160a01b03169063d5ca03de906024015f60405180830381865afa158015610d3b573d5f803e3d5ffd5b505050506040513d5f823e601f3d908101601f19168201604052610d62919081019061232a565b90505f805b8251811015610da757610d9385848381518110610d8657610d866122ff565b60200260200101516111d0565b610d9d90836123cd565b9150600101610d67565b509392505050565b5f600154600254610ab891906123cd565b5f80516020612445833981519152610dd7816114ff565b5f5b8251811015610a6057610e055f805160206124a5833981519152848381518110610a4b57610a4b6122ff565b600101610dd9565b7ff0c57e16840df040f15088dc2f81fe391c3923bec73e23a9662efc9c229c6a008054600160401b810460ff1615906001600160401b03165f81158015610e515750825b90505f826001600160401b03166001148015610e6c5750303b155b905081158015610e7a575080155b15610e985760405163f92ee8a960e01b815260040160405180910390fd5b845467ffffffffffffffff191660011785558315610ec257845460ff60401b1916600160401b1785555b610eca6117d8565b8315610f1057845460ff60401b19168555604051600181527fc7f505b2f371ae2175ee4913f4499e1f2633a7b5936321eed1cdaeb6115181d29060200160405180910390a15b5050505050565b5f9182525f80516020612485833981519152602090815260408084206001600160a01b0393909316845291905290205460ff1690565b5f610f57816114ff565b5f8054604080516392a2ebf360e01b815290516001600160a01b03909216926392a2ebf39260048084019382900301818387803b158015610f96575f80fd5b505af1158015610f10573d5f803e3d5ffd5b7ff0c57e16840df040f15088dc2f81fe391c3923bec73e23a9662efc9c229c6a008054600160401b810460ff1615906001600160401b03165f81158015610fec5750825b90505f826001600160401b031660011480156110075750303b155b905081158015611015575080155b156110335760405163f92ee8a960e01b815260040160405180910390fd5b845467ffffffffffffffff19166001178555831561105d57845460ff60401b1916600160401b1785555b6110656117e4565b5f80546001600160a01b0319166001600160a01b038c16908117909155600189905560028a9055604051631a6e609f60e31b815263d37304f8906110af908a908a906004016123e0565b5f604051808303815f87803b1580156110c6575f80fd5b505af11580156110d8573d5f803e3d5ffd5b505050506110e533610b48565b6110ee3361133a565b831561113457845460ff60401b19168555604051600181527fc7f505b2f371ae2175ee4913f4499e1f2633a7b5936321eed1cdaeb6115181d29060200160405180910390a15b50505050505050505050565b5f610a0d61114c611152565b836111d0565b5f8054604051634d3223a560e01b81523060048201526001600160a01b0390911690634d3223a5906024015b602060405180830381865afa158015611199573d5f803e3d5ffd5b505050506040513d601f19601f82011682018060405250810190610ab89190612313565b5f610b416111c9611152565b8484610abd565b5f8054604051635cdf315560e01b8152306004820152602481018590526001600160a01b03848116604483015290911690635cdf315590606401602060405180830381865afa158015611225573d5f803e3d5ffd5b505050506040513d601f19601f82011682018060405250810190610b419190612313565b5f80516020612445833981519152611260816114ff565b506039805460ff1916911515919091179055565b61127d82610b6d565b611286816114ff565b610ba983836115aa565b60395460ff16806112b357506112b35f805160206124a583398151915233610f17565b6113045760405162461bcd60e51b815260206004820152601d60248201527f554e415554484f52495a45445f424c4f434b5f434f4d4d49544d454e5400000060448201526064015b60405180910390fd5b5f5b8151811015610b695761133233838381518110611325576113256122ff565b60200260200101516117f6565b600101611306565b5f80516020612445833981519152611351816114ff565b610b695f805160206124a583398151915283610b8d565b5f8054604051631868e3ff60e31b81523060048201526001600160a01b039091169063c3471ff89060240161117e565b5f805460405163010913cb60e71b81523060048201526001600160a01b0390911690638489e5809060240161117e565b5f8054604051636ae501ef60e11b815230600482015282916001600160a01b03169063d5ca03de906024015f60405180830381865afa15801561140d573d5f803e3d5ffd5b505050506040513d5f823e601f3d908101601f19168201604052611434919081019061232a565b90505f805b825181101561147a5761146686848381518110611458576114586122ff565b602002602001015187610abd565b61147090836123cd565b9150600101611439565b50949350505050565b60395460ff16806114a657506114a65f805160206124a583398151915233610f17565b6114f25760405162461bcd60e51b815260206004820152601d60248201527f554e415554484f52495a45445f424c4f434b5f434f4d4d49544d454e5400000060448201526064016112fb565b6114fc33826117f6565b50565b6114fc8133611976565b5f5f805160206124858339815191526115228484610f17565b6115a1575f848152602082815260408083206001600160a01b03871684529091529020805460ff191660011790556115573390565b6001600160a01b0316836001600160a01b0316857f2f8788117e7eff1d82e926ec794901d17c78024a50270940304540a733656f0d60405160405180910390a46001915050610a0d565b5f915050610a0d565b5f5f805160206124858339815191526115c38484610f17565b156115a1575f848152602082815260408083206001600160a01b0387168085529252808320805460ff1916905551339287917ff6391f5c32d9c69d2a47ea670b442974b53935d1edc7fd64eb21e047a839171b9190a46001915050610a0d565b306001600160a01b037f00000000000000000000000000000000000000000000000000000000000000001614806116a957507f00000000000000000000000000000000000000000000000000000000000000006001600160a01b031661169d5f80516020612465833981519152546001600160a01b031690565b6001600160a01b031614155b156116c75760405163703e46dd60e11b815260040160405180910390fd5b565b5f610b69816114ff565b816001600160a01b03166352d1902d6040518163ffffffff1660e01b8152600401602060405180830381865afa92505050801561172d575060408051601f3d908101601f1916820190925261172a91810190612313565b60015b61175557604051634c9c8ce360e01b81526001600160a01b03831660048201526024016112fb565b5f80516020612465833981519152811461178557604051632a87526960e21b8152600481018290526024016112fb565b610a6083836119af565b306001600160a01b037f000000000000000000000000000000000000000000000000000000000000000016146116c75760405163703e46dd60e11b815260040160405180910390fd5b6117e0611a04565b6116c75b6117ec611a04565b6114fc5f33611509565b80515f9081526004602090815260408083206001600160a01b03861684529091529020541561183857604051630ae09ad960e41b815260040160405180910390fd5b805160015460025461184a91906123cd565b101561186957604051630ae09ad960e41b815260040160405180910390fd5b80515f90815260036020526040812054900361189857611887611368565b81515f908152600360205260409020555b80515f9081526004602090815260408083206001600160a01b03861684528252808320845181559184015160018301558301516002909101556118da83610ce4565b82515f90815260056020908152604080832082870151845290915281208054929350839290919061190c9084906123cd565b9091555050604080830151602080850151835190815290810184905290917f4c9b7866113ce81c9ece48d2a0f4bb9d89d87f997a851cf3c448ee02f54559fd910160405180910390a25b61196d600254600161196891906123cd565b611a4d565b61195657505050565b6119808282610f17565b610b695760405163e2517d3f60e01b81526001600160a01b0382166004820152602481018390526044016112fb565b6119b882611b5b565b6040516001600160a01b038316907fbc7cd75a20ee27fd9adebab32041f755214dbc6bffa90cc0225b39da2e5c2d3b905f90a28051156119fc57610a608282611bbe565b610b69611c30565b7ff0c57e16840df040f15088dc2f81fe391c3923bec73e23a9662efc9c229c6a0054600160401b900460ff166116c757604051631afcd79f60e31b815260040160405180910390fd5b5f818152600360205260408120545b80611a65611152565b1015611a7857611a73611c4f565b611a5c565b5f6003611a8483610cf6565b611a8f9060026123f8565b611a99919061240f565b90505f611aa4610be2565b90505f5b8151811015611b50575f828281518110611ac457611ac46122ff565b6020908102919091018101515f8981526004835260408082206001600160a01b038416835284528082208151606081018352815480825260018301548288019081526002909301548285015284526005865282842091518452945290205490925085811115611b4557611b3682611ca0565b50600198975050505050505050565b505050600101611aa8565b505f95945050505050565b806001600160a01b03163b5f03611b9057604051634c9c8ce360e01b81526001600160a01b03821660048201526024016112fb565b5f8051602061246583398151915280546001600160a01b0319166001600160a01b0392909216919091179055565b60605f80846001600160a01b031684604051611bda919061242e565b5f60405180830381855af49150503d805f8114611c12576040519150601f19603f3d011682016040523d82523d5f602084013e611c17565b606091505b5091509150611c27858383611d5a565b95945050505050565b34156116c75760405163b398979f60e01b815260040160405180910390fd5b5f805460408051632a21edc760e21b815290516001600160a01b039092169263a887b71c9260048084019382900301818387803b158015611c8e575f80fd5b505af1158015610ba9573d5f803e3d5ffd5b5f611ca9611152565b82515f908152600360205260409020549091508114611cdb5760405163071cab8b60e21b815260040160405180910390fd5b81515f908152600660209081526040918290208451808255828601516001830181905584870151600293840181905592829055845190815292830152917f5b0d1f14085ff88796df21c2944d34c115838925a7bee30850fcacaaf902a379910160405180910390a280611d4c611368565b1115610b6957610b69611c4f565b606082611d6f57611d6a82611db6565b610b41565b8151158015611d8657506001600160a01b0384163b155b15611daf57604051639996b31560e01b81526001600160a01b03851660048201526024016112fb565b5080610b41565b805115611dc65780518082602001fd5b604051630a12f52160e11b815260040160405180910390fd5b5f60208284031215611def575f80fd5b81356001600160e01b031981168114610b41575f80fd5b634e487b7160e01b5f52604160045260245ffd5b604051601f8201601f191681016001600160401b0381118282101715611e4257611e42611e06565b604052919050565b5f6001600160401b03821115611e6257611e62611e06565b5060051b60200190565b6001600160a01b03811681146114fc575f80fd5b5f82601f830112611e8f575f80fd5b8135611ea2611e9d82611e4a565b611e1a565b8082825260208201915060208360051b860101925085831115611ec3575f80fd5b602085015b83811015611ee9578035611edb81611e6c565b835260209283019201611ec8565b5095945050505050565b5f60208284031215611f03575f80fd5b81356001600160401b03811115611f18575f80fd5b611f2484828501611e80565b949350505050565b5f60608284031215611f3c575f80fd5b604051606081016001600160401b0381118282101715611f5e57611f5e611e06565b60409081528335825260208085013590830152928301359281019290925250919050565b5f60608284031215611f92575f80fd5b610b418383611f2c565b5f8060408385031215611fad575f80fd5b823591506020830135611fbf81611e6c565b809150509250929050565b5f60208284031215611fda575f80fd5b5035919050565b5f805f60608486031215611ff3575f80fd5b83359250602084013561200581611e6c565b9150604084013561201581611e6c565b809150509250925092565b5f60208284031215612030575f80fd5b8135610b4181611e6c565b5f8151808452602084019350602083015f5b828110156120745781516001600160a01b031686526020958601959091019060010161204d565b5093949350505050565b602081525f610b41602083018461203b565b5f80604083850312156120a1575f80fd5b82356120ac81611e6c565b915060208301356001600160401b038111156120c6575f80fd5b8301601f810185136120d6575f80fd5b80356001600160401b038111156120ef576120ef611e06565b612102601f8201601f1916602001611e1a565b818152866020838501011115612116575f80fd5b816020840160208301375f602083830101528093505050509250929050565b5f805f805f60a08688031215612149575f80fd5b853561215481611e6c565b945060208601359350604086013592506060860135915060808601356001600160401b03811115612183575f80fd5b61218f88828901611e80565b9150509295509295909350565b602081525f82518060208401528060208501604085015e5f604082850101526040601f19601f83011684010191505092915050565b5f80604083850312156121e2575f80fd5b82356121ed81611e6c565b91506020830135611fbf81611e6c565b5f6020828403121561220d575f80fd5b81358015158114610b41575f80fd5b5f6020828403121561222c575f80fd5b81356001600160401b03811115612241575f80fd5b8201601f81018413612251575f80fd5b803561225f611e9d82611e4a565b80828252602082019150602060608402850101925086831115612280575f80fd5b6020840193505b828410156122ac576122998785611f2c565b8252602082019150606084019350612287565b9695505050505050565b5f805f606084860312156122c8575f80fd5b505081359360208301359350604090920135919050565b5f80604083850312156122f0575f80fd5b50508035926020909101359150565b634e487b7160e01b5f52603260045260245ffd5b5f60208284031215612323575f80fd5b5051919050565b5f6020828403121561233a575f80fd5b81516001600160401b0381111561234f575f80fd5b8201601f8101841361235f575f80fd5b805161236d611e9d82611e4a565b8082825260208201915060208360051b85010192508683111561238e575f80fd5b6020840193505b828410156122ac5783516123a881611e6c565b825260209384019390910190612395565b634e487b7160e01b5f52601160045260245ffd5b80820180821115610a0d57610a0d6123b9565b828152604060208201525f610b3e604083018461203b565b8082028115828204841417610a0d57610a0d6123b9565b5f8261242957634e487b7160e01b5f52601260045260245ffd5b500490565b5f82518060208501845e5f92019182525091905056fedb2bf73e90d393604e56f0a2a54fed3fbd75332bf39c5ea0704b3b6973a3463c360894a13ba1a3210667c828492db98dca3e2076cc3735a920a3ca505d382bbc02dd7bc7dec4dceedda775e58dd541e08a116c6c53815c0bd028192f7b626800981fe5f60e354ed88ff0544e367c13a4d3342da7c82eb6627f804b747e046e18a2646970667358221220107d1d3791cb66329fad344eadb5af2121210b68721252d10c622464ef0db16064736f6c634300081a0033","linkReferences":{}},"methodIdentifiers":{"COMMITMENT_ADMIN()":"80e460f0","DEFAULT_ADMIN_ROLE()":"a217fddf","TRUSTED_ATTESTER()":"5db916ab","UPGRADE_INTERFACE_VERSION()":"ad3cb1cc","acceptGenesisCeremony()":"92a2ebf3","acceptedBlocks(uint256)":"1c4e4e27","addCommitmentAdmin(address)":"232f9161","addTrustedAttester(address)":"ec0abf7a","batchAddCommitmentAdmin(address[])":"0804c1d8","batchAddTrustedAttester(address[])":"7624ffd4","blockHeightEpochAssignments(uint256)":"20e0e445","commitmentStakes(uint256,bytes32)":"fc2788ad","commitments(uint256,address)":"e90d4c06","computeAllCurrentEpochStake(address)":"60fea5dd","computeAllStakeAtEpoch(uint256,address)":"f34d002a","computeAllTotalStakeForCurrentEpoch()":"1dfcce8c","computeAllTotalStakeForEpoch(uint256)":"6542384f","createBlockCommitment(uint256,bytes32,bytes32)":"ee96da05","forceLatestCommitment((uint256,bytes32,bytes32))":"08c7050f","getAcceptedCommitmentAtBlockHeight(uint256)":"e1ffa44c","getAttesters()":"4ed7e435","getCurrentEpoch()":"b97dd9e2","getCurrentEpochStake(address,address)":"bc90afbb","getEpochByBlockTime()":"ee377d90","getMaxTolerableBlockHeight()":"74e8e564","getNextEpoch()":"efe97d05","getRoleAdmin(bytes32)":"248a9ca3","getStakeAtEpoch(uint256,address,address)":"1faea1ed","getTotalStakeForCurrentEpoch(address)":"b274a935","getTotalStakeForEpoch(uint256,address)":"c6e1b9db","getValidatorCommitmentAtBlockHeight(uint256,address)":"0a0b81cc","grantRole(bytes32,address)":"2f2ff15d","hasRole(bytes32,address)":"91d14854","initialize()":"8129fc1c","initialize(address,uint256,uint256,uint256,address[])":"a3df415f","lastAcceptedBlockHeight()":"6b588ac7","leadingBlockTolerance()":"1cfa2516","openAttestationEnabled()":"ef9ae15c","proxiableUUID()":"52d1902d","renounceRole(bytes32,address)":"36568abe","revokeRole(bytes32,address)":"d547741f","setAcceptedCommitmentAtBlockHeight((uint256,bytes32,bytes32))":"53cd9e3c","setLastAcceptedBlockHeight(uint256)":"5a912c83","setOpenAttestationEnabled(bool)":"d2526fef","stakingContract()":"ee99205c","submitBatchBlockCommitment((uint256,bytes32,bytes32)[])":"e1b2b222","submitBlockCommitment((uint256,bytes32,bytes32))":"f89fe60b","supportsInterface(bytes4)":"01ffc9a7","upgradeToAndCall(address,bytes)":"4f1ef286"},"storageLayout":{"storage":[{"astId":54814,"contract":"src/settlement/MCR.sol:MCR","label":"stakingContract","offset":0,"slot":"0","type":"t_contract(IMovementStaking)56705"},{"astId":54816,"contract":"src/settlement/MCR.sol:MCR","label":"leadingBlockTolerance","offset":0,"slot":"1","type":"t_uint256"},{"astId":54818,"contract":"src/settlement/MCR.sol:MCR","label":"lastAcceptedBlockHeight","offset":0,"slot":"2","type":"t_uint256"},{"astId":54829,"contract":"src/settlement/MCR.sol:MCR","label":"blockHeightEpochAssignments","offset":0,"slot":"3","type":"t_mapping(t_uint256,t_uint256)"},{"astId":54836,"contract":"src/settlement/MCR.sol:MCR","label":"commitments","offset":0,"slot":"4","type":"t_mapping(t_uint256,t_mapping(t_address,t_struct(BlockCommitment)54825_storage))"},{"astId":54842,"contract":"src/settlement/MCR.sol:MCR","label":"commitmentStakes","offset":0,"slot":"5","type":"t_mapping(t_uint256,t_mapping(t_bytes32,t_uint256))"},{"astId":54847,"contract":"src/settlement/MCR.sol:MCR","label":"acceptedBlocks","offset":0,"slot":"6","type":"t_mapping(t_uint256,t_struct(BlockCommitment)54825_storage)"},{"astId":54851,"contract":"src/settlement/MCR.sol:MCR","label":"__gap","offset":0,"slot":"7","type":"t_array(t_uint256)50_storage"},{"astId":54853,"contract":"src/settlement/MCR.sol:MCR","label":"openAttestationEnabled","offset":0,"slot":"57","type":"t_bool"},{"astId":54857,"contract":"src/settlement/MCR.sol:MCR","label":"__gap2","offset":0,"slot":"58","type":"t_array(t_uint256)50_storage"}],"types":{"t_address":{"encoding":"inplace","label":"address","numberOfBytes":"20"},"t_array(t_uint256)50_storage":{"encoding":"inplace","label":"uint256[50]","numberOfBytes":"1600","base":"t_uint256"},"t_bool":{"encoding":"inplace","label":"bool","numberOfBytes":"1"},"t_bytes32":{"encoding":"inplace","label":"bytes32","numberOfBytes":"32"},"t_contract(IMovementStaking)56705":{"encoding":"inplace","label":"contract IMovementStaking","numberOfBytes":"20"},"t_mapping(t_address,t_struct(BlockCommitment)54825_storage)":{"encoding":"mapping","key":"t_address","label":"mapping(address => struct MCRStorage.BlockCommitment)","numberOfBytes":"32","value":"t_struct(BlockCommitment)54825_storage"},"t_mapping(t_bytes32,t_uint256)":{"encoding":"mapping","key":"t_bytes32","label":"mapping(bytes32 => uint256)","numberOfBytes":"32","value":"t_uint256"},"t_mapping(t_uint256,t_mapping(t_address,t_struct(BlockCommitment)54825_storage))":{"encoding":"mapping","key":"t_uint256","label":"mapping(uint256 => mapping(address => struct MCRStorage.BlockCommitment))","numberOfBytes":"32","value":"t_mapping(t_address,t_struct(BlockCommitment)54825_storage)"},"t_mapping(t_uint256,t_mapping(t_bytes32,t_uint256))":{"encoding":"mapping","key":"t_uint256","label":"mapping(uint256 => mapping(bytes32 => uint256))","numberOfBytes":"32","value":"t_mapping(t_bytes32,t_uint256)"},"t_mapping(t_uint256,t_struct(BlockCommitment)54825_storage)":{"encoding":"mapping","key":"t_uint256","label":"mapping(uint256 => struct MCRStorage.BlockCommitment)","numberOfBytes":"32","value":"t_struct(BlockCommitment)54825_storage"},"t_mapping(t_uint256,t_uint256)":{"encoding":"mapping","key":"t_uint256","label":"mapping(uint256 => uint256)","numberOfBytes":"32","value":"t_uint256"},"t_struct(BlockCommitment)54825_storage":{"encoding":"inplace","label":"struct MCRStorage.BlockCommitment","numberOfBytes":"96","members":[{"astId":54820,"contract":"src/settlement/MCR.sol:MCR","label":"height","offset":0,"slot":"0","type":"t_uint256"},{"astId":54822,"contract":"src/settlement/MCR.sol:MCR","label":"commitment","offset":0,"slot":"1","type":"t_bytes32"},{"astId":54824,"contract":"src/settlement/MCR.sol:MCR","label":"blockId","offset":0,"slot":"2","type":"t_bytes32"}]},"t_uint256":{"encoding":"inplace","label":"uint256","numberOfBytes":"32"}}},"id":104}