{"abi":[{"type":"function","name":"DEFAULT_ADMIN_ROLE","inputs":[],"outputs":[{"name":"","type":"bytes32","internalType":"bytes32"}],"stateMutability":"view"},{"type":"function","name":"UPGRADE_INTERFACE_VERSION","inputs":[],"outputs":[{"name":"","type":"string","internalType":"string"}],"stateMutability":"view"},{"type":"function","name":"acceptGenesisCeremony","inputs":[],"outputs":[],"stateMutability":"nonpayable"},{"type":"function","name":"acceptedBlocks","inputs":[{"name":"blockHeight","type":"uint256","internalType":"uint256"}],"outputs":[{"name":"height","type":"uint256","internalType":"uint256"},{"name":"commitment","type":"bytes32","internalType":"bytes32"},{"name":"blockId","type":"bytes32","internalType":"bytes32"}],"stateMutability":"view"},{"type":"function","name":"blockHeightEpochAssignments","inputs":[{"name":"blockHeight","type":"uint256","internalType":"uint256"}],"outputs":[{"name":"epoch","type":"uint256","internalType":"uint256"}],"stateMutability":"view"},{"type":"function","name":"commitmentStakes","inputs":[{"name":"blockHeight","type":"uint256","internalType":"uint256"},{"name":"commitement","type":"bytes32","internalType":"bytes32"}],"outputs":[{"name":"stake","type":"uint256","internalType":"uint256"}],"stateMutability":"view"},{"type":"function","name":"commitments","inputs":[{"name":"blockHeight","type":"uint256","internalType":"uint256"},{"name":"attester","type":"address","internalType":"address"}],"outputs":[{"name":"height","type":"uint256","internalType":"uint256"},{"name":"commitment","type":"bytes32","internalType":"bytes32"},{"name":"blockId","type":"bytes32","internalType":"bytes32"}],"stateMutability":"view"},{"type":"function","name":"computeAllCurrentEpochStake","inputs":[{"name":"attester","type":"address","internalType":"address"}],"outputs":[{"name":"","type":"uint256","internalType":"uint256"}],"stateMutability":"view"},{"type":"function","name":"computeAllStakeAtEpoch","inputs":[{"name":"epoch","type":"uint256","internalType":"uint256"},{"name":"attester","type":"address","internalType":"address"}],"outputs":[{"name":"","type":"uint256","internalType":"uint256"}],"stateMutability":"view"},{"type":"function","name":"computeAllTotalStakeForCurrentEpoch","inputs":[],"outputs":[{"name":"","type":"uint256","internalType":"uint256"}],"stateMutability":"view"},{"type":"function","name":"computeAllTotalStakeForEpoch","inputs":[{"name":"epoch","type":"uint256","internalType":"uint256"}],"outputs":[{"name":"","type":"uint256","internalType":"uint256"}],"stateMutability":"view"},{"type":"function","name":"createBlockCommitment","inputs":[{"name":"height","type":"uint256","internalType":"uint256"},{"name":"commitment","type":"bytes32","internalType":"bytes32"},{"name":"blockId","type":"bytes32","internalType":"bytes32"}],"outputs":[{"name":"","type":"tuple","internalType":"struct MCRStorage.BlockCommitment","components":[{"name":"height","type":"uint256","internalType":"uint256"},{"name":"commitment","type":"bytes32","internalType":"bytes32"},{"name":"blockId","type":"bytes32","internalType":"bytes32"}]}],"stateMutability":"pure"},{"type":"function","name":"getAcceptedCommitmentAtBlockHeight","inputs":[{"name":"height","type":"uint256","internalType":"uint256"}],"outputs":[{"name":"","type":"tuple","internalType":"struct MCRStorage.BlockCommitment","components":[{"name":"height","type":"uint256","internalType":"uint256"},{"name":"commitment","type":"bytes32","internalType":"bytes32"},{"name":"blockId","type":"bytes32","internalType":"bytes32"}]}],"stateMutability":"view"},{"type":"function","name":"getAttesters","inputs":[],"outputs":[{"name":"","type":"address[]","internalType":"address[]"}],"stateMutability":"view"},{"type":"function","name":"getCurrentEpoch","inputs":[],"outputs":[{"name":"","type":"uint256","internalType":"uint256"}],"stateMutability":"view"},{"type":"function","name":"getCurrentEpochStake","inputs":[{"name":"custodian","type":"address","internalType":"address"},{"name":"attester","type":"address","internalType":"address"}],"outputs":[{"name":"","type":"uint256","internalType":"uint256"}],"stateMutability":"view"},{"type":"function","name":"getEpochByBlockTime","inputs":[],"outputs":[{"name":"","type":"uint256","internalType":"uint256"}],"stateMutability":"view"},{"type":"function","name":"getMaxTolerableBlockHeight","inputs":[],"outputs":[{"name":"","type":"uint256","internalType":"uint256"}],"stateMutability":"view"},{"type":"function","name":"getNextEpoch","inputs":[],"outputs":[{"name":"","type":"uint256","internalType":"uint256"}],"stateMutability":"view"},{"type":"function","name":"getRoleAdmin","inputs":[{"name":"role","type":"bytes32","internalType":"bytes32"}],"outputs":[{"name":"","type":"bytes32","internalType":"bytes32"}],"stateMutability":"view"},{"type":"function","name":"getStakeAtEpoch","inputs":[{"name":"epoch","type":"uint256","internalType":"uint256"},{"name":"custodian","type":"address","internalType":"address"},{"name":"attester","type":"address","internalType":"address"}],"outputs":[{"name":"","type":"uint256","internalType":"uint256"}],"stateMutability":"view"},{"type":"function","name":"getTotalStakeForCurrentEpoch","inputs":[{"name":"custodian","type":"address","internalType":"address"}],"outputs":[{"name":"","type":"uint256","internalType":"uint256"}],"stateMutability":"view"},{"type":"function","name":"getTotalStakeForEpoch","inputs":[{"name":"epoch","type":"uint256","internalType":"uint256"},{"name":"custodian","type":"address","internalType":"address"}],"outputs":[{"name":"","type":"uint256","internalType":"uint256"}],"stateMutability":"view"},{"type":"function","name":"getValidatorCommitmentAtBlockHeight","inputs":[{"name":"height","type":"uint256","internalType":"uint256"},{"name":"attester","type":"address","internalType":"address"}],"outputs":[{"name":"","type":"tuple","internalType":"struct MCRStorage.BlockCommitment","components":[{"name":"height","type":"uint256","internalType":"uint256"},{"name":"commitment","type":"bytes32","internalType":"bytes32"},{"name":"blockId","type":"bytes32","internalType":"bytes32"}]}],"stateMutability":"view"},{"type":"function","name":"grantRole","inputs":[{"name":"role","type":"bytes32","internalType":"bytes32"},{"name":"account","type":"address","internalType":"address"}],"outputs":[],"stateMutability":"nonpayable"},{"type":"function","name":"hasRole","inputs":[{"name":"role","type":"bytes32","internalType":"bytes32"},{"name":"account","type":"address","internalType":"address"}],"outputs":[{"name":"","type":"bool","internalType":"bool"}],"stateMutability":"view"},{"type":"function","name":"initialize","inputs":[],"outputs":[],"stateMutability":"nonpayable"},{"type":"function","name":"initialize","inputs":[{"name":"_stakingContract","type":"address","internalType":"contract IMovementStaking"},{"name":"_lastAcceptedBlockHeight","type":"uint256","internalType":"uint256"},{"name":"_leadingBlockTolerance","type":"uint256","internalType":"uint256"},{"name":"_epochDuration","type":"uint256","internalType":"uint256"},{"name":"_custodians","type":"address[]","internalType":"address[]"}],"outputs":[],"stateMutability":"nonpayable"},{"type":"function","name":"lastAcceptedBlockHeight","inputs":[],"outputs":[{"name":"","type":"uint256","internalType":"uint256"}],"stateMutability":"view"},{"type":"function","name":"leadingBlockTolerance","inputs":[],"outputs":[{"name":"","type":"uint256","internalType":"uint256"}],"stateMutability":"view"},{"type":"function","name":"proxiableUUID","inputs":[],"outputs":[{"name":"","type":"bytes32","internalType":"bytes32"}],"stateMutability":"view"},{"type":"function","name":"renounceRole","inputs":[{"name":"role","type":"bytes32","internalType":"bytes32"},{"name":"callerConfirmation","type":"address","internalType":"address"}],"outputs":[],"stateMutability":"nonpayable"},{"type":"function","name":"revokeRole","inputs":[{"name":"role","type":"bytes32","internalType":"bytes32"},{"name":"account","type":"address","internalType":"address"}],"outputs":[],"stateMutability":"nonpayable"},{"type":"function","name":"stakingContract","inputs":[],"outputs":[{"name":"","type":"address","internalType":"contract IMovementStaking"}],"stateMutability":"view"},{"type":"function","name":"submitBatchBlockCommitment","inputs":[{"name":"blockCommitments","type":"tuple[]","internalType":"struct MCRStorage.BlockCommitment[]","components":[{"name":"height","type":"uint256","internalType":"uint256"},{"name":"commitment","type":"bytes32","internalType":"bytes32"},{"name":"blockId","type":"bytes32","internalType":"bytes32"}]}],"outputs":[],"stateMutability":"nonpayable"},{"type":"function","name":"submitBlockCommitment","inputs":[{"name":"blockCommitment","type":"tuple","internalType":"struct MCRStorage.BlockCommitment","components":[{"name":"height","type":"uint256","internalType":"uint256"},{"name":"commitment","type":"bytes32","internalType":"bytes32"},{"name":"blockId","type":"bytes32","internalType":"bytes32"}]}],"outputs":[],"stateMutability":"nonpayable"},{"type":"function","name":"supportsInterface","inputs":[{"name":"interfaceId","type":"bytes4","internalType":"bytes4"}],"outputs":[{"name":"","type":"bool","internalType":"bool"}],"stateMutability":"view"},{"type":"function","name":"upgradeToAndCall","inputs":[{"name":"newImplementation","type":"address","internalType":"address"},{"name":"data","type":"bytes","internalType":"bytes"}],"outputs":[],"stateMutability":"payable"},{"type":"event","name":"BlockAccepted","inputs":[{"name":"blockHash","type":"bytes32","indexed":true,"internalType":"bytes32"},{"name":"stateCommitment","type":"bytes32","indexed":false,"internalType":"bytes32"},{"name":"height","type":"uint256","indexed":false,"internalType":"uint256"}],"anonymous":false},{"type":"event","name":"BlockCommitmentSubmitted","inputs":[{"name":"blockHash","type":"bytes32","indexed":true,"internalType":"bytes32"},{"name":"stateCommitment","type":"bytes32","indexed":false,"internalType":"bytes32"},{"name":"attesterStake","type":"uint256","indexed":false,"internalType":"uint256"}],"anonymous":false},{"type":"event","name":"Initialized","inputs":[{"name":"version","type":"uint64","indexed":false,"internalType":"uint64"}],"anonymous":false},{"type":"event","name":"RoleAdminChanged","inputs":[{"name":"role","type":"bytes32","indexed":true,"internalType":"bytes32"},{"name":"previousAdminRole","type":"bytes32","indexed":true,"internalType":"bytes32"},{"name":"newAdminRole","type":"bytes32","indexed":true,"internalType":"bytes32"}],"anonymous":false},{"type":"event","name":"RoleGranted","inputs":[{"name":"role","type":"bytes32","indexed":true,"internalType":"bytes32"},{"name":"account","type":"address","indexed":true,"internalType":"address"},{"name":"sender","type":"address","indexed":true,"internalType":"address"}],"anonymous":false},{"type":"event","name":"RoleRevoked","inputs":[{"name":"role","type":"bytes32","indexed":true,"internalType":"bytes32"},{"name":"account","type":"address","indexed":true,"internalType":"address"},{"name":"sender","type":"address","indexed":true,"internalType":"address"}],"anonymous":false},{"type":"event","name":"Upgraded","inputs":[{"name":"implementation","type":"address","indexed":true,"internalType":"address"}],"anonymous":false},{"type":"error","name":"AccessControlBadConfirmation","inputs":[]},{"type":"error","name":"AccessControlUnauthorizedAccount","inputs":[{"name":"account","type":"address","internalType":"address"},{"name":"neededRole","type":"bytes32","internalType":"bytes32"}]},{"type":"error","name":"AddressEmptyCode","inputs":[{"name":"target","type":"address","internalType":"address"}]},{"type":"error","name":"AttesterAlreadyCommitted","inputs":[]},{"type":"error","name":"ERC1967InvalidImplementation","inputs":[{"name":"implementation","type":"address","internalType":"address"}]},{"type":"error","name":"ERC1967NonPayable","inputs":[]},{"type":"error","name":"FailedInnerCall","inputs":[]},{"type":"error","name":"InvalidInitialization","inputs":[]},{"type":"error","name":"NotInitializing","inputs":[]},{"type":"error","name":"UUPSUnauthorizedCallContext","inputs":[]},{"type":"error","name":"UUPSUnsupportedProxiableUUID","inputs":[{"name":"slot","type":"bytes32","internalType":"bytes32"}]},{"type":"error","name":"UnacceptableBlockCommitment","inputs":[]}],"bytecode":{"object":"0x60a0604052306080523480156012575f80fd5b506080516120ac6100395f395f81816111a8015281816111d1015261131901526120ac5ff3fe60806040526004361061021d575f3560e01c806392a2ebf31161011e578063e1b2b222116100a8578063ee99205c1161006d578063ee99205c14610746578063efe97d051461077c578063f34d002a14610790578063f89fe60b146107af578063fc2788ad146107ce575f80fd5b8063e1b2b2221461061e578063e1ffa44c1461063d578063e90d4c06146106a1578063ee377d90146106e6578063ee96da05146106fa575f80fd5b8063b274a935116100ee578063b274a9351461058e578063b97dd9e2146105ad578063bc90afbb146105c1578063c6e1b9db146105e0578063d547741f146105ff575f80fd5b806392a2ebf31461050b578063a217fddf1461051f578063a3df415f14610532578063ad3cb1cc14610551575f80fd5b806336568abe116101aa5780636542384f1161016f5780636542384f146104905780636b588ac7146104af57806374e8e564146104c45780638129fc1c146104d857806391d14854146104ec575f80fd5b806336568abe1461040a5780634ed7e435146104295780634f1ef2861461044a57806352d1902d1461045d57806360fea5dd14610471575f80fd5b80631dfcce8c116101f05780631dfcce8c1461036c5780631faea1ed1461038057806320e0e4451461039f578063248a9ca3146103ca5780632f2ff15d146103e9575f80fd5b806301ffc9a7146102215780630a0b81cc146102555780631c4e4e27146102f45780631cfa251614610349575b5f80fd5b34801561022c575f80fd5b5061024061023b366004611a01565b610804565b60405190151581526020015b60405180910390f35b348015610260575f80fd5b506102d261026f366004611a3c565b60408051606080820183525f8083526020808401829052928401819052948552600482528285206001600160a01b039490941685529281529281902081519283018252805483526001810154938301939093526002909201549181019190915290565b604080518251815260208084015190820152918101519082015260600161024c565b3480156102ff575f80fd5b5061032e61030e366004611a6a565b60066020525f908152604090208054600182015460029092015490919083565b6040805193845260208401929092529082015260600161024c565b348015610354575f80fd5b5061035e60015481565b60405190815260200161024c565b348015610377575f80fd5b5061035e61083a565b34801561038b575f80fd5b5061035e61039a366004611a81565b61084b565b3480156103aa575f80fd5b5061035e6103b9366004611a6a565b60036020525f908152604090205481565b3480156103d5575f80fd5b5061035e6103e4366004611a6a565b6108d6565b3480156103f4575f80fd5b50610408610403366004611a3c565b6108f6565b005b348015610415575f80fd5b50610408610424366004611a3c565b610918565b348015610434575f80fd5b5061043d610950565b60405161024c9190611b03565b610408610458366004611b5a565b6109bc565b348015610468575f80fd5b5061035e6109db565b34801561047c575f80fd5b5061035e61048b366004611c01565b6109f6565b34801561049b575f80fd5b5061035e6104aa366004611a6a565b610a08565b3480156104ba575f80fd5b5061035e60025481565b3480156104cf575f80fd5b5061035e610ac1565b3480156104e3575f80fd5b50610408610ad2565b3480156104f7575f80fd5b50610240610506366004611a3c565b610bde565b348015610516575f80fd5b50610408610c14565b34801561052a575f80fd5b5061035e5f81565b34801561053d575f80fd5b5061040861054c366004611c3f565b610c6f565b34801561055c575f80fd5b50610581604051806040016040528060058152602001640352e302e360dc1b81525081565b60405161024c9190611d3c565b348015610599575f80fd5b5061035e6105a8366004611c01565b610df7565b3480156105b8575f80fd5b5061035e610e09565b3480156105cc575f80fd5b5061035e6105db366004611d4e565b610e74565b3480156105eb575f80fd5b5061035e6105fa366004611a3c565b610e87565b34801561060a575f80fd5b50610408610619366004611a3c565b610f00565b348015610629575f80fd5b50610408610638366004611dd1565b610f1c565b348015610648575f80fd5b506102d2610657366004611a6a565b60408051606080820183525f808352602080840182905292840181905293845260068252928290208251938401835280548452600181015491840191909152600201549082015290565b3480156106ac575f80fd5b5061032e6106bb366004611a3c565b600460209081525f928352604080842090915290825290208054600182015460029092015490919083565b3480156106f1575f80fd5b5061035e610f51565b348015610705575f80fd5b506102d2610714366004611e6c565b60408051606080820183525f808352602080840182905292840152825190810183529485528401929092529082015290565b348015610751575f80fd5b505f54610764906001600160a01b031681565b6040516001600160a01b03909116815260200161024c565b348015610787575f80fd5b5061035e610f81565b34801561079b575f80fd5b5061035e6107aa366004611a3c565b610fb1565b3480156107ba575f80fd5b506104086107c9366004611e95565b61106c565b3480156107d9575f80fd5b5061035e6107e8366004611eaf565b600560209081525f928352604080842090915290825290205481565b5f6001600160e01b03198216637965db0b60e01b148061083457506301ffc9a760e01b6001600160e01b03198316145b92915050565b5f6108466104aa610e09565b905090565b5f80546040516311b2104b60e31b8152306004820152602481018690526001600160a01b038581166044830152848116606483015290911690638d90825890608401602060405180830381865afa1580156108a8573d5f803e3d5ffd5b505050506040513d601f19601f820116820180604052508101906108cc9190611ecf565b90505b9392505050565b5f9081525f80516020612057833981519152602052604090206001015490565b6108ff826108d6565b61090881611079565b6109128383611083565b50505050565b6001600160a01b03811633146109415760405163334bd91960e11b815260040160405180910390fd5b61094b8282611124565b505050565b5f54604051632924b73b60e01b81523060048201526060916001600160a01b031690632924b73b906024015f60405180830381865afa158015610995573d5f803e3d5ffd5b505050506040513d5f823e601f3d908101601f191682016040526108469190810190611ee6565b6109c461119d565b6109cd82611243565b6109d7828261124d565b5050565b5f6109e461130e565b505f8051602061203783398151915290565b5f610834610a02610e09565b83610fb1565b5f8054604051636ae501ef60e11b815230600482015282916001600160a01b03169063d5ca03de906024015f60405180830381865afa158015610a4d573d5f803e3d5ffd5b505050506040513d5f823e601f3d908101601f19168201604052610a749190810190611ee6565b90505f805b8251811015610ab957610aa585848381518110610a9857610a98611f76565b6020026020010151610e87565b610aaf9083611f9e565b9150600101610a79565b509392505050565b5f6001546002546108469190611f9e565b7ff0c57e16840df040f15088dc2f81fe391c3923bec73e23a9662efc9c229c6a008054600160401b810460ff16159067ffffffffffffffff165f81158015610b175750825b90505f8267ffffffffffffffff166001148015610b335750303b155b905081158015610b41575080155b15610b5f5760405163f92ee8a960e01b815260040160405180910390fd5b845467ffffffffffffffff191660011785558315610b8957845460ff60401b1916600160401b1785555b610b91611357565b8315610bd757845460ff60401b19168555604051600181527fc7f505b2f371ae2175ee4913f4499e1f2633a7b5936321eed1cdaeb6115181d29060200160405180910390a15b5050505050565b5f9182525f80516020612057833981519152602090815260408084206001600160a01b0393909316845291905290205460ff1690565b5f610c1e81611079565b5f8054604080516392a2ebf360e01b815290516001600160a01b03909216926392a2ebf39260048084019382900301818387803b158015610c5d575f80fd5b505af1158015610bd7573d5f803e3d5ffd5b7ff0c57e16840df040f15088dc2f81fe391c3923bec73e23a9662efc9c229c6a008054600160401b810460ff16159067ffffffffffffffff165f81158015610cb45750825b90505f8267ffffffffffffffff166001148015610cd05750303b155b905081158015610cde575080155b15610cfc5760405163f92ee8a960e01b815260040160405180910390fd5b845467ffffffffffffffff191660011785558315610d2657845460ff60401b1916600160401b1785555b610d2e611363565b5f80546001600160a01b0319166001600160a01b038c16908117909155600189905560028a9055604051631a6e609f60e31b815263d37304f890610d78908a908a90600401611fb1565b5f604051808303815f87803b158015610d8f575f80fd5b505af1158015610da1573d5f803e3d5ffd5b505050508315610deb57845460ff60401b19168555604051600181527fc7f505b2f371ae2175ee4913f4499e1f2633a7b5936321eed1cdaeb6115181d29060200160405180910390a15b50505050505050505050565b5f610834610e03610e09565b83610e87565b5f8054604051634d3223a560e01b81523060048201526001600160a01b0390911690634d3223a5906024015b602060405180830381865afa158015610e50573d5f803e3d5ffd5b505050506040513d601f19601f820116820180604052508101906108469190611ecf565b5f6108cf610e80610e09565b848461084b565b5f8054604051635cdf315560e01b8152306004820152602481018590526001600160a01b03848116604483015290911690635cdf315590606401602060405180830381865afa158015610edc573d5f803e3d5ffd5b505050506040513d601f19601f820116820180604052508101906108cf9190611ecf565b610f09826108d6565b610f1281611079565b6109128383611124565b5f5b81518110156109d757610f49828281518110610f3c57610f3c611f76565b602002602001015161106c565b600101610f1e565b5f8054604051631868e3ff60e31b81523060048201526001600160a01b039091169063c3471ff890602401610e35565b5f805460405163010913cb60e71b81523060048201526001600160a01b0390911690638489e58090602401610e35565b5f8054604051636ae501ef60e11b815230600482015282916001600160a01b03169063d5ca03de906024015f60405180830381865afa158015610ff6573d5f803e3d5ffd5b505050506040513d5f823e601f3d908101601f1916820160405261101d9190810190611ee6565b90505f805b82518110156110635761104f8684838151811061104157611041611f76565b60200260200101518761084b565b6110599083611f9e565b9150600101611022565b50949350505050565b6110763382611375565b50565b61107681336114f5565b5f5f8051602061205783398151915261109c8484610bde565b61111b575f848152602082815260408083206001600160a01b03871684529091529020805460ff191660011790556110d13390565b6001600160a01b0316836001600160a01b0316857f2f8788117e7eff1d82e926ec794901d17c78024a50270940304540a733656f0d60405160405180910390a46001915050610834565b5f915050610834565b5f5f8051602061205783398151915261113d8484610bde565b1561111b575f848152602082815260408083206001600160a01b0387168085529252808320805460ff1916905551339287917ff6391f5c32d9c69d2a47ea670b442974b53935d1edc7fd64eb21e047a839171b9190a46001915050610834565b306001600160a01b037f000000000000000000000000000000000000000000000000000000000000000016148061122357507f00000000000000000000000000000000000000000000000000000000000000006001600160a01b03166112175f80516020612037833981519152546001600160a01b031690565b6001600160a01b031614155b156112415760405163703e46dd60e11b815260040160405180910390fd5b565b5f6109d781611079565b816001600160a01b03166352d1902d6040518163ffffffff1660e01b8152600401602060405180830381865afa9250505080156112a7575060408051601f3d908101601f191682019092526112a491810190611ecf565b60015b6112d457604051634c9c8ce360e01b81526001600160a01b03831660048201526024015b60405180910390fd5b5f80516020612037833981519152811461130457604051632a87526960e21b8152600481018290526024016112cb565b61094b838361152e565b306001600160a01b037f000000000000000000000000000000000000000000000000000000000000000016146112415760405163703e46dd60e11b815260040160405180910390fd5b61135f611583565b6112415b61136b611583565b6110765f33611083565b80515f9081526004602090815260408083206001600160a01b0386168452909152902054156113b757604051630ae09ad960e41b815260040160405180910390fd5b80516001546002546113c99190611f9e565b10156113e857604051630ae09ad960e41b815260040160405180910390fd5b80515f90815260036020526040812054900361141757611406610f51565b81515f908152600360205260409020555b80515f9081526004602090815260408083206001600160a01b0386168452825280832084518155918401516001830155830151600290910155611459836109f6565b82515f90815260056020908152604080832082870151845290915281208054929350839290919061148b908490611f9e565b9091555050604080830151602080850151835190815290810184905290917f4c9b7866113ce81c9ece48d2a0f4bb9d89d87f997a851cf3c448ee02f54559fd910160405180910390a25b6114ec60025460016114e79190611f9e565b6115cc565b6114d557505050565b6114ff8282610bde565b6109d75760405163e2517d3f60e01b81526001600160a01b0382166004820152602481018390526044016112cb565b611537826116da565b6040516001600160a01b038316907fbc7cd75a20ee27fd9adebab32041f755214dbc6bffa90cc0225b39da2e5c2d3b905f90a280511561157b5761094b828261173d565b6109d76117af565b7ff0c57e16840df040f15088dc2f81fe391c3923bec73e23a9662efc9c229c6a0054600160401b900460ff1661124157604051631afcd79f60e31b815260040160405180910390fd5b5f818152600360205260408120545b806115e4610e09565b10156115f7576115f26117ce565b6115db565b5f600361160383610a08565b61160e906002611fc9565b6116189190611fe0565b90505f611623610950565b90505f5b81518110156116cf575f82828151811061164357611643611f76565b6020908102919091018101515f8981526004835260408082206001600160a01b0384168352845280822081516060810183528154808252600183015482880190815260029093015482850152845260058652828420915184529452902054909250858111156116c4576116b58261185d565b50600198975050505050505050565b505050600101611627565b505f95945050505050565b806001600160a01b03163b5f0361170f57604051634c9c8ce360e01b81526001600160a01b03821660048201526024016112cb565b5f8051602061203783398151915280546001600160a01b0319166001600160a01b0392909216919091179055565b60605f80846001600160a01b0316846040516117599190611fff565b5f60405180830381855af49150503d805f8114611791576040519150601f19603f3d011682016040523d82523d5f602084013e611796565b606091505b50915091506117a6858383611917565b95945050505050565b34156112415760405163b398979f60e01b815260040160405180910390fd5b61180c60405180604001604052806015815260200174526f6c6c696e67206f7665722065706f636820257360581b815250611807610e09565b611973565b5f805460408051632a21edc760e21b815290516001600160a01b039092169263a887b71c9260048084019382900301818387803b15801561184b575f80fd5b505af1158015610912573d5f803e3d5ffd5b5f611866610e09565b82515f9081526003602052604090205490915081146118985760405163071cab8b60e21b815260040160405180910390fd5b81515f908152600660209081526040918290208451808255828601516001830181905584870151600293840181905592829055845190815292830152917f5b0d1f14085ff88796df21c2944d34c115838925a7bee30850fcacaaf902a379910160405180910390a280611909610f51565b11156109d7576109d76117ce565b60608261192c57611927826119b8565b6108cf565b815115801561194357506001600160a01b0384163b155b1561196c57604051639996b31560e01b81526001600160a01b03851660048201526024016112cb565b50806108cf565b6109d78282604051602401611989929190612015565b60408051601f198184030181529190526020810180516001600160e01b03166309710a9d60e41b1790526119e1565b8051156119c85780518082602001fd5b604051630a12f52160e11b815260040160405180910390fd5b80516a636f6e736f6c652e6c6f67602083015f808483855afa5050505050565b5f60208284031215611a11575f80fd5b81356001600160e01b0319811681146108cf575f80fd5b6001600160a01b0381168114611076575f80fd5b5f8060408385031215611a4d575f80fd5b823591506020830135611a5f81611a28565b809150509250929050565b5f60208284031215611a7a575f80fd5b5035919050565b5f805f60608486031215611a93575f80fd5b833592506020840135611aa581611a28565b91506040840135611ab581611a28565b809150509250925092565b5f8151808452602084019350602083015f5b82811015611af95781516001600160a01b0316865260209586019590910190600101611ad2565b5093949350505050565b602081525f6108cf6020830184611ac0565b634e487b7160e01b5f52604160045260245ffd5b604051601f8201601f1916810167ffffffffffffffff81118282101715611b5257611b52611b15565b604052919050565b5f8060408385031215611b6b575f80fd5b8235611b7681611a28565b9150602083013567ffffffffffffffff811115611b91575f80fd5b8301601f81018513611ba1575f80fd5b803567ffffffffffffffff811115611bbb57611bbb611b15565b611bce601f8201601f1916602001611b29565b818152866020838501011115611be2575f80fd5b816020840160208301375f602083830101528093505050509250929050565b5f60208284031215611c11575f80fd5b81356108cf81611a28565b5f67ffffffffffffffff821115611c3557611c35611b15565b5060051b60200190565b5f805f805f60a08688031215611c53575f80fd5b8535611c5e81611a28565b9450602086013593506040860135925060608601359150608086013567ffffffffffffffff811115611c8e575f80fd5b8601601f81018813611c9e575f80fd5b8035611cb1611cac82611c1c565b611b29565b8082825260208201915060208360051b85010192508a831115611cd2575f80fd5b6020840193505b82841015611cfd578335611cec81611a28565b825260209384019390910190611cd9565b809450505050509295509295909350565b5f81518084528060208401602086015e5f602082860101526020601f19601f83011685010191505092915050565b602081525f6108cf6020830184611d0e565b5f8060408385031215611d5f575f80fd5b8235611d6a81611a28565b91506020830135611a5f81611a28565b5f60608284031215611d8a575f80fd5b6040516060810167ffffffffffffffff81118282101715611dad57611dad611b15565b60409081528335825260208085013590830152928301359281019290925250919050565b5f60208284031215611de1575f80fd5b813567ffffffffffffffff811115611df7575f80fd5b8201601f81018413611e07575f80fd5b8035611e15611cac82611c1c565b80828252602082019150602060608402850101925086831115611e36575f80fd5b6020840193505b82841015611e6257611e4f8785611d7a565b8252602082019150606084019350611e3d565b9695505050505050565b5f805f60608486031215611e7e575f80fd5b505081359360208301359350604090920135919050565b5f60608284031215611ea5575f80fd5b6108cf8383611d7a565b5f8060408385031215611ec0575f80fd5b50508035926020909101359150565b5f60208284031215611edf575f80fd5b5051919050565b5f60208284031215611ef6575f80fd5b815167ffffffffffffffff811115611f0c575f80fd5b8201601f81018413611f1c575f80fd5b8051611f2a611cac82611c1c565b8082825260208201915060208360051b850101925086831115611f4b575f80fd5b6020840193505b82841015611e62578351611f6581611a28565b825260209384019390910190611f52565b634e487b7160e01b5f52603260045260245ffd5b634e487b7160e01b5f52601160045260245ffd5b8082018082111561083457610834611f8a565b828152604060208201525f6108cc6040830184611ac0565b808202811582820484141761083457610834611f8a565b5f82611ffa57634e487b7160e01b5f52601260045260245ffd5b500490565b5f82518060208501845e5f920191825250919050565b604081525f6120276040830185611d0e565b9050826020830152939250505056fe360894a13ba1a3210667c828492db98dca3e2076cc3735a920a3ca505d382bbc02dd7bc7dec4dceedda775e58dd541e08a116c6c53815c0bd028192f7b626800a26469706673582212201da1e5ee2af25cef9a3b85dda1f3fe16f22a4dce32b755c3015d7fe2755a1a1264736f6c634300081a0033","linkReferences":{}},"methodIdentifiers":{"DEFAULT_ADMIN_ROLE()":"a217fddf","UPGRADE_INTERFACE_VERSION()":"ad3cb1cc","acceptGenesisCeremony()":"92a2ebf3","acceptedBlocks(uint256)":"1c4e4e27","blockHeightEpochAssignments(uint256)":"20e0e445","commitmentStakes(uint256,bytes32)":"fc2788ad","commitments(uint256,address)":"e90d4c06","computeAllCurrentEpochStake(address)":"60fea5dd","computeAllStakeAtEpoch(uint256,address)":"f34d002a","computeAllTotalStakeForCurrentEpoch()":"1dfcce8c","computeAllTotalStakeForEpoch(uint256)":"6542384f","createBlockCommitment(uint256,bytes32,bytes32)":"ee96da05","getAcceptedCommitmentAtBlockHeight(uint256)":"e1ffa44c","getAttesters()":"4ed7e435","getCurrentEpoch()":"b97dd9e2","getCurrentEpochStake(address,address)":"bc90afbb","getEpochByBlockTime()":"ee377d90","getMaxTolerableBlockHeight()":"74e8e564","getNextEpoch()":"efe97d05","getRoleAdmin(bytes32)":"248a9ca3","getStakeAtEpoch(uint256,address,address)":"1faea1ed","getTotalStakeForCurrentEpoch(address)":"b274a935","getTotalStakeForEpoch(uint256,address)":"c6e1b9db","getValidatorCommitmentAtBlockHeight(uint256,address)":"0a0b81cc","grantRole(bytes32,address)":"2f2ff15d","hasRole(bytes32,address)":"91d14854","initialize()":"8129fc1c","initialize(address,uint256,uint256,uint256,address[])":"a3df415f","lastAcceptedBlockHeight()":"6b588ac7","leadingBlockTolerance()":"1cfa2516","proxiableUUID()":"52d1902d","renounceRole(bytes32,address)":"36568abe","revokeRole(bytes32,address)":"d547741f","stakingContract()":"ee99205c","submitBatchBlockCommitment((uint256,bytes32,bytes32)[])":"e1b2b222","submitBlockCommitment((uint256,bytes32,bytes32))":"f89fe60b","supportsInterface(bytes4)":"01ffc9a7","upgradeToAndCall(address,bytes)":"4f1ef286"},"storageLayout":{"storage":[{"astId":55629,"contract":"src/settlement/MCR.sol:MCR","label":"stakingContract","offset":0,"slot":"0","type":"t_contract(IMovementStaking)57394"},{"astId":55631,"contract":"src/settlement/MCR.sol:MCR","label":"leadingBlockTolerance","offset":0,"slot":"1","type":"t_uint256"},{"astId":55633,"contract":"src/settlement/MCR.sol:MCR","label":"lastAcceptedBlockHeight","offset":0,"slot":"2","type":"t_uint256"},{"astId":55644,"contract":"src/settlement/MCR.sol:MCR","label":"blockHeightEpochAssignments","offset":0,"slot":"3","type":"t_mapping(t_uint256,t_uint256)"},{"astId":55651,"contract":"src/settlement/MCR.sol:MCR","label":"commitments","offset":0,"slot":"4","type":"t_mapping(t_uint256,t_mapping(t_address,t_struct(BlockCommitment)55640_storage))"},{"astId":55657,"contract":"src/settlement/MCR.sol:MCR","label":"commitmentStakes","offset":0,"slot":"5","type":"t_mapping(t_uint256,t_mapping(t_bytes32,t_uint256))"},{"astId":55662,"contract":"src/settlement/MCR.sol:MCR","label":"acceptedBlocks","offset":0,"slot":"6","type":"t_mapping(t_uint256,t_struct(BlockCommitment)55640_storage)"},{"astId":55666,"contract":"src/settlement/MCR.sol:MCR","label":"__gap","offset":0,"slot":"7","type":"t_array(t_uint256)50_storage"}],"types":{"t_address":{"encoding":"inplace","label":"address","numberOfBytes":"20"},"t_array(t_uint256)50_storage":{"encoding":"inplace","label":"uint256[50]","numberOfBytes":"1600","base":"t_uint256"},"t_bytes32":{"encoding":"inplace","label":"bytes32","numberOfBytes":"32"},"t_contract(IMovementStaking)57394":{"encoding":"inplace","label":"contract IMovementStaking","numberOfBytes":"20"},"t_mapping(t_address,t_struct(BlockCommitment)55640_storage)":{"encoding":"mapping","key":"t_address","label":"mapping(address => struct MCRStorage.BlockCommitment)","numberOfBytes":"32","value":"t_struct(BlockCommitment)55640_storage"},"t_mapping(t_bytes32,t_uint256)":{"encoding":"mapping","key":"t_bytes32","label":"mapping(bytes32 => uint256)","numberOfBytes":"32","value":"t_uint256"},"t_mapping(t_uint256,t_mapping(t_address,t_struct(BlockCommitment)55640_storage))":{"encoding":"mapping","key":"t_uint256","label":"mapping(uint256 => mapping(address => struct MCRStorage.BlockCommitment))","numberOfBytes":"32","value":"t_mapping(t_address,t_struct(BlockCommitment)55640_storage)"},"t_mapping(t_uint256,t_mapping(t_bytes32,t_uint256))":{"encoding":"mapping","key":"t_uint256","label":"mapping(uint256 => mapping(bytes32 => uint256))","numberOfBytes":"32","value":"t_mapping(t_bytes32,t_uint256)"},"t_mapping(t_uint256,t_struct(BlockCommitment)55640_storage)":{"encoding":"mapping","key":"t_uint256","label":"mapping(uint256 => struct MCRStorage.BlockCommitment)","numberOfBytes":"32","value":"t_struct(BlockCommitment)55640_storage"},"t_mapping(t_uint256,t_uint256)":{"encoding":"mapping","key":"t_uint256","label":"mapping(uint256 => uint256)","numberOfBytes":"32","value":"t_uint256"},"t_struct(BlockCommitment)55640_storage":{"encoding":"inplace","label":"struct MCRStorage.BlockCommitment","numberOfBytes":"96","members":[{"astId":55635,"contract":"src/settlement/MCR.sol:MCR","label":"height","offset":0,"slot":"0","type":"t_uint256"},{"astId":55637,"contract":"src/settlement/MCR.sol:MCR","label":"commitment","offset":0,"slot":"1","type":"t_bytes32"},{"astId":55639,"contract":"src/settlement/MCR.sol:MCR","label":"blockId","offset":0,"slot":"2","type":"t_bytes32"}]},"t_uint256":{"encoding":"inplace","label":"uint256","numberOfBytes":"32"}}},"id":64}