{"abi":[{"type":"function","name":"DEFAULT_ADMIN_ROLE","inputs":[],"outputs":[{"name":"","type":"bytes32","internalType":"bytes32"}],"stateMutability":"view"},{"type":"function","name":"UPGRADE_INTERFACE_VERSION","inputs":[],"outputs":[{"name":"","type":"string","internalType":"string"}],"stateMutability":"view"},{"type":"function","name":"acceptedBlocks","inputs":[{"name":"blockHeight","type":"uint256","internalType":"uint256"}],"outputs":[{"name":"height","type":"uint256","internalType":"uint256"},{"name":"commitment","type":"bytes32","internalType":"bytes32"},{"name":"blockId","type":"bytes32","internalType":"bytes32"}],"stateMutability":"view"},{"type":"function","name":"blockHeightEpochAssignments","inputs":[{"name":"blockHeight","type":"uint256","internalType":"uint256"}],"outputs":[{"name":"epoch","type":"uint256","internalType":"uint256"}],"stateMutability":"view"},{"type":"function","name":"commitmentStakes","inputs":[{"name":"blockHeight","type":"uint256","internalType":"uint256"},{"name":"commitement","type":"bytes32","internalType":"bytes32"}],"outputs":[{"name":"stake","type":"uint256","internalType":"uint256"}],"stateMutability":"view"},{"type":"function","name":"commitments","inputs":[{"name":"blockHeight","type":"uint256","internalType":"uint256"},{"name":"attester","type":"address","internalType":"address"}],"outputs":[{"name":"height","type":"uint256","internalType":"uint256"},{"name":"commitment","type":"bytes32","internalType":"bytes32"},{"name":"blockId","type":"bytes32","internalType":"bytes32"}],"stateMutability":"view"},{"type":"function","name":"computeAllCurrentEpochStake","inputs":[{"name":"attester","type":"address","internalType":"address"}],"outputs":[{"name":"","type":"uint256","internalType":"uint256"}],"stateMutability":"view"},{"type":"function","name":"computeAllStakeAtEpoch","inputs":[{"name":"epoch","type":"uint256","internalType":"uint256"},{"name":"attester","type":"address","internalType":"address"}],"outputs":[{"name":"","type":"uint256","internalType":"uint256"}],"stateMutability":"view"},{"type":"function","name":"computeAllTotalStakeForCurrentEpoch","inputs":[],"outputs":[{"name":"","type":"uint256","internalType":"uint256"}],"stateMutability":"view"},{"type":"function","name":"computeAllTotalStakeForEpoch","inputs":[{"name":"epoch","type":"uint256","internalType":"uint256"}],"outputs":[{"name":"","type":"uint256","internalType":"uint256"}],"stateMutability":"view"},{"type":"function","name":"createBlockCommitment","inputs":[{"name":"height","type":"uint256","internalType":"uint256"},{"name":"commitment","type":"bytes32","internalType":"bytes32"},{"name":"blockId","type":"bytes32","internalType":"bytes32"}],"outputs":[{"name":"","type":"tuple","internalType":"struct MCRStorage.BlockCommitment","components":[{"name":"height","type":"uint256","internalType":"uint256"},{"name":"commitment","type":"bytes32","internalType":"bytes32"},{"name":"blockId","type":"bytes32","internalType":"bytes32"}]}],"stateMutability":"pure"},{"type":"function","name":"getAcceptedCommitmentAtBlockHeight","inputs":[{"name":"height","type":"uint256","internalType":"uint256"}],"outputs":[{"name":"","type":"tuple","internalType":"struct MCRStorage.BlockCommitment","components":[{"name":"height","type":"uint256","internalType":"uint256"},{"name":"commitment","type":"bytes32","internalType":"bytes32"},{"name":"blockId","type":"bytes32","internalType":"bytes32"}]}],"stateMutability":"view"},{"type":"function","name":"getAttesters","inputs":[],"outputs":[{"name":"","type":"address[]","internalType":"address[]"}],"stateMutability":"view"},{"type":"function","name":"getCurrentEpoch","inputs":[],"outputs":[{"name":"","type":"uint256","internalType":"uint256"}],"stateMutability":"view"},{"type":"function","name":"getCurrentEpochStake","inputs":[{"name":"custodian","type":"address","internalType":"address"},{"name":"attester","type":"address","internalType":"address"}],"outputs":[{"name":"","type":"uint256","internalType":"uint256"}],"stateMutability":"view"},{"type":"function","name":"getEpochByBlockTime","inputs":[],"outputs":[{"name":"","type":"uint256","internalType":"uint256"}],"stateMutability":"view"},{"type":"function","name":"getMaxTolerableBlockHeight","inputs":[],"outputs":[{"name":"","type":"uint256","internalType":"uint256"}],"stateMutability":"view"},{"type":"function","name":"getNextEpoch","inputs":[],"outputs":[{"name":"","type":"uint256","internalType":"uint256"}],"stateMutability":"view"},{"type":"function","name":"getRoleAdmin","inputs":[{"name":"role","type":"bytes32","internalType":"bytes32"}],"outputs":[{"name":"","type":"bytes32","internalType":"bytes32"}],"stateMutability":"view"},{"type":"function","name":"getStakeAtEpoch","inputs":[{"name":"epoch","type":"uint256","internalType":"uint256"},{"name":"custodian","type":"address","internalType":"address"},{"name":"attester","type":"address","internalType":"address"}],"outputs":[{"name":"","type":"uint256","internalType":"uint256"}],"stateMutability":"view"},{"type":"function","name":"getTotalStakeForCurrentEpoch","inputs":[{"name":"custodian","type":"address","internalType":"address"}],"outputs":[{"name":"","type":"uint256","internalType":"uint256"}],"stateMutability":"view"},{"type":"function","name":"getTotalStakeForEpoch","inputs":[{"name":"epoch","type":"uint256","internalType":"uint256"},{"name":"custodian","type":"address","internalType":"address"}],"outputs":[{"name":"","type":"uint256","internalType":"uint256"}],"stateMutability":"view"},{"type":"function","name":"getValidatorCommitmentAtBlockHeight","inputs":[{"name":"height","type":"uint256","internalType":"uint256"},{"name":"attester","type":"address","internalType":"address"}],"outputs":[{"name":"","type":"tuple","internalType":"struct MCRStorage.BlockCommitment","components":[{"name":"height","type":"uint256","internalType":"uint256"},{"name":"commitment","type":"bytes32","internalType":"bytes32"},{"name":"blockId","type":"bytes32","internalType":"bytes32"}]}],"stateMutability":"view"},{"type":"function","name":"grantRole","inputs":[{"name":"role","type":"bytes32","internalType":"bytes32"},{"name":"account","type":"address","internalType":"address"}],"outputs":[],"stateMutability":"nonpayable"},{"type":"function","name":"hasRole","inputs":[{"name":"role","type":"bytes32","internalType":"bytes32"},{"name":"account","type":"address","internalType":"address"}],"outputs":[{"name":"","type":"bool","internalType":"bool"}],"stateMutability":"view"},{"type":"function","name":"initialize","inputs":[],"outputs":[],"stateMutability":"nonpayable"},{"type":"function","name":"initialize","inputs":[{"name":"_stakingContract","type":"address","internalType":"contract IMovementStaking"},{"name":"_lastAcceptedBlockHeight","type":"uint256","internalType":"uint256"},{"name":"_leadingBlockTolerance","type":"uint256","internalType":"uint256"},{"name":"_epochDuration","type":"uint256","internalType":"uint256"},{"name":"_custodians","type":"address[]","internalType":"address[]"}],"outputs":[],"stateMutability":"nonpayable"},{"type":"function","name":"lastAcceptedBlockHeight","inputs":[],"outputs":[{"name":"","type":"uint256","internalType":"uint256"}],"stateMutability":"view"},{"type":"function","name":"leadingBlockTolerance","inputs":[],"outputs":[{"name":"","type":"uint256","internalType":"uint256"}],"stateMutability":"view"},{"type":"function","name":"proxiableUUID","inputs":[],"outputs":[{"name":"","type":"bytes32","internalType":"bytes32"}],"stateMutability":"view"},{"type":"function","name":"renounceRole","inputs":[{"name":"role","type":"bytes32","internalType":"bytes32"},{"name":"callerConfirmation","type":"address","internalType":"address"}],"outputs":[],"stateMutability":"nonpayable"},{"type":"function","name":"revokeRole","inputs":[{"name":"role","type":"bytes32","internalType":"bytes32"},{"name":"account","type":"address","internalType":"address"}],"outputs":[],"stateMutability":"nonpayable"},{"type":"function","name":"stakingContract","inputs":[],"outputs":[{"name":"","type":"address","internalType":"contract IMovementStaking"}],"stateMutability":"view"},{"type":"function","name":"submitBatchBlockCommitment","inputs":[{"name":"blockCommitments","type":"tuple[]","internalType":"struct MCRStorage.BlockCommitment[]","components":[{"name":"height","type":"uint256","internalType":"uint256"},{"name":"commitment","type":"bytes32","internalType":"bytes32"},{"name":"blockId","type":"bytes32","internalType":"bytes32"}]}],"outputs":[],"stateMutability":"nonpayable"},{"type":"function","name":"submitBlockCommitment","inputs":[{"name":"blockCommitment","type":"tuple","internalType":"struct MCRStorage.BlockCommitment","components":[{"name":"height","type":"uint256","internalType":"uint256"},{"name":"commitment","type":"bytes32","internalType":"bytes32"},{"name":"blockId","type":"bytes32","internalType":"bytes32"}]}],"outputs":[],"stateMutability":"nonpayable"},{"type":"function","name":"supportsInterface","inputs":[{"name":"interfaceId","type":"bytes4","internalType":"bytes4"}],"outputs":[{"name":"","type":"bool","internalType":"bool"}],"stateMutability":"view"},{"type":"function","name":"upgradeToAndCall","inputs":[{"name":"newImplementation","type":"address","internalType":"address"},{"name":"data","type":"bytes","internalType":"bytes"}],"outputs":[],"stateMutability":"payable"},{"type":"event","name":"BlockAccepted","inputs":[{"name":"blockHash","type":"bytes32","indexed":true,"internalType":"bytes32"},{"name":"stateCommitment","type":"bytes32","indexed":false,"internalType":"bytes32"},{"name":"height","type":"uint256","indexed":false,"internalType":"uint256"}],"anonymous":false},{"type":"event","name":"BlockCommitmentSubmitted","inputs":[{"name":"blockHash","type":"bytes32","indexed":true,"internalType":"bytes32"},{"name":"stateCommitment","type":"bytes32","indexed":false,"internalType":"bytes32"},{"name":"attesterStake","type":"uint256","indexed":false,"internalType":"uint256"}],"anonymous":false},{"type":"event","name":"Initialized","inputs":[{"name":"version","type":"uint64","indexed":false,"internalType":"uint64"}],"anonymous":false},{"type":"event","name":"RoleAdminChanged","inputs":[{"name":"role","type":"bytes32","indexed":true,"internalType":"bytes32"},{"name":"previousAdminRole","type":"bytes32","indexed":true,"internalType":"bytes32"},{"name":"newAdminRole","type":"bytes32","indexed":true,"internalType":"bytes32"}],"anonymous":false},{"type":"event","name":"RoleGranted","inputs":[{"name":"role","type":"bytes32","indexed":true,"internalType":"bytes32"},{"name":"account","type":"address","indexed":true,"internalType":"address"},{"name":"sender","type":"address","indexed":true,"internalType":"address"}],"anonymous":false},{"type":"event","name":"RoleRevoked","inputs":[{"name":"role","type":"bytes32","indexed":true,"internalType":"bytes32"},{"name":"account","type":"address","indexed":true,"internalType":"address"},{"name":"sender","type":"address","indexed":true,"internalType":"address"}],"anonymous":false},{"type":"event","name":"Upgraded","inputs":[{"name":"implementation","type":"address","indexed":true,"internalType":"address"}],"anonymous":false},{"type":"error","name":"AccessControlBadConfirmation","inputs":[]},{"type":"error","name":"AccessControlUnauthorizedAccount","inputs":[{"name":"account","type":"address","internalType":"address"},{"name":"neededRole","type":"bytes32","internalType":"bytes32"}]},{"type":"error","name":"AddressEmptyCode","inputs":[{"name":"target","type":"address","internalType":"address"}]},{"type":"error","name":"AttesterAlreadyCommitted","inputs":[]},{"type":"error","name":"ERC1967InvalidImplementation","inputs":[{"name":"implementation","type":"address","internalType":"address"}]},{"type":"error","name":"ERC1967NonPayable","inputs":[]},{"type":"error","name":"FailedInnerCall","inputs":[]},{"type":"error","name":"InvalidInitialization","inputs":[]},{"type":"error","name":"NotInitializing","inputs":[]},{"type":"error","name":"UUPSUnauthorizedCallContext","inputs":[]},{"type":"error","name":"UUPSUnsupportedProxiableUUID","inputs":[{"name":"slot","type":"bytes32","internalType":"bytes32"}]},{"type":"error","name":"UnacceptableBlockCommitment","inputs":[]}],"bytecode":{"object":"0x60a0604052306080523480156012575f80fd5b506080516120326100395f395f818161112e01528181611157015261129f01526120325ff3fe608060405260043610610212575f3560e01c806391d148541161011e578063e1b2b222116100a8578063ee99205c1161006d578063ee99205c14610727578063efe97d051461075d578063f34d002a14610771578063f89fe60b14610790578063fc2788ad146107af575f80fd5b8063e1b2b222146105ff578063e1ffa44c1461061e578063e90d4c0614610682578063ee377d90146106c7578063ee96da05146106db575f80fd5b8063b274a935116100ee578063b274a9351461056f578063b97dd9e21461058e578063bc90afbb146105a2578063c6e1b9db146105c1578063d547741f146105e0575f80fd5b806391d14854146104e1578063a217fddf14610500578063a3df415f14610513578063ad3cb1cc14610532575f80fd5b806336568abe1161019f57806360fea5dd1161016f57806360fea5dd146104665780636542384f146104855780636b588ac7146104a457806374e8e564146104b95780638129fc1c146104cd575f80fd5b806336568abe146103ff5780634ed7e4351461041e5780634f1ef2861461043f57806352d1902d14610452575f80fd5b80631dfcce8c116101e55780631dfcce8c146103615780631faea1ed1461037557806320e0e44514610394578063248a9ca3146103bf5780632f2ff15d146103de575f80fd5b806301ffc9a7146102165780630a0b81cc1461024a5780631c4e4e27146102e95780631cfa25161461033e575b5f80fd5b348015610221575f80fd5b50610235610230366004611987565b6107e5565b60405190151581526020015b60405180910390f35b348015610255575f80fd5b506102c76102643660046119c2565b60408051606080820183525f8083526020808401829052928401819052948552600482528285206001600160a01b039490941685529281529281902081519283018252805483526001810154938301939093526002909201549181019190915290565b6040805182518152602080840151908201529181015190820152606001610241565b3480156102f4575f80fd5b506103236103033660046119f0565b60066020525f908152604090208054600182015460029092015490919083565b60408051938452602084019290925290820152606001610241565b348015610349575f80fd5b5061035360015481565b604051908152602001610241565b34801561036c575f80fd5b5061035361081b565b348015610380575f80fd5b5061035361038f366004611a07565b61082c565b34801561039f575f80fd5b506103536103ae3660046119f0565b60036020525f908152604090205481565b3480156103ca575f80fd5b506103536103d93660046119f0565b6108b7565b3480156103e9575f80fd5b506103fd6103f83660046119c2565b6108d7565b005b34801561040a575f80fd5b506103fd6104193660046119c2565b6108f9565b348015610429575f80fd5b50610432610931565b6040516102419190611a89565b6103fd61044d366004611ae0565b61099d565b34801561045d575f80fd5b506103536109bc565b348015610471575f80fd5b50610353610480366004611b87565b6109d7565b348015610490575f80fd5b5061035361049f3660046119f0565b6109e9565b3480156104af575f80fd5b5061035360025481565b3480156104c4575f80fd5b50610353610aa2565b3480156104d8575f80fd5b506103fd610ab3565b3480156104ec575f80fd5b506102356104fb3660046119c2565b610bbf565b34801561050b575f80fd5b506103535f81565b34801561051e575f80fd5b506103fd61052d366004611bc5565b610bf5565b34801561053d575f80fd5b50610562604051806040016040528060058152602001640352e302e360dc1b81525081565b6040516102419190611cc2565b34801561057a575f80fd5b50610353610589366004611b87565b610d7d565b348015610599575f80fd5b50610353610d8f565b3480156105ad575f80fd5b506103536105bc366004611cd4565b610dfa565b3480156105cc575f80fd5b506103536105db3660046119c2565b610e0d565b3480156105eb575f80fd5b506103fd6105fa3660046119c2565b610e86565b34801561060a575f80fd5b506103fd610619366004611d57565b610ea2565b348015610629575f80fd5b506102c76106383660046119f0565b60408051606080820183525f808352602080840182905292840181905293845260068252928290208251938401835280548452600181015491840191909152600201549082015290565b34801561068d575f80fd5b5061032361069c3660046119c2565b600460209081525f928352604080842090915290825290208054600182015460029092015490919083565b3480156106d2575f80fd5b50610353610ed7565b3480156106e6575f80fd5b506102c76106f5366004611df2565b60408051606080820183525f808352602080840182905292840152825190810183529485528401929092529082015290565b348015610732575f80fd5b505f54610745906001600160a01b031681565b6040516001600160a01b039091168152602001610241565b348015610768575f80fd5b50610353610f07565b34801561077c575f80fd5b5061035361078b3660046119c2565b610f37565b34801561079b575f80fd5b506103fd6107aa366004611e1b565b610ff2565b3480156107ba575f80fd5b506103536107c9366004611e35565b600560209081525f928352604080842090915290825290205481565b5f6001600160e01b03198216637965db0b60e01b148061081557506301ffc9a760e01b6001600160e01b03198316145b92915050565b5f61082761049f610d8f565b905090565b5f80546040516311b2104b60e31b8152306004820152602481018690526001600160a01b038581166044830152848116606483015290911690638d90825890608401602060405180830381865afa158015610889573d5f803e3d5ffd5b505050506040513d601f19601f820116820180604052508101906108ad9190611e55565b90505b9392505050565b5f9081525f80516020611fdd833981519152602052604090206001015490565b6108e0826108b7565b6108e981610fff565b6108f38383611009565b50505050565b6001600160a01b03811633146109225760405163334bd91960e11b815260040160405180910390fd5b61092c82826110aa565b505050565b5f54604051632924b73b60e01b81523060048201526060916001600160a01b031690632924b73b906024015f60405180830381865afa158015610976573d5f803e3d5ffd5b505050506040513d5f823e601f3d908101601f191682016040526108279190810190611e6c565b6109a5611123565b6109ae826111c9565b6109b882826111d3565b5050565b5f6109c5611294565b505f80516020611fbd83398151915290565b5f6108156109e3610d8f565b83610f37565b5f8054604051636ae501ef60e11b815230600482015282916001600160a01b03169063d5ca03de906024015f60405180830381865afa158015610a2e573d5f803e3d5ffd5b505050506040513d5f823e601f3d908101601f19168201604052610a559190810190611e6c565b90505f805b8251811015610a9a57610a8685848381518110610a7957610a79611efc565b6020026020010151610e0d565b610a909083611f24565b9150600101610a5a565b509392505050565b5f6001546002546108279190611f24565b7ff0c57e16840df040f15088dc2f81fe391c3923bec73e23a9662efc9c229c6a008054600160401b810460ff16159067ffffffffffffffff165f81158015610af85750825b90505f8267ffffffffffffffff166001148015610b145750303b155b905081158015610b22575080155b15610b405760405163f92ee8a960e01b815260040160405180910390fd5b845467ffffffffffffffff191660011785558315610b6a57845460ff60401b1916600160401b1785555b610b726112dd565b8315610bb857845460ff60401b19168555604051600181527fc7f505b2f371ae2175ee4913f4499e1f2633a7b5936321eed1cdaeb6115181d29060200160405180910390a15b5050505050565b5f9182525f80516020611fdd833981519152602090815260408084206001600160a01b0393909316845291905290205460ff1690565b7ff0c57e16840df040f15088dc2f81fe391c3923bec73e23a9662efc9c229c6a008054600160401b810460ff16159067ffffffffffffffff165f81158015610c3a5750825b90505f8267ffffffffffffffff166001148015610c565750303b155b905081158015610c64575080155b15610c825760405163f92ee8a960e01b815260040160405180910390fd5b845467ffffffffffffffff191660011785558315610cac57845460ff60401b1916600160401b1785555b610cb46112e9565b5f80546001600160a01b0319166001600160a01b038c16908117909155600189905560028a9055604051631a6e609f60e31b815263d37304f890610cfe908a908a90600401611f37565b5f604051808303815f87803b158015610d15575f80fd5b505af1158015610d27573d5f803e3d5ffd5b505050508315610d7157845460ff60401b19168555604051600181527fc7f505b2f371ae2175ee4913f4499e1f2633a7b5936321eed1cdaeb6115181d29060200160405180910390a15b50505050505050505050565b5f610815610d89610d8f565b83610e0d565b5f8054604051634d3223a560e01b81523060048201526001600160a01b0390911690634d3223a5906024015b602060405180830381865afa158015610dd6573d5f803e3d5ffd5b505050506040513d601f19601f820116820180604052508101906108279190611e55565b5f6108b0610e06610d8f565b848461082c565b5f8054604051635cdf315560e01b8152306004820152602481018590526001600160a01b03848116604483015290911690635cdf315590606401602060405180830381865afa158015610e62573d5f803e3d5ffd5b505050506040513d601f19601f820116820180604052508101906108b09190611e55565b610e8f826108b7565b610e9881610fff565b6108f383836110aa565b5f5b81518110156109b857610ecf828281518110610ec257610ec2611efc565b6020026020010151610ff2565b600101610ea4565b5f8054604051631868e3ff60e31b81523060048201526001600160a01b039091169063c3471ff890602401610dbb565b5f805460405163010913cb60e71b81523060048201526001600160a01b0390911690638489e58090602401610dbb565b5f8054604051636ae501ef60e11b815230600482015282916001600160a01b03169063d5ca03de906024015f60405180830381865afa158015610f7c573d5f803e3d5ffd5b505050506040513d5f823e601f3d908101601f19168201604052610fa39190810190611e6c565b90505f805b8251811015610fe957610fd586848381518110610fc757610fc7611efc565b60200260200101518761082c565b610fdf9083611f24565b9150600101610fa8565b50949350505050565b610ffc33826112fb565b50565b610ffc813361147b565b5f5f80516020611fdd8339815191526110228484610bbf565b6110a1575f848152602082815260408083206001600160a01b03871684529091529020805460ff191660011790556110573390565b6001600160a01b0316836001600160a01b0316857f2f8788117e7eff1d82e926ec794901d17c78024a50270940304540a733656f0d60405160405180910390a46001915050610815565b5f915050610815565b5f5f80516020611fdd8339815191526110c38484610bbf565b156110a1575f848152602082815260408083206001600160a01b0387168085529252808320805460ff1916905551339287917ff6391f5c32d9c69d2a47ea670b442974b53935d1edc7fd64eb21e047a839171b9190a46001915050610815565b306001600160a01b037f00000000000000000000000000000000000000000000000000000000000000001614806111a957507f00000000000000000000000000000000000000000000000000000000000000006001600160a01b031661119d5f80516020611fbd833981519152546001600160a01b031690565b6001600160a01b031614155b156111c75760405163703e46dd60e11b815260040160405180910390fd5b565b5f6109b881610fff565b816001600160a01b03166352d1902d6040518163ffffffff1660e01b8152600401602060405180830381865afa92505050801561122d575060408051601f3d908101601f1916820190925261122a91810190611e55565b60015b61125a57604051634c9c8ce360e01b81526001600160a01b03831660048201526024015b60405180910390fd5b5f80516020611fbd833981519152811461128a57604051632a87526960e21b815260048101829052602401611251565b61092c83836114b4565b306001600160a01b037f000000000000000000000000000000000000000000000000000000000000000016146111c75760405163703e46dd60e11b815260040160405180910390fd5b6112e5611509565b6111c75b6112f1611509565b610ffc5f33611009565b80515f9081526004602090815260408083206001600160a01b03861684529091529020541561133d57604051630ae09ad960e41b815260040160405180910390fd5b805160015460025461134f9190611f24565b101561136e57604051630ae09ad960e41b815260040160405180910390fd5b80515f90815260036020526040812054900361139d5761138c610ed7565b81515f908152600360205260409020555b80515f9081526004602090815260408083206001600160a01b03861684528252808320845181559184015160018301558301516002909101556113df836109d7565b82515f908152600560209081526040808320828701518452909152812080549293508392909190611411908490611f24565b9091555050604080830151602080850151835190815290810184905290917f4c9b7866113ce81c9ece48d2a0f4bb9d89d87f997a851cf3c448ee02f54559fd910160405180910390a25b611472600254600161146d9190611f24565b611552565b61145b57505050565b6114858282610bbf565b6109b85760405163e2517d3f60e01b81526001600160a01b038216600482015260248101839052604401611251565b6114bd82611660565b6040516001600160a01b038316907fbc7cd75a20ee27fd9adebab32041f755214dbc6bffa90cc0225b39da2e5c2d3b905f90a28051156115015761092c82826116c3565b6109b8611735565b7ff0c57e16840df040f15088dc2f81fe391c3923bec73e23a9662efc9c229c6a0054600160401b900460ff166111c757604051631afcd79f60e31b815260040160405180910390fd5b5f818152600360205260408120545b8061156a610d8f565b101561157d57611578611754565b611561565b5f6003611589836109e9565b611594906002611f4f565b61159e9190611f66565b90505f6115a9610931565b90505f5b8151811015611655575f8282815181106115c9576115c9611efc565b6020908102919091018101515f8981526004835260408082206001600160a01b03841683528452808220815160608101835281548082526001830154828801908152600290930154828501528452600586528284209151845294529020549092508581111561164a5761163b826117e3565b50600198975050505050505050565b5050506001016115ad565b505f95945050505050565b806001600160a01b03163b5f0361169557604051634c9c8ce360e01b81526001600160a01b0382166004820152602401611251565b5f80516020611fbd83398151915280546001600160a01b0319166001600160a01b0392909216919091179055565b60605f80846001600160a01b0316846040516116df9190611f85565b5f60405180830381855af49150503d805f8114611717576040519150601f19603f3d011682016040523d82523d5f602084013e61171c565b606091505b509150915061172c85838361189d565b95945050505050565b34156111c75760405163b398979f60e01b815260040160405180910390fd5b61179260405180604001604052806015815260200174526f6c6c696e67206f7665722065706f636820257360581b81525061178d610d8f565b6118f9565b5f805460408051632a21edc760e21b815290516001600160a01b039092169263a887b71c9260048084019382900301818387803b1580156117d1575f80fd5b505af11580156108f3573d5f803e3d5ffd5b5f6117ec610d8f565b82515f90815260036020526040902054909150811461181e5760405163071cab8b60e21b815260040160405180910390fd5b81515f908152600660209081526040918290208451808255828601516001830181905584870151600293840181905592829055845190815292830152917f5b0d1f14085ff88796df21c2944d34c115838925a7bee30850fcacaaf902a379910160405180910390a28061188f610ed7565b11156109b8576109b8611754565b6060826118b2576118ad8261193e565b6108b0565b81511580156118c957506001600160a01b0384163b155b156118f257604051639996b31560e01b81526001600160a01b0385166004820152602401611251565b50806108b0565b6109b8828260405160240161190f929190611f9b565b60408051601f198184030181529190526020810180516001600160e01b03166309710a9d60e41b179052611967565b80511561194e5780518082602001fd5b604051630a12f52160e11b815260040160405180910390fd5b80516a636f6e736f6c652e6c6f67602083015f808483855afa5050505050565b5f60208284031215611997575f80fd5b81356001600160e01b0319811681146108b0575f80fd5b6001600160a01b0381168114610ffc575f80fd5b5f80604083850312156119d3575f80fd5b8235915060208301356119e5816119ae565b809150509250929050565b5f60208284031215611a00575f80fd5b5035919050565b5f805f60608486031215611a19575f80fd5b833592506020840135611a2b816119ae565b91506040840135611a3b816119ae565b809150509250925092565b5f8151808452602084019350602083015f5b82811015611a7f5781516001600160a01b0316865260209586019590910190600101611a58565b5093949350505050565b602081525f6108b06020830184611a46565b634e487b7160e01b5f52604160045260245ffd5b604051601f8201601f1916810167ffffffffffffffff81118282101715611ad857611ad8611a9b565b604052919050565b5f8060408385031215611af1575f80fd5b8235611afc816119ae565b9150602083013567ffffffffffffffff811115611b17575f80fd5b8301601f81018513611b27575f80fd5b803567ffffffffffffffff811115611b4157611b41611a9b565b611b54601f8201601f1916602001611aaf565b818152866020838501011115611b68575f80fd5b816020840160208301375f602083830101528093505050509250929050565b5f60208284031215611b97575f80fd5b81356108b0816119ae565b5f67ffffffffffffffff821115611bbb57611bbb611a9b565b5060051b60200190565b5f805f805f60a08688031215611bd9575f80fd5b8535611be4816119ae565b9450602086013593506040860135925060608601359150608086013567ffffffffffffffff811115611c14575f80fd5b8601601f81018813611c24575f80fd5b8035611c37611c3282611ba2565b611aaf565b8082825260208201915060208360051b85010192508a831115611c58575f80fd5b6020840193505b82841015611c83578335611c72816119ae565b825260209384019390910190611c5f565b809450505050509295509295909350565b5f81518084528060208401602086015e5f602082860101526020601f19601f83011685010191505092915050565b602081525f6108b06020830184611c94565b5f8060408385031215611ce5575f80fd5b8235611cf0816119ae565b915060208301356119e5816119ae565b5f60608284031215611d10575f80fd5b6040516060810167ffffffffffffffff81118282101715611d3357611d33611a9b565b60409081528335825260208085013590830152928301359281019290925250919050565b5f60208284031215611d67575f80fd5b813567ffffffffffffffff811115611d7d575f80fd5b8201601f81018413611d8d575f80fd5b8035611d9b611c3282611ba2565b80828252602082019150602060608402850101925086831115611dbc575f80fd5b6020840193505b82841015611de857611dd58785611d00565b8252602082019150606084019350611dc3565b9695505050505050565b5f805f60608486031215611e04575f80fd5b505081359360208301359350604090920135919050565b5f60608284031215611e2b575f80fd5b6108b08383611d00565b5f8060408385031215611e46575f80fd5b50508035926020909101359150565b5f60208284031215611e65575f80fd5b5051919050565b5f60208284031215611e7c575f80fd5b815167ffffffffffffffff811115611e92575f80fd5b8201601f81018413611ea2575f80fd5b8051611eb0611c3282611ba2565b8082825260208201915060208360051b850101925086831115611ed1575f80fd5b6020840193505b82841015611de8578351611eeb816119ae565b825260209384019390910190611ed8565b634e487b7160e01b5f52603260045260245ffd5b634e487b7160e01b5f52601160045260245ffd5b8082018082111561081557610815611f10565b828152604060208201525f6108ad6040830184611a46565b808202811582820484141761081557610815611f10565b5f82611f8057634e487b7160e01b5f52601260045260245ffd5b500490565b5f82518060208501845e5f920191825250919050565b604081525f611fad6040830185611c94565b9050826020830152939250505056fe360894a13ba1a3210667c828492db98dca3e2076cc3735a920a3ca505d382bbc02dd7bc7dec4dceedda775e58dd541e08a116c6c53815c0bd028192f7b626800a2646970667358221220e78b8a8d87f6f03fad5eee1c9f113b80cb04126f8c628f88a2277a6207244c4664736f6c634300081a0033","linkReferences":{}},"methodIdentifiers":{"DEFAULT_ADMIN_ROLE()":"a217fddf","UPGRADE_INTERFACE_VERSION()":"ad3cb1cc","acceptedBlocks(uint256)":"1c4e4e27","blockHeightEpochAssignments(uint256)":"20e0e445","commitmentStakes(uint256,bytes32)":"fc2788ad","commitments(uint256,address)":"e90d4c06","computeAllCurrentEpochStake(address)":"60fea5dd","computeAllStakeAtEpoch(uint256,address)":"f34d002a","computeAllTotalStakeForCurrentEpoch()":"1dfcce8c","computeAllTotalStakeForEpoch(uint256)":"6542384f","createBlockCommitment(uint256,bytes32,bytes32)":"ee96da05","getAcceptedCommitmentAtBlockHeight(uint256)":"e1ffa44c","getAttesters()":"4ed7e435","getCurrentEpoch()":"b97dd9e2","getCurrentEpochStake(address,address)":"bc90afbb","getEpochByBlockTime()":"ee377d90","getMaxTolerableBlockHeight()":"74e8e564","getNextEpoch()":"efe97d05","getRoleAdmin(bytes32)":"248a9ca3","getStakeAtEpoch(uint256,address,address)":"1faea1ed","getTotalStakeForCurrentEpoch(address)":"b274a935","getTotalStakeForEpoch(uint256,address)":"c6e1b9db","getValidatorCommitmentAtBlockHeight(uint256,address)":"0a0b81cc","grantRole(bytes32,address)":"2f2ff15d","hasRole(bytes32,address)":"91d14854","initialize()":"8129fc1c","initialize(address,uint256,uint256,uint256,address[])":"a3df415f","lastAcceptedBlockHeight()":"6b588ac7","leadingBlockTolerance()":"1cfa2516","proxiableUUID()":"52d1902d","renounceRole(bytes32,address)":"36568abe","revokeRole(bytes32,address)":"d547741f","stakingContract()":"ee99205c","submitBatchBlockCommitment((uint256,bytes32,bytes32)[])":"e1b2b222","submitBlockCommitment((uint256,bytes32,bytes32))":"f89fe60b","supportsInterface(bytes4)":"01ffc9a7","upgradeToAndCall(address,bytes)":"4f1ef286"},"storageLayout":{"storage":[{"astId":55481,"contract":"src/settlement/MCR.sol:MCR","label":"stakingContract","offset":0,"slot":"0","type":"t_contract(IMovementStaking)57246"},{"astId":55483,"contract":"src/settlement/MCR.sol:MCR","label":"leadingBlockTolerance","offset":0,"slot":"1","type":"t_uint256"},{"astId":55485,"contract":"src/settlement/MCR.sol:MCR","label":"lastAcceptedBlockHeight","offset":0,"slot":"2","type":"t_uint256"},{"astId":55496,"contract":"src/settlement/MCR.sol:MCR","label":"blockHeightEpochAssignments","offset":0,"slot":"3","type":"t_mapping(t_uint256,t_uint256)"},{"astId":55503,"contract":"src/settlement/MCR.sol:MCR","label":"commitments","offset":0,"slot":"4","type":"t_mapping(t_uint256,t_mapping(t_address,t_struct(BlockCommitment)55492_storage))"},{"astId":55509,"contract":"src/settlement/MCR.sol:MCR","label":"commitmentStakes","offset":0,"slot":"5","type":"t_mapping(t_uint256,t_mapping(t_bytes32,t_uint256))"},{"astId":55514,"contract":"src/settlement/MCR.sol:MCR","label":"acceptedBlocks","offset":0,"slot":"6","type":"t_mapping(t_uint256,t_struct(BlockCommitment)55492_storage)"},{"astId":55518,"contract":"src/settlement/MCR.sol:MCR","label":"__gap","offset":0,"slot":"7","type":"t_array(t_uint256)50_storage"}],"types":{"t_address":{"encoding":"inplace","label":"address","numberOfBytes":"20"},"t_array(t_uint256)50_storage":{"encoding":"inplace","label":"uint256[50]","numberOfBytes":"1600","base":"t_uint256"},"t_bytes32":{"encoding":"inplace","label":"bytes32","numberOfBytes":"32"},"t_contract(IMovementStaking)57246":{"encoding":"inplace","label":"contract IMovementStaking","numberOfBytes":"20"},"t_mapping(t_address,t_struct(BlockCommitment)55492_storage)":{"encoding":"mapping","key":"t_address","label":"mapping(address => struct MCRStorage.BlockCommitment)","numberOfBytes":"32","value":"t_struct(BlockCommitment)55492_storage"},"t_mapping(t_bytes32,t_uint256)":{"encoding":"mapping","key":"t_bytes32","label":"mapping(bytes32 => uint256)","numberOfBytes":"32","value":"t_uint256"},"t_mapping(t_uint256,t_mapping(t_address,t_struct(BlockCommitment)55492_storage))":{"encoding":"mapping","key":"t_uint256","label":"mapping(uint256 => mapping(address => struct MCRStorage.BlockCommitment))","numberOfBytes":"32","value":"t_mapping(t_address,t_struct(BlockCommitment)55492_storage)"},"t_mapping(t_uint256,t_mapping(t_bytes32,t_uint256))":{"encoding":"mapping","key":"t_uint256","label":"mapping(uint256 => mapping(bytes32 => uint256))","numberOfBytes":"32","value":"t_mapping(t_bytes32,t_uint256)"},"t_mapping(t_uint256,t_struct(BlockCommitment)55492_storage)":{"encoding":"mapping","key":"t_uint256","label":"mapping(uint256 => struct MCRStorage.BlockCommitment)","numberOfBytes":"32","value":"t_struct(BlockCommitment)55492_storage"},"t_mapping(t_uint256,t_uint256)":{"encoding":"mapping","key":"t_uint256","label":"mapping(uint256 => uint256)","numberOfBytes":"32","value":"t_uint256"},"t_struct(BlockCommitment)55492_storage":{"encoding":"inplace","label":"struct MCRStorage.BlockCommitment","numberOfBytes":"96","members":[{"astId":55487,"contract":"src/settlement/MCR.sol:MCR","label":"height","offset":0,"slot":"0","type":"t_uint256"},{"astId":55489,"contract":"src/settlement/MCR.sol:MCR","label":"commitment","offset":0,"slot":"1","type":"t_bytes32"},{"astId":55491,"contract":"src/settlement/MCR.sol:MCR","label":"blockId","offset":0,"slot":"2","type":"t_bytes32"}]},"t_uint256":{"encoding":"inplace","label":"uint256","numberOfBytes":"32"}}},"id":64}