{"abi":[{"type":"function","name":"COMMITMENT_ADMIN","inputs":[],"outputs":[{"name":"","type":"bytes32","internalType":"bytes32"}],"stateMutability":"view"},{"type":"function","name":"DEFAULT_ADMIN_ROLE","inputs":[],"outputs":[{"name":"","type":"bytes32","internalType":"bytes32"}],"stateMutability":"view"},{"type":"function","name":"TRUSTED_ATTESTER","inputs":[],"outputs":[{"name":"","type":"bytes32","internalType":"bytes32"}],"stateMutability":"view"},{"type":"function","name":"UPGRADE_INTERFACE_VERSION","inputs":[],"outputs":[{"name":"","type":"string","internalType":"string"}],"stateMutability":"view"},{"type":"function","name":"acceptGenesisCeremony","inputs":[],"outputs":[],"stateMutability":"nonpayable"},{"type":"function","name":"acceptedBlocks","inputs":[{"name":"blockHeight","type":"uint256","internalType":"uint256"}],"outputs":[{"name":"height","type":"uint256","internalType":"uint256"},{"name":"commitment","type":"bytes32","internalType":"bytes32"},{"name":"blockId","type":"bytes32","internalType":"bytes32"}],"stateMutability":"view"},{"type":"function","name":"addCommitmentAdmin","inputs":[{"name":"account","type":"address","internalType":"address"}],"outputs":[],"stateMutability":"nonpayable"},{"type":"function","name":"addTrustedAttester","inputs":[{"name":"attester","type":"address","internalType":"address"}],"outputs":[],"stateMutability":"nonpayable"},{"type":"function","name":"batchAddCommitmentAdmin","inputs":[{"name":"accounts","type":"address[]","internalType":"address[]"}],"outputs":[],"stateMutability":"nonpayable"},{"type":"function","name":"batchAddTrustedAttester","inputs":[{"name":"attesters","type":"address[]","internalType":"address[]"}],"outputs":[],"stateMutability":"nonpayable"},{"type":"function","name":"blockHeightEpochAssignments","inputs":[{"name":"blockHeight","type":"uint256","internalType":"uint256"}],"outputs":[{"name":"epoch","type":"uint256","internalType":"uint256"}],"stateMutability":"view"},{"type":"function","name":"commitmentStakes","inputs":[{"name":"blockHeight","type":"uint256","internalType":"uint256"},{"name":"commitement","type":"bytes32","internalType":"bytes32"}],"outputs":[{"name":"stake","type":"uint256","internalType":"uint256"}],"stateMutability":"view"},{"type":"function","name":"commitments","inputs":[{"name":"blockHeight","type":"uint256","internalType":"uint256"},{"name":"attester","type":"address","internalType":"address"}],"outputs":[{"name":"height","type":"uint256","internalType":"uint256"},{"name":"commitment","type":"bytes32","internalType":"bytes32"},{"name":"blockId","type":"bytes32","internalType":"bytes32"}],"stateMutability":"view"},{"type":"function","name":"computeAllCurrentEpochStake","inputs":[{"name":"attester","type":"address","internalType":"address"}],"outputs":[{"name":"","type":"uint256","internalType":"uint256"}],"stateMutability":"view"},{"type":"function","name":"computeAllStakeAtEpoch","inputs":[{"name":"epoch","type":"uint256","internalType":"uint256"},{"name":"attester","type":"address","internalType":"address"}],"outputs":[{"name":"","type":"uint256","internalType":"uint256"}],"stateMutability":"view"},{"type":"function","name":"computeAllTotalStakeForCurrentEpoch","inputs":[],"outputs":[{"name":"","type":"uint256","internalType":"uint256"}],"stateMutability":"view"},{"type":"function","name":"computeAllTotalStakeForEpoch","inputs":[{"name":"epoch","type":"uint256","internalType":"uint256"}],"outputs":[{"name":"","type":"uint256","internalType":"uint256"}],"stateMutability":"view"},{"type":"function","name":"createBlockCommitment","inputs":[{"name":"height","type":"uint256","internalType":"uint256"},{"name":"commitment","type":"bytes32","internalType":"bytes32"},{"name":"blockId","type":"bytes32","internalType":"bytes32"}],"outputs":[{"name":"","type":"tuple","internalType":"struct MCRStorage.BlockCommitment","components":[{"name":"height","type":"uint256","internalType":"uint256"},{"name":"commitment","type":"bytes32","internalType":"bytes32"},{"name":"blockId","type":"bytes32","internalType":"bytes32"}]}],"stateMutability":"pure"},{"type":"function","name":"getAcceptedCommitmentAtBlockHeight","inputs":[{"name":"height","type":"uint256","internalType":"uint256"}],"outputs":[{"name":"","type":"tuple","internalType":"struct MCRStorage.BlockCommitment","components":[{"name":"height","type":"uint256","internalType":"uint256"},{"name":"commitment","type":"bytes32","internalType":"bytes32"},{"name":"blockId","type":"bytes32","internalType":"bytes32"}]}],"stateMutability":"view"},{"type":"function","name":"getAttesters","inputs":[],"outputs":[{"name":"","type":"address[]","internalType":"address[]"}],"stateMutability":"view"},{"type":"function","name":"getCurrentEpoch","inputs":[],"outputs":[{"name":"","type":"uint256","internalType":"uint256"}],"stateMutability":"view"},{"type":"function","name":"getCurrentEpochStake","inputs":[{"name":"custodian","type":"address","internalType":"address"},{"name":"attester","type":"address","internalType":"address"}],"outputs":[{"name":"","type":"uint256","internalType":"uint256"}],"stateMutability":"view"},{"type":"function","name":"getEpochByBlockTime","inputs":[],"outputs":[{"name":"","type":"uint256","internalType":"uint256"}],"stateMutability":"view"},{"type":"function","name":"getMaxTolerableBlockHeight","inputs":[],"outputs":[{"name":"","type":"uint256","internalType":"uint256"}],"stateMutability":"view"},{"type":"function","name":"getNextEpoch","inputs":[],"outputs":[{"name":"","type":"uint256","internalType":"uint256"}],"stateMutability":"view"},{"type":"function","name":"getRoleAdmin","inputs":[{"name":"role","type":"bytes32","internalType":"bytes32"}],"outputs":[{"name":"","type":"bytes32","internalType":"bytes32"}],"stateMutability":"view"},{"type":"function","name":"getStakeAtEpoch","inputs":[{"name":"epoch","type":"uint256","internalType":"uint256"},{"name":"custodian","type":"address","internalType":"address"},{"name":"attester","type":"address","internalType":"address"}],"outputs":[{"name":"","type":"uint256","internalType":"uint256"}],"stateMutability":"view"},{"type":"function","name":"getTotalStakeForCurrentEpoch","inputs":[{"name":"custodian","type":"address","internalType":"address"}],"outputs":[{"name":"","type":"uint256","internalType":"uint256"}],"stateMutability":"view"},{"type":"function","name":"getTotalStakeForEpoch","inputs":[{"name":"epoch","type":"uint256","internalType":"uint256"},{"name":"custodian","type":"address","internalType":"address"}],"outputs":[{"name":"","type":"uint256","internalType":"uint256"}],"stateMutability":"view"},{"type":"function","name":"getValidatorCommitmentAtBlockHeight","inputs":[{"name":"height","type":"uint256","internalType":"uint256"},{"name":"attester","type":"address","internalType":"address"}],"outputs":[{"name":"","type":"tuple","internalType":"struct MCRStorage.BlockCommitment","components":[{"name":"height","type":"uint256","internalType":"uint256"},{"name":"commitment","type":"bytes32","internalType":"bytes32"},{"name":"blockId","type":"bytes32","internalType":"bytes32"}]}],"stateMutability":"view"},{"type":"function","name":"grantRole","inputs":[{"name":"role","type":"bytes32","internalType":"bytes32"},{"name":"account","type":"address","internalType":"address"}],"outputs":[],"stateMutability":"nonpayable"},{"type":"function","name":"hasRole","inputs":[{"name":"role","type":"bytes32","internalType":"bytes32"},{"name":"account","type":"address","internalType":"address"}],"outputs":[{"name":"","type":"bool","internalType":"bool"}],"stateMutability":"view"},{"type":"function","name":"initialize","inputs":[],"outputs":[],"stateMutability":"nonpayable"},{"type":"function","name":"initialize","inputs":[{"name":"_stakingContract","type":"address","internalType":"contract IMovementStaking"},{"name":"_lastAcceptedBlockHeight","type":"uint256","internalType":"uint256"},{"name":"_leadingBlockTolerance","type":"uint256","internalType":"uint256"},{"name":"_epochDuration","type":"uint256","internalType":"uint256"},{"name":"_custodians","type":"address[]","internalType":"address[]"}],"outputs":[],"stateMutability":"nonpayable"},{"type":"function","name":"lastAcceptedBlockHeight","inputs":[],"outputs":[{"name":"","type":"uint256","internalType":"uint256"}],"stateMutability":"view"},{"type":"function","name":"leadingBlockTolerance","inputs":[],"outputs":[{"name":"","type":"uint256","internalType":"uint256"}],"stateMutability":"view"},{"type":"function","name":"openAttestationEnabled","inputs":[],"outputs":[{"name":"","type":"bool","internalType":"bool"}],"stateMutability":"view"},{"type":"function","name":"proxiableUUID","inputs":[],"outputs":[{"name":"","type":"bytes32","internalType":"bytes32"}],"stateMutability":"view"},{"type":"function","name":"renounceRole","inputs":[{"name":"role","type":"bytes32","internalType":"bytes32"},{"name":"callerConfirmation","type":"address","internalType":"address"}],"outputs":[],"stateMutability":"nonpayable"},{"type":"function","name":"revokeRole","inputs":[{"name":"role","type":"bytes32","internalType":"bytes32"},{"name":"account","type":"address","internalType":"address"}],"outputs":[],"stateMutability":"nonpayable"},{"type":"function","name":"setAcceptedCommitmentAtBlockHeight","inputs":[{"name":"blockCommitment","type":"tuple","internalType":"struct MCRStorage.BlockCommitment","components":[{"name":"height","type":"uint256","internalType":"uint256"},{"name":"commitment","type":"bytes32","internalType":"bytes32"},{"name":"blockId","type":"bytes32","internalType":"bytes32"}]}],"outputs":[],"stateMutability":"nonpayable"},{"type":"function","name":"stakingContract","inputs":[],"outputs":[{"name":"","type":"address","internalType":"contract IMovementStaking"}],"stateMutability":"view"},{"type":"function","name":"submitBatchBlockCommitment","inputs":[{"name":"blockCommitments","type":"tuple[]","internalType":"struct MCRStorage.BlockCommitment[]","components":[{"name":"height","type":"uint256","internalType":"uint256"},{"name":"commitment","type":"bytes32","internalType":"bytes32"},{"name":"blockId","type":"bytes32","internalType":"bytes32"}]}],"outputs":[],"stateMutability":"nonpayable"},{"type":"function","name":"submitBlockCommitment","inputs":[{"name":"blockCommitment","type":"tuple","internalType":"struct MCRStorage.BlockCommitment","components":[{"name":"height","type":"uint256","internalType":"uint256"},{"name":"commitment","type":"bytes32","internalType":"bytes32"},{"name":"blockId","type":"bytes32","internalType":"bytes32"}]}],"outputs":[],"stateMutability":"nonpayable"},{"type":"function","name":"supportsInterface","inputs":[{"name":"interfaceId","type":"bytes4","internalType":"bytes4"}],"outputs":[{"name":"","type":"bool","internalType":"bool"}],"stateMutability":"view"},{"type":"function","name":"upgradeToAndCall","inputs":[{"name":"newImplementation","type":"address","internalType":"address"},{"name":"data","type":"bytes","internalType":"bytes"}],"outputs":[],"stateMutability":"payable"},{"type":"event","name":"BlockAccepted","inputs":[{"name":"blockHash","type":"bytes32","indexed":true,"internalType":"bytes32"},{"name":"stateCommitment","type":"bytes32","indexed":false,"internalType":"bytes32"},{"name":"height","type":"uint256","indexed":false,"internalType":"uint256"}],"anonymous":false},{"type":"event","name":"BlockCommitmentSubmitted","inputs":[{"name":"blockHash","type":"bytes32","indexed":true,"internalType":"bytes32"},{"name":"stateCommitment","type":"bytes32","indexed":false,"internalType":"bytes32"},{"name":"attesterStake","type":"uint256","indexed":false,"internalType":"uint256"}],"anonymous":false},{"type":"event","name":"Initialized","inputs":[{"name":"version","type":"uint64","indexed":false,"internalType":"uint64"}],"anonymous":false},{"type":"event","name":"RoleAdminChanged","inputs":[{"name":"role","type":"bytes32","indexed":true,"internalType":"bytes32"},{"name":"previousAdminRole","type":"bytes32","indexed":true,"internalType":"bytes32"},{"name":"newAdminRole","type":"bytes32","indexed":true,"internalType":"bytes32"}],"anonymous":false},{"type":"event","name":"RoleGranted","inputs":[{"name":"role","type":"bytes32","indexed":true,"internalType":"bytes32"},{"name":"account","type":"address","indexed":true,"internalType":"address"},{"name":"sender","type":"address","indexed":true,"internalType":"address"}],"anonymous":false},{"type":"event","name":"RoleRevoked","inputs":[{"name":"role","type":"bytes32","indexed":true,"internalType":"bytes32"},{"name":"account","type":"address","indexed":true,"internalType":"address"},{"name":"sender","type":"address","indexed":true,"internalType":"address"}],"anonymous":false},{"type":"event","name":"Upgraded","inputs":[{"name":"implementation","type":"address","indexed":true,"internalType":"address"}],"anonymous":false},{"type":"error","name":"AccessControlBadConfirmation","inputs":[]},{"type":"error","name":"AccessControlUnauthorizedAccount","inputs":[{"name":"account","type":"address","internalType":"address"},{"name":"neededRole","type":"bytes32","internalType":"bytes32"}]},{"type":"error","name":"AddressEmptyCode","inputs":[{"name":"target","type":"address","internalType":"address"}]},{"type":"error","name":"AttesterAlreadyCommitted","inputs":[]},{"type":"error","name":"ERC1967InvalidImplementation","inputs":[{"name":"implementation","type":"address","internalType":"address"}]},{"type":"error","name":"ERC1967NonPayable","inputs":[]},{"type":"error","name":"FailedInnerCall","inputs":[]},{"type":"error","name":"InvalidInitialization","inputs":[]},{"type":"error","name":"NotInitializing","inputs":[]},{"type":"error","name":"UUPSUnauthorizedCallContext","inputs":[]},{"type":"error","name":"UUPSUnsupportedProxiableUUID","inputs":[{"name":"slot","type":"bytes32","internalType":"bytes32"}]},{"type":"error","name":"UnacceptableBlockCommitment","inputs":[]}],"bytecode":{"object":"0x60a0604052306080523480156012575f80fd5b506080516124106100395f395f8181611490015281816114b901526115fc01526124105ff3fe608060405260043610610275575f3560e01c80638129fc1c1161014a578063e1b2b222116100be578063ee99205c11610078578063ee99205c14610879578063ef9ae15c146108af578063efe97d05146108c8578063f34d002a146108dc578063f89fe60b146108fb578063fc2788ad1461091a575f80fd5b8063e1b2b22214610732578063e1ffa44c14610751578063e90d4c06146107b5578063ec0abf7a146107fa578063ee377d9014610819578063ee96da051461082d575f80fd5b8063ad3cb1cc1161010f578063ad3cb1cc14610665578063b274a935146106a2578063b97dd9e2146106c1578063bc90afbb146106d5578063c6e1b9db146106f4578063d547741f14610713575f80fd5b80638129fc1c146105ec57806391d148541461060057806392a2ebf31461061f578063a217fddf14610633578063a3df415f14610646575f80fd5b806336568abe116101ec57806360fea5dd116101a657806360fea5dd146105465780636542384f146105655780636b588ac71461058457806374e8e564146105995780637624ffd4146105ad57806380e460f0146105cc575f80fd5b806336568abe146104a05780634ed7e435146104bf5780634f1ef286146104e057806352d1902d146104f357806353cd9e3c146105075780635db916ab14610526575f80fd5b80631dfcce8c1161023d5780631dfcce8c146103e55780631faea1ed146103f957806320e0e44514610418578063232f916114610443578063248a9ca3146104625780632f2ff15d14610481575f80fd5b806301ffc9a7146102795780630804c1d8146102ad5780630a0b81cc146102ce5780631c4e4e271461036d5780631cfa2516146103c2575b5f80fd5b348015610284575f80fd5b50610298610293366004611ce8565b610950565b60405190151581526020015b60405180910390f35b3480156102b8575f80fd5b506102cc6102c7366004611dfc565b610986565b005b3480156102d9575f80fd5b5061034b6102e8366004611e35565b60408051606080820183525f8083526020808401829052928401819052948552600482528285206001600160a01b039490941685529281529281902081519283018252805483526001810154938301939093526002909201549181019190915290565b60408051825181526020808401519082015291810151908201526060016102a4565b348015610378575f80fd5b506103a7610387366004611e63565b60066020525f908152604090208054600182015460029092015490919083565b604080519384526020840192909252908201526060016102a4565b3480156103cd575f80fd5b506103d760015481565b6040519081526020016102a4565b3480156103f0575f80fd5b506103d76109d8565b348015610404575f80fd5b506103d7610413366004611e7a565b6109e9565b348015610423575f80fd5b506103d7610432366004611e63565b60036020525f908152604090205481565b34801561044e575f80fd5b506102cc61045d366004611eb9565b610a74565b34801561046d575f80fd5b506103d761047c366004611e63565b610a99565b34801561048c575f80fd5b506102cc61049b366004611e35565b610ab9565b3480156104ab575f80fd5b506102cc6104ba366004611e35565b610adb565b3480156104ca575f80fd5b506104d3610b0e565b6040516102a49190611f17565b6102cc6104ee366004611f29565b610b7a565b3480156104fe575f80fd5b506103d7610b95565b348015610512575f80fd5b506102cc610521366004612024565b610bb0565b348015610531575f80fd5b506103d75f805160206123bb83398151915281565b348015610551575f80fd5b506103d7610560366004611eb9565b610bf3565b348015610570575f80fd5b506103d761057f366004611e63565b610c05565b34801561058f575f80fd5b506103d760025481565b3480156105a4575f80fd5b506103d7610cbe565b3480156105b8575f80fd5b506102cc6105c7366004611dfc565b610ccf565b3480156105d7575f80fd5b506103d75f8051602061235b83398151915281565b3480156105f7575f80fd5b506102cc610d1c565b34801561060b575f80fd5b5061029861061a366004611e35565b610e26565b34801561062a575f80fd5b506102cc610e5c565b34801561063e575f80fd5b506103d75f81565b348015610651575f80fd5b506102cc61066036600461203e565b610eb7565b348015610670575f80fd5b50610695604051806040016040528060058152602001640352e302e360dc1b81525081565b6040516102a491906120d3565b3480156106ad575f80fd5b506103d76106bc366004611eb9565b61103d565b3480156106cc575f80fd5b506103d761104f565b3480156106e0575f80fd5b506103d76106ef3660046120e5565b6110ba565b3480156106ff575f80fd5b506103d761070e366004611e35565b6110cd565b34801561071e575f80fd5b506102cc61072d366004611e35565b611146565b34801561073d575f80fd5b506102cc61074c366004612111565b611162565b34801561075c575f80fd5b5061034b61076b366004611e63565b60408051606080820183525f808352602080840182905292840181905293845260068252928290208251938401835280548452600181015491840191909152600201549082015290565b3480156107c0575f80fd5b506103a76107cf366004611e35565b600460209081525f928352604080842090915290825290208054600182015460029092015490919083565b348015610805575f80fd5b506102cc610814366004611eb9565b611197565b348015610824575f80fd5b506103d76111c5565b348015610838575f80fd5b5061034b6108473660046121ab565b60408051606080820183525f808352602080840182905292840152825190810183529485528401929092529082015290565b348015610884575f80fd5b505f54610897906001600160a01b031681565b6040516001600160a01b0390911681526020016102a4565b3480156108ba575f80fd5b506039546102989060ff1681565b3480156108d3575f80fd5b506103d76111f5565b3480156108e7575f80fd5b506103d76108f6366004611e35565b611225565b348015610906575f80fd5b506102cc610915366004612024565b6112e0565b348015610925575f80fd5b506103d76109343660046121d4565b600560209081525f928352604080842090915290825290205481565b5f6001600160e01b03198216637965db0b60e01b148061098057506301ffc9a760e01b6001600160e01b03198316145b92915050565b5f61099081611361565b5f5b82518110156109d3576109cb5f805160206123bb8339815191528483815181106109be576109be6121f4565b6020026020010151610ab9565b600101610992565b505050565b5f6109e461057f61104f565b905090565b5f80546040516311b2104b60e31b8152306004820152602481018690526001600160a01b038581166044830152848116606483015290911690638d90825890608401602060405180830381865afa158015610a46573d5f803e3d5ffd5b505050506040513d601f19601f82011682018060405250810190610a6a9190612208565b90505b9392505050565b5f610a7e81611361565b610a955f8051602061235b83398151915283610ab9565b5050565b5f9081525f8051602061239b833981519152602052604090206001015490565b610ac282610a99565b610acb81611361565b610ad5838361136b565b50505050565b6001600160a01b0381163314610b045760405163334bd91960e11b815260040160405180910390fd5b6109d3828261140c565b5f54604051632924b73b60e01b81523060048201526060916001600160a01b031690632924b73b906024015f60405180830381865afa158015610b53573d5f803e3d5ffd5b505050506040513d5f823e601f3d908101601f191682016040526109e4919081019061221f565b610b82611485565b610b8b8261152b565b610a958282611535565b5f610b9e6115f1565b505f8051602061237b83398151915290565b5f8051602061235b833981519152610bc781611361565b5080515f9081526006602090815260409182902083518155908301516001820155910151600290910155565b5f610980610bff61104f565b83611225565b5f8054604051636ae501ef60e11b815230600482015282916001600160a01b03169063d5ca03de906024015f60405180830381865afa158015610c4a573d5f803e3d5ffd5b505050506040513d5f823e601f3d908101601f19168201604052610c71919081019061221f565b90505f805b8251811015610cb657610ca285848381518110610c9557610c956121f4565b60200260200101516110cd565b610cac90836122c2565b9150600101610c76565b509392505050565b5f6001546002546109e491906122c2565b5f8051602061235b833981519152610ce681611361565b5f5b82518110156109d357610d145f805160206123bb8339815191528483815181106109be576109be6121f4565b600101610ce8565b7ff0c57e16840df040f15088dc2f81fe391c3923bec73e23a9662efc9c229c6a008054600160401b810460ff1615906001600160401b03165f81158015610d605750825b90505f826001600160401b03166001148015610d7b5750303b155b905081158015610d89575080155b15610da75760405163f92ee8a960e01b815260040160405180910390fd5b845467ffffffffffffffff191660011785558315610dd157845460ff60401b1916600160401b1785555b610dd961163a565b8315610e1f57845460ff60401b19168555604051600181527fc7f505b2f371ae2175ee4913f4499e1f2633a7b5936321eed1cdaeb6115181d29060200160405180910390a15b5050505050565b5f9182525f8051602061239b833981519152602090815260408084206001600160a01b0393909316845291905290205460ff1690565b5f610e6681611361565b5f8054604080516392a2ebf360e01b815290516001600160a01b03909216926392a2ebf39260048084019382900301818387803b158015610ea5575f80fd5b505af1158015610e1f573d5f803e3d5ffd5b7ff0c57e16840df040f15088dc2f81fe391c3923bec73e23a9662efc9c229c6a008054600160401b810460ff1615906001600160401b03165f81158015610efb5750825b90505f826001600160401b03166001148015610f165750303b155b905081158015610f24575080155b15610f425760405163f92ee8a960e01b815260040160405180910390fd5b845467ffffffffffffffff191660011785558315610f6c57845460ff60401b1916600160401b1785555b610f74611646565b5f80546001600160a01b0319166001600160a01b038c16908117909155600189905560028a9055604051631a6e609f60e31b815263d37304f890610fbe908a908a906004016122d5565b5f604051808303815f87803b158015610fd5575f80fd5b505af1158015610fe7573d5f803e3d5ffd5b50505050831561103157845460ff60401b19168555604051600181527fc7f505b2f371ae2175ee4913f4499e1f2633a7b5936321eed1cdaeb6115181d29060200160405180910390a15b50505050505050505050565b5f61098061104961104f565b836110cd565b5f8054604051634d3223a560e01b81523060048201526001600160a01b0390911690634d3223a5906024015b602060405180830381865afa158015611096573d5f803e3d5ffd5b505050506040513d601f19601f820116820180604052508101906109e49190612208565b5f610a6d6110c661104f565b84846109e9565b5f8054604051635cdf315560e01b8152306004820152602481018590526001600160a01b03848116604483015290911690635cdf315590606401602060405180830381865afa158015611122573d5f803e3d5ffd5b505050506040513d601f19601f82011682018060405250810190610a6d9190612208565b61114f82610a99565b61115881611361565b610ad5838361140c565b5f5b8151811015610a955761118f828281518110611182576111826121f4565b60200260200101516112e0565b600101611164565b5f8051602061235b8339815191526111ae81611361565b610a955f805160206123bb83398151915283610ab9565b5f8054604051631868e3ff60e31b81523060048201526001600160a01b039091169063c3471ff89060240161107b565b5f805460405163010913cb60e71b81523060048201526001600160a01b0390911690638489e5809060240161107b565b5f8054604051636ae501ef60e11b815230600482015282916001600160a01b03169063d5ca03de906024015f60405180830381865afa15801561126a573d5f803e3d5ffd5b505050506040513d5f823e601f3d908101601f19168201604052611291919081019061221f565b90505f805b82518110156112d7576112c3868483815181106112b5576112b56121f4565b6020026020010151876109e9565b6112cd90836122c2565b9150600101611296565b50949350505050565b60395460ff168061130357506113035f805160206123bb83398151915233610e26565b6113545760405162461bcd60e51b815260206004820152601d60248201527f4163636573732064656e6965643a206e6f7420617574686f72697a656400000060448201526064015b60405180910390fd5b61135e3382611658565b50565b61135e81336117d8565b5f5f8051602061239b8339815191526113848484610e26565b611403575f848152602082815260408083206001600160a01b03871684529091529020805460ff191660011790556113b93390565b6001600160a01b0316836001600160a01b0316857f2f8788117e7eff1d82e926ec794901d17c78024a50270940304540a733656f0d60405160405180910390a46001915050610980565b5f915050610980565b5f5f8051602061239b8339815191526114258484610e26565b15611403575f848152602082815260408083206001600160a01b0387168085529252808320805460ff1916905551339287917ff6391f5c32d9c69d2a47ea670b442974b53935d1edc7fd64eb21e047a839171b9190a46001915050610980565b306001600160a01b037f000000000000000000000000000000000000000000000000000000000000000016148061150b57507f00000000000000000000000000000000000000000000000000000000000000006001600160a01b03166114ff5f8051602061237b833981519152546001600160a01b031690565b6001600160a01b031614155b156115295760405163703e46dd60e11b815260040160405180910390fd5b565b5f610a9581611361565b816001600160a01b03166352d1902d6040518163ffffffff1660e01b8152600401602060405180830381865afa92505050801561158f575060408051601f3d908101601f1916820190925261158c91810190612208565b60015b6115b757604051634c9c8ce360e01b81526001600160a01b038316600482015260240161134b565b5f8051602061237b83398151915281146115e757604051632a87526960e21b81526004810182905260240161134b565b6109d38383611811565b306001600160a01b037f000000000000000000000000000000000000000000000000000000000000000016146115295760405163703e46dd60e11b815260040160405180910390fd5b611642611866565b6115295b61164e611866565b61135e5f3361136b565b80515f9081526004602090815260408083206001600160a01b03861684529091529020541561169a57604051630ae09ad960e41b815260040160405180910390fd5b80516001546002546116ac91906122c2565b10156116cb57604051630ae09ad960e41b815260040160405180910390fd5b80515f9081526003602052604081205490036116fa576116e96111c5565b81515f908152600360205260409020555b80515f9081526004602090815260408083206001600160a01b038616845282528083208451815591840151600183015583015160029091015561173c83610bf3565b82515f90815260056020908152604080832082870151845290915281208054929350839290919061176e9084906122c2565b9091555050604080830151602080850151835190815290810184905290917f4c9b7866113ce81c9ece48d2a0f4bb9d89d87f997a851cf3c448ee02f54559fd910160405180910390a25b6117cf60025460016117ca91906122c2565b6118af565b6117b857505050565b6117e28282610e26565b610a955760405163e2517d3f60e01b81526001600160a01b03821660048201526024810183905260440161134b565b61181a826119bd565b6040516001600160a01b038316907fbc7cd75a20ee27fd9adebab32041f755214dbc6bffa90cc0225b39da2e5c2d3b905f90a280511561185e576109d38282611a20565b610a95611a92565b7ff0c57e16840df040f15088dc2f81fe391c3923bec73e23a9662efc9c229c6a0054600160401b900460ff1661152957604051631afcd79f60e31b815260040160405180910390fd5b5f818152600360205260408120545b806118c761104f565b10156118da576118d5611ab1565b6118be565b5f60036118e683610c05565b6118f19060026122ed565b6118fb9190612304565b90505f611906610b0e565b90505f5b81518110156119b2575f828281518110611926576119266121f4565b6020908102919091018101515f8981526004835260408082206001600160a01b0384168352845280822081516060810183528154808252600183015482880190815260029093015482850152845260058652828420915184529452902054909250858111156119a75761199882611b40565b50600198975050505050505050565b50505060010161190a565b505f95945050505050565b806001600160a01b03163b5f036119f257604051634c9c8ce360e01b81526001600160a01b038216600482015260240161134b565b5f8051602061237b83398151915280546001600160a01b0319166001600160a01b0392909216919091179055565b60605f80846001600160a01b031684604051611a3c9190612323565b5f60405180830381855af49150503d805f8114611a74576040519150601f19603f3d011682016040523d82523d5f602084013e611a79565b606091505b5091509150611a89858383611bfa565b95945050505050565b34156115295760405163b398979f60e01b815260040160405180910390fd5b611aef60405180604001604052806015815260200174526f6c6c696e67206f7665722065706f636820257360581b815250611aea61104f565b611c56565b5f805460408051632a21edc760e21b815290516001600160a01b039092169263a887b71c9260048084019382900301818387803b158015611b2e575f80fd5b505af1158015610ad5573d5f803e3d5ffd5b5f611b4961104f565b82515f908152600360205260409020549091508114611b7b5760405163071cab8b60e21b815260040160405180910390fd5b81515f908152600660209081526040918290208451808255828601516001830181905584870151600293840181905592829055845190815292830152917f5b0d1f14085ff88796df21c2944d34c115838925a7bee30850fcacaaf902a379910160405180910390a280611bec6111c5565b1115610a9557610a95611ab1565b606082611c0f57611c0a82611c9b565b610a6d565b8151158015611c2657506001600160a01b0384163b155b15611c4f57604051639996b31560e01b81526001600160a01b038516600482015260240161134b565b5080610a6d565b610a958282604051602401611c6c929190612339565b60408051601f198184030181529190526020810180516001600160e01b03166309710a9d60e41b179052611cc4565b805115611cab5780518082602001fd5b604051630a12f52160e11b815260040160405180910390fd5b61135e8180516a636f6e736f6c652e6c6f67602083015f808483855afa5050505050565b5f60208284031215611cf8575f80fd5b81356001600160e01b031981168114610a6d575f80fd5b634e487b7160e01b5f52604160045260245ffd5b604051601f8201601f191681016001600160401b0381118282101715611d4b57611d4b611d0f565b604052919050565b5f6001600160401b03821115611d6b57611d6b611d0f565b5060051b60200190565b6001600160a01b038116811461135e575f80fd5b5f82601f830112611d98575f80fd5b8135611dab611da682611d53565b611d23565b8082825260208201915060208360051b860101925085831115611dcc575f80fd5b602085015b83811015611df2578035611de481611d75565b835260209283019201611dd1565b5095945050505050565b5f60208284031215611e0c575f80fd5b81356001600160401b03811115611e21575f80fd5b611e2d84828501611d89565b949350505050565b5f8060408385031215611e46575f80fd5b823591506020830135611e5881611d75565b809150509250929050565b5f60208284031215611e73575f80fd5b5035919050565b5f805f60608486031215611e8c575f80fd5b833592506020840135611e9e81611d75565b91506040840135611eae81611d75565b809150509250925092565b5f60208284031215611ec9575f80fd5b8135610a6d81611d75565b5f8151808452602084019350602083015f5b82811015611f0d5781516001600160a01b0316865260209586019590910190600101611ee6565b5093949350505050565b602081525f610a6d6020830184611ed4565b5f8060408385031215611f3a575f80fd5b8235611f4581611d75565b915060208301356001600160401b03811115611f5f575f80fd5b8301601f81018513611f6f575f80fd5b80356001600160401b03811115611f8857611f88611d0f565b611f9b601f8201601f1916602001611d23565b818152866020838501011115611faf575f80fd5b816020840160208301375f602083830101528093505050509250929050565b5f60608284031215611fde575f80fd5b604051606081016001600160401b038111828210171561200057612000611d0f565b60409081528335825260208085013590830152928301359281019290925250919050565b5f60608284031215612034575f80fd5b610a6d8383611fce565b5f805f805f60a08688031215612052575f80fd5b853561205d81611d75565b945060208601359350604086013592506060860135915060808601356001600160401b0381111561208c575f80fd5b61209888828901611d89565b9150509295509295909350565b5f81518084528060208401602086015e5f602082860101526020601f19601f83011685010191505092915050565b602081525f610a6d60208301846120a5565b5f80604083850312156120f6575f80fd5b823561210181611d75565b91506020830135611e5881611d75565b5f60208284031215612121575f80fd5b81356001600160401b03811115612136575f80fd5b8201601f81018413612146575f80fd5b8035612154611da682611d53565b80828252602082019150602060608402850101925086831115612175575f80fd5b6020840193505b828410156121a15761218e8785611fce565b825260208201915060608401935061217c565b9695505050505050565b5f805f606084860312156121bd575f80fd5b505081359360208301359350604090920135919050565b5f80604083850312156121e5575f80fd5b50508035926020909101359150565b634e487b7160e01b5f52603260045260245ffd5b5f60208284031215612218575f80fd5b5051919050565b5f6020828403121561222f575f80fd5b81516001600160401b03811115612244575f80fd5b8201601f81018413612254575f80fd5b8051612262611da682611d53565b8082825260208201915060208360051b850101925086831115612283575f80fd5b6020840193505b828410156121a157835161229d81611d75565b82526020938401939091019061228a565b634e487b7160e01b5f52601160045260245ffd5b80820180821115610980576109806122ae565b828152604060208201525f610a6a6040830184611ed4565b8082028115828204841417610980576109806122ae565b5f8261231e57634e487b7160e01b5f52601260045260245ffd5b500490565b5f82518060208501845e5f920191825250919050565b604081525f61234b60408301856120a5565b9050826020830152939250505056fedb2bf73e90d393604e56f0a2a54fed3fbd75332bf39c5ea0704b3b6973a3463c360894a13ba1a3210667c828492db98dca3e2076cc3735a920a3ca505d382bbc02dd7bc7dec4dceedda775e58dd541e08a116c6c53815c0bd028192f7b626800981fe5f60e354ed88ff0544e367c13a4d3342da7c82eb6627f804b747e046e18a2646970667358221220e1161868f39c66e738fa7bb8aef106d56af609101dc1e654034d5ab4fcaa7ba364736f6c634300081a0033","linkReferences":{}},"methodIdentifiers":{"COMMITMENT_ADMIN()":"80e460f0","DEFAULT_ADMIN_ROLE()":"a217fddf","TRUSTED_ATTESTER()":"5db916ab","UPGRADE_INTERFACE_VERSION()":"ad3cb1cc","acceptGenesisCeremony()":"92a2ebf3","acceptedBlocks(uint256)":"1c4e4e27","addCommitmentAdmin(address)":"232f9161","addTrustedAttester(address)":"ec0abf7a","batchAddCommitmentAdmin(address[])":"0804c1d8","batchAddTrustedAttester(address[])":"7624ffd4","blockHeightEpochAssignments(uint256)":"20e0e445","commitmentStakes(uint256,bytes32)":"fc2788ad","commitments(uint256,address)":"e90d4c06","computeAllCurrentEpochStake(address)":"60fea5dd","computeAllStakeAtEpoch(uint256,address)":"f34d002a","computeAllTotalStakeForCurrentEpoch()":"1dfcce8c","computeAllTotalStakeForEpoch(uint256)":"6542384f","createBlockCommitment(uint256,bytes32,bytes32)":"ee96da05","getAcceptedCommitmentAtBlockHeight(uint256)":"e1ffa44c","getAttesters()":"4ed7e435","getCurrentEpoch()":"b97dd9e2","getCurrentEpochStake(address,address)":"bc90afbb","getEpochByBlockTime()":"ee377d90","getMaxTolerableBlockHeight()":"74e8e564","getNextEpoch()":"efe97d05","getRoleAdmin(bytes32)":"248a9ca3","getStakeAtEpoch(uint256,address,address)":"1faea1ed","getTotalStakeForCurrentEpoch(address)":"b274a935","getTotalStakeForEpoch(uint256,address)":"c6e1b9db","getValidatorCommitmentAtBlockHeight(uint256,address)":"0a0b81cc","grantRole(bytes32,address)":"2f2ff15d","hasRole(bytes32,address)":"91d14854","initialize()":"8129fc1c","initialize(address,uint256,uint256,uint256,address[])":"a3df415f","lastAcceptedBlockHeight()":"6b588ac7","leadingBlockTolerance()":"1cfa2516","openAttestationEnabled()":"ef9ae15c","proxiableUUID()":"52d1902d","renounceRole(bytes32,address)":"36568abe","revokeRole(bytes32,address)":"d547741f","setAcceptedCommitmentAtBlockHeight((uint256,bytes32,bytes32))":"53cd9e3c","stakingContract()":"ee99205c","submitBatchBlockCommitment((uint256,bytes32,bytes32)[])":"e1b2b222","submitBlockCommitment((uint256,bytes32,bytes32))":"f89fe60b","supportsInterface(bytes4)":"01ffc9a7","upgradeToAndCall(address,bytes)":"4f1ef286"},"storageLayout":{"storage":[{"astId":54751,"contract":"src/settlement/MCR.sol:MCR","label":"stakingContract","offset":0,"slot":"0","type":"t_contract(IMovementStaking)56638"},{"astId":54753,"contract":"src/settlement/MCR.sol:MCR","label":"leadingBlockTolerance","offset":0,"slot":"1","type":"t_uint256"},{"astId":54755,"contract":"src/settlement/MCR.sol:MCR","label":"lastAcceptedBlockHeight","offset":0,"slot":"2","type":"t_uint256"},{"astId":54766,"contract":"src/settlement/MCR.sol:MCR","label":"blockHeightEpochAssignments","offset":0,"slot":"3","type":"t_mapping(t_uint256,t_uint256)"},{"astId":54773,"contract":"src/settlement/MCR.sol:MCR","label":"commitments","offset":0,"slot":"4","type":"t_mapping(t_uint256,t_mapping(t_address,t_struct(BlockCommitment)54762_storage))"},{"astId":54779,"contract":"src/settlement/MCR.sol:MCR","label":"commitmentStakes","offset":0,"slot":"5","type":"t_mapping(t_uint256,t_mapping(t_bytes32,t_uint256))"},{"astId":54784,"contract":"src/settlement/MCR.sol:MCR","label":"acceptedBlocks","offset":0,"slot":"6","type":"t_mapping(t_uint256,t_struct(BlockCommitment)54762_storage)"},{"astId":54788,"contract":"src/settlement/MCR.sol:MCR","label":"__gap","offset":0,"slot":"7","type":"t_array(t_uint256)50_storage"},{"astId":54790,"contract":"src/settlement/MCR.sol:MCR","label":"openAttestationEnabled","offset":0,"slot":"57","type":"t_bool"}],"types":{"t_address":{"encoding":"inplace","label":"address","numberOfBytes":"20"},"t_array(t_uint256)50_storage":{"encoding":"inplace","label":"uint256[50]","numberOfBytes":"1600","base":"t_uint256"},"t_bool":{"encoding":"inplace","label":"bool","numberOfBytes":"1"},"t_bytes32":{"encoding":"inplace","label":"bytes32","numberOfBytes":"32"},"t_contract(IMovementStaking)56638":{"encoding":"inplace","label":"contract IMovementStaking","numberOfBytes":"20"},"t_mapping(t_address,t_struct(BlockCommitment)54762_storage)":{"encoding":"mapping","key":"t_address","label":"mapping(address => struct MCRStorage.BlockCommitment)","numberOfBytes":"32","value":"t_struct(BlockCommitment)54762_storage"},"t_mapping(t_bytes32,t_uint256)":{"encoding":"mapping","key":"t_bytes32","label":"mapping(bytes32 => uint256)","numberOfBytes":"32","value":"t_uint256"},"t_mapping(t_uint256,t_mapping(t_address,t_struct(BlockCommitment)54762_storage))":{"encoding":"mapping","key":"t_uint256","label":"mapping(uint256 => mapping(address => struct MCRStorage.BlockCommitment))","numberOfBytes":"32","value":"t_mapping(t_address,t_struct(BlockCommitment)54762_storage)"},"t_mapping(t_uint256,t_mapping(t_bytes32,t_uint256))":{"encoding":"mapping","key":"t_uint256","label":"mapping(uint256 => mapping(bytes32 => uint256))","numberOfBytes":"32","value":"t_mapping(t_bytes32,t_uint256)"},"t_mapping(t_uint256,t_struct(BlockCommitment)54762_storage)":{"encoding":"mapping","key":"t_uint256","label":"mapping(uint256 => struct MCRStorage.BlockCommitment)","numberOfBytes":"32","value":"t_struct(BlockCommitment)54762_storage"},"t_mapping(t_uint256,t_uint256)":{"encoding":"mapping","key":"t_uint256","label":"mapping(uint256 => uint256)","numberOfBytes":"32","value":"t_uint256"},"t_struct(BlockCommitment)54762_storage":{"encoding":"inplace","label":"struct MCRStorage.BlockCommitment","numberOfBytes":"96","members":[{"astId":54757,"contract":"src/settlement/MCR.sol:MCR","label":"height","offset":0,"slot":"0","type":"t_uint256"},{"astId":54759,"contract":"src/settlement/MCR.sol:MCR","label":"commitment","offset":0,"slot":"1","type":"t_bytes32"},{"astId":54761,"contract":"src/settlement/MCR.sol:MCR","label":"blockId","offset":0,"slot":"2","type":"t_bytes32"}]},"t_uint256":{"encoding":"inplace","label":"uint256","numberOfBytes":"32"}}},"id":104}