{"abi":[{"type":"function","name":"DEFAULT_ADMIN_ROLE","inputs":[],"outputs":[{"name":"","type":"bytes32","internalType":"bytes32"}],"stateMutability":"view"},{"type":"function","name":"UPGRADE_INTERFACE_VERSION","inputs":[],"outputs":[{"name":"","type":"string","internalType":"string"}],"stateMutability":"view"},{"type":"function","name":"acceptedBlocks","inputs":[{"name":"blockHeight","type":"uint256","internalType":"uint256"}],"outputs":[{"name":"height","type":"uint256","internalType":"uint256"},{"name":"commitment","type":"bytes32","internalType":"bytes32"},{"name":"blockId","type":"bytes32","internalType":"bytes32"}],"stateMutability":"view"},{"type":"function","name":"blockHeightEpochAssignments","inputs":[{"name":"blockHeight","type":"uint256","internalType":"uint256"}],"outputs":[{"name":"epoch","type":"uint256","internalType":"uint256"}],"stateMutability":"view"},{"type":"function","name":"commitmentStakes","inputs":[{"name":"blockHeight","type":"uint256","internalType":"uint256"},{"name":"commitement","type":"bytes32","internalType":"bytes32"}],"outputs":[{"name":"stake","type":"uint256","internalType":"uint256"}],"stateMutability":"view"},{"type":"function","name":"commitments","inputs":[{"name":"blockHeight","type":"uint256","internalType":"uint256"},{"name":"attester","type":"address","internalType":"address"}],"outputs":[{"name":"height","type":"uint256","internalType":"uint256"},{"name":"commitment","type":"bytes32","internalType":"bytes32"},{"name":"blockId","type":"bytes32","internalType":"bytes32"}],"stateMutability":"view"},{"type":"function","name":"computeAllCurrentEpochStake","inputs":[{"name":"attester","type":"address","internalType":"address"}],"outputs":[{"name":"","type":"uint256","internalType":"uint256"}],"stateMutability":"view"},{"type":"function","name":"computeAllStakeAtEpoch","inputs":[{"name":"epoch","type":"uint256","internalType":"uint256"},{"name":"attester","type":"address","internalType":"address"}],"outputs":[{"name":"","type":"uint256","internalType":"uint256"}],"stateMutability":"view"},{"type":"function","name":"computeAllTotalStakeForCurrentEpoch","inputs":[],"outputs":[{"name":"","type":"uint256","internalType":"uint256"}],"stateMutability":"view"},{"type":"function","name":"computeAllTotalStakeForEpoch","inputs":[{"name":"epoch","type":"uint256","internalType":"uint256"}],"outputs":[{"name":"","type":"uint256","internalType":"uint256"}],"stateMutability":"view"},{"type":"function","name":"createBlockCommitment","inputs":[{"name":"height","type":"uint256","internalType":"uint256"},{"name":"commitment","type":"bytes32","internalType":"bytes32"},{"name":"blockId","type":"bytes32","internalType":"bytes32"}],"outputs":[{"name":"","type":"tuple","internalType":"struct MCRStorage.BlockCommitment","components":[{"name":"height","type":"uint256","internalType":"uint256"},{"name":"commitment","type":"bytes32","internalType":"bytes32"},{"name":"blockId","type":"bytes32","internalType":"bytes32"}]}],"stateMutability":"pure"},{"type":"function","name":"getAcceptedCommitmentAtBlockHeight","inputs":[{"name":"blockHeight","type":"uint256","internalType":"uint256"}],"outputs":[{"name":"","type":"tuple","internalType":"struct MCRStorage.BlockCommitment","components":[{"name":"height","type":"uint256","internalType":"uint256"},{"name":"commitment","type":"bytes32","internalType":"bytes32"},{"name":"blockId","type":"bytes32","internalType":"bytes32"}]}],"stateMutability":"view"},{"type":"function","name":"getAttesterCommitmentAtBlockHeight","inputs":[{"name":"blockHeight","type":"uint256","internalType":"uint256"},{"name":"attester","type":"address","internalType":"address"}],"outputs":[{"name":"","type":"tuple","internalType":"struct MCRStorage.BlockCommitment","components":[{"name":"height","type":"uint256","internalType":"uint256"},{"name":"commitment","type":"bytes32","internalType":"bytes32"},{"name":"blockId","type":"bytes32","internalType":"bytes32"}]}],"stateMutability":"view"},{"type":"function","name":"getAttesters","inputs":[],"outputs":[{"name":"","type":"address[]","internalType":"address[]"}],"stateMutability":"view"},{"type":"function","name":"getCurrentEpoch","inputs":[],"outputs":[{"name":"","type":"uint256","internalType":"uint256"}],"stateMutability":"view"},{"type":"function","name":"getCurrentEpochStake","inputs":[{"name":"custodian","type":"address","internalType":"address"},{"name":"attester","type":"address","internalType":"address"}],"outputs":[{"name":"","type":"uint256","internalType":"uint256"}],"stateMutability":"view"},{"type":"function","name":"getEpochByBlockTime","inputs":[],"outputs":[{"name":"","type":"uint256","internalType":"uint256"}],"stateMutability":"view"},{"type":"function","name":"getMaxTolerableBlockHeight","inputs":[],"outputs":[{"name":"","type":"uint256","internalType":"uint256"}],"stateMutability":"view"},{"type":"function","name":"getNextEpoch","inputs":[],"outputs":[{"name":"","type":"uint256","internalType":"uint256"}],"stateMutability":"view"},{"type":"function","name":"getRoleAdmin","inputs":[{"name":"role","type":"bytes32","internalType":"bytes32"}],"outputs":[{"name":"","type":"bytes32","internalType":"bytes32"}],"stateMutability":"view"},{"type":"function","name":"getStakeAtEpoch","inputs":[{"name":"epoch","type":"uint256","internalType":"uint256"},{"name":"custodian","type":"address","internalType":"address"},{"name":"attester","type":"address","internalType":"address"}],"outputs":[{"name":"","type":"uint256","internalType":"uint256"}],"stateMutability":"view"},{"type":"function","name":"getTotalStakeForCurrentEpoch","inputs":[{"name":"custodian","type":"address","internalType":"address"}],"outputs":[{"name":"","type":"uint256","internalType":"uint256"}],"stateMutability":"view"},{"type":"function","name":"getTotalStakeForEpoch","inputs":[{"name":"epoch","type":"uint256","internalType":"uint256"},{"name":"custodian","type":"address","internalType":"address"}],"outputs":[{"name":"","type":"uint256","internalType":"uint256"}],"stateMutability":"view"},{"type":"function","name":"grantRole","inputs":[{"name":"role","type":"bytes32","internalType":"bytes32"},{"name":"account","type":"address","internalType":"address"}],"outputs":[],"stateMutability":"nonpayable"},{"type":"function","name":"hasRole","inputs":[{"name":"role","type":"bytes32","internalType":"bytes32"},{"name":"account","type":"address","internalType":"address"}],"outputs":[{"name":"","type":"bool","internalType":"bool"}],"stateMutability":"view"},{"type":"function","name":"initialize","inputs":[],"outputs":[],"stateMutability":"nonpayable"},{"type":"function","name":"initialize","inputs":[{"name":"_stakingContract","type":"address","internalType":"contract IMovementStaking"},{"name":"_lastAcceptedBlockHeight","type":"uint256","internalType":"uint256"},{"name":"_leadingBlockTolerance","type":"uint256","internalType":"uint256"},{"name":"_epochDuration","type":"uint256","internalType":"uint256"},{"name":"_custodians","type":"address[]","internalType":"address[]"}],"outputs":[],"stateMutability":"nonpayable"},{"type":"function","name":"lastAcceptedBlockHeight","inputs":[],"outputs":[{"name":"","type":"uint256","internalType":"uint256"}],"stateMutability":"view"},{"type":"function","name":"leadingBlockTolerance","inputs":[],"outputs":[{"name":"","type":"uint256","internalType":"uint256"}],"stateMutability":"view"},{"type":"function","name":"proxiableUUID","inputs":[],"outputs":[{"name":"","type":"bytes32","internalType":"bytes32"}],"stateMutability":"view"},{"type":"function","name":"renounceRole","inputs":[{"name":"role","type":"bytes32","internalType":"bytes32"},{"name":"callerConfirmation","type":"address","internalType":"address"}],"outputs":[],"stateMutability":"nonpayable"},{"type":"function","name":"revokeRole","inputs":[{"name":"role","type":"bytes32","internalType":"bytes32"},{"name":"account","type":"address","internalType":"address"}],"outputs":[],"stateMutability":"nonpayable"},{"type":"function","name":"stakingContract","inputs":[],"outputs":[{"name":"","type":"address","internalType":"contract IMovementStaking"}],"stateMutability":"view"},{"type":"function","name":"submitBatchBlockCommitment","inputs":[{"name":"blockCommitments","type":"tuple[]","internalType":"struct MCRStorage.BlockCommitment[]","components":[{"name":"height","type":"uint256","internalType":"uint256"},{"name":"commitment","type":"bytes32","internalType":"bytes32"},{"name":"blockId","type":"bytes32","internalType":"bytes32"}]}],"outputs":[],"stateMutability":"nonpayable"},{"type":"function","name":"submitBlockCommitment","inputs":[{"name":"blockCommitment","type":"tuple","internalType":"struct MCRStorage.BlockCommitment","components":[{"name":"height","type":"uint256","internalType":"uint256"},{"name":"commitment","type":"bytes32","internalType":"bytes32"},{"name":"blockId","type":"bytes32","internalType":"bytes32"}]}],"outputs":[],"stateMutability":"nonpayable"},{"type":"function","name":"supportsInterface","inputs":[{"name":"interfaceId","type":"bytes4","internalType":"bytes4"}],"outputs":[{"name":"","type":"bool","internalType":"bool"}],"stateMutability":"view"},{"type":"function","name":"upgradeToAndCall","inputs":[{"name":"newImplementation","type":"address","internalType":"address"},{"name":"data","type":"bytes","internalType":"bytes"}],"outputs":[],"stateMutability":"payable"},{"type":"event","name":"BlockAccepted","inputs":[{"name":"blockHash","type":"bytes32","indexed":true,"internalType":"bytes32"},{"name":"stateCommitment","type":"bytes32","indexed":false,"internalType":"bytes32"},{"name":"height","type":"uint256","indexed":false,"internalType":"uint256"}],"anonymous":false},{"type":"event","name":"BlockCommitmentSubmitted","inputs":[{"name":"blockHash","type":"bytes32","indexed":true,"internalType":"bytes32"},{"name":"stateCommitment","type":"bytes32","indexed":false,"internalType":"bytes32"},{"name":"attesterStake","type":"uint256","indexed":false,"internalType":"uint256"}],"anonymous":false},{"type":"event","name":"Initialized","inputs":[{"name":"version","type":"uint64","indexed":false,"internalType":"uint64"}],"anonymous":false},{"type":"event","name":"RoleAdminChanged","inputs":[{"name":"role","type":"bytes32","indexed":true,"internalType":"bytes32"},{"name":"previousAdminRole","type":"bytes32","indexed":true,"internalType":"bytes32"},{"name":"newAdminRole","type":"bytes32","indexed":true,"internalType":"bytes32"}],"anonymous":false},{"type":"event","name":"RoleGranted","inputs":[{"name":"role","type":"bytes32","indexed":true,"internalType":"bytes32"},{"name":"account","type":"address","indexed":true,"internalType":"address"},{"name":"sender","type":"address","indexed":true,"internalType":"address"}],"anonymous":false},{"type":"event","name":"RoleRevoked","inputs":[{"name":"role","type":"bytes32","indexed":true,"internalType":"bytes32"},{"name":"account","type":"address","indexed":true,"internalType":"address"},{"name":"sender","type":"address","indexed":true,"internalType":"address"}],"anonymous":false},{"type":"event","name":"Upgraded","inputs":[{"name":"implementation","type":"address","indexed":true,"internalType":"address"}],"anonymous":false},{"type":"error","name":"AccessControlBadConfirmation","inputs":[]},{"type":"error","name":"AccessControlUnauthorizedAccount","inputs":[{"name":"account","type":"address","internalType":"address"},{"name":"neededRole","type":"bytes32","internalType":"bytes32"}]},{"type":"error","name":"AddressEmptyCode","inputs":[{"name":"target","type":"address","internalType":"address"}]},{"type":"error","name":"ERC1967InvalidImplementation","inputs":[{"name":"implementation","type":"address","internalType":"address"}]},{"type":"error","name":"ERC1967NonPayable","inputs":[]},{"type":"error","name":"FailedInnerCall","inputs":[]},{"type":"error","name":"InvalidInitialization","inputs":[]},{"type":"error","name":"NotInitializing","inputs":[]},{"type":"error","name":"UUPSUnauthorizedCallContext","inputs":[]},{"type":"error","name":"UUPSUnsupportedProxiableUUID","inputs":[{"name":"slot","type":"bytes32","internalType":"bytes32"}]}],"bytecode":{"object":"0x60a0604052306080523480156012575f80fd5b5060805161218e6100395f395f81816111300152818161115901526112a1015261218e5ff3fe608060405260043610610212575f3560e01c806391d148541161011e578063e1b2b222116100a8578063ee99205c1161006d578063ee99205c14610727578063efe97d051461075d578063f34d002a14610771578063f89fe60b14610790578063fc2788ad146107af575f80fd5b8063e1b2b222146105ff578063e1ffa44c1461061e578063e90d4c0614610682578063ee377d90146106c7578063ee96da05146106db575f80fd5b8063b274a935116100ee578063b274a9351461056f578063b97dd9e21461058e578063bc90afbb146105a2578063c6e1b9db146105c1578063d547741f146105e0575f80fd5b806391d14854146104e1578063a217fddf14610500578063a3df415f14610513578063ad3cb1cc14610532575f80fd5b80634ed7e4351161019f57806360fea5dd1161016f57806360fea5dd146104665780636542384f146104855780636b588ac7146104a457806374e8e564146104b95780638129fc1c146104cd575f80fd5b80634ed7e4351461037f5780634f1ef286146103a05780634faaaafc146103b357806352d1902d14610452575f80fd5b80631faea1ed116101e55780631faea1ed146102d657806320e0e445146102f5578063248a9ca3146103205780632f2ff15d1461033f57806336568abe14610360575f80fd5b806301ffc9a7146102165780631c4e4e271461024a5780631cfa25161461029f5780631dfcce8c146102c2575b5f80fd5b348015610221575f80fd5b50610235610230366004611ad5565b6107e5565b60405190151581526020015b60405180910390f35b348015610255575f80fd5b50610284610264366004611afc565b60066020525f908152604090208054600182015460029092015490919083565b60408051938452602084019290925290820152606001610241565b3480156102aa575f80fd5b506102b460015481565b604051908152602001610241565b3480156102cd575f80fd5b506102b461081b565b3480156102e1575f80fd5b506102b46102f0366004611b27565b61082c565b348015610300575f80fd5b506102b461030f366004611afc565b60036020525f908152604090205481565b34801561032b575f80fd5b506102b461033a366004611afc565b6108b7565b34801561034a575f80fd5b5061035e610359366004611b66565b6108d7565b005b34801561036b575f80fd5b5061035e61037a366004611b66565b6108f9565b34801561038a575f80fd5b50610393610931565b6040516102419190611bd7565b61035e6103ae366004611c2e565b61099d565b3480156103be575f80fd5b506104306103cd366004611b66565b60408051606080820183525f8083526020808401829052928401819052948552600482528285206001600160a01b039490941685529281529281902081519283018252805483526001810154938301939093526002909201549181019190915290565b6040805182518152602080840151908201529181015190820152606001610241565b34801561045d575f80fd5b506102b46109bc565b348015610471575f80fd5b506102b4610480366004611cd5565b6109d7565b348015610490575f80fd5b506102b461049f366004611afc565b6109e9565b3480156104af575f80fd5b506102b460025481565b3480156104c4575f80fd5b506102b4610aa2565b3480156104d8575f80fd5b5061035e610ab3565b3480156104ec575f80fd5b506102356104fb366004611b66565b610bbf565b34801561050b575f80fd5b506102b45f81565b34801561051e575f80fd5b5061035e61052d366004611d13565b610bf5565b34801561053d575f80fd5b50610562604051806040016040528060058152602001640352e302e360dc1b81525081565b6040516102419190611e10565b34801561057a575f80fd5b506102b4610589366004611cd5565b610d7f565b348015610599575f80fd5b506102b4610d91565b3480156105ad575f80fd5b506102b46105bc366004611e22565b610dfc565b3480156105cc575f80fd5b506102b46105db366004611b66565b610e0f565b3480156105eb575f80fd5b5061035e6105fa366004611b66565b610e88565b34801561060a575f80fd5b5061035e610619366004611ea5565b610ea4565b348015610629575f80fd5b50610430610638366004611afc565b60408051606080820183525f808352602080840182905292840181905293845260068252928290208251938401835280548452600181015491840191909152600201549082015290565b34801561068d575f80fd5b5061028461069c366004611b66565b600460209081525f928352604080842090915290825290208054600182015460029092015490919083565b3480156106d2575f80fd5b506102b4610ed9565b3480156106e6575f80fd5b506104306106f5366004611f40565b60408051606080820183525f808352602080840182905292840152825190810183529485528401929092529082015290565b348015610732575f80fd5b505f54610745906001600160a01b031681565b6040516001600160a01b039091168152602001610241565b348015610768575f80fd5b506102b4610f09565b34801561077c575f80fd5b506102b461078b366004611b66565b610f39565b34801561079b575f80fd5b5061035e6107aa366004611f69565b610ff4565b3480156107ba575f80fd5b506102b46107c9366004611f83565b600560209081525f928352604080842090915290825290205481565b5f6001600160e01b03198216637965db0b60e01b148061081557506301ffc9a760e01b6001600160e01b03198316145b92915050565b5f61082761049f610d91565b905090565b5f80546040516311b2104b60e31b8152306004820152602481018690526001600160a01b038581166044830152848116606483015290911690638d90825890608401602060405180830381865afa158015610889573d5f803e3d5ffd5b505050506040513d601f19601f820116820180604052508101906108ad9190611fa3565b90505b9392505050565b5f9081525f80516020612139833981519152602052604090206001015490565b6108e0826108b7565b6108e981611001565b6108f3838361100b565b50505050565b6001600160a01b03811633146109225760405163334bd91960e11b815260040160405180910390fd5b61092c82826110ac565b505050565b5f54604051632924b73b60e01b81523060048201526060916001600160a01b031690632924b73b906024015f60405180830381865afa158015610976573d5f803e3d5ffd5b505050506040513d5f823e601f3d908101601f191682016040526108279190810190611fba565b6109a5611125565b6109ae826111cb565b6109b882826111d5565b5050565b5f6109c5611296565b505f8051602061211983398151915290565b5f6108156109e3610d91565b83610f39565b5f8054604051636ae501ef60e11b815230600482015282916001600160a01b03169063d5ca03de906024015f60405180830381865afa158015610a2e573d5f803e3d5ffd5b505050506040513d5f823e601f3d908101601f19168201604052610a559190810190611fba565b90505f805b8251811015610a9a57610a8685848381518110610a7957610a7961204a565b6020026020010151610e0f565b610a909083612072565b9150600101610a5a565b509392505050565b5f6001546002546108279190612072565b7ff0c57e16840df040f15088dc2f81fe391c3923bec73e23a9662efc9c229c6a008054600160401b810460ff16159067ffffffffffffffff165f81158015610af85750825b90505f8267ffffffffffffffff166001148015610b145750303b155b905081158015610b22575080155b15610b405760405163f92ee8a960e01b815260040160405180910390fd5b845467ffffffffffffffff191660011785558315610b6a57845460ff60401b1916600160401b1785555b610b726112df565b8315610bb857845460ff60401b19168555604051600181527fc7f505b2f371ae2175ee4913f4499e1f2633a7b5936321eed1cdaeb6115181d29060200160405180910390a15b5050505050565b5f9182525f80516020612139833981519152602090815260408084206001600160a01b0393909316845291905290205460ff1690565b7ff0c57e16840df040f15088dc2f81fe391c3923bec73e23a9662efc9c229c6a008054600160401b810460ff16159067ffffffffffffffff165f81158015610c3a5750825b90505f8267ffffffffffffffff166001148015610c565750303b155b905081158015610c64575080155b15610c825760405163f92ee8a960e01b815260040160405180910390fd5b845467ffffffffffffffff191660011785558315610cac57845460ff60401b1916600160401b1785555b610cb46112eb565b5f80546001600160a01b0319166001600160a01b038c16908117909155600189905560028a90556040516351065c8960e01b81526351065c8990610d009030908b908b90600401612085565b5f604051808303815f87803b158015610d17575f80fd5b505af1158015610d29573d5f803e3d5ffd5b505050508315610d7357845460ff60401b19168555604051600181527fc7f505b2f371ae2175ee4913f4499e1f2633a7b5936321eed1cdaeb6115181d29060200160405180910390a15b50505050505050505050565b5f610815610d8b610d91565b83610e0f565b5f8054604051634d3223a560e01b81523060048201526001600160a01b0390911690634d3223a5906024015b602060405180830381865afa158015610dd8573d5f803e3d5ffd5b505050506040513d601f19601f820116820180604052508101906108279190611fa3565b5f6108b0610e08610d91565b848461082c565b5f8054604051635cdf315560e01b8152306004820152602481018590526001600160a01b03848116604483015290911690635cdf315590606401602060405180830381865afa158015610e64573d5f803e3d5ffd5b505050506040513d601f19601f820116820180604052508101906108b09190611fa3565b610e91826108b7565b610e9a81611001565b6108f383836110ac565b5f5b81518110156109b857610ed1828281518110610ec457610ec461204a565b6020026020010151610ff4565b600101610ea6565b5f8054604051631868e3ff60e31b81523060048201526001600160a01b039091169063c3471ff890602401610dbd565b5f805460405163010913cb60e71b81523060048201526001600160a01b0390911690638489e58090602401610dbd565b5f8054604051636ae501ef60e11b815230600482015282916001600160a01b03169063d5ca03de906024015f60405180830381865afa158015610f7e573d5f803e3d5ffd5b505050506040513d5f823e601f3d908101601f19168201604052610fa59190810190611fba565b90505f805b8251811015610feb57610fd786848381518110610fc957610fc961204a565b60200260200101518761082c565b610fe19083612072565b9150600101610faa565b50949350505050565b610ffe33826112fd565b50565b610ffe8133611539565b5f5f805160206121398339815191526110248484610bbf565b6110a3575f848152602082815260408083206001600160a01b03871684529091529020805460ff191660011790556110593390565b6001600160a01b0316836001600160a01b0316857f2f8788117e7eff1d82e926ec794901d17c78024a50270940304540a733656f0d60405160405180910390a46001915050610815565b5f915050610815565b5f5f805160206121398339815191526110c58484610bbf565b156110a3575f848152602082815260408083206001600160a01b0387168085529252808320805460ff1916905551339287917ff6391f5c32d9c69d2a47ea670b442974b53935d1edc7fd64eb21e047a839171b9190a46001915050610815565b306001600160a01b037f00000000000000000000000000000000000000000000000000000000000000001614806111ab57507f00000000000000000000000000000000000000000000000000000000000000006001600160a01b031661119f5f80516020612119833981519152546001600160a01b031690565b6001600160a01b031614155b156111c95760405163703e46dd60e11b815260040160405180910390fd5b565b5f6109b881611001565b816001600160a01b03166352d1902d6040518163ffffffff1660e01b8152600401602060405180830381865afa92505050801561122f575060408051601f3d908101601f1916820190925261122c91810190611fa3565b60015b61125c57604051634c9c8ce360e01b81526001600160a01b03831660048201526024015b60405180910390fd5b5f80516020612119833981519152811461128c57604051632a87526960e21b815260048101829052602401611253565b61092c8383611572565b306001600160a01b037f000000000000000000000000000000000000000000000000000000000000000016146111c95760405163703e46dd60e11b815260040160405180910390fd5b6112e76115c7565b6111c95b6112f36115c7565b610ffe5f3361100b565b80515f9081526004602090815260408083206001600160a01b0386168452909152902054156113945760405162461bcd60e51b815260206004820152603860248201527f41747465737465722068617320616c726561647920636f6d6d6974746564207460448201527f6f206120626c6f636b20617420746869732068656967687400000000000000006064820152608401611253565b6001546002546113a49190612072565b81511061142c5760405162461bcd60e51b815260206004820152604a60248201527f41747465737465722068617320636f6d6d697474656420746f206120626c6f6360448201527f6b20746f6f20666172206168656164206f6620746865206c61737420616363656064820152697074656420626c6f636b60b01b608482015260a401611253565b80515f90815260036020526040812054900361145b5761144a610ed9565b81515f908152600360205260409020555b80515f9081526004602090815260408083206001600160a01b038616845282528083208451815591840151600183015583015160029091015561149d836109d7565b82515f9081526005602090815260408083208287015184529091528120805492935083929091906114cf908490612072565b9091555050604080830151602080850151835190815290810184905290917f4c9b7866113ce81c9ece48d2a0f4bb9d89d87f997a851cf3c448ee02f54559fd910160405180910390a25b611530600254600161152b9190612072565b611610565b61151957505050565b6115438282610bbf565b6109b85760405163e2517d3f60e01b81526001600160a01b038216600482015260248101839052604401611253565b61157b8261171e565b6040516001600160a01b038316907fbc7cd75a20ee27fd9adebab32041f755214dbc6bffa90cc0225b39da2e5c2d3b905f90a28051156115bf5761092c8282611781565b6109b86117f3565b7ff0c57e16840df040f15088dc2f81fe391c3923bec73e23a9662efc9c229c6a0054600160401b900460ff166111c957604051631afcd79f60e31b815260040160405180910390fd5b5f818152600360205260408120545b80611628610d91565b101561163b57611636611812565b61161f565b5f6003611647836109e9565b6116529060026120ab565b61165c91906120c2565b90505f611667610931565b90505f5b8151811015611713575f8282815181106116875761168761204a565b6020908102919091018101515f8981526004835260408082206001600160a01b038416835284528082208151606081018352815480825260018301548288019081526002909301548285015284526005865282842091518452945290205490925085811115611708576116f9826118a1565b50600198975050505050505050565b50505060010161166b565b505f95945050505050565b806001600160a01b03163b5f0361175357604051634c9c8ce360e01b81526001600160a01b0382166004820152602401611253565b5f8051602061211983398151915280546001600160a01b0319166001600160a01b0392909216919091179055565b60605f80846001600160a01b03168460405161179d91906120e1565b5f60405180830381855af49150503d805f81146117d5576040519150601f19603f3d011682016040523d82523d5f602084013e6117da565b606091505b50915091506117ea8583836119eb565b95945050505050565b34156111c95760405163b398979f60e01b815260040160405180910390fd5b61185060405180604001604052806015815260200174526f6c6c696e67206f7665722065706f636820257360581b81525061184b610d91565b611a47565b5f805460408051632a21edc760e21b815290516001600160a01b039092169263a887b71c9260048084019382900301818387803b15801561188f575f80fd5b505af11580156108f3573d5f803e3d5ffd5b6118a9610d91565b81515f90815260036020526040902054146119655760405162461bcd60e51b815260206004820152606a60248201527f426c6f636b20636f6d6d69746d656e74206973206e6f7420696e20746865206360448201527f757272656e742065706f63682c2069742063616e6e6f7420626520616363657060648201527f7465642e205468697320696e6469636174657320612062756720696e2074686560848201526910383937ba37b1b7b61760b11b60a482015260c401611253565b80515f908152600660209081526040918290208351808255828501516001830181905584860151600293840181905592829055845190815292830152917f5b0d1f14085ff88796df21c2944d34c115838925a7bee30850fcacaaf902a379910160405180910390a26119d5610d91565b6119dd610ed9565b1115610ffe57610ffe611812565b606082611a00576119fb82611a8c565b6108b0565b8151158015611a1757506001600160a01b0384163b155b15611a4057604051639996b31560e01b81526001600160a01b0385166004820152602401611253565b50806108b0565b6109b88282604051602401611a5d9291906120f7565b60408051601f198184030181529190526020810180516001600160e01b03166309710a9d60e41b179052611ab5565b805115611a9c5780518082602001fd5b604051630a12f52160e11b815260040160405180910390fd5b80516a636f6e736f6c652e6c6f67602083015f808483855afa5050505050565b5f60208284031215611ae5575f80fd5b81356001600160e01b0319811681146108b0575f80fd5b5f60208284031215611b0c575f80fd5b5035919050565b6001600160a01b0381168114610ffe575f80fd5b5f805f60608486031215611b39575f80fd5b833592506020840135611b4b81611b13565b91506040840135611b5b81611b13565b809150509250925092565b5f8060408385031215611b77575f80fd5b823591506020830135611b8981611b13565b809150509250929050565b5f8151808452602084019350602083015f5b82811015611bcd5781516001600160a01b0316865260209586019590910190600101611ba6565b5093949350505050565b602081525f6108b06020830184611b94565b634e487b7160e01b5f52604160045260245ffd5b604051601f8201601f1916810167ffffffffffffffff81118282101715611c2657611c26611be9565b604052919050565b5f8060408385031215611c3f575f80fd5b8235611c4a81611b13565b9150602083013567ffffffffffffffff811115611c65575f80fd5b8301601f81018513611c75575f80fd5b803567ffffffffffffffff811115611c8f57611c8f611be9565b611ca2601f8201601f1916602001611bfd565b818152866020838501011115611cb6575f80fd5b816020840160208301375f602083830101528093505050509250929050565b5f60208284031215611ce5575f80fd5b81356108b081611b13565b5f67ffffffffffffffff821115611d0957611d09611be9565b5060051b60200190565b5f805f805f60a08688031215611d27575f80fd5b8535611d3281611b13565b9450602086013593506040860135925060608601359150608086013567ffffffffffffffff811115611d62575f80fd5b8601601f81018813611d72575f80fd5b8035611d85611d8082611cf0565b611bfd565b8082825260208201915060208360051b85010192508a831115611da6575f80fd5b6020840193505b82841015611dd1578335611dc081611b13565b825260209384019390910190611dad565b809450505050509295509295909350565b5f81518084528060208401602086015e5f602082860101526020601f19601f83011685010191505092915050565b602081525f6108b06020830184611de2565b5f8060408385031215611e33575f80fd5b8235611e3e81611b13565b91506020830135611b8981611b13565b5f60608284031215611e5e575f80fd5b6040516060810167ffffffffffffffff81118282101715611e8157611e81611be9565b60409081528335825260208085013590830152928301359281019290925250919050565b5f60208284031215611eb5575f80fd5b813567ffffffffffffffff811115611ecb575f80fd5b8201601f81018413611edb575f80fd5b8035611ee9611d8082611cf0565b80828252602082019150602060608402850101925086831115611f0a575f80fd5b6020840193505b82841015611f3657611f238785611e4e565b8252602082019150606084019350611f11565b9695505050505050565b5f805f60608486031215611f52575f80fd5b505081359360208301359350604090920135919050565b5f60608284031215611f79575f80fd5b6108b08383611e4e565b5f8060408385031215611f94575f80fd5b50508035926020909101359150565b5f60208284031215611fb3575f80fd5b5051919050565b5f60208284031215611fca575f80fd5b815167ffffffffffffffff811115611fe0575f80fd5b8201601f81018413611ff0575f80fd5b8051611ffe611d8082611cf0565b8082825260208201915060208360051b85010192508683111561201f575f80fd5b6020840193505b82841015611f3657835161203981611b13565b825260209384019390910190612026565b634e487b7160e01b5f52603260045260245ffd5b634e487b7160e01b5f52601160045260245ffd5b808201808211156108155761081561205e565b60018060a01b0384168152826020820152606060408201525f6117ea6060830184611b94565b80820281158282048414176108155761081561205e565b5f826120dc57634e487b7160e01b5f52601260045260245ffd5b500490565b5f82518060208501845e5f920191825250919050565b604081525f6121096040830185611de2565b9050826020830152939250505056fe360894a13ba1a3210667c828492db98dca3e2076cc3735a920a3ca505d382bbc02dd7bc7dec4dceedda775e58dd541e08a116c6c53815c0bd028192f7b626800a2646970667358221220248a0e0afa495b774a855b30af4523d8b97647b6fbb5adb2654b8f16a62f43fc64736f6c634300081a0033","linkReferences":{}},"methodIdentifiers":{"DEFAULT_ADMIN_ROLE()":"a217fddf","UPGRADE_INTERFACE_VERSION()":"ad3cb1cc","acceptedBlocks(uint256)":"1c4e4e27","blockHeightEpochAssignments(uint256)":"20e0e445","commitmentStakes(uint256,bytes32)":"fc2788ad","commitments(uint256,address)":"e90d4c06","computeAllCurrentEpochStake(address)":"60fea5dd","computeAllStakeAtEpoch(uint256,address)":"f34d002a","computeAllTotalStakeForCurrentEpoch()":"1dfcce8c","computeAllTotalStakeForEpoch(uint256)":"6542384f","createBlockCommitment(uint256,bytes32,bytes32)":"ee96da05","getAcceptedCommitmentAtBlockHeight(uint256)":"e1ffa44c","getAttesterCommitmentAtBlockHeight(uint256,address)":"4faaaafc","getAttesters()":"4ed7e435","getCurrentEpoch()":"b97dd9e2","getCurrentEpochStake(address,address)":"bc90afbb","getEpochByBlockTime()":"ee377d90","getMaxTolerableBlockHeight()":"74e8e564","getNextEpoch()":"efe97d05","getRoleAdmin(bytes32)":"248a9ca3","getStakeAtEpoch(uint256,address,address)":"1faea1ed","getTotalStakeForCurrentEpoch(address)":"b274a935","getTotalStakeForEpoch(uint256,address)":"c6e1b9db","grantRole(bytes32,address)":"2f2ff15d","hasRole(bytes32,address)":"91d14854","initialize()":"8129fc1c","initialize(address,uint256,uint256,uint256,address[])":"a3df415f","lastAcceptedBlockHeight()":"6b588ac7","leadingBlockTolerance()":"1cfa2516","proxiableUUID()":"52d1902d","renounceRole(bytes32,address)":"36568abe","revokeRole(bytes32,address)":"d547741f","stakingContract()":"ee99205c","submitBatchBlockCommitment((uint256,bytes32,bytes32)[])":"e1b2b222","submitBlockCommitment((uint256,bytes32,bytes32))":"f89fe60b","supportsInterface(bytes4)":"01ffc9a7","upgradeToAndCall(address,bytes)":"4f1ef286"},"storageLayout":{"storage":[{"astId":51963,"contract":"src/settlement/MCR.sol:MCR","label":"stakingContract","offset":0,"slot":"0","type":"t_contract(IMovementStaking)53707"},{"astId":51965,"contract":"src/settlement/MCR.sol:MCR","label":"leadingBlockTolerance","offset":0,"slot":"1","type":"t_uint256"},{"astId":51967,"contract":"src/settlement/MCR.sol:MCR","label":"lastAcceptedBlockHeight","offset":0,"slot":"2","type":"t_uint256"},{"astId":51978,"contract":"src/settlement/MCR.sol:MCR","label":"blockHeightEpochAssignments","offset":0,"slot":"3","type":"t_mapping(t_uint256,t_uint256)"},{"astId":51985,"contract":"src/settlement/MCR.sol:MCR","label":"commitments","offset":0,"slot":"4","type":"t_mapping(t_uint256,t_mapping(t_address,t_struct(BlockCommitment)51974_storage))"},{"astId":51991,"contract":"src/settlement/MCR.sol:MCR","label":"commitmentStakes","offset":0,"slot":"5","type":"t_mapping(t_uint256,t_mapping(t_bytes32,t_uint256))"},{"astId":51996,"contract":"src/settlement/MCR.sol:MCR","label":"acceptedBlocks","offset":0,"slot":"6","type":"t_mapping(t_uint256,t_struct(BlockCommitment)51974_storage)"},{"astId":52000,"contract":"src/settlement/MCR.sol:MCR","label":"__gap","offset":0,"slot":"7","type":"t_array(t_uint256)50_storage"}],"types":{"t_address":{"encoding":"inplace","label":"address","numberOfBytes":"20"},"t_array(t_uint256)50_storage":{"encoding":"inplace","label":"uint256[50]","numberOfBytes":"1600","base":"t_uint256"},"t_bytes32":{"encoding":"inplace","label":"bytes32","numberOfBytes":"32"},"t_contract(IMovementStaking)53707":{"encoding":"inplace","label":"contract IMovementStaking","numberOfBytes":"20"},"t_mapping(t_address,t_struct(BlockCommitment)51974_storage)":{"encoding":"mapping","key":"t_address","label":"mapping(address => struct MCRStorage.BlockCommitment)","numberOfBytes":"32","value":"t_struct(BlockCommitment)51974_storage"},"t_mapping(t_bytes32,t_uint256)":{"encoding":"mapping","key":"t_bytes32","label":"mapping(bytes32 => uint256)","numberOfBytes":"32","value":"t_uint256"},"t_mapping(t_uint256,t_mapping(t_address,t_struct(BlockCommitment)51974_storage))":{"encoding":"mapping","key":"t_uint256","label":"mapping(uint256 => mapping(address => struct MCRStorage.BlockCommitment))","numberOfBytes":"32","value":"t_mapping(t_address,t_struct(BlockCommitment)51974_storage)"},"t_mapping(t_uint256,t_mapping(t_bytes32,t_uint256))":{"encoding":"mapping","key":"t_uint256","label":"mapping(uint256 => mapping(bytes32 => uint256))","numberOfBytes":"32","value":"t_mapping(t_bytes32,t_uint256)"},"t_mapping(t_uint256,t_struct(BlockCommitment)51974_storage)":{"encoding":"mapping","key":"t_uint256","label":"mapping(uint256 => struct MCRStorage.BlockCommitment)","numberOfBytes":"32","value":"t_struct(BlockCommitment)51974_storage"},"t_mapping(t_uint256,t_uint256)":{"encoding":"mapping","key":"t_uint256","label":"mapping(uint256 => uint256)","numberOfBytes":"32","value":"t_uint256"},"t_struct(BlockCommitment)51974_storage":{"encoding":"inplace","label":"struct MCRStorage.BlockCommitment","numberOfBytes":"96","members":[{"astId":51969,"contract":"src/settlement/MCR.sol:MCR","label":"height","offset":0,"slot":"0","type":"t_uint256"},{"astId":51971,"contract":"src/settlement/MCR.sol:MCR","label":"commitment","offset":0,"slot":"1","type":"t_bytes32"},{"astId":51973,"contract":"src/settlement/MCR.sol:MCR","label":"blockId","offset":0,"slot":"2","type":"t_bytes32"}]},"t_uint256":{"encoding":"inplace","label":"uint256","numberOfBytes":"32"}}},"id":48}