{"abi":[{"type":"function","name":"COMMITMENT_ADMIN","inputs":[],"outputs":[{"name":"","type":"bytes32","internalType":"bytes32"}],"stateMutability":"view"},{"type":"function","name":"DEFAULT_ADMIN_ROLE","inputs":[],"outputs":[{"name":"","type":"bytes32","internalType":"bytes32"}],"stateMutability":"view"},{"type":"function","name":"TRUSTED_ATTESTER","inputs":[],"outputs":[{"name":"","type":"bytes32","internalType":"bytes32"}],"stateMutability":"view"},{"type":"function","name":"UPGRADE_INTERFACE_VERSION","inputs":[],"outputs":[{"name":"","type":"string","internalType":"string"}],"stateMutability":"view"},{"type":"function","name":"acceptGenesisCeremony","inputs":[],"outputs":[],"stateMutability":"nonpayable"},{"type":"function","name":"acceptorTerm","inputs":[],"outputs":[{"name":"","type":"uint256","internalType":"uint256"}],"stateMutability":"view"},{"type":"function","name":"batchGrantCommitmentAdmin","inputs":[{"name":"accounts","type":"address[]","internalType":"address[]"}],"outputs":[],"stateMutability":"nonpayable"},{"type":"function","name":"batchGrantTrustedAttester","inputs":[{"name":"attesters","type":"address[]","internalType":"address[]"}],"outputs":[],"stateMutability":"nonpayable"},{"type":"function","name":"commitmentStakes","inputs":[{"name":"superBlockHeight","type":"uint256","internalType":"uint256"},{"name":"commitement","type":"bytes32","internalType":"bytes32"}],"outputs":[{"name":"stake","type":"uint256","internalType":"uint256"}],"stateMutability":"view"},{"type":"function","name":"commitments","inputs":[{"name":"superBlockHeight","type":"uint256","internalType":"uint256"},{"name":"attester","type":"address","internalType":"address"}],"outputs":[{"name":"height","type":"uint256","internalType":"uint256"},{"name":"commitment","type":"bytes32","internalType":"bytes32"},{"name":"blockId","type":"bytes32","internalType":"bytes32"}],"stateMutability":"view"},{"type":"function","name":"computeTotalStake","inputs":[{"name":"epoch","type":"uint256","internalType":"uint256"}],"outputs":[{"name":"","type":"uint256","internalType":"uint256"}],"stateMutability":"view"},{"type":"function","name":"computeTotalStakeForAcceptingEpoch","inputs":[],"outputs":[{"name":"","type":"uint256","internalType":"uint256"}],"stateMutability":"view"},{"type":"function","name":"createSuperBlockCommitment","inputs":[{"name":"height","type":"uint256","internalType":"uint256"},{"name":"commitment","type":"bytes32","internalType":"bytes32"},{"name":"blockId","type":"bytes32","internalType":"bytes32"}],"outputs":[{"name":"","type":"tuple","internalType":"struct MCRStorage.SuperBlockCommitment","components":[{"name":"height","type":"uint256","internalType":"uint256"},{"name":"commitment","type":"bytes32","internalType":"bytes32"},{"name":"blockId","type":"bytes32","internalType":"bytes32"}]}],"stateMutability":"pure"},{"type":"function","name":"currentAcceptor","inputs":[],"outputs":[{"name":"","type":"address","internalType":"address"}],"stateMutability":"view"},{"type":"function","name":"currentAcceptorIsLive","inputs":[],"outputs":[{"name":"","type":"bool","internalType":"bool"}],"stateMutability":"pure"},{"type":"function","name":"forceLatestCommitment","inputs":[{"name":"superBlockCommitment","type":"tuple","internalType":"struct MCRStorage.SuperBlockCommitment","components":[{"name":"height","type":"uint256","internalType":"uint256"},{"name":"commitment","type":"bytes32","internalType":"bytes32"},{"name":"blockId","type":"bytes32","internalType":"bytes32"}]}],"outputs":[],"stateMutability":"nonpayable"},{"type":"function","name":"getAcceptingEpoch","inputs":[],"outputs":[{"name":"","type":"uint256","internalType":"uint256"}],"stateMutability":"view"},{"type":"function","name":"getAttesterStake","inputs":[{"name":"epoch","type":"uint256","internalType":"uint256"},{"name":"attester","type":"address","internalType":"address"}],"outputs":[{"name":"","type":"uint256","internalType":"uint256"}],"stateMutability":"view"},{"type":"function","name":"getAttesterStakeForAcceptingEpoch","inputs":[{"name":"attester","type":"address","internalType":"address"}],"outputs":[{"name":"","type":"uint256","internalType":"uint256"}],"stateMutability":"view"},{"type":"function","name":"getCurrentAcceptor","inputs":[],"outputs":[{"name":"","type":"address","internalType":"address"}],"stateMutability":"view"},{"type":"function","name":"getCustodianStake","inputs":[{"name":"epoch","type":"uint256","internalType":"uint256"},{"name":"custodian","type":"address","internalType":"address"}],"outputs":[{"name":"","type":"uint256","internalType":"uint256"}],"stateMutability":"view"},{"type":"function","name":"getCustodianStakeForAcceptingEpoch","inputs":[{"name":"custodian","type":"address","internalType":"address"}],"outputs":[{"name":"","type":"uint256","internalType":"uint256"}],"stateMutability":"view"},{"type":"function","name":"getL1BlockStartOfCurrentAcceptorTerm","inputs":[],"outputs":[{"name":"","type":"uint256","internalType":"uint256"}],"stateMutability":"view"},{"type":"function","name":"getMaxTolerableSuperBlockHeight","inputs":[],"outputs":[{"name":"","type":"uint256","internalType":"uint256"}],"stateMutability":"view"},{"type":"function","name":"getNextAcceptingEpoch","inputs":[],"outputs":[{"name":"","type":"uint256","internalType":"uint256"}],"stateMutability":"view"},{"type":"function","name":"getPostconfirmedCommitment","inputs":[{"name":"height","type":"uint256","internalType":"uint256"}],"outputs":[{"name":"","type":"tuple","internalType":"struct MCRStorage.SuperBlockCommitment","components":[{"name":"height","type":"uint256","internalType":"uint256"},{"name":"commitment","type":"bytes32","internalType":"bytes32"},{"name":"blockId","type":"bytes32","internalType":"bytes32"}]}],"stateMutability":"view"},{"type":"function","name":"getPresentEpoch","inputs":[],"outputs":[{"name":"","type":"uint256","internalType":"uint256"}],"stateMutability":"view"},{"type":"function","name":"getRoleAdmin","inputs":[{"name":"role","type":"bytes32","internalType":"bytes32"}],"outputs":[{"name":"","type":"bytes32","internalType":"bytes32"}],"stateMutability":"view"},{"type":"function","name":"getStake","inputs":[{"name":"epoch","type":"uint256","internalType":"uint256"},{"name":"custodian","type":"address","internalType":"address"},{"name":"attester","type":"address","internalType":"address"}],"outputs":[{"name":"","type":"uint256","internalType":"uint256"}],"stateMutability":"view"},{"type":"function","name":"getStakeForAcceptingEpoch","inputs":[{"name":"custodian","type":"address","internalType":"address"},{"name":"attester","type":"address","internalType":"address"}],"outputs":[{"name":"","type":"uint256","internalType":"uint256"}],"stateMutability":"view"},{"type":"function","name":"getStakedAttestersForAcceptingEpoch","inputs":[],"outputs":[{"name":"","type":"address[]","internalType":"address[]"}],"stateMutability":"view"},{"type":"function","name":"getValidatorCommitmentAtSuperBlockHeight","inputs":[{"name":"height","type":"uint256","internalType":"uint256"},{"name":"attester","type":"address","internalType":"address"}],"outputs":[{"name":"","type":"tuple","internalType":"struct MCRStorage.SuperBlockCommitment","components":[{"name":"height","type":"uint256","internalType":"uint256"},{"name":"commitment","type":"bytes32","internalType":"bytes32"},{"name":"blockId","type":"bytes32","internalType":"bytes32"}]}],"stateMutability":"view"},{"type":"function","name":"grantCommitmentAdmin","inputs":[{"name":"account","type":"address","internalType":"address"}],"outputs":[],"stateMutability":"nonpayable"},{"type":"function","name":"grantRole","inputs":[{"name":"role","type":"bytes32","internalType":"bytes32"},{"name":"account","type":"address","internalType":"address"}],"outputs":[],"stateMutability":"nonpayable"},{"type":"function","name":"grantTrustedAttester","inputs":[{"name":"attester","type":"address","internalType":"address"}],"outputs":[],"stateMutability":"nonpayable"},{"type":"function","name":"hasRole","inputs":[{"name":"role","type":"bytes32","internalType":"bytes32"},{"name":"account","type":"address","internalType":"address"}],"outputs":[{"name":"","type":"bool","internalType":"bool"}],"stateMutability":"view"},{"type":"function","name":"initialize","inputs":[{"name":"_stakingContract","type":"address","internalType":"contract IMovementStaking"},{"name":"_lastPostconfirmedSuperBlockHeight","type":"uint256","internalType":"uint256"},{"name":"_leadingSuperBlockTolerance","type":"uint256","internalType":"uint256"},{"name":"_epochDuration","type":"uint256","internalType":"uint256"},{"name":"_custodians","type":"address[]","internalType":"address[]"},{"name":"_acceptorTerm","type":"uint256","internalType":"uint256"}],"outputs":[],"stateMutability":"nonpayable"},{"type":"function","name":"initialize","inputs":[],"outputs":[],"stateMutability":"nonpayable"},{"type":"function","name":"lastPostconfirmedSuperBlockHeight","inputs":[],"outputs":[{"name":"","type":"uint256","internalType":"uint256"}],"stateMutability":"view"},{"type":"function","name":"leadingSuperBlockTolerance","inputs":[],"outputs":[{"name":"","type":"uint256","internalType":"uint256"}],"stateMutability":"view"},{"type":"function","name":"openAttestationEnabled","inputs":[],"outputs":[{"name":"","type":"bool","internalType":"bool"}],"stateMutability":"view"},{"type":"function","name":"postconfirmSuperBlocks","inputs":[],"outputs":[],"stateMutability":"nonpayable"},{"type":"function","name":"postconfirmedAtL1BlockHeight","inputs":[{"name":"superBlockHeight","type":"uint256","internalType":"uint256"}],"outputs":[{"name":"L1BlockHeight","type":"uint256","internalType":"uint256"}],"stateMutability":"view"},{"type":"function","name":"postconfirmedAtL1BlockHeightByAcceptor","inputs":[{"name":"superBlockHeight","type":"uint256","internalType":"uint256"}],"outputs":[{"name":"L1BlockHeight","type":"uint256","internalType":"uint256"}],"stateMutability":"view"},{"type":"function","name":"postconfirmedAtL1BlockTimestamp","inputs":[{"name":"superBlockHeight","type":"uint256","internalType":"uint256"}],"outputs":[{"name":"L1BlockTimestamp","type":"uint256","internalType":"uint256"}],"stateMutability":"view"},{"type":"function","name":"postconfirmedBy","inputs":[{"name":"superBlockHeight","type":"uint256","internalType":"uint256"}],"outputs":[{"name":"attester","type":"address","internalType":"address"}],"stateMutability":"view"},{"type":"function","name":"postconfirmedByAcceptor","inputs":[{"name":"superBlockHeight","type":"uint256","internalType":"uint256"}],"outputs":[{"name":"","type":"bool","internalType":"bool"}],"stateMutability":"view"},{"type":"function","name":"postconfirmedSuperBlocks","inputs":[{"name":"superBlockHeight","type":"uint256","internalType":"uint256"}],"outputs":[{"name":"height","type":"uint256","internalType":"uint256"},{"name":"commitment","type":"bytes32","internalType":"bytes32"},{"name":"blockId","type":"bytes32","internalType":"bytes32"}],"stateMutability":"view"},{"type":"function","name":"postconfirmedSuperBlocksVersion","inputs":[],"outputs":[{"name":"","type":"uint256","internalType":"uint256"}],"stateMutability":"view"},{"type":"function","name":"proxiableUUID","inputs":[],"outputs":[{"name":"","type":"bytes32","internalType":"bytes32"}],"stateMutability":"view"},{"type":"function","name":"renounceRole","inputs":[{"name":"role","type":"bytes32","internalType":"bytes32"},{"name":"callerConfirmation","type":"address","internalType":"address"}],"outputs":[],"stateMutability":"nonpayable"},{"type":"function","name":"revokeRole","inputs":[{"name":"role","type":"bytes32","internalType":"bytes32"},{"name":"account","type":"address","internalType":"address"}],"outputs":[],"stateMutability":"nonpayable"},{"type":"function","name":"setLastPostconfirmedSuperBlockHeight","inputs":[{"name":"height","type":"uint256","internalType":"uint256"}],"outputs":[],"stateMutability":"nonpayable"},{"type":"function","name":"setOpenAttestationEnabled","inputs":[{"name":"enabled","type":"bool","internalType":"bool"}],"outputs":[],"stateMutability":"nonpayable"},{"type":"function","name":"setPostconfirmedCommitmentAtBlockHeight","inputs":[{"name":"superBlockCommitment","type":"tuple","internalType":"struct MCRStorage.SuperBlockCommitment","components":[{"name":"height","type":"uint256","internalType":"uint256"},{"name":"commitment","type":"bytes32","internalType":"bytes32"},{"name":"blockId","type":"bytes32","internalType":"bytes32"}]}],"outputs":[],"stateMutability":"nonpayable"},{"type":"function","name":"stakingContract","inputs":[],"outputs":[{"name":"","type":"address","internalType":"contract IMovementStaking"}],"stateMutability":"view"},{"type":"function","name":"submitBatchSuperBlockCommitment","inputs":[{"name":"superBlockCommitments","type":"tuple[]","internalType":"struct MCRStorage.SuperBlockCommitment[]","components":[{"name":"height","type":"uint256","internalType":"uint256"},{"name":"commitment","type":"bytes32","internalType":"bytes32"},{"name":"blockId","type":"bytes32","internalType":"bytes32"}]}],"outputs":[],"stateMutability":"nonpayable"},{"type":"function","name":"submitSuperBlockCommitment","inputs":[{"name":"superBlockCommitment","type":"tuple","internalType":"struct MCRStorage.SuperBlockCommitment","components":[{"name":"height","type":"uint256","internalType":"uint256"},{"name":"commitment","type":"bytes32","internalType":"bytes32"},{"name":"blockId","type":"bytes32","internalType":"bytes32"}]}],"outputs":[],"stateMutability":"nonpayable"},{"type":"function","name":"superBlockHeightAssignedEpoch","inputs":[{"name":"superBlockHeight","type":"uint256","internalType":"uint256"}],"outputs":[{"name":"epoch","type":"uint256","internalType":"uint256"}],"stateMutability":"view"},{"type":"function","name":"supportsInterface","inputs":[{"name":"interfaceId","type":"bytes4","internalType":"bytes4"}],"outputs":[{"name":"","type":"bool","internalType":"bool"}],"stateMutability":"view"},{"type":"function","name":"upgradeToAndCall","inputs":[{"name":"newImplementation","type":"address","internalType":"address"},{"name":"data","type":"bytes","internalType":"bytes"}],"outputs":[],"stateMutability":"payable"},{"type":"function","name":"versionedPostconfirmedSuperBlocks","inputs":[{"name":"","type":"uint256","internalType":"uint256"},{"name":"superBlockHeight","type":"uint256","internalType":"uint256"}],"outputs":[{"name":"height","type":"uint256","internalType":"uint256"},{"name":"commitment","type":"bytes32","internalType":"bytes32"},{"name":"blockId","type":"bytes32","internalType":"bytes32"}],"stateMutability":"view"},{"type":"event","name":"Initialized","inputs":[{"name":"version","type":"uint64","indexed":false,"internalType":"uint64"}],"anonymous":false},{"type":"event","name":"RoleAdminChanged","inputs":[{"name":"role","type":"bytes32","indexed":true,"internalType":"bytes32"},{"name":"previousAdminRole","type":"bytes32","indexed":true,"internalType":"bytes32"},{"name":"newAdminRole","type":"bytes32","indexed":true,"internalType":"bytes32"}],"anonymous":false},{"type":"event","name":"RoleGranted","inputs":[{"name":"role","type":"bytes32","indexed":true,"internalType":"bytes32"},{"name":"account","type":"address","indexed":true,"internalType":"address"},{"name":"sender","type":"address","indexed":true,"internalType":"address"}],"anonymous":false},{"type":"event","name":"RoleRevoked","inputs":[{"name":"role","type":"bytes32","indexed":true,"internalType":"bytes32"},{"name":"account","type":"address","indexed":true,"internalType":"address"},{"name":"sender","type":"address","indexed":true,"internalType":"address"}],"anonymous":false},{"type":"event","name":"SuperBlockCommitmentSubmitted","inputs":[{"name":"blockHash","type":"bytes32","indexed":true,"internalType":"bytes32"},{"name":"stateCommitment","type":"bytes32","indexed":false,"internalType":"bytes32"},{"name":"attesterStake","type":"uint256","indexed":false,"internalType":"uint256"}],"anonymous":false},{"type":"event","name":"SuperBlockPostconfirmed","inputs":[{"name":"blockHash","type":"bytes32","indexed":true,"internalType":"bytes32"},{"name":"stateCommitment","type":"bytes32","indexed":false,"internalType":"bytes32"},{"name":"height","type":"uint256","indexed":false,"internalType":"uint256"}],"anonymous":false},{"type":"event","name":"Upgraded","inputs":[{"name":"implementation","type":"address","indexed":true,"internalType":"address"}],"anonymous":false},{"type":"error","name":"AccessControlBadConfirmation","inputs":[]},{"type":"error","name":"AccessControlUnauthorizedAccount","inputs":[{"name":"account","type":"address","internalType":"address"},{"name":"neededRole","type":"bytes32","internalType":"bytes32"}]},{"type":"error","name":"AddressEmptyCode","inputs":[{"name":"target","type":"address","internalType":"address"}]},{"type":"error","name":"AttesterAlreadyCommitted","inputs":[]},{"type":"error","name":"ERC1967InvalidImplementation","inputs":[{"name":"implementation","type":"address","internalType":"address"}]},{"type":"error","name":"ERC1967NonPayable","inputs":[]},{"type":"error","name":"FailedInnerCall","inputs":[]},{"type":"error","name":"InvalidInitialization","inputs":[]},{"type":"error","name":"NotInitializing","inputs":[]},{"type":"error","name":"UUPSUnauthorizedCallContext","inputs":[]},{"type":"error","name":"UUPSUnsupportedProxiableUUID","inputs":[{"name":"slot","type":"bytes32","internalType":"bytes32"}]},{"type":"error","name":"UnacceptableSuperBlockCommitment","inputs":[]}],"bytecode":{"object":"0x60a0604052306080523480156012575f80fd5b50608051612cf76100395f395f8181611d5a01528181611d830152611ec40152612cf75ff3fe60806040526004361061039d575f3560e01c80638129fc1c116101de578063c691e6e411610108578063ec18c1861161009d578063f8d26aec1161006d578063f8d26aec14610beb578063f99f6e4c14610c16578063fc2788ad14610c2a578063fdafe9ca14610c60575f80fd5b8063ec18c18614610b65578063eda67fc414610b7a578063ee99205c14610bb4578063ef9ae15c14610bd2575f80fd5b8063d547741f116100d8578063d547741f14610ada578063e4566c7814610af9578063e4d991ee14610b0c578063e90d4c0614610b20575f80fd5b8063c691e6e414610a68578063cf6772ad14610a7d578063d2526fef14610a9c578063d440116d14610abb575f80fd5b8063949d7c2a1161017e578063ad3cb1cc1161014e578063ad3cb1cc146109d9578063ba26513e14610a16578063bb04bd2f14610a35578063c5de60a914610a54575f80fd5b8063949d7c2a1461095b578063a207fe2f1461097a578063a217fddf146109a5578063aa0d6fcd146109b8575f80fd5b806391807e4f116101b957806391807e4f146108e057806391d148541461091457806392a2ebf314610933578063943b79e214610947575f80fd5b80638129fc1c1461088257806381df17461461089657806385e6b8c2146108b5575f80fd5b806336568abe116102ca57806352d1902d1161025f5780636c713af81161022f5780636c713af8146108045780637aa81c2a146108185780637ac561c81461083757806380e460f014610862575f80fd5b806352d1902d14610732578063556d97c8146107465780635db916ab146107c5578063622e3616146107e5575f80fd5b8063491d04671161029a578063491d0467146106c25780634b47d955146106e15780634c17b024146107005780634f1ef2861461071f575f80fd5b806336568abe1461060157806337d7f58f146106205780633ba1800514610634578063410f314614610694575f80fd5b80630daf6181116103405780632bfd11d6116103105780632bfd11d61461051d5780632e55d0f61461058c5780632f2ff15d146105c35780633119edd4146105e2575f80fd5b80630daf6181146104a15780630e74b609146104c05780631de38fe1146104df578063248a9ca3146104fe575f80fd5b806303d3f7fd1161037b57806303d3f7fd1461042c57806303f02fc01461044f57806308c397931461046e57806308c7050f14610482575f80fd5b8063017304e1146103a157806301ffc9a7146103b7578063026583d7146103eb575b5f80fd5b3480156103ac575f80fd5b506103b5610c75565b005b3480156103c2575f80fd5b506103d66103d1366004612528565b610c80565b60405190151581526020015b60405180910390f35b3480156103f6575f80fd5b5061040a61040536600461254f565b610cb6565b60408051825181526020808401519082015291810151908201526060016103e2565b348015610437575f80fd5b5061044160015481565b6040519081526020016103e2565b34801561045a575f80fd5b506103b5610469366004612665565b610cef565b348015610479575f80fd5b50610441610e8d565b34801561048d575f80fd5b506103b561049c36600461272c565b610e9e565b3480156104ac575f80fd5b506104416104bb366004612746565b610f2b565b3480156104cb575f80fd5b506103b56104da36600461272c565b610fe4565b3480156104ea575f80fd5b506104416104f936600461275d565b61102d565b348015610509575f80fd5b50610441610518366004612746565b6110a6565b348015610528575f80fd5b5061040a610537366004612746565b60408051606080820183525f80835260208084018290529284018190526010548152600f8352838120948152938252928290208251938401835280548452600181015491840191909152600201549082015290565b348015610597575f80fd5b506004546105ab906001600160a01b031681565b6040516001600160a01b0390911681526020016103e2565b3480156105ce575f80fd5b506103b56105dd36600461275d565b6110c6565b3480156105ed575f80fd5b506103b56105fc36600461272c565b6110e8565b34801561060c575f80fd5b506103b561061b36600461275d565b6111b4565b34801561062b575f80fd5b506104416111ec565b34801561063f575f80fd5b5061067961064e36600461278b565b600f60209081525f928352604080842090915290825290208054600182015460029092015490919083565b604080519384526020840192909252908201526060016103e2565b34801561069f575f80fd5b506103d66106ae366004612746565b60096020525f908152604090205460ff1681565b3480156106cd575f80fd5b506104416106dc3660046127ab565b611257565b3480156106ec575f80fd5b506103b56106fb3660046127c6565b611269565b34801561070b575f80fd5b506103b561071a366004612746565b6112d6565b6103b561072d3660046127f7565b61136e565b34801561073d575f80fd5b50610441611389565b348015610751575f80fd5b5061040a61076036600461275d565b604080516060810182525f8082526020820181905291810191909152505f9182526006602090815260408084206001600160a01b0393909316845291815291819020815160608101835281548152600182015493810193909352600201549082015290565b3480156107d0575f80fd5b506104415f80516020612ca283398151915281565b3480156107f0575f80fd5b506103b56107ff36600461289c565b6113a4565b34801561080f575f80fd5b50610441611419565b348015610823575f80fd5b50610441610832366004612936565b611449565b348015610842575f80fd5b50610441610851366004612746565b600a6020525f908152604090205481565b34801561086d575f80fd5b506104415f80516020612c4283398151915281565b34801561088d575f80fd5b506103b56114d2565b3480156108a1575f80fd5b506103b56108b03660046127ab565b6115dc565b3480156108c0575f80fd5b506104416108cf366004612746565b60056020525f908152604090205481565b3480156108eb575f80fd5b506105ab6108fa366004612746565b60086020525f90815260409020546001600160a01b031681565b34801561091f575f80fd5b506103d661092e36600461275d565b61160a565b34801561093e575f80fd5b506103b5611640565b348015610952575f80fd5b506104416116f5565b348015610966575f80fd5b506103b56109753660046127ab565b611706565b348015610985575f80fd5b50610441610994366004612746565b600b6020525f908152604090205481565b3480156109b0575f80fd5b506104415f81565b3480156109c3575f80fd5b506109cc611743565b6040516103e291906129b8565b3480156109e4575f80fd5b50610a09604051806040016040528060058152602001640352e302e360dc1b81525081565b6040516103e291906129ca565b348015610a21575f80fd5b50610441610a3036600461275d565b6117af565b348015610a40575f80fd5b50610441610a4f3660046129ff565b61186a565b348015610a5f575f80fd5b5061044161187d565b348015610a73575f80fd5b5061044160035481565b348015610a88575f80fd5b506103b5610a973660046127c6565b6118a7565b348015610aa7575f80fd5b506103b5610ab6366004612a2b565b6118f4565b348015610ac6575f80fd5b50610441610ad53660046127ab565b61191f565b348015610ae5575f80fd5b506103b5610af436600461275d565b611931565b348015610b04575f80fd5b5060016103d6565b348015610b17575f80fd5b5061044161194d565b348015610b2b575f80fd5b50610679610b3a36600461275d565b600660209081525f928352604080842090915290825290208054600182015460029092015490919083565b348015610b70575f80fd5b5061044160105481565b348015610b85575f80fd5b50610679610b94366004612746565b600d6020525f908152604090208054600182015460029092015490919083565b348015610bbf575f80fd5b505f546105ab906001600160a01b031681565b348015610bdd575f80fd5b50600e546103d69060ff1681565b348015610bf6575f80fd5b50610441610c05366004612746565b600c6020525f908152604090205481565b348015610c21575f80fd5b506105ab61197d565b348015610c35575f80fd5b50610441610c4436600461278b565b600760209081525f928352604080842090915290825290205481565b348015610c6b575f80fd5b5061044160025481565b610c7e33611a2e565b565b5f6001600160e01b03198216637965db0b60e01b1480610cb057506301ffc9a760e01b6001600160e01b03198316145b92915050565b60408051606080820183525f808352602080840182905292840152825190810183528581529081018490529081018290525b9392505050565b7ff0c57e16840df040f15088dc2f81fe391c3923bec73e23a9662efc9c229c6a008054600160401b810460ff1615906001600160401b03165f81158015610d335750825b90505f826001600160401b03166001148015610d4e5750303b155b905081158015610d5c575080155b15610d7a5760405163f92ee8a960e01b815260040160405180910390fd5b845467ffffffffffffffff191660011785558315610da457845460ff60401b1916600160401b1785555b610dac611ab4565b5f80546001600160a01b0319166001600160a01b038d1690811790915560018a905560028b9055604051631a6e609f60e31b815263d37304f890610df6908b908b90600401612a4a565b5f604051808303815f87803b158015610e0d575f80fd5b505af1158015610e1f573d5f803e3d5ffd5b50505050610e2c33611706565b610e35336115dc565b60038690558315610e8057845460ff60401b19168555604051600181527fc7f505b2f371ae2175ee4913f4499e1f2633a7b5936321eed1cdaeb6115181d29060200160405180910390a15b5050505050505050505050565b5f610e996104bb611419565b905090565b610eb55f80516020612c428339815191523361160a565b610f1f5760405162461bcd60e51b815260206004820152603060248201527f464f5243455f4c41544553545f434f4d4d49544d454e545f49535f434f4d4d4960448201526f544d454e545f41444d494e5f4f4e4c5960801b60648201526084015b60405180910390fd5b610f28816110e8565b50565b5f805460405163341d5ef560e01b815230600482015282916001600160a01b03169063341d5ef5906024015f60405180830381865afa158015610f70573d5f803e3d5ffd5b505050506040513d5f823e601f3d908101601f19168201604052610f979190810190612a62565b90505f805b8251811015610fdc57610fc885848381518110610fbb57610fbb612af1565b602002602001015161102d565b610fd29083612b19565b9150600101610f9c565b509392505050565b600e5460ff168061100757506110075f80516020612ca28339815191523361160a565b6110235760405162461bcd60e51b8152600401610f1690612b2c565b610f283382611ac6565b5f8054604051630ce52af560e01b8152306004820152602481018590526001600160a01b03848116604483015290911690630ce52af590606401602060405180830381865afa158015611082573d5f803e3d5ffd5b505050506040513d601f19601f82011682018060405250810190610ce89190612b6e565b5f9081525f80516020612c82833981519152602052604090206001015490565b6110cf826110a6565b6110d881611c2b565b6110e28383611c35565b50505050565b6110ff5f80516020612c428339815191523361160a565b61117f5760405162461bcd60e51b8152602060048201526044602482018190527f5345545f4c4153545f504f5354434f4e4649524d45445f434f4d4d49544d454e908201527f545f41545f4845494748545f49535f434f4d4d49544d454e545f41444d494e5f6064820152634f4e4c5960e01b608482015260a401610f16565b6010545f908152600f602090815260408083208451845282529182902083518155908301516001820155910151600290910155565b6001600160a01b03811633146111dd5760405163334bd91960e11b815260040160405180910390fd5b6111e78282611cd6565b505050565b5f805460405163d980b40d60e01b81523060048201526001600160a01b039091169063d980b40d906024015b602060405180830381865afa158015611233573d5f803e3d5ffd5b505050506040513d601f19601f82011682018060405250810190610e999190612b6e565b5f610cb0611263611419565b836117af565b6112735f3361160a565b61128f5760405162461bcd60e51b8152600401610f1690612b85565b5f5b81518110156112d2576112ca5f80516020612c428339815191528383815181106112bd576112bd612af1565b60200260200101516110c6565b600101611291565b5050565b6112ed5f80516020612c428339815191523361160a565b6113695760405162461bcd60e51b815260206004820152604160248201527f5345545f4c4153545f504f5354434f4e4649524d45445f5355504552424c4f4360448201527f4b5f4845494748545f49535f434f4d4d49544d454e545f41444d494e5f4f4e4c6064820152605960f81b608482015260a401610f16565b600255565b611376611d4f565b61137f82611df3565b6112d28282611dfd565b5f611392611eb9565b505f80516020612c6283398151915290565b600e5460ff16806113c757506113c75f80516020612ca28339815191523361160a565b6113e35760405162461bcd60e51b8152600401610f1690612b2c565b5f5b81518110156112d2576114113383838151811061140457611404612af1565b6020026020010151611ac6565b6001016113e5565b5f80546040516322fceb7560e01b81523060048201526001600160a01b03909116906322fceb7590602401611218565b5f80546040516324f7ee1760e21b8152306004820152602481018690526001600160a01b0385811660448301528481166064830152909116906393dfb85c90608401602060405180830381865afa1580156114a6573d5f803e3d5ffd5b505050506040513d601f19601f820116820180604052508101906114ca9190612b6e565b949350505050565b7ff0c57e16840df040f15088dc2f81fe391c3923bec73e23a9662efc9c229c6a008054600160401b810460ff1615906001600160401b03165f811580156115165750825b90505f826001600160401b031660011480156115315750303b155b90508115801561153f575080155b1561155d5760405163f92ee8a960e01b815260040160405180910390fd5b845467ffffffffffffffff19166001178555831561158757845460ff60401b1916600160401b1785555b61158f611f02565b83156115d557845460ff60401b19168555604051600181527fc7f505b2f371ae2175ee4913f4499e1f2633a7b5936321eed1cdaeb6115181d29060200160405180910390a15b5050505050565b5f80516020612c428339815191526115f381611c2b565b6112d25f80516020612ca2833981519152836110c6565b5f9182525f80516020612c82833981519152602090815260408084206001600160a01b0393909316845291905290205460ff1690565b61164a5f3361160a565b6116a45760405162461bcd60e51b815260206004820152602560248201527f4143434550545f47454e455349535f434552454d4f4e595f49535f41444d494e6044820152645f4f4e4c5960d81b6064820152608401610f16565b5f8054604080516392a2ebf360e01b815290516001600160a01b03909216926392a2ebf39260048084019382900301818387803b1580156116e3575f80fd5b505af11580156110e2573d5f803e3d5ffd5b5f600154600254610e999190612b19565b6117105f3361160a565b61172c5760405162461bcd60e51b8152600401610f1690612b85565b610f285f80516020612c42833981519152826110c6565b5f54604051634234a47960e01b81523060048201526060916001600160a01b031690634234a479906024015f60405180830381865afa158015611788573d5f803e3d5ffd5b505050506040513d5f823e601f3d908101601f19168201604052610e999190810190612a62565b5f805460405163341d5ef560e01b815230600482015282916001600160a01b03169063341d5ef5906024015f60405180830381865afa1580156117f4573d5f803e3d5ffd5b505050506040513d5f823e601f3d908101601f1916820160405261181b9190810190612a62565b90505f805b82518110156118615761184d8684838151811061183f5761183f612af1565b602002602001015187611449565b6118579083612b19565b9150600101611820565b50949350505050565b5f610ce8611876611419565b8484611449565b5f804390505f6001600354836118939190612bdb565b61189d9084612bee565b610ce89190612bee565b5f80516020612c428339815191526118be81611c2b565b5f5b82518110156111e7576118ec5f80516020612ca28339815191528483815181106112bd576112bd612af1565b6001016118c0565b5f80516020612c4283398151915261190b81611c2b565b50600e805460ff1916911515919091179055565b5f610cb061192b611419565b8361102d565b61193a826110a6565b61194381611c2b565b6110e28383611cd6565b5f8054604051639b7cadc760e01b81523060048201526001600160a01b0390911690639b7cadc790602401611218565b5f8061198761187d565b5f8054604051634234a47960e01b81523060048201529240935090916001600160a01b0390911690634234a479906024015f60405180830381865afa1580156119d2573d5f803e3d5ffd5b505050506040513d5f823e601f3d908101601f191682016040526119f99190810190612a62565b80519091505f90611a0a9084612bdb565b9050818181518110611a1e57611a1e612af1565b6020026020010151935050505090565b611a3661197d565b6001600160a01b0316816001600160a01b031614611a965760405162461bcd60e51b815260206004820152601c60248201527f4e6f744163636570746f72416e644163636570746f7249734c697665000000006044820152606401610f16565b611aad6002546001611aa89190612b19565b611f12565b611a965750565b611abc612090565b610f285f33611c35565b80515f9081526006602090815260408083206001600160a01b038616845290915290205415611b0857604051630ae09ad960e41b815260040160405180910390fd5b8051600154600254611b1a9190612b19565b1015611b3957604051630ae09ad960e41b815260040160405180910390fd5b80515f908152600560205260408120549003611b6857611b576111ec565b81515f908152600560205260409020555b80515f9081526006602090815260408083206001600160a01b0386168452825280832084518155918401516001830155830151600290910155611baa83611257565b82515f908152600760209081526040808320828701518452909152812080549293508392909190611bdc908490612b19565b9091555050604080830151602080850151835190815290810184905290917fa8445a6b8a16633ad62fbc0954848ec55c4d5323d90b9745dbda4121ec5ce12b91015b60405180910390a2505050565b610f2881336120d9565b5f5f80516020612c82833981519152611c4e848461160a565b611ccd575f848152602082815260408083206001600160a01b03871684529091529020805460ff19166001179055611c833390565b6001600160a01b0316836001600160a01b0316857f2f8788117e7eff1d82e926ec794901d17c78024a50270940304540a733656f0d60405160405180910390a46001915050610cb0565b5f915050610cb0565b5f5f80516020612c82833981519152611cef848461160a565b15611ccd575f848152602082815260408083206001600160a01b0387168085529252808320805460ff1916905551339287917ff6391f5c32d9c69d2a47ea670b442974b53935d1edc7fd64eb21e047a839171b9190a46001915050610cb0565b306001600160a01b037f0000000000000000000000000000000000000000000000000000000000000000161480611dd557507f00000000000000000000000000000000000000000000000000000000000000006001600160a01b0316611dc95f80516020612c62833981519152546001600160a01b031690565b6001600160a01b031614155b15610c7e5760405163703e46dd60e11b815260040160405180910390fd5b5f6112d281611c2b565b816001600160a01b03166352d1902d6040518163ffffffff1660e01b8152600401602060405180830381865afa925050508015611e57575060408051601f3d908101601f19168201909252611e5491810190612b6e565b60015b611e7f57604051634c9c8ce360e01b81526001600160a01b0383166004820152602401610f16565b5f80516020612c628339815191528114611eaf57604051632a87526960e21b815260048101829052602401610f16565b6111e78383612112565b306001600160a01b037f00000000000000000000000000000000000000000000000000000000000000001614610c7e5760405163703e46dd60e11b815260040160405180910390fd5b611f0a612090565b610c7e611ab4565b5f81815260056020819052604082205490829081611f31600187612bee565b81526020019081526020015f2054905080821015611f5a575f8481526005602052604090208190555b8091505b81611f67611419565b1015611f9257611f7633611257565b5f03611f8557505f9392505050565b611f8d612167565b611f5e565b611f9b33611257565b5f03611faa57505f9392505050565b5f6003611fb684610f2b565b611fc1906002612c01565b611fcb9190612c18565b90505f611fd6611743565b90505f5b8151811015612084575f828281518110611ff657611ff6612af1565b6020908102919091018101515f8a81526006835260408082206001600160a01b0384168352845280822081516060810183528154808252600183015482880190815260029093015482850152845260078652828420915184529452902054909250858111156120795761206982336121c4565b5060019998505050505050505050565b505050600101611fda565b505f9695505050505050565b7ff0c57e16840df040f15088dc2f81fe391c3923bec73e23a9662efc9c229c6a0054600160401b900460ff16610c7e57604051631afcd79f60e31b815260040160405180910390fd5b6120e3828261160a565b6112d25760405163e2517d3f60e01b81526001600160a01b038216600482015260248101839052604401610f16565b61211b826122e1565b6040516001600160a01b038316907fbc7cd75a20ee27fd9adebab32041f755214dbc6bffa90cc0225b39da2e5c2d3b905f90a280511561215f576111e78282612344565b6112d26123b6565b5f805460408051632a21edc760e21b815290516001600160a01b039092169263a887b71c9260048084019382900301818387803b1580156121a6575f80fd5b505af11580156121b8573d5f803e3d5ffd5b50505050610c7e6123d5565b5f6121cd611419565b83515f9081526005602052604090205490915081146121ff57604051631f2d18b160e31b815260040160405180910390fd5b825161220d90600190612bee565b6002541461222e57604051631f2d18b160e31b815260040160405180910390fd5b6010545f908152600f602090815260408083208651845282528083208651808255878401805160018401558884018051600294850155928290559085526008845282852080546001600160a01b0319166001600160a01b03891617905587518552600a845282852043905587518552600b84529382902042905551925186518251918252928101929092527fc28fbeddd1d6ba9496d1b91564f9aa2bc4dffed78aae631bbc6ef67296ad3c3c9101611c1e565b806001600160a01b03163b5f0361231657604051634c9c8ce360e01b81526001600160a01b0382166004820152602401610f16565b5f80516020612c6283398151915280546001600160a01b0319166001600160a01b0392909216919091179055565b60605f80846001600160a01b0316846040516123609190612c2b565b5f60405180830381855af49150503d805f8114612398576040519150601f19603f3d011682016040523d82523d5f602084013e61239d565b606091505b50915091506123ad8583836124a3565b95945050505050565b3415610c7e5760405163b398979f60e01b815260040160405180910390fd5b5f8054604051634234a47960e01b81523060048201526001600160a01b0390911690634234a479906024015f60405180830381865afa15801561241a573d5f803e3d5ffd5b505050506040513d5f823e601f3d908101601f191682016040526124419190810190612a62565b90505f81516001436124539190612bee565b61245e919040612bdb565b905081818151811061247257612472612af1565b602002602001015160045f6101000a8154816001600160a01b0302191690836001600160a01b031602179055505050565b6060826124b8576124b3826124ff565b610ce8565b81511580156124cf57506001600160a01b0384163b155b156124f857604051639996b31560e01b81526001600160a01b0385166004820152602401610f16565b5080610ce8565b80511561250f5780518082602001fd5b604051630a12f52160e11b815260040160405180910390fd5b5f60208284031215612538575f80fd5b81356001600160e01b031981168114610ce8575f80fd5b5f805f60608486031215612561575f80fd5b505081359360208301359350604090920135919050565b6001600160a01b0381168114610f28575f80fd5b634e487b7160e01b5f52604160045260245ffd5b604051601f8201601f191681016001600160401b03811182821017156125c8576125c861258c565b604052919050565b5f6001600160401b038211156125e8576125e861258c565b5060051b60200190565b5f82601f830112612601575f80fd5b813561261461260f826125d0565b6125a0565b8082825260208201915060208360051b860101925085831115612635575f80fd5b602085015b8381101561265b57803561264d81612578565b83526020928301920161263a565b5095945050505050565b5f805f805f8060c0878903121561267a575f80fd5b863561268581612578565b955060208701359450604087013593506060870135925060808701356001600160401b038111156126b4575f80fd5b6126c089828a016125f2565b9699959850939692959460a09093013593505050565b5f606082840312156126e6575f80fd5b604051606081016001600160401b03811182821017156127085761270861258c565b60409081528335825260208085013590830152928301359281019290925250919050565b5f6060828403121561273c575f80fd5b610ce883836126d6565b5f60208284031215612756575f80fd5b5035919050565b5f806040838503121561276e575f80fd5b82359150602083013561278081612578565b809150509250929050565b5f806040838503121561279c575f80fd5b50508035926020909101359150565b5f602082840312156127bb575f80fd5b8135610ce881612578565b5f602082840312156127d6575f80fd5b81356001600160401b038111156127eb575f80fd5b6114ca848285016125f2565b5f8060408385031215612808575f80fd5b823561281381612578565b915060208301356001600160401b0381111561282d575f80fd5b8301601f8101851361283d575f80fd5b80356001600160401b038111156128565761285661258c565b612869601f8201601f19166020016125a0565b81815286602083850101111561287d575f80fd5b816020840160208301375f602083830101528093505050509250929050565b5f602082840312156128ac575f80fd5b81356001600160401b038111156128c1575f80fd5b8201601f810184136128d1575f80fd5b80356128df61260f826125d0565b80828252602082019150602060608402850101925086831115612900575f80fd5b6020840193505b8284101561292c5761291987856126d6565b8252602082019150606084019350612907565b9695505050505050565b5f805f60608486031215612948575f80fd5b83359250602084013561295a81612578565b9150604084013561296a81612578565b809150509250925092565b5f8151808452602084019350602083015f5b828110156129ae5781516001600160a01b0316865260209586019590910190600101612987565b5093949350505050565b602081525f610ce86020830184612975565b602081525f82518060208401528060208501604085015e5f604082850101526040601f19601f83011684010191505092915050565b5f8060408385031215612a10575f80fd5b8235612a1b81612578565b9150602083013561278081612578565b5f60208284031215612a3b575f80fd5b81358015158114610ce8575f80fd5b828152604060208201525f6114ca6040830184612975565b5f60208284031215612a72575f80fd5b81516001600160401b03811115612a87575f80fd5b8201601f81018413612a97575f80fd5b8051612aa561260f826125d0565b8082825260208201915060208360051b850101925086831115612ac6575f80fd5b6020840193505b8284101561292c578351612ae081612578565b825260209384019390910190612acd565b634e487b7160e01b5f52603260045260245ffd5b634e487b7160e01b5f52601160045260245ffd5b80820180821115610cb057610cb0612b05565b60208082526022908201527f554e415554484f52495a45445f5355504552424c4f434b5f434f4d4d49544d45604082015261139560f21b606082015260800190565b5f60208284031215612b7e575f80fd5b5051919050565b60208082526022908201527f4144445f434f4d4d49544d454e545f41444d494e5f49535f41444d494e5f4f4e6040820152614c5960f01b606082015260800190565b634e487b7160e01b5f52601260045260245ffd5b5f82612be957612be9612bc7565b500690565b81810381811115610cb057610cb0612b05565b8082028115828204841417610cb057610cb0612b05565b5f82612c2657612c26612bc7565b500490565b5f82518060208501845e5f92019182525091905056fedb2bf73e90d393604e56f0a2a54fed3fbd75332bf39c5ea0704b3b6973a3463c360894a13ba1a3210667c828492db98dca3e2076cc3735a920a3ca505d382bbc02dd7bc7dec4dceedda775e58dd541e08a116c6c53815c0bd028192f7b626800981fe5f60e354ed88ff0544e367c13a4d3342da7c82eb6627f804b747e046e18a26469706673582212209bfbcb758a3624510a25f97aa3d92fc8a1033ce9c0ddd2d520646535e1e2afba64736f6c634300081a0033","linkReferences":{}},"methodIdentifiers":{"COMMITMENT_ADMIN()":"80e460f0","DEFAULT_ADMIN_ROLE()":"a217fddf","TRUSTED_ATTESTER()":"5db916ab","UPGRADE_INTERFACE_VERSION()":"ad3cb1cc","acceptGenesisCeremony()":"92a2ebf3","acceptorTerm()":"c691e6e4","batchGrantCommitmentAdmin(address[])":"4b47d955","batchGrantTrustedAttester(address[])":"cf6772ad","commitmentStakes(uint256,bytes32)":"fc2788ad","commitments(uint256,address)":"e90d4c06","computeTotalStake(uint256)":"0daf6181","computeTotalStakeForAcceptingEpoch()":"08c39793","createSuperBlockCommitment(uint256,bytes32,bytes32)":"026583d7","currentAcceptor()":"2e55d0f6","currentAcceptorIsLive()":"e4566c78","forceLatestCommitment((uint256,bytes32,bytes32))":"08c7050f","getAcceptingEpoch()":"6c713af8","getAttesterStake(uint256,address)":"ba26513e","getAttesterStakeForAcceptingEpoch(address)":"491d0467","getCurrentAcceptor()":"f99f6e4c","getCustodianStake(uint256,address)":"1de38fe1","getCustodianStakeForAcceptingEpoch(address)":"d440116d","getL1BlockStartOfCurrentAcceptorTerm()":"c5de60a9","getMaxTolerableSuperBlockHeight()":"943b79e2","getNextAcceptingEpoch()":"e4d991ee","getPostconfirmedCommitment(uint256)":"2bfd11d6","getPresentEpoch()":"37d7f58f","getRoleAdmin(bytes32)":"248a9ca3","getStake(uint256,address,address)":"7aa81c2a","getStakeForAcceptingEpoch(address,address)":"bb04bd2f","getStakedAttestersForAcceptingEpoch()":"aa0d6fcd","getValidatorCommitmentAtSuperBlockHeight(uint256,address)":"556d97c8","grantCommitmentAdmin(address)":"949d7c2a","grantRole(bytes32,address)":"2f2ff15d","grantTrustedAttester(address)":"81df1746","hasRole(bytes32,address)":"91d14854","initialize()":"8129fc1c","initialize(address,uint256,uint256,uint256,address[],uint256)":"03f02fc0","lastPostconfirmedSuperBlockHeight()":"fdafe9ca","leadingSuperBlockTolerance()":"03d3f7fd","openAttestationEnabled()":"ef9ae15c","postconfirmSuperBlocks()":"017304e1","postconfirmedAtL1BlockHeight(uint256)":"7ac561c8","postconfirmedAtL1BlockHeightByAcceptor(uint256)":"f8d26aec","postconfirmedAtL1BlockTimestamp(uint256)":"a207fe2f","postconfirmedBy(uint256)":"91807e4f","postconfirmedByAcceptor(uint256)":"410f3146","postconfirmedSuperBlocks(uint256)":"eda67fc4","postconfirmedSuperBlocksVersion()":"ec18c186","proxiableUUID()":"52d1902d","renounceRole(bytes32,address)":"36568abe","revokeRole(bytes32,address)":"d547741f","setLastPostconfirmedSuperBlockHeight(uint256)":"4c17b024","setOpenAttestationEnabled(bool)":"d2526fef","setPostconfirmedCommitmentAtBlockHeight((uint256,bytes32,bytes32))":"3119edd4","stakingContract()":"ee99205c","submitBatchSuperBlockCommitment((uint256,bytes32,bytes32)[])":"622e3616","submitSuperBlockCommitment((uint256,bytes32,bytes32))":"0e74b609","superBlockHeightAssignedEpoch(uint256)":"85e6b8c2","supportsInterface(bytes4)":"01ffc9a7","upgradeToAndCall(address,bytes)":"4f1ef286","versionedPostconfirmedSuperBlocks(uint256,uint256)":"3ba18005"},"storageLayout":{"storage":[{"astId":50962,"contract":"src/settlement/MCR.sol:MCR","label":"stakingContract","offset":0,"slot":"0","type":"t_contract(IMovementStaking)52990"},{"astId":50964,"contract":"src/settlement/MCR.sol:MCR","label":"leadingSuperBlockTolerance","offset":0,"slot":"1","type":"t_uint256"},{"astId":50966,"contract":"src/settlement/MCR.sol:MCR","label":"lastPostconfirmedSuperBlockHeight","offset":0,"slot":"2","type":"t_uint256"},{"astId":50969,"contract":"src/settlement/MCR.sol:MCR","label":"acceptorTerm","offset":0,"slot":"3","type":"t_uint256"},{"astId":50971,"contract":"src/settlement/MCR.sol:MCR","label":"currentAcceptor","offset":0,"slot":"4","type":"t_address"},{"astId":50983,"contract":"src/settlement/MCR.sol:MCR","label":"superBlockHeightAssignedEpoch","offset":0,"slot":"5","type":"t_mapping(t_uint256,t_uint256)"},{"astId":50990,"contract":"src/settlement/MCR.sol:MCR","label":"commitments","offset":0,"slot":"6","type":"t_mapping(t_uint256,t_mapping(t_address,t_struct(SuperBlockCommitment)50979_storage))"},{"astId":50996,"contract":"src/settlement/MCR.sol:MCR","label":"commitmentStakes","offset":0,"slot":"7","type":"t_mapping(t_uint256,t_mapping(t_bytes32,t_uint256))"},{"astId":51000,"contract":"src/settlement/MCR.sol:MCR","label":"postconfirmedBy","offset":0,"slot":"8","type":"t_mapping(t_uint256,t_address)"},{"astId":51004,"contract":"src/settlement/MCR.sol:MCR","label":"postconfirmedByAcceptor","offset":0,"slot":"9","type":"t_mapping(t_uint256,t_bool)"},{"astId":51008,"contract":"src/settlement/MCR.sol:MCR","label":"postconfirmedAtL1BlockHeight","offset":0,"slot":"10","type":"t_mapping(t_uint256,t_uint256)"},{"astId":51012,"contract":"src/settlement/MCR.sol:MCR","label":"postconfirmedAtL1BlockTimestamp","offset":0,"slot":"11","type":"t_mapping(t_uint256,t_uint256)"},{"astId":51016,"contract":"src/settlement/MCR.sol:MCR","label":"postconfirmedAtL1BlockHeightByAcceptor","offset":0,"slot":"12","type":"t_mapping(t_uint256,t_uint256)"},{"astId":51021,"contract":"src/settlement/MCR.sol:MCR","label":"postconfirmedSuperBlocks","offset":0,"slot":"13","type":"t_mapping(t_uint256,t_struct(SuperBlockCommitment)50979_storage)"},{"astId":51023,"contract":"src/settlement/MCR.sol:MCR","label":"openAttestationEnabled","offset":0,"slot":"14","type":"t_bool"},{"astId":51030,"contract":"src/settlement/MCR.sol:MCR","label":"versionedPostconfirmedSuperBlocks","offset":0,"slot":"15","type":"t_mapping(t_uint256,t_mapping(t_uint256,t_struct(SuperBlockCommitment)50979_storage))"},{"astId":51032,"contract":"src/settlement/MCR.sol:MCR","label":"postconfirmedSuperBlocksVersion","offset":0,"slot":"16","type":"t_uint256"},{"astId":51036,"contract":"src/settlement/MCR.sol:MCR","label":"__gap","offset":0,"slot":"17","type":"t_array(t_uint256)47_storage"}],"types":{"t_address":{"encoding":"inplace","label":"address","numberOfBytes":"20"},"t_array(t_uint256)47_storage":{"encoding":"inplace","label":"uint256[47]","numberOfBytes":"1504","base":"t_uint256"},"t_bool":{"encoding":"inplace","label":"bool","numberOfBytes":"1"},"t_bytes32":{"encoding":"inplace","label":"bytes32","numberOfBytes":"32"},"t_contract(IMovementStaking)52990":{"encoding":"inplace","label":"contract IMovementStaking","numberOfBytes":"20"},"t_mapping(t_address,t_struct(SuperBlockCommitment)50979_storage)":{"encoding":"mapping","key":"t_address","label":"mapping(address => struct MCRStorage.SuperBlockCommitment)","numberOfBytes":"32","value":"t_struct(SuperBlockCommitment)50979_storage"},"t_mapping(t_bytes32,t_uint256)":{"encoding":"mapping","key":"t_bytes32","label":"mapping(bytes32 => uint256)","numberOfBytes":"32","value":"t_uint256"},"t_mapping(t_uint256,t_address)":{"encoding":"mapping","key":"t_uint256","label":"mapping(uint256 => address)","numberOfBytes":"32","value":"t_address"},"t_mapping(t_uint256,t_bool)":{"encoding":"mapping","key":"t_uint256","label":"mapping(uint256 => bool)","numberOfBytes":"32","value":"t_bool"},"t_mapping(t_uint256,t_mapping(t_address,t_struct(SuperBlockCommitment)50979_storage))":{"encoding":"mapping","key":"t_uint256","label":"mapping(uint256 => mapping(address => struct MCRStorage.SuperBlockCommitment))","numberOfBytes":"32","value":"t_mapping(t_address,t_struct(SuperBlockCommitment)50979_storage)"},"t_mapping(t_uint256,t_mapping(t_bytes32,t_uint256))":{"encoding":"mapping","key":"t_uint256","label":"mapping(uint256 => mapping(bytes32 => uint256))","numberOfBytes":"32","value":"t_mapping(t_bytes32,t_uint256)"},"t_mapping(t_uint256,t_mapping(t_uint256,t_struct(SuperBlockCommitment)50979_storage))":{"encoding":"mapping","key":"t_uint256","label":"mapping(uint256 => mapping(uint256 => struct MCRStorage.SuperBlockCommitment))","numberOfBytes":"32","value":"t_mapping(t_uint256,t_struct(SuperBlockCommitment)50979_storage)"},"t_mapping(t_uint256,t_struct(SuperBlockCommitment)50979_storage)":{"encoding":"mapping","key":"t_uint256","label":"mapping(uint256 => struct MCRStorage.SuperBlockCommitment)","numberOfBytes":"32","value":"t_struct(SuperBlockCommitment)50979_storage"},"t_mapping(t_uint256,t_uint256)":{"encoding":"mapping","key":"t_uint256","label":"mapping(uint256 => uint256)","numberOfBytes":"32","value":"t_uint256"},"t_struct(SuperBlockCommitment)50979_storage":{"encoding":"inplace","label":"struct MCRStorage.SuperBlockCommitment","numberOfBytes":"96","members":[{"astId":50974,"contract":"src/settlement/MCR.sol:MCR","label":"height","offset":0,"slot":"0","type":"t_uint256"},{"astId":50976,"contract":"src/settlement/MCR.sol:MCR","label":"commitment","offset":0,"slot":"1","type":"t_bytes32"},{"astId":50978,"contract":"src/settlement/MCR.sol:MCR","label":"blockId","offset":0,"slot":"2","type":"t_bytes32"}]},"t_uint256":{"encoding":"inplace","label":"uint256","numberOfBytes":"32"}}},"id":88}