{"abi":[{"type":"function","name":"COMMITMENT_ADMIN","inputs":[],"outputs":[{"name":"","type":"bytes32","internalType":"bytes32"}],"stateMutability":"view"},{"type":"function","name":"DEFAULT_ADMIN_ROLE","inputs":[],"outputs":[{"name":"","type":"bytes32","internalType":"bytes32"}],"stateMutability":"view"},{"type":"function","name":"TRUSTED_ATTESTER","inputs":[],"outputs":[{"name":"","type":"bytes32","internalType":"bytes32"}],"stateMutability":"view"},{"type":"function","name":"UPGRADE_INTERFACE_VERSION","inputs":[],"outputs":[{"name":"","type":"string","internalType":"string"}],"stateMutability":"view"},{"type":"function","name":"acceptGenesisCeremony","inputs":[],"outputs":[],"stateMutability":"nonpayable"},{"type":"function","name":"attesterRewardPoints","inputs":[{"name":"epoch","type":"uint256","internalType":"uint256"},{"name":"attester","type":"address","internalType":"address"}],"outputs":[{"name":"points","type":"uint256","internalType":"uint256"}],"stateMutability":"view"},{"type":"function","name":"batchGrantCommitmentAdmin","inputs":[{"name":"accounts","type":"address[]","internalType":"address[]"}],"outputs":[],"stateMutability":"nonpayable"},{"type":"function","name":"batchGrantTrustedAttester","inputs":[{"name":"attesters","type":"address[]","internalType":"address[]"}],"outputs":[],"stateMutability":"nonpayable"},{"type":"function","name":"commitmentFirstSeenAt","inputs":[{"name":"superBlockHeight","type":"uint256","internalType":"uint256"},{"name":"commitment","type":"bytes32","internalType":"bytes32"}],"outputs":[{"name":"timestamp","type":"uint256","internalType":"uint256"}],"stateMutability":"view"},{"type":"function","name":"commitmentStake","inputs":[{"name":"superBlockHeight","type":"uint256","internalType":"uint256"},{"name":"commitement","type":"bytes32","internalType":"bytes32"}],"outputs":[{"name":"stake","type":"uint256","internalType":"uint256"}],"stateMutability":"view"},{"type":"function","name":"commitments","inputs":[{"name":"superBlockHeight","type":"uint256","internalType":"uint256"},{"name":"attester","type":"address","internalType":"address"}],"outputs":[{"name":"height","type":"uint256","internalType":"uint256"},{"name":"commitment","type":"bytes32","internalType":"bytes32"},{"name":"blockId","type":"bytes32","internalType":"bytes32"}],"stateMutability":"view"},{"type":"function","name":"createSuperBlockCommitment","inputs":[{"name":"height","type":"uint256","internalType":"uint256"},{"name":"commitment","type":"bytes32","internalType":"bytes32"},{"name":"blockId","type":"bytes32","internalType":"bytes32"}],"outputs":[{"name":"","type":"tuple","internalType":"struct MCRStorage.SuperBlockCommitment","components":[{"name":"height","type":"uint256","internalType":"uint256"},{"name":"commitment","type":"bytes32","internalType":"bytes32"},{"name":"blockId","type":"bytes32","internalType":"bytes32"}]}],"stateMutability":"pure"},{"type":"function","name":"forceLatestCommitment","inputs":[{"name":"superBlockCommitment","type":"tuple","internalType":"struct MCRStorage.SuperBlockCommitment","components":[{"name":"height","type":"uint256","internalType":"uint256"},{"name":"commitment","type":"bytes32","internalType":"bytes32"},{"name":"blockId","type":"bytes32","internalType":"bytes32"}]}],"outputs":[],"stateMutability":"nonpayable"},{"type":"function","name":"getAcceptingEpoch","inputs":[],"outputs":[{"name":"","type":"uint256","internalType":"uint256"}],"stateMutability":"view"},{"type":"function","name":"getAttesterRewardPoints","inputs":[{"name":"epoch","type":"uint256","internalType":"uint256"},{"name":"attester","type":"address","internalType":"address"}],"outputs":[{"name":"","type":"uint256","internalType":"uint256"}],"stateMutability":"view"},{"type":"function","name":"getAttesterStake","inputs":[{"name":"epoch","type":"uint256","internalType":"uint256"},{"name":"attester","type":"address","internalType":"address"}],"outputs":[{"name":"","type":"uint256","internalType":"uint256"}],"stateMutability":"view"},{"type":"function","name":"getAttesterStakeForAcceptingEpoch","inputs":[{"name":"attester","type":"address","internalType":"address"}],"outputs":[{"name":"","type":"uint256","internalType":"uint256"}],"stateMutability":"view"},{"type":"function","name":"getCommitmentByAttester","inputs":[{"name":"height","type":"uint256","internalType":"uint256"},{"name":"attester","type":"address","internalType":"address"}],"outputs":[{"name":"","type":"tuple","internalType":"struct MCRStorage.SuperBlockCommitment","components":[{"name":"height","type":"uint256","internalType":"uint256"},{"name":"commitment","type":"bytes32","internalType":"bytes32"},{"name":"blockId","type":"bytes32","internalType":"bytes32"}]}],"stateMutability":"view"},{"type":"function","name":"getCommitmentFirstSeenAt","inputs":[{"name":"superBlockCommitment","type":"tuple","internalType":"struct MCRStorage.SuperBlockCommitment","components":[{"name":"height","type":"uint256","internalType":"uint256"},{"name":"commitment","type":"bytes32","internalType":"bytes32"},{"name":"blockId","type":"bytes32","internalType":"bytes32"}]}],"outputs":[{"name":"","type":"uint256","internalType":"uint256"}],"stateMutability":"view"},{"type":"function","name":"getCustodianStake","inputs":[{"name":"epoch","type":"uint256","internalType":"uint256"},{"name":"custodian","type":"address","internalType":"address"}],"outputs":[{"name":"","type":"uint256","internalType":"uint256"}],"stateMutability":"view"},{"type":"function","name":"getCustodianStakeForAcceptingEpoch","inputs":[{"name":"custodian","type":"address","internalType":"address"}],"outputs":[{"name":"","type":"uint256","internalType":"uint256"}],"stateMutability":"view"},{"type":"function","name":"getEpochStartTime","inputs":[],"outputs":[{"name":"","type":"uint256","internalType":"uint256"}],"stateMutability":"view"},{"type":"function","name":"getLastPostconfirmedSuperBlockHeight","inputs":[],"outputs":[{"name":"","type":"uint256","internalType":"uint256"}],"stateMutability":"view"},{"type":"function","name":"getMaxTolerableSuperBlockHeight","inputs":[],"outputs":[{"name":"","type":"uint256","internalType":"uint256"}],"stateMutability":"view"},{"type":"function","name":"getMinCommitmentAgeForPostconfirmation","inputs":[],"outputs":[{"name":"","type":"uint256","internalType":"uint256"}],"stateMutability":"view"},{"type":"function","name":"getNextAcceptingEpochWithException","inputs":[],"outputs":[{"name":"","type":"uint256","internalType":"uint256"}],"stateMutability":"view"},{"type":"function","name":"getPostconfirmedCommitment","inputs":[{"name":"height","type":"uint256","internalType":"uint256"}],"outputs":[{"name":"","type":"tuple","internalType":"struct MCRStorage.SuperBlockCommitment","components":[{"name":"height","type":"uint256","internalType":"uint256"},{"name":"commitment","type":"bytes32","internalType":"bytes32"},{"name":"blockId","type":"bytes32","internalType":"bytes32"}]}],"stateMutability":"view"},{"type":"function","name":"getPostconfirmer","inputs":[],"outputs":[{"name":"","type":"address","internalType":"address"}],"stateMutability":"view"},{"type":"function","name":"getPostconfirmerDuration","inputs":[],"outputs":[{"name":"","type":"uint256","internalType":"uint256"}],"stateMutability":"view"},{"type":"function","name":"getPostconfirmerPrivilegeDuration","inputs":[],"outputs":[{"name":"","type":"uint256","internalType":"uint256"}],"stateMutability":"view"},{"type":"function","name":"getPostconfirmerRewardPoints","inputs":[{"name":"epoch","type":"uint256","internalType":"uint256"},{"name":"postconfirmer","type":"address","internalType":"address"}],"outputs":[{"name":"","type":"uint256","internalType":"uint256"}],"stateMutability":"view"},{"type":"function","name":"getPostconfirmerStartTime","inputs":[],"outputs":[{"name":"","type":"uint256","internalType":"uint256"}],"stateMutability":"view"},{"type":"function","name":"getPresentEpoch","inputs":[],"outputs":[{"name":"","type":"uint256","internalType":"uint256"}],"stateMutability":"view"},{"type":"function","name":"getRoleAdmin","inputs":[{"name":"role","type":"bytes32","internalType":"bytes32"}],"outputs":[{"name":"","type":"bytes32","internalType":"bytes32"}],"stateMutability":"view"},{"type":"function","name":"getStake","inputs":[{"name":"epoch","type":"uint256","internalType":"uint256"},{"name":"custodian","type":"address","internalType":"address"},{"name":"attester","type":"address","internalType":"address"}],"outputs":[{"name":"","type":"uint256","internalType":"uint256"}],"stateMutability":"view"},{"type":"function","name":"getStakeForAcceptingEpoch","inputs":[{"name":"custodian","type":"address","internalType":"address"},{"name":"attester","type":"address","internalType":"address"}],"outputs":[{"name":"","type":"uint256","internalType":"uint256"}],"stateMutability":"view"},{"type":"function","name":"getStakedAttestersForAcceptingEpoch","inputs":[],"outputs":[{"name":"","type":"address[]","internalType":"address[]"}],"stateMutability":"view"},{"type":"function","name":"getSuperBlockHeightAssignedEpoch","inputs":[{"name":"height","type":"uint256","internalType":"uint256"}],"outputs":[{"name":"","type":"uint256","internalType":"uint256"}],"stateMutability":"view"},{"type":"function","name":"getTotalStake","inputs":[{"name":"epoch","type":"uint256","internalType":"uint256"}],"outputs":[{"name":"","type":"uint256","internalType":"uint256"}],"stateMutability":"view"},{"type":"function","name":"getTotalStakeForAcceptingEpoch","inputs":[],"outputs":[{"name":"","type":"uint256","internalType":"uint256"}],"stateMutability":"view"},{"type":"function","name":"getValidatorCommitmentAtSuperBlockHeight","inputs":[{"name":"height","type":"uint256","internalType":"uint256"},{"name":"attester","type":"address","internalType":"address"}],"outputs":[{"name":"","type":"tuple","internalType":"struct MCRStorage.SuperBlockCommitment","components":[{"name":"height","type":"uint256","internalType":"uint256"},{"name":"commitment","type":"bytes32","internalType":"bytes32"},{"name":"blockId","type":"bytes32","internalType":"bytes32"}]}],"stateMutability":"view"},{"type":"function","name":"grantCommitmentAdmin","inputs":[{"name":"account","type":"address","internalType":"address"}],"outputs":[],"stateMutability":"nonpayable"},{"type":"function","name":"grantRole","inputs":[{"name":"role","type":"bytes32","internalType":"bytes32"},{"name":"account","type":"address","internalType":"address"}],"outputs":[],"stateMutability":"nonpayable"},{"type":"function","name":"grantTrustedAttester","inputs":[{"name":"attester","type":"address","internalType":"address"}],"outputs":[],"stateMutability":"nonpayable"},{"type":"function","name":"hasRole","inputs":[{"name":"role","type":"bytes32","internalType":"bytes32"},{"name":"account","type":"address","internalType":"address"}],"outputs":[{"name":"","type":"bool","internalType":"bool"}],"stateMutability":"view"},{"type":"function","name":"initialize","inputs":[{"name":"_stakingContract","type":"address","internalType":"contract IMovementStaking"},{"name":"_lastPostconfirmedSuperBlockHeight","type":"uint256","internalType":"uint256"},{"name":"_leadingSuperBlockTolerance","type":"uint256","internalType":"uint256"},{"name":"_epochDuration","type":"uint256","internalType":"uint256"},{"name":"_custodians","type":"address[]","internalType":"address[]"},{"name":"_postconfirmerDuration","type":"uint256","internalType":"uint256"},{"name":"_moveTokenAddress","type":"address","internalType":"address"}],"outputs":[],"stateMutability":"nonpayable"},{"type":"function","name":"initialize","inputs":[],"outputs":[],"stateMutability":"nonpayable"},{"type":"function","name":"isWithinPostconfirmerPrivilegeDuration","inputs":[{"name":"superBlockCommitment","type":"tuple","internalType":"struct MCRStorage.SuperBlockCommitment","components":[{"name":"height","type":"uint256","internalType":"uint256"},{"name":"commitment","type":"bytes32","internalType":"bytes32"},{"name":"blockId","type":"bytes32","internalType":"bytes32"}]}],"outputs":[{"name":"","type":"bool","internalType":"bool"}],"stateMutability":"view"},{"type":"function","name":"lastPostconfirmedSuperBlockHeight","inputs":[],"outputs":[{"name":"","type":"uint256","internalType":"uint256"}],"stateMutability":"view"},{"type":"function","name":"leadingSuperBlockTolerance","inputs":[],"outputs":[{"name":"","type":"uint256","internalType":"uint256"}],"stateMutability":"view"},{"type":"function","name":"minCommitmentAgeForPostconfirmation","inputs":[],"outputs":[{"name":"","type":"uint256","internalType":"uint256"}],"stateMutability":"view"},{"type":"function","name":"moveTokenAddress","inputs":[],"outputs":[{"name":"","type":"address","internalType":"address"}],"stateMutability":"view"},{"type":"function","name":"openAttestationEnabled","inputs":[],"outputs":[{"name":"","type":"bool","internalType":"bool"}],"stateMutability":"view"},{"type":"function","name":"postconfirmSuperBlocksAndRollover","inputs":[],"outputs":[],"stateMutability":"nonpayable"},{"type":"function","name":"postconfirmedAtL1BlockHeight","inputs":[{"name":"superBlockHeight","type":"uint256","internalType":"uint256"}],"outputs":[{"name":"L1BlockHeight","type":"uint256","internalType":"uint256"}],"stateMutability":"view"},{"type":"function","name":"postconfirmedAtL1BlockHeightByPostconfirmer","inputs":[{"name":"superBlockHeight","type":"uint256","internalType":"uint256"}],"outputs":[{"name":"L1BlockHeight","type":"uint256","internalType":"uint256"}],"stateMutability":"view"},{"type":"function","name":"postconfirmedAtL1BlockTimestamp","inputs":[{"name":"superBlockHeight","type":"uint256","internalType":"uint256"}],"outputs":[{"name":"L1BlockTimestamp","type":"uint256","internalType":"uint256"}],"stateMutability":"view"},{"type":"function","name":"postconfirmedBy","inputs":[{"name":"superBlockHeight","type":"uint256","internalType":"uint256"}],"outputs":[{"name":"attester","type":"address","internalType":"address"}],"stateMutability":"view"},{"type":"function","name":"postconfirmedByPostconfirmer","inputs":[{"name":"superBlockHeight","type":"uint256","internalType":"uint256"}],"outputs":[{"name":"","type":"bool","internalType":"bool"}],"stateMutability":"view"},{"type":"function","name":"postconfirmedSuperBlocks","inputs":[{"name":"superBlockHeight","type":"uint256","internalType":"uint256"}],"outputs":[{"name":"height","type":"uint256","internalType":"uint256"},{"name":"commitment","type":"bytes32","internalType":"bytes32"},{"name":"blockId","type":"bytes32","internalType":"bytes32"}],"stateMutability":"view"},{"type":"function","name":"postconfirmedSuperBlocksVersion","inputs":[],"outputs":[{"name":"","type":"uint256","internalType":"uint256"}],"stateMutability":"view"},{"type":"function","name":"postconfirmerDuration","inputs":[],"outputs":[{"name":"","type":"uint256","internalType":"uint256"}],"stateMutability":"view"},{"type":"function","name":"postconfirmerPrivilegeDuration","inputs":[],"outputs":[{"name":"","type":"uint256","internalType":"uint256"}],"stateMutability":"view"},{"type":"function","name":"postconfirmerRewardPoints","inputs":[{"name":"epoch","type":"uint256","internalType":"uint256"},{"name":"postconfirmer","type":"address","internalType":"address"}],"outputs":[{"name":"points","type":"uint256","internalType":"uint256"}],"stateMutability":"view"},{"type":"function","name":"proxiableUUID","inputs":[],"outputs":[{"name":"","type":"bytes32","internalType":"bytes32"}],"stateMutability":"view"},{"type":"function","name":"renounceRole","inputs":[{"name":"role","type":"bytes32","internalType":"bytes32"},{"name":"callerConfirmation","type":"address","internalType":"address"}],"outputs":[],"stateMutability":"nonpayable"},{"type":"function","name":"revokeRole","inputs":[{"name":"role","type":"bytes32","internalType":"bytes32"},{"name":"account","type":"address","internalType":"address"}],"outputs":[],"stateMutability":"nonpayable"},{"type":"function","name":"rewardPerAttestationPoint","inputs":[],"outputs":[{"name":"","type":"uint256","internalType":"uint256"}],"stateMutability":"view"},{"type":"function","name":"rewardPerPostconfirmationPoint","inputs":[],"outputs":[{"name":"","type":"uint256","internalType":"uint256"}],"stateMutability":"view"},{"type":"function","name":"setMinCommitmentAgeForPostconfirmation","inputs":[{"name":"_minCommitmentAgeForPostconfirmation","type":"uint256","internalType":"uint256"}],"outputs":[],"stateMutability":"nonpayable"},{"type":"function","name":"setOpenAttestationEnabled","inputs":[{"name":"enabled","type":"bool","internalType":"bool"}],"outputs":[],"stateMutability":"nonpayable"},{"type":"function","name":"setPostconfirmedCommitmentAtBlockHeight","inputs":[{"name":"superBlockCommitment","type":"tuple","internalType":"struct MCRStorage.SuperBlockCommitment","components":[{"name":"height","type":"uint256","internalType":"uint256"},{"name":"commitment","type":"bytes32","internalType":"bytes32"},{"name":"blockId","type":"bytes32","internalType":"bytes32"}]}],"outputs":[],"stateMutability":"nonpayable"},{"type":"function","name":"setPostconfirmerDuration","inputs":[{"name":"_postconfirmerDuration","type":"uint256","internalType":"uint256"}],"outputs":[],"stateMutability":"nonpayable"},{"type":"function","name":"setPostconfirmerPrivilegeDuration","inputs":[{"name":"_postconfirmerPrivilegeDuration","type":"uint256","internalType":"uint256"}],"outputs":[],"stateMutability":"nonpayable"},{"type":"function","name":"setRewardPerAttestationPoint","inputs":[{"name":"rewardPerPoint","type":"uint256","internalType":"uint256"}],"outputs":[],"stateMutability":"nonpayable"},{"type":"function","name":"setRewardPerPostconfirmationPoint","inputs":[{"name":"rewardPerPoint","type":"uint256","internalType":"uint256"}],"outputs":[],"stateMutability":"nonpayable"},{"type":"function","name":"stakingContract","inputs":[],"outputs":[{"name":"","type":"address","internalType":"contract IMovementStaking"}],"stateMutability":"view"},{"type":"function","name":"submitBatchSuperBlockCommitment","inputs":[{"name":"superBlockCommitments","type":"tuple[]","internalType":"struct MCRStorage.SuperBlockCommitment[]","components":[{"name":"height","type":"uint256","internalType":"uint256"},{"name":"commitment","type":"bytes32","internalType":"bytes32"},{"name":"blockId","type":"bytes32","internalType":"bytes32"}]}],"outputs":[],"stateMutability":"nonpayable"},{"type":"function","name":"submitSuperBlockCommitment","inputs":[{"name":"superBlockCommitment","type":"tuple","internalType":"struct MCRStorage.SuperBlockCommitment","components":[{"name":"height","type":"uint256","internalType":"uint256"},{"name":"commitment","type":"bytes32","internalType":"bytes32"},{"name":"blockId","type":"bytes32","internalType":"bytes32"}]}],"outputs":[],"stateMutability":"nonpayable"},{"type":"function","name":"superBlockHeightAssignedEpoch","inputs":[{"name":"superBlockHeight","type":"uint256","internalType":"uint256"}],"outputs":[{"name":"epoch","type":"uint256","internalType":"uint256"}],"stateMutability":"view"},{"type":"function","name":"supportsInterface","inputs":[{"name":"interfaceId","type":"bytes4","internalType":"bytes4"}],"outputs":[{"name":"","type":"bool","internalType":"bool"}],"stateMutability":"view"},{"type":"function","name":"upgradeToAndCall","inputs":[{"name":"newImplementation","type":"address","internalType":"address"},{"name":"data","type":"bytes","internalType":"bytes"}],"outputs":[],"stateMutability":"payable"},{"type":"function","name":"versionedPostconfirmedSuperBlocks","inputs":[{"name":"","type":"uint256","internalType":"uint256"},{"name":"superBlockHeight","type":"uint256","internalType":"uint256"}],"outputs":[{"name":"height","type":"uint256","internalType":"uint256"},{"name":"commitment","type":"bytes32","internalType":"bytes32"},{"name":"blockId","type":"bytes32","internalType":"bytes32"}],"stateMutability":"view"},{"type":"event","name":"Initialized","inputs":[{"name":"version","type":"uint64","indexed":false,"internalType":"uint64"}],"anonymous":false},{"type":"event","name":"RoleAdminChanged","inputs":[{"name":"role","type":"bytes32","indexed":true,"internalType":"bytes32"},{"name":"previousAdminRole","type":"bytes32","indexed":true,"internalType":"bytes32"},{"name":"newAdminRole","type":"bytes32","indexed":true,"internalType":"bytes32"}],"anonymous":false},{"type":"event","name":"RoleGranted","inputs":[{"name":"role","type":"bytes32","indexed":true,"internalType":"bytes32"},{"name":"account","type":"address","indexed":true,"internalType":"address"},{"name":"sender","type":"address","indexed":true,"internalType":"address"}],"anonymous":false},{"type":"event","name":"RoleRevoked","inputs":[{"name":"role","type":"bytes32","indexed":true,"internalType":"bytes32"},{"name":"account","type":"address","indexed":true,"internalType":"address"},{"name":"sender","type":"address","indexed":true,"internalType":"address"}],"anonymous":false},{"type":"event","name":"SuperBlockCommitmentSubmitted","inputs":[{"name":"blockHash","type":"bytes32","indexed":true,"internalType":"bytes32"},{"name":"stateCommitment","type":"bytes32","indexed":false,"internalType":"bytes32"},{"name":"attesterStake","type":"uint256","indexed":false,"internalType":"uint256"}],"anonymous":false},{"type":"event","name":"SuperBlockPostconfirmed","inputs":[{"name":"blockHash","type":"bytes32","indexed":true,"internalType":"bytes32"},{"name":"stateCommitment","type":"bytes32","indexed":false,"internalType":"bytes32"},{"name":"height","type":"uint256","indexed":false,"internalType":"uint256"}],"anonymous":false},{"type":"event","name":"Upgraded","inputs":[{"name":"implementation","type":"address","indexed":true,"internalType":"address"}],"anonymous":false},{"type":"error","name":"AccessControlBadConfirmation","inputs":[]},{"type":"error","name":"AccessControlUnauthorizedAccount","inputs":[{"name":"account","type":"address","internalType":"address"},{"name":"neededRole","type":"bytes32","internalType":"bytes32"}]},{"type":"error","name":"AddressEmptyCode","inputs":[{"name":"target","type":"address","internalType":"address"}]},{"type":"error","name":"AttesterAlreadyCommitted","inputs":[]},{"type":"error","name":"ERC1967InvalidImplementation","inputs":[{"name":"implementation","type":"address","internalType":"address"}]},{"type":"error","name":"ERC1967NonPayable","inputs":[]},{"type":"error","name":"FailedInnerCall","inputs":[]},{"type":"error","name":"InvalidInitialization","inputs":[]},{"type":"error","name":"NotInitializing","inputs":[]},{"type":"error","name":"PostconfirmerDurationTooLong","inputs":[]},{"type":"error","name":"PostconfirmerDurationTooLongForEpoch","inputs":[]},{"type":"error","name":"UUPSUnauthorizedCallContext","inputs":[]},{"type":"error","name":"UUPSUnsupportedProxiableUUID","inputs":[{"name":"slot","type":"bytes32","internalType":"bytes32"}]},{"type":"error","name":"UnacceptableSuperBlockCommitment","inputs":[]},{"type":"error","name":"minCommitmentAgeForPostconfirmationTooLong","inputs":[]},{"type":"error","name":"postconfirmerPrivilegeDurationTooLong","inputs":[]}],"bytecode":{"object":"0x60a0604052306080523480156012575f80fd5b506080516139c36100395f395f81816124580152818161248101526125c201526139c35ff3fe608060405260043610610484575f3560e01c80636978ab1211610257578063ba26513e1161013f578063d7830688116100be578063ed8a1d5911610083578063ed8a1d5914610f5a578063eda67fc414610f9b578063ee99205c14610fd5578063ef9ae15c14610ff3578063f1949add14610902578063fdafe9ca1461100c575f80fd5b8063d783068814610e71578063da7d28b614610ea7578063e07472ef14610ec6578063e90d4c0614610f00578063ec18c18614610f45575f80fd5b8063d2526fef11610104578063d2526fef14610dd4578063d283392e14610df3578063d3eef4cc14610e1e578063d440116d14610e33578063d547741f14610e52575f80fd5b8063ba26513e14610d2c578063bb04bd2f14610d4b578063bff92c8c14610d6a578063c19b406c14610d7f578063cf6772ad14610db5575f80fd5b806390879f64116101d6578063949d7c2a1161019b578063949d7c2a14610c5d578063a207fe2f14610c7c578063a217fddf14610ca7578063aa0d6fcd14610cba578063ab208ebd14610cdb578063ad3cb1cc14610cef575f80fd5b806390879f6414610bce57806391807e4f14610be257806391d1485414610c1657806392a2ebf314610c35578063943b79e214610c49575f80fd5b80637cfd82051161021c5780637cfd820514610b2557806380e460f014610b505780638129fc1c14610b7057806381df174614610b8457806385e6b8c214610ba3575f80fd5b80636978ab1214610a505780636c713af814610a915780636f86529414610aa55780637aa81c2a14610adb5780637ac561c814610afa575f80fd5b806335ea1c631161037a5780634f1ef286116102f957806358376877116102be57806358376877146109b557806359b99597146109d45780635db916ab146109e85780635f4d642e14610a085780635f83c7d514610a1c578063622e361614610a31575f80fd5b80634f1ef286146108db57806352d1902d146108ee578063556d97c81461090257806355b8119d146109815780635734228214610996575f80fd5b80633d6459271161033f5780633d6459271461084a57806345367f2314610869578063491d0467146108885780634b47d955146108a75780634ceb2e66146108c6575f80fd5b806335ea1c631461077757806336568abe146107a35780633752d675146107c257806337d7f58f146107d65780633ba18005146107ea575f80fd5b80631241ebe311610406578063248a9ca3116103cb578063248a9ca31461069757806326624e37146106b65780632bfd11d6146106ca5780632f2ff15d146107395780633119edd414610758575f80fd5b80631241ebe3146105fb57806314e380261461060f5780631db859c7146106235780631de38fe1146106595780631f83e2a314610678575f80fd5b806308c7050f1161044c57806308c7050f1461055e5780630cf6b6bd1461057f5780630d39f7f01461059e5780630e74b609146105bd578063107e21ca146105dc575f80fd5b806301ffc9a714610488578063026583d7146104bc578063028e490a146104fd57806303d3f7fd1461051b57806308750a3214610530575b5f80fd5b348015610493575f80fd5b506104a76104a23660046131a3565b611021565b60405190151581526020015b60405180910390f35b3480156104c7575f80fd5b506104db6104d63660046131ca565b611057565b60408051825181526020808401519082015291810151908201526060016104b3565b348015610508575f80fd5b506006545b6040519081526020016104b3565b348015610526575f80fd5b5061050d60025481565b34801561053b575f80fd5b506104a761054a3660046131f3565b600c6020525f908152604090205460ff1681565b348015610569575f80fd5b5061057d6105783660046132a4565b611090565b005b34801561058a575f80fd5b506104a76105993660046132a4565b61111d565b3480156105a9575f80fd5b5061057d6105b83660046131f3565b61119c565b3480156105c8575f80fd5b5061057d6105d73660046132a4565b6111b9565b3480156105e7575f80fd5b5061057d6105f6366004613367565b611202565b348015610606575f80fd5b5060045461050d565b34801561061a575f80fd5b5061050d6113e2565b34801561062e575f80fd5b5061050d61063d3660046133eb565b601560209081525f928352604080842090915290825290205481565b348015610664575f80fd5b5061050d6106733660046133eb565b6113f3565b348015610683575f80fd5b5061057d6106923660046131f3565b61146c565b3480156106a2575f80fd5b5061050d6106b13660046131f3565b61151e565b3480156106c1575f80fd5b5061057d61153e565b3480156106d5575f80fd5b506104db6106e43660046131f3565b60408051606080820183525f8083526020808401829052928401819052601354815260128352838120948152938252928290208251938401835280548452600181015491840191909152600201549082015290565b348015610744575f80fd5b5061057d6107533660046133eb565b611549565b348015610763575f80fd5b5061057d6107723660046132a4565b61156b565b348015610782575f80fd5b5061078b611637565b6040516001600160a01b0390911681526020016104b3565b3480156107ae575f80fd5b5061057d6107bd3660046133eb565b611725565b3480156107cd575f80fd5b5061050d61175d565b3480156107e1575f80fd5b5061050d6117c8565b3480156107f5575f80fd5b5061082f610804366004613419565b601260209081525f928352604080842090915290825290208054600182015460029092015490919083565b604080519384526020840192909252908201526060016104b3565b348015610855575f80fd5b5061057d6108643660046131f3565b6117f8565b348015610874575f80fd5b5061050d6108833660046131f3565b6118ac565b348015610893575f80fd5b5061050d6108a2366004613439565b611965565b3480156108b2575f80fd5b5061057d6108c1366004613454565b611977565b3480156108d1575f80fd5b5061050d60045481565b61057d6108e9366004613485565b6119e4565b3480156108f9575f80fd5b5061050d6119ff565b34801561090d575f80fd5b506104db61091c3660046133eb565b604080516060810182525f8082526020820181905291810191909152505f9182526008602090815260408084206001600160a01b0393909316845291815291819020815160608101835281548152600182015493810193909352600201549082015290565b34801561098c575f80fd5b5061050d60065481565b3480156109a1575f80fd5b5061057d6109b03660046131f3565b611a1a565b3480156109c0575f80fd5b5060015461078b906001600160a01b031681565b3480156109df575f80fd5b5060035461050d565b3480156109f3575f80fd5b5061050d5f8051602061396e83398151915281565b348015610a13575f80fd5b5061050d611a37565b348015610a27575f80fd5b5061050d60165481565b348015610a3c575f80fd5b5061057d610a4b36600461352a565b611ad0565b348015610a5b575f80fd5b5061050d610a6a3660046133eb565b5f9182526014602090815260408084206001600160a01b0393909316845291905290205490565b348015610a9c575f80fd5b5061050d611b45565b348015610ab0575f80fd5b5061050d610abf3660046133eb565b601460209081525f928352604080842090915290825290205481565b348015610ae6575f80fd5b5061050d610af53660046135c4565b611b75565b348015610b05575f80fd5b5061050d610b143660046131f3565b600d6020525f908152604090205481565b348015610b30575f80fd5b5061050d610b3f3660046131f3565b600f6020525f908152604090205481565b348015610b5b575f80fd5b5061050d5f805160206138e883398151915281565b348015610b7b575f80fd5b5061057d611bfe565b348015610b8f575f80fd5b5061057d610b9e366004613439565b611d08565b348015610bae575f80fd5b5061050d610bbd3660046131f3565b60076020525f908152604090205481565b348015610bd9575f80fd5b5061050d611d36565b348015610bed575f80fd5b5061078b610bfc3660046131f3565b600b6020525f90815260409020546001600160a01b031681565b348015610c21575f80fd5b506104a7610c303660046133eb565b611dba565b348015610c40575f80fd5b5061057d611df0565b348015610c54575f80fd5b5061050d611ea5565b348015610c68575f80fd5b5061057d610c77366004613439565b611eb6565b348015610c87575f80fd5b5061050d610c963660046131f3565b600e6020525f908152604090205481565b348015610cb2575f80fd5b5061050d5f81565b348015610cc5575f80fd5b50610cce611ef3565b6040516104b39190613646565b348015610ce6575f80fd5b5060055461050d565b348015610cfa575f80fd5b50610d1f604051806040016040528060058152602001640352e302e360dc1b81525081565b6040516104b39190613658565b348015610d37575f80fd5b5061050d610d463660046133eb565b611f5f565b348015610d56575f80fd5b5061050d610d6536600461368d565b61201a565b348015610d75575f80fd5b5061050d60055481565b348015610d8a575f80fd5b5061050d610d99366004613419565b600960209081525f928352604080842090915290825290205481565b348015610dc0575f80fd5b5061057d610dcf366004613454565b61202d565b348015610ddf575f80fd5b5061057d610dee3660046136b9565b61207a565b348015610dfe575f80fd5b5061050d610e0d3660046131f3565b5f9081526007602052604090205490565b348015610e29575f80fd5b5061050d60175481565b348015610e3e575f80fd5b5061050d610e4d366004613439565b6120a5565b348015610e5d575f80fd5b5061057d610e6c3660046133eb565b6120b7565b348015610e7c575f80fd5b5061050d610e8b366004613419565b600a60209081525f928352604080842090915290825290205481565b348015610eb2575f80fd5b5061057d610ec13660046131f3565b6120d3565b348015610ed1575f80fd5b5061050d610ee03660046132a4565b80515f908152600a60209081526040808320938201518352929052205490565b348015610f0b575f80fd5b5061082f610f1a3660046133eb565b600860209081525f928352604080842090915290825290208054600182015460029092015490919083565b348015610f50575f80fd5b5061050d60135481565b348015610f65575f80fd5b5061050d610f743660046133eb565b5f9182526015602090815260408084206001600160a01b0393909316845291905290205490565b348015610fa6575f80fd5b5061082f610fb53660046131f3565b60106020525f908152604090208054600182015460029092015490919083565b348015610fe0575f80fd5b505f5461078b906001600160a01b031681565b348015610ffe575f80fd5b506011546104a79060ff1681565b348015611017575f80fd5b5061050d60035481565b5f6001600160e01b03198216637965db0b60e01b148061105157506301ffc9a760e01b6001600160e01b03198316145b92915050565b60408051606080820183525f808352602080840182905292840152825190810183528581529081018490529081018290525b9392505050565b6110a75f805160206138e883398151915233611dba565b6111115760405162461bcd60e51b815260206004820152603060248201527f464f5243455f4c41544553545f434f4d4d49544d454e545f49535f434f4d4d4960448201526f544d454e545f41444d494e5f4f4e4c5960801b60648201526084015b60405180910390fd5b61111a8161156b565b50565b80515f908152600a602090815260408083208285015184529091528120545f0361114857505f919050565b4261115260065490565b60055484515f908152600a6020908152604080832082890151845290915290205461117d91906136ec565b61118791906136ec565b101561119457505f919050565b506001919050565b5f805160206138e88339815191526111b381612185565b50601655565b60115460ff16806111dc57506111dc5f8051602061396e83398151915233611dba565b6111f85760405162461bcd60e51b8152600401611108906136ff565b61111a338261218f565b7ff0c57e16840df040f15088dc2f81fe391c3923bec73e23a9662efc9c229c6a008054600160401b810460ff1615906001600160401b03165f811580156112465750825b90505f826001600160401b031660011480156112615750303b155b90508115801561126f575080155b1561128d5760405163f92ee8a960e01b815260040160405180910390fd5b845467ffffffffffffffff1916600117855583156112b757845460ff60401b1916600160401b1785555b6112bf612303565b5f80546001600160a01b0319166001600160a01b038e1690811790915560028b905560038c9055604051631a6e609f60e31b815263d37304f890611309908c908c90600401613741565b5f604051808303815f87803b158015611320575f80fd5b505af1158015611332573d5f803e3d5ffd5b5050505061133f33611eb6565b61134833611d08565b6004879055600180546001600160a01b0319166001600160a01b038816179055611373600a8a61376d565b600555611381600a8a61376d565b6006556001601681905560175583156113d457845460ff60401b19168555604051600181527fc7f505b2f371ae2175ee4913f4499e1f2633a7b5936321eed1cdaeb6115181d29060200160405180910390a15b505050505050505050505050565b5f6113ee610883611b45565b905090565b5f8054604051630ce52af560e01b8152306004820152602481018590526001600160a01b03848116604483015290911690630ce52af590606401602060405180830381865afa158015611448573d5f803e3d5ffd5b505050506040513d601f19601f820116820180604052508101906110899190613780565b5f805160206138e883398151915261148381612185565b6006545f54604051635c53435960e01b81523060048201526001600160a01b0390911690635c53435990602401602060405180830381865afa1580156114cb573d5f803e3d5ffd5b505050506040513d601f19601f820116820180604052508101906114ef9190613780565b6114f99190613797565b82106115185760405163a7075e5f60e01b815260040160405180910390fd5b50600555565b5f9081525f8051602061394e833981519152602052604090206001015490565b61154733612315565b565b6115528261151e565b61155b81612185565b6115658383612333565b50505050565b6115825f805160206138e883398151915233611dba565b6116025760405162461bcd60e51b8152602060048201526044602482018190527f5345545f4c4153545f504f5354434f4e4649524d45445f434f4d4d49544d454e908201527f545f41545f4845494748545f49535f434f4d4d49544d454e545f41444d494e5f6064820152634f4e4c5960e01b608482015260a401611108565b6013545f9081526012602090815260408083208451845282529182902083518155908301516001820155910151600290910155565b5f80611641611a37565b90505f61164c611d36565b5f8054604051634234a47960e01b815230600482015292935090916001600160a01b0390911690634234a479906024015f60405180830381865afa158015611696573d5f803e3d5ffd5b505050506040513d5f823e601f3d908101601f191682016040526116bd91908101906137aa565b90505f815184846040516020016116de929190918252602082015260400190565b604051602081830303815290604052805190602001205f1c6117009190613839565b90508181815181106117145761171461384c565b602002602001015194505050505090565b6001600160a01b038116331461174e5760405163334bd91960e11b815260040160405180910390fd5b61175882826123d4565b505050565b5f8054604051631dc7f3f160e21b81523060048201526001600160a01b039091169063771fcfc4906024015b602060405180830381865afa1580156117a4573d5f803e3d5ffd5b505050506040513d601f19601f820116820180604052508101906113ee9190613780565b5f805460405163d980b40d60e01b81523060048201526001600160a01b039091169063d980b40d90602401611789565b5f805160206138e883398151915261180f81612185565b5f8054604051635c53435960e01b81523060048201526001600160a01b0390911690635c53435990602401602060405180830381865afa158015611855573d5f803e3d5ffd5b505050506040513d601f19601f820116820180604052508101906118799190613780565b905080611887846002613860565b106118a5576040516360bc402f60e01b815260040160405180910390fd5b5050600455565b5f805460405163341d5ef560e01b815230600482015282916001600160a01b03169063341d5ef5906024015f60405180830381865afa1580156118f1573d5f803e3d5ffd5b505050506040513d5f823e601f3d908101601f1916820160405261191891908101906137aa565b90505f805b825181101561195d576119498584838151811061193c5761193c61384c565b60200260200101516113f3565b61195390836136ec565b915060010161191d565b509392505050565b5f611051611971611b45565b83611f5f565b6119815f33611dba565b61199d5760405162461bcd60e51b815260040161110890613877565b5f5b81518110156119e0576119d85f805160206138e88339815191528383815181106119cb576119cb61384c565b6020026020010151611549565b60010161199f565b5050565b6119ec61244d565b6119f5826124f1565b6119e082826124fb565b5f611a086125b7565b505f8051602061390883398151915290565b5f805160206138e8833981519152611a3181612185565b50601755565b5f8054604051635c53435960e01b8152306004820152429183916001600160a01b0390911690635c53435990602401602060405180830381865afa158015611a81573d5f803e3d5ffd5b505050506040513d601f19601f82011682018060405250810190611aa59190613780565b611aaf9083613839565b905060045481611abf9190613839565b611ac99082613797565b9250505090565b60115460ff1680611af35750611af35f8051602061396e83398151915233611dba565b611b0f5760405162461bcd60e51b8152600401611108906136ff565b5f5b81518110156119e057611b3d33838381518110611b3057611b3061384c565b602002602001015161218f565b600101611b11565b5f80546040516322fceb7560e01b81523060048201526001600160a01b03909116906322fceb7590602401611789565b5f80546040516324f7ee1760e21b8152306004820152602481018690526001600160a01b0385811660448301528481166064830152909116906393dfb85c90608401602060405180830381865afa158015611bd2573d5f803e3d5ffd5b505050506040513d601f19601f82011682018060405250810190611bf69190613780565b949350505050565b7ff0c57e16840df040f15088dc2f81fe391c3923bec73e23a9662efc9c229c6a008054600160401b810460ff1615906001600160401b03165f81158015611c425750825b90505f826001600160401b03166001148015611c5d5750303b155b905081158015611c6b575080155b15611c895760405163f92ee8a960e01b815260040160405180910390fd5b845467ffffffffffffffff191660011785558315611cb357845460ff60401b1916600160401b1785555b611cbb612600565b8315611d0157845460ff60401b19168555604051600181527fc7f505b2f371ae2175ee4913f4499e1f2633a7b5936321eed1cdaeb6115181d29060200160405180910390a15b5050505050565b5f805160206138e8833981519152611d1f81612185565b6119e05f8051602061396e83398151915283611549565b5f8054604051635c53435960e01b815230600482015242916001600160a01b031690635c53435990602401602060405180830381865afa158015611d7c573d5f803e3d5ffd5b505050506040513d601f19601f82011682018060405250810190611da09190613780565b611daa9082613839565b611db49082613797565b91505090565b5f9182525f8051602061394e833981519152602090815260408084206001600160a01b0393909316845291905290205460ff1690565b611dfa5f33611dba565b611e545760405162461bcd60e51b815260206004820152602560248201527f4143434550545f47454e455349535f434552454d4f4e595f49535f41444d494e6044820152645f4f4e4c5960d81b6064820152608401611108565b5f8054604080516392a2ebf360e01b815290516001600160a01b03909216926392a2ebf39260048084019382900301818387803b158015611e93575f80fd5b505af1158015611565573d5f803e3d5ffd5b5f6002546003546113ee91906136ec565b611ec05f33611dba565b611edc5760405162461bcd60e51b815260040161110890613877565b61111a5f805160206138e883398151915282611549565b5f54604051634234a47960e01b81523060048201526060916001600160a01b031690634234a479906024015f60405180830381865afa158015611f38573d5f803e3d5ffd5b505050506040513d5f823e601f3d908101601f191682016040526113ee91908101906137aa565b5f805460405163341d5ef560e01b815230600482015282916001600160a01b03169063341d5ef5906024015f60405180830381865afa158015611fa4573d5f803e3d5ffd5b505050506040513d5f823e601f3d908101601f19168201604052611fcb91908101906137aa565b90505f805b825181101561201157611ffd86848381518110611fef57611fef61384c565b602002602001015187611b75565b61200790836136ec565b9150600101611fd0565b50949350505050565b5f611089612026611b45565b8484611b75565b5f805160206138e883398151915261204481612185565b5f5b8251811015611758576120725f8051602061396e8339815191528483815181106119cb576119cb61384c565b600101612046565b5f805160206138e883398151915261209181612185565b506011805460ff1916911515919091179055565b5f6110516120b1611b45565b836113f3565b6120c08261151e565b6120c981612185565b61156583836123d4565b5f805160206138e88339815191526120ea81612185565b6005545f54604051635c53435960e01b81523060048201526001600160a01b0390911690635c53435990602401602060405180830381865afa158015612132573d5f803e3d5ffd5b505050506040513d601f19601f820116820180604052508101906121569190613780565b6121609190613797565b821061217f57604051633c9f1a5360e01b815260040160405180910390fd5b50600655565b61111a8133612610565b80515f9081526008602090815260408083206001600160a01b0386168452909152902054156121d157604051630ae09ad960e41b815260040160405180910390fd5b80516002546003546121e391906136ec565b101561220257604051630ae09ad960e41b815260040160405180910390fd5b80515f908152600760205260408120549003612231576122206117c8565b81515f908152600760205260409020555b80515f9081526008602090815260408083206001600160a01b038616845282529182902083518082559184015160018201819055928401516002909101556122799142612649565b5f61228383611965565b82515f9081526009602090815260408083208287015184529091528120805492935083929091906122b59084906136ec565b9091555050604080830151602080850151835190815290810184905290917fa8445a6b8a16633ad62fbc0954848ec55c4d5323d90b9745dbda4121ec5ce12b910160405180910390a2505050565b61230b612693565b61111a5f33612333565b61232c600354600161232791906136ec565b6126dc565b6123155750565b5f5f8051602061394e83398151915261234c8484611dba565b6123cb575f848152602082815260408083206001600160a01b03871684529091529020805460ff191660011790556123813390565b6001600160a01b0316836001600160a01b0316857f2f8788117e7eff1d82e926ec794901d17c78024a50270940304540a733656f0d60405160405180910390a46001915050611051565b5f915050611051565b5f5f8051602061394e8339815191526123ed8484611dba565b156123cb575f848152602082815260408083206001600160a01b0387168085529252808320805460ff1916905551339287917ff6391f5c32d9c69d2a47ea670b442974b53935d1edc7fd64eb21e047a839171b9190a46001915050611051565b306001600160a01b037f00000000000000000000000000000000000000000000000000000000000000001614806124d357507f00000000000000000000000000000000000000000000000000000000000000006001600160a01b03166124c75f80516020613908833981519152546001600160a01b031690565b6001600160a01b031614155b156115475760405163703e46dd60e11b815260040160405180910390fd5b5f6119e081612185565b816001600160a01b03166352d1902d6040518163ffffffff1660e01b8152600401602060405180830381865afa925050508015612555575060408051601f3d908101601f1916820190925261255291810190613780565b60015b61257d57604051634c9c8ce360e01b81526001600160a01b0383166004820152602401611108565b5f8051602061390883398151915281146125ad57604051632a87526960e21b815260048101829052602401611108565b6117588383612967565b306001600160a01b037f000000000000000000000000000000000000000000000000000000000000000016146115475760405163703e46dd60e11b815260040160405180910390fd5b612608612693565b611547612303565b61261a8282611dba565b6119e05760405163e2517d3f60e01b81526001600160a01b038216600482015260248101839052604401611108565b5f838152600a602090815260408083208584529091529020541561266c57505050565b805f0361267857505050565b5f928352600a60209081526040808520938552929052912055565b7ff0c57e16840df040f15088dc2f81fe391c3923bec73e23a9662efc9c229c6a0054600160401b900460ff1661154757604051631afcd79f60e31b815260040160405180910390fd5b5f818152600760205260408120546003545f0361271957612714604051806060016040528060268152602001613928602691396129bc565b6127cf565b5f600781612728600187613797565b81526020019081526020015f20549050808210156127cd575f612749611ef3565b90505f5b81518110156127c75760085f8781526020019081526020015f205f83838151811061277a5761277a61384c565b60200260200101516001600160a01b03166001600160a01b031681526020019081526020015f205f01545f146127bf575f8681526007602052604090208390556127c7565b60010161274d565b50819250505b505b806127d8611b45565b10156127e6576127146129ff565b5f60036127f2836118ac565b6127fd906002613860565b612807919061376d565b6128129060016136ec565b90505f61281d611ef3565b90505f805b8251811015612927575f83828151811061283e5761283e61384c565b6020908102919091018101515f8a81526008835260408082206001600160a01b038416835284529081902081516060810183528154808252600183015495820195909552600290910154918101919091529092509089146128a057505061291f565b80515f90815260096020908152604080832082850151845290915290205486811061291b5781515f908152600a602090815260408083208286015184529091529020546005546128f090826136ec565b4210156129005750505050612927565b61290a8333612d59565b5060019a9950505050505050505050565b5050505b600101612822565b50801580156129435750612939611b45565b6129416117c8565b115b1561295c576129506129ff565b50600195945050505050565b505f95945050505050565b61297082613001565b6040516001600160a01b038316907fbc7cd75a20ee27fd9adebab32041f755214dbc6bffa90cc0225b39da2e5c2d3b905f90a28051156129b4576117588282613064565b6119e06130d6565b61111a816040516024016129d09190613658565b60408051601f198184030181529190526020810180516001600160e01b031663104c13eb60e21b1790526130f5565b5f612a08611b45565b90505f612a13611ef3565b90505f5b8151811015612cff575f83815260146020526040812083518290859085908110612a4357612a4361384c565b60200260200101516001600160a01b03166001600160a01b031681526020019081526020015f20541115612b92575f612a94838381518110612a8757612a8761384c565b6020026020010151611965565b60165460145f8781526020019081526020015f205f868681518110612abb57612abb61384c565b60200260200101516001600160a01b03166001600160a01b031681526020019081526020015f2054612aed9190613860565b612af79190613860565b5f5484519192506001600160a01b031690635e00bf4690859085908110612b2057612b2061384c565b60209081029190910101516001546040516001600160e01b031960e085901b1681526001600160a01b03928316600482015260248101869052911660448201526064015f604051808303815f87803b158015612b7a575f80fd5b505af1158015612b8c573d5f803e3d5ffd5b50505050505b5f83815260156020526040812083518290859085908110612bb557612bb561384c565b60200260200101516001600160a01b03166001600160a01b031681526020019081526020015f20541115612cf7575f612bf9838381518110612a8757612a8761384c565b60175460155f8781526020019081526020015f205f868681518110612c2057612c2061384c565b60200260200101516001600160a01b03166001600160a01b031681526020019081526020015f2054612c529190613860565b612c5c9190613860565b5f5484519192506001600160a01b031690635e00bf4690859085908110612c8557612c8561384c565b60209081029190910101516001546040516001600160e01b031960e085901b1681526001600160a01b03928316600482015260248101869052911660448201526064015f604051808303815f87803b158015612cdf575f80fd5b505af1158015612cf1573d5f803e3d5ffd5b50505050505b600101612a17565b505f805460408051632a21edc760e21b815290516001600160a01b039092169263a887b71c9260048084019382900301818387803b158015612d3f575f80fd5b505af1158015612d51573d5f803e3d5ffd5b505050505050565b5f612d62611b45565b83515f908152600760205260409020549091508114612d9457604051631f2d18b160e31b815260040160405180910390fd5b8251612da290600190613797565b60035414612dc357604051631f2d18b160e31b815260040160405180910390fd5b5f612dcc611ef3565b90505f5b8151811015612e9e57846020015160085f875f015181526020019081526020015f205f848481518110612e0557612e0561384c565b60200260200101516001600160a01b03166001600160a01b031681526020019081526020015f206001015403612e965760145f8481526020019081526020015f205f838381518110612e5957612e5961384c565b60200260200101516001600160a01b03166001600160a01b031681526020019081526020015f205f815480929190612e90906138b9565b91905055505b600101612dd0565b50612ea88461111d565b612ee9575f8281526015602090815260408083206001600160a01b03871684529091528120805460019290612ede9084906136ec565b90915550612f419050565b826001600160a01b0316612efb611637565b6001600160a01b031603612f41575f8281526015602090815260408083206001600160a01b03871684529091528120805460019290612f3b9084906136ec565b90915550505b6013545f90815260126020908152604080832087518452825280832087518082558884018051600184015589840180516002909401939093556003829055908552600b845282852080546001600160a01b0319166001600160a01b038a1617905588518552600d845282852043905588518552600e84529382902042905551925187518251918252928101929092527fc28fbeddd1d6ba9496d1b91564f9aa2bc4dffed78aae631bbc6ef67296ad3c3c910160405180910390a250505050565b806001600160a01b03163b5f0361303657604051634c9c8ce360e01b81526001600160a01b0382166004820152602401611108565b5f8051602061390883398151915280546001600160a01b0319166001600160a01b0392909216919091179055565b60605f80846001600160a01b03168460405161308091906138d1565b5f60405180830381855af49150503d805f81146130b8576040519150601f19603f3d011682016040523d82523d5f602084013e6130bd565b606091505b50915091506130cd8583836130fe565b95945050505050565b34156115475760405163b398979f60e01b815260040160405180910390fd5b61111a8161315a565b6060826131135761310e8261317a565b611089565b815115801561312a57506001600160a01b0384163b155b1561315357604051639996b31560e01b81526001600160a01b0385166004820152602401611108565b5080611089565b80516a636f6e736f6c652e6c6f67602083015f808483855afa5050505050565b80511561318a5780518082602001fd5b604051630a12f52160e11b815260040160405180910390fd5b5f602082840312156131b3575f80fd5b81356001600160e01b031981168114611089575f80fd5b5f805f606084860312156131dc575f80fd5b505081359360208301359350604090920135919050565b5f60208284031215613203575f80fd5b5035919050565b634e487b7160e01b5f52604160045260245ffd5b604051601f8201601f191681016001600160401b03811182821017156132465761324661320a565b604052919050565b5f6060828403121561325e575f80fd5b604051606081016001600160401b03811182821017156132805761328061320a565b60409081528335825260208085013590830152928301359281019290925250919050565b5f606082840312156132b4575f80fd5b611089838361324e565b6001600160a01b038116811461111a575f80fd5b5f6001600160401b038211156132ea576132ea61320a565b5060051b60200190565b5f82601f830112613303575f80fd5b8135613316613311826132d2565b61321e565b8082825260208201915060208360051b860101925085831115613337575f80fd5b602085015b8381101561335d57803561334f816132be565b83526020928301920161333c565b5095945050505050565b5f805f805f805f60e0888a03121561337d575f80fd5b8735613388816132be565b965060208801359550604088013594506060880135935060808801356001600160401b038111156133b7575f80fd5b6133c38a828b016132f4565b93505060a0880135915060c08801356133db816132be565b8091505092959891949750929550565b5f80604083850312156133fc575f80fd5b82359150602083013561340e816132be565b809150509250929050565b5f806040838503121561342a575f80fd5b50508035926020909101359150565b5f60208284031215613449575f80fd5b8135611089816132be565b5f60208284031215613464575f80fd5b81356001600160401b03811115613479575f80fd5b611bf6848285016132f4565b5f8060408385031215613496575f80fd5b82356134a1816132be565b915060208301356001600160401b038111156134bb575f80fd5b8301601f810185136134cb575f80fd5b80356001600160401b038111156134e4576134e461320a565b6134f7601f8201601f191660200161321e565b81815286602083850101111561350b575f80fd5b816020840160208301375f602083830101528093505050509250929050565b5f6020828403121561353a575f80fd5b81356001600160401b0381111561354f575f80fd5b8201601f8101841361355f575f80fd5b803561356d613311826132d2565b8082825260208201915060206060840285010192508683111561358e575f80fd5b6020840193505b828410156135ba576135a7878561324e565b8252602082019150606084019350613595565b9695505050505050565b5f805f606084860312156135d6575f80fd5b8335925060208401356135e8816132be565b915060408401356135f8816132be565b809150509250925092565b5f8151808452602084019350602083015f5b8281101561363c5781516001600160a01b0316865260209586019590910190600101613615565b5093949350505050565b602081525f6110896020830184613603565b602081525f82518060208401528060208501604085015e5f604082850101526040601f19601f83011684010191505092915050565b5f806040838503121561369e575f80fd5b82356136a9816132be565b9150602083013561340e816132be565b5f602082840312156136c9575f80fd5b81358015158114611089575f80fd5b634e487b7160e01b5f52601160045260245ffd5b80820180821115611051576110516136d8565b60208082526022908201527f554e415554484f52495a45445f5355504552424c4f434b5f434f4d4d49544d45604082015261139560f21b606082015260800190565b828152604060208201525f611bf66040830184613603565b634e487b7160e01b5f52601260045260245ffd5b5f8261377b5761377b613759565b500490565b5f60208284031215613790575f80fd5b5051919050565b81810381811115611051576110516136d8565b5f602082840312156137ba575f80fd5b81516001600160401b038111156137cf575f80fd5b8201601f810184136137df575f80fd5b80516137ed613311826132d2565b8082825260208201915060208360051b85010192508683111561380e575f80fd5b6020840193505b828410156135ba578351613828816132be565b825260209384019390910190613815565b5f8261384757613847613759565b500690565b634e487b7160e01b5f52603260045260245ffd5b8082028115828204841417611051576110516136d8565b60208082526022908201527f4144445f434f4d4d49544d454e545f41444d494e5f49535f41444d494e5f4f4e6040820152614c5960f01b606082015260800190565b5f600182016138ca576138ca6136d8565b5060010190565b5f82518060208501845e5f92019182525091905056fedb2bf73e90d393604e56f0a2a54fed3fbd75332bf39c5ea0704b3b6973a3463c360894a13ba1a3210667c828492db98dca3e2076cc3735a920a3ca505d382bbc5b617474656d7074506f7374636f6e6669726d4f72526f6c6c6f7665725d2067656e6573697302dd7bc7dec4dceedda775e58dd541e08a116c6c53815c0bd028192f7b626800981fe5f60e354ed88ff0544e367c13a4d3342da7c82eb6627f804b747e046e18a26469706673582212205786a544cbabe2fbe7ed65f5af0b3413a5dbe36e500c0b94f3c69a05ad519d7c64736f6c634300081a0033","linkReferences":{}},"methodIdentifiers":{"COMMITMENT_ADMIN()":"80e460f0","DEFAULT_ADMIN_ROLE()":"a217fddf","TRUSTED_ATTESTER()":"5db916ab","UPGRADE_INTERFACE_VERSION()":"ad3cb1cc","acceptGenesisCeremony()":"92a2ebf3","attesterRewardPoints(uint256,address)":"6f865294","batchGrantCommitmentAdmin(address[])":"4b47d955","batchGrantTrustedAttester(address[])":"cf6772ad","commitmentFirstSeenAt(uint256,bytes32)":"d7830688","commitmentStake(uint256,bytes32)":"c19b406c","commitments(uint256,address)":"e90d4c06","createSuperBlockCommitment(uint256,bytes32,bytes32)":"026583d7","forceLatestCommitment((uint256,bytes32,bytes32))":"08c7050f","getAcceptingEpoch()":"6c713af8","getAttesterRewardPoints(uint256,address)":"6978ab12","getAttesterStake(uint256,address)":"ba26513e","getAttesterStakeForAcceptingEpoch(address)":"491d0467","getCommitmentByAttester(uint256,address)":"f1949add","getCommitmentFirstSeenAt((uint256,bytes32,bytes32))":"e07472ef","getCustodianStake(uint256,address)":"1de38fe1","getCustodianStakeForAcceptingEpoch(address)":"d440116d","getEpochStartTime()":"90879f64","getLastPostconfirmedSuperBlockHeight()":"59b99597","getMaxTolerableSuperBlockHeight()":"943b79e2","getMinCommitmentAgeForPostconfirmation()":"ab208ebd","getNextAcceptingEpochWithException()":"3752d675","getPostconfirmedCommitment(uint256)":"2bfd11d6","getPostconfirmer()":"35ea1c63","getPostconfirmerDuration()":"1241ebe3","getPostconfirmerPrivilegeDuration()":"028e490a","getPostconfirmerRewardPoints(uint256,address)":"ed8a1d59","getPostconfirmerStartTime()":"5f4d642e","getPresentEpoch()":"37d7f58f","getRoleAdmin(bytes32)":"248a9ca3","getStake(uint256,address,address)":"7aa81c2a","getStakeForAcceptingEpoch(address,address)":"bb04bd2f","getStakedAttestersForAcceptingEpoch()":"aa0d6fcd","getSuperBlockHeightAssignedEpoch(uint256)":"d283392e","getTotalStake(uint256)":"45367f23","getTotalStakeForAcceptingEpoch()":"14e38026","getValidatorCommitmentAtSuperBlockHeight(uint256,address)":"556d97c8","grantCommitmentAdmin(address)":"949d7c2a","grantRole(bytes32,address)":"2f2ff15d","grantTrustedAttester(address)":"81df1746","hasRole(bytes32,address)":"91d14854","initialize()":"8129fc1c","initialize(address,uint256,uint256,uint256,address[],uint256,address)":"107e21ca","isWithinPostconfirmerPrivilegeDuration((uint256,bytes32,bytes32))":"0cf6b6bd","lastPostconfirmedSuperBlockHeight()":"fdafe9ca","leadingSuperBlockTolerance()":"03d3f7fd","minCommitmentAgeForPostconfirmation()":"bff92c8c","moveTokenAddress()":"58376877","openAttestationEnabled()":"ef9ae15c","postconfirmSuperBlocksAndRollover()":"26624e37","postconfirmedAtL1BlockHeight(uint256)":"7ac561c8","postconfirmedAtL1BlockHeightByPostconfirmer(uint256)":"7cfd8205","postconfirmedAtL1BlockTimestamp(uint256)":"a207fe2f","postconfirmedBy(uint256)":"91807e4f","postconfirmedByPostconfirmer(uint256)":"08750a32","postconfirmedSuperBlocks(uint256)":"eda67fc4","postconfirmedSuperBlocksVersion()":"ec18c186","postconfirmerDuration()":"4ceb2e66","postconfirmerPrivilegeDuration()":"55b8119d","postconfirmerRewardPoints(uint256,address)":"1db859c7","proxiableUUID()":"52d1902d","renounceRole(bytes32,address)":"36568abe","revokeRole(bytes32,address)":"d547741f","rewardPerAttestationPoint()":"5f83c7d5","rewardPerPostconfirmationPoint()":"d3eef4cc","setMinCommitmentAgeForPostconfirmation(uint256)":"1f83e2a3","setOpenAttestationEnabled(bool)":"d2526fef","setPostconfirmedCommitmentAtBlockHeight((uint256,bytes32,bytes32))":"3119edd4","setPostconfirmerDuration(uint256)":"3d645927","setPostconfirmerPrivilegeDuration(uint256)":"da7d28b6","setRewardPerAttestationPoint(uint256)":"0d39f7f0","setRewardPerPostconfirmationPoint(uint256)":"57342282","stakingContract()":"ee99205c","submitBatchSuperBlockCommitment((uint256,bytes32,bytes32)[])":"622e3616","submitSuperBlockCommitment((uint256,bytes32,bytes32))":"0e74b609","superBlockHeightAssignedEpoch(uint256)":"85e6b8c2","supportsInterface(bytes4)":"01ffc9a7","upgradeToAndCall(address,bytes)":"4f1ef286","versionedPostconfirmedSuperBlocks(uint256,uint256)":"3ba18005"},"storageLayout":{"storage":[{"astId":51521,"contract":"src/settlement/MCR.sol:MCR","label":"stakingContract","offset":0,"slot":"0","type":"t_contract(IMovementStaking)54080"},{"astId":51523,"contract":"src/settlement/MCR.sol:MCR","label":"moveTokenAddress","offset":0,"slot":"1","type":"t_address"},{"astId":51525,"contract":"src/settlement/MCR.sol:MCR","label":"leadingSuperBlockTolerance","offset":0,"slot":"2","type":"t_uint256"},{"astId":51527,"contract":"src/settlement/MCR.sol:MCR","label":"lastPostconfirmedSuperBlockHeight","offset":0,"slot":"3","type":"t_uint256"},{"astId":51530,"contract":"src/settlement/MCR.sol:MCR","label":"postconfirmerDuration","offset":0,"slot":"4","type":"t_uint256"},{"astId":51533,"contract":"src/settlement/MCR.sol:MCR","label":"minCommitmentAgeForPostconfirmation","offset":0,"slot":"5","type":"t_uint256"},{"astId":51536,"contract":"src/settlement/MCR.sol:MCR","label":"postconfirmerPrivilegeDuration","offset":0,"slot":"6","type":"t_uint256"},{"astId":51548,"contract":"src/settlement/MCR.sol:MCR","label":"superBlockHeightAssignedEpoch","offset":0,"slot":"7","type":"t_mapping(t_uint256,t_uint256)"},{"astId":51555,"contract":"src/settlement/MCR.sol:MCR","label":"commitments","offset":0,"slot":"8","type":"t_mapping(t_uint256,t_mapping(t_address,t_struct(SuperBlockCommitment)51544_storage))"},{"astId":51561,"contract":"src/settlement/MCR.sol:MCR","label":"commitmentStake","offset":0,"slot":"9","type":"t_mapping(t_uint256,t_mapping(t_bytes32,t_uint256))"},{"astId":51567,"contract":"src/settlement/MCR.sol:MCR","label":"commitmentFirstSeenAt","offset":0,"slot":"10","type":"t_mapping(t_uint256,t_mapping(t_bytes32,t_uint256))"},{"astId":51571,"contract":"src/settlement/MCR.sol:MCR","label":"postconfirmedBy","offset":0,"slot":"11","type":"t_mapping(t_uint256,t_address)"},{"astId":51575,"contract":"src/settlement/MCR.sol:MCR","label":"postconfirmedByPostconfirmer","offset":0,"slot":"12","type":"t_mapping(t_uint256,t_bool)"},{"astId":51579,"contract":"src/settlement/MCR.sol:MCR","label":"postconfirmedAtL1BlockHeight","offset":0,"slot":"13","type":"t_mapping(t_uint256,t_uint256)"},{"astId":51583,"contract":"src/settlement/MCR.sol:MCR","label":"postconfirmedAtL1BlockTimestamp","offset":0,"slot":"14","type":"t_mapping(t_uint256,t_uint256)"},{"astId":51587,"contract":"src/settlement/MCR.sol:MCR","label":"postconfirmedAtL1BlockHeightByPostconfirmer","offset":0,"slot":"15","type":"t_mapping(t_uint256,t_uint256)"},{"astId":51592,"contract":"src/settlement/MCR.sol:MCR","label":"postconfirmedSuperBlocks","offset":0,"slot":"16","type":"t_mapping(t_uint256,t_struct(SuperBlockCommitment)51544_storage)"},{"astId":51594,"contract":"src/settlement/MCR.sol:MCR","label":"openAttestationEnabled","offset":0,"slot":"17","type":"t_bool"},{"astId":51601,"contract":"src/settlement/MCR.sol:MCR","label":"versionedPostconfirmedSuperBlocks","offset":0,"slot":"18","type":"t_mapping(t_uint256,t_mapping(t_uint256,t_struct(SuperBlockCommitment)51544_storage))"},{"astId":51603,"contract":"src/settlement/MCR.sol:MCR","label":"postconfirmedSuperBlocksVersion","offset":0,"slot":"19","type":"t_uint256"},{"astId":51609,"contract":"src/settlement/MCR.sol:MCR","label":"attesterRewardPoints","offset":0,"slot":"20","type":"t_mapping(t_uint256,t_mapping(t_address,t_uint256))"},{"astId":51615,"contract":"src/settlement/MCR.sol:MCR","label":"postconfirmerRewardPoints","offset":0,"slot":"21","type":"t_mapping(t_uint256,t_mapping(t_address,t_uint256))"},{"astId":51617,"contract":"src/settlement/MCR.sol:MCR","label":"rewardPerAttestationPoint","offset":0,"slot":"22","type":"t_uint256"},{"astId":51619,"contract":"src/settlement/MCR.sol:MCR","label":"rewardPerPostconfirmationPoint","offset":0,"slot":"23","type":"t_uint256"},{"astId":51623,"contract":"src/settlement/MCR.sol:MCR","label":"__gap","offset":0,"slot":"24","type":"t_array(t_uint256)45_storage"}],"types":{"t_address":{"encoding":"inplace","label":"address","numberOfBytes":"20"},"t_array(t_uint256)45_storage":{"encoding":"inplace","label":"uint256[45]","numberOfBytes":"1440","base":"t_uint256"},"t_bool":{"encoding":"inplace","label":"bool","numberOfBytes":"1"},"t_bytes32":{"encoding":"inplace","label":"bytes32","numberOfBytes":"32"},"t_contract(IMovementStaking)54080":{"encoding":"inplace","label":"contract IMovementStaking","numberOfBytes":"20"},"t_mapping(t_address,t_struct(SuperBlockCommitment)51544_storage)":{"encoding":"mapping","key":"t_address","label":"mapping(address => struct MCRStorage.SuperBlockCommitment)","numberOfBytes":"32","value":"t_struct(SuperBlockCommitment)51544_storage"},"t_mapping(t_address,t_uint256)":{"encoding":"mapping","key":"t_address","label":"mapping(address => uint256)","numberOfBytes":"32","value":"t_uint256"},"t_mapping(t_bytes32,t_uint256)":{"encoding":"mapping","key":"t_bytes32","label":"mapping(bytes32 => uint256)","numberOfBytes":"32","value":"t_uint256"},"t_mapping(t_uint256,t_address)":{"encoding":"mapping","key":"t_uint256","label":"mapping(uint256 => address)","numberOfBytes":"32","value":"t_address"},"t_mapping(t_uint256,t_bool)":{"encoding":"mapping","key":"t_uint256","label":"mapping(uint256 => bool)","numberOfBytes":"32","value":"t_bool"},"t_mapping(t_uint256,t_mapping(t_address,t_struct(SuperBlockCommitment)51544_storage))":{"encoding":"mapping","key":"t_uint256","label":"mapping(uint256 => mapping(address => struct MCRStorage.SuperBlockCommitment))","numberOfBytes":"32","value":"t_mapping(t_address,t_struct(SuperBlockCommitment)51544_storage)"},"t_mapping(t_uint256,t_mapping(t_address,t_uint256))":{"encoding":"mapping","key":"t_uint256","label":"mapping(uint256 => mapping(address => uint256))","numberOfBytes":"32","value":"t_mapping(t_address,t_uint256)"},"t_mapping(t_uint256,t_mapping(t_bytes32,t_uint256))":{"encoding":"mapping","key":"t_uint256","label":"mapping(uint256 => mapping(bytes32 => uint256))","numberOfBytes":"32","value":"t_mapping(t_bytes32,t_uint256)"},"t_mapping(t_uint256,t_mapping(t_uint256,t_struct(SuperBlockCommitment)51544_storage))":{"encoding":"mapping","key":"t_uint256","label":"mapping(uint256 => mapping(uint256 => struct MCRStorage.SuperBlockCommitment))","numberOfBytes":"32","value":"t_mapping(t_uint256,t_struct(SuperBlockCommitment)51544_storage)"},"t_mapping(t_uint256,t_struct(SuperBlockCommitment)51544_storage)":{"encoding":"mapping","key":"t_uint256","label":"mapping(uint256 => struct MCRStorage.SuperBlockCommitment)","numberOfBytes":"32","value":"t_struct(SuperBlockCommitment)51544_storage"},"t_mapping(t_uint256,t_uint256)":{"encoding":"mapping","key":"t_uint256","label":"mapping(uint256 => uint256)","numberOfBytes":"32","value":"t_uint256"},"t_struct(SuperBlockCommitment)51544_storage":{"encoding":"inplace","label":"struct MCRStorage.SuperBlockCommitment","numberOfBytes":"96","members":[{"astId":51539,"contract":"src/settlement/MCR.sol:MCR","label":"height","offset":0,"slot":"0","type":"t_uint256"},{"astId":51541,"contract":"src/settlement/MCR.sol:MCR","label":"commitment","offset":0,"slot":"1","type":"t_bytes32"},{"astId":51543,"contract":"src/settlement/MCR.sol:MCR","label":"blockId","offset":0,"slot":"2","type":"t_bytes32"}]},"t_uint256":{"encoding":"inplace","label":"uint256","numberOfBytes":"32"}}},"id":88}