{"abi":[{"type":"function","name":"COMMITMENT_ADMIN","inputs":[],"outputs":[{"name":"","type":"bytes32","internalType":"bytes32"}],"stateMutability":"view"},{"type":"function","name":"DEFAULT_ADMIN_ROLE","inputs":[],"outputs":[{"name":"","type":"bytes32","internalType":"bytes32"}],"stateMutability":"view"},{"type":"function","name":"TRUSTED_ATTESTER","inputs":[],"outputs":[{"name":"","type":"bytes32","internalType":"bytes32"}],"stateMutability":"view"},{"type":"function","name":"UPGRADE_INTERFACE_VERSION","inputs":[],"outputs":[{"name":"","type":"string","internalType":"string"}],"stateMutability":"view"},{"type":"function","name":"acceptGenesisCeremony","inputs":[],"outputs":[],"stateMutability":"nonpayable"},{"type":"function","name":"acceptedSuperBlocks","inputs":[{"name":"superBlockHeight","type":"uint256","internalType":"uint256"}],"outputs":[{"name":"height","type":"uint256","internalType":"uint256"},{"name":"commitment","type":"bytes32","internalType":"bytes32"},{"name":"blockId","type":"bytes32","internalType":"bytes32"}],"stateMutability":"view"},{"type":"function","name":"acceptedSuperBlocksVersion","inputs":[],"outputs":[{"name":"","type":"uint256","internalType":"uint256"}],"stateMutability":"view"},{"type":"function","name":"batchGrantCommitmentAdmin","inputs":[{"name":"accounts","type":"address[]","internalType":"address[]"}],"outputs":[],"stateMutability":"nonpayable"},{"type":"function","name":"batchGrantTrustedAttester","inputs":[{"name":"attesters","type":"address[]","internalType":"address[]"}],"outputs":[],"stateMutability":"nonpayable"},{"type":"function","name":"commitmentStakes","inputs":[{"name":"superBlockHeight","type":"uint256","internalType":"uint256"},{"name":"commitement","type":"bytes32","internalType":"bytes32"}],"outputs":[{"name":"stake","type":"uint256","internalType":"uint256"}],"stateMutability":"view"},{"type":"function","name":"commitments","inputs":[{"name":"superBlockHeight","type":"uint256","internalType":"uint256"},{"name":"attester","type":"address","internalType":"address"}],"outputs":[{"name":"height","type":"uint256","internalType":"uint256"},{"name":"commitment","type":"bytes32","internalType":"bytes32"},{"name":"blockId","type":"bytes32","internalType":"bytes32"}],"stateMutability":"view"},{"type":"function","name":"computeAllCurrentEpochStake","inputs":[{"name":"attester","type":"address","internalType":"address"}],"outputs":[{"name":"","type":"uint256","internalType":"uint256"}],"stateMutability":"view"},{"type":"function","name":"computeAllStakeAtEpoch","inputs":[{"name":"epoch","type":"uint256","internalType":"uint256"},{"name":"attester","type":"address","internalType":"address"}],"outputs":[{"name":"","type":"uint256","internalType":"uint256"}],"stateMutability":"view"},{"type":"function","name":"computeAllTotalStakeForCurrentEpoch","inputs":[],"outputs":[{"name":"","type":"uint256","internalType":"uint256"}],"stateMutability":"view"},{"type":"function","name":"computeAllTotalStakeForEpoch","inputs":[{"name":"epoch","type":"uint256","internalType":"uint256"}],"outputs":[{"name":"","type":"uint256","internalType":"uint256"}],"stateMutability":"view"},{"type":"function","name":"createSuperBlockCommitment","inputs":[{"name":"height","type":"uint256","internalType":"uint256"},{"name":"commitment","type":"bytes32","internalType":"bytes32"},{"name":"blockId","type":"bytes32","internalType":"bytes32"}],"outputs":[{"name":"","type":"tuple","internalType":"struct MCRStorage.SuperBlockCommitment","components":[{"name":"height","type":"uint256","internalType":"uint256"},{"name":"commitment","type":"bytes32","internalType":"bytes32"},{"name":"blockId","type":"bytes32","internalType":"bytes32"}]}],"stateMutability":"pure"},{"type":"function","name":"forceLatestCommitment","inputs":[{"name":"superBlockCommitment","type":"tuple","internalType":"struct MCRStorage.SuperBlockCommitment","components":[{"name":"height","type":"uint256","internalType":"uint256"},{"name":"commitment","type":"bytes32","internalType":"bytes32"},{"name":"blockId","type":"bytes32","internalType":"bytes32"}]}],"outputs":[],"stateMutability":"nonpayable"},{"type":"function","name":"getAcceptedCommitmentAtSuperBlockHeight","inputs":[{"name":"height","type":"uint256","internalType":"uint256"}],"outputs":[{"name":"","type":"tuple","internalType":"struct MCRStorage.SuperBlockCommitment","components":[{"name":"height","type":"uint256","internalType":"uint256"},{"name":"commitment","type":"bytes32","internalType":"bytes32"},{"name":"blockId","type":"bytes32","internalType":"bytes32"}]}],"stateMutability":"view"},{"type":"function","name":"getAttesters","inputs":[],"outputs":[{"name":"","type":"address[]","internalType":"address[]"}],"stateMutability":"view"},{"type":"function","name":"getCurrentEpoch","inputs":[],"outputs":[{"name":"","type":"uint256","internalType":"uint256"}],"stateMutability":"view"},{"type":"function","name":"getCurrentEpochStake","inputs":[{"name":"custodian","type":"address","internalType":"address"},{"name":"attester","type":"address","internalType":"address"}],"outputs":[{"name":"","type":"uint256","internalType":"uint256"}],"stateMutability":"view"},{"type":"function","name":"getEpochByL1BlockTime","inputs":[],"outputs":[{"name":"","type":"uint256","internalType":"uint256"}],"stateMutability":"view"},{"type":"function","name":"getMaxTolerableSuperBlockHeight","inputs":[],"outputs":[{"name":"","type":"uint256","internalType":"uint256"}],"stateMutability":"view"},{"type":"function","name":"getNextEpoch","inputs":[],"outputs":[{"name":"","type":"uint256","internalType":"uint256"}],"stateMutability":"view"},{"type":"function","name":"getRoleAdmin","inputs":[{"name":"role","type":"bytes32","internalType":"bytes32"}],"outputs":[{"name":"","type":"bytes32","internalType":"bytes32"}],"stateMutability":"view"},{"type":"function","name":"getStakeAtEpoch","inputs":[{"name":"epoch","type":"uint256","internalType":"uint256"},{"name":"custodian","type":"address","internalType":"address"},{"name":"attester","type":"address","internalType":"address"}],"outputs":[{"name":"","type":"uint256","internalType":"uint256"}],"stateMutability":"view"},{"type":"function","name":"getTotalStakeForCurrentEpoch","inputs":[{"name":"custodian","type":"address","internalType":"address"}],"outputs":[{"name":"","type":"uint256","internalType":"uint256"}],"stateMutability":"view"},{"type":"function","name":"getTotalStakeForEpoch","inputs":[{"name":"epoch","type":"uint256","internalType":"uint256"},{"name":"custodian","type":"address","internalType":"address"}],"outputs":[{"name":"","type":"uint256","internalType":"uint256"}],"stateMutability":"view"},{"type":"function","name":"getValidatorCommitmentAtSuperBlockHeight","inputs":[{"name":"height","type":"uint256","internalType":"uint256"},{"name":"attester","type":"address","internalType":"address"}],"outputs":[{"name":"","type":"tuple","internalType":"struct MCRStorage.SuperBlockCommitment","components":[{"name":"height","type":"uint256","internalType":"uint256"},{"name":"commitment","type":"bytes32","internalType":"bytes32"},{"name":"blockId","type":"bytes32","internalType":"bytes32"}]}],"stateMutability":"view"},{"type":"function","name":"grantCommitmentAdmin","inputs":[{"name":"account","type":"address","internalType":"address"}],"outputs":[],"stateMutability":"nonpayable"},{"type":"function","name":"grantRole","inputs":[{"name":"role","type":"bytes32","internalType":"bytes32"},{"name":"account","type":"address","internalType":"address"}],"outputs":[],"stateMutability":"nonpayable"},{"type":"function","name":"grantTrustedAttester","inputs":[{"name":"attester","type":"address","internalType":"address"}],"outputs":[],"stateMutability":"nonpayable"},{"type":"function","name":"hasRole","inputs":[{"name":"role","type":"bytes32","internalType":"bytes32"},{"name":"account","type":"address","internalType":"address"}],"outputs":[{"name":"","type":"bool","internalType":"bool"}],"stateMutability":"view"},{"type":"function","name":"initialize","inputs":[],"outputs":[],"stateMutability":"nonpayable"},{"type":"function","name":"initialize","inputs":[{"name":"_stakingContract","type":"address","internalType":"contract IMovementStaking"},{"name":"_lastAcceptedSuperBlockHeight","type":"uint256","internalType":"uint256"},{"name":"_leadingSuperBlockTolerance","type":"uint256","internalType":"uint256"},{"name":"_epochDuration","type":"uint256","internalType":"uint256"},{"name":"_custodians","type":"address[]","internalType":"address[]"}],"outputs":[],"stateMutability":"nonpayable"},{"type":"function","name":"lastAcceptedSuperBlockHeight","inputs":[],"outputs":[{"name":"","type":"uint256","internalType":"uint256"}],"stateMutability":"view"},{"type":"function","name":"leadingSuperBlockTolerance","inputs":[],"outputs":[{"name":"","type":"uint256","internalType":"uint256"}],"stateMutability":"view"},{"type":"function","name":"openAttestationEnabled","inputs":[],"outputs":[{"name":"","type":"bool","internalType":"bool"}],"stateMutability":"view"},{"type":"function","name":"proxiableUUID","inputs":[],"outputs":[{"name":"","type":"bytes32","internalType":"bytes32"}],"stateMutability":"view"},{"type":"function","name":"renounceRole","inputs":[{"name":"role","type":"bytes32","internalType":"bytes32"},{"name":"callerConfirmation","type":"address","internalType":"address"}],"outputs":[],"stateMutability":"nonpayable"},{"type":"function","name":"revokeRole","inputs":[{"name":"role","type":"bytes32","internalType":"bytes32"},{"name":"account","type":"address","internalType":"address"}],"outputs":[],"stateMutability":"nonpayable"},{"type":"function","name":"setAcceptedCommitmentAtBlockHeight","inputs":[{"name":"superBlockCommitment","type":"tuple","internalType":"struct MCRStorage.SuperBlockCommitment","components":[{"name":"height","type":"uint256","internalType":"uint256"},{"name":"commitment","type":"bytes32","internalType":"bytes32"},{"name":"blockId","type":"bytes32","internalType":"bytes32"}]}],"outputs":[],"stateMutability":"nonpayable"},{"type":"function","name":"setOpenAttestationEnabled","inputs":[{"name":"enabled","type":"bool","internalType":"bool"}],"outputs":[],"stateMutability":"nonpayable"},{"type":"function","name":"setlastAcceptedSuperBlockHeight","inputs":[{"name":"height","type":"uint256","internalType":"uint256"}],"outputs":[],"stateMutability":"nonpayable"},{"type":"function","name":"stakingContract","inputs":[],"outputs":[{"name":"","type":"address","internalType":"contract IMovementStaking"}],"stateMutability":"view"},{"type":"function","name":"submitBatchSuperBlockCommitment","inputs":[{"name":"superBlockCommitments","type":"tuple[]","internalType":"struct MCRStorage.SuperBlockCommitment[]","components":[{"name":"height","type":"uint256","internalType":"uint256"},{"name":"commitment","type":"bytes32","internalType":"bytes32"},{"name":"blockId","type":"bytes32","internalType":"bytes32"}]}],"outputs":[],"stateMutability":"nonpayable"},{"type":"function","name":"submitSuperBlockCommitment","inputs":[{"name":"superBlockCommitment","type":"tuple","internalType":"struct MCRStorage.SuperBlockCommitment","components":[{"name":"height","type":"uint256","internalType":"uint256"},{"name":"commitment","type":"bytes32","internalType":"bytes32"},{"name":"blockId","type":"bytes32","internalType":"bytes32"}]}],"outputs":[],"stateMutability":"nonpayable"},{"type":"function","name":"superBlockHeightEpochAssignments","inputs":[{"name":"superBlockHeight","type":"uint256","internalType":"uint256"}],"outputs":[{"name":"epoch","type":"uint256","internalType":"uint256"}],"stateMutability":"view"},{"type":"function","name":"supportsInterface","inputs":[{"name":"interfaceId","type":"bytes4","internalType":"bytes4"}],"outputs":[{"name":"","type":"bool","internalType":"bool"}],"stateMutability":"view"},{"type":"function","name":"upgradeToAndCall","inputs":[{"name":"newImplementation","type":"address","internalType":"address"},{"name":"data","type":"bytes","internalType":"bytes"}],"outputs":[],"stateMutability":"payable"},{"type":"function","name":"versionedAcceptedSuperBlocks","inputs":[{"name":"","type":"uint256","internalType":"uint256"},{"name":"superBlockHeight","type":"uint256","internalType":"uint256"}],"outputs":[{"name":"height","type":"uint256","internalType":"uint256"},{"name":"commitment","type":"bytes32","internalType":"bytes32"},{"name":"blockId","type":"bytes32","internalType":"bytes32"}],"stateMutability":"view"},{"type":"event","name":"BlockAccepted","inputs":[{"name":"blockHash","type":"bytes32","indexed":true,"internalType":"bytes32"},{"name":"stateCommitment","type":"bytes32","indexed":false,"internalType":"bytes32"},{"name":"height","type":"uint256","indexed":false,"internalType":"uint256"}],"anonymous":false},{"type":"event","name":"Initialized","inputs":[{"name":"version","type":"uint64","indexed":false,"internalType":"uint64"}],"anonymous":false},{"type":"event","name":"RoleAdminChanged","inputs":[{"name":"role","type":"bytes32","indexed":true,"internalType":"bytes32"},{"name":"previousAdminRole","type":"bytes32","indexed":true,"internalType":"bytes32"},{"name":"newAdminRole","type":"bytes32","indexed":true,"internalType":"bytes32"}],"anonymous":false},{"type":"event","name":"RoleGranted","inputs":[{"name":"role","type":"bytes32","indexed":true,"internalType":"bytes32"},{"name":"account","type":"address","indexed":true,"internalType":"address"},{"name":"sender","type":"address","indexed":true,"internalType":"address"}],"anonymous":false},{"type":"event","name":"RoleRevoked","inputs":[{"name":"role","type":"bytes32","indexed":true,"internalType":"bytes32"},{"name":"account","type":"address","indexed":true,"internalType":"address"},{"name":"sender","type":"address","indexed":true,"internalType":"address"}],"anonymous":false},{"type":"event","name":"SuperBlockCommitmentSubmitted","inputs":[{"name":"blockHash","type":"bytes32","indexed":true,"internalType":"bytes32"},{"name":"stateCommitment","type":"bytes32","indexed":false,"internalType":"bytes32"},{"name":"attesterStake","type":"uint256","indexed":false,"internalType":"uint256"}],"anonymous":false},{"type":"event","name":"Upgraded","inputs":[{"name":"implementation","type":"address","indexed":true,"internalType":"address"}],"anonymous":false},{"type":"error","name":"AccessControlBadConfirmation","inputs":[]},{"type":"error","name":"AccessControlUnauthorizedAccount","inputs":[{"name":"account","type":"address","internalType":"address"},{"name":"neededRole","type":"bytes32","internalType":"bytes32"}]},{"type":"error","name":"AddressEmptyCode","inputs":[{"name":"target","type":"address","internalType":"address"}]},{"type":"error","name":"AttesterAlreadyCommitted","inputs":[]},{"type":"error","name":"ERC1967InvalidImplementation","inputs":[{"name":"implementation","type":"address","internalType":"address"}]},{"type":"error","name":"ERC1967NonPayable","inputs":[]},{"type":"error","name":"FailedInnerCall","inputs":[]},{"type":"error","name":"InvalidInitialization","inputs":[]},{"type":"error","name":"NotInitializing","inputs":[]},{"type":"error","name":"UUPSUnauthorizedCallContext","inputs":[]},{"type":"error","name":"UUPSUnsupportedProxiableUUID","inputs":[{"name":"slot","type":"bytes32","internalType":"bytes32"}]},{"type":"error","name":"UnacceptableSuperBlockCommitment","inputs":[]}],"bytecode":{"object":"0x60a0604052306080523480156012575f80fd5b5060805161273c6100395f395f818161197c015281816119a50152611ae8015261273c5ff3fe6080604052600436106102d9575f3560e01c806380e460f011610189578063c6d0f527116100d8578063ed9ea93211610092578063efe97d051161006d578063efe97d0514610971578063f34d002a14610985578063fc2788ad146109a4578063fd6b7fc3146109da575f80fd5b8063ed9ea932146108f7578063ee99205c14610922578063ef9ae15c14610958575f80fd5b8063c6d0f527146107f1578063c6e1b9db14610836578063cf6772ad14610855578063d2526fef14610874578063d547741f14610893578063e90d4c06146108b2575f80fd5b8063949d7c2a11610143578063ad3cb1cc1161011e578063ad3cb1cc14610762578063b274a9351461079f578063b97dd9e2146107be578063bc90afbb146107d2575f80fd5b8063949d7c2a14610711578063a217fddf14610730578063a3df415f14610743575f80fd5b806380e460f0146106775780638129fc1c1461069757806381df1746146106ab57806391d14854146106ca57806392a2ebf3146106e9578063943b79e2146106fd575f80fd5b80632f2ff15d1161024557806353cd9e3c116101ff57806360fea5dd116101da57806360fea5dd146105c5578063622e3616146105e45780636542384f146106035780636ce595e114610622575f80fd5b806353cd9e3c14610509578063556d97c8146105285780635db916ab146105a5575f80fd5b80632f2ff15d1461046457806336568abe146104835780634b47d955146104a25780634ed7e435146104c15780634f1ef286146104e257806352d1902d146104f5575f80fd5b80630e74b609116102965780630e74b609146103bf5780631dfcce8c146103de5780631faea1ed146103f2578063221f748514610411578063248a9ca3146104305780632e45c8501461044f575f80fd5b806301ffc9a7146102dd578063026583d71461031157806303d3f7fd1461035257806308c7050f146103755780630b6f789b146103965780630ba6a7bc146103aa575b5f80fd5b3480156102e8575f80fd5b506102fc6102f7366004611fa5565b610a49565b60405190151581526020015b60405180910390f35b34801561031c575f80fd5b5061033061032b366004611fcc565b610a7f565b6040805182518152602080840151908201529181015190820152606001610308565b34801561035d575f80fd5b5061036760015481565b604051908152602001610308565b348015610380575f80fd5b5061039461038f36600461208f565b610ab8565b005b3480156103a1575f80fd5b50610367610b08565b3480156103b5575f80fd5b5061036760095481565b3480156103ca575f80fd5b506103946103d936600461208f565b610b78565b3480156103e9575f80fd5b50610367610bcd565b3480156103fd575f80fd5b5061036761040c3660046120bd565b610bd9565b34801561041c575f80fd5b5061039461042b3660046120fc565b610c62565b34801561043b575f80fd5b5061036761044a3660046120fc565b610cf0565b34801561045a575f80fd5b5061036760025481565b34801561046f575f80fd5b5061039461047e366004612113565b610d10565b34801561048e575f80fd5b5061039461049d366004612113565b610d32565b3480156104ad575f80fd5b506103946104bc3660046121d6565b610d6a565b3480156104cc575f80fd5b506104d5610dd7565b604051610308919061224a565b6103946104f036600461225c565b610e43565b348015610500575f80fd5b50610367610e5e565b348015610514575f80fd5b5061039461052336600461208f565b610e79565b348015610533575f80fd5b50610330610542366004612113565b60408051606080820183525f8083526020808401829052928401819052948552600482528285206001600160a01b039490941685529281529281902081519283018252805483526001810154938301939093526002909201549181019190915290565b3480156105b0575f80fd5b506103675f805160206126e783398151915281565b3480156105d0575f80fd5b506103676105df366004612301565b610f37565b3480156105ef575f80fd5b506103946105fe36600461231c565b610f49565b34801561060e575f80fd5b5061036761061d3660046120fc565b610fbe565b34801561062d575f80fd5b5061065c61063c3660046120fc565b60066020525f908152604090208054600182015460029092015490919083565b60408051938452602084019290925290820152606001610308565b348015610682575f80fd5b506103675f8051602061268783398151915281565b3480156106a2575f80fd5b50610394611077565b3480156106b6575f80fd5b506103946106c5366004612301565b611181565b3480156106d5575f80fd5b506102fc6106e4366004612113565b6111af565b3480156106f4575f80fd5b506103946111e5565b348015610708575f80fd5b5061036761129a565b34801561071c575f80fd5b5061039461072b366004612301565b6112ab565b34801561073b575f80fd5b506103675f81565b34801561074e575f80fd5b5061039461075d3660046123b6565b6112e8565b34801561076d575f80fd5b50610792604051806040016040528060058152602001640352e302e360dc1b81525081565b604051610308919061241d565b3480156107aa575f80fd5b506103676107b9366004612301565b611480565b3480156107c9575f80fd5b50610367611492565b3480156107dd575f80fd5b506103676107ec366004612452565b6114c2565b3480156107fc575f80fd5b5061065c61080b36600461247e565b600860209081525f928352604080842090915290825290208054600182015460029092015490919083565b348015610841575f80fd5b50610367610850366004612113565b6114d5565b348015610860575f80fd5b5061039461086f3660046121d6565b61154e565b34801561087f575f80fd5b5061039461088e36600461249e565b61159b565b34801561089e575f80fd5b506103946108ad366004612113565b6115c6565b3480156108bd575f80fd5b5061065c6108cc366004612113565b600460209081525f928352604080842090915290825290208054600182015460029092015490919083565b348015610902575f80fd5b506103676109113660046120fc565b60036020525f908152604090205481565b34801561092d575f80fd5b505f54610940906001600160a01b031681565b6040516001600160a01b039091168152602001610308565b348015610963575f80fd5b506007546102fc9060ff1681565b34801561097c575f80fd5b506103676115e2565b348015610990575f80fd5b5061036761099f366004612113565b611612565b3480156109af575f80fd5b506103676109be36600461247e565b600560209081525f928352604080842090915290825290205481565b3480156109e5575f80fd5b506103306109f43660046120fc565b60408051606080820183525f8083526020808401829052928401819052600954815260088352838120948152938252928290208251938401835280548452600181015491840191909152600201549082015290565b5f6001600160e01b03198216637965db0b60e01b1480610a7957506301ffc9a760e01b6001600160e01b03198316145b92915050565b60408051606080820183525f808352602080840182905292840152825190810183528581529081018490529081018290525b9392505050565b600160095f828254610aca91906124d1565b90915550506009545f908152600860209081526040808320845184528252918290208351808255918401516001820155919092015160029182015555565b5f805460405163d980b40d60e01b81523060048201526001600160a01b039091169063d980b40d906024015b602060405180830381865afa158015610b4f573d5f803e3d5ffd5b505050506040513d601f19601f82011682018060405250810190610b7391906124e4565b905090565b60075460ff1680610b9b5750610b9b5f805160206126e7833981519152336111af565b610bc05760405162461bcd60e51b8152600401610bb7906124fb565b60405180910390fd5b610bca33826116cd565b50565b5f610b7361061d611492565b5f80546040516311b2104b60e31b8152306004820152602481018690526001600160a01b038581166044830152848116606483015290911690638d90825890608401602060405180830381865afa158015610c36573d5f803e3d5ffd5b505050506040513d601f19601f82011682018060405250810190610c5a91906124e4565b949350505050565b610c795f80516020612687833981519152336111af565b610ceb5760405162461bcd60e51b815260206004820152603c60248201527f5345545f4c4153545f41434345505445445f5355504552424c4f434b5f48454960448201527f4748545f49535f434f4d4d49544d454e545f41444d494e5f4f4e4c59000000006064820152608401610bb7565b600255565b5f9081525f805160206126c7833981519152602052604090206001015490565b610d1982610cf0565b610d228161184d565b610d2c8383611857565b50505050565b6001600160a01b0381163314610d5b5760405163334bd91960e11b815260040160405180910390fd5b610d6582826118f8565b505050565b610d745f336111af565b610d905760405162461bcd60e51b8152600401610bb79061253d565b5f5b8151811015610dd357610dcb5f80516020612687833981519152838381518110610dbe57610dbe61257f565b6020026020010151610d10565b600101610d92565b5050565b5f54604051632924b73b60e01b81523060048201526060916001600160a01b031690632924b73b906024015f60405180830381865afa158015610e1c573d5f803e3d5ffd5b505050506040513d5f823e601f3d908101601f19168201604052610b739190810190612593565b610e4b611971565b610e5482611a17565b610dd38282611a21565b5f610e67611add565b505f805160206126a783398151915290565b610e905f80516020612687833981519152336111af565b610f025760405162461bcd60e51b815260206004820152603f60248201527f5345545f4c4153545f41434345505445445f434f4d4d49544d454e545f41545f60448201527f4845494748545f49535f434f4d4d49544d454e545f41444d494e5f4f4e4c59006064820152608401610bb7565b6009545f9081526008602090815260408083208451845282529182902083518155908301516001820155910151600290910155565b5f610a79610f43611492565b83611612565b60075460ff1680610f6c5750610f6c5f805160206126e7833981519152336111af565b610f885760405162461bcd60e51b8152600401610bb7906124fb565b5f5b8151811015610dd357610fb633838381518110610fa957610fa961257f565b60200260200101516116cd565b600101610f8a565b5f8054604051636ae501ef60e11b815230600482015282916001600160a01b03169063d5ca03de906024015f60405180830381865afa158015611003573d5f803e3d5ffd5b505050506040513d5f823e601f3d908101601f1916820160405261102a9190810190612593565b90505f805b825181101561106f5761105b8584838151811061104e5761104e61257f565b60200260200101516114d5565b61106590836124d1565b915060010161102f565b509392505050565b7ff0c57e16840df040f15088dc2f81fe391c3923bec73e23a9662efc9c229c6a008054600160401b810460ff1615906001600160401b03165f811580156110bb5750825b90505f826001600160401b031660011480156110d65750303b155b9050811580156110e4575080155b156111025760405163f92ee8a960e01b815260040160405180910390fd5b845467ffffffffffffffff19166001178555831561112c57845460ff60401b1916600160401b1785555b611134611b26565b831561117a57845460ff60401b19168555604051600181527fc7f505b2f371ae2175ee4913f4499e1f2633a7b5936321eed1cdaeb6115181d29060200160405180910390a15b5050505050565b5f805160206126878339815191526111988161184d565b610dd35f805160206126e783398151915283610d10565b5f9182525f805160206126c7833981519152602090815260408084206001600160a01b0393909316845291905290205460ff1690565b6111ef5f336111af565b6112495760405162461bcd60e51b815260206004820152602560248201527f4143434550545f47454e455349535f434552454d4f4e595f49535f41444d494e6044820152645f4f4e4c5960d81b6064820152608401610bb7565b5f8054604080516392a2ebf360e01b815290516001600160a01b03909216926392a2ebf39260048084019382900301818387803b158015611288575f80fd5b505af1158015610d2c573d5f803e3d5ffd5b5f600154600254610b7391906124d1565b6112b55f336111af565b6112d15760405162461bcd60e51b8152600401610bb79061253d565b610bca5f8051602061268783398151915282610d10565b7ff0c57e16840df040f15088dc2f81fe391c3923bec73e23a9662efc9c229c6a008054600160401b810460ff1615906001600160401b03165f8115801561132c5750825b90505f826001600160401b031660011480156113475750303b155b905081158015611355575080155b156113735760405163f92ee8a960e01b815260040160405180910390fd5b845467ffffffffffffffff19166001178555831561139d57845460ff60401b1916600160401b1785555b6113a5611b32565b5f80546001600160a01b0319166001600160a01b038c16908117909155600189905560028a9055604051631a6e609f60e31b815263d37304f8906113ef908a908a90600401612622565b5f604051808303815f87803b158015611406575f80fd5b505af1158015611418573d5f803e3d5ffd5b50505050611425336112ab565b61142e33611181565b831561147457845460ff60401b19168555604051600181527fc7f505b2f371ae2175ee4913f4499e1f2633a7b5936321eed1cdaeb6115181d29060200160405180910390a15b50505050505050505050565b5f610a7961148c611492565b836114d5565b5f8054604051634d3223a560e01b81523060048201526001600160a01b0390911690634d3223a590602401610b34565b5f610ab16114ce611492565b8484610bd9565b5f8054604051635cdf315560e01b8152306004820152602481018590526001600160a01b03848116604483015290911690635cdf315590606401602060405180830381865afa15801561152a573d5f803e3d5ffd5b505050506040513d601f19601f82011682018060405250810190610ab191906124e4565b5f805160206126878339815191526115658161184d565b5f5b8251811015610d65576115935f805160206126e7833981519152848381518110610dbe57610dbe61257f565b600101611567565b5f805160206126878339815191526115b28161184d565b506007805460ff1916911515919091179055565b6115cf82610cf0565b6115d88161184d565b610d2c83836118f8565b5f805460405163010913cb60e71b81523060048201526001600160a01b0390911690638489e58090602401610b34565b5f8054604051636ae501ef60e11b815230600482015282916001600160a01b03169063d5ca03de906024015f60405180830381865afa158015611657573d5f803e3d5ffd5b505050506040513d5f823e601f3d908101601f1916820160405261167e9190810190612593565b90505f805b82518110156116c4576116b0868483815181106116a2576116a261257f565b602002602001015187610bd9565b6116ba90836124d1565b9150600101611683565b50949350505050565b80515f9081526004602090815260408083206001600160a01b03861684529091529020541561170f57604051630ae09ad960e41b815260040160405180910390fd5b805160015460025461172191906124d1565b101561174057604051630ae09ad960e41b815260040160405180910390fd5b80515f90815260036020526040812054900361176f5761175e610b08565b81515f908152600360205260409020555b80515f9081526004602090815260408083206001600160a01b03861684528252808320845181559184015160018301558301516002909101556117b183610f37565b82515f9081526005602090815260408083208287015184529091528120805492935083929091906117e39084906124d1565b9091555050604080830151602080850151835190815290810184905290917fa8445a6b8a16633ad62fbc0954848ec55c4d5323d90b9745dbda4121ec5ce12b910160405180910390a25b611844600254600161183f91906124d1565b611b44565b61182d57505050565b610bca8133611c52565b5f5f805160206126c783398151915261187084846111af565b6118ef575f848152602082815260408083206001600160a01b03871684529091529020805460ff191660011790556118a53390565b6001600160a01b0316836001600160a01b0316857f2f8788117e7eff1d82e926ec794901d17c78024a50270940304540a733656f0d60405160405180910390a46001915050610a79565b5f915050610a79565b5f5f805160206126c783398151915261191184846111af565b156118ef575f848152602082815260408083206001600160a01b0387168085529252808320805460ff1916905551339287917ff6391f5c32d9c69d2a47ea670b442974b53935d1edc7fd64eb21e047a839171b9190a46001915050610a79565b306001600160a01b037f00000000000000000000000000000000000000000000000000000000000000001614806119f757507f00000000000000000000000000000000000000000000000000000000000000006001600160a01b03166119eb5f805160206126a7833981519152546001600160a01b031690565b6001600160a01b031614155b15611a155760405163703e46dd60e11b815260040160405180910390fd5b565b5f610dd38161184d565b816001600160a01b03166352d1902d6040518163ffffffff1660e01b8152600401602060405180830381865afa925050508015611a7b575060408051601f3d908101601f19168201909252611a78918101906124e4565b60015b611aa357604051634c9c8ce360e01b81526001600160a01b0383166004820152602401610bb7565b5f805160206126a78339815191528114611ad357604051632a87526960e21b815260048101829052602401610bb7565b610d658383611c8b565b306001600160a01b037f00000000000000000000000000000000000000000000000000000000000000001614611a155760405163703e46dd60e11b815260040160405180910390fd5b611b2e611ce0565b611a155b611b3a611ce0565b610bca5f33611857565b5f818152600360205260408120545b80611b5c611492565b1015611b6f57611b6a611d29565b611b53565b5f6003611b7b83610fbe565b611b8690600261263a565b611b909190612651565b90505f611b9b610dd7565b90505f5b8151811015611c47575f828281518110611bbb57611bbb61257f565b6020908102919091018101515f8981526004835260408082206001600160a01b038416835284528082208151606081018352815480825260018301548288019081526002909301548285015284526005865282842091518452945290205490925085811115611c3c57611c2d82611d68565b50600198975050505050505050565b505050600101611b9f565b505f95945050505050565b611c5c82826111af565b610dd35760405163e2517d3f60e01b81526001600160a01b038216600482015260248101839052604401610bb7565b611c9482611e2c565b6040516001600160a01b038316907fbc7cd75a20ee27fd9adebab32041f755214dbc6bffa90cc0225b39da2e5c2d3b905f90a2805115611cd857610d658282611e8f565b610dd3611f01565b7ff0c57e16840df040f15088dc2f81fe391c3923bec73e23a9662efc9c229c6a0054600160401b900460ff16611a1557604051631afcd79f60e31b815260040160405180910390fd5b5f805460408051632a21edc760e21b815290516001600160a01b039092169263a887b71c9260048084019382900301818387803b158015611288575f80fd5b5f611d71611492565b82515f908152600360205260409020549091508114611da357604051631f2d18b160e31b815260040160405180910390fd5b6009545f908152600860209081526040808320855184528252918290208451808255858301516001830181905586850151600293840181905592829055845190815292830152917f5b0d1f14085ff88796df21c2944d34c115838925a7bee30850fcacaaf902a379910160405180910390a280611e1e610b08565b1115610dd357610dd3611d29565b806001600160a01b03163b5f03611e6157604051634c9c8ce360e01b81526001600160a01b0382166004820152602401610bb7565b5f805160206126a783398151915280546001600160a01b0319166001600160a01b0392909216919091179055565b60605f80846001600160a01b031684604051611eab9190612670565b5f60405180830381855af49150503d805f8114611ee3576040519150601f19603f3d011682016040523d82523d5f602084013e611ee8565b606091505b5091509150611ef8858383611f20565b95945050505050565b3415611a155760405163b398979f60e01b815260040160405180910390fd5b606082611f3557611f3082611f7c565b610ab1565b8151158015611f4c57506001600160a01b0384163b155b15611f7557604051639996b31560e01b81526001600160a01b0385166004820152602401610bb7565b5080610ab1565b805115611f8c5780518082602001fd5b604051630a12f52160e11b815260040160405180910390fd5b5f60208284031215611fb5575f80fd5b81356001600160e01b031981168114610ab1575f80fd5b5f805f60608486031215611fde575f80fd5b505081359360208301359350604090920135919050565b634e487b7160e01b5f52604160045260245ffd5b604051601f8201601f191681016001600160401b038111828210171561203157612031611ff5565b604052919050565b5f60608284031215612049575f80fd5b604051606081016001600160401b038111828210171561206b5761206b611ff5565b60409081528335825260208085013590830152928301359281019290925250919050565b5f6060828403121561209f575f80fd5b610ab18383612039565b6001600160a01b0381168114610bca575f80fd5b5f805f606084860312156120cf575f80fd5b8335925060208401356120e1816120a9565b915060408401356120f1816120a9565b809150509250925092565b5f6020828403121561210c575f80fd5b5035919050565b5f8060408385031215612124575f80fd5b823591506020830135612136816120a9565b809150509250929050565b5f6001600160401b0382111561215957612159611ff5565b5060051b60200190565b5f82601f830112612172575f80fd5b813561218561218082612141565b612009565b8082825260208201915060208360051b8601019250858311156121a6575f80fd5b602085015b838110156121cc5780356121be816120a9565b8352602092830192016121ab565b5095945050505050565b5f602082840312156121e6575f80fd5b81356001600160401b038111156121fb575f80fd5b610c5a84828501612163565b5f8151808452602084019350602083015f5b828110156122405781516001600160a01b0316865260209586019590910190600101612219565b5093949350505050565b602081525f610ab16020830184612207565b5f806040838503121561226d575f80fd5b8235612278816120a9565b915060208301356001600160401b03811115612292575f80fd5b8301601f810185136122a2575f80fd5b80356001600160401b038111156122bb576122bb611ff5565b6122ce601f8201601f1916602001612009565b8181528660208385010111156122e2575f80fd5b816020840160208301375f602083830101528093505050509250929050565b5f60208284031215612311575f80fd5b8135610ab1816120a9565b5f6020828403121561232c575f80fd5b81356001600160401b03811115612341575f80fd5b8201601f81018413612351575f80fd5b803561235f61218082612141565b80828252602082019150602060608402850101925086831115612380575f80fd5b6020840193505b828410156123ac576123998785612039565b8252602082019150606084019350612387565b9695505050505050565b5f805f805f60a086880312156123ca575f80fd5b85356123d5816120a9565b945060208601359350604086013592506060860135915060808601356001600160401b03811115612404575f80fd5b61241088828901612163565b9150509295509295909350565b602081525f82518060208401528060208501604085015e5f604082850101526040601f19601f83011684010191505092915050565b5f8060408385031215612463575f80fd5b823561246e816120a9565b91506020830135612136816120a9565b5f806040838503121561248f575f80fd5b50508035926020909101359150565b5f602082840312156124ae575f80fd5b81358015158114610ab1575f80fd5b634e487b7160e01b5f52601160045260245ffd5b80820180821115610a7957610a796124bd565b5f602082840312156124f4575f80fd5b5051919050565b60208082526022908201527f554e415554484f52495a45445f5355504552424c4f434b5f434f4d4d49544d45604082015261139560f21b606082015260800190565b60208082526022908201527f4144445f434f4d4d49544d454e545f41444d494e5f49535f41444d494e5f4f4e6040820152614c5960f01b606082015260800190565b634e487b7160e01b5f52603260045260245ffd5b5f602082840312156125a3575f80fd5b81516001600160401b038111156125b8575f80fd5b8201601f810184136125c8575f80fd5b80516125d661218082612141565b8082825260208201915060208360051b8501019250868311156125f7575f80fd5b6020840193505b828410156123ac578351612611816120a9565b8252602093840193909101906125fe565b828152604060208201525f610c5a6040830184612207565b8082028115828204841417610a7957610a796124bd565b5f8261266b57634e487b7160e01b5f52601260045260245ffd5b500490565b5f82518060208501845e5f92019182525091905056fedb2bf73e90d393604e56f0a2a54fed3fbd75332bf39c5ea0704b3b6973a3463c360894a13ba1a3210667c828492db98dca3e2076cc3735a920a3ca505d382bbc02dd7bc7dec4dceedda775e58dd541e08a116c6c53815c0bd028192f7b626800981fe5f60e354ed88ff0544e367c13a4d3342da7c82eb6627f804b747e046e18a2646970667358221220ed07850b701d9741358fe8cdeab1850802e782fc3dd725779efa603cc592068964736f6c634300081a0033","linkReferences":{}},"methodIdentifiers":{"COMMITMENT_ADMIN()":"80e460f0","DEFAULT_ADMIN_ROLE()":"a217fddf","TRUSTED_ATTESTER()":"5db916ab","UPGRADE_INTERFACE_VERSION()":"ad3cb1cc","acceptGenesisCeremony()":"92a2ebf3","acceptedSuperBlocks(uint256)":"6ce595e1","acceptedSuperBlocksVersion()":"0ba6a7bc","batchGrantCommitmentAdmin(address[])":"4b47d955","batchGrantTrustedAttester(address[])":"cf6772ad","commitmentStakes(uint256,bytes32)":"fc2788ad","commitments(uint256,address)":"e90d4c06","computeAllCurrentEpochStake(address)":"60fea5dd","computeAllStakeAtEpoch(uint256,address)":"f34d002a","computeAllTotalStakeForCurrentEpoch()":"1dfcce8c","computeAllTotalStakeForEpoch(uint256)":"6542384f","createSuperBlockCommitment(uint256,bytes32,bytes32)":"026583d7","forceLatestCommitment((uint256,bytes32,bytes32))":"08c7050f","getAcceptedCommitmentAtSuperBlockHeight(uint256)":"fd6b7fc3","getAttesters()":"4ed7e435","getCurrentEpoch()":"b97dd9e2","getCurrentEpochStake(address,address)":"bc90afbb","getEpochByL1BlockTime()":"0b6f789b","getMaxTolerableSuperBlockHeight()":"943b79e2","getNextEpoch()":"efe97d05","getRoleAdmin(bytes32)":"248a9ca3","getStakeAtEpoch(uint256,address,address)":"1faea1ed","getTotalStakeForCurrentEpoch(address)":"b274a935","getTotalStakeForEpoch(uint256,address)":"c6e1b9db","getValidatorCommitmentAtSuperBlockHeight(uint256,address)":"556d97c8","grantCommitmentAdmin(address)":"949d7c2a","grantRole(bytes32,address)":"2f2ff15d","grantTrustedAttester(address)":"81df1746","hasRole(bytes32,address)":"91d14854","initialize()":"8129fc1c","initialize(address,uint256,uint256,uint256,address[])":"a3df415f","lastAcceptedSuperBlockHeight()":"2e45c850","leadingSuperBlockTolerance()":"03d3f7fd","openAttestationEnabled()":"ef9ae15c","proxiableUUID()":"52d1902d","renounceRole(bytes32,address)":"36568abe","revokeRole(bytes32,address)":"d547741f","setAcceptedCommitmentAtBlockHeight((uint256,bytes32,bytes32))":"53cd9e3c","setOpenAttestationEnabled(bool)":"d2526fef","setlastAcceptedSuperBlockHeight(uint256)":"221f7485","stakingContract()":"ee99205c","submitBatchSuperBlockCommitment((uint256,bytes32,bytes32)[])":"622e3616","submitSuperBlockCommitment((uint256,bytes32,bytes32))":"0e74b609","superBlockHeightEpochAssignments(uint256)":"ed9ea932","supportsInterface(bytes4)":"01ffc9a7","upgradeToAndCall(address,bytes)":"4f1ef286","versionedAcceptedSuperBlocks(uint256,uint256)":"c6d0f527"},"storageLayout":{"storage":[{"astId":54948,"contract":"src/settlement/MCR.sol:MCR","label":"stakingContract","offset":0,"slot":"0","type":"t_contract(IMovementStaking)56723"},{"astId":54950,"contract":"src/settlement/MCR.sol:MCR","label":"leadingSuperBlockTolerance","offset":0,"slot":"1","type":"t_uint256"},{"astId":54952,"contract":"src/settlement/MCR.sol:MCR","label":"lastAcceptedSuperBlockHeight","offset":0,"slot":"2","type":"t_uint256"},{"astId":54963,"contract":"src/settlement/MCR.sol:MCR","label":"superBlockHeightEpochAssignments","offset":0,"slot":"3","type":"t_mapping(t_uint256,t_uint256)"},{"astId":54970,"contract":"src/settlement/MCR.sol:MCR","label":"commitments","offset":0,"slot":"4","type":"t_mapping(t_uint256,t_mapping(t_address,t_struct(SuperBlockCommitment)54959_storage))"},{"astId":54976,"contract":"src/settlement/MCR.sol:MCR","label":"commitmentStakes","offset":0,"slot":"5","type":"t_mapping(t_uint256,t_mapping(t_bytes32,t_uint256))"},{"astId":54981,"contract":"src/settlement/MCR.sol:MCR","label":"acceptedSuperBlocks","offset":0,"slot":"6","type":"t_mapping(t_uint256,t_struct(SuperBlockCommitment)54959_storage)"},{"astId":54983,"contract":"src/settlement/MCR.sol:MCR","label":"openAttestationEnabled","offset":0,"slot":"7","type":"t_bool"},{"astId":54990,"contract":"src/settlement/MCR.sol:MCR","label":"versionedAcceptedSuperBlocks","offset":0,"slot":"8","type":"t_mapping(t_uint256,t_mapping(t_uint256,t_struct(SuperBlockCommitment)54959_storage))"},{"astId":54992,"contract":"src/settlement/MCR.sol:MCR","label":"acceptedSuperBlocksVersion","offset":0,"slot":"9","type":"t_uint256"},{"astId":54996,"contract":"src/settlement/MCR.sol:MCR","label":"__gap","offset":0,"slot":"10","type":"t_array(t_uint256)47_storage"}],"types":{"t_address":{"encoding":"inplace","label":"address","numberOfBytes":"20"},"t_array(t_uint256)47_storage":{"encoding":"inplace","label":"uint256[47]","numberOfBytes":"1504","base":"t_uint256"},"t_bool":{"encoding":"inplace","label":"bool","numberOfBytes":"1"},"t_bytes32":{"encoding":"inplace","label":"bytes32","numberOfBytes":"32"},"t_contract(IMovementStaking)56723":{"encoding":"inplace","label":"contract IMovementStaking","numberOfBytes":"20"},"t_mapping(t_address,t_struct(SuperBlockCommitment)54959_storage)":{"encoding":"mapping","key":"t_address","label":"mapping(address => struct MCRStorage.SuperBlockCommitment)","numberOfBytes":"32","value":"t_struct(SuperBlockCommitment)54959_storage"},"t_mapping(t_bytes32,t_uint256)":{"encoding":"mapping","key":"t_bytes32","label":"mapping(bytes32 => uint256)","numberOfBytes":"32","value":"t_uint256"},"t_mapping(t_uint256,t_mapping(t_address,t_struct(SuperBlockCommitment)54959_storage))":{"encoding":"mapping","key":"t_uint256","label":"mapping(uint256 => mapping(address => struct MCRStorage.SuperBlockCommitment))","numberOfBytes":"32","value":"t_mapping(t_address,t_struct(SuperBlockCommitment)54959_storage)"},"t_mapping(t_uint256,t_mapping(t_bytes32,t_uint256))":{"encoding":"mapping","key":"t_uint256","label":"mapping(uint256 => mapping(bytes32 => uint256))","numberOfBytes":"32","value":"t_mapping(t_bytes32,t_uint256)"},"t_mapping(t_uint256,t_mapping(t_uint256,t_struct(SuperBlockCommitment)54959_storage))":{"encoding":"mapping","key":"t_uint256","label":"mapping(uint256 => mapping(uint256 => struct MCRStorage.SuperBlockCommitment))","numberOfBytes":"32","value":"t_mapping(t_uint256,t_struct(SuperBlockCommitment)54959_storage)"},"t_mapping(t_uint256,t_struct(SuperBlockCommitment)54959_storage)":{"encoding":"mapping","key":"t_uint256","label":"mapping(uint256 => struct MCRStorage.SuperBlockCommitment)","numberOfBytes":"32","value":"t_struct(SuperBlockCommitment)54959_storage"},"t_mapping(t_uint256,t_uint256)":{"encoding":"mapping","key":"t_uint256","label":"mapping(uint256 => uint256)","numberOfBytes":"32","value":"t_uint256"},"t_struct(SuperBlockCommitment)54959_storage":{"encoding":"inplace","label":"struct MCRStorage.SuperBlockCommitment","numberOfBytes":"96","members":[{"astId":54954,"contract":"src/settlement/MCR.sol:MCR","label":"height","offset":0,"slot":"0","type":"t_uint256"},{"astId":54956,"contract":"src/settlement/MCR.sol:MCR","label":"commitment","offset":0,"slot":"1","type":"t_bytes32"},{"astId":54958,"contract":"src/settlement/MCR.sol:MCR","label":"blockId","offset":0,"slot":"2","type":"t_bytes32"}]},"t_uint256":{"encoding":"inplace","label":"uint256","numberOfBytes":"32"}}},"id":105}