{"abi":[{"type":"constructor","inputs":[{"name":"epochDurationSecs","type":"uint256","internalType":"uint256"},{"name":"_leadingBlockTolerance","type":"uint256","internalType":"uint256"},{"name":"_genesisStakeRequired","type":"uint256","internalType":"uint256"},{"name":"_lastAcceptedBlockHeight","type":"uint256","internalType":"uint256"}],"stateMutability":"nonpayable"},{"type":"function","name":"acceptedBlocks","inputs":[{"name":"","type":"uint256","internalType":"uint256"}],"outputs":[{"name":"height","type":"uint256","internalType":"uint256"},{"name":"commitment","type":"bytes32","internalType":"bytes32"},{"name":"blockId","type":"bytes32","internalType":"bytes32"}],"stateMutability":"view"},{"type":"function","name":"blockHeightEpochAssignments","inputs":[{"name":"","type":"uint256","internalType":"uint256"}],"outputs":[{"name":"","type":"uint256","internalType":"uint256"}],"stateMutability":"view"},{"type":"function","name":"commitmentStakes","inputs":[{"name":"","type":"uint256","internalType":"uint256"},{"name":"","type":"bytes32","internalType":"bytes32"}],"outputs":[{"name":"","type":"uint256","internalType":"uint256"}],"stateMutability":"view"},{"type":"function","name":"commitments","inputs":[{"name":"","type":"uint256","internalType":"uint256"},{"name":"","type":"address","internalType":"address"}],"outputs":[{"name":"height","type":"uint256","internalType":"uint256"},{"name":"commitment","type":"bytes32","internalType":"bytes32"},{"name":"blockId","type":"bytes32","internalType":"bytes32"}],"stateMutability":"view"},{"type":"function","name":"createBlockCommitment","inputs":[{"name":"height","type":"uint256","internalType":"uint256"},{"name":"commitment","type":"bytes32","internalType":"bytes32"},{"name":"blockId","type":"bytes32","internalType":"bytes32"}],"outputs":[{"name":"","type":"tuple","internalType":"struct MCRLegacy.BlockCommitment","components":[{"name":"height","type":"uint256","internalType":"uint256"},{"name":"commitment","type":"bytes32","internalType":"bytes32"},{"name":"blockId","type":"bytes32","internalType":"bytes32"}]}],"stateMutability":"pure"},{"type":"function","name":"currentEpoch","inputs":[],"outputs":[{"name":"","type":"uint256","internalType":"uint256"}],"stateMutability":"view"},{"type":"function","name":"epochDuration","inputs":[],"outputs":[{"name":"","type":"uint256","internalType":"uint256"}],"stateMutability":"view"},{"type":"function","name":"epochStakes","inputs":[{"name":"","type":"uint256","internalType":"uint256"},{"name":"","type":"address","internalType":"address"}],"outputs":[{"name":"","type":"uint256","internalType":"uint256"}],"stateMutability":"view"},{"type":"function","name":"epochUnstakes","inputs":[{"name":"","type":"uint256","internalType":"uint256"},{"name":"","type":"address","internalType":"address"}],"outputs":[{"name":"","type":"uint256","internalType":"uint256"}],"stateMutability":"view"},{"type":"function","name":"genesisStakeAccumulated","inputs":[],"outputs":[{"name":"","type":"uint256","internalType":"uint256"}],"stateMutability":"view"},{"type":"function","name":"genesisStakeRequired","inputs":[],"outputs":[{"name":"","type":"uint256","internalType":"uint256"}],"stateMutability":"view"},{"type":"function","name":"getAcceptedCommitmentAtBlockHeight","inputs":[{"name":"blockHeight","type":"uint256","internalType":"uint256"}],"outputs":[{"name":"","type":"tuple","internalType":"struct MCRLegacy.BlockCommitment","components":[{"name":"height","type":"uint256","internalType":"uint256"},{"name":"commitment","type":"bytes32","internalType":"bytes32"},{"name":"blockId","type":"bytes32","internalType":"bytes32"}]}],"stateMutability":"view"},{"type":"function","name":"getCurrentEpoch","inputs":[],"outputs":[{"name":"","type":"uint256","internalType":"uint256"}],"stateMutability":"view"},{"type":"function","name":"getCurrentEpochStake","inputs":[{"name":"validatorAddress","type":"address","internalType":"address"}],"outputs":[{"name":"","type":"uint256","internalType":"uint256"}],"stateMutability":"view"},{"type":"function","name":"getCurrentEpochUnstake","inputs":[{"name":"validatorAddress","type":"address","internalType":"address"}],"outputs":[{"name":"","type":"uint256","internalType":"uint256"}],"stateMutability":"view"},{"type":"function","name":"getEpochByBlockTime","inputs":[],"outputs":[{"name":"","type":"uint256","internalType":"uint256"}],"stateMutability":"view"},{"type":"function","name":"getEpochDuration","inputs":[],"outputs":[{"name":"","type":"uint256","internalType":"uint256"}],"stateMutability":"view"},{"type":"function","name":"getGenesisStakeAccumulated","inputs":[],"outputs":[{"name":"","type":"uint256","internalType":"uint256"}],"stateMutability":"view"},{"type":"function","name":"getGenesisStakeRequired","inputs":[],"outputs":[{"name":"","type":"uint256","internalType":"uint256"}],"stateMutability":"view"},{"type":"function","name":"getLeadingBlockTolerance","inputs":[],"outputs":[{"name":"","type":"uint256","internalType":"uint256"}],"stateMutability":"view"},{"type":"function","name":"getMaxTolerableBlockHeight","inputs":[],"outputs":[{"name":"","type":"uint256","internalType":"uint256"}],"stateMutability":"view"},{"type":"function","name":"getNextEpoch","inputs":[],"outputs":[{"name":"","type":"uint256","internalType":"uint256"}],"stateMutability":"view"},{"type":"function","name":"getStakeAtEpoch","inputs":[{"name":"validatorAddress","type":"address","internalType":"address"},{"name":"epoch","type":"uint256","internalType":"uint256"}],"outputs":[{"name":"","type":"uint256","internalType":"uint256"}],"stateMutability":"view"},{"type":"function","name":"getTotalStakeForCurrentEpoch","inputs":[],"outputs":[{"name":"","type":"uint256","internalType":"uint256"}],"stateMutability":"view"},{"type":"function","name":"getTotalStakeForEpoch","inputs":[{"name":"epoch","type":"uint256","internalType":"uint256"}],"outputs":[{"name":"","type":"uint256","internalType":"uint256"}],"stateMutability":"view"},{"type":"function","name":"getUnstakeAtEpoch","inputs":[{"name":"validatorAddress","type":"address","internalType":"address"},{"name":"epoch","type":"uint256","internalType":"uint256"}],"outputs":[{"name":"","type":"uint256","internalType":"uint256"}],"stateMutability":"view"},{"type":"function","name":"getValidatorCommitmentAtBlockHeight","inputs":[{"name":"blockHeight","type":"uint256","internalType":"uint256"},{"name":"validatorAddress","type":"address","internalType":"address"}],"outputs":[{"name":"","type":"tuple","internalType":"struct MCRLegacy.BlockCommitment","components":[{"name":"height","type":"uint256","internalType":"uint256"},{"name":"commitment","type":"bytes32","internalType":"bytes32"},{"name":"blockId","type":"bytes32","internalType":"bytes32"}]}],"stateMutability":"view"},{"type":"function","name":"hasGenesisCeremonyEnded","inputs":[],"outputs":[{"name":"","type":"bool","internalType":"bool"}],"stateMutability":"view"},{"type":"function","name":"lastAcceptedBlockHeight","inputs":[],"outputs":[{"name":"","type":"uint256","internalType":"uint256"}],"stateMutability":"view"},{"type":"function","name":"leadingBlockTolerance","inputs":[],"outputs":[{"name":"","type":"uint256","internalType":"uint256"}],"stateMutability":"view"},{"type":"function","name":"stake","inputs":[],"outputs":[],"stateMutability":"payable"},{"type":"function","name":"stakeGenesis","inputs":[],"outputs":[],"stateMutability":"payable"},{"type":"function","name":"submitBatchBlockCommitment","inputs":[{"name":"blockCommitments","type":"tuple[]","internalType":"struct MCRLegacy.BlockCommitment[]","components":[{"name":"height","type":"uint256","internalType":"uint256"},{"name":"commitment","type":"bytes32","internalType":"bytes32"},{"name":"blockId","type":"bytes32","internalType":"bytes32"}]}],"outputs":[],"stateMutability":"nonpayable"},{"type":"function","name":"submitBlockCommitment","inputs":[{"name":"blockCommitment","type":"tuple","internalType":"struct MCRLegacy.BlockCommitment","components":[{"name":"height","type":"uint256","internalType":"uint256"},{"name":"commitment","type":"bytes32","internalType":"bytes32"},{"name":"blockId","type":"bytes32","internalType":"bytes32"}]}],"outputs":[],"stateMutability":"nonpayable"},{"type":"function","name":"unstake","inputs":[{"name":"amount","type":"uint256","internalType":"uint256"}],"outputs":[],"stateMutability":"nonpayable"},{"type":"event","name":"BlockAccepted","inputs":[{"name":"blockHash","type":"bytes32","indexed":true,"internalType":"bytes32"},{"name":"stateCommitment","type":"bytes32","indexed":false,"internalType":"bytes32"},{"name":"height","type":"uint256","indexed":false,"internalType":"uint256"}],"anonymous":false},{"type":"event","name":"BlockCommitmentSubmitted","inputs":[{"name":"blockHash","type":"bytes32","indexed":true,"internalType":"bytes32"},{"name":"stateCommitment","type":"bytes32","indexed":false,"internalType":"bytes32"},{"name":"validatorStake","type":"uint256","indexed":false,"internalType":"uint256"}],"anonymous":false},{"type":"event","name":"ValidatorStaked","inputs":[{"name":"validator","type":"address","indexed":true,"internalType":"address"},{"name":"stake","type":"uint256","indexed":false,"internalType":"uint256"},{"name":"epoch","type":"uint256","indexed":false,"internalType":"uint256"}],"anonymous":false},{"type":"event","name":"ValidatorUnstaked","inputs":[{"name":"validator","type":"address","indexed":true,"internalType":"address"},{"name":"stake","type":"uint256","indexed":false,"internalType":"uint256"},{"name":"epoch","type":"uint256","indexed":false,"internalType":"uint256"}],"anonymous":false}],"bytecode":{"object":"0x6080604052348015600f57600080fd5b50604051611607380380611607833981016040819052602c916047565b6002939093556003919091556000908155600155600455607c565b60008060008060808587031215605c57600080fd5b505082516020840151604085015160609095015191969095509092509050565b61157c8061008b6000396000f3fe6080604052600436106102045760003560e01c80636b588ac711610118578063e1ffa44c116100a0578063ee96da051161006f578063ee96da0514610661578063efe97d05146106af578063f89fe60b146106c4578063f934ed75146106e4578063fc2788ad1461070757600080fd5b8063e1ffa44c1461058a578063e6a386e4146105f0578063e90d4c0614610605578063ee377d901461064c57600080fd5b806384df6455116100e757806384df6455146104bb578063b97dd9e2146104fd578063c76c27bf14610512578063ce2a96b41461054a578063e1b2b2221461056a57600080fd5b80636b588ac71461046557806372710d181461047b57806374e8e5641461049057806376671808146104a557600080fd5b806320e0e4451161019b5780633a4b66f11161016a5780633a4b66f1146103fd57806342e0aeb2146104055780634ff0876a1461041a5780635d3ea8f11461043057806367d144ab1461044557600080fd5b806320e0e445146103915780632a3fa95c146103be5780632e17de78146103d3578063365f490b146103f557600080fd5b8063108cf69b116101d7578063108cf69b146102cc57806311fe3345146103045780631c4e4e27146103245780631cfa25161461037b57600080fd5b8063048317c814610209578063056f4aa6146102325780630a0b81cc146102485780630dd563661461028a575b600080fd5b34801561021557600080fd5b5061021f60005481565b6040519081526020015b60405180910390f35b34801561023e57600080fd5b5061021f60015481565b34801561025457600080fd5b50610268610263366004611274565b61073f565b6040805182518152602080840151908201529181015190820152606001610229565b34801561029657600080fd5b5061021f6102a53660046112a0565b60009081526008602090815260408083206001600160a01b03949094168352929052205490565b3480156102d857600080fd5b5061021f6102e7366004611274565b600860209081526000928352604080842090915290825290205481565b34801561031057600080fd5b5061021f61031f3660046112ca565b6107a3565b34801561033057600080fd5b5061036061033f3660046112e5565b600d6020526000908152604090208054600182015460029092015490919083565b60408051938452602084019290925290820152606001610229565b34801561038757600080fd5b5061021f60035481565b34801561039d57600080fd5b5061021f6103ac3660046112e5565b600a6020526000908152604090205481565b3480156103ca57600080fd5b5060035461021f565b3480156103df57600080fd5b506103f36103ee3660046112e5565b6107b2565b005b6103f3610914565b6103f3610abe565b34801561041157600080fd5b5060005461021f565b34801561042657600080fd5b5061021f60025481565b34801561043c57600080fd5b5060025461021f565b34801561045157600080fd5b5061021f6104603660046112ca565b610bb6565b34801561047157600080fd5b5061021f60045481565b34801561048757600080fd5b5061021f610bc5565b34801561049c57600080fd5b5061021f610bd8565b3480156104b157600080fd5b5061021f60055481565b3480156104c757600080fd5b5061021f6104d63660046112a0565b60009081526009602090815260408083206001600160a01b03949094168352929052205490565b34801561050957600080fd5b5060055461021f565b34801561051e57600080fd5b5061021f61052d366004611274565b600960209081526000928352604080842090915290825290205481565b34801561055657600080fd5b5061021f6105653660046112e5565b610bea565b34801561057657600080fd5b506103f36105853660046113a1565b610c50565b34801561059657600080fd5b506102686105a53660046112e5565b604080516060808201835260008083526020808401829052928401819052938452600d8252928290208251938401835280548452600181015491840191909152600201549082015290565b3480156105fc57600080fd5b5060015461021f565b34801561061157600080fd5b50610360610620366004611274565b600b60209081526000928352604080842090915290825290208054600182015460029092015490919083565b34801561065857600080fd5b5061021f610c8a565b34801561066d57600080fd5b5061026861067c366004611451565b60408051606080820183526000808352602080840182905292840152825190810183529485528401929092529082015290565b3480156106bb57600080fd5b5061021f610c9a565b3480156106d057600080fd5b506103f36106df36600461147d565b610cab565b3480156106f057600080fd5b506000546001546040519111158152602001610229565b34801561071357600080fd5b5061021f610722366004611499565b600c60209081526000928352604080842090915290825290205481565b604080516060808201835260008083526020808401829052928401819052858152600b83528381206001600160a01b038616825283528390208351918201845280548252600181015492820192909252600290910154918101919091525b92915050565b600061079d826102a560055490565b600054600154101561080b5760405162461bcd60e51b815260206004820152601f60248201527f47656e6573697320636572656d6f6e7920686173206e6f7420656e6465642e0060448201526064015b60405180910390fd5b806008600061081960055490565b815260208082019290925260409081016000908120338252909252902054101561087b5760405162461bcd60e51b815260206004820152601360248201527224b739bab33334b1b4b2b73a1039ba30b5b29760691b6044820152606401610802565b8060096000610888610c9a565b81526020019081526020016000206000336001600160a01b03166001600160a01b0316815260200190815260200160002060008282546108c891906114d1565b909155503390507f04fba62a80e1849b9aee6f029587f10dc735742856c310f041883b34f4107ab9826108f9610c9a565b6040805192835260208301919091520160405180910390a250565b600054600154106109675760405162461bcd60e51b815260206004820152601b60248201527f47656e6573697320636572656d6f6e792068617320656e6465642e00000000006044820152606401610802565b610972600633610cb5565b503360009081527f5eff886ea0ce6ca488a3d6e336d6c0f75f46d19b42c06ce5ee98e42c96d256c76020526040812080543492906109b19084906114d1565b9250508190555034600160008282546109ca91906114d1565b9091555050604080513481526000602082015233917f7df7881b496facd9ed493d6f1b0fc5092ad3a605083889c92e64ef36602dbb6a910160405180910390a260005460015410610abc57610a1d610c8a565b60055560005b610a2d6006610cd1565b811015610aba576000610a41600683610cdb565b6001600160a01b03811660009081527f5eff886ea0ce6ca488a3d6e336d6c0f75f46d19b42c06ce5ee98e42c96d256c76020526040812054919250600890610a8860055490565b8152602080820192909252604090810160009081206001600160a01b0390951681529390915290912055600101610a23565b505b565b6000546001541015610b125760405162461bcd60e51b815260206004820152601f60248201527f47656e6573697320636572656d6f6e7920686173206e6f7420656e6465642e006044820152606401610802565b610b1d600633610cb5565b503460086000610b2b610c9a565b81526020019081526020016000206000336001600160a01b03166001600160a01b031681526020019081526020016000206000828254610b6b91906114d1565b909155503390507f7df7881b496facd9ed493d6f1b0fc5092ad3a605083889c92e64ef36602dbb6a34610b9c610c9a565b6040805192835260208301919091520160405180910390a2565b600061079d826104d660055490565b6000610bd361056560055490565b905090565b6000600354600454610bd391906114d1565b600080805b610bf96006610cd1565b811015610c4957610c35610c0e600683610cdb565b60008681526008602090815260408083206001600160a01b03949094168352929052205490565b610c3f90836114d1565b9150600101610bef565b5092915050565b60005b8151811015610c8657610c7e828281518110610c7157610c716114e4565b6020026020010151610cab565b600101610c53565b5050565b600060025442610bd391906114fa565b60006005546001610bd391906114d1565b610aba3382610ce7565b6000610cca836001600160a01b038416610ee1565b9392505050565b600061079d825490565b6000610cca8383610f30565b80516000908152600b602090815260408083206001600160a01b038616845290915290205415610d7f5760405162461bcd60e51b815260206004820152603960248201527f56616c696461746f722068617320616c726561647920636f6d6d69747465642060448201527f746f206120626c6f636b206174207468697320686569676874000000000000006064820152608401610802565b600354600454610d8f91906114d1565b815110610e185760405162461bcd60e51b815260206004820152604b60248201527f56616c696461746f722068617320636f6d6d697474656420746f206120626c6f60448201527f636b20746f6f20666172206168656164206f6620746865206c6173742061636360648201526a657074656420626c6f636b60a81b608482015260a401610802565b80516000908152600a60205260408120549003610e4957610e37610c8a565b81516000908152600a60205260409020555b80516000908152600b602090815260408083206001600160a01b03861684528252918290208351815590830151600182015590820151600290910155610e8e826107a3565b81516000908152600c6020908152604080832082860151845290915281208054909190610ebc9084906114d1565b90915550505b610ed96004546001610ed491906114d1565b610f5a565b610ec2575050565b6000818152600183016020526040812054610f285750815460018181018455600084815260208082209093018490558454848252828601909352604090209190915561079d565b50600061079d565b6000826000018281548110610f4757610f476114e4565b9060005260206000200154905092915050565b6000818152600a60205260408120545b80610f7460055490565b1015610f9057610f8b610f8660055490565b61105f565b610f6a565b60005b610f9d6006610cd1565b811015611055576000610fb1600683610cdb565b6000868152600b602090815260408083206001600160a01b03851684528252808320815160608101835281548082526001830154828601908152600290930154828501528552600c84528285209151855292529091205491925090600361101786610bea565b61102290600261151c565b61102c91906114fa565b81111561104a5761103d82866110b1565b5060019695505050505050565b505050600101610f93565b5060009392505050565b60005b61106c6006610cd1565b811015611095576000611080600683610cdb565b905061108c8184611133565b50600101611062565b506001600560008282546110a991906114d1565b909155505050565b81516000908152600d6020908152604091829020845180825582860151600183018190558487015160029093018390556004829055845190815292830152917f5b0d1f14085ff88796df21c2944d34c115838925a7bee30850fcacaaf902a379910160405180910390a280611124610c8a565b1115610c8657610c868161105f565b600960006111428360016114d1565b8152602080820192909252604090810160009081206001600160a01b0386168083529084528282205485835260088552838320918352935220546111869190611533565b600860006111958460016114d1565b81526020019081526020016000206000846001600160a01b03166001600160a01b0316815260200190815260200160002060008282546111d591906114d1565b90915550506001600160a01b0382166108fc600960006111f68560016114d1565b81526020019081526020016000206000856001600160a01b03166001600160a01b03168152602001908152602001600020549081150290604051600060405180830381858888f19350505050158015611253573d6000803e3d6000fd5b505050565b80356001600160a01b038116811461126f57600080fd5b919050565b6000806040838503121561128757600080fd5b8235915061129760208401611258565b90509250929050565b600080604083850312156112b357600080fd5b6112bc83611258565b946020939093013593505050565b6000602082840312156112dc57600080fd5b610cca82611258565b6000602082840312156112f757600080fd5b5035919050565b634e487b7160e01b600052604160045260246000fd5b604051601f8201601f1916810167ffffffffffffffff8111828210171561133d5761133d6112fe565b604052919050565b60006060828403121561135757600080fd5b6040516060810181811067ffffffffffffffff8211171561137a5761137a6112fe565b80604052508091508235815260208301356020820152604083013560408201525092915050565b600060208083850312156113b457600080fd5b823567ffffffffffffffff808211156113cc57600080fd5b818501915085601f8301126113e057600080fd5b8135818111156113f2576113f26112fe565b611400848260051b01611314565b8181528481019250606091820284018501918883111561141f57600080fd5b938501935b82851015611445576114368986611345565b84529384019392850192611424565b50979650505050505050565b60008060006060848603121561146657600080fd5b505081359360208301359350604090920135919050565b60006060828403121561148f57600080fd5b610cca8383611345565b600080604083850312156114ac57600080fd5b50508035926020909101359150565b634e487b7160e01b600052601160045260246000fd5b8082018082111561079d5761079d6114bb565b634e487b7160e01b600052603260045260246000fd5b60008261151757634e487b7160e01b600052601260045260246000fd5b500490565b808202811582820484141761079d5761079d6114bb565b8181038181111561079d5761079d6114bb56fea2646970667358221220c9542e0185c9b0ec6eb1d431d6380d142087b991f911e0e830486ae7143e052a64736f6c63430008190033","linkReferences":{}},"methodIdentifiers":{"acceptedBlocks(uint256)":"1c4e4e27","blockHeightEpochAssignments(uint256)":"20e0e445","commitmentStakes(uint256,bytes32)":"fc2788ad","commitments(uint256,address)":"e90d4c06","createBlockCommitment(uint256,bytes32,bytes32)":"ee96da05","currentEpoch()":"76671808","epochDuration()":"4ff0876a","epochStakes(uint256,address)":"108cf69b","epochUnstakes(uint256,address)":"c76c27bf","genesisStakeAccumulated()":"056f4aa6","genesisStakeRequired()":"048317c8","getAcceptedCommitmentAtBlockHeight(uint256)":"e1ffa44c","getCurrentEpoch()":"b97dd9e2","getCurrentEpochStake(address)":"11fe3345","getCurrentEpochUnstake(address)":"67d144ab","getEpochByBlockTime()":"ee377d90","getEpochDuration()":"5d3ea8f1","getGenesisStakeAccumulated()":"e6a386e4","getGenesisStakeRequired()":"42e0aeb2","getLeadingBlockTolerance()":"2a3fa95c","getMaxTolerableBlockHeight()":"74e8e564","getNextEpoch()":"efe97d05","getStakeAtEpoch(address,uint256)":"0dd56366","getTotalStakeForCurrentEpoch()":"72710d18","getTotalStakeForEpoch(uint256)":"ce2a96b4","getUnstakeAtEpoch(address,uint256)":"84df6455","getValidatorCommitmentAtBlockHeight(uint256,address)":"0a0b81cc","hasGenesisCeremonyEnded()":"f934ed75","lastAcceptedBlockHeight()":"6b588ac7","leadingBlockTolerance()":"1cfa2516","stake()":"3a4b66f1","stakeGenesis()":"365f490b","submitBatchBlockCommitment((uint256,bytes32,bytes32)[])":"e1b2b222","submitBlockCommitment((uint256,bytes32,bytes32))":"f89fe60b","unstake(uint256)":"2e17de78"},"id":26}