{"abi":[{"type":"function","name":"DEFAULT_ADMIN_ROLE","inputs":[],"outputs":[{"name":"","type":"bytes32","internalType":"bytes32"}],"stateMutability":"view"},{"type":"function","name":"UPGRADE_INTERFACE_VERSION","inputs":[],"outputs":[{"name":"","type":"string","internalType":"string"}],"stateMutability":"view"},{"type":"function","name":"WHITELIST_ROLE","inputs":[],"outputs":[{"name":"","type":"bytes32","internalType":"bytes32"}],"stateMutability":"view"},{"type":"function","name":"acceptGenesisCeremony","inputs":[],"outputs":[],"stateMutability":"nonpayable"},{"type":"function","name":"currentEpochByDomain","inputs":[{"name":"domain","type":"address","internalType":"address"}],"outputs":[{"name":"currentEpoch","type":"uint256","internalType":"uint256"}],"stateMutability":"view"},{"type":"function","name":"domainGenesisAccepted","inputs":[{"name":"domain","type":"address","internalType":"address"}],"outputs":[{"name":"","type":"bool","internalType":"bool"}],"stateMutability":"view"},{"type":"function","name":"epochDurationByDomain","inputs":[{"name":"domain","type":"address","internalType":"address"}],"outputs":[{"name":"epochDuration","type":"uint256","internalType":"uint256"}],"stateMutability":"view"},{"type":"function","name":"epochStakesByDomain","inputs":[{"name":"domain","type":"address","internalType":"address"},{"name":"epoch","type":"uint256","internalType":"uint256"},{"name":"custodian","type":"address","internalType":"address"},{"name":"attester","type":"address","internalType":"address"}],"outputs":[{"name":"stake","type":"uint256","internalType":"uint256"}],"stateMutability":"view"},{"type":"function","name":"epochTotalStakeByDomain","inputs":[{"name":"domain","type":"address","internalType":"address"},{"name":"epoch","type":"uint256","internalType":"uint256"},{"name":"attester","type":"address","internalType":"address"}],"outputs":[{"name":"stake","type":"uint256","internalType":"uint256"}],"stateMutability":"view"},{"type":"function","name":"epochUnstakesByDomain","inputs":[{"name":"domain","type":"address","internalType":"address"},{"name":"epoch","type":"uint256","internalType":"uint256"},{"name":"custodian","type":"address","internalType":"address"},{"name":"attester","type":"address","internalType":"address"}],"outputs":[{"name":"stake","type":"uint256","internalType":"uint256"}],"stateMutability":"view"},{"type":"function","name":"getAttestersByDomain","inputs":[{"name":"domain","type":"address","internalType":"address"}],"outputs":[{"name":"","type":"address[]","internalType":"address[]"}],"stateMutability":"view"},{"type":"function","name":"getCurrentEpoch","inputs":[{"name":"domain","type":"address","internalType":"address"}],"outputs":[{"name":"","type":"uint256","internalType":"uint256"}],"stateMutability":"view"},{"type":"function","name":"getCurrentEpochStake","inputs":[{"name":"domain","type":"address","internalType":"address"},{"name":"custodian","type":"address","internalType":"address"},{"name":"attester","type":"address","internalType":"address"}],"outputs":[{"name":"","type":"uint256","internalType":"uint256"}],"stateMutability":"view"},{"type":"function","name":"getCurrentEpochUnstake","inputs":[{"name":"domain","type":"address","internalType":"address"},{"name":"custodian","type":"address","internalType":"address"},{"name":"attester","type":"address","internalType":"address"}],"outputs":[{"name":"","type":"uint256","internalType":"uint256"}],"stateMutability":"view"},{"type":"function","name":"getCustodiansByDomain","inputs":[{"name":"domain","type":"address","internalType":"address"}],"outputs":[{"name":"","type":"address[]","internalType":"address[]"}],"stateMutability":"view"},{"type":"function","name":"getEpochByBlockTime","inputs":[{"name":"domain","type":"address","internalType":"address"}],"outputs":[{"name":"","type":"uint256","internalType":"uint256"}],"stateMutability":"view"},{"type":"function","name":"getNextEpoch","inputs":[{"name":"domain","type":"address","internalType":"address"}],"outputs":[{"name":"","type":"uint256","internalType":"uint256"}],"stateMutability":"view"},{"type":"function","name":"getNextEpochByBlockTime","inputs":[{"name":"domain","type":"address","internalType":"address"}],"outputs":[{"name":"","type":"uint256","internalType":"uint256"}],"stateMutability":"view"},{"type":"function","name":"getRoleAdmin","inputs":[{"name":"role","type":"bytes32","internalType":"bytes32"}],"outputs":[{"name":"","type":"bytes32","internalType":"bytes32"}],"stateMutability":"view"},{"type":"function","name":"getStakeAtEpoch","inputs":[{"name":"domain","type":"address","internalType":"address"},{"name":"epoch","type":"uint256","internalType":"uint256"},{"name":"custodian","type":"address","internalType":"address"},{"name":"attester","type":"address","internalType":"address"}],"outputs":[{"name":"","type":"uint256","internalType":"uint256"}],"stateMutability":"view"},{"type":"function","name":"getTotalStakeForCurrentEpoch","inputs":[{"name":"domain","type":"address","internalType":"address"},{"name":"custodian","type":"address","internalType":"address"}],"outputs":[{"name":"","type":"uint256","internalType":"uint256"}],"stateMutability":"view"},{"type":"function","name":"getTotalStakeForEpoch","inputs":[{"name":"domain","type":"address","internalType":"address"},{"name":"epoch","type":"uint256","internalType":"uint256"},{"name":"custodian","type":"address","internalType":"address"}],"outputs":[{"name":"","type":"uint256","internalType":"uint256"}],"stateMutability":"view"},{"type":"function","name":"getUnstakeAtEpoch","inputs":[{"name":"domain","type":"address","internalType":"address"},{"name":"epoch","type":"uint256","internalType":"uint256"},{"name":"custodian","type":"address","internalType":"address"},{"name":"attester","type":"address","internalType":"address"}],"outputs":[{"name":"","type":"uint256","internalType":"uint256"}],"stateMutability":"view"},{"type":"function","name":"grantRole","inputs":[{"name":"role","type":"bytes32","internalType":"bytes32"},{"name":"account","type":"address","internalType":"address"}],"outputs":[],"stateMutability":"nonpayable"},{"type":"function","name":"hasRole","inputs":[{"name":"role","type":"bytes32","internalType":"bytes32"},{"name":"account","type":"address","internalType":"address"}],"outputs":[{"name":"","type":"bool","internalType":"bool"}],"stateMutability":"view"},{"type":"function","name":"initialize","inputs":[],"outputs":[],"stateMutability":"nonpayable"},{"type":"function","name":"initialize","inputs":[{"name":"_token","type":"address","internalType":"contract IERC20"}],"outputs":[],"stateMutability":"nonpayable"},{"type":"function","name":"proxiableUUID","inputs":[],"outputs":[{"name":"","type":"bytes32","internalType":"bytes32"}],"stateMutability":"view"},{"type":"function","name":"registerDomain","inputs":[{"name":"epochDuration","type":"uint256","internalType":"uint256"},{"name":"custodians","type":"address[]","internalType":"address[]"}],"outputs":[],"stateMutability":"nonpayable"},{"type":"function","name":"removeAddressFromWhitelist","inputs":[{"name":"addr","type":"address","internalType":"address"}],"outputs":[],"stateMutability":"nonpayable"},{"type":"function","name":"renounceRole","inputs":[{"name":"role","type":"bytes32","internalType":"bytes32"},{"name":"callerConfirmation","type":"address","internalType":"address"}],"outputs":[],"stateMutability":"nonpayable"},{"type":"function","name":"revokeRole","inputs":[{"name":"role","type":"bytes32","internalType":"bytes32"},{"name":"account","type":"address","internalType":"address"}],"outputs":[],"stateMutability":"nonpayable"},{"type":"function","name":"reward","inputs":[{"name":"attesters","type":"address[]","internalType":"address[]"},{"name":"amounts","type":"uint256[]","internalType":"uint256[]"},{"name":"custodians","type":"address[]","internalType":"address[]"}],"outputs":[],"stateMutability":"nonpayable"},{"type":"function","name":"rollOverEpoch","inputs":[],"outputs":[],"stateMutability":"nonpayable"},{"type":"function","name":"setGenesisCeremony","inputs":[{"name":"custodians","type":"address[]","internalType":"address[]"},{"name":"attesters","type":"address[]","internalType":"address[]"},{"name":"stakes","type":"uint256[]","internalType":"uint256[]"}],"outputs":[],"stateMutability":"nonpayable"},{"type":"function","name":"slash","inputs":[{"name":"custodians","type":"address[]","internalType":"address[]"},{"name":"attesters","type":"address[]","internalType":"address[]"},{"name":"amounts","type":"uint256[]","internalType":"uint256[]"},{"name":"refundAmounts","type":"uint256[]","internalType":"uint256[]"}],"outputs":[],"stateMutability":"nonpayable"},{"type":"function","name":"stake","inputs":[{"name":"domain","type":"address","internalType":"address"},{"name":"custodian","type":"address","internalType":"contract IERC20"},{"name":"amount","type":"uint256","internalType":"uint256"}],"outputs":[],"stateMutability":"nonpayable"},{"type":"function","name":"supportsInterface","inputs":[{"name":"interfaceId","type":"bytes4","internalType":"bytes4"}],"outputs":[{"name":"","type":"bool","internalType":"bool"}],"stateMutability":"view"},{"type":"function","name":"token","inputs":[],"outputs":[{"name":"","type":"address","internalType":"contract IERC20"}],"stateMutability":"view"},{"type":"function","name":"unstake","inputs":[{"name":"domain","type":"address","internalType":"address"},{"name":"custodian","type":"address","internalType":"address"},{"name":"amount","type":"uint256","internalType":"uint256"}],"outputs":[],"stateMutability":"nonpayable"},{"type":"function","name":"upgradeToAndCall","inputs":[{"name":"newImplementation","type":"address","internalType":"address"},{"name":"data","type":"bytes","internalType":"bytes"}],"outputs":[],"stateMutability":"payable"},{"type":"function","name":"whitelistAddress","inputs":[{"name":"addr","type":"address","internalType":"address"}],"outputs":[],"stateMutability":"nonpayable"},{"type":"event","name":"AttesterEpochRolledOver","inputs":[{"name":"attester","type":"address","indexed":true,"internalType":"address"},{"name":"epoch","type":"uint256","indexed":true,"internalType":"uint256"},{"name":"custodian","type":"address","indexed":true,"internalType":"address"},{"name":"stake","type":"uint256","indexed":false,"internalType":"uint256"},{"name":"unstake","type":"uint256","indexed":false,"internalType":"uint256"}],"anonymous":false},{"type":"event","name":"AttesterStaked","inputs":[{"name":"domain","type":"address","indexed":true,"internalType":"address"},{"name":"epoch","type":"uint256","indexed":true,"internalType":"uint256"},{"name":"custodian","type":"address","indexed":true,"internalType":"address"},{"name":"attester","type":"address","indexed":false,"internalType":"address"},{"name":"stake","type":"uint256","indexed":false,"internalType":"uint256"}],"anonymous":false},{"type":"event","name":"AttesterUnstaked","inputs":[{"name":"domain","type":"address","indexed":true,"internalType":"address"},{"name":"epoch","type":"uint256","indexed":true,"internalType":"uint256"},{"name":"custodian","type":"address","indexed":true,"internalType":"address"},{"name":"attester","type":"address","indexed":false,"internalType":"address"},{"name":"stake","type":"uint256","indexed":false,"internalType":"uint256"}],"anonymous":false},{"type":"event","name":"EpochRolledOver","inputs":[{"name":"domain","type":"address","indexed":true,"internalType":"address"},{"name":"epoch","type":"uint256","indexed":false,"internalType":"uint256"}],"anonymous":false},{"type":"event","name":"Initialized","inputs":[{"name":"version","type":"uint64","indexed":false,"internalType":"uint64"}],"anonymous":false},{"type":"event","name":"RoleAdminChanged","inputs":[{"name":"role","type":"bytes32","indexed":true,"internalType":"bytes32"},{"name":"previousAdminRole","type":"bytes32","indexed":true,"internalType":"bytes32"},{"name":"newAdminRole","type":"bytes32","indexed":true,"internalType":"bytes32"}],"anonymous":false},{"type":"event","name":"RoleGranted","inputs":[{"name":"role","type":"bytes32","indexed":true,"internalType":"bytes32"},{"name":"account","type":"address","indexed":true,"internalType":"address"},{"name":"sender","type":"address","indexed":true,"internalType":"address"}],"anonymous":false},{"type":"event","name":"RoleRevoked","inputs":[{"name":"role","type":"bytes32","indexed":true,"internalType":"bytes32"},{"name":"account","type":"address","indexed":true,"internalType":"address"},{"name":"sender","type":"address","indexed":true,"internalType":"address"}],"anonymous":false},{"type":"event","name":"Upgraded","inputs":[{"name":"implementation","type":"address","indexed":true,"internalType":"address"}],"anonymous":false},{"type":"error","name":"AccessControlBadConfirmation","inputs":[]},{"type":"error","name":"AccessControlUnauthorizedAccount","inputs":[{"name":"account","type":"address","internalType":"address"},{"name":"neededRole","type":"bytes32","internalType":"bytes32"}]},{"type":"error","name":"AddressEmptyCode","inputs":[{"name":"target","type":"address","internalType":"address"}]},{"type":"error","name":"CustodianTransferAmountMismatch","inputs":[]},{"type":"error","name":"ERC1967InvalidImplementation","inputs":[{"name":"implementation","type":"address","internalType":"address"}]},{"type":"error","name":"ERC1967NonPayable","inputs":[]},{"type":"error","name":"FailedInnerCall","inputs":[]},{"type":"error","name":"GenesisAlreadyAccepted","inputs":[]},{"type":"error","name":"InvalidInitialization","inputs":[]},{"type":"error","name":"NotInitializing","inputs":[]},{"type":"error","name":"StakeExceedsGenesisStake","inputs":[]},{"type":"error","name":"UUPSUnauthorizedCallContext","inputs":[]},{"type":"error","name":"UUPSUnsupportedProxiableUUID","inputs":[{"name":"slot","type":"bytes32","internalType":"bytes32"}]}],"bytecode":{"object":"0x60a0604052306080523480156012575f80fd5b50608051612b386100395f395f81816119f701528181611a200152611b660152612b385ff3fe608060405260043610610249575f3560e01c80638129fc1c11610134578063bf6eac2f116100b3578063d37304f811610078578063d37304f814610773578063d547741f14610792578063d5ca03de146107b1578063da33ee7f146107d0578063fc0c546a146107ef578063ff62787c14610825575f80fd5b8063bf6eac2f146106a3578063c0b95ab8146106c2578063c3471ff814610707578063c4d66de814610726578063d1ba90ff14610745575f80fd5b806392a2ebf3116100f957806392a2ebf31461060c578063a217fddf14610620578063a885c97514610633578063a887b71c14610652578063ad3cb1cc14610666575f80fd5b80638129fc1c1461057c5780638489e58014610590578063879b938b146105af5780638d908258146105ce57806391d14854146105ed575f80fd5b806344198e4d116101cb5780635cdf3155116101905780635cdf31551461046e57806360829f8a146104ba57806365f1ea20146104d9578063702243601461051e5780637667b76d1461053d5780637a997ab71461055c575f80fd5b806344198e4d146103cd5780634d3223a5146103ec5780634f1ef2861461040b57806352d1902d1461041e57806354300d7a14610432575f80fd5b80632c7785a8116102115780632c7785a8146103265780632f2ff15d1461034557806336568abe146103645780633bccf6351461038357806341566585146103ae575f80fd5b806301ffc9a71461024d5780630a0b1b6414610281578063248a9ca3146102ba578063286dd3f5146102d95780632924b73b146102fa575b5f80fd5b348015610258575f80fd5b5061026c6102673660046124cd565b610844565b60405190151581526020015b60405180910390f35b34801561028c575f80fd5b506102ac61029b366004612508565b60026020525f908152604090205481565b604051908152602001610278565b3480156102c5575f80fd5b506102ac6102d4366004612523565b61087a565b3480156102e4575f80fd5b506102f86102f3366004612508565b61089a565b005b348015610305575f80fd5b50610319610314366004612508565b6108bf565b604051610278919061253a565b348015610331575f80fd5b506102ac610340366004612508565b6109a9565b348015610350575f80fd5b506102f861035f366004612585565b6109d8565b34801561036f575f80fd5b506102f861037e366004612585565b6109fa565b34801561038e575f80fd5b506102ac61039d366004612508565b60016020525f908152604090205481565b3480156103b9575f80fd5b506102f86103c8366004612508565b610a32565b3480156103d8575f80fd5b506102ac6103e73660046125b3565b610a53565b3480156103f7575f80fd5b506102ac610406366004612508565b610a9b565b6102f86104193660046125f3565b610ab5565b348015610429575f80fd5b506102ac610ad0565b34801561043d575f80fd5b506102ac61044c3660046126b6565b600760209081525f938452604080852082529284528284209052825290205481565b348015610479575f80fd5b506102ac6104883660046126b6565b6001600160a01b039283165f908152600760209081526040808320948352938152838220929094168152925290205490565b3480156104c5575f80fd5b506102f86104d43660046126f5565b610aeb565b3480156104e4575f80fd5b506102ac6104f3366004612733565b600660209081525f948552604080862082529385528385208152918452828420909152825290205481565b348015610529575f80fd5b506102ac610538366004612783565b610b74565b348015610548575f80fd5b506102ac610557366004612783565b610b91565b348015610567575f80fd5b506102ac5f80516020612aa383398151915281565b348015610587575f80fd5b506102f8610ba6565b34801561059b575f80fd5b506102ac6105aa366004612508565b610cb0565b3480156105ba575f80fd5b506102ac6105c9366004612733565b610cc8565b3480156105d9575f80fd5b506102ac6105e8366004612733565b610d05565b3480156105f8575f80fd5b5061026c610607366004612585565b610d42565b348015610617575f80fd5b506102f8610d78565b34801561062b575f80fd5b506102ac5f81565b34801561063e575f80fd5b506102f861064d366004612807565b610ebc565b34801561065d575f80fd5b506102f86110cc565b348015610671575f80fd5b50610696604051806040016040528060058152602001640352e302e360dc1b81525081565b60405161027891906128d1565b3480156106ae575f80fd5b506102f86106bd3660046126f5565b6110e0565b3480156106cd575f80fd5b506102ac6106dc366004612733565b600560209081525f948552604080862082529385528385208152918452828420909152825290205481565b348015610712575f80fd5b506102ac610721366004612508565b6112ff565b348015610731575f80fd5b506102f8610740366004612508565b611321565b348015610750575f80fd5b5061026c61075f366004612508565b60086020525f908152604090205460ff1681565b34801561077e575f80fd5b506102f861078d366004612906565b611446565b34801561079d575f80fd5b506102f86107ac366004612585565b6114b0565b3480156107bc575f80fd5b506103196107cb366004612508565b6114cc565b3480156107db575f80fd5b506102f86107ea36600461294d565b6115af565b3480156107fa575f80fd5b505f5461080d906001600160a01b031681565b6040516001600160a01b039091168152602001610278565b348015610830575f80fd5b506102f861083f36600461294d565b61163a565b5f6001600160e01b03198216637965db0b60e01b148061087457506301ffc9a760e01b6001600160e01b03198316145b92915050565b5f9081525f80516020612ae3833981519152602052604090206001015490565b5f6108a4816118b1565b6108bb5f80516020612aa3833981519152836114b0565b5050565b6001600160a01b0381165f908152600360205260408120606091906108e3906118be565b6001600160401b038111156108fa576108fa6125df565b604051908082528060200260200182016040528015610923578160200160208202803683370190505b5090505f5b6001600160a01b0384165f908152600360205260409020610948906118be565b8110156109a2576001600160a01b0384165f90815260036020526040902061097090826118c7565b828281518110610982576109826129e9565b6001600160a01b0390921660209283029190910190910152600101610928565b5092915050565b5f6109b382610a9b565b156109d1576109c1826112ff565b6109cc906001612a11565b610874565b5f92915050565b6109e18261087a565b6109ea816118b1565b6109f483836118d2565b50505050565b6001600160a01b0381163314610a235760405163334bd91960e11b815260040160405180910390fd5b610a2d8282611973565b505050565b5f610a3c816118b1565b6108bb5f80516020612aa3833981519152836109d8565b5f610a9483610a6185610a9b565b846001600160a01b039283165f908152600760209081526040808320948352938152838220929094168152925290205490565b9392505050565b6001600160a01b03165f9081526002602052604090205490565b610abd6119ec565b610ac682611a90565b6108bb8282611a9a565b5f610ad9611b5b565b505f80516020612ac383398151915290565b5f80516020612aa3833981519152610b02816118b1565b610b1784610b0f866109a9565b853386611ba4565b826001600160a01b0316610b2a85610cb0565b60408051338152602081018690526001600160a01b038816917fd41c64546a5c34c283150998874c7ee0412c8954f57aef484c681f6e137827df910160405180910390a450505050565b5f610b8984610b8286610a9b565b8585610d05565b949350505050565b5f610b8984610b9f86610a9b565b8585610cc8565b7ff0c57e16840df040f15088dc2f81fe391c3923bec73e23a9662efc9c229c6a008054600160401b810460ff1615906001600160401b03165f81158015610bea5750825b90505f826001600160401b03166001148015610c055750303b155b905081158015610c13575080155b15610c315760405163f92ee8a960e01b815260040160405180910390fd5b845467ffffffffffffffff191660011785558315610c5b57845460ff60401b1916600160401b1785555b610c63611bf8565b8315610ca957845460ff60401b19168555604051600181527fc7f505b2f371ae2175ee4913f4499e1f2633a7b5936321eed1cdaeb6115181d29060200160405180910390a15b5050505050565b5f610cba82610a9b565b156109d1576109c182610a9b565b6001600160a01b039384165f9081526006602090815260408083209583529481528482209386168252928352838120919094168452905290205490565b6001600160a01b039384165f9081526005602090815260408083209583529481528482209386168252928352838120919094168452905290205490565b5f9182525f80516020612ae3833981519152602090815260408084206001600160a01b0393909316845291905290205460ff1690565b335f8181526008602052604090205460ff1615610da75760405162fe178760e01b815260040160405180910390fd5b6001600160a01b0381165f908152600860205260409020805460ff19166001179055610dd2816112ff565b6001600160a01b0382165f908152600260205260408120919091555b6001600160a01b0382165f908152600360205260409020610e0e906118be565b8110156108bb576001600160a01b0382165f908152600360205260408120610e3690836118c7565b90505f5b6001600160a01b0384165f908152600460205260409020610e5a906118be565b811015610eb2576001600160a01b0384165f908152600460205260408120610e8290836118c7565b90505f610e91865f8487610d05565b9050610ea886610ea088610a9b565b848785611c08565b5050600101610e3a565b5050600101610dee565b5f5b858110156110c1575f610f85610f4633610ef88b8b87818110610ee357610ee36129e9565b90506020020160208101906104069190612508565b8d8d87818110610f0a57610f0a6129e9565b9050602002016020810190610f1f9190612508565b8c8c88818110610f3157610f316129e9565b90506020020160208101906105e89190612508565b610f80888886818110610f5b57610f5b6129e9565b90506020020135878787818110610f7457610f746129e9565b90506020020135611c93565b611c93565b9050610fdf30898985818110610f9d57610f9d6129e9565b9050602002016020810190610fb29190612508565b8c8c86818110610fc457610fc46129e9565b9050602002016020810190610fd99190612508565b84611ca8565b61105833610fec33610a9b565b8c8c86818110610ffe57610ffe6129e9565b90506020020160208101906110139190612508565b8b8b87818110611025576110256129e9565b905060200201602081019061103a9190612508565b8a8a8881811061104c5761104c6129e9565b90506020020135611ed1565b6110b83361106533610a9b565b8c8c86818110611077576110776129e9565b905060200201602081019061108c9190612508565b8b8b8781811061109e5761109e6129e9565b90506020020160208101906110b39190612508565b611f08565b50600101610ebe565b505050505050505050565b6110de336110d933610a9b565b611f7a565b565b5f80516020612aa38339815191526110f7816118b1565b6001600160a01b0384165f9081526003602052604090206111189033612097565b505f80546040516370a0823160e01b81523060048201526001600160a01b03909116906370a0823190602401602060405180830381865afa15801561115f573d5f803e3d5ffd5b505050506040513d601f19601f820116820180604052508101906111839190612a24565b6040516323b872dd60e01b8152336004820152306024820152604481018590529091506001600160a01b038516906323b872dd906064016020604051808303815f875af11580156111d6573d5f803e3d5ffd5b505050506040513d601f19601f820116820180604052508101906111fa9190612a3b565b506112058382612a11565b5f546040516370a0823160e01b81523060048201526001600160a01b03909116906370a0823190602401602060405180830381865afa15801561124a573d5f803e3d5ffd5b505050506040513d601f19601f8201168201806040525081019061126e9190612a24565b1461128c57604051631910d68360e21b815260040160405180910390fd5b6112a185611299876109a9565b863387611c08565b836001600160a01b03166112b486610cb0565b60408051338152602081018790526001600160a01b038916917f7be65c2ae4d3c544de23b1db5bea4d541c02b93a5f4302852f4dc9880e0cb554910160405180910390a45050505050565b6001600160a01b0381165f908152600160205260408120546108749042612a5a565b7ff0c57e16840df040f15088dc2f81fe391c3923bec73e23a9662efc9c229c6a008054600160401b810460ff1615906001600160401b03165f811580156113655750825b90505f826001600160401b031660011480156113805750303b155b90508115801561138e575080155b156113ac5760405163f92ee8a960e01b815260040160405180910390fd5b845467ffffffffffffffff1916600117855583156113d657845460ff60401b1916600160401b1785555b6113de6120ab565b5f80546001600160a01b0319166001600160a01b038816179055831561143e57845460ff60401b19168555604051600181527fc7f505b2f371ae2175ee4913f4499e1f2633a7b5936321eed1cdaeb6115181d29060200160405180910390a15b505050505050565b335f8181526001602052604081208590555b82811015610ca9576114a7848483818110611475576114756129e9565b905060200201602081019061148a9190612508565b6001600160a01b0384165f90815260046020526040902090612097565b50600101611458565b6114b98261087a565b6114c2816118b1565b6109f48383611973565b6001600160a01b0381165f908152600460205260408120606091906114f0906118be565b6001600160401b03811115611507576115076125df565b604051908082528060200260200182016040528015611530578160200160208202803683370190505b5090505f5b6001600160a01b0384165f908152600460205260409020611555906118be565b8110156109a2576001600160a01b0384165f90815260046020526040902061157d90826118c7565b82828151811061158f5761158f6129e9565b6001600160a01b0390921660209283029190910190910152600101611535565b5f5b8581101561163157611629338888848181106115cf576115cf6129e9565b90506020020160208101906115e49190612508565b8585858181106115f6576115f66129e9565b905060200201602081019061160b9190612508565b88888681811061161d5761161d6129e9565b90506020020135611ca8565b6001016115b1565b50505050505050565b33611644816112ff565b6001600160a01b0382165f908152600260205260408120919091555b848110156118a7575f88888381811061167b5761167b6129e9565b90506020020160208101906116909190612508565b90505f6116ab845f848b8b88818110610f3157610f316129e9565b90508585848181106116bf576116bf6129e9565b905060200201358111156116e657604051630eba55e760e21b815260040160405180910390fd5b61172d8888858181106116fb576116fb6129e9565b90506020020160208101906117109190612508565b6001600160a01b0386165f90815260036020526040902090612097565b50858584818110611740576117406129e9565b9050602002013560055f866001600160a01b03166001600160a01b031681526020019081526020015f205f61177487610a9b565b81526020019081526020015f205f846001600160a01b03166001600160a01b031681526020019081526020015f205f8a8a878181106117b5576117b56129e9565b90506020020160208101906117ca9190612508565b6001600160a01b0316815260208101919091526040015f20558585848181106117f5576117f56129e9565b6001600160a01b038088165f9081526007602090815260408083208380528252808320938916835292815291812080549290930294909401359391925061183d908490612a11565b909155505f905081878786818110611857576118576129e9565b905060200201356118689190612a79565b905061189c308a8a87818110611880576118806129e9565b90506020020160208101906118959190612508565b8584611ca8565b505050600101611660565b5050505050505050565b6118bb81336120bd565b50565b5f610874825490565b5f610a9483836120f6565b5f5f80516020612ae38339815191526118eb8484610d42565b61196a575f848152602082815260408083206001600160a01b03871684529091529020805460ff191660011790556119203390565b6001600160a01b0316836001600160a01b0316857f2f8788117e7eff1d82e926ec794901d17c78024a50270940304540a733656f0d60405160405180910390a46001915050610874565b5f915050610874565b5f5f80516020612ae383398151915261198c8484610d42565b1561196a575f848152602082815260408083206001600160a01b0387168085529252808320805460ff1916905551339287917ff6391f5c32d9c69d2a47ea670b442974b53935d1edc7fd64eb21e047a839171b9190a46001915050610874565b306001600160a01b037f0000000000000000000000000000000000000000000000000000000000000000161480611a7257507f00000000000000000000000000000000000000000000000000000000000000006001600160a01b0316611a665f80516020612ac3833981519152546001600160a01b031690565b6001600160a01b031614155b156110de5760405163703e46dd60e11b815260040160405180910390fd5b5f6108bb816118b1565b816001600160a01b03166352d1902d6040518163ffffffff1660e01b8152600401602060405180830381865afa925050508015611af4575060408051601f3d908101601f19168201909252611af191810190612a24565b60015b611b2157604051634c9c8ce360e01b81526001600160a01b03831660048201526024015b60405180910390fd5b5f80516020612ac38339815191528114611b5157604051632a87526960e21b815260048101829052602401611b18565b610a2d838361211c565b306001600160a01b037f000000000000000000000000000000000000000000000000000000000000000016146110de5760405163703e46dd60e11b815260040160405180910390fd5b6001600160a01b038086165f90815260066020908152604080832088845282528083208785168452825280832093861683529290529081208054839290611bec908490612a11565b90915550505050505050565b611c00612171565b6110de6120ab565b6001600160a01b038086165f90815260056020908152604080832088845282528083208785168452825280832093861683529290529081208054839290611c50908490612a11565b90915550506001600160a01b038086165f908152600760209081526040808320888452825280832093871683529290529081208054839290611bec908490612a11565b5f818310611ca15781610a94565b5090919050565b306001600160a01b03851603611e1c575f546001600160a01b03808416911603611d46575f5460405163a9059cbb60e01b81526001600160a01b038581166004830152602482018490529091169063a9059cbb906044015b6020604051808303815f875af1158015611d1c573d5f803e3d5ffd5b505050506040513d601f19601f82011682018060405250810190611d409190612a3b565b506109f4565b5f5460405163095ea7b360e01b81526001600160a01b038481166004830152602482018490529091169063095ea7b3906044016020604051808303815f875af1158015611d95573d5f803e3d5ffd5b505050506040513d601f19601f82011682018060405250810190611db99190612a3b565b506040516318950c7160e01b81526001600160a01b038481166004830152602482018390528316906318950c71906044015f604051808303815f87803b158015611e01575f80fd5b505af1158015611e13573d5f803e3d5ffd5b505050506109f4565b5f546001600160a01b03808416911603611e70575f546040516323b872dd60e01b81526001600160a01b038681166004830152858116602483015260448201849052909116906323b872dd90606401611d00565b60405163c4652d8360e01b81526001600160a01b03858116600483015284811660248301526044820183905283169063c4652d83906064015f604051808303815f87803b158015611ebf575f80fd5b505af11580156118a7573d5f803e3d5ffd5b835f611edf87838787610d05565b905082811015611efb57611ef687838787856121ba565b611631565b61163187838787876121ba565b5f611f1585858585610d05565b90505f611f23856001612a11565b90505f611f3287838787610cc8565b905082811115611631576001600160a01b038088165f9081526006602090815260408083208684528252808320848a1684528252808320938816835292905220839055611631565b5f5b6001600160a01b0383165f908152600360205260409020611f9c906118be565b811015612031576001600160a01b0383165f908152600360205260408120611fc490836118c7565b90505f5b6001600160a01b0385165f908152600460205260409020611fe8906118be565b811015612027576001600160a01b0385165f90815260046020526040812061201090836118c7565b905061201e86868386612245565b50600101611fc8565b5050600101611f7c565b5061203d816001612a11565b6001600160a01b0383165f81815260026020526040908190209290925590517fb693195b5ff3e376f8b562486abc516e10fe2467b75f0e4165e79cf4ab70dc419061208b9084815260200190565b60405180910390a25050565b5f610a94836001600160a01b038416612308565b6120b3612171565b6118bb5f336118d2565b6120c78282610d42565b6108bb5760405163e2517d3f60e01b81526001600160a01b038216600482015260248101839052604401611b18565b5f825f01828154811061210b5761210b6129e9565b905f5260205f200154905092915050565b61212582612354565b6040516001600160a01b038316907fbc7cd75a20ee27fd9adebab32041f755214dbc6bffa90cc0225b39da2e5c2d3b905f90a280511561216957610a2d82826123b7565b6108bb612429565b7ff0c57e16840df040f15088dc2f81fe391c3923bec73e23a9662efc9c229c6a0054600160401b900460ff166110de57604051631afcd79f60e31b815260040160405180910390fd5b6001600160a01b038086165f90815260056020908152604080832088845282528083208785168452825280832093861683529290529081208054839290612202908490612a79565b90915550506001600160a01b038086165f908152600760209081526040808320888452825280832093871683529290529081208054839290611bec908490612a79565b5f61225285858585610d05565b90505f61226b86612264876001612a11565b8686610cc8565b9050818111156122785750805b5f6122838284612a79565b905061229c87612294886001612a11565b878785611c08565b6122a830858785611ca8565b846001600160a01b031686856001600160a01b03167f3ddb7f725ac69363a1df8296c965af4d268f31b082480dcd8419d284fb7fd34286866040516122f7929190918252602082015260400190565b60405180910390a450505050505050565b5f81815260018301602052604081205461234d57508154600181810184555f848152602080822090930184905584548482528286019093526040902091909155610874565b505f610874565b806001600160a01b03163b5f0361238957604051634c9c8ce360e01b81526001600160a01b0382166004820152602401611b18565b5f80516020612ac383398151915280546001600160a01b0319166001600160a01b0392909216919091179055565b60605f80846001600160a01b0316846040516123d39190612a8c565b5f60405180830381855af49150503d805f811461240b576040519150601f19603f3d011682016040523d82523d5f602084013e612410565b606091505b5091509150612420858383612448565b95945050505050565b34156110de5760405163b398979f60e01b815260040160405180910390fd5b60608261245d57612458826124a4565b610a94565b815115801561247457506001600160a01b0384163b155b1561249d57604051639996b31560e01b81526001600160a01b0385166004820152602401611b18565b5080610a94565b8051156124b45780518082602001fd5b604051630a12f52160e11b815260040160405180910390fd5b5f602082840312156124dd575f80fd5b81356001600160e01b031981168114610a94575f80fd5b6001600160a01b03811681146118bb575f80fd5b5f60208284031215612518575f80fd5b8135610a94816124f4565b5f60208284031215612533575f80fd5b5035919050565b602080825282518282018190525f918401906040840190835b8181101561257a5783516001600160a01b0316835260209384019390920191600101612553565b509095945050505050565b5f8060408385031215612596575f80fd5b8235915060208301356125a8816124f4565b809150509250929050565b5f80604083850312156125c4575f80fd5b82356125cf816124f4565b915060208301356125a8816124f4565b634e487b7160e01b5f52604160045260245ffd5b5f8060408385031215612604575f80fd5b823561260f816124f4565b915060208301356001600160401b03811115612629575f80fd5b8301601f81018513612639575f80fd5b80356001600160401b03811115612652576126526125df565b604051601f8201601f19908116603f011681016001600160401b0381118282101715612680576126806125df565b604052818152828201602001871015612697575f80fd5b816020840160208301375f602083830101528093505050509250929050565b5f805f606084860312156126c8575f80fd5b83356126d3816124f4565b92506020840135915060408401356126ea816124f4565b809150509250925092565b5f805f60608486031215612707575f80fd5b8335612712816124f4565b92506020840135612722816124f4565b929592945050506040919091013590565b5f805f8060808587031215612746575f80fd5b8435612751816124f4565b9350602085013592506040850135612768816124f4565b91506060850135612778816124f4565b939692955090935050565b5f805f60608486031215612795575f80fd5b83356127a0816124f4565b925060208401356127b0816124f4565b915060408401356126ea816124f4565b5f8083601f8401126127d0575f80fd5b5081356001600160401b038111156127e6575f80fd5b6020830191508360208260051b8501011115612800575f80fd5b9250929050565b5f805f805f805f806080898b03121561281e575f80fd5b88356001600160401b03811115612833575f80fd5b61283f8b828c016127c0565b90995097505060208901356001600160401b0381111561285d575f80fd5b6128698b828c016127c0565b90975095505060408901356001600160401b03811115612887575f80fd5b6128938b828c016127c0565b90955093505060608901356001600160401b038111156128b1575f80fd5b6128bd8b828c016127c0565b999c989b5096995094979396929594505050565b602081525f82518060208401528060208501604085015e5f604082850101526040601f19601f83011684010191505092915050565b5f805f60408486031215612918575f80fd5b8335925060208401356001600160401b03811115612934575f80fd5b612940868287016127c0565b9497909650939450505050565b5f805f805f8060608789031215612962575f80fd5b86356001600160401b03811115612977575f80fd5b61298389828a016127c0565b90975095505060208701356001600160401b038111156129a1575f80fd5b6129ad89828a016127c0565b90955093505060408701356001600160401b038111156129cb575f80fd5b6129d789828a016127c0565b979a9699509497509295939492505050565b634e487b7160e01b5f52603260045260245ffd5b634e487b7160e01b5f52601160045260245ffd5b80820180821115610874576108746129fd565b5f60208284031215612a34575f80fd5b5051919050565b5f60208284031215612a4b575f80fd5b81518015158114610a94575f80fd5b5f82612a7457634e487b7160e01b5f52601260045260245ffd5b500490565b81810381811115610874576108746129fd565b5f82518060208501845e5f92019182525091905056fedc72ed553f2544c34465af23b847953efeb813428162d767f9ba5f4013be6760360894a13ba1a3210667c828492db98dca3e2076cc3735a920a3ca505d382bbc02dd7bc7dec4dceedda775e58dd541e08a116c6c53815c0bd028192f7b626800a2646970667358221220607b8c1972ce4fe4e14ac69101762168966bf4e7c61c37e51539df8ce23e5dde64736f6c634300081a0033","linkReferences":{}},"methodIdentifiers":{"DEFAULT_ADMIN_ROLE()":"a217fddf","UPGRADE_INTERFACE_VERSION()":"ad3cb1cc","WHITELIST_ROLE()":"7a997ab7","acceptGenesisCeremony()":"92a2ebf3","currentEpochByDomain(address)":"0a0b1b64","domainGenesisAccepted(address)":"d1ba90ff","epochDurationByDomain(address)":"3bccf635","epochStakesByDomain(address,uint256,address,address)":"c0b95ab8","epochTotalStakeByDomain(address,uint256,address)":"54300d7a","epochUnstakesByDomain(address,uint256,address,address)":"65f1ea20","getAttestersByDomain(address)":"2924b73b","getCurrentEpoch(address)":"4d3223a5","getCurrentEpochStake(address,address,address)":"70224360","getCurrentEpochUnstake(address,address,address)":"7667b76d","getCustodiansByDomain(address)":"d5ca03de","getEpochByBlockTime(address)":"c3471ff8","getNextEpoch(address)":"8489e580","getNextEpochByBlockTime(address)":"2c7785a8","getRoleAdmin(bytes32)":"248a9ca3","getStakeAtEpoch(address,uint256,address,address)":"8d908258","getTotalStakeForCurrentEpoch(address,address)":"44198e4d","getTotalStakeForEpoch(address,uint256,address)":"5cdf3155","getUnstakeAtEpoch(address,uint256,address,address)":"879b938b","grantRole(bytes32,address)":"2f2ff15d","hasRole(bytes32,address)":"91d14854","initialize()":"8129fc1c","initialize(address)":"c4d66de8","proxiableUUID()":"52d1902d","registerDomain(uint256,address[])":"d37304f8","removeAddressFromWhitelist(address)":"286dd3f5","renounceRole(bytes32,address)":"36568abe","revokeRole(bytes32,address)":"d547741f","reward(address[],uint256[],address[])":"da33ee7f","rollOverEpoch()":"a887b71c","setGenesisCeremony(address[],address[],uint256[])":"ff62787c","slash(address[],address[],uint256[],uint256[])":"a885c975","stake(address,address,uint256)":"bf6eac2f","supportsInterface(bytes4)":"01ffc9a7","token()":"fc0c546a","unstake(address,address,uint256)":"60829f8a","upgradeToAndCall(address,bytes)":"4f1ef286","whitelistAddress(address)":"41566585"},"storageLayout":{"storage":[{"astId":56292,"contract":"src/staking/MovementStaking.sol:MovementStaking","label":"token","offset":0,"slot":"0","type":"t_contract(IERC20)43663"},{"astId":56296,"contract":"src/staking/MovementStaking.sol:MovementStaking","label":"epochDurationByDomain","offset":0,"slot":"1","type":"t_mapping(t_address,t_uint256)"},{"astId":56300,"contract":"src/staking/MovementStaking.sol:MovementStaking","label":"currentEpochByDomain","offset":0,"slot":"2","type":"t_mapping(t_address,t_uint256)"},{"astId":56305,"contract":"src/staking/MovementStaking.sol:MovementStaking","label":"attestersByDomain","offset":0,"slot":"3","type":"t_mapping(t_address,t_struct(AddressSet)46651_storage)"},{"astId":56310,"contract":"src/staking/MovementStaking.sol:MovementStaking","label":"custodiansByDomain","offset":0,"slot":"4","type":"t_mapping(t_address,t_struct(AddressSet)46651_storage)"},{"astId":56320,"contract":"src/staking/MovementStaking.sol:MovementStaking","label":"epochStakesByDomain","offset":0,"slot":"5","type":"t_mapping(t_address,t_mapping(t_uint256,t_mapping(t_address,t_mapping(t_address,t_uint256))))"},{"astId":56330,"contract":"src/staking/MovementStaking.sol:MovementStaking","label":"epochUnstakesByDomain","offset":0,"slot":"6","type":"t_mapping(t_address,t_mapping(t_uint256,t_mapping(t_address,t_mapping(t_address,t_uint256))))"},{"astId":56338,"contract":"src/staking/MovementStaking.sol:MovementStaking","label":"epochTotalStakeByDomain","offset":0,"slot":"7","type":"t_mapping(t_address,t_mapping(t_uint256,t_mapping(t_address,t_uint256)))"},{"astId":56342,"contract":"src/staking/MovementStaking.sol:MovementStaking","label":"domainGenesisAccepted","offset":0,"slot":"8","type":"t_mapping(t_address,t_bool)"}],"types":{"t_address":{"encoding":"inplace","label":"address","numberOfBytes":"20"},"t_array(t_bytes32)dyn_storage":{"encoding":"dynamic_array","label":"bytes32[]","numberOfBytes":"32","base":"t_bytes32"},"t_bool":{"encoding":"inplace","label":"bool","numberOfBytes":"1"},"t_bytes32":{"encoding":"inplace","label":"bytes32","numberOfBytes":"32"},"t_contract(IERC20)43663":{"encoding":"inplace","label":"contract IERC20","numberOfBytes":"20"},"t_mapping(t_address,t_bool)":{"encoding":"mapping","key":"t_address","label":"mapping(address => bool)","numberOfBytes":"32","value":"t_bool"},"t_mapping(t_address,t_mapping(t_address,t_uint256))":{"encoding":"mapping","key":"t_address","label":"mapping(address => mapping(address => uint256))","numberOfBytes":"32","value":"t_mapping(t_address,t_uint256)"},"t_mapping(t_address,t_mapping(t_uint256,t_mapping(t_address,t_mapping(t_address,t_uint256))))":{"encoding":"mapping","key":"t_address","label":"mapping(address => mapping(uint256 => mapping(address => mapping(address => uint256))))","numberOfBytes":"32","value":"t_mapping(t_uint256,t_mapping(t_address,t_mapping(t_address,t_uint256)))"},"t_mapping(t_address,t_mapping(t_uint256,t_mapping(t_address,t_uint256)))":{"encoding":"mapping","key":"t_address","label":"mapping(address => mapping(uint256 => mapping(address => uint256)))","numberOfBytes":"32","value":"t_mapping(t_uint256,t_mapping(t_address,t_uint256))"},"t_mapping(t_address,t_struct(AddressSet)46651_storage)":{"encoding":"mapping","key":"t_address","label":"mapping(address => struct EnumerableSet.AddressSet)","numberOfBytes":"32","value":"t_struct(AddressSet)46651_storage"},"t_mapping(t_address,t_uint256)":{"encoding":"mapping","key":"t_address","label":"mapping(address => uint256)","numberOfBytes":"32","value":"t_uint256"},"t_mapping(t_bytes32,t_uint256)":{"encoding":"mapping","key":"t_bytes32","label":"mapping(bytes32 => uint256)","numberOfBytes":"32","value":"t_uint256"},"t_mapping(t_uint256,t_mapping(t_address,t_mapping(t_address,t_uint256)))":{"encoding":"mapping","key":"t_uint256","label":"mapping(uint256 => mapping(address => mapping(address => uint256)))","numberOfBytes":"32","value":"t_mapping(t_address,t_mapping(t_address,t_uint256))"},"t_mapping(t_uint256,t_mapping(t_address,t_uint256))":{"encoding":"mapping","key":"t_uint256","label":"mapping(uint256 => mapping(address => uint256))","numberOfBytes":"32","value":"t_mapping(t_address,t_uint256)"},"t_struct(AddressSet)46651_storage":{"encoding":"inplace","label":"struct EnumerableSet.AddressSet","numberOfBytes":"64","members":[{"astId":46650,"contract":"src/staking/MovementStaking.sol:MovementStaking","label":"_inner","offset":0,"slot":"0","type":"t_struct(Set)46336_storage"}]},"t_struct(Set)46336_storage":{"encoding":"inplace","label":"struct EnumerableSet.Set","numberOfBytes":"64","members":[{"astId":46331,"contract":"src/staking/MovementStaking.sol:MovementStaking","label":"_values","offset":0,"slot":"0","type":"t_array(t_bytes32)dyn_storage"},{"astId":46335,"contract":"src/staking/MovementStaking.sol:MovementStaking","label":"_positions","offset":0,"slot":"1","type":"t_mapping(t_bytes32,t_uint256)"}]},"t_uint256":{"encoding":"inplace","label":"uint256","numberOfBytes":"32"}}},"id":108}