{"abi":[{"type":"function","name":"DEFAULT_ADMIN_ROLE","inputs":[],"outputs":[{"name":"","type":"bytes32","internalType":"bytes32"}],"stateMutability":"view"},{"type":"function","name":"UPGRADE_INTERFACE_VERSION","inputs":[],"outputs":[{"name":"","type":"string","internalType":"string"}],"stateMutability":"view"},{"type":"function","name":"WHITELIST_ROLE","inputs":[],"outputs":[{"name":"","type":"bytes32","internalType":"bytes32"}],"stateMutability":"view"},{"type":"function","name":"acceptGenesisCeremony","inputs":[],"outputs":[],"stateMutability":"nonpayable"},{"type":"function","name":"currentEpochByDomain","inputs":[{"name":"domain","type":"address","internalType":"address"}],"outputs":[{"name":"currentEpoch","type":"uint256","internalType":"uint256"}],"stateMutability":"view"},{"type":"function","name":"epochDurationByDomain","inputs":[{"name":"domain","type":"address","internalType":"address"}],"outputs":[{"name":"epochDuration","type":"uint256","internalType":"uint256"}],"stateMutability":"view"},{"type":"function","name":"epochStakesByDomain","inputs":[{"name":"domain","type":"address","internalType":"address"},{"name":"epoch","type":"uint256","internalType":"uint256"},{"name":"custodian","type":"address","internalType":"address"},{"name":"attester","type":"address","internalType":"address"}],"outputs":[{"name":"stake","type":"uint256","internalType":"uint256"}],"stateMutability":"view"},{"type":"function","name":"epochTotalStakeByDomain","inputs":[{"name":"domain","type":"address","internalType":"address"},{"name":"epoch","type":"uint256","internalType":"uint256"},{"name":"attester","type":"address","internalType":"address"}],"outputs":[{"name":"stake","type":"uint256","internalType":"uint256"}],"stateMutability":"view"},{"type":"function","name":"epochUnstakesByDomain","inputs":[{"name":"domain","type":"address","internalType":"address"},{"name":"epoch","type":"uint256","internalType":"uint256"},{"name":"custodian","type":"address","internalType":"address"},{"name":"attester","type":"address","internalType":"address"}],"outputs":[{"name":"stake","type":"uint256","internalType":"uint256"}],"stateMutability":"view"},{"type":"function","name":"getAttestersByDomain","inputs":[{"name":"domain","type":"address","internalType":"address"}],"outputs":[{"name":"","type":"address[]","internalType":"address[]"}],"stateMutability":"view"},{"type":"function","name":"getCurrentEpoch","inputs":[{"name":"domain","type":"address","internalType":"address"}],"outputs":[{"name":"","type":"uint256","internalType":"uint256"}],"stateMutability":"view"},{"type":"function","name":"getCurrentEpochStake","inputs":[{"name":"domain","type":"address","internalType":"address"},{"name":"custodian","type":"address","internalType":"address"},{"name":"attester","type":"address","internalType":"address"}],"outputs":[{"name":"","type":"uint256","internalType":"uint256"}],"stateMutability":"view"},{"type":"function","name":"getCurrentEpochUnstake","inputs":[{"name":"domain","type":"address","internalType":"address"},{"name":"custodian","type":"address","internalType":"address"},{"name":"attester","type":"address","internalType":"address"}],"outputs":[{"name":"","type":"uint256","internalType":"uint256"}],"stateMutability":"view"},{"type":"function","name":"getCustodiansByDomain","inputs":[{"name":"domain","type":"address","internalType":"address"}],"outputs":[{"name":"","type":"address[]","internalType":"address[]"}],"stateMutability":"view"},{"type":"function","name":"getEpochByBlockTime","inputs":[{"name":"domain","type":"address","internalType":"address"}],"outputs":[{"name":"","type":"uint256","internalType":"uint256"}],"stateMutability":"view"},{"type":"function","name":"getNextEpoch","inputs":[{"name":"domain","type":"address","internalType":"address"}],"outputs":[{"name":"","type":"uint256","internalType":"uint256"}],"stateMutability":"view"},{"type":"function","name":"getNextEpochByBlockTime","inputs":[{"name":"domain","type":"address","internalType":"address"}],"outputs":[{"name":"","type":"uint256","internalType":"uint256"}],"stateMutability":"view"},{"type":"function","name":"getRoleAdmin","inputs":[{"name":"role","type":"bytes32","internalType":"bytes32"}],"outputs":[{"name":"","type":"bytes32","internalType":"bytes32"}],"stateMutability":"view"},{"type":"function","name":"getStakeAtEpoch","inputs":[{"name":"domain","type":"address","internalType":"address"},{"name":"epoch","type":"uint256","internalType":"uint256"},{"name":"custodian","type":"address","internalType":"address"},{"name":"attester","type":"address","internalType":"address"}],"outputs":[{"name":"","type":"uint256","internalType":"uint256"}],"stateMutability":"view"},{"type":"function","name":"getTotalStakeForCurrentEpoch","inputs":[{"name":"domain","type":"address","internalType":"address"},{"name":"custodian","type":"address","internalType":"address"}],"outputs":[{"name":"","type":"uint256","internalType":"uint256"}],"stateMutability":"view"},{"type":"function","name":"getTotalStakeForEpoch","inputs":[{"name":"domain","type":"address","internalType":"address"},{"name":"epoch","type":"uint256","internalType":"uint256"},{"name":"custodian","type":"address","internalType":"address"}],"outputs":[{"name":"","type":"uint256","internalType":"uint256"}],"stateMutability":"view"},{"type":"function","name":"getUnstakeAtEpoch","inputs":[{"name":"domain","type":"address","internalType":"address"},{"name":"epoch","type":"uint256","internalType":"uint256"},{"name":"custodian","type":"address","internalType":"address"},{"name":"attester","type":"address","internalType":"address"}],"outputs":[{"name":"","type":"uint256","internalType":"uint256"}],"stateMutability":"view"},{"type":"function","name":"grantRole","inputs":[{"name":"role","type":"bytes32","internalType":"bytes32"},{"name":"account","type":"address","internalType":"address"}],"outputs":[],"stateMutability":"nonpayable"},{"type":"function","name":"hasRole","inputs":[{"name":"role","type":"bytes32","internalType":"bytes32"},{"name":"account","type":"address","internalType":"address"}],"outputs":[{"name":"","type":"bool","internalType":"bool"}],"stateMutability":"view"},{"type":"function","name":"initialize","inputs":[],"outputs":[],"stateMutability":"nonpayable"},{"type":"function","name":"initialize","inputs":[{"name":"_token","type":"address","internalType":"contract IERC20"}],"outputs":[],"stateMutability":"nonpayable"},{"type":"function","name":"proxiableUUID","inputs":[],"outputs":[{"name":"","type":"bytes32","internalType":"bytes32"}],"stateMutability":"view"},{"type":"function","name":"registerDomain","inputs":[{"name":"epochDuration","type":"uint256","internalType":"uint256"},{"name":"custodians","type":"address[]","internalType":"address[]"}],"outputs":[],"stateMutability":"nonpayable"},{"type":"function","name":"removeAddressFromWhitelist","inputs":[{"name":"addr","type":"address","internalType":"address"}],"outputs":[],"stateMutability":"nonpayable"},{"type":"function","name":"renounceRole","inputs":[{"name":"role","type":"bytes32","internalType":"bytes32"},{"name":"callerConfirmation","type":"address","internalType":"address"}],"outputs":[],"stateMutability":"nonpayable"},{"type":"function","name":"revokeRole","inputs":[{"name":"role","type":"bytes32","internalType":"bytes32"},{"name":"account","type":"address","internalType":"address"}],"outputs":[],"stateMutability":"nonpayable"},{"type":"function","name":"reward","inputs":[{"name":"attesters","type":"address[]","internalType":"address[]"},{"name":"amounts","type":"uint256[]","internalType":"uint256[]"},{"name":"custodians","type":"address[]","internalType":"address[]"}],"outputs":[],"stateMutability":"nonpayable"},{"type":"function","name":"rollOverEpoch","inputs":[],"outputs":[],"stateMutability":"nonpayable"},{"type":"function","name":"setGenesisCeremony","inputs":[{"name":"domain","type":"address","internalType":"address"},{"name":"custodians","type":"address[]","internalType":"address[]"},{"name":"attesters","type":"address[]","internalType":"address[]"},{"name":"stakes","type":"uint256[]","internalType":"uint256[]"}],"outputs":[],"stateMutability":"nonpayable"},{"type":"function","name":"slash","inputs":[{"name":"custodians","type":"address[]","internalType":"address[]"},{"name":"attesters","type":"address[]","internalType":"address[]"},{"name":"amounts","type":"uint256[]","internalType":"uint256[]"},{"name":"refundAmounts","type":"uint256[]","internalType":"uint256[]"}],"outputs":[],"stateMutability":"nonpayable"},{"type":"function","name":"stake","inputs":[{"name":"domain","type":"address","internalType":"address"},{"name":"custodian","type":"address","internalType":"contract IERC20"},{"name":"amount","type":"uint256","internalType":"uint256"}],"outputs":[],"stateMutability":"nonpayable"},{"type":"function","name":"supportsInterface","inputs":[{"name":"interfaceId","type":"bytes4","internalType":"bytes4"}],"outputs":[{"name":"","type":"bool","internalType":"bool"}],"stateMutability":"view"},{"type":"function","name":"token","inputs":[],"outputs":[{"name":"","type":"address","internalType":"contract IERC20"}],"stateMutability":"view"},{"type":"function","name":"unstake","inputs":[{"name":"domain","type":"address","internalType":"address"},{"name":"custodian","type":"address","internalType":"address"},{"name":"amount","type":"uint256","internalType":"uint256"}],"outputs":[],"stateMutability":"nonpayable"},{"type":"function","name":"upgradeToAndCall","inputs":[{"name":"newImplementation","type":"address","internalType":"address"},{"name":"data","type":"bytes","internalType":"bytes"}],"outputs":[],"stateMutability":"payable"},{"type":"function","name":"whitelistAddress","inputs":[{"name":"addr","type":"address","internalType":"address"}],"outputs":[],"stateMutability":"nonpayable"},{"type":"event","name":"AttesterEpochRolledOver","inputs":[{"name":"attester","type":"address","indexed":true,"internalType":"address"},{"name":"epoch","type":"uint256","indexed":true,"internalType":"uint256"},{"name":"custodian","type":"address","indexed":true,"internalType":"address"},{"name":"stake","type":"uint256","indexed":false,"internalType":"uint256"},{"name":"unstake","type":"uint256","indexed":false,"internalType":"uint256"}],"anonymous":false},{"type":"event","name":"AttesterStaked","inputs":[{"name":"domain","type":"address","indexed":true,"internalType":"address"},{"name":"epoch","type":"uint256","indexed":true,"internalType":"uint256"},{"name":"custodian","type":"address","indexed":true,"internalType":"address"},{"name":"attester","type":"address","indexed":false,"internalType":"address"},{"name":"stake","type":"uint256","indexed":false,"internalType":"uint256"}],"anonymous":false},{"type":"event","name":"AttesterUnstaked","inputs":[{"name":"domain","type":"address","indexed":true,"internalType":"address"},{"name":"epoch","type":"uint256","indexed":true,"internalType":"uint256"},{"name":"custodian","type":"address","indexed":true,"internalType":"address"},{"name":"attester","type":"address","indexed":false,"internalType":"address"},{"name":"stake","type":"uint256","indexed":false,"internalType":"uint256"}],"anonymous":false},{"type":"event","name":"EpochRolledOver","inputs":[{"name":"domain","type":"address","indexed":true,"internalType":"address"},{"name":"epoch","type":"uint256","indexed":false,"internalType":"uint256"}],"anonymous":false},{"type":"event","name":"Initialized","inputs":[{"name":"version","type":"uint64","indexed":false,"internalType":"uint64"}],"anonymous":false},{"type":"event","name":"RoleAdminChanged","inputs":[{"name":"role","type":"bytes32","indexed":true,"internalType":"bytes32"},{"name":"previousAdminRole","type":"bytes32","indexed":true,"internalType":"bytes32"},{"name":"newAdminRole","type":"bytes32","indexed":true,"internalType":"bytes32"}],"anonymous":false},{"type":"event","name":"RoleGranted","inputs":[{"name":"role","type":"bytes32","indexed":true,"internalType":"bytes32"},{"name":"account","type":"address","indexed":true,"internalType":"address"},{"name":"sender","type":"address","indexed":true,"internalType":"address"}],"anonymous":false},{"type":"event","name":"RoleRevoked","inputs":[{"name":"role","type":"bytes32","indexed":true,"internalType":"bytes32"},{"name":"account","type":"address","indexed":true,"internalType":"address"},{"name":"sender","type":"address","indexed":true,"internalType":"address"}],"anonymous":false},{"type":"event","name":"Upgraded","inputs":[{"name":"implementation","type":"address","indexed":true,"internalType":"address"}],"anonymous":false},{"type":"error","name":"AccessControlBadConfirmation","inputs":[]},{"type":"error","name":"AccessControlUnauthorizedAccount","inputs":[{"name":"account","type":"address","internalType":"address"},{"name":"neededRole","type":"bytes32","internalType":"bytes32"}]},{"type":"error","name":"AddressEmptyCode","inputs":[{"name":"target","type":"address","internalType":"address"}]},{"type":"error","name":"CustodianTransferAmountMismatch","inputs":[]},{"type":"error","name":"ERC1967InvalidImplementation","inputs":[{"name":"implementation","type":"address","internalType":"address"}]},{"type":"error","name":"ERC1967NonPayable","inputs":[]},{"type":"error","name":"FailedInnerCall","inputs":[]},{"type":"error","name":"InvalidInitialization","inputs":[]},{"type":"error","name":"NotInitializing","inputs":[]},{"type":"error","name":"StakeExceedsGenesisStake","inputs":[]},{"type":"error","name":"UUPSUnauthorizedCallContext","inputs":[]},{"type":"error","name":"UUPSUnsupportedProxiableUUID","inputs":[{"name":"slot","type":"bytes32","internalType":"bytes32"}]}],"bytecode":{"object":"0x60a060405230608052348015610013575f80fd5b50608051612b0a61003a5f395f81816119c3015281816119ec0152611b320152612b0a5ff3fe60806040526004361061023e575f3560e01c80637a997ab711610134578063a887b71c116100b3578063c4d66de811610078578063c4d66de81461073a578063d37304f814610759578063d547741f14610778578063d5ca03de14610797578063da33ee7f146107b6578063fc0c546a146107d5575f80fd5b8063a887b71c14610666578063ad3cb1cc1461067a578063bf6eac2f146106b7578063c0b95ab8146106d6578063c3471ff81461071b575f80fd5b806391d14854116100f957806391d14854146105e257806392a2ebf314610601578063a0f9465614610615578063a217fddf14610634578063a885c97514610647575f80fd5b80637a997ab7146105515780638129fc1c146105715780638489e58014610585578063879b938b146105a45780638d908258146105c3575f80fd5b806344198e4d116101c05780635cdf3155116101855780635cdf31551461046357806360829f8a146104af57806365f1ea20146104ce57806370224360146105135780637667b76d14610532575f80fd5b806344198e4d146103c25780634d3223a5146103e15780634f1ef2861461040057806352d1902d1461041357806354300d7a14610427575f80fd5b80632c7785a8116102065780632c7785a81461031b5780632f2ff15d1461033a57806336568abe146103595780633bccf6351461037857806341566585146103a3575f80fd5b806301ffc9a7146102425780630a0b1b6414610276578063248a9ca3146102af578063286dd3f5146102ce5780632924b73b146102ef575b5f80fd5b34801561024d575f80fd5b5061026161025c3660046123d8565b61080b565b60405190151581526020015b60405180910390f35b348015610281575f80fd5b506102a1610290366004612413565b60026020525f908152604090205481565b60405190815260200161026d565b3480156102ba575f80fd5b506102a16102c936600461242e565b610841565b3480156102d9575f80fd5b506102ed6102e8366004612413565b610861565b005b3480156102fa575f80fd5b5061030e610309366004612413565b610886565b60405161026d9190612445565b348015610326575f80fd5b506102a1610335366004612413565b61097b565b348015610345575f80fd5b506102ed610354366004612491565b6109aa565b348015610364575f80fd5b506102ed610373366004612491565b6109cc565b348015610383575f80fd5b506102a1610392366004612413565b60016020525f908152604090205481565b3480156103ae575f80fd5b506102ed6103bd366004612413565b610a04565b3480156103cd575f80fd5b506102a16103dc3660046124bf565b610a25565b3480156103ec575f80fd5b506102a16103fb366004612413565b610a6d565b6102ed61040e3660046124ff565b610a87565b34801561041e575f80fd5b506102a1610aa2565b348015610432575f80fd5b506102a16104413660046125bd565b600760209081525f938452604080852082529284528284209052825290205481565b34801561046e575f80fd5b506102a161047d3660046125bd565b6001600160a01b039283165f908152600760209081526040808320948352938152838220929094168152925290205490565b3480156104ba575f80fd5b506102ed6104c93660046125fc565b610abd565b3480156104d9575f80fd5b506102a16104e836600461263a565b600660209081525f948552604080862082529385528385208152918452828420909152825290205481565b34801561051e575f80fd5b506102a161052d36600461268a565b610b46565b34801561053d575f80fd5b506102a161054c36600461268a565b610b63565b34801561055c575f80fd5b506102a15f80516020612a7583398151915281565b34801561057c575f80fd5b506102ed610b78565b348015610590575f80fd5b506102a161059f366004612413565b610c84565b3480156105af575f80fd5b506102a16105be36600461263a565b610c9c565b3480156105ce575f80fd5b506102a16105dd36600461263a565b610cd9565b3480156105ed575f80fd5b506102616105fc366004612491565b610d16565b34801561060c575f80fd5b506102ed610d4c565b348015610620575f80fd5b506102ed61062f36600461270f565b610e56565b34801561063f575f80fd5b506102a15f81565b348015610652575f80fd5b506102ed6106613660046127b4565b6110eb565b348015610671575f80fd5b506102ed6112ef565b348015610685575f80fd5b506106aa604051806040016040528060058152602001640352e302e360dc1b81525081565b60405161026d9190612891565b3480156106c2575f80fd5b506102ed6106d13660046125fc565b611303565b3480156106e1575f80fd5b506102a16106f036600461263a565b600560209081525f948552604080862082529385528385208152918452828420909152825290205481565b348015610726575f80fd5b506102a1610735366004612413565b611522565b348015610745575f80fd5b506102ed610754366004612413565b611544565b348015610764575f80fd5b506102ed6107733660046128c3565b61166b565b348015610783575f80fd5b506102ed610792366004612491565b6116df565b3480156107a2575f80fd5b5061030e6107b1366004612413565b6116fb565b3480156107c1575f80fd5b506102ed6107d036600461290b565b6117e9565b3480156107e0575f80fd5b505f546107f3906001600160a01b031681565b6040516001600160a01b03909116815260200161026d565b5f6001600160e01b03198216637965db0b60e01b148061083b57506301ffc9a760e01b6001600160e01b03198316145b92915050565b5f9081525f80516020612ab5833981519152602052604090206001015490565b5f61086b8161187d565b6108825f80516020612a75833981519152836116df565b5050565b6001600160a01b0381165f908152600360205260408120606091906108aa9061188a565b67ffffffffffffffff8111156108c2576108c26124eb565b6040519080825280602002602001820160405280156108eb578160200160208202803683370190505b5090505f5b6001600160a01b0384165f9081526003602052604090206109109061188a565b811015610974576001600160a01b0384165f9081526003602052604090206109389082611893565b82828151811061094a5761094a61299e565b6001600160a01b03909216602092830291909101909101528061096c816129c6565b9150506108f0565b5092915050565b5f61098582610a6d565b156109a35761099382611522565b61099e9060016129de565b61083b565b5f92915050565b6109b382610841565b6109bc8161187d565b6109c6838361189e565b50505050565b6001600160a01b03811633146109f55760405163334bd91960e11b815260040160405180910390fd5b6109ff828261193f565b505050565b5f610a0e8161187d565b6108825f80516020612a75833981519152836109aa565b5f610a6683610a3385610a6d565b846001600160a01b039283165f908152600760209081526040808320948352938152838220929094168152925290205490565b9392505050565b6001600160a01b03165f9081526002602052604090205490565b610a8f6119b8565b610a9882611a5c565b6108828282611a66565b5f610aab611b27565b505f80516020612a9583398151915290565b5f80516020612a75833981519152610ad48161187d565b610ae984610ae18661097b565b853386611b70565b826001600160a01b0316610afc85610c84565b60408051338152602081018690526001600160a01b038816917fd41c64546a5c34c283150998874c7ee0412c8954f57aef484c681f6e137827df910160405180910390a450505050565b5f610b5b84610b5486610a6d565b8585610cd9565b949350505050565b5f610b5b84610b7186610a6d565b8585610c9c565b7ff0c57e16840df040f15088dc2f81fe391c3923bec73e23a9662efc9c229c6a008054600160401b810460ff16159067ffffffffffffffff165f81158015610bbd5750825b90505f8267ffffffffffffffff166001148015610bd95750303b155b905081158015610be7575080155b15610c055760405163f92ee8a960e01b815260040160405180910390fd5b845467ffffffffffffffff191660011785558315610c2f57845460ff60401b1916600160401b1785555b610c37611bc4565b8315610c7d57845460ff60401b19168555604051600181527fc7f505b2f371ae2175ee4913f4499e1f2633a7b5936321eed1cdaeb6115181d29060200160405180910390a15b5050505050565b5f610c8e82610a6d565b156109a35761099382610a6d565b6001600160a01b039384165f9081526006602090815260408083209583529481528482209386168252928352838120919094168452905290205490565b6001600160a01b039384165f9081526005602090815260408083209583529481528482209386168252928352838120919094168452905290205490565b5f9182525f80516020612ab5833981519152602090815260408084206001600160a01b0393909316845291905290205460ff1690565b33610d5681611522565b6001600160a01b0382165f908152600260205260408120919091555b6001600160a01b0382165f908152600360205260409020610d929061188a565b811015610882576001600160a01b0382165f908152600360205260408120610dba9083611893565b90505f5b6001600160a01b0384165f908152600460205260409020610dde9061188a565b811015610e41576001600160a01b0384165f908152600460205260408120610e069083611893565b90505f610e15865f8487610cd9565b9050610e2c86610e2488610a6d565b848785611bd4565b50508080610e39906129c6565b915050610dbe565b50508080610e4e906129c6565b915050610d72565b610e5f87611522565b6001600160a01b0388165f908152600260205260408120919091555b838110156110e1575f878783818110610e9657610e9661299e565b9050602002016020810190610eab9190612413565b90505f610edb8a5f848a8a88818110610ec657610ec661299e565b90506020020160208101906105dd9190612413565b9050848484818110610eef57610eef61299e565b90506020020135811115610f1657604051630eba55e760e21b815260040160405180910390fd5b610f5d878785818110610f2b57610f2b61299e565b9050602002016020810190610f409190612413565b6001600160a01b038c165f90815260036020526040902090611c5f565b50848484818110610f7057610f7061299e565b9050602002013560055f8c6001600160a01b03166001600160a01b031681526020019081526020015f205f610fa48d610a6d565b81526020019081526020015f205f846001600160a01b03166001600160a01b031681526020019081526020015f205f898987818110610fe557610fe561299e565b9050602002016020810190610ffa9190612413565b6001600160a01b0316815260208101919091526040015f20558484848181106110255761102561299e565b6001600160a01b03808e165f9081526007602090815260408083208380528252808320938916835292815291812080549290930294909401359391925061106d9084906129de565b909155505f9050818686868181106110875761108761299e565b9050602002013561109891906129f1565b90506110cb8888868181106110af576110af61299e565b90506020020160208101906110c49190612413565b8483611c73565b50505080806110d9906129c6565b915050610e7b565b5050505050505050565b5f5b858110156112e4575f61119f611160336111278b8b878181106111125761111261299e565b90506020020160208101906103fb9190612413565b8d8d878181106111395761113961299e565b905060200201602081019061114e9190612413565b8c8c88818110610ec657610ec661299e565b61119a8888868181106111755761117561299e565b9050602002013587878781811061118e5761118e61299e565b90506020020135611dc7565b611dc7565b90506111f88888848181106111b6576111b661299e565b90506020020160208101906111cb9190612413565b8b8b858181106111dd576111dd61299e565b90506020020160208101906111f29190612413565b83611c73565b6112713361120533610a6d565b8c8c868181106112175761121761299e565b905060200201602081019061122c9190612413565b8b8b8781811061123e5761123e61299e565b90506020020160208101906112539190612413565b8a8a888181106112655761126561299e565b90506020020135611ddc565b6112d13361127e33610a6d565b8c8c868181106112905761129061299e565b90506020020160208101906112a59190612413565b8b8b878181106112b7576112b761299e565b90506020020160208101906112cc9190612413565b611e13565b50806112dc816129c6565b9150506110ed565b505050505050505050565b611301336112fc33610a6d565b611e85565b565b5f80516020612a7583398151915261131a8161187d565b6001600160a01b0384165f90815260036020526040902061133b9033611c5f565b505f80546040516370a0823160e01b81523060048201526001600160a01b03909116906370a0823190602401602060405180830381865afa158015611382573d5f803e3d5ffd5b505050506040513d601f19601f820116820180604052508101906113a69190612a04565b6040516323b872dd60e01b8152336004820152306024820152604481018590529091506001600160a01b038516906323b872dd906064016020604051808303815f875af11580156113f9573d5f803e3d5ffd5b505050506040513d601f19601f8201168201806040525081019061141d9190612a1b565b5061142883826129de565b5f546040516370a0823160e01b81523060048201526001600160a01b03909116906370a0823190602401602060405180830381865afa15801561146d573d5f803e3d5ffd5b505050506040513d601f19601f820116820180604052508101906114919190612a04565b146114af57604051631910d68360e21b815260040160405180910390fd5b6114c4856114bc8761097b565b863387611bd4565b836001600160a01b03166114d786610c84565b60408051338152602081018790526001600160a01b038916917f7be65c2ae4d3c544de23b1db5bea4d541c02b93a5f4302852f4dc9880e0cb554910160405180910390a45050505050565b6001600160a01b0381165f9081526001602052604081205461083b9042612a3a565b7ff0c57e16840df040f15088dc2f81fe391c3923bec73e23a9662efc9c229c6a008054600160401b810460ff16159067ffffffffffffffff165f811580156115895750825b90505f8267ffffffffffffffff1660011480156115a55750303b155b9050811580156115b3575080155b156115d15760405163f92ee8a960e01b815260040160405180910390fd5b845467ffffffffffffffff1916600117855583156115fb57845460ff60401b1916600160401b1785555b611603611fb7565b5f80546001600160a01b0319166001600160a01b038816179055831561166357845460ff60401b19168555604051600181527fc7f505b2f371ae2175ee4913f4499e1f2633a7b5936321eed1cdaeb6115181d29060200160405180910390a15b505050505050565b335f8181526001602052604081208590555b82811015610c7d576116cc84848381811061169a5761169a61299e565b90506020020160208101906116af9190612413565b6001600160a01b0384165f90815260046020526040902090611c5f565b50806116d7816129c6565b91505061167d565b6116e882610841565b6116f18161187d565b6109c6838361193f565b6001600160a01b0381165f9081526004602052604081206060919061171f9061188a565b67ffffffffffffffff811115611737576117376124eb565b604051908082528060200260200182016040528015611760578160200160208202803683370190505b5090505f5b6001600160a01b0384165f9081526004602052604090206117859061188a565b811015610974576001600160a01b0384165f9081526004602052604090206117ad9082611893565b8282815181106117bf576117bf61299e565b6001600160a01b0390921660209283029190910190910152806117e1816129c6565b915050611765565b5f5b85811015611874576118628787838181106118085761180861299e565b905060200201602081019061181d9190612413565b84848481811061182f5761182f61299e565b90506020020160208101906118449190612413565b8787858181106118565761185661299e565b90506020020135611c73565b8061186c816129c6565b9150506117eb565b50505050505050565b6118878133611fc9565b50565b5f61083b825490565b5f610a668383612002565b5f5f80516020612ab58339815191526118b78484610d16565b611936575f848152602082815260408083206001600160a01b03871684529091529020805460ff191660011790556118ec3390565b6001600160a01b0316836001600160a01b0316857f2f8788117e7eff1d82e926ec794901d17c78024a50270940304540a733656f0d60405160405180910390a4600191505061083b565b5f91505061083b565b5f5f80516020612ab58339815191526119588484610d16565b15611936575f848152602082815260408083206001600160a01b0387168085529252808320805460ff1916905551339287917ff6391f5c32d9c69d2a47ea670b442974b53935d1edc7fd64eb21e047a839171b9190a4600191505061083b565b306001600160a01b037f0000000000000000000000000000000000000000000000000000000000000000161480611a3e57507f00000000000000000000000000000000000000000000000000000000000000006001600160a01b0316611a325f80516020612a95833981519152546001600160a01b031690565b6001600160a01b031614155b156113015760405163703e46dd60e11b815260040160405180910390fd5b5f6108828161187d565b816001600160a01b03166352d1902d6040518163ffffffff1660e01b8152600401602060405180830381865afa925050508015611ac0575060408051601f3d908101601f19168201909252611abd91810190612a04565b60015b611aed57604051634c9c8ce360e01b81526001600160a01b03831660048201526024015b60405180910390fd5b5f80516020612a958339815191528114611b1d57604051632a87526960e21b815260048101829052602401611ae4565b6109ff8383612028565b306001600160a01b037f000000000000000000000000000000000000000000000000000000000000000016146113015760405163703e46dd60e11b815260040160405180910390fd5b6001600160a01b038086165f90815260066020908152604080832088845282528083208785168452825280832093861683529290529081208054839290611bb89084906129de565b90915550505050505050565b611bcc61207d565b611301611fb7565b6001600160a01b038086165f90815260056020908152604080832088845282528083208785168452825280832093861683529290529081208054839290611c1c9084906129de565b90915550506001600160a01b038086165f908152600760209081526040808320888452825280832093871683529290529081208054839290611bb89084906129de565b5f610a66836001600160a01b0384166120c6565b5f546001600160a01b03808416911603611cfa575f5460405163a9059cbb60e01b81526001600160a01b038581166004830152602482018490529091169063a9059cbb906044016020604051808303815f875af1158015611cd6573d5f803e3d5ffd5b505050506040513d601f19601f820116820180604052508101906109c69190612a1b565b5f5460405163095ea7b360e01b81526001600160a01b038481166004830152602482018490529091169063095ea7b3906044016020604051808303815f875af1158015611d49573d5f803e3d5ffd5b505050506040513d601f19601f82011682018060405250810190611d6d9190612a1b565b5060405163af91359560e01b81526001600160a01b0384811660048301526024820183905283169063af913595906044015f604051808303815f87803b158015611db5575f80fd5b505af1158015611874573d5f803e3d5ffd5b5f818310611dd55781610a66565b5090919050565b835f611dea87838787610cd9565b905082811015611e0657611e018783878785612112565b611874565b6118748783878787612112565b5f611e2085858585610cd9565b90505f611e2e8560016129de565b90505f611e3d87838787610c9c565b905082811115611874576001600160a01b038088165f9081526006602090815260408083208684528252808320848a1684528252808320938816835292905220839055611874565b5f5b6001600160a01b0383165f908152600360205260409020611ea79061188a565b811015611f51576001600160a01b0383165f908152600360205260408120611ecf9083611893565b90505f5b6001600160a01b0385165f908152600460205260409020611ef39061188a565b811015611f3c576001600160a01b0385165f908152600460205260408120611f1b9083611893565b9050611f298686838661219d565b5080611f34816129c6565b915050611ed3565b50508080611f49906129c6565b915050611e87565b50611f5d8160016129de565b6001600160a01b0383165f81815260026020526040908190209290925590517fb693195b5ff3e376f8b562486abc516e10fe2467b75f0e4165e79cf4ab70dc4190611fab9084815260200190565b60405180910390a25050565b611fbf61207d565b6118875f3361189e565b611fd38282610d16565b6108825760405163e2517d3f60e01b81526001600160a01b038216600482015260248101839052604401611ae4565b5f825f0182815481106120175761201761299e565b905f5260205f200154905092915050565b6120318261225f565b6040516001600160a01b038316907fbc7cd75a20ee27fd9adebab32041f755214dbc6bffa90cc0225b39da2e5c2d3b905f90a2805115612075576109ff82826122c2565b610882612334565b7ff0c57e16840df040f15088dc2f81fe391c3923bec73e23a9662efc9c229c6a0054600160401b900460ff1661130157604051631afcd79f60e31b815260040160405180910390fd5b5f81815260018301602052604081205461210b57508154600181810184555f84815260208082209093018490558454848252828601909352604090209190915561083b565b505f61083b565b6001600160a01b038086165f9081526005602090815260408083208884528252808320878516845282528083209386168352929052908120805483929061215a9084906129f1565b90915550506001600160a01b038086165f908152600760209081526040808320888452825280832093871683529290529081208054839290611bb89084906129f1565b5f6121aa85858585610cd9565b90505f6121c3866121bc8760016129de565b8686610c9c565b9050818111156121d05750805b5f6121db82846129f1565b90506121f4876121ec8860016129de565b878785611bd4565b6121ff848684611c73565b846001600160a01b031686856001600160a01b03167f3ddb7f725ac69363a1df8296c965af4d268f31b082480dcd8419d284fb7fd342868660405161224e929190918252602082015260400190565b60405180910390a450505050505050565b806001600160a01b03163b5f0361229457604051634c9c8ce360e01b81526001600160a01b0382166004820152602401611ae4565b5f80516020612a9583398151915280546001600160a01b0319166001600160a01b0392909216919091179055565b60605f80846001600160a01b0316846040516122de9190612a59565b5f60405180830381855af49150503d805f8114612316576040519150601f19603f3d011682016040523d82523d5f602084013e61231b565b606091505b509150915061232b858383612353565b95945050505050565b34156113015760405163b398979f60e01b815260040160405180910390fd5b60608261236857612363826123af565b610a66565b815115801561237f57506001600160a01b0384163b155b156123a857604051639996b31560e01b81526001600160a01b0385166004820152602401611ae4565b5080610a66565b8051156123bf5780518082602001fd5b604051630a12f52160e11b815260040160405180910390fd5b5f602082840312156123e8575f80fd5b81356001600160e01b031981168114610a66575f80fd5b6001600160a01b0381168114611887575f80fd5b5f60208284031215612423575f80fd5b8135610a66816123ff565b5f6020828403121561243e575f80fd5b5035919050565b602080825282518282018190525f9190848201906040850190845b818110156124855783516001600160a01b031683529284019291840191600101612460565b50909695505050505050565b5f80604083850312156124a2575f80fd5b8235915060208301356124b4816123ff565b809150509250929050565b5f80604083850312156124d0575f80fd5b82356124db816123ff565b915060208301356124b4816123ff565b634e487b7160e01b5f52604160045260245ffd5b5f8060408385031215612510575f80fd5b823561251b816123ff565b9150602083013567ffffffffffffffff80821115612537575f80fd5b818501915085601f83011261254a575f80fd5b81358181111561255c5761255c6124eb565b604051601f8201601f19908116603f01168101908382118183101715612584576125846124eb565b8160405282815288602084870101111561259c575f80fd5b826020860160208301375f6020848301015280955050505050509250929050565b5f805f606084860312156125cf575f80fd5b83356125da816123ff565b92506020840135915060408401356125f1816123ff565b809150509250925092565b5f805f6060848603121561260e575f80fd5b8335612619816123ff565b92506020840135612629816123ff565b929592945050506040919091013590565b5f805f806080858703121561264d575f80fd5b8435612658816123ff565b935060208501359250604085013561266f816123ff565b9150606085013561267f816123ff565b939692955090935050565b5f805f6060848603121561269c575f80fd5b83356126a7816123ff565b925060208401356126b7816123ff565b915060408401356125f1816123ff565b5f8083601f8401126126d7575f80fd5b50813567ffffffffffffffff8111156126ee575f80fd5b6020830191508360208260051b8501011115612708575f80fd5b9250929050565b5f805f805f805f6080888a031215612725575f80fd5b8735612730816123ff565b9650602088013567ffffffffffffffff8082111561274c575f80fd5b6127588b838c016126c7565b909850965060408a0135915080821115612770575f80fd5b61277c8b838c016126c7565b909650945060608a0135915080821115612794575f80fd5b506127a18a828b016126c7565b989b979a50959850939692959293505050565b5f805f805f805f806080898b0312156127cb575f80fd5b883567ffffffffffffffff808211156127e2575f80fd5b6127ee8c838d016126c7565b909a50985060208b0135915080821115612806575f80fd5b6128128c838d016126c7565b909850965060408b013591508082111561282a575f80fd5b6128368c838d016126c7565b909650945060608b013591508082111561284e575f80fd5b5061285b8b828c016126c7565b999c989b5096995094979396929594505050565b5f5b83811015612889578181015183820152602001612871565b50505f910152565b602081525f82518060208401526128af81604085016020870161286f565b601f01601f19169190910160400192915050565b5f805f604084860312156128d5575f80fd5b83359250602084013567ffffffffffffffff8111156128f2575f80fd5b6128fe868287016126c7565b9497909650939450505050565b5f805f805f8060608789031215612920575f80fd5b863567ffffffffffffffff80821115612937575f80fd5b6129438a838b016126c7565b9098509650602089013591508082111561295b575f80fd5b6129678a838b016126c7565b9096509450604089013591508082111561297f575f80fd5b5061298c89828a016126c7565b979a9699509497509295939492505050565b634e487b7160e01b5f52603260045260245ffd5b634e487b7160e01b5f52601160045260245ffd5b5f600182016129d7576129d76129b2565b5060010190565b8082018082111561083b5761083b6129b2565b8181038181111561083b5761083b6129b2565b5f60208284031215612a14575f80fd5b5051919050565b5f60208284031215612a2b575f80fd5b81518015158114610a66575f80fd5b5f82612a5457634e487b7160e01b5f52601260045260245ffd5b500490565b5f8251612a6a81846020870161286f565b919091019291505056fedc72ed553f2544c34465af23b847953efeb813428162d767f9ba5f4013be6760360894a13ba1a3210667c828492db98dca3e2076cc3735a920a3ca505d382bbc02dd7bc7dec4dceedda775e58dd541e08a116c6c53815c0bd028192f7b626800a26469706673582212201f2c41ffab524de49ffd2b4d82e1585f4c7c9b50c309a8267341915d9ee9dc5c64736f6c63430008150033","linkReferences":{}},"methodIdentifiers":{"DEFAULT_ADMIN_ROLE()":"a217fddf","UPGRADE_INTERFACE_VERSION()":"ad3cb1cc","WHITELIST_ROLE()":"7a997ab7","acceptGenesisCeremony()":"92a2ebf3","currentEpochByDomain(address)":"0a0b1b64","epochDurationByDomain(address)":"3bccf635","epochStakesByDomain(address,uint256,address,address)":"c0b95ab8","epochTotalStakeByDomain(address,uint256,address)":"54300d7a","epochUnstakesByDomain(address,uint256,address,address)":"65f1ea20","getAttestersByDomain(address)":"2924b73b","getCurrentEpoch(address)":"4d3223a5","getCurrentEpochStake(address,address,address)":"70224360","getCurrentEpochUnstake(address,address,address)":"7667b76d","getCustodiansByDomain(address)":"d5ca03de","getEpochByBlockTime(address)":"c3471ff8","getNextEpoch(address)":"8489e580","getNextEpochByBlockTime(address)":"2c7785a8","getRoleAdmin(bytes32)":"248a9ca3","getStakeAtEpoch(address,uint256,address,address)":"8d908258","getTotalStakeForCurrentEpoch(address,address)":"44198e4d","getTotalStakeForEpoch(address,uint256,address)":"5cdf3155","getUnstakeAtEpoch(address,uint256,address,address)":"879b938b","grantRole(bytes32,address)":"2f2ff15d","hasRole(bytes32,address)":"91d14854","initialize()":"8129fc1c","initialize(address)":"c4d66de8","proxiableUUID()":"52d1902d","registerDomain(uint256,address[])":"d37304f8","removeAddressFromWhitelist(address)":"286dd3f5","renounceRole(bytes32,address)":"36568abe","revokeRole(bytes32,address)":"d547741f","reward(address[],uint256[],address[])":"da33ee7f","rollOverEpoch()":"a887b71c","setGenesisCeremony(address,address[],address[],uint256[])":"a0f94656","slash(address[],address[],uint256[],uint256[])":"a885c975","stake(address,address,uint256)":"bf6eac2f","supportsInterface(bytes4)":"01ffc9a7","token()":"fc0c546a","unstake(address,address,uint256)":"60829f8a","upgradeToAndCall(address,bytes)":"4f1ef286","whitelistAddress(address)":"41566585"},"storageLayout":{"storage":[{"astId":51333,"contract":"src/staking/MovementStaking.sol:MovementStaking","label":"token","offset":0,"slot":"0","type":"t_contract(IERC20)45589"},{"astId":51337,"contract":"src/staking/MovementStaking.sol:MovementStaking","label":"epochDurationByDomain","offset":0,"slot":"1","type":"t_mapping(t_address,t_uint256)"},{"astId":51341,"contract":"src/staking/MovementStaking.sol:MovementStaking","label":"currentEpochByDomain","offset":0,"slot":"2","type":"t_mapping(t_address,t_uint256)"},{"astId":51346,"contract":"src/staking/MovementStaking.sol:MovementStaking","label":"attestersByDomain","offset":0,"slot":"3","type":"t_mapping(t_address,t_struct(AddressSet)47726_storage)"},{"astId":51351,"contract":"src/staking/MovementStaking.sol:MovementStaking","label":"custodiansByDomain","offset":0,"slot":"4","type":"t_mapping(t_address,t_struct(AddressSet)47726_storage)"},{"astId":51361,"contract":"src/staking/MovementStaking.sol:MovementStaking","label":"epochStakesByDomain","offset":0,"slot":"5","type":"t_mapping(t_address,t_mapping(t_uint256,t_mapping(t_address,t_mapping(t_address,t_uint256))))"},{"astId":51371,"contract":"src/staking/MovementStaking.sol:MovementStaking","label":"epochUnstakesByDomain","offset":0,"slot":"6","type":"t_mapping(t_address,t_mapping(t_uint256,t_mapping(t_address,t_mapping(t_address,t_uint256))))"},{"astId":51379,"contract":"src/staking/MovementStaking.sol:MovementStaking","label":"epochTotalStakeByDomain","offset":0,"slot":"7","type":"t_mapping(t_address,t_mapping(t_uint256,t_mapping(t_address,t_uint256)))"}],"types":{"t_address":{"encoding":"inplace","label":"address","numberOfBytes":"20"},"t_array(t_bytes32)dyn_storage":{"encoding":"dynamic_array","label":"bytes32[]","numberOfBytes":"32","base":"t_bytes32"},"t_bytes32":{"encoding":"inplace","label":"bytes32","numberOfBytes":"32"},"t_contract(IERC20)45589":{"encoding":"inplace","label":"contract IERC20","numberOfBytes":"20"},"t_mapping(t_address,t_mapping(t_address,t_uint256))":{"encoding":"mapping","key":"t_address","label":"mapping(address => mapping(address => uint256))","numberOfBytes":"32","value":"t_mapping(t_address,t_uint256)"},"t_mapping(t_address,t_mapping(t_uint256,t_mapping(t_address,t_mapping(t_address,t_uint256))))":{"encoding":"mapping","key":"t_address","label":"mapping(address => mapping(uint256 => mapping(address => mapping(address => uint256))))","numberOfBytes":"32","value":"t_mapping(t_uint256,t_mapping(t_address,t_mapping(t_address,t_uint256)))"},"t_mapping(t_address,t_mapping(t_uint256,t_mapping(t_address,t_uint256)))":{"encoding":"mapping","key":"t_address","label":"mapping(address => mapping(uint256 => mapping(address => uint256)))","numberOfBytes":"32","value":"t_mapping(t_uint256,t_mapping(t_address,t_uint256))"},"t_mapping(t_address,t_struct(AddressSet)47726_storage)":{"encoding":"mapping","key":"t_address","label":"mapping(address => struct EnumerableSet.AddressSet)","numberOfBytes":"32","value":"t_struct(AddressSet)47726_storage"},"t_mapping(t_address,t_uint256)":{"encoding":"mapping","key":"t_address","label":"mapping(address => uint256)","numberOfBytes":"32","value":"t_uint256"},"t_mapping(t_bytes32,t_uint256)":{"encoding":"mapping","key":"t_bytes32","label":"mapping(bytes32 => uint256)","numberOfBytes":"32","value":"t_uint256"},"t_mapping(t_uint256,t_mapping(t_address,t_mapping(t_address,t_uint256)))":{"encoding":"mapping","key":"t_uint256","label":"mapping(uint256 => mapping(address => mapping(address => uint256)))","numberOfBytes":"32","value":"t_mapping(t_address,t_mapping(t_address,t_uint256))"},"t_mapping(t_uint256,t_mapping(t_address,t_uint256))":{"encoding":"mapping","key":"t_uint256","label":"mapping(uint256 => mapping(address => uint256))","numberOfBytes":"32","value":"t_mapping(t_address,t_uint256)"},"t_struct(AddressSet)47726_storage":{"encoding":"inplace","label":"struct EnumerableSet.AddressSet","numberOfBytes":"64","members":[{"astId":47725,"contract":"src/staking/MovementStaking.sol:MovementStaking","label":"_inner","offset":0,"slot":"0","type":"t_struct(Set)47411_storage"}]},"t_struct(Set)47411_storage":{"encoding":"inplace","label":"struct EnumerableSet.Set","numberOfBytes":"64","members":[{"astId":47406,"contract":"src/staking/MovementStaking.sol:MovementStaking","label":"_values","offset":0,"slot":"0","type":"t_array(t_bytes32)dyn_storage"},{"astId":47410,"contract":"src/staking/MovementStaking.sol:MovementStaking","label":"_positions","offset":0,"slot":"1","type":"t_mapping(t_bytes32,t_uint256)"}]},"t_uint256":{"encoding":"inplace","label":"uint256","numberOfBytes":"32"}}},"id":53}