{"abi":[{"type":"function","name":"DEFAULT_ADMIN_ROLE","inputs":[],"outputs":[{"name":"","type":"bytes32","internalType":"bytes32"}],"stateMutability":"view"},{"type":"function","name":"MINTER_ADMIN_ROLE","inputs":[],"outputs":[{"name":"","type":"bytes32","internalType":"bytes32"}],"stateMutability":"view"},{"type":"function","name":"MINTER_ROLE","inputs":[],"outputs":[{"name":"","type":"bytes32","internalType":"bytes32"}],"stateMutability":"view"},{"type":"function","name":"UPGRADE_INTERFACE_VERSION","inputs":[],"outputs":[{"name":"","type":"string","internalType":"string"}],"stateMutability":"view"},{"type":"function","name":"allowance","inputs":[{"name":"owner","type":"address","internalType":"address"},{"name":"spender","type":"address","internalType":"address"}],"outputs":[{"name":"","type":"uint256","internalType":"uint256"}],"stateMutability":"view"},{"type":"function","name":"approve","inputs":[{"name":"spender","type":"address","internalType":"address"},{"name":"value","type":"uint256","internalType":"uint256"}],"outputs":[{"name":"","type":"bool","internalType":"bool"}],"stateMutability":"nonpayable"},{"type":"function","name":"balanceOf","inputs":[{"name":"account","type":"address","internalType":"address"}],"outputs":[{"name":"","type":"uint256","internalType":"uint256"}],"stateMutability":"view"},{"type":"function","name":"decimals","inputs":[],"outputs":[{"name":"","type":"uint8","internalType":"uint8"}],"stateMutability":"view"},{"type":"function","name":"getRoleAdmin","inputs":[{"name":"role","type":"bytes32","internalType":"bytes32"}],"outputs":[{"name":"","type":"bytes32","internalType":"bytes32"}],"stateMutability":"view"},{"type":"function","name":"grantMinterRole","inputs":[{"name":"account","type":"address","internalType":"address"}],"outputs":[],"stateMutability":"nonpayable"},{"type":"function","name":"grantRole","inputs":[{"name":"role","type":"bytes32","internalType":"bytes32"},{"name":"account","type":"address","internalType":"address"}],"outputs":[],"stateMutability":"nonpayable"},{"type":"function","name":"hasMinterRole","inputs":[{"name":"account","type":"address","internalType":"address"}],"outputs":[{"name":"","type":"bool","internalType":"bool"}],"stateMutability":"view"},{"type":"function","name":"hasRole","inputs":[{"name":"role","type":"bytes32","internalType":"bytes32"},{"name":"account","type":"address","internalType":"address"}],"outputs":[{"name":"","type":"bool","internalType":"bool"}],"stateMutability":"view"},{"type":"function","name":"initialize","inputs":[{"name":"name","type":"string","internalType":"string"},{"name":"symbol","type":"string","internalType":"string"}],"outputs":[],"stateMutability":"nonpayable"},{"type":"function","name":"initialize","inputs":[],"outputs":[],"stateMutability":"nonpayable"},{"type":"function","name":"mint","inputs":[{"name":"to","type":"address","internalType":"address"},{"name":"amount","type":"uint256","internalType":"uint256"}],"outputs":[],"stateMutability":"nonpayable"},{"type":"function","name":"name","inputs":[],"outputs":[{"name":"","type":"string","internalType":"string"}],"stateMutability":"view"},{"type":"function","name":"proxiableUUID","inputs":[],"outputs":[{"name":"","type":"bytes32","internalType":"bytes32"}],"stateMutability":"view"},{"type":"function","name":"renounceRole","inputs":[{"name":"role","type":"bytes32","internalType":"bytes32"},{"name":"callerConfirmation","type":"address","internalType":"address"}],"outputs":[],"stateMutability":"nonpayable"},{"type":"function","name":"revokeMinterRole","inputs":[{"name":"account","type":"address","internalType":"address"}],"outputs":[],"stateMutability":"nonpayable"},{"type":"function","name":"revokeRole","inputs":[{"name":"role","type":"bytes32","internalType":"bytes32"},{"name":"account","type":"address","internalType":"address"}],"outputs":[],"stateMutability":"nonpayable"},{"type":"function","name":"supportsInterface","inputs":[{"name":"interfaceId","type":"bytes4","internalType":"bytes4"}],"outputs":[{"name":"","type":"bool","internalType":"bool"}],"stateMutability":"view"},{"type":"function","name":"symbol","inputs":[],"outputs":[{"name":"","type":"string","internalType":"string"}],"stateMutability":"view"},{"type":"function","name":"totalSupply","inputs":[],"outputs":[{"name":"","type":"uint256","internalType":"uint256"}],"stateMutability":"view"},{"type":"function","name":"transfer","inputs":[{"name":"to","type":"address","internalType":"address"},{"name":"value","type":"uint256","internalType":"uint256"}],"outputs":[{"name":"","type":"bool","internalType":"bool"}],"stateMutability":"nonpayable"},{"type":"function","name":"transferFrom","inputs":[{"name":"from","type":"address","internalType":"address"},{"name":"to","type":"address","internalType":"address"},{"name":"value","type":"uint256","internalType":"uint256"}],"outputs":[{"name":"","type":"bool","internalType":"bool"}],"stateMutability":"nonpayable"},{"type":"function","name":"upgradeToAndCall","inputs":[{"name":"newImplementation","type":"address","internalType":"address"},{"name":"data","type":"bytes","internalType":"bytes"}],"outputs":[],"stateMutability":"payable"},{"type":"event","name":"Approval","inputs":[{"name":"owner","type":"address","indexed":true,"internalType":"address"},{"name":"spender","type":"address","indexed":true,"internalType":"address"},{"name":"value","type":"uint256","indexed":false,"internalType":"uint256"}],"anonymous":false},{"type":"event","name":"Initialized","inputs":[{"name":"version","type":"uint64","indexed":false,"internalType":"uint64"}],"anonymous":false},{"type":"event","name":"RoleAdminChanged","inputs":[{"name":"role","type":"bytes32","indexed":true,"internalType":"bytes32"},{"name":"previousAdminRole","type":"bytes32","indexed":true,"internalType":"bytes32"},{"name":"newAdminRole","type":"bytes32","indexed":true,"internalType":"bytes32"}],"anonymous":false},{"type":"event","name":"RoleGranted","inputs":[{"name":"role","type":"bytes32","indexed":true,"internalType":"bytes32"},{"name":"account","type":"address","indexed":true,"internalType":"address"},{"name":"sender","type":"address","indexed":true,"internalType":"address"}],"anonymous":false},{"type":"event","name":"RoleRevoked","inputs":[{"name":"role","type":"bytes32","indexed":true,"internalType":"bytes32"},{"name":"account","type":"address","indexed":true,"internalType":"address"},{"name":"sender","type":"address","indexed":true,"internalType":"address"}],"anonymous":false},{"type":"event","name":"Transfer","inputs":[{"name":"from","type":"address","indexed":true,"internalType":"address"},{"name":"to","type":"address","indexed":true,"internalType":"address"},{"name":"value","type":"uint256","indexed":false,"internalType":"uint256"}],"anonymous":false},{"type":"event","name":"Upgraded","inputs":[{"name":"implementation","type":"address","indexed":true,"internalType":"address"}],"anonymous":false},{"type":"error","name":"AccessControlBadConfirmation","inputs":[]},{"type":"error","name":"AccessControlUnauthorizedAccount","inputs":[{"name":"account","type":"address","internalType":"address"},{"name":"neededRole","type":"bytes32","internalType":"bytes32"}]},{"type":"error","name":"AddressEmptyCode","inputs":[{"name":"target","type":"address","internalType":"address"}]},{"type":"error","name":"ERC1967InvalidImplementation","inputs":[{"name":"implementation","type":"address","internalType":"address"}]},{"type":"error","name":"ERC1967NonPayable","inputs":[]},{"type":"error","name":"ERC20InsufficientAllowance","inputs":[{"name":"spender","type":"address","internalType":"address"},{"name":"allowance","type":"uint256","internalType":"uint256"},{"name":"needed","type":"uint256","internalType":"uint256"}]},{"type":"error","name":"ERC20InsufficientBalance","inputs":[{"name":"sender","type":"address","internalType":"address"},{"name":"balance","type":"uint256","internalType":"uint256"},{"name":"needed","type":"uint256","internalType":"uint256"}]},{"type":"error","name":"ERC20InvalidApprover","inputs":[{"name":"approver","type":"address","internalType":"address"}]},{"type":"error","name":"ERC20InvalidReceiver","inputs":[{"name":"receiver","type":"address","internalType":"address"}]},{"type":"error","name":"ERC20InvalidSender","inputs":[{"name":"sender","type":"address","internalType":"address"}]},{"type":"error","name":"ERC20InvalidSpender","inputs":[{"name":"spender","type":"address","internalType":"address"}]},{"type":"error","name":"FailedInnerCall","inputs":[]},{"type":"error","name":"InvalidInitialization","inputs":[]},{"type":"error","name":"NotInitializing","inputs":[]},{"type":"error","name":"UUPSUnauthorizedCallContext","inputs":[]},{"type":"error","name":"UUPSUnsupportedProxiableUUID","inputs":[{"name":"slot","type":"bytes32","internalType":"bytes32"}]}],"bytecode":{"object":"0x60a0604052306080523480156012575f80fd5b506080516119166100395f395f8181610c1f01528181610c480152610d8901526119165ff3fe608060405260043610610195575f3560e01c80634cd88b76116100e757806395d89b4111610087578063ad3cb1cc11610062578063ad3cb1cc14610482578063d5391393146104b2578063d547741f146104d2578063dd62ed3e146104f1575f80fd5b806395d89b411461043c578063a217fddf14610450578063a9059cbb14610463575f80fd5b806369e2f0fb116100c257806369e2f0fb146103aa57806370a08231146103c95780638129fc1c1461040957806391d148541461041d575f80fd5b80634cd88b76146103645780634f1ef2861461038357806352d1902d14610396575f80fd5b806323b872dd11610152578063313ce5671161012d578063313ce567146102ec57806336568abe146103075780633dd1eb611461032657806340c10f1914610345575f80fd5b806323b872dd1461028d578063248a9ca3146102ac5780632f2ff15d146102cb575f80fd5b806301ffc9a71461019957806306fdde03146101cd578063095ea7b3146101ee578063099db0171461020d5780631339324b1461022c57806318160ddd1461025a575b5f80fd5b3480156101a4575f80fd5b506101b86101b33660046112f0565b610510565b60405190151581526020015b60405180910390f35b3480156101d8575f80fd5b506101e1610546565b6040516101c49190611317565b3480156101f9575f80fd5b506101b8610208366004611367565b610606565b348015610218575f80fd5b506101b861022736600461138f565b61061d565b348015610237575f80fd5b5061024c5f8051602061186183398151915281565b6040519081526020016101c4565b348015610265575f80fd5b507f52c63247e1f47db19d5ce0460030c497f067ca4cebf71ba98eeadabe20bace025461024c565b348015610298575f80fd5b506101b86102a73660046113a8565b610635565b3480156102b7575f80fd5b5061024c6102c63660046113e2565b61065a565b3480156102d6575f80fd5b506102ea6102e53660046113f9565b61067a565b005b3480156102f7575f80fd5b50604051601281526020016101c4565b348015610312575f80fd5b506102ea6103213660046113f9565b61069c565b348015610331575f80fd5b506102ea61034036600461138f565b6106d4565b348015610350575f80fd5b506102ea61035f366004611367565b610702565b34801561036f575f80fd5b506102ea61037e3660046114cc565b610723565b6102ea610391366004611531565b610833565b3480156103a1575f80fd5b5061024c610852565b3480156103b5575f80fd5b506102ea6103c436600461138f565b61086d565b3480156103d4575f80fd5b5061024c6103e336600461138f565b6001600160a01b03165f9081525f80516020611841833981519152602052604090205490565b348015610414575f80fd5b506102ea61089b565b348015610428575f80fd5b506101b86104373660046113f9565b6108e5565b348015610447575f80fd5b506101e161091b565b34801561045b575f80fd5b5061024c5f81565b34801561046e575f80fd5b506101b861047d366004611367565b610959565b34801561048d575f80fd5b506101e1604051806040016040528060058152602001640352e302e360dc1b81525081565b3480156104bd575f80fd5b5061024c5f805160206118a183398151915281565b3480156104dd575f80fd5b506102ea6104ec3660046113f9565b610966565b3480156104fc575f80fd5b5061024c61050b366004611585565b610982565b5f6001600160e01b03198216637965db0b60e01b148061054057506301ffc9a760e01b6001600160e01b03198316145b92915050565b7f52c63247e1f47db19d5ce0460030c497f067ca4cebf71ba98eeadabe20bace0380546060915f8051602061184183398151915291610584906115ad565b80601f01602080910402602001604051908101604052809291908181526020018280546105b0906115ad565b80156105fb5780601f106105d2576101008083540402835291602001916105fb565b820191905f5260205f20905b8154815290600101906020018083116105de57829003601f168201915b505050505091505090565b5f336106138185856109cb565b5060019392505050565b5f6105405f805160206118a1833981519152836108e5565b5f336106428582856109d8565b61064d858585610a3a565b60019150505b9392505050565b5f9081525f805160206118c1833981519152602052604090206001015490565b6106838261065a565b61068c81610a97565b6106968383610aa4565b50505050565b6001600160a01b03811633146106c55760405163334bd91960e11b815260040160405180910390fd5b6106cf8282610b45565b505050565b5f805160206118618339815191526106eb81610a97565b6106cf5f805160206118a183398151915283610aa4565b5f805160206118a183398151915261071981610a97565b6106cf8383610bbe565b7ff0c57e16840df040f15088dc2f81fe391c3923bec73e23a9662efc9c229c6a008054600160401b810460ff16159067ffffffffffffffff165f811580156107685750825b90505f8267ffffffffffffffff1660011480156107845750303b155b905081158015610792575080155b156107b05760405163f92ee8a960e01b815260040160405180910390fd5b845467ffffffffffffffff1916600117855583156107da57845460ff60401b1916600160401b1785555b6107e48787610bf2565b831561082a57845460ff60401b19168555604051600181527fc7f505b2f371ae2175ee4913f4499e1f2633a7b5936321eed1cdaeb6115181d29060200160405180910390a15b50505050505050565b61083b610c14565b61084482610cb8565b61084e8282610cc2565b5050565b5f61085b610d7e565b505f8051602061188183398151915290565b5f8051602061186183398151915261088481610a97565b6106cf5f805160206118a183398151915283610b45565b6108e36040518060400160405280600a81526020016926b7bb32902a37b5b2b760b11b815250604051806040016040528060048152602001634d4f564560e01b815250610723565b565b5f9182525f805160206118c1833981519152602090815260408084206001600160a01b0393909316845291905290205460ff1690565b7f52c63247e1f47db19d5ce0460030c497f067ca4cebf71ba98eeadabe20bace0480546060915f8051602061184183398151915291610584906115ad565b5f33610613818585610a3a565b61096f8261065a565b61097881610a97565b6106968383610b45565b6001600160a01b039182165f9081527f52c63247e1f47db19d5ce0460030c497f067ca4cebf71ba98eeadabe20bace016020908152604080832093909416825291909152205490565b6106cf8383836001610dc7565b5f6109e38484610982565b90505f1981146106965781811015610a2c57604051637dc7a0d960e11b81526001600160a01b038416600482015260248101829052604481018390526064015b60405180910390fd5b61069684848484035f610dc7565b6001600160a01b038316610a6357604051634b637e8f60e11b81525f6004820152602401610a23565b6001600160a01b038216610a8c5760405163ec442f0560e01b81525f6004820152602401610a23565b6106cf838383610eab565b610aa18133610fe4565b50565b5f5f805160206118c1833981519152610abd84846108e5565b610b3c575f848152602082815260408083206001600160a01b03871684529091529020805460ff19166001179055610af23390565b6001600160a01b0316836001600160a01b0316857f2f8788117e7eff1d82e926ec794901d17c78024a50270940304540a733656f0d60405160405180910390a46001915050610540565b5f915050610540565b5f5f805160206118c1833981519152610b5e84846108e5565b15610b3c575f848152602082815260408083206001600160a01b0387168085529252808320805460ff1916905551339287917ff6391f5c32d9c69d2a47ea670b442974b53935d1edc7fd64eb21e047a839171b9190a46001915050610540565b6001600160a01b038216610be75760405163ec442f0560e01b81525f6004820152602401610a23565b61084e5f8383610eab565b610bfa61101d565b610c048282611066565b610c0c6110b6565b61084e6110eb565b306001600160a01b037f0000000000000000000000000000000000000000000000000000000000000000161480610c9a57507f00000000000000000000000000000000000000000000000000000000000000006001600160a01b0316610c8e5f80516020611881833981519152546001600160a01b031690565b6001600160a01b031614155b156108e35760405163703e46dd60e11b815260040160405180910390fd5b5f61084e81610a97565b816001600160a01b03166352d1902d6040518163ffffffff1660e01b8152600401602060405180830381865afa925050508015610d1c575060408051601f3d908101601f19168201909252610d19918101906115e5565b60015b610d4457604051634c9c8ce360e01b81526001600160a01b0383166004820152602401610a23565b5f805160206118818339815191528114610d7457604051632a87526960e21b815260048101829052602401610a23565b6106cf8383611122565b306001600160a01b037f000000000000000000000000000000000000000000000000000000000000000016146108e35760405163703e46dd60e11b815260040160405180910390fd5b5f805160206118418339815191526001600160a01b038516610dfe5760405163e602df0560e01b81525f6004820152602401610a23565b6001600160a01b038416610e2757604051634a1406b160e11b81525f6004820152602401610a23565b6001600160a01b038086165f90815260018301602090815260408083209388168352929052208390558115610ea457836001600160a01b0316856001600160a01b03167f8c5be1e5ebec7d5bd14f71427d1e84f3dd0314c0f7b2291e5b200ac8c7c3b92585604051610e9b91815260200190565b60405180910390a35b5050505050565b5f805160206118418339815191526001600160a01b038416610ee55781816002015f828254610eda9190611610565b90915550610f559050565b6001600160a01b0384165f9081526020829052604090205482811015610f375760405163391434e360e21b81526001600160a01b03861660048201526024810182905260448101849052606401610a23565b6001600160a01b0385165f9081526020839052604090209083900390555b6001600160a01b038316610f73576002810180548390039055610f91565b6001600160a01b0383165f9081526020829052604090208054830190555b826001600160a01b0316846001600160a01b03167fddf252ad1be2c89b69c2b068fc378daa952ba7f163c4a11628f55a4df523b3ef84604051610fd691815260200190565b60405180910390a350505050565b610fee82826108e5565b61084e5760405163e2517d3f60e01b81526001600160a01b038216600482015260248101839052604401610a23565b7ff0c57e16840df040f15088dc2f81fe391c3923bec73e23a9662efc9c229c6a0054600160401b900460ff166108e357604051631afcd79f60e31b815260040160405180910390fd5b61106e61101d565b5f805160206118418339815191527f52c63247e1f47db19d5ce0460030c497f067ca4cebf71ba98eeadabe20bace036110a78482611667565b50600481016106968382611667565b6110be61101d565b6110c85f33610aa4565b506108e3306110d96012600a611805565b6110e690620f4240611813565b610bbe565b6110f361101d565b61110a5f8051602061186183398151915233610aa4565b50610aa15f805160206118a183398151915233610aa4565b61112b82611177565b6040516001600160a01b038316907fbc7cd75a20ee27fd9adebab32041f755214dbc6bffa90cc0225b39da2e5c2d3b905f90a280511561116f576106cf82826111da565b61084e61124c565b806001600160a01b03163b5f036111ac57604051634c9c8ce360e01b81526001600160a01b0382166004820152602401610a23565b5f8051602061188183398151915280546001600160a01b0319166001600160a01b0392909216919091179055565b60605f80846001600160a01b0316846040516111f6919061182a565b5f60405180830381855af49150503d805f811461122e576040519150601f19603f3d011682016040523d82523d5f602084013e611233565b606091505b509150915061124385838361126b565b95945050505050565b34156108e35760405163b398979f60e01b815260040160405180910390fd5b6060826112805761127b826112c7565b610653565b815115801561129757506001600160a01b0384163b155b156112c057604051639996b31560e01b81526001600160a01b0385166004820152602401610a23565b5080610653565b8051156112d75780518082602001fd5b604051630a12f52160e11b815260040160405180910390fd5b5f60208284031215611300575f80fd5b81356001600160e01b031981168114610653575f80fd5b602081525f82518060208401528060208501604085015e5f604082850101526040601f19601f83011684010191505092915050565b80356001600160a01b0381168114611362575f80fd5b919050565b5f8060408385031215611378575f80fd5b6113818361134c565b946020939093013593505050565b5f6020828403121561139f575f80fd5b6106538261134c565b5f805f606084860312156113ba575f80fd5b6113c38461134c565b92506113d16020850161134c565b929592945050506040919091013590565b5f602082840312156113f2575f80fd5b5035919050565b5f806040838503121561140a575f80fd5b8235915061141a6020840161134c565b90509250929050565b634e487b7160e01b5f52604160045260245ffd5b5f8067ffffffffffffffff84111561145157611451611423565b50604051601f19601f85018116603f0116810181811067ffffffffffffffff8211171561148057611480611423565b604052838152905080828401851015611497575f80fd5b838360208301375f60208583010152509392505050565b5f82601f8301126114bd575f80fd5b61065383833560208501611437565b5f80604083850312156114dd575f80fd5b823567ffffffffffffffff8111156114f3575f80fd5b6114ff858286016114ae565b925050602083013567ffffffffffffffff81111561151b575f80fd5b611527858286016114ae565b9150509250929050565b5f8060408385031215611542575f80fd5b61154b8361134c565b9150602083013567ffffffffffffffff811115611566575f80fd5b8301601f81018513611576575f80fd5b61152785823560208401611437565b5f8060408385031215611596575f80fd5b61159f8361134c565b915061141a6020840161134c565b600181811c908216806115c157607f821691505b6020821081036115df57634e487b7160e01b5f52602260045260245ffd5b50919050565b5f602082840312156115f5575f80fd5b5051919050565b634e487b7160e01b5f52601160045260245ffd5b80820180821115610540576105406115fc565b601f8211156106cf57805f5260205f20601f840160051c810160208510156116485750805b601f840160051c820191505b81811015610ea4575f8155600101611654565b815167ffffffffffffffff81111561168157611681611423565b6116958161168f84546115ad565b84611623565b6020601f8211600181146116c7575f83156116b05750848201515b5f19600385901b1c1916600184901b178455610ea4565b5f84815260208120601f198516915b828110156116f657878501518255602094850194600190920191016116d6565b508482101561171357868401515f19600387901b60f8161c191681555b50505050600190811b01905550565b6001815b600184111561175d57808504811115611741576117416115fc565b600184161561174f57908102905b60019390931c928002611726565b935093915050565b5f8261177357506001610540565b8161177f57505f610540565b8160018114611795576002811461179f576117bb565b6001915050610540565b60ff8411156117b0576117b06115fc565b50506001821b610540565b5060208310610133831016604e8410600b84101617156117de575081810a610540565b6117ea5f198484611722565b805f19048211156117fd576117fd6115fc565b029392505050565b5f61065360ff841683611765565b8082028115828204841417610540576105406115fc565b5f82518060208501845e5f92019182525091905056fe52c63247e1f47db19d5ce0460030c497f067ca4cebf71ba98eeadabe20bace0070480ee89cb38eff00b7d23da25713d52ce19c6ed428691d22c58b2f615e3d67360894a13ba1a3210667c828492db98dca3e2076cc3735a920a3ca505d382bbc9f2df0fed2c77648de5860a4cc508cd0818c85b8b8a1ab4ceeef8d981c8956a602dd7bc7dec4dceedda775e58dd541e08a116c6c53815c0bd028192f7b626800a26469706673582212202023ced50b0d7e726434687195fb04a1d8d2d965eb1e3d484688acbb776565a264736f6c634300081a0033","linkReferences":{}},"methodIdentifiers":{"DEFAULT_ADMIN_ROLE()":"a217fddf","MINTER_ADMIN_ROLE()":"1339324b","MINTER_ROLE()":"d5391393","UPGRADE_INTERFACE_VERSION()":"ad3cb1cc","allowance(address,address)":"dd62ed3e","approve(address,uint256)":"095ea7b3","balanceOf(address)":"70a08231","decimals()":"313ce567","getRoleAdmin(bytes32)":"248a9ca3","grantMinterRole(address)":"3dd1eb61","grantRole(bytes32,address)":"2f2ff15d","hasMinterRole(address)":"099db017","hasRole(bytes32,address)":"91d14854","initialize()":"8129fc1c","initialize(string,string)":"4cd88b76","mint(address,uint256)":"40c10f19","name()":"06fdde03","proxiableUUID()":"52d1902d","renounceRole(bytes32,address)":"36568abe","revokeMinterRole(address)":"69e2f0fb","revokeRole(bytes32,address)":"d547741f","supportsInterface(bytes4)":"01ffc9a7","symbol()":"95d89b41","totalSupply()":"18160ddd","transfer(address,uint256)":"a9059cbb","transferFrom(address,address,uint256)":"23b872dd","upgradeToAndCall(address,bytes)":"4f1ef286"},"storageLayout":{"storage":[],"types":{}},"id":72}