{"abi":[{"type":"function","name":"DEFAULT_ADMIN_ROLE","inputs":[],"outputs":[{"name":"","type":"bytes32","internalType":"bytes32"}],"stateMutability":"view"},{"type":"function","name":"MINTER_ADMIN_ROLE","inputs":[],"outputs":[{"name":"","type":"bytes32","internalType":"bytes32"}],"stateMutability":"view"},{"type":"function","name":"MINTER_ROLE","inputs":[],"outputs":[{"name":"","type":"bytes32","internalType":"bytes32"}],"stateMutability":"view"},{"type":"function","name":"UPGRADE_INTERFACE_VERSION","inputs":[],"outputs":[{"name":"","type":"string","internalType":"string"}],"stateMutability":"view"},{"type":"function","name":"allowance","inputs":[{"name":"owner","type":"address","internalType":"address"},{"name":"spender","type":"address","internalType":"address"}],"outputs":[{"name":"","type":"uint256","internalType":"uint256"}],"stateMutability":"view"},{"type":"function","name":"approve","inputs":[{"name":"spender","type":"address","internalType":"address"},{"name":"value","type":"uint256","internalType":"uint256"}],"outputs":[{"name":"","type":"bool","internalType":"bool"}],"stateMutability":"nonpayable"},{"type":"function","name":"balanceOf","inputs":[{"name":"account","type":"address","internalType":"address"}],"outputs":[{"name":"","type":"uint256","internalType":"uint256"}],"stateMutability":"view"},{"type":"function","name":"decimals","inputs":[],"outputs":[{"name":"","type":"uint8","internalType":"uint8"}],"stateMutability":"view"},{"type":"function","name":"getRoleAdmin","inputs":[{"name":"role","type":"bytes32","internalType":"bytes32"}],"outputs":[{"name":"","type":"bytes32","internalType":"bytes32"}],"stateMutability":"view"},{"type":"function","name":"grantMinterRole","inputs":[{"name":"account","type":"address","internalType":"address"}],"outputs":[],"stateMutability":"nonpayable"},{"type":"function","name":"grantRole","inputs":[{"name":"role","type":"bytes32","internalType":"bytes32"},{"name":"account","type":"address","internalType":"address"}],"outputs":[],"stateMutability":"nonpayable"},{"type":"function","name":"hasRole","inputs":[{"name":"role","type":"bytes32","internalType":"bytes32"},{"name":"account","type":"address","internalType":"address"}],"outputs":[{"name":"","type":"bool","internalType":"bool"}],"stateMutability":"view"},{"type":"function","name":"initialize","inputs":[{"name":"name","type":"string","internalType":"string"},{"name":"symbol","type":"string","internalType":"string"}],"outputs":[],"stateMutability":"nonpayable"},{"type":"function","name":"initialize","inputs":[],"outputs":[],"stateMutability":"nonpayable"},{"type":"function","name":"mint","inputs":[{"name":"to","type":"address","internalType":"address"},{"name":"amount","type":"uint256","internalType":"uint256"}],"outputs":[],"stateMutability":"nonpayable"},{"type":"function","name":"name","inputs":[],"outputs":[{"name":"","type":"string","internalType":"string"}],"stateMutability":"view"},{"type":"function","name":"proxiableUUID","inputs":[],"outputs":[{"name":"","type":"bytes32","internalType":"bytes32"}],"stateMutability":"view"},{"type":"function","name":"renounceRole","inputs":[{"name":"role","type":"bytes32","internalType":"bytes32"},{"name":"callerConfirmation","type":"address","internalType":"address"}],"outputs":[],"stateMutability":"nonpayable"},{"type":"function","name":"revokeMinterRole","inputs":[{"name":"account","type":"address","internalType":"address"}],"outputs":[],"stateMutability":"nonpayable"},{"type":"function","name":"revokeRole","inputs":[{"name":"role","type":"bytes32","internalType":"bytes32"},{"name":"account","type":"address","internalType":"address"}],"outputs":[],"stateMutability":"nonpayable"},{"type":"function","name":"supportsInterface","inputs":[{"name":"interfaceId","type":"bytes4","internalType":"bytes4"}],"outputs":[{"name":"","type":"bool","internalType":"bool"}],"stateMutability":"view"},{"type":"function","name":"symbol","inputs":[],"outputs":[{"name":"","type":"string","internalType":"string"}],"stateMutability":"view"},{"type":"function","name":"totalSupply","inputs":[],"outputs":[{"name":"","type":"uint256","internalType":"uint256"}],"stateMutability":"view"},{"type":"function","name":"transfer","inputs":[{"name":"to","type":"address","internalType":"address"},{"name":"value","type":"uint256","internalType":"uint256"}],"outputs":[{"name":"","type":"bool","internalType":"bool"}],"stateMutability":"nonpayable"},{"type":"function","name":"transferFrom","inputs":[{"name":"from","type":"address","internalType":"address"},{"name":"to","type":"address","internalType":"address"},{"name":"value","type":"uint256","internalType":"uint256"}],"outputs":[{"name":"","type":"bool","internalType":"bool"}],"stateMutability":"nonpayable"},{"type":"function","name":"upgradeToAndCall","inputs":[{"name":"newImplementation","type":"address","internalType":"address"},{"name":"data","type":"bytes","internalType":"bytes"}],"outputs":[],"stateMutability":"payable"},{"type":"event","name":"Approval","inputs":[{"name":"owner","type":"address","indexed":true,"internalType":"address"},{"name":"spender","type":"address","indexed":true,"internalType":"address"},{"name":"value","type":"uint256","indexed":false,"internalType":"uint256"}],"anonymous":false},{"type":"event","name":"Initialized","inputs":[{"name":"version","type":"uint64","indexed":false,"internalType":"uint64"}],"anonymous":false},{"type":"event","name":"RoleAdminChanged","inputs":[{"name":"role","type":"bytes32","indexed":true,"internalType":"bytes32"},{"name":"previousAdminRole","type":"bytes32","indexed":true,"internalType":"bytes32"},{"name":"newAdminRole","type":"bytes32","indexed":true,"internalType":"bytes32"}],"anonymous":false},{"type":"event","name":"RoleGranted","inputs":[{"name":"role","type":"bytes32","indexed":true,"internalType":"bytes32"},{"name":"account","type":"address","indexed":true,"internalType":"address"},{"name":"sender","type":"address","indexed":true,"internalType":"address"}],"anonymous":false},{"type":"event","name":"RoleRevoked","inputs":[{"name":"role","type":"bytes32","indexed":true,"internalType":"bytes32"},{"name":"account","type":"address","indexed":true,"internalType":"address"},{"name":"sender","type":"address","indexed":true,"internalType":"address"}],"anonymous":false},{"type":"event","name":"Transfer","inputs":[{"name":"from","type":"address","indexed":true,"internalType":"address"},{"name":"to","type":"address","indexed":true,"internalType":"address"},{"name":"value","type":"uint256","indexed":false,"internalType":"uint256"}],"anonymous":false},{"type":"event","name":"Upgraded","inputs":[{"name":"implementation","type":"address","indexed":true,"internalType":"address"}],"anonymous":false},{"type":"error","name":"AccessControlBadConfirmation","inputs":[]},{"type":"error","name":"AccessControlUnauthorizedAccount","inputs":[{"name":"account","type":"address","internalType":"address"},{"name":"neededRole","type":"bytes32","internalType":"bytes32"}]},{"type":"error","name":"AddressEmptyCode","inputs":[{"name":"target","type":"address","internalType":"address"}]},{"type":"error","name":"ERC1967InvalidImplementation","inputs":[{"name":"implementation","type":"address","internalType":"address"}]},{"type":"error","name":"ERC1967NonPayable","inputs":[]},{"type":"error","name":"ERC20InsufficientAllowance","inputs":[{"name":"spender","type":"address","internalType":"address"},{"name":"allowance","type":"uint256","internalType":"uint256"},{"name":"needed","type":"uint256","internalType":"uint256"}]},{"type":"error","name":"ERC20InsufficientBalance","inputs":[{"name":"sender","type":"address","internalType":"address"},{"name":"balance","type":"uint256","internalType":"uint256"},{"name":"needed","type":"uint256","internalType":"uint256"}]},{"type":"error","name":"ERC20InvalidApprover","inputs":[{"name":"approver","type":"address","internalType":"address"}]},{"type":"error","name":"ERC20InvalidReceiver","inputs":[{"name":"receiver","type":"address","internalType":"address"}]},{"type":"error","name":"ERC20InvalidSender","inputs":[{"name":"sender","type":"address","internalType":"address"}]},{"type":"error","name":"ERC20InvalidSpender","inputs":[{"name":"spender","type":"address","internalType":"address"}]},{"type":"error","name":"FailedInnerCall","inputs":[]},{"type":"error","name":"InvalidInitialization","inputs":[]},{"type":"error","name":"NotInitializing","inputs":[]},{"type":"error","name":"UUPSUnauthorizedCallContext","inputs":[]},{"type":"error","name":"UUPSUnsupportedProxiableUUID","inputs":[{"name":"slot","type":"bytes32","internalType":"bytes32"}]}],"bytecode":{"object":"0x60a0604052306080523480156012575f80fd5b506080516118c56100395f395f8181610bce01528181610bf70152610d3801526118c55ff3fe60806040526004361061017b575f3560e01c80634f1ef286116100cd57806395d89b4111610087578063ad3cb1cc11610062578063ad3cb1cc14610449578063d539139314610479578063d547741f14610499578063dd62ed3e146104b8575f80fd5b806395d89b4114610403578063a217fddf14610417578063a9059cbb1461042a575f80fd5b80634f1ef2861461034a57806352d1902d1461035d57806369e2f0fb1461037157806370a08231146103905780638129fc1c146103d057806391d14854146103e4575f80fd5b8063248a9ca31161013857806336568abe1161011357806336568abe146102ce5780633dd1eb61146102ed57806340c10f191461030c5780634cd88b761461032b575f80fd5b8063248a9ca3146102735780632f2ff15d14610292578063313ce567146102b3575f80fd5b806301ffc9a71461017f57806306fdde03146101b3578063095ea7b3146101d45780631339324b146101f357806318160ddd1461022157806323b872dd14610254575b5f80fd5b34801561018a575f80fd5b5061019e61019936600461129f565b6104d7565b60405190151581526020015b60405180910390f35b3480156101be575f80fd5b506101c761050d565b6040516101aa91906112c6565b3480156101df575f80fd5b5061019e6101ee366004611316565b6105cd565b3480156101fe575f80fd5b506102135f8051602061181083398151915281565b6040519081526020016101aa565b34801561022c575f80fd5b507f52c63247e1f47db19d5ce0460030c497f067ca4cebf71ba98eeadabe20bace0254610213565b34801561025f575f80fd5b5061019e61026e36600461133e565b6105e4565b34801561027e575f80fd5b5061021361028d366004611378565b610609565b34801561029d575f80fd5b506102b16102ac36600461138f565b610629565b005b3480156102be575f80fd5b50604051601281526020016101aa565b3480156102d9575f80fd5b506102b16102e836600461138f565b61064b565b3480156102f8575f80fd5b506102b16103073660046113b9565b610683565b348015610317575f80fd5b506102b1610326366004611316565b6106b1565b348015610336575f80fd5b506102b161034536600461147b565b6106d2565b6102b16103583660046114e0565b6107e2565b348015610368575f80fd5b50610213610801565b34801561037c575f80fd5b506102b161038b3660046113b9565b61081c565b34801561039b575f80fd5b506102136103aa3660046113b9565b6001600160a01b03165f9081525f805160206117f0833981519152602052604090205490565b3480156103db575f80fd5b506102b161084a565b3480156103ef575f80fd5b5061019e6103fe36600461138f565b610894565b34801561040e575f80fd5b506101c76108ca565b348015610422575f80fd5b506102135f81565b348015610435575f80fd5b5061019e610444366004611316565b610908565b348015610454575f80fd5b506101c7604051806040016040528060058152602001640352e302e360dc1b81525081565b348015610484575f80fd5b506102135f8051602061185083398151915281565b3480156104a4575f80fd5b506102b16104b336600461138f565b610915565b3480156104c3575f80fd5b506102136104d2366004611534565b610931565b5f6001600160e01b03198216637965db0b60e01b148061050757506301ffc9a760e01b6001600160e01b03198316145b92915050565b7f52c63247e1f47db19d5ce0460030c497f067ca4cebf71ba98eeadabe20bace0380546060915f805160206117f08339815191529161054b9061155c565b80601f01602080910402602001604051908101604052809291908181526020018280546105779061155c565b80156105c25780601f10610599576101008083540402835291602001916105c2565b820191905f5260205f20905b8154815290600101906020018083116105a557829003601f168201915b505050505091505090565b5f336105da81858561097a565b5060019392505050565b5f336105f1858285610987565b6105fc8585856109e9565b60019150505b9392505050565b5f9081525f80516020611870833981519152602052604090206001015490565b61063282610609565b61063b81610a46565b6106458383610a53565b50505050565b6001600160a01b03811633146106745760405163334bd91960e11b815260040160405180910390fd5b61067e8282610af4565b505050565b5f8051602061181083398151915261069a81610a46565b61067e5f8051602061185083398151915283610a53565b5f805160206118508339815191526106c881610a46565b61067e8383610b6d565b7ff0c57e16840df040f15088dc2f81fe391c3923bec73e23a9662efc9c229c6a008054600160401b810460ff16159067ffffffffffffffff165f811580156107175750825b90505f8267ffffffffffffffff1660011480156107335750303b155b905081158015610741575080155b1561075f5760405163f92ee8a960e01b815260040160405180910390fd5b845467ffffffffffffffff19166001178555831561078957845460ff60401b1916600160401b1785555b6107938787610ba1565b83156107d957845460ff60401b19168555604051600181527fc7f505b2f371ae2175ee4913f4499e1f2633a7b5936321eed1cdaeb6115181d29060200160405180910390a15b50505050505050565b6107ea610bc3565b6107f382610c67565b6107fd8282610c71565b5050565b5f61080a610d2d565b505f8051602061183083398151915290565b5f8051602061181083398151915261083381610a46565b61067e5f8051602061185083398151915283610af4565b6108926040518060400160405280600a81526020016926b7bb32902a37b5b2b760b11b815250604051806040016040528060048152602001634d4f564560e01b8152506106d2565b565b5f9182525f80516020611870833981519152602090815260408084206001600160a01b0393909316845291905290205460ff1690565b7f52c63247e1f47db19d5ce0460030c497f067ca4cebf71ba98eeadabe20bace0480546060915f805160206117f08339815191529161054b9061155c565b5f336105da8185856109e9565b61091e82610609565b61092781610a46565b6106458383610af4565b6001600160a01b039182165f9081527f52c63247e1f47db19d5ce0460030c497f067ca4cebf71ba98eeadabe20bace016020908152604080832093909416825291909152205490565b61067e8383836001610d76565b5f6109928484610931565b90505f19811461064557818110156109db57604051637dc7a0d960e11b81526001600160a01b038416600482015260248101829052604481018390526064015b60405180910390fd5b61064584848484035f610d76565b6001600160a01b038316610a1257604051634b637e8f60e11b81525f60048201526024016109d2565b6001600160a01b038216610a3b5760405163ec442f0560e01b81525f60048201526024016109d2565b61067e838383610e5a565b610a508133610f93565b50565b5f5f80516020611870833981519152610a6c8484610894565b610aeb575f848152602082815260408083206001600160a01b03871684529091529020805460ff19166001179055610aa13390565b6001600160a01b0316836001600160a01b0316857f2f8788117e7eff1d82e926ec794901d17c78024a50270940304540a733656f0d60405160405180910390a46001915050610507565b5f915050610507565b5f5f80516020611870833981519152610b0d8484610894565b15610aeb575f848152602082815260408083206001600160a01b0387168085529252808320805460ff1916905551339287917ff6391f5c32d9c69d2a47ea670b442974b53935d1edc7fd64eb21e047a839171b9190a46001915050610507565b6001600160a01b038216610b965760405163ec442f0560e01b81525f60048201526024016109d2565b6107fd5f8383610e5a565b610ba9610fcc565b610bb38282611015565b610bbb611065565b6107fd61109a565b306001600160a01b037f0000000000000000000000000000000000000000000000000000000000000000161480610c4957507f00000000000000000000000000000000000000000000000000000000000000006001600160a01b0316610c3d5f80516020611830833981519152546001600160a01b031690565b6001600160a01b031614155b156108925760405163703e46dd60e11b815260040160405180910390fd5b5f6107fd81610a46565b816001600160a01b03166352d1902d6040518163ffffffff1660e01b8152600401602060405180830381865afa925050508015610ccb575060408051601f3d908101601f19168201909252610cc891810190611594565b60015b610cf357604051634c9c8ce360e01b81526001600160a01b03831660048201526024016109d2565b5f805160206118308339815191528114610d2357604051632a87526960e21b8152600481018290526024016109d2565b61067e83836110d1565b306001600160a01b037f000000000000000000000000000000000000000000000000000000000000000016146108925760405163703e46dd60e11b815260040160405180910390fd5b5f805160206117f08339815191526001600160a01b038516610dad5760405163e602df0560e01b81525f60048201526024016109d2565b6001600160a01b038416610dd657604051634a1406b160e11b81525f60048201526024016109d2565b6001600160a01b038086165f90815260018301602090815260408083209388168352929052208390558115610e5357836001600160a01b0316856001600160a01b03167f8c5be1e5ebec7d5bd14f71427d1e84f3dd0314c0f7b2291e5b200ac8c7c3b92585604051610e4a91815260200190565b60405180910390a35b5050505050565b5f805160206117f08339815191526001600160a01b038416610e945781816002015f828254610e8991906115bf565b90915550610f049050565b6001600160a01b0384165f9081526020829052604090205482811015610ee65760405163391434e360e21b81526001600160a01b038616600482015260248101829052604481018490526064016109d2565b6001600160a01b0385165f9081526020839052604090209083900390555b6001600160a01b038316610f22576002810180548390039055610f40565b6001600160a01b0383165f9081526020829052604090208054830190555b826001600160a01b0316846001600160a01b03167fddf252ad1be2c89b69c2b068fc378daa952ba7f163c4a11628f55a4df523b3ef84604051610f8591815260200190565b60405180910390a350505050565b610f9d8282610894565b6107fd5760405163e2517d3f60e01b81526001600160a01b0382166004820152602481018390526044016109d2565b7ff0c57e16840df040f15088dc2f81fe391c3923bec73e23a9662efc9c229c6a0054600160401b900460ff1661089257604051631afcd79f60e31b815260040160405180910390fd5b61101d610fcc565b5f805160206117f08339815191527f52c63247e1f47db19d5ce0460030c497f067ca4cebf71ba98eeadabe20bace036110568482611616565b50600481016106458382611616565b61106d610fcc565b6110775f33610a53565b50610892306110886012600a6117b4565b61109590620f42406117c2565b610b6d565b6110a2610fcc565b6110b95f8051602061181083398151915233610a53565b50610a505f8051602061185083398151915233610a53565b6110da82611126565b6040516001600160a01b038316907fbc7cd75a20ee27fd9adebab32041f755214dbc6bffa90cc0225b39da2e5c2d3b905f90a280511561111e5761067e8282611189565b6107fd6111fb565b806001600160a01b03163b5f0361115b57604051634c9c8ce360e01b81526001600160a01b03821660048201526024016109d2565b5f8051602061183083398151915280546001600160a01b0319166001600160a01b0392909216919091179055565b60605f80846001600160a01b0316846040516111a591906117d9565b5f60405180830381855af49150503d805f81146111dd576040519150601f19603f3d011682016040523d82523d5f602084013e6111e2565b606091505b50915091506111f285838361121a565b95945050505050565b34156108925760405163b398979f60e01b815260040160405180910390fd5b60608261122f5761122a82611276565b610602565b815115801561124657506001600160a01b0384163b155b1561126f57604051639996b31560e01b81526001600160a01b03851660048201526024016109d2565b5080610602565b8051156112865780518082602001fd5b604051630a12f52160e11b815260040160405180910390fd5b5f602082840312156112af575f80fd5b81356001600160e01b031981168114610602575f80fd5b602081525f82518060208401528060208501604085015e5f604082850101526040601f19601f83011684010191505092915050565b80356001600160a01b0381168114611311575f80fd5b919050565b5f8060408385031215611327575f80fd5b611330836112fb565b946020939093013593505050565b5f805f60608486031215611350575f80fd5b611359846112fb565b9250611367602085016112fb565b929592945050506040919091013590565b5f60208284031215611388575f80fd5b5035919050565b5f80604083850312156113a0575f80fd5b823591506113b0602084016112fb565b90509250929050565b5f602082840312156113c9575f80fd5b610602826112fb565b634e487b7160e01b5f52604160045260245ffd5b5f8067ffffffffffffffff841115611400576114006113d2565b50604051601f19601f85018116603f0116810181811067ffffffffffffffff8211171561142f5761142f6113d2565b604052838152905080828401851015611446575f80fd5b838360208301375f60208583010152509392505050565b5f82601f83011261146c575f80fd5b610602838335602085016113e6565b5f806040838503121561148c575f80fd5b823567ffffffffffffffff8111156114a2575f80fd5b6114ae8582860161145d565b925050602083013567ffffffffffffffff8111156114ca575f80fd5b6114d68582860161145d565b9150509250929050565b5f80604083850312156114f1575f80fd5b6114fa836112fb565b9150602083013567ffffffffffffffff811115611515575f80fd5b8301601f81018513611525575f80fd5b6114d6858235602084016113e6565b5f8060408385031215611545575f80fd5b61154e836112fb565b91506113b0602084016112fb565b600181811c9082168061157057607f821691505b60208210810361158e57634e487b7160e01b5f52602260045260245ffd5b50919050565b5f602082840312156115a4575f80fd5b5051919050565b634e487b7160e01b5f52601160045260245ffd5b80820180821115610507576105076115ab565b601f82111561067e57805f5260205f20601f840160051c810160208510156115f75750805b601f840160051c820191505b81811015610e53575f8155600101611603565b815167ffffffffffffffff811115611630576116306113d2565b6116448161163e845461155c565b846115d2565b6020601f821160018114611676575f831561165f5750848201515b5f19600385901b1c1916600184901b178455610e53565b5f84815260208120601f198516915b828110156116a55787850151825560209485019460019092019101611685565b50848210156116c257868401515f19600387901b60f8161c191681555b50505050600190811b01905550565b6001815b600184111561170c578085048111156116f0576116f06115ab565b60018416156116fe57908102905b60019390931c9280026116d5565b935093915050565b5f8261172257506001610507565b8161172e57505f610507565b8160018114611744576002811461174e5761176a565b6001915050610507565b60ff84111561175f5761175f6115ab565b50506001821b610507565b5060208310610133831016604e8410600b841016171561178d575081810a610507565b6117995f1984846116d1565b805f19048211156117ac576117ac6115ab565b029392505050565b5f61060260ff841683611714565b8082028115828204841417610507576105076115ab565b5f82518060208501845e5f92019182525091905056fe52c63247e1f47db19d5ce0460030c497f067ca4cebf71ba98eeadabe20bace0070480ee89cb38eff00b7d23da25713d52ce19c6ed428691d22c58b2f615e3d67360894a13ba1a3210667c828492db98dca3e2076cc3735a920a3ca505d382bbc9f2df0fed2c77648de5860a4cc508cd0818c85b8b8a1ab4ceeef8d981c8956a602dd7bc7dec4dceedda775e58dd541e08a116c6c53815c0bd028192f7b626800a2646970667358221220dc0c149ba22eb41c5dabff87fecdb1d6187b441fa7f7c3e65f2d20367ccdfee264736f6c634300081a0033","linkReferences":{}},"methodIdentifiers":{"DEFAULT_ADMIN_ROLE()":"a217fddf","MINTER_ADMIN_ROLE()":"1339324b","MINTER_ROLE()":"d5391393","UPGRADE_INTERFACE_VERSION()":"ad3cb1cc","allowance(address,address)":"dd62ed3e","approve(address,uint256)":"095ea7b3","balanceOf(address)":"70a08231","decimals()":"313ce567","getRoleAdmin(bytes32)":"248a9ca3","grantMinterRole(address)":"3dd1eb61","grantRole(bytes32,address)":"2f2ff15d","hasRole(bytes32,address)":"91d14854","initialize()":"8129fc1c","initialize(string,string)":"4cd88b76","mint(address,uint256)":"40c10f19","name()":"06fdde03","proxiableUUID()":"52d1902d","renounceRole(bytes32,address)":"36568abe","revokeMinterRole(address)":"69e2f0fb","revokeRole(bytes32,address)":"d547741f","supportsInterface(bytes4)":"01ffc9a7","symbol()":"95d89b41","totalSupply()":"18160ddd","transfer(address,uint256)":"a9059cbb","transferFrom(address,address,uint256)":"23b872dd","upgradeToAndCall(address,bytes)":"4f1ef286"},"storageLayout":{"storage":[],"types":{}},"id":55}