{"abi":[{"type":"function","name":"DEFAULT_ADMIN_ROLE","inputs":[],"outputs":[{"name":"","type":"bytes32","internalType":"bytes32"}],"stateMutability":"view"},{"type":"function","name":"UPGRADE_INTERFACE_VERSION","inputs":[],"outputs":[{"name":"","type":"string","internalType":"string"}],"stateMutability":"view"},{"type":"function","name":"acceptGenesisCeremony","inputs":[],"outputs":[],"stateMutability":"nonpayable"},{"type":"function","name":"currentEpochByDomain","inputs":[{"name":"domain","type":"address","internalType":"address"}],"outputs":[{"name":"currentEpoch","type":"uint256","internalType":"uint256"}],"stateMutability":"view"},{"type":"function","name":"epochDurationByDomain","inputs":[{"name":"domain","type":"address","internalType":"address"}],"outputs":[{"name":"epochDuration","type":"uint256","internalType":"uint256"}],"stateMutability":"view"},{"type":"function","name":"epochStakesByDomain","inputs":[{"name":"domain","type":"address","internalType":"address"},{"name":"epoch","type":"uint256","internalType":"uint256"},{"name":"custodian","type":"address","internalType":"address"},{"name":"attester","type":"address","internalType":"address"}],"outputs":[{"name":"stake","type":"uint256","internalType":"uint256"}],"stateMutability":"view"},{"type":"function","name":"epochTotalStakeByDomain","inputs":[{"name":"domain","type":"address","internalType":"address"},{"name":"epoch","type":"uint256","internalType":"uint256"},{"name":"attester","type":"address","internalType":"address"}],"outputs":[{"name":"stake","type":"uint256","internalType":"uint256"}],"stateMutability":"view"},{"type":"function","name":"epochUnstakesByDomain","inputs":[{"name":"domain","type":"address","internalType":"address"},{"name":"epoch","type":"uint256","internalType":"uint256"},{"name":"custodian","type":"address","internalType":"address"},{"name":"attester","type":"address","internalType":"address"}],"outputs":[{"name":"stake","type":"uint256","internalType":"uint256"}],"stateMutability":"view"},{"type":"function","name":"getAttestersByDomain","inputs":[{"name":"domain","type":"address","internalType":"address"}],"outputs":[{"name":"","type":"address[]","internalType":"address[]"}],"stateMutability":"view"},{"type":"function","name":"getCurrentEpoch","inputs":[{"name":"domain","type":"address","internalType":"address"}],"outputs":[{"name":"","type":"uint256","internalType":"uint256"}],"stateMutability":"view"},{"type":"function","name":"getCurrentEpochStake","inputs":[{"name":"domain","type":"address","internalType":"address"},{"name":"custodian","type":"address","internalType":"address"},{"name":"attester","type":"address","internalType":"address"}],"outputs":[{"name":"","type":"uint256","internalType":"uint256"}],"stateMutability":"view"},{"type":"function","name":"getCurrentEpochUnstake","inputs":[{"name":"domain","type":"address","internalType":"address"},{"name":"custodian","type":"address","internalType":"address"},{"name":"attester","type":"address","internalType":"address"}],"outputs":[{"name":"","type":"uint256","internalType":"uint256"}],"stateMutability":"view"},{"type":"function","name":"getCustodiansByDomain","inputs":[{"name":"domain","type":"address","internalType":"address"}],"outputs":[{"name":"","type":"address[]","internalType":"address[]"}],"stateMutability":"view"},{"type":"function","name":"getEpochByBlockTime","inputs":[{"name":"domain","type":"address","internalType":"address"}],"outputs":[{"name":"","type":"uint256","internalType":"uint256"}],"stateMutability":"view"},{"type":"function","name":"getNextEpoch","inputs":[{"name":"domain","type":"address","internalType":"address"}],"outputs":[{"name":"","type":"uint256","internalType":"uint256"}],"stateMutability":"view"},{"type":"function","name":"getNextEpochByBlockTime","inputs":[{"name":"domain","type":"address","internalType":"address"}],"outputs":[{"name":"","type":"uint256","internalType":"uint256"}],"stateMutability":"view"},{"type":"function","name":"getRoleAdmin","inputs":[{"name":"role","type":"bytes32","internalType":"bytes32"}],"outputs":[{"name":"","type":"bytes32","internalType":"bytes32"}],"stateMutability":"view"},{"type":"function","name":"getStakeAtEpoch","inputs":[{"name":"domain","type":"address","internalType":"address"},{"name":"epoch","type":"uint256","internalType":"uint256"},{"name":"custodian","type":"address","internalType":"address"},{"name":"attester","type":"address","internalType":"address"}],"outputs":[{"name":"","type":"uint256","internalType":"uint256"}],"stateMutability":"view"},{"type":"function","name":"getTotalStakeForCurrentEpoch","inputs":[{"name":"domain","type":"address","internalType":"address"},{"name":"custodian","type":"address","internalType":"address"}],"outputs":[{"name":"","type":"uint256","internalType":"uint256"}],"stateMutability":"view"},{"type":"function","name":"getTotalStakeForEpoch","inputs":[{"name":"domain","type":"address","internalType":"address"},{"name":"epoch","type":"uint256","internalType":"uint256"},{"name":"custodian","type":"address","internalType":"address"}],"outputs":[{"name":"","type":"uint256","internalType":"uint256"}],"stateMutability":"view"},{"type":"function","name":"getUnstakeAtEpoch","inputs":[{"name":"domain","type":"address","internalType":"address"},{"name":"epoch","type":"uint256","internalType":"uint256"},{"name":"custodian","type":"address","internalType":"address"},{"name":"attester","type":"address","internalType":"address"}],"outputs":[{"name":"","type":"uint256","internalType":"uint256"}],"stateMutability":"view"},{"type":"function","name":"grantRole","inputs":[{"name":"role","type":"bytes32","internalType":"bytes32"},{"name":"account","type":"address","internalType":"address"}],"outputs":[],"stateMutability":"nonpayable"},{"type":"function","name":"hasRole","inputs":[{"name":"role","type":"bytes32","internalType":"bytes32"},{"name":"account","type":"address","internalType":"address"}],"outputs":[{"name":"","type":"bool","internalType":"bool"}],"stateMutability":"view"},{"type":"function","name":"initialize","inputs":[],"outputs":[],"stateMutability":"nonpayable"},{"type":"function","name":"initialize","inputs":[{"name":"_token","type":"address","internalType":"contract IERC20"}],"outputs":[],"stateMutability":"nonpayable"},{"type":"function","name":"proxiableUUID","inputs":[],"outputs":[{"name":"","type":"bytes32","internalType":"bytes32"}],"stateMutability":"view"},{"type":"function","name":"registerDomain","inputs":[{"name":"domain","type":"address","internalType":"address"},{"name":"epochDuration","type":"uint256","internalType":"uint256"},{"name":"custodians","type":"address[]","internalType":"address[]"}],"outputs":[],"stateMutability":"nonpayable"},{"type":"function","name":"renounceRole","inputs":[{"name":"role","type":"bytes32","internalType":"bytes32"},{"name":"callerConfirmation","type":"address","internalType":"address"}],"outputs":[],"stateMutability":"nonpayable"},{"type":"function","name":"revokeRole","inputs":[{"name":"role","type":"bytes32","internalType":"bytes32"},{"name":"account","type":"address","internalType":"address"}],"outputs":[],"stateMutability":"nonpayable"},{"type":"function","name":"reward","inputs":[{"name":"attesters","type":"address[]","internalType":"address[]"},{"name":"amounts","type":"uint256[]","internalType":"uint256[]"},{"name":"custodians","type":"address[]","internalType":"address[]"}],"outputs":[],"stateMutability":"nonpayable"},{"type":"function","name":"rollOverEpoch","inputs":[],"outputs":[],"stateMutability":"nonpayable"},{"type":"function","name":"setGenesisCeremony","inputs":[{"name":"domain","type":"address","internalType":"address"},{"name":"custodians","type":"address[]","internalType":"address[]"},{"name":"attesters","type":"address[]","internalType":"address[]"},{"name":"stakes","type":"uint256[]","internalType":"uint256[]"}],"outputs":[],"stateMutability":"nonpayable"},{"type":"function","name":"slash","inputs":[{"name":"custodians","type":"address[]","internalType":"address[]"},{"name":"attesters","type":"address[]","internalType":"address[]"},{"name":"amounts","type":"uint256[]","internalType":"uint256[]"},{"name":"refundAmounts","type":"uint256[]","internalType":"uint256[]"}],"outputs":[],"stateMutability":"nonpayable"},{"type":"function","name":"stake","inputs":[{"name":"domain","type":"address","internalType":"address"},{"name":"custodian","type":"address","internalType":"contract IERC20"},{"name":"amount","type":"uint256","internalType":"uint256"}],"outputs":[],"stateMutability":"nonpayable"},{"type":"function","name":"supportsInterface","inputs":[{"name":"interfaceId","type":"bytes4","internalType":"bytes4"}],"outputs":[{"name":"","type":"bool","internalType":"bool"}],"stateMutability":"view"},{"type":"function","name":"token","inputs":[],"outputs":[{"name":"","type":"address","internalType":"contract IERC20"}],"stateMutability":"view"},{"type":"function","name":"unstake","inputs":[{"name":"domain","type":"address","internalType":"address"},{"name":"custodian","type":"address","internalType":"address"},{"name":"amount","type":"uint256","internalType":"uint256"}],"outputs":[],"stateMutability":"nonpayable"},{"type":"function","name":"upgradeToAndCall","inputs":[{"name":"newImplementation","type":"address","internalType":"address"},{"name":"data","type":"bytes","internalType":"bytes"}],"outputs":[],"stateMutability":"payable"},{"type":"event","name":"AttesterEpochRolledOver","inputs":[{"name":"attester","type":"address","indexed":true,"internalType":"address"},{"name":"epoch","type":"uint256","indexed":true,"internalType":"uint256"},{"name":"custodian","type":"address","indexed":true,"internalType":"address"},{"name":"stake","type":"uint256","indexed":false,"internalType":"uint256"},{"name":"unstake","type":"uint256","indexed":false,"internalType":"uint256"}],"anonymous":false},{"type":"event","name":"AttesterStaked","inputs":[{"name":"domain","type":"address","indexed":true,"internalType":"address"},{"name":"epoch","type":"uint256","indexed":true,"internalType":"uint256"},{"name":"custodian","type":"address","indexed":true,"internalType":"address"},{"name":"attester","type":"address","indexed":false,"internalType":"address"},{"name":"stake","type":"uint256","indexed":false,"internalType":"uint256"}],"anonymous":false},{"type":"event","name":"AttesterUnstaked","inputs":[{"name":"domain","type":"address","indexed":true,"internalType":"address"},{"name":"epoch","type":"uint256","indexed":true,"internalType":"uint256"},{"name":"custodian","type":"address","indexed":true,"internalType":"address"},{"name":"attester","type":"address","indexed":false,"internalType":"address"},{"name":"stake","type":"uint256","indexed":false,"internalType":"uint256"}],"anonymous":false},{"type":"event","name":"EpochRolledOver","inputs":[{"name":"domain","type":"address","indexed":true,"internalType":"address"},{"name":"epoch","type":"uint256","indexed":false,"internalType":"uint256"}],"anonymous":false},{"type":"event","name":"Initialized","inputs":[{"name":"version","type":"uint64","indexed":false,"internalType":"uint64"}],"anonymous":false},{"type":"event","name":"RoleAdminChanged","inputs":[{"name":"role","type":"bytes32","indexed":true,"internalType":"bytes32"},{"name":"previousAdminRole","type":"bytes32","indexed":true,"internalType":"bytes32"},{"name":"newAdminRole","type":"bytes32","indexed":true,"internalType":"bytes32"}],"anonymous":false},{"type":"event","name":"RoleGranted","inputs":[{"name":"role","type":"bytes32","indexed":true,"internalType":"bytes32"},{"name":"account","type":"address","indexed":true,"internalType":"address"},{"name":"sender","type":"address","indexed":true,"internalType":"address"}],"anonymous":false},{"type":"event","name":"RoleRevoked","inputs":[{"name":"role","type":"bytes32","indexed":true,"internalType":"bytes32"},{"name":"account","type":"address","indexed":true,"internalType":"address"},{"name":"sender","type":"address","indexed":true,"internalType":"address"}],"anonymous":false},{"type":"event","name":"Upgraded","inputs":[{"name":"implementation","type":"address","indexed":true,"internalType":"address"}],"anonymous":false},{"type":"error","name":"AccessControlBadConfirmation","inputs":[]},{"type":"error","name":"AccessControlUnauthorizedAccount","inputs":[{"name":"account","type":"address","internalType":"address"},{"name":"neededRole","type":"bytes32","internalType":"bytes32"}]},{"type":"error","name":"AddressEmptyCode","inputs":[{"name":"target","type":"address","internalType":"address"}]},{"type":"error","name":"CustodianTransferAmountMismatch","inputs":[]},{"type":"error","name":"ERC1967InvalidImplementation","inputs":[{"name":"implementation","type":"address","internalType":"address"}]},{"type":"error","name":"ERC1967NonPayable","inputs":[]},{"type":"error","name":"FailedInnerCall","inputs":[]},{"type":"error","name":"InvalidInitialization","inputs":[]},{"type":"error","name":"NotInitializing","inputs":[]},{"type":"error","name":"StakeExceedsGenesisStake","inputs":[]},{"type":"error","name":"UUPSUnauthorizedCallContext","inputs":[]},{"type":"error","name":"UUPSUnsupportedProxiableUUID","inputs":[{"name":"slot","type":"bytes32","internalType":"bytes32"}]}],"bytecode":{"object":"0x60a0604052306080523480156012575f80fd5b506080516129916100395f395f8181611888015281816118b10152611a0b01526129915ff3fe60806040526004361061021d575f3560e01c80638129fc1c1161011e578063a887b71c116100a8578063c4d66de81161006d578063c4d66de8146106da578063d547741f146106f9578063d5ca03de14610718578063da33ee7f14610737578063fc0c546a14610756575f80fd5b8063a887b71c14610606578063ad3cb1cc1461061a578063bf6eac2f14610657578063c0b95ab814610676578063c3471ff8146106bb575f80fd5b806391d14854116100ee57806391d148541461058257806392a2ebf3146105a1578063a0f94656146105b5578063a217fddf146105d4578063a885c975146105e7575f80fd5b80638129fc1c146105115780638489e58014610525578063879b938b146105445780638d90825814610563575f80fd5b80634d3223a5116101aa5780635cdf31551161016f5780635cdf31551461042357806360829f8a1461046f57806365f1ea201461048e57806370224360146104d35780637667b76d146104f2575f80fd5b80634d3223a5146103825780634f1ef286146103a157806351065c89146103b457806352d1902d146103d357806354300d7a146103e7575f80fd5b80632c7785a8116101f05780632c7785a8146102d95780632f2ff15d146102f857806336568abe146103195780633bccf6351461033857806344198e4d14610363575f80fd5b806301ffc9a7146102215780630a0b1b6414610255578063248a9ca31461028e5780632924b73b146102ad575b5f80fd5b34801561022c575f80fd5b5061024061023b366004612288565b61078c565b60405190151581526020015b60405180910390f35b348015610260575f80fd5b5061028061026f3660046122c3565b60026020525f908152604090205481565b60405190815260200161024c565b348015610299575f80fd5b506102806102a83660046122de565b6107c2565b3480156102b8575f80fd5b506102cc6102c73660046122c3565b6107e2565b60405161024c91906122f5565b3480156102e4575f80fd5b506102806102f33660046122c3565b6108cc565b348015610303575f80fd5b50610317610312366004612340565b6108fb565b005b348015610324575f80fd5b50610317610333366004612340565b61091d565b348015610343575f80fd5b506102806103523660046122c3565b60016020525f908152604090205481565b34801561036e575f80fd5b5061028061037d36600461236e565b610955565b34801561038d575f80fd5b5061028061039c3660046122c3565b61099d565b6103176103af3660046123ae565b6109b7565b3480156103bf575f80fd5b506103176103ce3660046124b8565b6109d6565b3480156103de575f80fd5b50610280610a50565b3480156103f2575f80fd5b5061028061040136600461250f565b600760209081525f938452604080852082529284528284209052825290205481565b34801561042e575f80fd5b5061028061043d36600461250f565b6001600160a01b039283165f908152600760209081526040808320948352938152838220929094168152925290205490565b34801561047a575f80fd5b5061031761048936600461254e565b610a6b565b348015610499575f80fd5b506102806104a836600461258c565b600660209081525f948552604080862082529385528385208152918452828420909152825290205481565b3480156104de575f80fd5b506102806104ed3660046125dc565b610adc565b3480156104fd575f80fd5b5061028061050c3660046125dc565b610af9565b34801561051c575f80fd5b50610317610b0e565b348015610530575f80fd5b5061028061053f3660046122c3565b610c17565b34801561054f575f80fd5b5061028061055e36600461258c565b610c2f565b34801561056e575f80fd5b5061028061057d36600461258c565b610c6c565b34801561058d575f80fd5b5061024061059c366004612340565b610ca9565b3480156105ac575f80fd5b50610317610cdf565b3480156105c0575f80fd5b506103176105cf366004612619565b610dd3565b3480156105df575f80fd5b506102805f81565b3480156105f2575f80fd5b506103176106013660046126c7565b61105d565b348015610611575f80fd5b50610317611257565b348015610625575f80fd5b5061064a604051806040016040528060058152602001640352e302e360dc1b81525081565b60405161024c9190612791565b348015610662575f80fd5b5061031761067136600461254e565b61126b565b348015610681575f80fd5b5061028061069036600461258c565b600560209081525f948552604080862082529385528385208152918452828420909152825290205481565b3480156106c6575f80fd5b506102806106d53660046122c3565b611472565b3480156106e5575f80fd5b506103176106f43660046122c3565b611494565b348015610704575f80fd5b50610317610713366004612340565b6115b9565b348015610723575f80fd5b506102cc6107323660046122c3565b6115d5565b348015610742575f80fd5b506103176107513660046127c6565b6116b8565b348015610761575f80fd5b505f54610774906001600160a01b031681565b6040516001600160a01b03909116815260200161024c565b5f6001600160e01b03198216637965db0b60e01b14806107bc57506301ffc9a760e01b6001600160e01b03198316145b92915050565b5f9081525f8051602061293c833981519152602052604090206001015490565b6001600160a01b0381165f9081526003602052604081206060919061080690611742565b6001600160401b0381111561081d5761081d61239a565b604051908082528060200260200182016040528015610846578160200160208202803683370190505b5090505f5b6001600160a01b0384165f90815260036020526040902061086b90611742565b8110156108c5576001600160a01b0384165f908152600360205260409020610893908261174b565b8282815181106108a5576108a5612862565b6001600160a01b039092166020928302919091019091015260010161084b565b5092915050565b5f6108d68261099d565b156108f4576108e482611472565b6108ef90600161288a565b6107bc565b5f92915050565b610904826107c2565b61090d81611756565b6109178383611763565b50505050565b6001600160a01b03811633146109465760405163334bd91960e11b815260040160405180910390fd5b6109508282611804565b505050565b5f610996836109638561099d565b846001600160a01b039283165f908152600760209081526040808320948352938152838220929094168152925290205490565b9392505050565b6001600160a01b03165f9081526002602052604090205490565b6109bf61187d565b6109c882611921565b6109d2828261192b565b5050565b6001600160a01b0384165f9081526001602052604081208490555b81811015610a4957610a40838383818110610a0e57610a0e612862565b9050602002016020810190610a2391906122c3565b6001600160a01b0387165f908152600460205260409020906119ec565b506001016109f1565b5050505050565b5f610a59611a00565b505f8051602061291c83398151915290565b610a8083610a78856108cc565b843385611a49565b816001600160a01b0316610a9384610c17565b60408051338152602081018590526001600160a01b038716917fd41c64546a5c34c283150998874c7ee0412c8954f57aef484c681f6e137827df910160405180910390a4505050565b5f610af184610aea8661099d565b8585610c6c565b949350505050565b5f610af184610b078661099d565b8585610c2f565b7ff0c57e16840df040f15088dc2f81fe391c3923bec73e23a9662efc9c229c6a008054600160401b810460ff1615906001600160401b03165f81158015610b525750825b90505f826001600160401b03166001148015610b6d5750303b155b905081158015610b7b575080155b15610b995760405163f92ee8a960e01b815260040160405180910390fd5b845467ffffffffffffffff191660011785558315610bc357845460ff60401b1916600160401b1785555b610bcb611a9d565b8315610a4957845460ff60401b19168555604051600181527fc7f505b2f371ae2175ee4913f4499e1f2633a7b5936321eed1cdaeb6115181d29060200160405180910390a15050505050565b5f610c218261099d565b156108f4576108e48261099d565b6001600160a01b039384165f9081526006602090815260408083209583529481528482209386168252928352838120919094168452905290205490565b6001600160a01b039384165f9081526005602090815260408083209583529481528482209386168252928352838120919094168452905290205490565b5f9182525f8051602061293c833981519152602090815260408084206001600160a01b0393909316845291905290205460ff1690565b33610ce981611472565b6001600160a01b0382165f908152600260205260408120919091555b6001600160a01b0382165f908152600360205260409020610d2590611742565b8110156109d2576001600160a01b0382165f908152600360205260408120610d4d908361174b565b90505f5b6001600160a01b0384165f908152600460205260409020610d7190611742565b811015610dc9576001600160a01b0384165f908152600460205260408120610d99908361174b565b90505f610da8865f8487610c6c565b9050610dbf86610db78861099d565b848785611aad565b5050600101610d51565b5050600101610d05565b610ddc87611472565b6001600160a01b0388165f908152600260205260408120919091555b83811015611053575f878783818110610e1357610e13612862565b9050602002016020810190610e2891906122c3565b90505f610e588a5f848a8a88818110610e4357610e43612862565b905060200201602081019061057d91906122c3565b9050848484818110610e6c57610e6c612862565b90506020020135811115610e9357604051630eba55e760e21b815260040160405180910390fd5b610eda878785818110610ea857610ea8612862565b9050602002016020810190610ebd91906122c3565b6001600160a01b038c165f908152600360205260409020906119ec565b50848484818110610eed57610eed612862565b9050602002013560055f8c6001600160a01b03166001600160a01b031681526020019081526020015f205f610f218d61099d565b81526020019081526020015f205f846001600160a01b03166001600160a01b031681526020019081526020015f205f898987818110610f6257610f62612862565b9050602002016020810190610f7791906122c3565b6001600160a01b0316815260208101919091526040015f2055848484818110610fa257610fa2612862565b6001600160a01b03808e165f90815260076020908152604080832083805282528083209389168352928152918120805492909302949094013593919250610fea90849061288a565b909155505f90508186868681811061100457611004612862565b90506020020135611015919061289d565b905061104888888681811061102c5761102c612862565b905060200201602081019061104191906122c3565b8483611b38565b505050600101610df8565b5050505050505050565b5f5b8581101561124c575f6111116110d2336110998b8b8781811061108457611084612862565b905060200201602081019061039c91906122c3565b8d8d878181106110ab576110ab612862565b90506020020160208101906110c091906122c3565b8c8c88818110610e4357610e43612862565b61110c8888868181106110e7576110e7612862565b9050602002013587878781811061110057611100612862565b90506020020135611c8c565b611c8c565b905061116a88888481811061112857611128612862565b905060200201602081019061113d91906122c3565b8b8b8581811061114f5761114f612862565b905060200201602081019061116491906122c3565b83611b38565b6111e3336111773361099d565b8c8c8681811061118957611189612862565b905060200201602081019061119e91906122c3565b8b8b878181106111b0576111b0612862565b90506020020160208101906111c591906122c3565b8a8a888181106111d7576111d7612862565b90506020020135611ca1565b611243336111f03361099d565b8c8c8681811061120257611202612862565b905060200201602081019061121791906122c3565b8b8b8781811061122957611229612862565b905060200201602081019061123e91906122c3565b611cd8565b5060010161105f565b505050505050505050565b611269336112643361099d565b611d4a565b565b6001600160a01b0383165f90815260036020526040902061128c90336119ec565b505f80546040516370a0823160e01b81523060048201526001600160a01b03909116906370a0823190602401602060405180830381865afa1580156112d3573d5f803e3d5ffd5b505050506040513d601f19601f820116820180604052508101906112f791906128b0565b6040516323b872dd60e01b8152336004820152306024820152604481018490529091506001600160a01b038416906323b872dd906064016020604051808303815f875af115801561134a573d5f803e3d5ffd5b505050506040513d601f19601f8201168201806040525081019061136e91906128c7565b50611379828261288a565b5f546040516370a0823160e01b81523060048201526001600160a01b03909116906370a0823190602401602060405180830381865afa1580156113be573d5f803e3d5ffd5b505050506040513d601f19601f820116820180604052508101906113e291906128b0565b1461140057604051631910d68360e21b815260040160405180910390fd5b6114158461140d866108cc565b853386611aad565b826001600160a01b031661142885610c17565b60408051338152602081018690526001600160a01b038816917f7be65c2ae4d3c544de23b1db5bea4d541c02b93a5f4302852f4dc9880e0cb554910160405180910390a450505050565b6001600160a01b0381165f908152600160205260408120546107bc90426128e6565b7ff0c57e16840df040f15088dc2f81fe391c3923bec73e23a9662efc9c229c6a008054600160401b810460ff1615906001600160401b03165f811580156114d85750825b90505f826001600160401b031660011480156114f35750303b155b905081158015611501575080155b1561151f5760405163f92ee8a960e01b815260040160405180910390fd5b845467ffffffffffffffff19166001178555831561154957845460ff60401b1916600160401b1785555b611551611e67565b5f80546001600160a01b0319166001600160a01b03881617905583156115b157845460ff60401b19168555604051600181527fc7f505b2f371ae2175ee4913f4499e1f2633a7b5936321eed1cdaeb6115181d29060200160405180910390a15b505050505050565b6115c2826107c2565b6115cb81611756565b6109178383611804565b6001600160a01b0381165f908152600460205260408120606091906115f990611742565b6001600160401b038111156116105761161061239a565b604051908082528060200260200182016040528015611639578160200160208202803683370190505b5090505f5b6001600160a01b0384165f90815260046020526040902061165e90611742565b8110156108c5576001600160a01b0384165f908152600460205260409020611686908261174b565b82828151811061169857611698612862565b6001600160a01b039092166020928302919091019091015260010161163e565b5f5b85811015611739576117318787838181106116d7576116d7612862565b90506020020160208101906116ec91906122c3565b8484848181106116fe576116fe612862565b905060200201602081019061171391906122c3565b87878581811061172557611725612862565b90506020020135611b38565b6001016116ba565b50505050505050565b5f6107bc825490565b5f6109968383611e79565b6117608133611e9f565b50565b5f5f8051602061293c83398151915261177c8484610ca9565b6117fb575f848152602082815260408083206001600160a01b03871684529091529020805460ff191660011790556117b13390565b6001600160a01b0316836001600160a01b0316857f2f8788117e7eff1d82e926ec794901d17c78024a50270940304540a733656f0d60405160405180910390a460019150506107bc565b5f9150506107bc565b5f5f8051602061293c83398151915261181d8484610ca9565b156117fb575f848152602082815260408083206001600160a01b0387168085529252808320805460ff1916905551339287917ff6391f5c32d9c69d2a47ea670b442974b53935d1edc7fd64eb21e047a839171b9190a460019150506107bc565b306001600160a01b037f000000000000000000000000000000000000000000000000000000000000000016148061190357507f00000000000000000000000000000000000000000000000000000000000000006001600160a01b03166118f75f8051602061291c833981519152546001600160a01b031690565b6001600160a01b031614155b156112695760405163703e46dd60e11b815260040160405180910390fd5b5f6109d281611756565b816001600160a01b03166352d1902d6040518163ffffffff1660e01b8152600401602060405180830381865afa925050508015611985575060408051601f3d908101601f19168201909252611982918101906128b0565b60015b6119b257604051634c9c8ce360e01b81526001600160a01b03831660048201526024015b60405180910390fd5b5f8051602061291c83398151915281146119e257604051632a87526960e21b8152600481018290526024016119a9565b6109508383611ed8565b5f610996836001600160a01b038416611f2d565b306001600160a01b037f000000000000000000000000000000000000000000000000000000000000000016146112695760405163703e46dd60e11b815260040160405180910390fd5b6001600160a01b038086165f90815260066020908152604080832088845282528083208785168452825280832093861683529290529081208054839290611a9190849061288a565b90915550505050505050565b611aa5611f79565b611269611e67565b6001600160a01b038086165f90815260056020908152604080832088845282528083208785168452825280832093861683529290529081208054839290611af590849061288a565b90915550506001600160a01b038086165f908152600760209081526040808320888452825280832093871683529290529081208054839290611a9190849061288a565b5f546001600160a01b03808416911603611bbf575f5460405163a9059cbb60e01b81526001600160a01b038581166004830152602482018490529091169063a9059cbb906044016020604051808303815f875af1158015611b9b573d5f803e3d5ffd5b505050506040513d601f19601f8201168201806040525081019061091791906128c7565b5f5460405163095ea7b360e01b81526001600160a01b038481166004830152602482018490529091169063095ea7b3906044016020604051808303815f875af1158015611c0e573d5f803e3d5ffd5b505050506040513d601f19601f82011682018060405250810190611c3291906128c7565b5060405163af91359560e01b81526001600160a01b0384811660048301526024820183905283169063af913595906044015f604051808303815f87803b158015611c7a575f80fd5b505af1158015611739573d5f803e3d5ffd5b5f818310611c9a5781610996565b5090919050565b835f611caf87838787610c6c565b905082811015611ccb57611cc68783878785611fc2565b611739565b6117398783878787611fc2565b5f611ce585858585610c6c565b90505f611cf385600161288a565b90505f611d0287838787610c2f565b905082811115611739576001600160a01b038088165f9081526006602090815260408083208684528252808320848a1684528252808320938816835292905220839055611739565b5f5b6001600160a01b0383165f908152600360205260409020611d6c90611742565b811015611e01576001600160a01b0383165f908152600360205260408120611d94908361174b565b90505f5b6001600160a01b0385165f908152600460205260409020611db890611742565b811015611df7576001600160a01b0385165f908152600460205260408120611de0908361174b565b9050611dee8686838661204d565b50600101611d98565b5050600101611d4c565b50611e0d81600161288a565b6001600160a01b0383165f81815260026020526040908190209290925590517fb693195b5ff3e376f8b562486abc516e10fe2467b75f0e4165e79cf4ab70dc4190611e5b9084815260200190565b60405180910390a25050565b611e6f611f79565b6117605f33611763565b5f825f018281548110611e8e57611e8e612862565b905f5260205f200154905092915050565b611ea98282610ca9565b6109d25760405163e2517d3f60e01b81526001600160a01b0382166004820152602481018390526044016119a9565b611ee18261210f565b6040516001600160a01b038316907fbc7cd75a20ee27fd9adebab32041f755214dbc6bffa90cc0225b39da2e5c2d3b905f90a2805115611f25576109508282612172565b6109d26121e4565b5f818152600183016020526040812054611f7257508154600181810184555f8481526020808220909301849055845484825282860190935260409020919091556107bc565b505f6107bc565b7ff0c57e16840df040f15088dc2f81fe391c3923bec73e23a9662efc9c229c6a0054600160401b900460ff1661126957604051631afcd79f60e31b815260040160405180910390fd5b6001600160a01b038086165f9081526005602090815260408083208884528252808320878516845282528083209386168352929052908120805483929061200a90849061289d565b90915550506001600160a01b038086165f908152600760209081526040808320888452825280832093871683529290529081208054839290611a9190849061289d565b5f61205a85858585610c6c565b90505f6120738661206c87600161288a565b8686610c2f565b9050818111156120805750805b5f61208b828461289d565b90506120a48761209c88600161288a565b878785611aad565b6120af848684611b38565b846001600160a01b031686856001600160a01b03167f3ddb7f725ac69363a1df8296c965af4d268f31b082480dcd8419d284fb7fd34286866040516120fe929190918252602082015260400190565b60405180910390a450505050505050565b806001600160a01b03163b5f0361214457604051634c9c8ce360e01b81526001600160a01b03821660048201526024016119a9565b5f8051602061291c83398151915280546001600160a01b0319166001600160a01b0392909216919091179055565b60605f80846001600160a01b03168460405161218e9190612905565b5f60405180830381855af49150503d805f81146121c6576040519150601f19603f3d011682016040523d82523d5f602084013e6121cb565b606091505b50915091506121db858383612203565b95945050505050565b34156112695760405163b398979f60e01b815260040160405180910390fd5b606082612218576122138261225f565b610996565b815115801561222f57506001600160a01b0384163b155b1561225857604051639996b31560e01b81526001600160a01b03851660048201526024016119a9565b5080610996565b80511561226f5780518082602001fd5b604051630a12f52160e11b815260040160405180910390fd5b5f60208284031215612298575f80fd5b81356001600160e01b031981168114610996575f80fd5b6001600160a01b0381168114611760575f80fd5b5f602082840312156122d3575f80fd5b8135610996816122af565b5f602082840312156122ee575f80fd5b5035919050565b602080825282518282018190525f918401906040840190835b818110156123355783516001600160a01b031683526020938401939092019160010161230e565b509095945050505050565b5f8060408385031215612351575f80fd5b823591506020830135612363816122af565b809150509250929050565b5f806040838503121561237f575f80fd5b823561238a816122af565b91506020830135612363816122af565b634e487b7160e01b5f52604160045260245ffd5b5f80604083850312156123bf575f80fd5b82356123ca816122af565b915060208301356001600160401b038111156123e4575f80fd5b8301601f810185136123f4575f80fd5b80356001600160401b0381111561240d5761240d61239a565b604051601f8201601f19908116603f011681016001600160401b038111828210171561243b5761243b61239a565b604052818152828201602001871015612452575f80fd5b816020840160208301375f602083830101528093505050509250929050565b5f8083601f840112612481575f80fd5b5081356001600160401b03811115612497575f80fd5b6020830191508360208260051b85010111156124b1575f80fd5b9250929050565b5f805f80606085870312156124cb575f80fd5b84356124d6816122af565b93506020850135925060408501356001600160401b038111156124f7575f80fd5b61250387828801612471565b95989497509550505050565b5f805f60608486031215612521575f80fd5b833561252c816122af565b9250602084013591506040840135612543816122af565b809150509250925092565b5f805f60608486031215612560575f80fd5b833561256b816122af565b9250602084013561257b816122af565b929592945050506040919091013590565b5f805f806080858703121561259f575f80fd5b84356125aa816122af565b93506020850135925060408501356125c1816122af565b915060608501356125d1816122af565b939692955090935050565b5f805f606084860312156125ee575f80fd5b83356125f9816122af565b92506020840135612609816122af565b91506040840135612543816122af565b5f805f805f805f6080888a03121561262f575f80fd5b873561263a816122af565b965060208801356001600160401b03811115612654575f80fd5b6126608a828b01612471565b90975095505060408801356001600160401b0381111561267e575f80fd5b61268a8a828b01612471565b90955093505060608801356001600160401b038111156126a8575f80fd5b6126b48a828b01612471565b989b979a50959850939692959293505050565b5f805f805f805f806080898b0312156126de575f80fd5b88356001600160401b038111156126f3575f80fd5b6126ff8b828c01612471565b90995097505060208901356001600160401b0381111561271d575f80fd5b6127298b828c01612471565b90975095505060408901356001600160401b03811115612747575f80fd5b6127538b828c01612471565b90955093505060608901356001600160401b03811115612771575f80fd5b61277d8b828c01612471565b999c989b5096995094979396929594505050565b602081525f82518060208401528060208501604085015e5f604082850101526040601f19601f83011684010191505092915050565b5f805f805f80606087890312156127db575f80fd5b86356001600160401b038111156127f0575f80fd5b6127fc89828a01612471565b90975095505060208701356001600160401b0381111561281a575f80fd5b61282689828a01612471565b90955093505060408701356001600160401b03811115612844575f80fd5b61285089828a01612471565b979a9699509497509295939492505050565b634e487b7160e01b5f52603260045260245ffd5b634e487b7160e01b5f52601160045260245ffd5b808201808211156107bc576107bc612876565b818103818111156107bc576107bc612876565b5f602082840312156128c0575f80fd5b5051919050565b5f602082840312156128d7575f80fd5b81518015158114610996575f80fd5b5f8261290057634e487b7160e01b5f52601260045260245ffd5b500490565b5f82518060208501845e5f92019182525091905056fe360894a13ba1a3210667c828492db98dca3e2076cc3735a920a3ca505d382bbc02dd7bc7dec4dceedda775e58dd541e08a116c6c53815c0bd028192f7b626800a2646970667358221220765a22a572cfaa03f38374cf616ceaf2166d3b0b4c8fb085b0782243f418ad3864736f6c634300081a0033","linkReferences":{}},"methodIdentifiers":{"DEFAULT_ADMIN_ROLE()":"a217fddf","UPGRADE_INTERFACE_VERSION()":"ad3cb1cc","acceptGenesisCeremony()":"92a2ebf3","currentEpochByDomain(address)":"0a0b1b64","epochDurationByDomain(address)":"3bccf635","epochStakesByDomain(address,uint256,address,address)":"c0b95ab8","epochTotalStakeByDomain(address,uint256,address)":"54300d7a","epochUnstakesByDomain(address,uint256,address,address)":"65f1ea20","getAttestersByDomain(address)":"2924b73b","getCurrentEpoch(address)":"4d3223a5","getCurrentEpochStake(address,address,address)":"70224360","getCurrentEpochUnstake(address,address,address)":"7667b76d","getCustodiansByDomain(address)":"d5ca03de","getEpochByBlockTime(address)":"c3471ff8","getNextEpoch(address)":"8489e580","getNextEpochByBlockTime(address)":"2c7785a8","getRoleAdmin(bytes32)":"248a9ca3","getStakeAtEpoch(address,uint256,address,address)":"8d908258","getTotalStakeForCurrentEpoch(address,address)":"44198e4d","getTotalStakeForEpoch(address,uint256,address)":"5cdf3155","getUnstakeAtEpoch(address,uint256,address,address)":"879b938b","grantRole(bytes32,address)":"2f2ff15d","hasRole(bytes32,address)":"91d14854","initialize()":"8129fc1c","initialize(address)":"c4d66de8","proxiableUUID()":"52d1902d","registerDomain(address,uint256,address[])":"51065c89","renounceRole(bytes32,address)":"36568abe","revokeRole(bytes32,address)":"d547741f","reward(address[],uint256[],address[])":"da33ee7f","rollOverEpoch()":"a887b71c","setGenesisCeremony(address,address[],address[],uint256[])":"a0f94656","slash(address[],address[],uint256[],uint256[])":"a885c975","stake(address,address,uint256)":"bf6eac2f","supportsInterface(bytes4)":"01ffc9a7","token()":"fc0c546a","unstake(address,address,uint256)":"60829f8a","upgradeToAndCall(address,bytes)":"4f1ef286"},"storageLayout":{"storage":[{"astId":53378,"contract":"src/staking/MovementStaking.sol:MovementStaking","label":"token","offset":0,"slot":"0","type":"t_contract(IERC20)48753"},{"astId":53382,"contract":"src/staking/MovementStaking.sol:MovementStaking","label":"epochDurationByDomain","offset":0,"slot":"1","type":"t_mapping(t_address,t_uint256)"},{"astId":53386,"contract":"src/staking/MovementStaking.sol:MovementStaking","label":"currentEpochByDomain","offset":0,"slot":"2","type":"t_mapping(t_address,t_uint256)"},{"astId":53391,"contract":"src/staking/MovementStaking.sol:MovementStaking","label":"attestersByDomain","offset":0,"slot":"3","type":"t_mapping(t_address,t_struct(AddressSet)50860_storage)"},{"astId":53396,"contract":"src/staking/MovementStaking.sol:MovementStaking","label":"custodiansByDomain","offset":0,"slot":"4","type":"t_mapping(t_address,t_struct(AddressSet)50860_storage)"},{"astId":53406,"contract":"src/staking/MovementStaking.sol:MovementStaking","label":"epochStakesByDomain","offset":0,"slot":"5","type":"t_mapping(t_address,t_mapping(t_uint256,t_mapping(t_address,t_mapping(t_address,t_uint256))))"},{"astId":53416,"contract":"src/staking/MovementStaking.sol:MovementStaking","label":"epochUnstakesByDomain","offset":0,"slot":"6","type":"t_mapping(t_address,t_mapping(t_uint256,t_mapping(t_address,t_mapping(t_address,t_uint256))))"},{"astId":53424,"contract":"src/staking/MovementStaking.sol:MovementStaking","label":"epochTotalStakeByDomain","offset":0,"slot":"7","type":"t_mapping(t_address,t_mapping(t_uint256,t_mapping(t_address,t_uint256)))"}],"types":{"t_address":{"encoding":"inplace","label":"address","numberOfBytes":"20"},"t_array(t_bytes32)dyn_storage":{"encoding":"dynamic_array","label":"bytes32[]","numberOfBytes":"32","base":"t_bytes32"},"t_bytes32":{"encoding":"inplace","label":"bytes32","numberOfBytes":"32"},"t_contract(IERC20)48753":{"encoding":"inplace","label":"contract IERC20","numberOfBytes":"20"},"t_mapping(t_address,t_mapping(t_address,t_uint256))":{"encoding":"mapping","key":"t_address","label":"mapping(address => mapping(address => uint256))","numberOfBytes":"32","value":"t_mapping(t_address,t_uint256)"},"t_mapping(t_address,t_mapping(t_uint256,t_mapping(t_address,t_mapping(t_address,t_uint256))))":{"encoding":"mapping","key":"t_address","label":"mapping(address => mapping(uint256 => mapping(address => mapping(address => uint256))))","numberOfBytes":"32","value":"t_mapping(t_uint256,t_mapping(t_address,t_mapping(t_address,t_uint256)))"},"t_mapping(t_address,t_mapping(t_uint256,t_mapping(t_address,t_uint256)))":{"encoding":"mapping","key":"t_address","label":"mapping(address => mapping(uint256 => mapping(address => uint256)))","numberOfBytes":"32","value":"t_mapping(t_uint256,t_mapping(t_address,t_uint256))"},"t_mapping(t_address,t_struct(AddressSet)50860_storage)":{"encoding":"mapping","key":"t_address","label":"mapping(address => struct EnumerableSet.AddressSet)","numberOfBytes":"32","value":"t_struct(AddressSet)50860_storage"},"t_mapping(t_address,t_uint256)":{"encoding":"mapping","key":"t_address","label":"mapping(address => uint256)","numberOfBytes":"32","value":"t_uint256"},"t_mapping(t_bytes32,t_uint256)":{"encoding":"mapping","key":"t_bytes32","label":"mapping(bytes32 => uint256)","numberOfBytes":"32","value":"t_uint256"},"t_mapping(t_uint256,t_mapping(t_address,t_mapping(t_address,t_uint256)))":{"encoding":"mapping","key":"t_uint256","label":"mapping(uint256 => mapping(address => mapping(address => uint256)))","numberOfBytes":"32","value":"t_mapping(t_address,t_mapping(t_address,t_uint256))"},"t_mapping(t_uint256,t_mapping(t_address,t_uint256))":{"encoding":"mapping","key":"t_uint256","label":"mapping(uint256 => mapping(address => uint256))","numberOfBytes":"32","value":"t_mapping(t_address,t_uint256)"},"t_struct(AddressSet)50860_storage":{"encoding":"inplace","label":"struct EnumerableSet.AddressSet","numberOfBytes":"64","members":[{"astId":50859,"contract":"src/staking/MovementStaking.sol:MovementStaking","label":"_inner","offset":0,"slot":"0","type":"t_struct(Set)50545_storage"}]},"t_struct(Set)50545_storage":{"encoding":"inplace","label":"struct EnumerableSet.Set","numberOfBytes":"64","members":[{"astId":50540,"contract":"src/staking/MovementStaking.sol:MovementStaking","label":"_values","offset":0,"slot":"0","type":"t_array(t_bytes32)dyn_storage"},{"astId":50544,"contract":"src/staking/MovementStaking.sol:MovementStaking","label":"_positions","offset":0,"slot":"1","type":"t_mapping(t_bytes32,t_uint256)"}]},"t_uint256":{"encoding":"inplace","label":"uint256","numberOfBytes":"32"}}},"id":51}