{"abi":[{"type":"constructor","inputs":[],"stateMutability":"nonpayable"},{"type":"function","name":"DEFAULT_ADMIN_ROLE","inputs":[],"outputs":[{"name":"","type":"bytes32","internalType":"bytes32"}],"stateMutability":"view"},{"type":"function","name":"DOMAIN_SEPARATOR","inputs":[],"outputs":[{"name":"","type":"bytes32","internalType":"bytes32"}],"stateMutability":"view"},{"type":"function","name":"allowance","inputs":[{"name":"owner","type":"address","internalType":"address"},{"name":"spender","type":"address","internalType":"address"}],"outputs":[{"name":"","type":"uint256","internalType":"uint256"}],"stateMutability":"view"},{"type":"function","name":"approve","inputs":[{"name":"spender","type":"address","internalType":"address"},{"name":"value","type":"uint256","internalType":"uint256"}],"outputs":[{"name":"","type":"bool","internalType":"bool"}],"stateMutability":"nonpayable"},{"type":"function","name":"balanceOf","inputs":[{"name":"account","type":"address","internalType":"address"}],"outputs":[{"name":"","type":"uint256","internalType":"uint256"}],"stateMutability":"view"},{"type":"function","name":"decimals","inputs":[],"outputs":[{"name":"","type":"uint8","internalType":"uint8"}],"stateMutability":"pure"},{"type":"function","name":"eip712Domain","inputs":[],"outputs":[{"name":"fields","type":"bytes1","internalType":"bytes1"},{"name":"name","type":"string","internalType":"string"},{"name":"version","type":"string","internalType":"string"},{"name":"chainId","type":"uint256","internalType":"uint256"},{"name":"verifyingContract","type":"address","internalType":"address"},{"name":"salt","type":"bytes32","internalType":"bytes32"},{"name":"extensions","type":"uint256[]","internalType":"uint256[]"}],"stateMutability":"view"},{"type":"function","name":"getRoleAdmin","inputs":[{"name":"role","type":"bytes32","internalType":"bytes32"}],"outputs":[{"name":"","type":"bytes32","internalType":"bytes32"}],"stateMutability":"view"},{"type":"function","name":"grantRole","inputs":[{"name":"role","type":"bytes32","internalType":"bytes32"},{"name":"account","type":"address","internalType":"address"}],"outputs":[],"stateMutability":"nonpayable"},{"type":"function","name":"hasRole","inputs":[{"name":"role","type":"bytes32","internalType":"bytes32"},{"name":"account","type":"address","internalType":"address"}],"outputs":[{"name":"","type":"bool","internalType":"bool"}],"stateMutability":"view"},{"type":"function","name":"initialize","inputs":[{"name":"_owner","type":"address","internalType":"address"},{"name":"_custody","type":"address","internalType":"address"}],"outputs":[],"stateMutability":"nonpayable"},{"type":"function","name":"name","inputs":[],"outputs":[{"name":"","type":"string","internalType":"string"}],"stateMutability":"view"},{"type":"function","name":"nonces","inputs":[{"name":"owner","type":"address","internalType":"address"}],"outputs":[{"name":"","type":"uint256","internalType":"uint256"}],"stateMutability":"view"},{"type":"function","name":"permit","inputs":[{"name":"owner","type":"address","internalType":"address"},{"name":"spender","type":"address","internalType":"address"},{"name":"value","type":"uint256","internalType":"uint256"},{"name":"deadline","type":"uint256","internalType":"uint256"},{"name":"v","type":"uint8","internalType":"uint8"},{"name":"r","type":"bytes32","internalType":"bytes32"},{"name":"s","type":"bytes32","internalType":"bytes32"}],"outputs":[],"stateMutability":"nonpayable"},{"type":"function","name":"renounceRole","inputs":[{"name":"role","type":"bytes32","internalType":"bytes32"},{"name":"callerConfirmation","type":"address","internalType":"address"}],"outputs":[],"stateMutability":"nonpayable"},{"type":"function","name":"revokeRole","inputs":[{"name":"role","type":"bytes32","internalType":"bytes32"},{"name":"account","type":"address","internalType":"address"}],"outputs":[],"stateMutability":"nonpayable"},{"type":"function","name":"supportsInterface","inputs":[{"name":"interfaceId","type":"bytes4","internalType":"bytes4"}],"outputs":[{"name":"","type":"bool","internalType":"bool"}],"stateMutability":"view"},{"type":"function","name":"symbol","inputs":[],"outputs":[{"name":"","type":"string","internalType":"string"}],"stateMutability":"view"},{"type":"function","name":"totalSupply","inputs":[],"outputs":[{"name":"","type":"uint256","internalType":"uint256"}],"stateMutability":"view"},{"type":"function","name":"transfer","inputs":[{"name":"to","type":"address","internalType":"address"},{"name":"value","type":"uint256","internalType":"uint256"}],"outputs":[{"name":"","type":"bool","internalType":"bool"}],"stateMutability":"nonpayable"},{"type":"function","name":"transferFrom","inputs":[{"name":"from","type":"address","internalType":"address"},{"name":"to","type":"address","internalType":"address"},{"name":"value","type":"uint256","internalType":"uint256"}],"outputs":[{"name":"","type":"bool","internalType":"bool"}],"stateMutability":"nonpayable"},{"type":"event","name":"Approval","inputs":[{"name":"owner","type":"address","indexed":true,"internalType":"address"},{"name":"spender","type":"address","indexed":true,"internalType":"address"},{"name":"value","type":"uint256","indexed":false,"internalType":"uint256"}],"anonymous":false},{"type":"event","name":"EIP712DomainChanged","inputs":[],"anonymous":false},{"type":"event","name":"Initialized","inputs":[{"name":"version","type":"uint64","indexed":false,"internalType":"uint64"}],"anonymous":false},{"type":"event","name":"RoleAdminChanged","inputs":[{"name":"role","type":"bytes32","indexed":true,"internalType":"bytes32"},{"name":"previousAdminRole","type":"bytes32","indexed":true,"internalType":"bytes32"},{"name":"newAdminRole","type":"bytes32","indexed":true,"internalType":"bytes32"}],"anonymous":false},{"type":"event","name":"RoleGranted","inputs":[{"name":"role","type":"bytes32","indexed":true,"internalType":"bytes32"},{"name":"account","type":"address","indexed":true,"internalType":"address"},{"name":"sender","type":"address","indexed":true,"internalType":"address"}],"anonymous":false},{"type":"event","name":"RoleRevoked","inputs":[{"name":"role","type":"bytes32","indexed":true,"internalType":"bytes32"},{"name":"account","type":"address","indexed":true,"internalType":"address"},{"name":"sender","type":"address","indexed":true,"internalType":"address"}],"anonymous":false},{"type":"event","name":"Transfer","inputs":[{"name":"from","type":"address","indexed":true,"internalType":"address"},{"name":"to","type":"address","indexed":true,"internalType":"address"},{"name":"value","type":"uint256","indexed":false,"internalType":"uint256"}],"anonymous":false},{"type":"error","name":"AccessControlBadConfirmation","inputs":[]},{"type":"error","name":"AccessControlUnauthorizedAccount","inputs":[{"name":"account","type":"address","internalType":"address"},{"name":"neededRole","type":"bytes32","internalType":"bytes32"}]},{"type":"error","name":"ECDSAInvalidSignature","inputs":[]},{"type":"error","name":"ECDSAInvalidSignatureLength","inputs":[{"name":"length","type":"uint256","internalType":"uint256"}]},{"type":"error","name":"ECDSAInvalidSignatureS","inputs":[{"name":"s","type":"bytes32","internalType":"bytes32"}]},{"type":"error","name":"ERC20InsufficientAllowance","inputs":[{"name":"spender","type":"address","internalType":"address"},{"name":"allowance","type":"uint256","internalType":"uint256"},{"name":"needed","type":"uint256","internalType":"uint256"}]},{"type":"error","name":"ERC20InsufficientBalance","inputs":[{"name":"sender","type":"address","internalType":"address"},{"name":"balance","type":"uint256","internalType":"uint256"},{"name":"needed","type":"uint256","internalType":"uint256"}]},{"type":"error","name":"ERC20InvalidApprover","inputs":[{"name":"approver","type":"address","internalType":"address"}]},{"type":"error","name":"ERC20InvalidReceiver","inputs":[{"name":"receiver","type":"address","internalType":"address"}]},{"type":"error","name":"ERC20InvalidSender","inputs":[{"name":"sender","type":"address","internalType":"address"}]},{"type":"error","name":"ERC20InvalidSpender","inputs":[{"name":"spender","type":"address","internalType":"address"}]},{"type":"error","name":"ERC2612ExpiredSignature","inputs":[{"name":"deadline","type":"uint256","internalType":"uint256"}]},{"type":"error","name":"ERC2612InvalidSigner","inputs":[{"name":"signer","type":"address","internalType":"address"},{"name":"owner","type":"address","internalType":"address"}]},{"type":"error","name":"InvalidAccountNonce","inputs":[{"name":"account","type":"address","internalType":"address"},{"name":"currentNonce","type":"uint256","internalType":"uint256"}]},{"type":"error","name":"InvalidInitialization","inputs":[]},{"type":"error","name":"NotInitializing","inputs":[]}],"bytecode":{"object":"0x6080604052348015600e575f80fd5b5060156019565b60c9565b7ff0c57e16840df040f15088dc2f81fe391c3923bec73e23a9662efc9c229c6a00805468010000000000000000900460ff161560685760405163f92ee8a960e01b815260040160405180910390fd5b80546001600160401b039081161460c65780546001600160401b0319166001600160401b0390811782556040519081527fc7f505b2f371ae2175ee4913f4499e1f2633a7b5936321eed1cdaeb6115181d29060200160405180910390a15b50565b61181a806100d65f395ff3fe608060405234801561000f575f80fd5b5060043610610132575f3560e01c8063485cc955116100b457806395d89b411161007957806395d89b4114610283578063a217fddf1461028b578063a9059cbb14610292578063d505accf146102a5578063d547741f146102b8578063dd62ed3e146102cb575f80fd5b8063485cc9551461021c57806370a082311461022f5780637ecebe001461024257806384b0196e1461025557806391d1485414610270575f80fd5b8063248a9ca3116100fa578063248a9ca3146101ca5780632f2ff15d146101dd578063313ce567146101f25780633644e5151461020157806336568abe14610209575f80fd5b806301ffc9a71461013657806306fdde031461015e578063095ea7b31461017357806318160ddd1461018657806323b872dd146101b7575b5f80fd5b610149610144366004611286565b6102de565b60405190151581526020015b60405180910390f35b610166610314565b60405161015591906112e2565b61014961018136600461130f565b6103b9565b7f52c63247e1f47db19d5ce0460030c497f067ca4cebf71ba98eeadabe20bace02545b604051908152602001610155565b6101496101c5366004611337565b6103d0565b6101a96101d8366004611371565b6103f3565b6101f06101eb366004611388565b610413565b005b60405160088152602001610155565b6101a9610435565b6101f0610217366004611388565b610443565b6101f061022a3660046113b2565b61047b565b6101a961023d3660046113da565b610661565b6101a96102503660046113da565b610691565b61025d61069b565b60405161015597969594939291906113f3565b61014961027e366004611388565b610749565b61016661077f565b6101a95f81565b6101496102a036600461130f565b6107bd565b6101f06102b3366004611489565b6107ca565b6101f06102c6366004611388565b61091f565b6101a96102d93660046113b2565b61093b565b5f6001600160e01b03198216637965db0b60e01b148061030e57506301ffc9a760e01b6001600160e01b03198316145b92915050565b60605f5f805160206117858339815191525b9050806003018054610337906114f6565b80601f0160208091040260200160405190810160405280929190818152602001828054610363906114f6565b80156103ae5780601f10610385576101008083540402835291602001916103ae565b820191905f5260205f20905b81548152906001019060200180831161039157829003601f168201915b505050505091505090565b5f336103c6818585610984565b5060019392505050565b5f336103dd858285610991565b6103e88585856109ee565b506001949350505050565b5f9081525f805160206117c5833981519152602052604090206001015490565b61041c826103f3565b61042581610a4b565b61042f8383610a58565b50505050565b5f61043e610af9565b905090565b6001600160a01b038116331461046c5760405163334bd91960e11b815260040160405180910390fd5b6104768282610b02565b505050565b7ff0c57e16840df040f15088dc2f81fe391c3923bec73e23a9662efc9c229c6a008054600160401b810460ff16159067ffffffffffffffff165f811580156104c05750825b90505f8267ffffffffffffffff1660011480156104dc5750303b155b9050811580156104ea575080155b156105085760405163f92ee8a960e01b815260040160405180910390fd5b845467ffffffffffffffff19166001178555831561053257845460ff60401b1916600160401b1785555b6001600160a01b0387161580159061055257506001600160a01b03861615155b61055a575f80fd5b6105a060405180604001604052806008815260200167135bdd995b595b9d60c21b815250604051806040016040528060048152602001634d4f564560e01b815250610b7b565b6105e360405180604001604052806008815260200167135bdd995b595b9d60c21b815250604051806040016040528060018152602001603160f81b815250610b91565b6105ed5f88610a58565b50610612866105fe6008600a611625565b61060d906402540be400611633565b610bf0565b831561065857845460ff60401b19168555604051600181527fc7f505b2f371ae2175ee4913f4499e1f2633a7b5936321eed1cdaeb6115181d29060200160405180910390a15b50505050505050565b5f805f805160206117858339815191525b6001600160a01b039093165f9081526020939093525050604090205490565b5f61030e82610c24565b5f60608082808083815f805160206117a583398151915280549091501580156106c657506001810154155b61070f5760405162461bcd60e51b81526020600482015260156024820152741152540dcc4c8e88155b9a5b9a5d1a585b1a5e9959605a1b60448201526064015b60405180910390fd5b610717610c4c565b61071f610c8a565b604080515f80825260208201909252600f60f81b9c939b5091995046985030975095509350915050565b5f9182525f805160206117c5833981519152602090815260408084206001600160a01b0393909316845291905290205460ff1690565b7f52c63247e1f47db19d5ce0460030c497f067ca4cebf71ba98eeadabe20bace0480546060915f8051602061178583398151915291610337906114f6565b5f336103c68185856109ee565b834211156107ee5760405163313c898160e11b815260048101859052602401610706565b5f7f6e71edae12b1b97f4d1f60370fef10105fa2faae0126114a169c64845d6126c98888886108588c6001600160a01b03165f9081527f5ab42ced628888259c08ac98db1eb0cf702fc1501344311d8b100cd1bfe4bb006020526040902080546001810190915590565b6040805160208101969096526001600160a01b0394851690860152929091166060840152608083015260a082015260c0810186905260e0016040516020818303038152906040528051906020012090505f6108b282610ca0565b90505f6108c182878787610ccc565b9050896001600160a01b0316816001600160a01b031614610908576040516325c0072360e11b81526001600160a01b0380831660048301528b166024820152604401610706565b6109138a8a8a610984565b50505050505050505050565b610928826103f3565b61093181610a4b565b61042f8383610b02565b6001600160a01b039182165f9081527f52c63247e1f47db19d5ce0460030c497f067ca4cebf71ba98eeadabe20bace016020908152604080832093909416825291909152205490565b6104768383836001610cf8565b5f61099c848461093b565b90505f19811461042f57818110156109e057604051637dc7a0d960e11b81526001600160a01b03841660048201526024810182905260448101839052606401610706565b61042f84848484035f610cf8565b6001600160a01b038316610a1757604051634b637e8f60e11b81525f6004820152602401610706565b6001600160a01b038216610a405760405163ec442f0560e01b81525f6004820152602401610706565b610476838383610ddc565b610a558133610f15565b50565b5f5f805160206117c5833981519152610a718484610749565b610af0575f848152602082815260408083206001600160a01b03871684529091529020805460ff19166001179055610aa63390565b6001600160a01b0316836001600160a01b0316857f2f8788117e7eff1d82e926ec794901d17c78024a50270940304540a733656f0d60405160405180910390a4600191505061030e565b5f91505061030e565b5f61043e610f4e565b5f5f805160206117c5833981519152610b1b8484610749565b15610af0575f848152602082815260408083206001600160a01b0387168085529252808320805460ff1916905551339287917ff6391f5c32d9c69d2a47ea670b442974b53935d1edc7fd64eb21e047a839171b9190a4600191505061030e565b610b83610fc1565b610b8d828261100c565b5050565b610b99610fc1565b5f805160206117a58339815191527fa16a46d94261c7517cc8ff89f61c0ce93598e3c849801011dee649a6a557d102610bd284826116a2565b5060038101610be183826116a2565b505f8082556001909101555050565b6001600160a01b038216610c195760405163ec442f0560e01b81525f6004820152602401610706565b610b8d5f8383610ddc565b5f807f5ab42ced628888259c08ac98db1eb0cf702fc1501344311d8b100cd1bfe4bb00610672565b7fa16a46d94261c7517cc8ff89f61c0ce93598e3c849801011dee649a6a557d10280546060915f805160206117a583398151915291610337906114f6565b60605f5f805160206117a5833981519152610326565b5f61030e610cac610af9565b8360405161190160f01b8152600281019290925260228201526042902090565b5f805f80610cdc8888888861105c565b925092509250610cec8282611124565b50909695505050505050565b5f805160206117858339815191526001600160a01b038516610d2f5760405163e602df0560e01b81525f6004820152602401610706565b6001600160a01b038416610d5857604051634a1406b160e11b81525f6004820152602401610706565b6001600160a01b038086165f90815260018301602090815260408083209388168352929052208390558115610dd557836001600160a01b0316856001600160a01b03167f8c5be1e5ebec7d5bd14f71427d1e84f3dd0314c0f7b2291e5b200ac8c7c3b92585604051610dcc91815260200190565b60405180910390a35b5050505050565b5f805160206117858339815191526001600160a01b038416610e165781816002015f828254610e0b919061175d565b90915550610e869050565b6001600160a01b0384165f9081526020829052604090205482811015610e685760405163391434e360e21b81526001600160a01b03861660048201526024810182905260448101849052606401610706565b6001600160a01b0385165f9081526020839052604090209083900390555b6001600160a01b038316610ea4576002810180548390039055610ec2565b6001600160a01b0383165f9081526020829052604090208054830190555b826001600160a01b0316846001600160a01b03167fddf252ad1be2c89b69c2b068fc378daa952ba7f163c4a11628f55a4df523b3ef84604051610f0791815260200190565b60405180910390a350505050565b610f1f8282610749565b610b8d5760405163e2517d3f60e01b81526001600160a01b038216600482015260248101839052604401610706565b5f7f8b73c3c69bb8fe3d512ecc4cf759cc79239f7b179b0ffacaa9a75d522b39400f610f786111dc565b610f80611244565b60408051602081019490945283019190915260608201524660808201523060a082015260c00160405160208183030381529060405280519060200120905090565b7ff0c57e16840df040f15088dc2f81fe391c3923bec73e23a9662efc9c229c6a0054600160401b900460ff1661100a57604051631afcd79f60e31b815260040160405180910390fd5b565b611014610fc1565b5f805160206117858339815191527f52c63247e1f47db19d5ce0460030c497f067ca4cebf71ba98eeadabe20bace0361104d84826116a2565b506004810161042f83826116a2565b5f80807f7fffffffffffffffffffffffffffffff5d576e7357a4501ddfe92f46681b20a084111561109557505f9150600390508261111a565b604080515f808252602082018084528a905260ff891692820192909252606081018790526080810186905260019060a0016020604051602081039080840390855afa1580156110e6573d5f803e3d5ffd5b5050604051601f1901519150506001600160a01b03811661111157505f92506001915082905061111a565b92505f91508190505b9450945094915050565b5f82600381111561113757611137611770565b03611140575050565b600182600381111561115457611154611770565b036111725760405163f645eedf60e01b815260040160405180910390fd5b600282600381111561118657611186611770565b036111a75760405163fce698f760e01b815260048101829052602401610706565b60038260038111156111bb576111bb611770565b03610b8d576040516335e2f38360e21b815260048101829052602401610706565b5f5f805160206117a5833981519152816111f4610c4c565b80519091501561120c57805160209091012092915050565b8154801561121b579392505050565b7fc5d2460186f7233c927e7db2dcc703c0e500b653ca82273b7bfad8045d85a470935050505090565b5f5f805160206117a58339815191528161125c610c8a565b80519091501561127457805160209091012092915050565b6001820154801561121b579392505050565b5f60208284031215611296575f80fd5b81356001600160e01b0319811681146112ad575f80fd5b9392505050565b5f81518084528060208401602086015e5f602082860101526020601f19601f83011685010191505092915050565b602081525f6112ad60208301846112b4565b80356001600160a01b038116811461130a575f80fd5b919050565b5f8060408385031215611320575f80fd5b611329836112f4565b946020939093013593505050565b5f805f60608486031215611349575f80fd5b611352846112f4565b9250611360602085016112f4565b929592945050506040919091013590565b5f60208284031215611381575f80fd5b5035919050565b5f8060408385031215611399575f80fd5b823591506113a9602084016112f4565b90509250929050565b5f80604083850312156113c3575f80fd5b6113cc836112f4565b91506113a9602084016112f4565b5f602082840312156113ea575f80fd5b6112ad826112f4565b60ff60f81b8816815260e060208201525f61141160e08301896112b4565b828103604084015261142381896112b4565b606084018890526001600160a01b038716608085015260a0840186905283810360c0850152845180825260208087019350909101905f5b8181101561147857835183526020938401939092019160010161145a565b50909b9a5050505050505050505050565b5f805f805f805f60e0888a03121561149f575f80fd5b6114a8886112f4565b96506114b6602089016112f4565b95506040880135945060608801359350608088013560ff811681146114d9575f80fd5b9699959850939692959460a0840135945060c09093013592915050565b600181811c9082168061150a57607f821691505b60208210810361152857634e487b7160e01b5f52602260045260245ffd5b50919050565b634e487b7160e01b5f52601160045260245ffd5b6001815b600184111561157d578085048111156115615761156161152e565b600184161561156f57908102905b60019390931c928002611546565b935093915050565b5f826115935750600161030e565b8161159f57505f61030e565b81600181146115b557600281146115bf576115db565b600191505061030e565b60ff8411156115d0576115d061152e565b50506001821b61030e565b5060208310610133831016604e8410600b84101617156115fe575081810a61030e565b61160a5f198484611542565b805f190482111561161d5761161d61152e565b029392505050565b5f6112ad60ff841683611585565b808202811582820484141761030e5761030e61152e565b634e487b7160e01b5f52604160045260245ffd5b601f82111561047657805f5260205f20601f840160051c810160208510156116835750805b601f840160051c820191505b81811015610dd5575f815560010161168f565b815167ffffffffffffffff8111156116bc576116bc61164a565b6116d0816116ca84546114f6565b8461165e565b6020601f821160018114611702575f83156116eb5750848201515b5f19600385901b1c1916600184901b178455610dd5565b5f84815260208120601f198516915b828110156117315787850151825560209485019460019092019101611711565b508482101561174e57868401515f19600387901b60f8161c191681555b50505050600190811b01905550565b8082018082111561030e5761030e61152e565b634e487b7160e01b5f52602160045260245ffdfe52c63247e1f47db19d5ce0460030c497f067ca4cebf71ba98eeadabe20bace00a16a46d94261c7517cc8ff89f61c0ce93598e3c849801011dee649a6a557d10002dd7bc7dec4dceedda775e58dd541e08a116c6c53815c0bd028192f7b626800a26469706673582212200c213e57e697f2dee37f51b79647b3593da8c247917d58e21e2647bf25597abc64736f6c634300081a0033","linkReferences":{}},"methodIdentifiers":{"DEFAULT_ADMIN_ROLE()":"a217fddf","DOMAIN_SEPARATOR()":"3644e515","allowance(address,address)":"dd62ed3e","approve(address,uint256)":"095ea7b3","balanceOf(address)":"70a08231","decimals()":"313ce567","eip712Domain()":"84b0196e","getRoleAdmin(bytes32)":"248a9ca3","grantRole(bytes32,address)":"2f2ff15d","hasRole(bytes32,address)":"91d14854","initialize(address,address)":"485cc955","name()":"06fdde03","nonces(address)":"7ecebe00","permit(address,address,uint256,uint256,uint8,bytes32,bytes32)":"d505accf","renounceRole(bytes32,address)":"36568abe","revokeRole(bytes32,address)":"d547741f","supportsInterface(bytes4)":"01ffc9a7","symbol()":"95d89b41","totalSupply()":"18160ddd","transfer(address,uint256)":"a9059cbb","transferFrom(address,address,uint256)":"23b872dd"},"storageLayout":{"storage":[],"types":{}},"id":112}