{"abi":[{"type":"function","name":"arithmeticError","inputs":[],"outputs":[{"name":"","type":"bytes","internalType":"bytes"}],"stateMutability":"view"},{"type":"function","name":"assertionError","inputs":[],"outputs":[{"name":"","type":"bytes","internalType":"bytes"}],"stateMutability":"view"},{"type":"function","name":"divisionError","inputs":[],"outputs":[{"name":"","type":"bytes","internalType":"bytes"}],"stateMutability":"view"},{"type":"function","name":"encodeStorageError","inputs":[],"outputs":[{"name":"","type":"bytes","internalType":"bytes"}],"stateMutability":"view"},{"type":"function","name":"enumConversionError","inputs":[],"outputs":[{"name":"","type":"bytes","internalType":"bytes"}],"stateMutability":"view"},{"type":"function","name":"indexOOBError","inputs":[],"outputs":[{"name":"","type":"bytes","internalType":"bytes"}],"stateMutability":"view"},{"type":"function","name":"memOverflowError","inputs":[],"outputs":[{"name":"","type":"bytes","internalType":"bytes"}],"stateMutability":"view"},{"type":"function","name":"popError","inputs":[],"outputs":[{"name":"","type":"bytes","internalType":"bytes"}],"stateMutability":"view"},{"type":"function","name":"zeroVarError","inputs":[],"outputs":[{"name":"","type":"bytes","internalType":"bytes"}],"stateMutability":"view"}],"bytecode":{"object":"0x6103c3610026600b82828239805160001a60731461001957fe5b30600052607381538281f3fe730000000000000000000000000000000000000000301460806040526004361061009d5760003560e01c8063986c5f6811610070578063986c5f6814610137578063b22dc54d1461013f578063b67689da14610147578063d160e4de1461014f578063fa784a44146101575761009d565b806305ee8612146100a2578063103329771461011f5780631de45560146101275780638995290f1461012f575b600080fd5b6100aa61015f565b6040805160208082528351818301528351919283929083019185019080838360005b838110156100e45781810151838201526020016100cc565b50505050905090810190601f1680156101115780820380516001836020036101000a031916815260200191505b509250505060405180910390f35b6100aa61019d565b6100aa6101db565b6100aa610219565b6100aa610257565b6100aa610295565b6100aa6102d3565b6100aa610311565b6100aa61034f565b6040805160326024808301919091528251808303909101815260449091019091526020810180516001600160e01b0316634e487b7160e01b17905281565b6040805160016024808301919091528251808303909101815260449091019091526020810180516001600160e01b0316634e487b7160e01b17905281565b6040805160216024808301919091528251808303909101815260449091019091526020810180516001600160e01b0316634e487b7160e01b17905281565b6040805160116024808301919091528251808303909101815260449091019091526020810180516001600160e01b0316634e487b7160e01b17905281565b6040805160416024808301919091528251808303909101815260449091019091526020810180516001600160e01b0316634e487b7160e01b17905281565b6040805160316024808301919091528251808303909101815260449091019091526020810180516001600160e01b0316634e487b7160e01b17905281565b6040805160516024808301919091528251808303909101815260449091019091526020810180516001600160e01b0316634e487b7160e01b17905281565b6040805160226024808301919091528251808303909101815260449091019091526020810180516001600160e01b0316634e487b7160e01b17905281565b6040805160126024808301919091528251808303909101815260449091019091526020810180516001600160e01b0316634e487b7160e01b1790528156fea264697066735822122079866aef2c79ae48eb7017730b34bd4b458f06f3bc5f8022510b77335110e78464736f6c63430007060033","linkReferences":{}},"methodIdentifiers":{"arithmeticError()":"8995290f","assertionError()":"10332977","divisionError()":"fa784a44","encodeStorageError()":"d160e4de","enumConversionError()":"1de45560","indexOOBError()":"05ee8612","memOverflowError()":"986c5f68","popError()":"b22dc54d","zeroVarError()":"b67689da"},"id":4}