{"abi":[{"type":"function","name":"IMAGE_ID","inputs":[],"outputs":[{"name":"","type":"bytes32","internalType":"bytes32"}],"stateMutability":"view"},{"type":"function","name":"JOURNAL","inputs":[],"outputs":[{"name":"","type":"bytes","internalType":"bytes"}],"stateMutability":"view"},{"type":"function","name":"POST_DIGEST","inputs":[],"outputs":[{"name":"","type":"bytes32","internalType":"bytes32"}],"stateMutability":"view"},{"type":"function","name":"SEAL","inputs":[],"outputs":[{"name":"","type":"bytes","internalType":"bytes"}],"stateMutability":"view"}],"bytecode":{"object":"0x61028a61003a600b82828239805160001a60731461002d57634e487b7160e01b600052600060045260246000fd5b30600052607381538281f3fe73000000000000000000000000000000000000000030146080604052600436106100565760003560e01c8063081c39091461005b578063549206ed146100875780638532efe3146100bc578063f9a21dce146100e3575b600080fd5b6100716040518060200160405280600081525081565b60405161007e9190610105565b60405180910390f35b6100ae7f35e14f92e1c7989a467611bb39d2cf7f46dc4488404f8e8179960cc7be13f8a881565b60405190815260200161007e565b6100ae7fb8e6dde26b99d84dd257eef56a4f9adc1b03a0bb88ca5a3ad39a91e367f5c3f781565b6100716040518061012001604052806101008152602001610155610100913981565b60006020808352835180602085015260005b8181101561013357858101830151858201604001528201610117565b506000604082860101526040601f19601f830116850101925050509291505056fe0b79052f45ac3c4873607632575e2f8777ee1776e702eb09c419487a80228fd51ae4c3bec6344ddcc9c31f180ea571326102d5f640e2f2a17dec9f608007e63802f4c00951d50a256afc2fb6829d3679748b5ea57931bf6921ab07a7492ca3751fddf7493b473b6f99c3c036004f9f1c0d985fb00cbd6d64d4ddb5cabafd49fc29c7ac262d12fc190522384f0b77b3139fcc51516eefc088a6bc49093b28029827d7612bff120f2880eab4b7bb1aa1cdaa563193827f01119f8e57cef6daf6a516d8c0445ea5f5514fdbe9e3a1e2b6d4cc4ac7983982bbc8cffee7a9177032a32382aadee5f7017ab25b2a7c82b355d46e7c9cbe13587d552cebd14a816b448ea2646970667358221220ac14831038f6826523939e905480da0b826551096292c46da50e775fac284de464736f6c63430008180033","linkReferences":{}},"methodIdentifiers":{"IMAGE_ID()":"549206ed","JOURNAL()":"081c3909","POST_DIGEST()":"8532efe3","SEAL()":"f9a21dce"},"id":31}