{"abi":[{"type":"constructor","inputs":[{"name":"_verifier","type":"address","internalType":"contract IRiscZeroVerifier"}],"stateMutability":"nonpayable"},{"type":"function","name":"get","inputs":[],"outputs":[{"name":"","type":"uint256","internalType":"uint256"}],"stateMutability":"view"},{"type":"function","name":"imageId","inputs":[],"outputs":[{"name":"","type":"bytes32","internalType":"bytes32"}],"stateMutability":"view"},{"type":"function","name":"number","inputs":[],"outputs":[{"name":"","type":"uint256","internalType":"uint256"}],"stateMutability":"view"},{"type":"function","name":"set","inputs":[{"name":"x","type":"uint256","internalType":"uint256"},{"name":"postStateDigest","type":"bytes32","internalType":"bytes32"},{"name":"seal","type":"bytes","internalType":"bytes"}],"outputs":[],"stateMutability":"nonpayable"},{"type":"function","name":"verifier","inputs":[],"outputs":[{"name":"","type":"address","internalType":"contract IRiscZeroVerifier"}],"stateMutability":"view"}],"bytecode":{"object":"0x60a060405234801561001057600080fd5b5060405161043c38038061043c83398101604081905261002f91610044565b6001600160a01b031660805260008055610074565b60006020828403121561005657600080fd5b81516001600160a01b038116811461006d57600080fd5b9392505050565b6080516103a7610095600039600081816061015261011f01526103a76000f3fe608060405234801561001057600080fd5b50600436106100575760003560e01c80632b7ac3f31461005c578063614d4090146100a05780636d4ce63c146100b55780638381f58a146100c7578063ef3f7dd5146100d0575b600080fd5b6100837f000000000000000000000000000000000000000000000000000000000000000081565b6040516001600160a01b0390911681526020015b60405180910390f35b6100b36100ae366004610239565b6100f7565b005b6000545b604051908152602001610097565b6100b960005481565b6100b97f04d6ce2d1c7ffa390e73114c5213f76aada67c8301d88b7698a48fd7543a444b81565b60008460405160200161010c91815260200190565b60405160208183030381529060405290507f00000000000000000000000000000000000000000000000000000000000000006001600160a01b0316636efef00984847f04d6ce2d1c7ffa390e73114c5213f76aada67c8301d88b7698a48fd7543a444b60001b8860028760405161018391906102b9565b602060405180830381855afa1580156101a0573d6000803e3d6000fd5b5050506040513d601f19601f820116820180604052508101906101c391906102e8565b6040518663ffffffff1660e01b81526004016101e3959493929190610301565b602060405180830381865afa158015610200573d6000803e3d6000fd5b505050506040513d601f19601f820116820180604052508101906102249190610348565b61022d57600080fd5b50505060009190915550565b6000806000806060858703121561024f57600080fd5b8435935060208501359250604085013567ffffffffffffffff8082111561027557600080fd5b818701915087601f83011261028957600080fd5b81358181111561029857600080fd5b8860208285010111156102aa57600080fd5b95989497505060200194505050565b6000825160005b818110156102da57602081860181015185830152016102c0565b506000920191825250919050565b6000602082840312156102fa57600080fd5b5051919050565b60808152846080820152848660a0830137600060a08683010152600060a0601f19601f88011683010190508460208301528360408301528260608301529695505050505050565b60006020828403121561035a57600080fd5b8151801515811461036a57600080fd5b939250505056fea2646970667358221220fdcd923d475850ef3d1b654ea6f4b76c060e1530e33af73d85d1d297fdc30fa764736f6c63430008180033","linkReferences":{}},"methodIdentifiers":{"get()":"6d4ce63c","imageId()":"ef3f7dd5","number()":"8381f58a","set(uint256,bytes32,bytes)":"614d4090","verifier()":"2b7ac3f3"},"id":24}