{"abi":[{"type":"function","name":"MINT_LOCKER_ADMIN_ROLE","inputs":[],"outputs":[{"name":"","type":"bytes32","internalType":"bytes32"}],"stateMutability":"view"},{"type":"function","name":"MINT_LOCKER_ROLE","inputs":[],"outputs":[{"name":"","type":"bytes32","internalType":"bytes32"}],"stateMutability":"view"},{"type":"function","name":"locks","inputs":[{"name":"","type":"address","internalType":"address"},{"name":"","type":"uint256","internalType":"uint256"}],"outputs":[{"name":"amount","type":"uint256","internalType":"uint256"},{"name":"releaseTime","type":"uint256","internalType":"uint256"}],"stateMutability":"view"},{"type":"error","name":"AddressesAndLockLengthMismatch","inputs":[]},{"type":"error","name":"AddressesAndMintLengthMismatch","inputs":[]},{"type":"error","name":"AddressesAndTimeLengthMismatch","inputs":[]}],"bytecode":{"object":"0x6080604052348015600e575f80fd5b5061016e8061001c5f395ff3fe608060405234801561000f575f80fd5b506004361061003f575f3560e01c806382b4824314610043578063b2904ca11461007d578063b425f802146100a4575b5f80fd5b61006a7f90dcf97b9b11425348f5c1cfd60547be2536fb76ed0dca238e111ebbf9e32b4a81565b6040519081526020015b60405180910390f35b61006a7fa5f90ca39506de1f57678da846801e11dd7aeda8d762afcf32a75a8634c61c8581565b6100b76100b2366004610103565b6100cc565b60408051928352602083019190915201610074565b5f602052815f5260405f2081815481106100e4575f80fd5b5f91825260209091206002909102018054600190910154909250905082565b5f8060408385031215610114575f80fd5b82356001600160a01b038116811461012a575f80fd5b94602093909301359350505056fea2646970667358221220fcf54318ab2c9c3e3a4351874e49e3c6ae35e02a82f16125432cea78bcbbb0f864736f6c634300081a0033","linkReferences":{}},"methodIdentifiers":{"MINT_LOCKER_ADMIN_ROLE()":"82b48243","MINT_LOCKER_ROLE()":"b2904ca1","locks(address,uint256)":"b425f802"},"storageLayout":{"storage":[{"astId":57004,"contract":"src/token/locked/LockedTokenStorage.sol:LockedTokenStorage","label":"locks","offset":0,"slot":"0","type":"t_mapping(t_address,t_array(t_struct(Lock)56998_storage)dyn_storage)"}],"types":{"t_address":{"encoding":"inplace","label":"address","numberOfBytes":"20"},"t_array(t_struct(Lock)56998_storage)dyn_storage":{"encoding":"dynamic_array","label":"struct LockedTokenStorage.Lock[]","numberOfBytes":"32","base":"t_struct(Lock)56998_storage"},"t_mapping(t_address,t_array(t_struct(Lock)56998_storage)dyn_storage)":{"encoding":"mapping","key":"t_address","label":"mapping(address => struct LockedTokenStorage.Lock[])","numberOfBytes":"32","value":"t_array(t_struct(Lock)56998_storage)dyn_storage"},"t_struct(Lock)56998_storage":{"encoding":"inplace","label":"struct LockedTokenStorage.Lock","numberOfBytes":"64","members":[{"astId":56995,"contract":"src/token/locked/LockedTokenStorage.sol:LockedTokenStorage","label":"amount","offset":0,"slot":"0","type":"t_uint256"},{"astId":56997,"contract":"src/token/locked/LockedTokenStorage.sol:LockedTokenStorage","label":"releaseTime","offset":0,"slot":"1","type":"t_uint256"}]},"t_uint256":{"encoding":"inplace","label":"uint256","numberOfBytes":"32"}}},"id":118}