{"abi":[{"type":"constructor","inputs":[],"stateMutability":"nonpayable"},{"type":"fallback","stateMutability":"nonpayable"},{"type":"receive","stateMutability":"payable"},{"type":"function","name":"VERSION","inputs":[],"outputs":[{"name":"","type":"string","internalType":"string"}],"stateMutability":"view"},{"type":"function","name":"addOwnerWithThreshold","inputs":[{"name":"owner","type":"address","internalType":"address"},{"name":"_threshold","type":"uint256","internalType":"uint256"}],"outputs":[],"stateMutability":"nonpayable"},{"type":"function","name":"approveHash","inputs":[{"name":"hashToApprove","type":"bytes32","internalType":"bytes32"}],"outputs":[],"stateMutability":"nonpayable"},{"type":"function","name":"approvedHashes","inputs":[{"name":"","type":"address","internalType":"address"},{"name":"","type":"bytes32","internalType":"bytes32"}],"outputs":[{"name":"","type":"uint256","internalType":"uint256"}],"stateMutability":"view"},{"type":"function","name":"changeThreshold","inputs":[{"name":"_threshold","type":"uint256","internalType":"uint256"}],"outputs":[],"stateMutability":"nonpayable"},{"type":"function","name":"checkNSignatures","inputs":[{"name":"dataHash","type":"bytes32","internalType":"bytes32"},{"name":"data","type":"bytes","internalType":"bytes"},{"name":"signatures","type":"bytes","internalType":"bytes"},{"name":"requiredSignatures","type":"uint256","internalType":"uint256"}],"outputs":[],"stateMutability":"view"},{"type":"function","name":"checkSignatures","inputs":[{"name":"dataHash","type":"bytes32","internalType":"bytes32"},{"name":"data","type":"bytes","internalType":"bytes"},{"name":"signatures","type":"bytes","internalType":"bytes"}],"outputs":[],"stateMutability":"view"},{"type":"function","name":"disableModule","inputs":[{"name":"prevModule","type":"address","internalType":"address"},{"name":"module","type":"address","internalType":"address"}],"outputs":[],"stateMutability":"nonpayable"},{"type":"function","name":"domainSeparator","inputs":[],"outputs":[{"name":"","type":"bytes32","internalType":"bytes32"}],"stateMutability":"view"},{"type":"function","name":"enableModule","inputs":[{"name":"module","type":"address","internalType":"address"}],"outputs":[],"stateMutability":"nonpayable"},{"type":"function","name":"encodeTransactionData","inputs":[{"name":"to","type":"address","internalType":"address"},{"name":"value","type":"uint256","internalType":"uint256"},{"name":"data","type":"bytes","internalType":"bytes"},{"name":"operation","type":"uint8","internalType":"enum Enum.Operation"},{"name":"safeTxGas","type":"uint256","internalType":"uint256"},{"name":"baseGas","type":"uint256","internalType":"uint256"},{"name":"gasPrice","type":"uint256","internalType":"uint256"},{"name":"gasToken","type":"address","internalType":"address"},{"name":"refundReceiver","type":"address","internalType":"address"},{"name":"_nonce","type":"uint256","internalType":"uint256"}],"outputs":[{"name":"","type":"bytes","internalType":"bytes"}],"stateMutability":"view"},{"type":"function","name":"execTransaction","inputs":[{"name":"to","type":"address","internalType":"address"},{"name":"value","type":"uint256","internalType":"uint256"},{"name":"data","type":"bytes","internalType":"bytes"},{"name":"operation","type":"uint8","internalType":"enum Enum.Operation"},{"name":"safeTxGas","type":"uint256","internalType":"uint256"},{"name":"baseGas","type":"uint256","internalType":"uint256"},{"name":"gasPrice","type":"uint256","internalType":"uint256"},{"name":"gasToken","type":"address","internalType":"address"},{"name":"refundReceiver","type":"address","internalType":"address payable"},{"name":"signatures","type":"bytes","internalType":"bytes"}],"outputs":[{"name":"success","type":"bool","internalType":"bool"}],"stateMutability":"payable"},{"type":"function","name":"execTransactionFromModule","inputs":[{"name":"to","type":"address","internalType":"address"},{"name":"value","type":"uint256","internalType":"uint256"},{"name":"data","type":"bytes","internalType":"bytes"},{"name":"operation","type":"uint8","internalType":"enum Enum.Operation"}],"outputs":[{"name":"success","type":"bool","internalType":"bool"}],"stateMutability":"nonpayable"},{"type":"function","name":"execTransactionFromModuleReturnData","inputs":[{"name":"to","type":"address","internalType":"address"},{"name":"value","type":"uint256","internalType":"uint256"},{"name":"data","type":"bytes","internalType":"bytes"},{"name":"operation","type":"uint8","internalType":"enum Enum.Operation"}],"outputs":[{"name":"success","type":"bool","internalType":"bool"},{"name":"returnData","type":"bytes","internalType":"bytes"}],"stateMutability":"nonpayable"},{"type":"function","name":"getChainId","inputs":[],"outputs":[{"name":"","type":"uint256","internalType":"uint256"}],"stateMutability":"view"},{"type":"function","name":"getModulesPaginated","inputs":[{"name":"start","type":"address","internalType":"address"},{"name":"pageSize","type":"uint256","internalType":"uint256"}],"outputs":[{"name":"array","type":"address[]","internalType":"address[]"},{"name":"next","type":"address","internalType":"address"}],"stateMutability":"view"},{"type":"function","name":"getOwners","inputs":[],"outputs":[{"name":"","type":"address[]","internalType":"address[]"}],"stateMutability":"view"},{"type":"function","name":"getStorageAt","inputs":[{"name":"offset","type":"uint256","internalType":"uint256"},{"name":"length","type":"uint256","internalType":"uint256"}],"outputs":[{"name":"","type":"bytes","internalType":"bytes"}],"stateMutability":"view"},{"type":"function","name":"getThreshold","inputs":[],"outputs":[{"name":"","type":"uint256","internalType":"uint256"}],"stateMutability":"view"},{"type":"function","name":"getTransactionHash","inputs":[{"name":"to","type":"address","internalType":"address"},{"name":"value","type":"uint256","internalType":"uint256"},{"name":"data","type":"bytes","internalType":"bytes"},{"name":"operation","type":"uint8","internalType":"enum Enum.Operation"},{"name":"safeTxGas","type":"uint256","internalType":"uint256"},{"name":"baseGas","type":"uint256","internalType":"uint256"},{"name":"gasPrice","type":"uint256","internalType":"uint256"},{"name":"gasToken","type":"address","internalType":"address"},{"name":"refundReceiver","type":"address","internalType":"address"},{"name":"_nonce","type":"uint256","internalType":"uint256"}],"outputs":[{"name":"","type":"bytes32","internalType":"bytes32"}],"stateMutability":"view"},{"type":"function","name":"isModuleEnabled","inputs":[{"name":"module","type":"address","internalType":"address"}],"outputs":[{"name":"","type":"bool","internalType":"bool"}],"stateMutability":"view"},{"type":"function","name":"isOwner","inputs":[{"name":"owner","type":"address","internalType":"address"}],"outputs":[{"name":"","type":"bool","internalType":"bool"}],"stateMutability":"view"},{"type":"function","name":"nonce","inputs":[],"outputs":[{"name":"","type":"uint256","internalType":"uint256"}],"stateMutability":"view"},{"type":"function","name":"removeOwner","inputs":[{"name":"prevOwner","type":"address","internalType":"address"},{"name":"owner","type":"address","internalType":"address"},{"name":"_threshold","type":"uint256","internalType":"uint256"}],"outputs":[],"stateMutability":"nonpayable"},{"type":"function","name":"setFallbackHandler","inputs":[{"name":"handler","type":"address","internalType":"address"}],"outputs":[],"stateMutability":"nonpayable"},{"type":"function","name":"setGuard","inputs":[{"name":"guard","type":"address","internalType":"address"}],"outputs":[],"stateMutability":"nonpayable"},{"type":"function","name":"setup","inputs":[{"name":"_owners","type":"address[]","internalType":"address[]"},{"name":"_threshold","type":"uint256","internalType":"uint256"},{"name":"to","type":"address","internalType":"address"},{"name":"data","type":"bytes","internalType":"bytes"},{"name":"fallbackHandler","type":"address","internalType":"address"},{"name":"paymentToken","type":"address","internalType":"address"},{"name":"payment","type":"uint256","internalType":"uint256"},{"name":"paymentReceiver","type":"address","internalType":"address payable"}],"outputs":[],"stateMutability":"nonpayable"},{"type":"function","name":"signedMessages","inputs":[{"name":"","type":"bytes32","internalType":"bytes32"}],"outputs":[{"name":"","type":"uint256","internalType":"uint256"}],"stateMutability":"view"},{"type":"function","name":"simulateAndRevert","inputs":[{"name":"targetContract","type":"address","internalType":"address"},{"name":"calldataPayload","type":"bytes","internalType":"bytes"}],"outputs":[],"stateMutability":"nonpayable"},{"type":"function","name":"swapOwner","inputs":[{"name":"prevOwner","type":"address","internalType":"address"},{"name":"oldOwner","type":"address","internalType":"address"},{"name":"newOwner","type":"address","internalType":"address"}],"outputs":[],"stateMutability":"nonpayable"},{"type":"event","name":"AddedOwner","inputs":[{"name":"owner","type":"address","indexed":true,"internalType":"address"}],"anonymous":false},{"type":"event","name":"ApproveHash","inputs":[{"name":"approvedHash","type":"bytes32","indexed":true,"internalType":"bytes32"},{"name":"owner","type":"address","indexed":true,"internalType":"address"}],"anonymous":false},{"type":"event","name":"ChangedFallbackHandler","inputs":[{"name":"handler","type":"address","indexed":true,"internalType":"address"}],"anonymous":false},{"type":"event","name":"ChangedGuard","inputs":[{"name":"guard","type":"address","indexed":true,"internalType":"address"}],"anonymous":false},{"type":"event","name":"ChangedThreshold","inputs":[{"name":"threshold","type":"uint256","indexed":false,"internalType":"uint256"}],"anonymous":false},{"type":"event","name":"DisabledModule","inputs":[{"name":"module","type":"address","indexed":true,"internalType":"address"}],"anonymous":false},{"type":"event","name":"EnabledModule","inputs":[{"name":"module","type":"address","indexed":true,"internalType":"address"}],"anonymous":false},{"type":"event","name":"ExecutionFailure","inputs":[{"name":"txHash","type":"bytes32","indexed":true,"internalType":"bytes32"},{"name":"payment","type":"uint256","indexed":false,"internalType":"uint256"}],"anonymous":false},{"type":"event","name":"ExecutionFromModuleFailure","inputs":[{"name":"module","type":"address","indexed":true,"internalType":"address"}],"anonymous":false},{"type":"event","name":"ExecutionFromModuleSuccess","inputs":[{"name":"module","type":"address","indexed":true,"internalType":"address"}],"anonymous":false},{"type":"event","name":"ExecutionSuccess","inputs":[{"name":"txHash","type":"bytes32","indexed":true,"internalType":"bytes32"},{"name":"payment","type":"uint256","indexed":false,"internalType":"uint256"}],"anonymous":false},{"type":"event","name":"RemovedOwner","inputs":[{"name":"owner","type":"address","indexed":true,"internalType":"address"}],"anonymous":false},{"type":"event","name":"SafeReceived","inputs":[{"name":"sender","type":"address","indexed":true,"internalType":"address"},{"name":"value","type":"uint256","indexed":false,"internalType":"uint256"}],"anonymous":false},{"type":"event","name":"SafeSetup","inputs":[{"name":"initiator","type":"address","indexed":true,"internalType":"address"},{"name":"owners","type":"address[]","indexed":false,"internalType":"address[]"},{"name":"threshold","type":"uint256","indexed":false,"internalType":"uint256"},{"name":"initializer","type":"address","indexed":false,"internalType":"address"},{"name":"fallbackHandler","type":"address","indexed":false,"internalType":"address"}],"anonymous":false},{"type":"event","name":"SignMsg","inputs":[{"name":"msgHash","type":"bytes32","indexed":true,"internalType":"bytes32"}],"anonymous":false}],"bytecode":{"object":"0x6080604052348015600e575f80fd5b506001600455612fbd806100215f395ff3fe6080604052600436106101d0575f3560e01c8063affed0e0116100f6578063e19a9dd911610094578063f08a032311610063578063f08a0323146105d2578063f698da25146105f1578063f8dc5dd914610605578063ffa1ad74146106245761020c565b8063e19a9dd914610561578063e318b52b14610580578063e75235b81461059f578063e86637db146105b35761020c565b8063cc2f8452116100d0578063cc2f8452146104d7578063d4d9bdcd14610504578063d8d11f7814610523578063e009cfde146105425761020c565b8063affed0e014610484578063b4faba0914610499578063b63e800d146104b85761020c565b80635624b25b1161016e5780636a7612021161013d5780636a761202146103fb5780637d8329741461040e578063934f3a1114610444578063a0e67e2b146104635761020c565b80635624b25b146103665780635ae6bd3714610392578063610b5925146103bd578063694e80c3146103dc5761020c565b80632f54bf6e116101aa5780632f54bf6e146102df5780633408e470146102fe578063468721a71461031a5780635229073f146103395761020c565b80630d582f131461026b57806312fb68e01461028c5780632d9ad53d146102ab5761020c565b3661020c5760405134815233907f3d0ce9bfc3ed7d6862dbb28b2dea94561fe714a1b4d019aa8af39730d1ad7c3d9060200160405180910390a2005b348015610217575f80fd5b507f6c9a6c4a39284e37ed1cf53d337577d14212a4870fb976a4366c693b939918d580548061024257005b365f80373360601b36525f80601436015f80855af190503d5f803e80610266573d5ffd5b503d5ff35b348015610276575f80fd5b5061028a610285366004612504565b610654565b005b348015610297575f80fd5b5061028a6102a63660046125cb565b6107a9565b3480156102b6575f80fd5b506102ca6102c536600461263e565b610c3a565b60405190151581526020015b60405180910390f35b3480156102ea575f80fd5b506102ca6102f936600461263e565b610c73565b348015610309575f80fd5b50465b6040519081526020016102d6565b348015610325575f80fd5b506102ca610334366004612667565b610ca9565b348015610344575f80fd5b50610358610353366004612667565b610d7d565b6040516102d69291906126fa565b348015610371575f80fd5b50610385610380366004612714565b610db1565b6040516102d69190612734565b34801561039d575f80fd5b5061030c6103ac366004612746565b60076020525f908152604090205481565b3480156103c8575f80fd5b5061028a6103d736600461263e565b610e2a565b3480156103e7575f80fd5b5061028a6103f6366004612746565b610f61565b6102ca6104093660046127a1565b610fff565b348015610419575f80fd5b5061030c610428366004612504565b600860209081525f928352604080842090915290825290205481565b34801561044f575f80fd5b5061028a61045e366004612871565b611338565b34801561046e575f80fd5b50610477611382565b6040516102d6919061291f565b34801561048f575f80fd5b5061030c60055481565b3480156104a4575f80fd5b5061028a6104b3366004612931565b61146f565b3480156104c3575f80fd5b5061028a6104d236600461297d565b61148e565b3480156104e2575f80fd5b506104f66104f1366004612504565b61158d565b6040516102d6929190612a6c565b34801561050f575f80fd5b5061028a61051e366004612746565b611744565b34801561052e575f80fd5b5061030c61053d366004612a95565b6117d7565b34801561054d575f80fd5b5061028a61055c366004612b52565b611803565b34801561056c575f80fd5b5061028a61057b36600461263e565b611923565b34801561058b575f80fd5b5061028a61059a366004612b89565b611a36565b3480156105aa575f80fd5b5060045461030c565b3480156105be575f80fd5b506103856105cd366004612a95565b611c0d565b3480156105dd575f80fd5b5061028a6105ec36600461263e565b611ce4565b3480156105fc575f80fd5b5061030c611d2b565b348015610610575f80fd5b5061028a61061f366004612bd1565b611d81565b34801561062f575f80fd5b5061038560405180604001604052806005815260200164312e342e3160d81b81525081565b61065c611ee9565b6001600160a01b0382161580159061067e57506001600160a01b038216600114155b801561069357506001600160a01b0382163014155b6106b85760405162461bcd60e51b81526004016106af90612c0f565b60405180910390fd5b6001600160a01b038281165f9081526002602052604090205416156106ef5760405162461bcd60e51b81526004016106af90612c2e565b60026020527fe90b7bceb6e7df5418fb78d8ee546e97c83a08bbccc01a0644d599ccd2a7c2e080546001600160a01b038481165f818152604081208054939094166001600160a01b03199384161790935560018352835490911617909155600380549161075b83612c61565b90915550506040516001600160a01b038316907f9465fa0c962cc76958e6373a993326400c1c94f8be2fe3a952adfa7f60b2ea26905f90a280600454146107a5576107a581610f61565b5050565b6107b4816041611f22565b825110156107ec5760405162461bcd60e51b8152602060048201526005602482015264047533032360dc1b60448201526064016106af565b5f80805f805f5b86811015610c2e576041818102890160208101516040820151919092015160ff16955090935091505f8490036109fe57885160208a01208a146108605760405162461bcd60e51b8152602060048201526005602482015264475330323760d81b60448201526064016106af565b9193508391610870876041611f22565b8210156108a75760405162461bcd60e51b8152602060048201526005602482015264475330323160d81b60448201526064016106af565b87516108b4836020611f59565b11156108ea5760405162461bcd60e51b815260206004820152600560248201526423a998191960d91b60448201526064016106af565b60208289018101518951909161090d908390610907908790611f59565b90611f59565b11156109435760405162461bcd60e51b8152602060048201526005602482015264475330323360d81b60448201526064016106af565b6040516320c13b0b60e01b8082528a8501602001916001600160a01b038916906320c13b0b90610979908f908690600401612c79565b602060405180830381865afa158015610994573d5f803e3d5ffd5b505050506040513d601f19601f820116820180604052508101906109b89190612c9d565b6001600160e01b031916146109f75760405162461bcd60e51b815260206004820152600560248201526411d4cc0c8d60da1b60448201526064016106af565b5050610b9e565b8360ff16600103610a7f579193508391336001600160a01b0384161480610a4657506001600160a01b0385165f9081526008602090815260408083208d845290915290205415155b610a7a5760405162461bcd60e51b8152602060048201526005602482015264475330323560d81b60448201526064016106af565b610b9e565b601e8460ff161115610b41576040517f19457468657265756d205369676e6564204d6573736167653a0a3332000000006020820152603c81018b9052600190605c0160405160208183030381529060405280519060200120600486610ae49190612cc4565b604080515f8152602081018083529390935260ff90911690820152606081018590526080810184905260a0016020604051602081039080840390855afa158015610b30573d5f803e3d5ffd5b505050602060405103519450610b9e565b604080515f8152602081018083528c905260ff861691810191909152606081018490526080810183905260019060a0016020604051602081039080840390855afa158015610b91573d5f803e3d5ffd5b5050506020604051035194505b856001600160a01b0316856001600160a01b0316118015610bd757506001600160a01b038581165f908152600260205260409020541615155b8015610bed57506001600160a01b038516600114155b610c215760405162461bcd60e51b815260206004820152600560248201526423a998191b60d91b60448201526064016106af565b93945084936001016107f3565b50505050505050505050565b5f60016001600160a01b03831614801590610c6d57506001600160a01b038281165f908152600160205260409020541615155b92915050565b5f6001600160a01b038216600114801590610c6d5750506001600160a01b039081165f9081526002602052604090205416151590565b5f33600114801590610cd15750335f908152600160205260409020546001600160a01b031615155b610d055760405162461bcd60e51b815260206004820152600560248201526411d4cc4c0d60da1b60448201526064016106af565b610d13858585855f19611f73565b90508015610d4a5760405133907f6895c13664aa4f67288b25d7a21d7aaa34916e355fb9b6fae0a139a9085becb8905f90a2610d75565b60405133907facd2c8702804128fdb0db2bb49f6d127dd0181c13fd45dbfe16de0930e2bd375905f90a25b949350505050565b5f6060610d8c86868686610ca9565b915060405160203d0181016040523d81523d5f602083013e8091505094509492505050565b60605f610dbf836020612cdd565b6001600160401b03811115610dd657610dd661252e565b6040519080825280601f01601f191660200182016040528015610e00576020820181803683370190505b5090505f5b83811015610e225784810154602080830284010152600101610e05565b509392505050565b610e32611ee9565b6001600160a01b03811615801590610e5457506001600160a01b038116600114155b610e885760405162461bcd60e51b8152602060048201526005602482015264475331303160d81b60448201526064016106af565b6001600160a01b038181165f908152600160205260409020541615610ed75760405162461bcd60e51b815260206004820152600560248201526423a998981960d91b60448201526064016106af565b600160208190527fcc69885fda6bcc1a4ace058b4a62bf5e179ea78fd58a1ccd71c22cc9b688792f80546001600160a01b038481165f81815260408082208054949095166001600160a01b031994851617909455948552835490911681179092555190917fecdf3a3effea5783a3c4c2140e677577666428d44ed9d474a0b3a4c9943f844091a250565b610f69611ee9565b600354811115610f8b5760405162461bcd60e51b81526004016106af90612cf4565b6001811015610fc45760405162461bcd60e51b815260206004820152600560248201526423a999181960d91b60448201526064016106af565b60048190556040518181527f610f7ff2b304ae8903c3de74c60c6ab1f7d6226b3f52c5161905bb5ad4039c939060200160405180910390a150565b5f805f6110178e8e8e8e8e8e8e8e8e8e600554611c0d565b600580549192505f61102883612c61565b9091555050805160208201209150611041828286611338565b505f61106b7f4a204f620c8c5ccdca3fd54d003badd85ba500436a431f0cbda4f558c93c34c85490565b90506001600160a01b038116156110ec57806001600160a01b03166375f0bb528f8f8f8f8f8f8f8f8f8f8f336040518d63ffffffff1660e01b81526004016110be9c9b9a99989796959493929190612d47565b5f604051808303815f87803b1580156110d5575f80fd5b505af11580156110e7573d5f803e3d5ffd5b505050505b6111186110fb8a6109c4612e0e565b603f6111088c6040612cdd565b6111129190612e21565b90611fb7565b611124906101f4612e0e565b5a101561115b5760405162461bcd60e51b8152602060048201526005602482015264047533031360dc1b60448201526064016106af565b5f5a90506111c98f8f8f8f8080601f0160208091040260200160405190810160405280939291908181526020018383808284375f81840152601f19601f820116905080830192505050505050508e8c5f146111b6578e611f73565b6109c45a6111c49190612e40565b611f73565b93506111d65a8290611fcd565b905083806111e357508915155b806111ed57508715155b6112215760405162461bcd60e51b8152602060048201526005602482015264475330313360d81b60448201526064016106af565b5f881561123857611235828b8b8b8b611fe5565b90505b841561127d57837f442e715f626346e8c54381002da614f62bee8d27386535b2521ec8540898556e8260405161127091815260200190565b60405180910390a26112b8565b837f23428b18acfb3ea64b08dc0c1d296ea9c09702c09083ca5272e64d115b687d23826040516112af91815260200190565b60405180910390a25b50506001600160a01b0381161561132757604051631264e26d60e31b81526004810183905283151560248201526001600160a01b038216906393271368906044015f604051808303815f87803b158015611310575f80fd5b505af1158015611322573d5f803e3d5ffd5b505050505b50509b9a5050505050505050505050565b600454806113705760405162461bcd60e51b8152602060048201526005602482015264475330303160d81b60448201526064016106af565b61137c848484846107a9565b50505050565b60605f6003546001600160401b0381111561139f5761139f61252e565b6040519080825280602002602001820160405280156113c8578160200160208202803683370190505b5060015f90815260026020527fe90b7bceb6e7df5418fb78d8ee546e97c83a08bbccc01a0644d599ccd2a7c2e054919250906001600160a01b03165b6001600160a01b038116600114611467578083838151811061142857611428612e53565b6001600160a01b039283166020918202929092018101919091529181165f9081526002909252604090912054168161145f81612c61565b925050611404565b509092915050565b5f80825160208401855af4805f52503d6020523d5f60403e60403d015ffd5b6114cb8a8a808060200260200160405190810160405280939291908181526020018383602002808284375f920191909152508c92506120e9915050565b6001600160a01b038416156114e3576114e3846122bf565b6115228787878080601f0160208091040260200160405190810160405280939291908181526020018383808284375f9201919091525061232392505050565b811561153857611536825f60018685611fe5565b505b336001600160a01b03167f141df868a6331af528e38c83b7aa03edc19be66e37ae67f9285bf4f8e3c6a1a88b8b8b8b89604051611579959493929190612e67565b60405180910390a250505050505050505050565b60605f6001600160a01b038416600114806115ac57506115ac84610c3a565b6115e05760405162461bcd60e51b8152602060048201526005602482015264475331303560d81b60448201526064016106af565b5f83116116175760405162461bcd60e51b815260206004820152600560248201526423a998981b60d91b60448201526064016106af565b826001600160401b0381111561162f5761162f61252e565b604051908082528060200260200182016040528015611658578160200160208202803683370190505b506001600160a01b038086165f90815260016020526040812054929450911691505b6001600160a01b0382161580159061169c57506001600160a01b038216600114155b80156116a757508381105b1561170157818382815181106116bf576116bf612e53565b6001600160a01b039283166020918202929092018101919091529281165f908152600190935260409092205490911690806116f981612c61565b91505061167a565b6001600160a01b038216600114611739578261171e600183612e40565b8151811061172e5761172e612e53565b602002602001015191505b808352509250929050565b335f908152600260205260409020546001600160a01b03166117905760405162461bcd60e51b8152602060048201526005602482015264047533033360dc1b60448201526064016106af565b335f818152600860209081526040808320858452909152808220600190555183917ff2a0eb156472d1440255b0d7c1e19cc07115d1051fe605b0dce69acfec884d9c91a350565b5f6117eb8c8c8c8c8c8c8c8c8c8c8c611c0d565b8051906020012090509b9a5050505050505050505050565b61180b611ee9565b6001600160a01b0381161580159061182d57506001600160a01b038116600114155b6118615760405162461bcd60e51b8152602060048201526005602482015264475331303160d81b60448201526064016106af565b6001600160a01b038281165f908152600160205260409020548116908216146118b45760405162461bcd60e51b8152602060048201526005602482015264475331303360d81b60448201526064016106af565b6001600160a01b038181165f81815260016020526040808220805487861684528284208054919096166001600160a01b0319918216179095558383528054909416909355915190917faab4fa2b463f581b2b32cb3b7e3b704b9ce37cc209b5fb4d77e593ace405427691a25050565b61192b611ee9565b6001600160a01b038116156119db576040516301ffc9a760e01b815263736bd41d60e11b60048201526001600160a01b038216906301ffc9a790602401602060405180830381865afa158015611983573d5f803e3d5ffd5b505050506040513d601f19601f820116820180604052508101906119a79190612ed2565b6119db5760405162461bcd60e51b8152602060048201526005602482015264047533330360dc1b60448201526064016106af565b7f4a204f620c8c5ccdca3fd54d003badd85ba500436a431f0cbda4f558c93c34c88181556040516001600160a01b038316907f1151116914515bc0891ff9047a6cb32cf902546f83066499bcf8ba33d2353fa2905f90a25050565b611a3e611ee9565b6001600160a01b03811615801590611a6057506001600160a01b038116600114155b8015611a7557506001600160a01b0381163014155b611a915760405162461bcd60e51b81526004016106af90612c0f565b6001600160a01b038181165f908152600260205260409020541615611ac85760405162461bcd60e51b81526004016106af90612c2e565b6001600160a01b03821615801590611aea57506001600160a01b038216600114155b611b065760405162461bcd60e51b81526004016106af90612c0f565b6001600160a01b038381165f90815260026020526040902054811690831614611b595760405162461bcd60e51b8152602060048201526005602482015264475332303560d81b60448201526064016106af565b6001600160a01b038281165f81815260026020526040808220805486861680855283852080549288166001600160a01b03199384161790559589168452828420805482169096179095558383528054909416909355915190917ff8d49fc529812e9a7c5c50e69c20f0dccc0db8fa95c98bc58cc9a4f1c1299eaf91a26040516001600160a01b038216907f9465fa0c962cc76958e6373a993326400c1c94f8be2fe3a952adfa7f60b2ea26905f90a2505050565b60605f7fbb8310d486368db6bd6f849402fdd73ad53d316b5a4b2644ad6efe0f941286d85f1b8d8d8d8d604051611c45929190612ef1565b604051908190038120611c6b949392918e908e908e908e908e908e908e90602001612f00565b60408051601f1981840301815291905280516020909101209050601960f81b600160f81b611c97611d2b565b6040516001600160f81b031993841660208201529290911660218301526022820152604281018290526062016040516020818303038152906040529150509b9a5050505050505050505050565b611cec611ee9565b611cf5816122bf565b6040516001600160a01b038216907f5ac6c46c93c8d0e53714ba3b53db3e7c046da994313d7ed0d192028bc7c228b0905f90a250565b5f7f47e79534a245952e8b16893a336b85a3d9ea9fa8c573f3d803afb92a794692184660408051602081019390935282015230606082015260800160405160208183030381529060405280519060200120905090565b611d89611ee9565b806001600354611d999190612e40565b1015611db75760405162461bcd60e51b81526004016106af90612cf4565b6001600160a01b03821615801590611dd957506001600160a01b038216600114155b611df55760405162461bcd60e51b81526004016106af90612c0f565b6001600160a01b038381165f90815260026020526040902054811690831614611e485760405162461bcd60e51b8152602060048201526005602482015264475332303560d81b60448201526064016106af565b6001600160a01b038281165f81815260026020526040808220805488861684529183208054929095166001600160a01b03199283161790945591815282549091169091556003805491611e9a83612f72565b90915550506040516001600160a01b038316907ff8d49fc529812e9a7c5c50e69c20f0dccc0db8fa95c98bc58cc9a4f1c1299eaf905f90a28060045414611ee457611ee481610f61565b505050565b333014611f205760405162461bcd60e51b8152602060048201526005602482015264475330333160d81b60448201526064016106af565b565b5f825f03611f3157505f610c6d565b5f611f3c8385612cdd565b905082611f498583612e21565b14611f52575f80fd5b9392505050565b5f80611f658385612e0e565b905083811015611f52575f80fd5b5f6001836001811115611f8857611f88612d13565b03611f9f575f808551602087018986f49050611fae565b5f80855160208701888a87f190505b95945050505050565b5f81831015611fc65781611f52565b5090919050565b5f82821115611fda575f80fd5b5f610d758385612e40565b5f806001600160a01b03831615611ffc5782611ffe565b325b90506001600160a01b038416612090576120303a861061201e573a612020565b855b61202a8989611f59565b90611f22565b6040519092506001600160a01b0382169083156108fc029084905f818181858888f1935050505061208b5760405162461bcd60e51b8152602060048201526005602482015264475330313160d81b60448201526064016106af565b6120df565b61209e8561202a8989611f59565b91506120ab848284612451565b6120df5760405162461bcd60e51b815260206004820152600560248201526423a998189960d91b60448201526064016106af565b5095945050505050565b600454156121215760405162461bcd60e51b8152602060048201526005602482015264047533230360dc1b60448201526064016106af565b81518111156121425760405162461bcd60e51b81526004016106af90612cf4565b600181101561217b5760405162461bcd60e51b815260206004820152600560248201526423a999181960d91b60448201526064016106af565b60015f5b835181101561228d575f84828151811061219b5761219b612e53565b602002602001015190505f6001600160a01b0316816001600160a01b0316141580156121d157506001600160a01b038116600114155b80156121e657506001600160a01b0381163014155b80156122045750806001600160a01b0316836001600160a01b031614155b6122205760405162461bcd60e51b81526004016106af90612c0f565b6001600160a01b038181165f9081526002602052604090205416156122575760405162461bcd60e51b81526004016106af90612c2e565b6001600160a01b039283165f90815260026020526040902080546001600160a01b0319169382169390931790925560010161217f565b506001600160a01b03165f90815260026020526040902080546001600160a01b03191660011790559051600355600455565b306001600160a01b038216036122ff5760405162461bcd60e51b8152602060048201526005602482015264047533430360dc1b60448201526064016106af565b7f6c9a6c4a39284e37ed1cf53d337577d14212a4870fb976a4366c693b939918d555565b60015f8190526020527fcc69885fda6bcc1a4ace058b4a62bf5e179ea78fd58a1ccd71c22cc9b688792f546001600160a01b03161561238c5760405162461bcd60e51b8152602060048201526005602482015264047533130360dc1b60448201526064016106af565b60015f81905260208190527fcc69885fda6bcc1a4ace058b4a62bf5e179ea78fd58a1ccd71c22cc9b688792f80546001600160a01b03191690911790556001600160a01b038216156107a557813b61240e5760405162461bcd60e51b815260206004820152600560248201526423a998181960d91b60448201526064016106af565b61241d825f8360015f19611f73565b6107a55760405162461bcd60e51b8152602060048201526005602482015264047533030360dc1b60448201526064016106af565b604080516001600160a01b03841660248201526044808201849052825180830390910181526064909101909152602080820180516001600160e01b031663a9059cbb60e01b17815282515f93929184919082896127105a03f13d80156124c157602081146124c9575f93506124d3565b8193506124d3565b5f51158215171593505b5050509392505050565b6001600160a01b03811681146124f1575f80fd5b50565b80356124ff816124dd565b919050565b5f8060408385031215612515575f80fd5b8235612520816124dd565b946020939093013593505050565b634e487b7160e01b5f52604160045260245ffd5b5f82601f830112612551575f80fd5b81356001600160401b0381111561256a5761256a61252e565b604051601f8201601f19908116603f011681016001600160401b03811182821017156125985761259861252e565b6040528181528382016020018510156125af575f80fd5b816020850160208301375f918101602001919091529392505050565b5f805f80608085870312156125de575f80fd5b8435935060208501356001600160401b038111156125fa575f80fd5b61260687828801612542565b93505060408501356001600160401b03811115612621575f80fd5b61262d87828801612542565b949793965093946060013593505050565b5f6020828403121561264e575f80fd5b8135611f52816124dd565b8035600281106124ff575f80fd5b5f805f806080858703121561267a575f80fd5b8435612685816124dd565b93506020850135925060408501356001600160401b038111156126a6575f80fd5b6126b287828801612542565b9250506126c160608601612659565b905092959194509250565b5f81518084528060208401602086015e5f602082860101526020601f19601f83011685010191505092915050565b8215158152604060208201525f610d7560408301846126cc565b5f8060408385031215612725575f80fd5b50508035926020909101359150565b602081525f611f5260208301846126cc565b5f60208284031215612756575f80fd5b5035919050565b5f8083601f84011261276d575f80fd5b5081356001600160401b03811115612783575f80fd5b60208301915083602082850101111561279a575f80fd5b9250929050565b5f805f805f805f805f805f6101408c8e0312156127bc575f80fd5b6127c58c6124f4565b9a5060208c0135995060408c01356001600160401b038111156127e6575f80fd5b6127f28e828f0161275d565b909a509850612805905060608d01612659565b965060808c0135955060a08c0135945060c08c0135935061282860e08d016124f4565b92506128376101008d016124f4565b91506101208c01356001600160401b03811115612852575f80fd5b61285e8e828f01612542565b9150509295989b509295989b9093969950565b5f805f60608486031215612883575f80fd5b8335925060208401356001600160401b0381111561289f575f80fd5b6128ab86828701612542565b92505060408401356001600160401b038111156128c6575f80fd5b6128d286828701612542565b9150509250925092565b5f8151808452602084019350602083015f5b828110156129155781516001600160a01b03168652602095860195909101906001016128ee565b5093949350505050565b602081525f611f5260208301846128dc565b5f8060408385031215612942575f80fd5b823561294d816124dd565b915060208301356001600160401b03811115612967575f80fd5b61297385828601612542565b9150509250929050565b5f805f805f805f805f806101008b8d031215612997575f80fd5b8a356001600160401b038111156129ac575f80fd5b8b01601f81018d136129bc575f80fd5b80356001600160401b038111156129d1575f80fd5b8d60208260051b84010111156129e5575f80fd5b60209182019b5099508b013597506129ff60408c016124f4565b965060608b01356001600160401b03811115612a19575f80fd5b612a258d828e0161275d565b9097509550612a38905060808c016124f4565b9350612a4660a08c016124f4565b925060c08b01359150612a5b60e08c016124f4565b90509295989b9194979a5092959850565b604081525f612a7e60408301856128dc565b905060018060a01b03831660208301529392505050565b5f805f805f805f805f805f6101408c8e031215612ab0575f80fd5b8b35612abb816124dd565b9a5060208c0135995060408c01356001600160401b03811115612adc575f80fd5b612ae88e828f0161275d565b909a509850612afb905060608d01612659565b965060808c0135955060a08c0135945060c08c0135935060e08c0135612b20816124dd565b92506101008c0135612b31816124dd565b809250505f6101208d01359050809150509295989b509295989b9093969950565b5f8060408385031215612b63575f80fd5b8235612b6e816124dd565b91506020830135612b7e816124dd565b809150509250929050565b5f805f60608486031215612b9b575f80fd5b8335612ba6816124dd565b92506020840135612bb6816124dd565b91506040840135612bc6816124dd565b809150509250925092565b5f805f60608486031215612be3575f80fd5b8335612bee816124dd565b92506020840135612bfe816124dd565b929592945050506040919091013590565b602080825260059082015264475332303360d81b604082015260600190565b60208082526005908201526411d4cc8c0d60da1b604082015260600190565b634e487b7160e01b5f52601160045260245ffd5b5f60018201612c7257612c72612c4d565b5060010190565b604081525f612c8b60408301856126cc565b8281036020840152611fae81856126cc565b5f60208284031215612cad575f80fd5b81516001600160e01b031981168114611f52575f80fd5b60ff8281168282160390811115610c6d57610c6d612c4d565b8082028115828204841417610c6d57610c6d612c4d565b602080825260059082015264475332303160d81b604082015260600190565b634e487b7160e01b5f52602160045260245ffd5b60028110612d4357634e487b7160e01b5f52602160045260245ffd5b9052565b6001600160a01b038d168152602081018c90526101606040820181905281018a9052898b6101808301375f6101808b830101525f601f19601f8c01168201612d92606084018c612d27565b8960808401528860a08401528760c0840152612db960e08401886001600160a01b03169052565b6001600160a01b03861661010084015261018083820301610120840152612de46101808201866126cc565b915050612dfd6101408301846001600160a01b03169052565b9d9c50505050505050505050505050565b80820180821115610c6d57610c6d612c4d565b5f82612e3b57634e487b7160e01b5f52601260045260245ffd5b500490565b81810381811115610c6d57610c6d612c4d565b634e487b7160e01b5f52603260045260245ffd5b608080825281018590525f8660a08301825b88811015612ea9578235612e8c816124dd565b6001600160a01b0316825260209283019290910190600101612e79565b50602084019690965250506001600160a01b039283166040820152911660609091015292915050565b5f60208284031215612ee2575f80fd5b81518015158114611f52575f80fd5b818382375f9101908152919050565b8b81526001600160a01b038b166020820152604081018a9052606081018990526101608101612f32608083018a612d27565b60a082019790975260c081019590955260e08501939093526001600160a01b03918216610100850152166101208301526101409091015295945050505050565b5f81612f8057612f80612c4d565b505f19019056fea264697066735822122081443e1c410895f0a4690b84e287021364c5ba0a29cca6681083900167ef8e9564736f6c634300081a0033","linkReferences":{}},"methodIdentifiers":{"VERSION()":"ffa1ad74","addOwnerWithThreshold(address,uint256)":"0d582f13","approveHash(bytes32)":"d4d9bdcd","approvedHashes(address,bytes32)":"7d832974","changeThreshold(uint256)":"694e80c3","checkNSignatures(bytes32,bytes,bytes,uint256)":"12fb68e0","checkSignatures(bytes32,bytes,bytes)":"934f3a11","disableModule(address,address)":"e009cfde","domainSeparator()":"f698da25","enableModule(address)":"610b5925","encodeTransactionData(address,uint256,bytes,uint8,uint256,uint256,uint256,address,address,uint256)":"e86637db","execTransaction(address,uint256,bytes,uint8,uint256,uint256,uint256,address,address,bytes)":"6a761202","execTransactionFromModule(address,uint256,bytes,uint8)":"468721a7","execTransactionFromModuleReturnData(address,uint256,bytes,uint8)":"5229073f","getChainId()":"3408e470","getModulesPaginated(address,uint256)":"cc2f8452","getOwners()":"a0e67e2b","getStorageAt(uint256,uint256)":"5624b25b","getThreshold()":"e75235b8","getTransactionHash(address,uint256,bytes,uint8,uint256,uint256,uint256,address,address,uint256)":"d8d11f78","isModuleEnabled(address)":"2d9ad53d","isOwner(address)":"2f54bf6e","nonce()":"affed0e0","removeOwner(address,address,uint256)":"f8dc5dd9","setFallbackHandler(address)":"f08a0323","setGuard(address)":"e19a9dd9","setup(address[],uint256,address,bytes,address,address,uint256,address)":"b63e800d","signedMessages(bytes32)":"5ae6bd37","simulateAndRevert(address,bytes)":"b4faba09","swapOwner(address,address,address)":"e318b52b"},"storageLayout":{"storage":[{"astId":49123,"contract":"lib/safe-smart-account/contracts/Safe.sol:Safe","label":"singleton","offset":0,"slot":"0","type":"t_address"},{"astId":48113,"contract":"lib/safe-smart-account/contracts/Safe.sol:Safe","label":"modules","offset":0,"slot":"1","type":"t_mapping(t_address,t_address)"},{"astId":48531,"contract":"lib/safe-smart-account/contracts/Safe.sol:Safe","label":"owners","offset":0,"slot":"2","type":"t_mapping(t_address,t_address)"},{"astId":48533,"contract":"lib/safe-smart-account/contracts/Safe.sol:Safe","label":"ownerCount","offset":0,"slot":"3","type":"t_uint256"},{"astId":48535,"contract":"lib/safe-smart-account/contracts/Safe.sol:Safe","label":"threshold","offset":0,"slot":"4","type":"t_uint256"},{"astId":47021,"contract":"lib/safe-smart-account/contracts/Safe.sol:Safe","label":"nonce","offset":0,"slot":"5","type":"t_uint256"},{"astId":47023,"contract":"lib/safe-smart-account/contracts/Safe.sol:Safe","label":"_deprecatedDomainSeparator","offset":0,"slot":"6","type":"t_bytes32"},{"astId":47027,"contract":"lib/safe-smart-account/contracts/Safe.sol:Safe","label":"signedMessages","offset":0,"slot":"7","type":"t_mapping(t_bytes32,t_uint256)"},{"astId":47033,"contract":"lib/safe-smart-account/contracts/Safe.sol:Safe","label":"approvedHashes","offset":0,"slot":"8","type":"t_mapping(t_address,t_mapping(t_bytes32,t_uint256))"}],"types":{"t_address":{"encoding":"inplace","label":"address","numberOfBytes":"20"},"t_bytes32":{"encoding":"inplace","label":"bytes32","numberOfBytes":"32"},"t_mapping(t_address,t_address)":{"encoding":"mapping","key":"t_address","label":"mapping(address => address)","numberOfBytes":"32","value":"t_address"},"t_mapping(t_address,t_mapping(t_bytes32,t_uint256))":{"encoding":"mapping","key":"t_address","label":"mapping(address => mapping(bytes32 => uint256))","numberOfBytes":"32","value":"t_mapping(t_bytes32,t_uint256)"},"t_mapping(t_bytes32,t_uint256)":{"encoding":"mapping","key":"t_bytes32","label":"mapping(bytes32 => uint256)","numberOfBytes":"32","value":"t_uint256"},"t_uint256":{"encoding":"inplace","label":"uint256","numberOfBytes":"32"}}},"id":67}