{"abi":[{"type":"function","name":"acceptedBlocks","inputs":[{"name":"blockHeight","type":"uint256","internalType":"uint256"}],"outputs":[{"name":"height","type":"uint256","internalType":"uint256"},{"name":"commitment","type":"bytes32","internalType":"bytes32"},{"name":"blockId","type":"bytes32","internalType":"bytes32"}],"stateMutability":"view"},{"type":"function","name":"blockHeightEpochAssignments","inputs":[{"name":"blockHeight","type":"uint256","internalType":"uint256"}],"outputs":[{"name":"epoch","type":"uint256","internalType":"uint256"}],"stateMutability":"view"},{"type":"function","name":"commitmentStakes","inputs":[{"name":"blockHeight","type":"uint256","internalType":"uint256"},{"name":"commitement","type":"bytes32","internalType":"bytes32"}],"outputs":[{"name":"stake","type":"uint256","internalType":"uint256"}],"stateMutability":"view"},{"type":"function","name":"commitments","inputs":[{"name":"blockHeight","type":"uint256","internalType":"uint256"},{"name":"attester","type":"address","internalType":"address"}],"outputs":[{"name":"height","type":"uint256","internalType":"uint256"},{"name":"commitment","type":"bytes32","internalType":"bytes32"},{"name":"blockId","type":"bytes32","internalType":"bytes32"}],"stateMutability":"view"},{"type":"function","name":"lastAcceptedBlockHeight","inputs":[],"outputs":[{"name":"","type":"uint256","internalType":"uint256"}],"stateMutability":"view"},{"type":"function","name":"leadingBlockTolerance","inputs":[],"outputs":[{"name":"","type":"uint256","internalType":"uint256"}],"stateMutability":"view"},{"type":"function","name":"stakingContract","inputs":[],"outputs":[{"name":"","type":"address","internalType":"contract IMovementStaking"}],"stateMutability":"view"}],"bytecode":{"object":"0x6080604052348015600e575f80fd5b5061023e8061001c5f395ff3fe608060405234801561000f575f80fd5b506004361061007a575f3560e01c80636b588ac7116100585780636b588ac714610102578063e90d4c061461010b578063ee99205c14610144578063fc2788ad1461016e575f80fd5b80631c4e4e271461007e5780631cfa2516146100cc57806320e0e445146100e3575b5f80fd5b6100ac61008c366004610198565b60066020525f908152604090208054600182015460029092015490919083565b604080519384526020840192909252908201526060015b60405180910390f35b6100d560015481565b6040519081526020016100c3565b6100d56100f1366004610198565b60036020525f908152604090205481565b6100d560025481565b6100ac6101193660046101af565b600460209081525f928352604080842090915290825290208054600182015460029092015490919083565b5f54610156906001600160a01b031681565b6040516001600160a01b0390911681526020016100c3565b6100d561017c3660046101e8565b600560209081525f928352604080842090915290825290205481565b5f602082840312156101a8575f80fd5b5035919050565b5f80604083850312156101c0575f80fd5b8235915060208301356001600160a01b03811681146101dd575f80fd5b809150509250929050565b5f80604083850312156101f9575f80fd5b5050803592602090910135915056fea2646970667358221220ec8e9a79114618aefb9a97698639f2daf32089aa20b064662b2207f50c22c2cc64736f6c634300081a0033","linkReferences":{}},"methodIdentifiers":{"acceptedBlocks(uint256)":"1c4e4e27","blockHeightEpochAssignments(uint256)":"20e0e445","commitmentStakes(uint256,bytes32)":"fc2788ad","commitments(uint256,address)":"e90d4c06","lastAcceptedBlockHeight()":"6b588ac7","leadingBlockTolerance()":"1cfa2516","stakingContract()":"ee99205c"},"storageLayout":{"storage":[{"astId":53758,"contract":"src/settlement/MCRStorage.sol:MCRStorage","label":"stakingContract","offset":0,"slot":"0","type":"t_contract(IMovementStaking)55643"},{"astId":53760,"contract":"src/settlement/MCRStorage.sol:MCRStorage","label":"leadingBlockTolerance","offset":0,"slot":"1","type":"t_uint256"},{"astId":53762,"contract":"src/settlement/MCRStorage.sol:MCRStorage","label":"lastAcceptedBlockHeight","offset":0,"slot":"2","type":"t_uint256"},{"astId":53773,"contract":"src/settlement/MCRStorage.sol:MCRStorage","label":"blockHeightEpochAssignments","offset":0,"slot":"3","type":"t_mapping(t_uint256,t_uint256)"},{"astId":53780,"contract":"src/settlement/MCRStorage.sol:MCRStorage","label":"commitments","offset":0,"slot":"4","type":"t_mapping(t_uint256,t_mapping(t_address,t_struct(BlockCommitment)53769_storage))"},{"astId":53786,"contract":"src/settlement/MCRStorage.sol:MCRStorage","label":"commitmentStakes","offset":0,"slot":"5","type":"t_mapping(t_uint256,t_mapping(t_bytes32,t_uint256))"},{"astId":53791,"contract":"src/settlement/MCRStorage.sol:MCRStorage","label":"acceptedBlocks","offset":0,"slot":"6","type":"t_mapping(t_uint256,t_struct(BlockCommitment)53769_storage)"},{"astId":53795,"contract":"src/settlement/MCRStorage.sol:MCRStorage","label":"__gap","offset":0,"slot":"7","type":"t_array(t_uint256)50_storage"}],"types":{"t_address":{"encoding":"inplace","label":"address","numberOfBytes":"20"},"t_array(t_uint256)50_storage":{"encoding":"inplace","label":"uint256[50]","numberOfBytes":"1600","base":"t_uint256"},"t_bytes32":{"encoding":"inplace","label":"bytes32","numberOfBytes":"32"},"t_contract(IMovementStaking)55643":{"encoding":"inplace","label":"contract IMovementStaking","numberOfBytes":"20"},"t_mapping(t_address,t_struct(BlockCommitment)53769_storage)":{"encoding":"mapping","key":"t_address","label":"mapping(address => struct MCRStorage.BlockCommitment)","numberOfBytes":"32","value":"t_struct(BlockCommitment)53769_storage"},"t_mapping(t_bytes32,t_uint256)":{"encoding":"mapping","key":"t_bytes32","label":"mapping(bytes32 => uint256)","numberOfBytes":"32","value":"t_uint256"},"t_mapping(t_uint256,t_mapping(t_address,t_struct(BlockCommitment)53769_storage))":{"encoding":"mapping","key":"t_uint256","label":"mapping(uint256 => mapping(address => struct MCRStorage.BlockCommitment))","numberOfBytes":"32","value":"t_mapping(t_address,t_struct(BlockCommitment)53769_storage)"},"t_mapping(t_uint256,t_mapping(t_bytes32,t_uint256))":{"encoding":"mapping","key":"t_uint256","label":"mapping(uint256 => mapping(bytes32 => uint256))","numberOfBytes":"32","value":"t_mapping(t_bytes32,t_uint256)"},"t_mapping(t_uint256,t_struct(BlockCommitment)53769_storage)":{"encoding":"mapping","key":"t_uint256","label":"mapping(uint256 => struct MCRStorage.BlockCommitment)","numberOfBytes":"32","value":"t_struct(BlockCommitment)53769_storage"},"t_mapping(t_uint256,t_uint256)":{"encoding":"mapping","key":"t_uint256","label":"mapping(uint256 => uint256)","numberOfBytes":"32","value":"t_uint256"},"t_struct(BlockCommitment)53769_storage":{"encoding":"inplace","label":"struct MCRStorage.BlockCommitment","numberOfBytes":"96","members":[{"astId":53764,"contract":"src/settlement/MCRStorage.sol:MCRStorage","label":"height","offset":0,"slot":"0","type":"t_uint256"},{"astId":53766,"contract":"src/settlement/MCRStorage.sol:MCRStorage","label":"commitment","offset":0,"slot":"1","type":"t_bytes32"},{"astId":53768,"contract":"src/settlement/MCRStorage.sol:MCRStorage","label":"blockId","offset":0,"slot":"2","type":"t_bytes32"}]},"t_uint256":{"encoding":"inplace","label":"uint256","numberOfBytes":"32"}}},"id":102}